{
	"plants/nft/contracts/CosSin.sol": {
		"CosSin": {
			"abi": [
				{
					"inputs": [
						{
							"internalType": "uint256",
							"name": "_radiant",
							"type": "uint256"
						}
					],
					"name": "cos",
					"outputs": [
						{
							"internalType": "bool",
							"name": "_sign",
							"type": "bool"
						},
						{
							"internalType": "uint256",
							"name": "_output",
							"type": "uint256"
						}
					],
					"stateMutability": "view",
					"type": "function"
				},
				{
					"inputs": [
						{
							"internalType": "uint256",
							"name": "_radiant",
							"type": "uint256"
						}
					],
					"name": "sin",
					"outputs": [
						{
							"internalType": "bool",
							"name": "_sign",
							"type": "bool"
						},
						{
							"internalType": "uint256",
							"name": "_output",
							"type": "uint256"
						}
					],
					"stateMutability": "view",
					"type": "function"
				}
			],
			"devdoc": {
				"kind": "dev",
				"methods": {},
				"version": 1
			},
			"evm": {
				"assembly": "    /* \"plants/nft/contracts/CosSin.sol\":61:2129  contract CosSin {... */\n  mstore(0x40, 0x80)\n    /* \"plants/nft/contracts/CosSin.sol\":92:104  314159265359 */\n  0x492559f64f\n    /* \"plants/nft/contracts/CosSin.sol\":82:104  uint pi = 314159265359 */\n  0x00\n  sstore\n    /* \"plants/nft/contracts/CosSin.sol\":117:128  _pow(10,11) */\n  tag_1\n    /* \"plants/nft/contracts/CosSin.sol\":122:124  10 */\n  0x0a\n    /* \"plants/nft/contracts/CosSin.sol\":125:127  11 */\n  0x0b\n    /* \"plants/nft/contracts/CosSin.sol\":117:121  _pow */\n  shl(0x20, tag_2)\n    /* \"plants/nft/contracts/CosSin.sol\":117:128  _pow(10,11) */\n  0x20\n  shr\n  jump\t// in\ntag_1:\n    /* \"plants/nft/contracts/CosSin.sol\":108:128  uint n = _pow(10,11) */\n  0x01\n  sstore\n    /* \"plants/nft/contracts/CosSin.sol\":61:2129  contract CosSin {... */\n  callvalue\n  dup1\n  iszero\n  tag_3\n  jumpi\n  0x00\n  dup1\n  revert\ntag_3:\n  pop\n  jump(tag_4)\n    /* \"plants/nft/contracts/CosSin.sol\":133:340  function _pow(uint _x, uint _p) internal pure returns (uint _y) {... */\ntag_2:\n    /* \"plants/nft/contracts/CosSin.sol\":188:195  uint _y */\n  0x00\n    /* \"plants/nft/contracts/CosSin.sol\":215:216  0 */\n  dup1\n    /* \"plants/nft/contracts/CosSin.sol\":211:213  _p */\n  dup3\n    /* \"plants/nft/contracts/CosSin.sol\":211:216  _p>=0 */\n  lt\n  iszero\n    /* \"plants/nft/contracts/CosSin.sol\":203:234  require(_p>=0, \"Choose _p>=0.\") */\n  tag_6\n  jumpi\n  mload(0x40)\n  0x08c379a000000000000000000000000000000000000000000000000000000000\n  dup2\n  mstore\n  0x04\n  add\n  tag_7\n  swap1\n  tag_8\n  jump\t// in\ntag_7:\n  mload(0x40)\n  dup1\n  swap2\n  sub\n  swap1\n  revert\ntag_6:\n    /* \"plants/nft/contracts/CosSin.sol\":245:246  1 */\n  0x01\n    /* \"plants/nft/contracts/CosSin.sol\":240:246  _y = 1 */\n  swap1\n  pop\n    /* \"plants/nft/contracts/CosSin.sol\":259:260  0 */\n  0x00\n    /* \"plants/nft/contracts/CosSin.sol\":256:258  _p */\n  dup3\n    /* \"plants/nft/contracts/CosSin.sol\":256:260  _p>0 */\n  gt\n    /* \"plants/nft/contracts/CosSin.sol\":252:336  if (_p>0) {... */\n  iszero\n  tag_9\n  jumpi\n    /* \"plants/nft/contracts/CosSin.sol\":275:281  uint i */\n  0x00\n    /* \"plants/nft/contracts/CosSin.sol\":282:283  1 */\n  0x01\n    /* \"plants/nft/contracts/CosSin.sol\":275:283  uint i=1 */\n  swap1\n  pop\n    /* \"plants/nft/contracts/CosSin.sol\":270:328  for (uint i=1; i<=_p; i++) {... */\ntag_10:\n    /* \"plants/nft/contracts/CosSin.sol\":288:290  _p */\n  dup3\n    /* \"plants/nft/contracts/CosSin.sol\":285:286  i */\n  dup2\n    /* \"plants/nft/contracts/CosSin.sol\":285:290  i<=_p */\n  gt\n    /* \"plants/nft/contracts/CosSin.sol\":270:328  for (uint i=1; i<=_p; i++) {... */\n  tag_11\n  jumpi\n    /* \"plants/nft/contracts/CosSin.sol\":315:317  _x */\n  dup4\n    /* \"plants/nft/contracts/CosSin.sol\":309:317  _y *= _x */\n  dup3\n  tag_13\n  swap2\n  swap1\n  tag_14\n  jump\t// in\ntag_13:\n  swap2\n  pop\n    /* \"plants/nft/contracts/CosSin.sol\":292:295  i++ */\n  dup1\n  dup1\n  tag_15\n  swap1\n  tag_16\n  jump\t// in\ntag_15:\n  swap2\n  pop\n  pop\n    /* \"plants/nft/contracts/CosSin.sol\":270:328  for (uint i=1; i<=_p; i++) {... */\n  jump(tag_10)\ntag_11:\n  pop\n    /* \"plants/nft/contracts/CosSin.sol\":252:336  if (_p>0) {... */\ntag_9:\n    /* \"plants/nft/contracts/CosSin.sol\":133:340  function _pow(uint _x, uint _p) internal pure returns (uint _y) {... */\n  swap3\n  swap2\n  pop\n  pop\n  jump\t// out\n    /* \"#utility.yul\":7:373   */\ntag_18:\n    /* \"#utility.yul\":149:152   */\n  0x00\n    /* \"#utility.yul\":170:237   */\n  tag_20\n    /* \"#utility.yul\":234:236   */\n  0x0d\n    /* \"#utility.yul\":229:232   */\n  dup4\n    /* \"#utility.yul\":170:237   */\n  tag_21\n  jump\t// in\ntag_20:\n    /* \"#utility.yul\":163:237   */\n  swap2\n  pop\n    /* \"#utility.yul\":246:339   */\n  tag_22\n    /* \"#utility.yul\":335:338   */\n  dup3\n    /* \"#utility.yul\":246:339   */\n  tag_23\n  jump\t// in\ntag_22:\n    /* \"#utility.yul\":364:366   */\n  0x20\n    /* \"#utility.yul\":359:362   */\n  dup3\n    /* \"#utility.yul\":355:367   */\n  add\n    /* \"#utility.yul\":348:367   */\n  swap1\n  pop\n    /* \"#utility.yul\":7:373   */\n  swap2\n  swap1\n  pop\n  jump\t// out\n    /* \"#utility.yul\":379:798   */\ntag_8:\n    /* \"#utility.yul\":545:549   */\n  0x00\n    /* \"#utility.yul\":583:585   */\n  0x20\n    /* \"#utility.yul\":572:581   */\n  dup3\n    /* \"#utility.yul\":568:586   */\n  add\n    /* \"#utility.yul\":560:586   */\n  swap1\n  pop\n    /* \"#utility.yul\":632:641   */\n  dup2\n    /* \"#utility.yul\":626:630   */\n  dup2\n    /* \"#utility.yul\":622:642   */\n  sub\n    /* \"#utility.yul\":618:619   */\n  0x00\n    /* \"#utility.yul\":607:616   */\n  dup4\n    /* \"#utility.yul\":603:620   */\n  add\n    /* \"#utility.yul\":596:643   */\n  mstore\n    /* \"#utility.yul\":660:791   */\n  tag_25\n    /* \"#utility.yul\":786:790   */\n  dup2\n    /* \"#utility.yul\":660:791   */\n  tag_18\n  jump\t// in\ntag_25:\n    /* \"#utility.yul\":652:791   */\n  swap1\n  pop\n    /* \"#utility.yul\":379:798   */\n  swap2\n  swap1\n  pop\n  jump\t// out\n    /* \"#utility.yul\":804:973   */\ntag_21:\n    /* \"#utility.yul\":888:899   */\n  0x00\n    /* \"#utility.yul\":922:928   */\n  dup3\n    /* \"#utility.yul\":917:920   */\n  dup3\n    /* \"#utility.yul\":910:929   */\n  mstore\n    /* \"#utility.yul\":962:966   */\n  0x20\n    /* \"#utility.yul\":957:960   */\n  dup3\n    /* \"#utility.yul\":953:967   */\n  add\n    /* \"#utility.yul\":938:967   */\n  swap1\n  pop\n    /* \"#utility.yul\":804:973   */\n  swap3\n  swap2\n  pop\n  pop\n  jump\t// out\n    /* \"#utility.yul\":979:1327   */\ntag_14:\n    /* \"#utility.yul\":1019:1026   */\n  0x00\n    /* \"#utility.yul\":1042:1062   */\n  tag_28\n    /* \"#utility.yul\":1060:1061   */\n  dup3\n    /* \"#utility.yul\":1042:1062   */\n  tag_29\n  jump\t// in\ntag_28:\n    /* \"#utility.yul\":1037:1062   */\n  swap2\n  pop\n    /* \"#utility.yul\":1076:1096   */\n  tag_30\n    /* \"#utility.yul\":1094:1095   */\n  dup4\n    /* \"#utility.yul\":1076:1096   */\n  tag_29\n  jump\t// in\ntag_30:\n    /* \"#utility.yul\":1071:1096   */\n  swap3\n  pop\n    /* \"#utility.yul\":1264:1265   */\n  dup2\n    /* \"#utility.yul\":1196:1262   */\n  0xffffffffffffffffffffffffffffffffffffffffffffffffffffffffffffffff\n    /* \"#utility.yul\":1192:1266   */\n  div\n    /* \"#utility.yul\":1189:1190   */\n  dup4\n    /* \"#utility.yul\":1186:1267   */\n  gt\n    /* \"#utility.yul\":1181:1182   */\n  dup3\n    /* \"#utility.yul\":1174:1183   */\n  iszero\n    /* \"#utility.yul\":1167:1184   */\n  iszero\n    /* \"#utility.yul\":1163:1268   */\n  and\n    /* \"#utility.yul\":1160:1291   */\n  iszero\n  tag_31\n  jumpi\n    /* \"#utility.yul\":1271:1289   */\n  tag_32\n  tag_33\n  jump\t// in\ntag_32:\n    /* \"#utility.yul\":1160:1291   */\ntag_31:\n    /* \"#utility.yul\":1319:1320   */\n  dup3\n    /* \"#utility.yul\":1316:1317   */\n  dup3\n    /* \"#utility.yul\":1312:1321   */\n  mul\n    /* \"#utility.yul\":1301:1321   */\n  swap1\n  pop\n    /* \"#utility.yul\":979:1327   */\n  swap3\n  swap2\n  pop\n  pop\n  jump\t// out\n    /* \"#utility.yul\":1333:1410   */\ntag_29:\n    /* \"#utility.yul\":1370:1377   */\n  0x00\n    /* \"#utility.yul\":1399:1404   */\n  dup2\n    /* \"#utility.yul\":1388:1404   */\n  swap1\n  pop\n    /* \"#utility.yul\":1333:1410   */\n  swap2\n  swap1\n  pop\n  jump\t// out\n    /* \"#utility.yul\":1416:1649   */\ntag_16:\n    /* \"#utility.yul\":1455:1458   */\n  0x00\n    /* \"#utility.yul\":1478:1502   */\n  tag_36\n    /* \"#utility.yul\":1496:1501   */\n  dup3\n    /* \"#utility.yul\":1478:1502   */\n  tag_29\n  jump\t// in\ntag_36:\n    /* \"#utility.yul\":1469:1502   */\n  swap2\n  pop\n    /* \"#utility.yul\":1524:1590   */\n  0xffffffffffffffffffffffffffffffffffffffffffffffffffffffffffffffff\n    /* \"#utility.yul\":1517:1522   */\n  dup3\n    /* \"#utility.yul\":1514:1591   */\n  eq\n    /* \"#utility.yul\":1511:1614   */\n  iszero\n  tag_37\n  jumpi\n    /* \"#utility.yul\":1594:1612   */\n  tag_38\n  tag_33\n  jump\t// in\ntag_38:\n    /* \"#utility.yul\":1511:1614   */\ntag_37:\n    /* \"#utility.yul\":1641:1642   */\n  0x01\n    /* \"#utility.yul\":1634:1639   */\n  dup3\n    /* \"#utility.yul\":1630:1643   */\n  add\n    /* \"#utility.yul\":1623:1643   */\n  swap1\n  pop\n    /* \"#utility.yul\":1416:1649   */\n  swap2\n  swap1\n  pop\n  jump\t// out\n    /* \"#utility.yul\":1655:1835   */\ntag_33:\n    /* \"#utility.yul\":1703:1780   */\n  0x4e487b7100000000000000000000000000000000000000000000000000000000\n    /* \"#utility.yul\":1700:1701   */\n  0x00\n    /* \"#utility.yul\":1693:1781   */\n  mstore\n    /* \"#utility.yul\":1800:1804   */\n  0x11\n    /* \"#utility.yul\":1797:1798   */\n  0x04\n    /* \"#utility.yul\":1790:1805   */\n  mstore\n    /* \"#utility.yul\":1824:1828   */\n  0x24\n    /* \"#utility.yul\":1821:1822   */\n  0x00\n    /* \"#utility.yul\":1814:1829   */\n  revert\n    /* \"#utility.yul\":1841:2004   */\ntag_23:\n    /* \"#utility.yul\":1981:1996   */\n  0x43686f6f7365205f703e3d302e00000000000000000000000000000000000000\n    /* \"#utility.yul\":1977:1978   */\n  0x00\n    /* \"#utility.yul\":1969:1975   */\n  dup3\n    /* \"#utility.yul\":1965:1979   */\n  add\n    /* \"#utility.yul\":1958:1997   */\n  mstore\n    /* \"#utility.yul\":1841:2004   */\n  pop\n  jump\t// out\n    /* \"plants/nft/contracts/CosSin.sol\":61:2129  contract CosSin {... */\ntag_4:\n  dataSize(sub_0)\n  dup1\n  dataOffset(sub_0)\n  0x00\n  codecopy\n  0x00\n  return\nstop\n\nsub_0: assembly {\n        /* \"plants/nft/contracts/CosSin.sol\":61:2129  contract CosSin {... */\n      mstore(0x40, 0x80)\n      callvalue\n      dup1\n      iszero\n      tag_1\n      jumpi\n      0x00\n      dup1\n      revert\n    tag_1:\n      pop\n      jumpi(tag_2, lt(calldatasize, 0x04))\n      shr(0xe0, calldataload(0x00))\n      dup1\n      0xa58b00ba\n      eq\n      tag_3\n      jumpi\n      dup1\n      0xcb5cc109\n      eq\n      tag_4\n      jumpi\n    tag_2:\n      0x00\n      dup1\n      revert\n        /* \"plants/nft/contracts/CosSin.sol\":344:1701  function cos(uint _radiant) public  view returns (bool _sign, uint _output) {... */\n    tag_3:\n      tag_5\n      0x04\n      dup1\n      calldatasize\n      sub\n      dup2\n      add\n      swap1\n      tag_6\n      swap2\n      swap1\n      tag_7\n      jump\t// in\n    tag_6:\n      tag_8\n      jump\t// in\n    tag_5:\n      mload(0x40)\n      tag_9\n      swap3\n      swap2\n      swap1\n      tag_10\n      jump\t// in\n    tag_9:\n      mload(0x40)\n      dup1\n      swap2\n      sub\n      swap1\n      return\n        /* \"plants/nft/contracts/CosSin.sol\":1708:2125  function sin(uint _radiant) public view returns (bool _sign, uint _output) {... */\n    tag_4:\n      tag_11\n      0x04\n      dup1\n      calldatasize\n      sub\n      dup2\n      add\n      swap1\n      tag_12\n      swap2\n      swap1\n      tag_7\n      jump\t// in\n    tag_12:\n      tag_13\n      jump\t// in\n    tag_11:\n      mload(0x40)\n      tag_14\n      swap3\n      swap2\n      swap1\n      tag_10\n      jump\t// in\n    tag_14:\n      mload(0x40)\n      dup1\n      swap2\n      sub\n      swap1\n      return\n        /* \"plants/nft/contracts/CosSin.sol\":344:1701  function cos(uint _radiant) public  view returns (bool _sign, uint _output) {... */\n    tag_8:\n        /* \"plants/nft/contracts/CosSin.sol\":394:404  bool _sign */\n      0x00\n        /* \"plants/nft/contracts/CosSin.sol\":406:418  uint _output */\n      dup1\n        /* \"plants/nft/contracts/CosSin.sol\":439:447  _radiant */\n      dup3\n        /* \"plants/nft/contracts/CosSin.sol\":436:437  0 */\n      0x00\n        /* \"plants/nft/contracts/CosSin.sol\":436:447  0<=_radiant */\n      gt\n      iszero\n        /* \"plants/nft/contracts/CosSin.sol\":436:467  0<=_radiant && _radiant <= 2*pi */\n      dup1\n      iszero\n      tag_16\n      jumpi\n      pop\n        /* \"plants/nft/contracts/CosSin.sol\":465:467  pi */\n      sload(0x00)\n        /* \"plants/nft/contracts/CosSin.sol\":463:464  2 */\n      0x02\n        /* \"plants/nft/contracts/CosSin.sol\":463:467  2*pi */\n      tag_17\n      swap2\n      swap1\n      tag_18\n      jump\t// in\n    tag_17:\n        /* \"plants/nft/contracts/CosSin.sol\":451:459  _radiant */\n      dup4\n        /* \"plants/nft/contracts/CosSin.sol\":451:467  _radiant <= 2*pi */\n      gt\n      iszero\n        /* \"plants/nft/contracts/CosSin.sol\":436:467  0<=_radiant && _radiant <= 2*pi */\n    tag_16:\n        /* \"plants/nft/contracts/CosSin.sol\":426:550  require( (0<=_radiant && _radiant <= 2*pi) , \"Please choose _radiant between 0 and 2*pi=628318530718. Note: radiant*10^11.\") */\n      tag_19\n      jumpi\n      mload(0x40)\n      0x08c379a000000000000000000000000000000000000000000000000000000000\n      dup2\n      mstore\n      0x04\n      add\n      tag_20\n      swap1\n      tag_21\n      jump\t// in\n    tag_20:\n      mload(0x40)\n      dup1\n      swap2\n      sub\n      swap1\n      revert\n    tag_19:\n        /* \"plants/nft/contracts/CosSin.sol\":824:825  2 */\n      0x02\n        /* \"plants/nft/contracts/CosSin.sol\":821:823  pi */\n      sload(0x00)\n        /* \"plants/nft/contracts/CosSin.sol\":821:825  pi/2 */\n      tag_22\n      swap2\n      swap1\n      tag_23\n      jump\t// in\n    tag_22:\n        /* \"plants/nft/contracts/CosSin.sol\":809:817  _radiant */\n      dup4\n        /* \"plants/nft/contracts/CosSin.sol\":809:825  _radiant == pi/2 */\n      eq\n        /* \"plants/nft/contracts/CosSin.sol\":809:849  _radiant == pi/2 || _radiant == (3*pi)/2 */\n      dup1\n      tag_24\n      jumpi\n      pop\n        /* \"plants/nft/contracts/CosSin.sol\":848:849  2 */\n      0x02\n        /* \"plants/nft/contracts/CosSin.sol\":844:846  pi */\n      sload(0x00)\n        /* \"plants/nft/contracts/CosSin.sol\":842:843  3 */\n      0x03\n        /* \"plants/nft/contracts/CosSin.sol\":842:846  3*pi */\n      tag_25\n      swap2\n      swap1\n      tag_18\n      jump\t// in\n    tag_25:\n        /* \"plants/nft/contracts/CosSin.sol\":841:849  (3*pi)/2 */\n      tag_26\n      swap2\n      swap1\n      tag_23\n      jump\t// in\n    tag_26:\n        /* \"plants/nft/contracts/CosSin.sol\":829:837  _radiant */\n      dup4\n        /* \"plants/nft/contracts/CosSin.sol\":829:849  _radiant == (3*pi)/2 */\n      eq\n        /* \"plants/nft/contracts/CosSin.sol\":809:849  _radiant == pi/2 || _radiant == (3*pi)/2 */\n    tag_24:\n        /* \"plants/nft/contracts/CosSin.sol\":805:1697  if (_radiant == pi/2 || _radiant == (3*pi)/2 ) {... */\n      iszero\n      tag_27\n      jumpi\n        /* \"plants/nft/contracts/CosSin.sol\":870:874  true */\n      0x01\n        /* \"plants/nft/contracts/CosSin.sol\":860:874  _sign   = true */\n      swap2\n      pop\n        /* \"plants/nft/contracts/CosSin.sol\":892:893  0 */\n      0x00\n        /* \"plants/nft/contracts/CosSin.sol\":882:893  _output = 0 */\n      swap1\n      pop\n        /* \"plants/nft/contracts/CosSin.sol\":805:1697  if (_radiant == pi/2 || _radiant == (3*pi)/2 ) {... */\n      jump(tag_28)\n    tag_27:\n        /* \"plants/nft/contracts/CosSin.sol\":933:934  2 */\n      0x02\n        /* \"plants/nft/contracts/CosSin.sol\":930:932  pi */\n      sload(0x00)\n        /* \"plants/nft/contracts/CosSin.sol\":930:934  pi/2 */\n      tag_29\n      swap2\n      swap1\n      tag_23\n      jump\t// in\n    tag_29:\n        /* \"plants/nft/contracts/CosSin.sol\":919:927  _radiant */\n      dup4\n        /* \"plants/nft/contracts/CosSin.sol\":919:934  _radiant < pi/2 */\n      lt\n        /* \"plants/nft/contracts/CosSin.sol\":914:1288  if ( _radiant < pi/2 ) {... */\n      iszero\n      tag_30\n      jumpi\n        /* \"plants/nft/contracts/CosSin.sol\":955:959  true */\n      0x01\n        /* \"plants/nft/contracts/CosSin.sol\":947:959  _sign = true */\n      swap2\n      pop\n        /* \"plants/nft/contracts/CosSin.sol\":914:1288  if ( _radiant < pi/2 ) {... */\n      jump(tag_31)\n    tag_30:\n        /* \"plants/nft/contracts/CosSin.sol\":1014:1016  pi */\n      sload(0x00)\n        /* \"plants/nft/contracts/CosSin.sol\":1002:1010  _radiant */\n      dup4\n        /* \"plants/nft/contracts/CosSin.sol\":1002:1016  _radiant <= pi */\n      gt\n        /* \"plants/nft/contracts/CosSin.sol\":998:1288  if (_radiant <= pi ){... */\n      tag_32\n      jumpi\n        /* \"plants/nft/contracts/CosSin.sol\":1038:1043  false */\n      0x00\n        /* \"plants/nft/contracts/CosSin.sol\":1030:1043  _sign = false */\n      swap2\n      pop\n        /* \"plants/nft/contracts/CosSin.sol\":1069:1077  _radiant */\n      dup3\n        /* \"plants/nft/contracts/CosSin.sol\":1066:1068  pi */\n      sload(0x00)\n        /* \"plants/nft/contracts/CosSin.sol\":1066:1077  pi-_radiant */\n      tag_33\n      swap2\n      swap1\n      tag_34\n      jump\t// in\n    tag_33:\n        /* \"plants/nft/contracts/CosSin.sol\":1055:1077  _radiant = pi-_radiant */\n      swap3\n      pop\n        /* \"plants/nft/contracts/CosSin.sol\":998:1288  if (_radiant <= pi ){... */\n      jump(tag_35)\n    tag_32:\n        /* \"plants/nft/contracts/CosSin.sol\":1116:1117  2 */\n      0x02\n        /* \"plants/nft/contracts/CosSin.sol\":1112:1114  pi */\n      sload(0x00)\n        /* \"plants/nft/contracts/CosSin.sol\":1110:1111  3 */\n      0x03\n        /* \"plants/nft/contracts/CosSin.sol\":1110:1114  3*pi */\n      tag_36\n      swap2\n      swap1\n      tag_18\n      jump\t// in\n    tag_36:\n        /* \"plants/nft/contracts/CosSin.sol\":1109:1117  (3*pi)/2 */\n      tag_37\n      swap2\n      swap1\n      tag_23\n      jump\t// in\n    tag_37:\n        /* \"plants/nft/contracts/CosSin.sol\":1098:1106  _radiant */\n      dup4\n        /* \"plants/nft/contracts/CosSin.sol\":1098:1117  _radiant < (3*pi)/2 */\n      lt\n        /* \"plants/nft/contracts/CosSin.sol\":1094:1288  if (_radiant < (3*pi)/2 ){... */\n      iszero\n      tag_38\n      jumpi\n        /* \"plants/nft/contracts/CosSin.sol\":1139:1144  false */\n      0x00\n        /* \"plants/nft/contracts/CosSin.sol\":1131:1144  _sign = false */\n      swap2\n      pop\n        /* \"plants/nft/contracts/CosSin.sol\":1176:1178  pi */\n      sload(0x00)\n        /* \"plants/nft/contracts/CosSin.sol\":1167:1175  _radiant */\n      dup4\n        /* \"plants/nft/contracts/CosSin.sol\":1167:1178  _radiant-pi */\n      tag_39\n      swap2\n      swap1\n      tag_34\n      jump\t// in\n    tag_39:\n        /* \"plants/nft/contracts/CosSin.sol\":1156:1178  _radiant = _radiant-pi */\n      swap3\n      pop\n        /* \"plants/nft/contracts/CosSin.sol\":1094:1288  if (_radiant < (3*pi)/2 ){... */\n      jump(tag_40)\n    tag_38:\n        /* \"plants/nft/contracts/CosSin.sol\":1213:1215  pi */\n      sload(0x00)\n        /* \"plants/nft/contracts/CosSin.sol\":1211:1212  2 */\n      0x02\n        /* \"plants/nft/contracts/CosSin.sol\":1211:1215  2*pi */\n      tag_41\n      swap2\n      swap1\n      tag_18\n      jump\t// in\n    tag_41:\n        /* \"plants/nft/contracts/CosSin.sol\":1199:1207  _radiant */\n      dup4\n        /* \"plants/nft/contracts/CosSin.sol\":1199:1215  _radiant <= 2*pi */\n      gt\n        /* \"plants/nft/contracts/CosSin.sol\":1195:1288  if (_radiant <= 2*pi ){... */\n      tag_42\n      jumpi\n        /* \"plants/nft/contracts/CosSin.sol\":1237:1241  true */\n      0x01\n        /* \"plants/nft/contracts/CosSin.sol\":1229:1241  _sign = true */\n      swap2\n      pop\n        /* \"plants/nft/contracts/CosSin.sol\":1269:1277  _radiant */\n      dup3\n        /* \"plants/nft/contracts/CosSin.sol\":1266:1268  pi */\n      sload(0x00)\n        /* \"plants/nft/contracts/CosSin.sol\":1264:1265  2 */\n      0x02\n        /* \"plants/nft/contracts/CosSin.sol\":1264:1268  2*pi */\n      tag_43\n      swap2\n      swap1\n      tag_18\n      jump\t// in\n    tag_43:\n        /* \"plants/nft/contracts/CosSin.sol\":1264:1277  2*pi-_radiant */\n      tag_44\n      swap2\n      swap1\n      tag_34\n      jump\t// in\n    tag_44:\n        /* \"plants/nft/contracts/CosSin.sol\":1253:1277  _radiant = 2*pi-_radiant */\n      swap3\n      pop\n        /* \"plants/nft/contracts/CosSin.sol\":1195:1288  if (_radiant <= 2*pi ){... */\n    tag_42:\n        /* \"plants/nft/contracts/CosSin.sol\":1094:1288  if (_radiant < (3*pi)/2 ){... */\n    tag_40:\n        /* \"plants/nft/contracts/CosSin.sol\":998:1288  if (_radiant <= pi ){... */\n    tag_35:\n        /* \"plants/nft/contracts/CosSin.sol\":914:1288  if ( _radiant < pi/2 ) {... */\n    tag_31:\n        /* \"plants/nft/contracts/CosSin.sol\":1310:1319  _pow(n,6) */\n      tag_45\n        /* \"plants/nft/contracts/CosSin.sol\":1315:1316  n */\n      sload(0x01)\n        /* \"plants/nft/contracts/CosSin.sol\":1317:1318  6 */\n      0x06\n        /* \"plants/nft/contracts/CosSin.sol\":1310:1314  _pow */\n      tag_46\n        /* \"plants/nft/contracts/CosSin.sol\":1310:1319  _pow(n,6) */\n      jump\t// in\n    tag_45:\n        /* \"plants/nft/contracts/CosSin.sol\":1306:1309  720 */\n      0x02d0\n        /* \"plants/nft/contracts/CosSin.sol\":1306:1319  720*_pow(n,6) */\n      tag_47\n      swap2\n      swap1\n      tag_18\n      jump\t// in\n    tag_47:\n        /* \"plants/nft/contracts/CosSin.sol\":1295:1319  _output  = 720*_pow(n,6) */\n      swap1\n      pop\n        /* \"plants/nft/contracts/CosSin.sol\":1355:1371  _pow(_radiant,2) */\n      tag_48\n        /* \"plants/nft/contracts/CosSin.sol\":1360:1368  _radiant */\n      dup4\n        /* \"plants/nft/contracts/CosSin.sol\":1369:1370  2 */\n      0x02\n        /* \"plants/nft/contracts/CosSin.sol\":1355:1359  _pow */\n      tag_46\n        /* \"plants/nft/contracts/CosSin.sol\":1355:1371  _pow(_radiant,2) */\n      jump\t// in\n    tag_48:\n        /* \"plants/nft/contracts/CosSin.sol\":1345:1354  _pow(n,4) */\n      tag_49\n        /* \"plants/nft/contracts/CosSin.sol\":1350:1351  n */\n      sload(0x01)\n        /* \"plants/nft/contracts/CosSin.sol\":1352:1353  4 */\n      0x04\n        /* \"plants/nft/contracts/CosSin.sol\":1345:1349  _pow */\n      tag_46\n        /* \"plants/nft/contracts/CosSin.sol\":1345:1354  _pow(n,4) */\n      jump\t// in\n    tag_49:\n        /* \"plants/nft/contracts/CosSin.sol\":1341:1344  360 */\n      0x0168\n        /* \"plants/nft/contracts/CosSin.sol\":1341:1354  360*_pow(n,4) */\n      tag_50\n      swap2\n      swap1\n      tag_18\n      jump\t// in\n    tag_50:\n        /* \"plants/nft/contracts/CosSin.sol\":1341:1371  360*_pow(n,4)*_pow(_radiant,2) */\n      tag_51\n      swap2\n      swap1\n      tag_18\n      jump\t// in\n    tag_51:\n        /* \"plants/nft/contracts/CosSin.sol\":1331:1338  _output */\n      dup2\n        /* \"plants/nft/contracts/CosSin.sol\":1331:1372  _output> (360*_pow(n,4)*_pow(_radiant,2)) */\n      gt\n        /* \"plants/nft/contracts/CosSin.sol\":1327:1691  if (_output> (360*_pow(n,4)*_pow(_radiant,2))) {... */\n      iszero\n      tag_52\n      jumpi\n        /* \"plants/nft/contracts/CosSin.sol\":1410:1426  _pow(_radiant,2) */\n      tag_53\n        /* \"plants/nft/contracts/CosSin.sol\":1415:1423  _radiant */\n      dup4\n        /* \"plants/nft/contracts/CosSin.sol\":1424:1425  2 */\n      0x02\n        /* \"plants/nft/contracts/CosSin.sol\":1410:1414  _pow */\n      tag_46\n        /* \"plants/nft/contracts/CosSin.sol\":1410:1426  _pow(_radiant,2) */\n      jump\t// in\n    tag_53:\n        /* \"plants/nft/contracts/CosSin.sol\":1400:1409  _pow(n,4) */\n      tag_54\n        /* \"plants/nft/contracts/CosSin.sol\":1405:1406  n */\n      sload(0x01)\n        /* \"plants/nft/contracts/CosSin.sol\":1407:1408  4 */\n      0x04\n        /* \"plants/nft/contracts/CosSin.sol\":1400:1404  _pow */\n      tag_46\n        /* \"plants/nft/contracts/CosSin.sol\":1400:1409  _pow(n,4) */\n      jump\t// in\n    tag_54:\n        /* \"plants/nft/contracts/CosSin.sol\":1396:1399  360 */\n      0x0168\n        /* \"plants/nft/contracts/CosSin.sol\":1396:1409  360*_pow(n,4) */\n      tag_55\n      swap2\n      swap1\n      tag_18\n      jump\t// in\n    tag_55:\n        /* \"plants/nft/contracts/CosSin.sol\":1396:1426  360*_pow(n,4)*_pow(_radiant,2) */\n      tag_56\n      swap2\n      swap1\n      tag_18\n      jump\t// in\n    tag_56:\n        /* \"plants/nft/contracts/CosSin.sol\":1384:1427  _output -= (360*_pow(n,4)*_pow(_radiant,2)) */\n      dup2\n      tag_57\n      swap2\n      swap1\n      tag_34\n      jump\t// in\n    tag_57:\n      swap1\n      pop\n        /* \"plants/nft/contracts/CosSin.sol\":1462:1478  _pow(_radiant,4) */\n      tag_58\n        /* \"plants/nft/contracts/CosSin.sol\":1467:1475  _radiant */\n      dup4\n        /* \"plants/nft/contracts/CosSin.sol\":1476:1477  4 */\n      0x04\n        /* \"plants/nft/contracts/CosSin.sol\":1462:1466  _pow */\n      tag_46\n        /* \"plants/nft/contracts/CosSin.sol\":1462:1478  _pow(_radiant,4) */\n      jump\t// in\n    tag_58:\n        /* \"plants/nft/contracts/CosSin.sol\":1452:1461  _pow(n,2) */\n      tag_59\n        /* \"plants/nft/contracts/CosSin.sol\":1457:1458  n */\n      sload(0x01)\n        /* \"plants/nft/contracts/CosSin.sol\":1459:1460  2 */\n      0x02\n        /* \"plants/nft/contracts/CosSin.sol\":1452:1456  _pow */\n      tag_46\n        /* \"plants/nft/contracts/CosSin.sol\":1452:1461  _pow(n,2) */\n      jump\t// in\n    tag_59:\n        /* \"plants/nft/contracts/CosSin.sol\":1449:1451  30 */\n      0x1e\n        /* \"plants/nft/contracts/CosSin.sol\":1449:1461  30*_pow(n,2) */\n      tag_60\n      swap2\n      swap1\n      tag_18\n      jump\t// in\n    tag_60:\n        /* \"plants/nft/contracts/CosSin.sol\":1449:1478  30*_pow(n,2)*_pow(_radiant,4) */\n      tag_61\n      swap2\n      swap1\n      tag_18\n      jump\t// in\n    tag_61:\n        /* \"plants/nft/contracts/CosSin.sol\":1437:1479  _output += (30*_pow(n,2)*_pow(_radiant,4)) */\n      dup2\n      tag_62\n      swap2\n      swap1\n      tag_63\n      jump\t// in\n    tag_62:\n      swap1\n      pop\n        /* \"plants/nft/contracts/CosSin.sol\":1503:1519  _pow(_radiant,6) */\n      tag_64\n        /* \"plants/nft/contracts/CosSin.sol\":1508:1516  _radiant */\n      dup4\n        /* \"plants/nft/contracts/CosSin.sol\":1517:1518  6 */\n      0x06\n        /* \"plants/nft/contracts/CosSin.sol\":1503:1507  _pow */\n      tag_46\n        /* \"plants/nft/contracts/CosSin.sol\":1503:1519  _pow(_radiant,6) */\n      jump\t// in\n    tag_64:\n        /* \"plants/nft/contracts/CosSin.sol\":1493:1500  _output */\n      dup2\n        /* \"plants/nft/contracts/CosSin.sol\":1493:1519  _output > _pow(_radiant,6) */\n      gt\n        /* \"plants/nft/contracts/CosSin.sol\":1489:1611  if (_output > _pow(_radiant,6)) {... */\n      iszero\n      tag_65\n      jumpi\n        /* \"plants/nft/contracts/CosSin.sol\":1544:1560  _pow(_radiant,6) */\n      tag_66\n        /* \"plants/nft/contracts/CosSin.sol\":1549:1557  _radiant */\n      dup4\n        /* \"plants/nft/contracts/CosSin.sol\":1558:1559  6 */\n      0x06\n        /* \"plants/nft/contracts/CosSin.sol\":1544:1548  _pow */\n      tag_46\n        /* \"plants/nft/contracts/CosSin.sol\":1544:1560  _pow(_radiant,6) */\n      jump\t// in\n    tag_66:\n        /* \"plants/nft/contracts/CosSin.sol\":1533:1560  _output -= _pow(_radiant,6) */\n      dup2\n      tag_67\n      swap2\n      swap1\n      tag_34\n      jump\t// in\n    tag_67:\n      swap1\n      pop\n        /* \"plants/nft/contracts/CosSin.sol\":1489:1611  if (_output > _pow(_radiant,6)) {... */\n      jump(tag_68)\n    tag_65:\n        /* \"plants/nft/contracts/CosSin.sol\":1599:1600  0 */\n      0x00\n        /* \"plants/nft/contracts/CosSin.sol\":1589:1600  _output = 0 */\n      swap1\n      pop\n        /* \"plants/nft/contracts/CosSin.sol\":1489:1611  if (_output > _pow(_radiant,6)) {... */\n    tag_68:\n        /* \"plants/nft/contracts/CosSin.sol\":1634:1643  _pow(n,5) */\n      tag_69\n        /* \"plants/nft/contracts/CosSin.sol\":1639:1640  n */\n      sload(0x01)\n        /* \"plants/nft/contracts/CosSin.sol\":1641:1642  5 */\n      0x05\n        /* \"plants/nft/contracts/CosSin.sol\":1634:1638  _pow */\n      tag_46\n        /* \"plants/nft/contracts/CosSin.sol\":1634:1643  _pow(n,5) */\n      jump\t// in\n    tag_69:\n        /* \"plants/nft/contracts/CosSin.sol\":1630:1633  720 */\n      0x02d0\n        /* \"plants/nft/contracts/CosSin.sol\":1630:1643  720*_pow(n,5) */\n      tag_70\n      swap2\n      swap1\n      tag_18\n      jump\t// in\n    tag_70:\n        /* \"plants/nft/contracts/CosSin.sol\":1618:1644  _output /= (720*_pow(n,5)) */\n      dup2\n      tag_71\n      swap2\n      swap1\n      tag_23\n      jump\t// in\n    tag_71:\n      swap1\n      pop\n        /* \"plants/nft/contracts/CosSin.sol\":1327:1691  if (_output> (360*_pow(n,4)*_pow(_radiant,2))) {... */\n      jump(tag_72)\n    tag_52:\n        /* \"plants/nft/contracts/CosSin.sol\":1679:1680  0 */\n      0x00\n        /* \"plants/nft/contracts/CosSin.sol\":1669:1680  _output = 0 */\n      swap1\n      pop\n        /* \"plants/nft/contracts/CosSin.sol\":1327:1691  if (_output> (360*_pow(n,4)*_pow(_radiant,2))) {... */\n    tag_72:\n        /* \"plants/nft/contracts/CosSin.sol\":805:1697  if (_radiant == pi/2 || _radiant == (3*pi)/2 ) {... */\n    tag_28:\n        /* \"plants/nft/contracts/CosSin.sol\":344:1701  function cos(uint _radiant) public  view returns (bool _sign, uint _output) {... */\n      swap2\n      pop\n      swap2\n      jump\t// out\n        /* \"plants/nft/contracts/CosSin.sol\":1708:2125  function sin(uint _radiant) public view returns (bool _sign, uint _output) {... */\n    tag_13:\n        /* \"plants/nft/contracts/CosSin.sol\":1757:1767  bool _sign */\n      0x00\n        /* \"plants/nft/contracts/CosSin.sol\":1769:1781  uint _output */\n      dup1\n        /* \"plants/nft/contracts/CosSin.sol\":1806:1814  _radiant */\n      dup3\n        /* \"plants/nft/contracts/CosSin.sol\":1803:1804  0 */\n      0x00\n        /* \"plants/nft/contracts/CosSin.sol\":1803:1814  0<=_radiant */\n      gt\n      iszero\n        /* \"plants/nft/contracts/CosSin.sol\":1803:1834  0<=_radiant && _radiant <= 2*pi */\n      dup1\n      iszero\n      tag_74\n      jumpi\n      pop\n        /* \"plants/nft/contracts/CosSin.sol\":1832:1834  pi */\n      sload(0x00)\n        /* \"plants/nft/contracts/CosSin.sol\":1830:1831  2 */\n      0x02\n        /* \"plants/nft/contracts/CosSin.sol\":1830:1834  2*pi */\n      tag_75\n      swap2\n      swap1\n      tag_18\n      jump\t// in\n    tag_75:\n        /* \"plants/nft/contracts/CosSin.sol\":1818:1826  _radiant */\n      dup4\n        /* \"plants/nft/contracts/CosSin.sol\":1818:1834  _radiant <= 2*pi */\n      gt\n      iszero\n        /* \"plants/nft/contracts/CosSin.sol\":1803:1834  0<=_radiant && _radiant <= 2*pi */\n    tag_74:\n        /* \"plants/nft/contracts/CosSin.sol\":1793:1917  require( (0<=_radiant && _radiant <= 2*pi) , \"Please choose _radiant between 0 and 2*pi=628318530718. Note: radiant*10^11.\") */\n      tag_76\n      jumpi\n      mload(0x40)\n      0x08c379a000000000000000000000000000000000000000000000000000000000\n      dup2\n      mstore\n      0x04\n      add\n      tag_77\n      swap1\n      tag_21\n      jump\t// in\n    tag_77:\n      mload(0x40)\n      dup1\n      swap2\n      sub\n      swap1\n      revert\n    tag_76:\n        /* \"plants/nft/contracts/CosSin.sol\":1967:1973  uint m */\n      0x00\n        /* \"plants/nft/contracts/CosSin.sol\":1979:1980  2 */\n      0x02\n        /* \"plants/nft/contracts/CosSin.sol\":1976:1978  pi */\n      sload(0x00)\n        /* \"plants/nft/contracts/CosSin.sol\":1976:1980  pi/2 */\n      tag_78\n      swap2\n      swap1\n      tag_23\n      jump\t// in\n    tag_78:\n        /* \"plants/nft/contracts/CosSin.sol\":1967:1980  uint m = pi/2 */\n      swap1\n      pop\n        /* \"plants/nft/contracts/CosSin.sol\":2006:2007  2 */\n      0x02\n        /* \"plants/nft/contracts/CosSin.sol\":2003:2005  pi */\n      sload(0x00)\n        /* \"plants/nft/contracts/CosSin.sol\":2003:2007  pi/2 */\n      tag_79\n      swap2\n      swap1\n      tag_23\n      jump\t// in\n    tag_79:\n        /* \"plants/nft/contracts/CosSin.sol\":1994:2002  _radiant */\n      dup5\n        /* \"plants/nft/contracts/CosSin.sol\":1994:2007  _radiant>pi/2 */\n      gt\n        /* \"plants/nft/contracts/CosSin.sol\":1990:2045  if (_radiant>pi/2) {... */\n      iszero\n      tag_80\n      jumpi\n        /* \"plants/nft/contracts/CosSin.sol\":2032:2034  pi */\n      sload(0x00)\n        /* \"plants/nft/contracts/CosSin.sol\":2030:2031  2 */\n      0x02\n        /* \"plants/nft/contracts/CosSin.sol\":2030:2034  2*pi */\n      tag_81\n      swap2\n      swap1\n      tag_18\n      jump\t// in\n    tag_81:\n        /* \"plants/nft/contracts/CosSin.sol\":2028:2029  2 */\n      0x02\n        /* \"plants/nft/contracts/CosSin.sol\":2025:2027  pi */\n      sload(0x00)\n        /* \"plants/nft/contracts/CosSin.sol\":2025:2029  pi/2 */\n      tag_82\n      swap2\n      swap1\n      tag_23\n      jump\t// in\n    tag_82:\n        /* \"plants/nft/contracts/CosSin.sol\":2025:2034  pi/2+2*pi */\n      tag_83\n      swap2\n      swap1\n      tag_63\n      jump\t// in\n    tag_83:\n        /* \"plants/nft/contracts/CosSin.sol\":2021:2034  m = pi/2+2*pi */\n      swap1\n      pop\n        /* \"plants/nft/contracts/CosSin.sol\":1990:2045  if (_radiant>pi/2) {... */\n    tag_80:\n        /* \"plants/nft/contracts/CosSin.sol\":2067:2075  _radiant */\n      dup4\n        /* \"plants/nft/contracts/CosSin.sol\":2065:2066  m */\n      dup2\n        /* \"plants/nft/contracts/CosSin.sol\":2065:2075  m-_radiant */\n      tag_84\n      swap2\n      swap1\n      tag_34\n      jump\t// in\n    tag_84:\n        /* \"plants/nft/contracts/CosSin.sol\":2054:2075  _radiant = m-_radiant */\n      swap4\n      pop\n        /* \"plants/nft/contracts/CosSin.sol\":2105:2118  cos(_radiant) */\n      tag_85\n        /* \"plants/nft/contracts/CosSin.sol\":2109:2117  _radiant */\n      dup5\n        /* \"plants/nft/contracts/CosSin.sol\":2105:2108  cos */\n      tag_8\n        /* \"plants/nft/contracts/CosSin.sol\":2105:2118  cos(_radiant) */\n      jump\t// in\n    tag_85:\n        /* \"plants/nft/contracts/CosSin.sol\":2085:2118  (_sign , _output) = cos(_radiant) */\n      dup1\n      swap4\n      pop\n      dup2\n      swap5\n      pop\n      pop\n      pop\n        /* \"plants/nft/contracts/CosSin.sol\":1783:2125  {... */\n      pop\n        /* \"plants/nft/contracts/CosSin.sol\":1708:2125  function sin(uint _radiant) public view returns (bool _sign, uint _output) {... */\n      swap2\n      pop\n      swap2\n      jump\t// out\n        /* \"plants/nft/contracts/CosSin.sol\":133:340  function _pow(uint _x, uint _p) internal pure returns (uint _y) {... */\n    tag_46:\n        /* \"plants/nft/contracts/CosSin.sol\":188:195  uint _y */\n      0x00\n        /* \"plants/nft/contracts/CosSin.sol\":215:216  0 */\n      dup1\n        /* \"plants/nft/contracts/CosSin.sol\":211:213  _p */\n      dup3\n        /* \"plants/nft/contracts/CosSin.sol\":211:216  _p>=0 */\n      lt\n      iszero\n        /* \"plants/nft/contracts/CosSin.sol\":203:234  require(_p>=0, \"Choose _p>=0.\") */\n      tag_87\n      jumpi\n      mload(0x40)\n      0x08c379a000000000000000000000000000000000000000000000000000000000\n      dup2\n      mstore\n      0x04\n      add\n      tag_88\n      swap1\n      tag_89\n      jump\t// in\n    tag_88:\n      mload(0x40)\n      dup1\n      swap2\n      sub\n      swap1\n      revert\n    tag_87:\n        /* \"plants/nft/contracts/CosSin.sol\":245:246  1 */\n      0x01\n        /* \"plants/nft/contracts/CosSin.sol\":240:246  _y = 1 */\n      swap1\n      pop\n        /* \"plants/nft/contracts/CosSin.sol\":259:260  0 */\n      0x00\n        /* \"plants/nft/contracts/CosSin.sol\":256:258  _p */\n      dup3\n        /* \"plants/nft/contracts/CosSin.sol\":256:260  _p>0 */\n      gt\n        /* \"plants/nft/contracts/CosSin.sol\":252:336  if (_p>0) {... */\n      iszero\n      tag_90\n      jumpi\n        /* \"plants/nft/contracts/CosSin.sol\":275:281  uint i */\n      0x00\n        /* \"plants/nft/contracts/CosSin.sol\":282:283  1 */\n      0x01\n        /* \"plants/nft/contracts/CosSin.sol\":275:283  uint i=1 */\n      swap1\n      pop\n        /* \"plants/nft/contracts/CosSin.sol\":270:328  for (uint i=1; i<=_p; i++) {... */\n    tag_91:\n        /* \"plants/nft/contracts/CosSin.sol\":288:290  _p */\n      dup3\n        /* \"plants/nft/contracts/CosSin.sol\":285:286  i */\n      dup2\n        /* \"plants/nft/contracts/CosSin.sol\":285:290  i<=_p */\n      gt\n        /* \"plants/nft/contracts/CosSin.sol\":270:328  for (uint i=1; i<=_p; i++) {... */\n      tag_92\n      jumpi\n        /* \"plants/nft/contracts/CosSin.sol\":315:317  _x */\n      dup4\n        /* \"plants/nft/contracts/CosSin.sol\":309:317  _y *= _x */\n      dup3\n      tag_94\n      swap2\n      swap1\n      tag_18\n      jump\t// in\n    tag_94:\n      swap2\n      pop\n        /* \"plants/nft/contracts/CosSin.sol\":292:295  i++ */\n      dup1\n      dup1\n      tag_95\n      swap1\n      tag_96\n      jump\t// in\n    tag_95:\n      swap2\n      pop\n      pop\n        /* \"plants/nft/contracts/CosSin.sol\":270:328  for (uint i=1; i<=_p; i++) {... */\n      jump(tag_91)\n    tag_92:\n      pop\n        /* \"plants/nft/contracts/CosSin.sol\":252:336  if (_p>0) {... */\n    tag_90:\n        /* \"plants/nft/contracts/CosSin.sol\":133:340  function _pow(uint _x, uint _p) internal pure returns (uint _y) {... */\n      swap3\n      swap2\n      pop\n      pop\n      jump\t// out\n        /* \"#utility.yul\":7:146   */\n    tag_98:\n        /* \"#utility.yul\":53:58   */\n      0x00\n        /* \"#utility.yul\":91:97   */\n      dup2\n        /* \"#utility.yul\":78:98   */\n      calldataload\n        /* \"#utility.yul\":69:98   */\n      swap1\n      pop\n        /* \"#utility.yul\":107:140   */\n      tag_100\n        /* \"#utility.yul\":134:139   */\n      dup2\n        /* \"#utility.yul\":107:140   */\n      tag_101\n      jump\t// in\n    tag_100:\n        /* \"#utility.yul\":7:146   */\n      swap3\n      swap2\n      pop\n      pop\n      jump\t// out\n        /* \"#utility.yul\":152:481   */\n    tag_7:\n        /* \"#utility.yul\":211:217   */\n      0x00\n        /* \"#utility.yul\":260:262   */\n      0x20\n        /* \"#utility.yul\":248:257   */\n      dup3\n        /* \"#utility.yul\":239:246   */\n      dup5\n        /* \"#utility.yul\":235:258   */\n      sub\n        /* \"#utility.yul\":231:263   */\n      slt\n        /* \"#utility.yul\":228:347   */\n      iszero\n      tag_103\n      jumpi\n        /* \"#utility.yul\":266:345   */\n      tag_104\n      tag_105\n      jump\t// in\n    tag_104:\n        /* \"#utility.yul\":228:347   */\n    tag_103:\n        /* \"#utility.yul\":386:387   */\n      0x00\n        /* \"#utility.yul\":411:464   */\n      tag_106\n        /* \"#utility.yul\":456:463   */\n      dup5\n        /* \"#utility.yul\":447:453   */\n      dup3\n        /* \"#utility.yul\":436:445   */\n      dup6\n        /* \"#utility.yul\":432:454   */\n      add\n        /* \"#utility.yul\":411:464   */\n      tag_98\n      jump\t// in\n    tag_106:\n        /* \"#utility.yul\":401:464   */\n      swap2\n      pop\n        /* \"#utility.yul\":357:474   */\n      pop\n        /* \"#utility.yul\":152:481   */\n      swap3\n      swap2\n      pop\n      pop\n      jump\t// out\n        /* \"#utility.yul\":487:596   */\n    tag_107:\n        /* \"#utility.yul\":568:589   */\n      tag_109\n        /* \"#utility.yul\":583:588   */\n      dup2\n        /* \"#utility.yul\":568:589   */\n      tag_110\n      jump\t// in\n    tag_109:\n        /* \"#utility.yul\":563:566   */\n      dup3\n        /* \"#utility.yul\":556:590   */\n      mstore\n        /* \"#utility.yul\":487:596   */\n      pop\n      pop\n      jump\t// out\n        /* \"#utility.yul\":602:968   */\n    tag_111:\n        /* \"#utility.yul\":744:747   */\n      0x00\n        /* \"#utility.yul\":765:832   */\n      tag_113\n        /* \"#utility.yul\":829:831   */\n      0x0d\n        /* \"#utility.yul\":824:827   */\n      dup4\n        /* \"#utility.yul\":765:832   */\n      tag_114\n      jump\t// in\n    tag_113:\n        /* \"#utility.yul\":758:832   */\n      swap2\n      pop\n        /* \"#utility.yul\":841:934   */\n      tag_115\n        /* \"#utility.yul\":930:933   */\n      dup3\n        /* \"#utility.yul\":841:934   */\n      tag_116\n      jump\t// in\n    tag_115:\n        /* \"#utility.yul\":959:961   */\n      0x20\n        /* \"#utility.yul\":954:957   */\n      dup3\n        /* \"#utility.yul\":950:962   */\n      add\n        /* \"#utility.yul\":943:962   */\n      swap1\n      pop\n        /* \"#utility.yul\":602:968   */\n      swap2\n      swap1\n      pop\n      jump\t// out\n        /* \"#utility.yul\":974:1340   */\n    tag_117:\n        /* \"#utility.yul\":1116:1119   */\n      0x00\n        /* \"#utility.yul\":1137:1204   */\n      tag_119\n        /* \"#utility.yul\":1201:1203   */\n      0x4c\n        /* \"#utility.yul\":1196:1199   */\n      dup4\n        /* \"#utility.yul\":1137:1204   */\n      tag_114\n      jump\t// in\n    tag_119:\n        /* \"#utility.yul\":1130:1204   */\n      swap2\n      pop\n        /* \"#utility.yul\":1213:1306   */\n      tag_120\n        /* \"#utility.yul\":1302:1305   */\n      dup3\n        /* \"#utility.yul\":1213:1306   */\n      tag_121\n      jump\t// in\n    tag_120:\n        /* \"#utility.yul\":1331:1333   */\n      0x60\n        /* \"#utility.yul\":1326:1329   */\n      dup3\n        /* \"#utility.yul\":1322:1334   */\n      add\n        /* \"#utility.yul\":1315:1334   */\n      swap1\n      pop\n        /* \"#utility.yul\":974:1340   */\n      swap2\n      swap1\n      pop\n      jump\t// out\n        /* \"#utility.yul\":1346:1464   */\n    tag_122:\n        /* \"#utility.yul\":1433:1457   */\n      tag_124\n        /* \"#utility.yul\":1451:1456   */\n      dup2\n        /* \"#utility.yul\":1433:1457   */\n      tag_125\n      jump\t// in\n    tag_124:\n        /* \"#utility.yul\":1428:1431   */\n      dup3\n        /* \"#utility.yul\":1421:1458   */\n      mstore\n        /* \"#utility.yul\":1346:1464   */\n      pop\n      pop\n      jump\t// out\n        /* \"#utility.yul\":1470:1790   */\n    tag_10:\n        /* \"#utility.yul\":1585:1589   */\n      0x00\n        /* \"#utility.yul\":1623:1625   */\n      0x40\n        /* \"#utility.yul\":1612:1621   */\n      dup3\n        /* \"#utility.yul\":1608:1626   */\n      add\n        /* \"#utility.yul\":1600:1626   */\n      swap1\n      pop\n        /* \"#utility.yul\":1636:1701   */\n      tag_127\n        /* \"#utility.yul\":1698:1699   */\n      0x00\n        /* \"#utility.yul\":1687:1696   */\n      dup4\n        /* \"#utility.yul\":1683:1700   */\n      add\n        /* \"#utility.yul\":1674:1680   */\n      dup6\n        /* \"#utility.yul\":1636:1701   */\n      tag_107\n      jump\t// in\n    tag_127:\n        /* \"#utility.yul\":1711:1783   */\n      tag_128\n        /* \"#utility.yul\":1779:1781   */\n      0x20\n        /* \"#utility.yul\":1768:1777   */\n      dup4\n        /* \"#utility.yul\":1764:1782   */\n      add\n        /* \"#utility.yul\":1755:1761   */\n      dup5\n        /* \"#utility.yul\":1711:1783   */\n      tag_122\n      jump\t// in\n    tag_128:\n        /* \"#utility.yul\":1470:1790   */\n      swap4\n      swap3\n      pop\n      pop\n      pop\n      jump\t// out\n        /* \"#utility.yul\":1796:2215   */\n    tag_89:\n        /* \"#utility.yul\":1962:1966   */\n      0x00\n        /* \"#utility.yul\":2000:2002   */\n      0x20\n        /* \"#utility.yul\":1989:1998   */\n      dup3\n        /* \"#utility.yul\":1985:2003   */\n      add\n        /* \"#utility.yul\":1977:2003   */\n      swap1\n      pop\n        /* \"#utility.yul\":2049:2058   */\n      dup2\n        /* \"#utility.yul\":2043:2047   */\n      dup2\n        /* \"#utility.yul\":2039:2059   */\n      sub\n        /* \"#utility.yul\":2035:2036   */\n      0x00\n        /* \"#utility.yul\":2024:2033   */\n      dup4\n        /* \"#utility.yul\":2020:2037   */\n      add\n        /* \"#utility.yul\":2013:2060   */\n      mstore\n        /* \"#utility.yul\":2077:2208   */\n      tag_130\n        /* \"#utility.yul\":2203:2207   */\n      dup2\n        /* \"#utility.yul\":2077:2208   */\n      tag_111\n      jump\t// in\n    tag_130:\n        /* \"#utility.yul\":2069:2208   */\n      swap1\n      pop\n        /* \"#utility.yul\":1796:2215   */\n      swap2\n      swap1\n      pop\n      jump\t// out\n        /* \"#utility.yul\":2221:2640   */\n    tag_21:\n        /* \"#utility.yul\":2387:2391   */\n      0x00\n        /* \"#utility.yul\":2425:2427   */\n      0x20\n        /* \"#utility.yul\":2414:2423   */\n      dup3\n        /* \"#utility.yul\":2410:2428   */\n      add\n        /* \"#utility.yul\":2402:2428   */\n      swap1\n      pop\n        /* \"#utility.yul\":2474:2483   */\n      dup2\n        /* \"#utility.yul\":2468:2472   */\n      dup2\n        /* \"#utility.yul\":2464:2484   */\n      sub\n        /* \"#utility.yul\":2460:2461   */\n      0x00\n        /* \"#utility.yul\":2449:2458   */\n      dup4\n        /* \"#utility.yul\":2445:2462   */\n      add\n        /* \"#utility.yul\":2438:2485   */\n      mstore\n        /* \"#utility.yul\":2502:2633   */\n      tag_132\n        /* \"#utility.yul\":2628:2632   */\n      dup2\n        /* \"#utility.yul\":2502:2633   */\n      tag_117\n      jump\t// in\n    tag_132:\n        /* \"#utility.yul\":2494:2633   */\n      swap1\n      pop\n        /* \"#utility.yul\":2221:2640   */\n      swap2\n      swap1\n      pop\n      jump\t// out\n        /* \"#utility.yul\":2727:2896   */\n    tag_114:\n        /* \"#utility.yul\":2811:2822   */\n      0x00\n        /* \"#utility.yul\":2845:2851   */\n      dup3\n        /* \"#utility.yul\":2840:2843   */\n      dup3\n        /* \"#utility.yul\":2833:2852   */\n      mstore\n        /* \"#utility.yul\":2885:2889   */\n      0x20\n        /* \"#utility.yul\":2880:2883   */\n      dup3\n        /* \"#utility.yul\":2876:2890   */\n      add\n        /* \"#utility.yul\":2861:2890   */\n      swap1\n      pop\n        /* \"#utility.yul\":2727:2896   */\n      swap3\n      swap2\n      pop\n      pop\n      jump\t// out\n        /* \"#utility.yul\":2902:3207   */\n    tag_63:\n        /* \"#utility.yul\":2942:2945   */\n      0x00\n        /* \"#utility.yul\":2961:2981   */\n      tag_137\n        /* \"#utility.yul\":2979:2980   */\n      dup3\n        /* \"#utility.yul\":2961:2981   */\n      tag_125\n      jump\t// in\n    tag_137:\n        /* \"#utility.yul\":2956:2981   */\n      swap2\n      pop\n        /* \"#utility.yul\":2995:3015   */\n      tag_138\n        /* \"#utility.yul\":3013:3014   */\n      dup4\n        /* \"#utility.yul\":2995:3015   */\n      tag_125\n      jump\t// in\n    tag_138:\n        /* \"#utility.yul\":2990:3015   */\n      swap3\n      pop\n        /* \"#utility.yul\":3149:3150   */\n      dup3\n        /* \"#utility.yul\":3081:3147   */\n      0xffffffffffffffffffffffffffffffffffffffffffffffffffffffffffffffff\n        /* \"#utility.yul\":3077:3151   */\n      sub\n        /* \"#utility.yul\":3074:3075   */\n      dup3\n        /* \"#utility.yul\":3071:3152   */\n      gt\n        /* \"#utility.yul\":3068:3175   */\n      iszero\n      tag_139\n      jumpi\n        /* \"#utility.yul\":3155:3173   */\n      tag_140\n      tag_141\n      jump\t// in\n    tag_140:\n        /* \"#utility.yul\":3068:3175   */\n    tag_139:\n        /* \"#utility.yul\":3199:3200   */\n      dup3\n        /* \"#utility.yul\":3196:3197   */\n      dup3\n        /* \"#utility.yul\":3192:3201   */\n      add\n        /* \"#utility.yul\":3185:3201   */\n      swap1\n      pop\n        /* \"#utility.yul\":2902:3207   */\n      swap3\n      swap2\n      pop\n      pop\n      jump\t// out\n        /* \"#utility.yul\":3213:3398   */\n    tag_23:\n        /* \"#utility.yul\":3253:3254   */\n      0x00\n        /* \"#utility.yul\":3270:3290   */\n      tag_143\n        /* \"#utility.yul\":3288:3289   */\n      dup3\n        /* \"#utility.yul\":3270:3290   */\n      tag_125\n      jump\t// in\n    tag_143:\n        /* \"#utility.yul\":3265:3290   */\n      swap2\n      pop\n        /* \"#utility.yul\":3304:3324   */\n      tag_144\n        /* \"#utility.yul\":3322:3323   */\n      dup4\n        /* \"#utility.yul\":3304:3324   */\n      tag_125\n      jump\t// in\n    tag_144:\n        /* \"#utility.yul\":3299:3324   */\n      swap3\n      pop\n        /* \"#utility.yul\":3343:3344   */\n      dup3\n        /* \"#utility.yul\":3333:3368   */\n      tag_145\n      jumpi\n        /* \"#utility.yul\":3348:3366   */\n      tag_146\n      tag_147\n      jump\t// in\n    tag_146:\n        /* \"#utility.yul\":3333:3368   */\n    tag_145:\n        /* \"#utility.yul\":3390:3391   */\n      dup3\n        /* \"#utility.yul\":3387:3388   */\n      dup3\n        /* \"#utility.yul\":3383:3392   */\n      div\n        /* \"#utility.yul\":3378:3392   */\n      swap1\n      pop\n        /* \"#utility.yul\":3213:3398   */\n      swap3\n      swap2\n      pop\n      pop\n      jump\t// out\n        /* \"#utility.yul\":3404:3752   */\n    tag_18:\n        /* \"#utility.yul\":3444:3451   */\n      0x00\n        /* \"#utility.yul\":3467:3487   */\n      tag_149\n        /* \"#utility.yul\":3485:3486   */\n      dup3\n        /* \"#utility.yul\":3467:3487   */\n      tag_125\n      jump\t// in\n    tag_149:\n        /* \"#utility.yul\":3462:3487   */\n      swap2\n      pop\n        /* \"#utility.yul\":3501:3521   */\n      tag_150\n        /* \"#utility.yul\":3519:3520   */\n      dup4\n        /* \"#utility.yul\":3501:3521   */\n      tag_125\n      jump\t// in\n    tag_150:\n        /* \"#utility.yul\":3496:3521   */\n      swap3\n      pop\n        /* \"#utility.yul\":3689:3690   */\n      dup2\n        /* \"#utility.yul\":3621:3687   */\n      0xffffffffffffffffffffffffffffffffffffffffffffffffffffffffffffffff\n        /* \"#utility.yul\":3617:3691   */\n      div\n        /* \"#utility.yul\":3614:3615   */\n      dup4\n        /* \"#utility.yul\":3611:3692   */\n      gt\n        /* \"#utility.yul\":3606:3607   */\n      dup3\n        /* \"#utility.yul\":3599:3608   */\n      iszero\n        /* \"#utility.yul\":3592:3609   */\n      iszero\n        /* \"#utility.yul\":3588:3693   */\n      and\n        /* \"#utility.yul\":3585:3716   */\n      iszero\n      tag_151\n      jumpi\n        /* \"#utility.yul\":3696:3714   */\n      tag_152\n      tag_141\n      jump\t// in\n    tag_152:\n        /* \"#utility.yul\":3585:3716   */\n    tag_151:\n        /* \"#utility.yul\":3744:3745   */\n      dup3\n        /* \"#utility.yul\":3741:3742   */\n      dup3\n        /* \"#utility.yul\":3737:3746   */\n      mul\n        /* \"#utility.yul\":3726:3746   */\n      swap1\n      pop\n        /* \"#utility.yul\":3404:3752   */\n      swap3\n      swap2\n      pop\n      pop\n      jump\t// out\n        /* \"#utility.yul\":3758:3949   */\n    tag_34:\n        /* \"#utility.yul\":3798:3802   */\n      0x00\n        /* \"#utility.yul\":3818:3838   */\n      tag_154\n        /* \"#utility.yul\":3836:3837   */\n      dup3\n        /* \"#utility.yul\":3818:3838   */\n      tag_125\n      jump\t// in\n    tag_154:\n        /* \"#utility.yul\":3813:3838   */\n      swap2\n      pop\n        /* \"#utility.yul\":3852:3872   */\n      tag_155\n        /* \"#utility.yul\":3870:3871   */\n      dup4\n        /* \"#utility.yul\":3852:3872   */\n      tag_125\n      jump\t// in\n    tag_155:\n        /* \"#utility.yul\":3847:3872   */\n      swap3\n      pop\n        /* \"#utility.yul\":3891:3892   */\n      dup3\n        /* \"#utility.yul\":3888:3889   */\n      dup3\n        /* \"#utility.yul\":3885:3893   */\n      lt\n        /* \"#utility.yul\":3882:3916   */\n      iszero\n      tag_156\n      jumpi\n        /* \"#utility.yul\":3896:3914   */\n      tag_157\n      tag_141\n      jump\t// in\n    tag_157:\n        /* \"#utility.yul\":3882:3916   */\n    tag_156:\n        /* \"#utility.yul\":3941:3942   */\n      dup3\n        /* \"#utility.yul\":3938:3939   */\n      dup3\n        /* \"#utility.yul\":3934:3943   */\n      sub\n        /* \"#utility.yul\":3926:3943   */\n      swap1\n      pop\n        /* \"#utility.yul\":3758:3949   */\n      swap3\n      swap2\n      pop\n      pop\n      jump\t// out\n        /* \"#utility.yul\":3955:4045   */\n    tag_110:\n        /* \"#utility.yul\":3989:3996   */\n      0x00\n        /* \"#utility.yul\":4032:4037   */\n      dup2\n        /* \"#utility.yul\":4025:4038   */\n      iszero\n        /* \"#utility.yul\":4018:4039   */\n      iszero\n        /* \"#utility.yul\":4007:4039   */\n      swap1\n      pop\n        /* \"#utility.yul\":3955:4045   */\n      swap2\n      swap1\n      pop\n      jump\t// out\n        /* \"#utility.yul\":4051:4128   */\n    tag_125:\n        /* \"#utility.yul\":4088:4095   */\n      0x00\n        /* \"#utility.yul\":4117:4122   */\n      dup2\n        /* \"#utility.yul\":4106:4122   */\n      swap1\n      pop\n        /* \"#utility.yul\":4051:4128   */\n      swap2\n      swap1\n      pop\n      jump\t// out\n        /* \"#utility.yul\":4134:4367   */\n    tag_96:\n        /* \"#utility.yul\":4173:4176   */\n      0x00\n        /* \"#utility.yul\":4196:4220   */\n      tag_161\n        /* \"#utility.yul\":4214:4219   */\n      dup3\n        /* \"#utility.yul\":4196:4220   */\n      tag_125\n      jump\t// in\n    tag_161:\n        /* \"#utility.yul\":4187:4220   */\n      swap2\n      pop\n        /* \"#utility.yul\":4242:4308   */\n      0xffffffffffffffffffffffffffffffffffffffffffffffffffffffffffffffff\n        /* \"#utility.yul\":4235:4240   */\n      dup3\n        /* \"#utility.yul\":4232:4309   */\n      eq\n        /* \"#utility.yul\":4229:4332   */\n      iszero\n      tag_162\n      jumpi\n        /* \"#utility.yul\":4312:4330   */\n      tag_163\n      tag_141\n      jump\t// in\n    tag_163:\n        /* \"#utility.yul\":4229:4332   */\n    tag_162:\n        /* \"#utility.yul\":4359:4360   */\n      0x01\n        /* \"#utility.yul\":4352:4357   */\n      dup3\n        /* \"#utility.yul\":4348:4361   */\n      add\n        /* \"#utility.yul\":4341:4361   */\n      swap1\n      pop\n        /* \"#utility.yul\":4134:4367   */\n      swap2\n      swap1\n      pop\n      jump\t// out\n        /* \"#utility.yul\":4373:4553   */\n    tag_141:\n        /* \"#utility.yul\":4421:4498   */\n      0x4e487b7100000000000000000000000000000000000000000000000000000000\n        /* \"#utility.yul\":4418:4419   */\n      0x00\n        /* \"#utility.yul\":4411:4499   */\n      mstore\n        /* \"#utility.yul\":4518:4522   */\n      0x11\n        /* \"#utility.yul\":4515:4516   */\n      0x04\n        /* \"#utility.yul\":4508:4523   */\n      mstore\n        /* \"#utility.yul\":4542:4546   */\n      0x24\n        /* \"#utility.yul\":4539:4540   */\n      0x00\n        /* \"#utility.yul\":4532:4547   */\n      revert\n        /* \"#utility.yul\":4559:4739   */\n    tag_147:\n        /* \"#utility.yul\":4607:4684   */\n      0x4e487b7100000000000000000000000000000000000000000000000000000000\n        /* \"#utility.yul\":4604:4605   */\n      0x00\n        /* \"#utility.yul\":4597:4685   */\n      mstore\n        /* \"#utility.yul\":4704:4708   */\n      0x12\n        /* \"#utility.yul\":4701:4702   */\n      0x04\n        /* \"#utility.yul\":4694:4709   */\n      mstore\n        /* \"#utility.yul\":4728:4732   */\n      0x24\n        /* \"#utility.yul\":4725:4726   */\n      0x00\n        /* \"#utility.yul\":4718:4733   */\n      revert\n        /* \"#utility.yul\":4868:4985   */\n    tag_105:\n        /* \"#utility.yul\":4977:4978   */\n      0x00\n        /* \"#utility.yul\":4974:4975   */\n      dup1\n        /* \"#utility.yul\":4967:4979   */\n      revert\n        /* \"#utility.yul\":4991:5154   */\n    tag_116:\n        /* \"#utility.yul\":5131:5146   */\n      0x43686f6f7365205f703e3d302e00000000000000000000000000000000000000\n        /* \"#utility.yul\":5127:5128   */\n      0x00\n        /* \"#utility.yul\":5119:5125   */\n      dup3\n        /* \"#utility.yul\":5115:5129   */\n      add\n        /* \"#utility.yul\":5108:5147   */\n      mstore\n        /* \"#utility.yul\":4991:5154   */\n      pop\n      jump\t// out\n        /* \"#utility.yul\":5160:5460   */\n    tag_121:\n        /* \"#utility.yul\":5300:5334   */\n      0x506c656173652063686f6f7365205f72616469616e74206265747765656e2030\n        /* \"#utility.yul\":5296:5297   */\n      0x00\n        /* \"#utility.yul\":5288:5294   */\n      dup3\n        /* \"#utility.yul\":5284:5298   */\n      add\n        /* \"#utility.yul\":5277:5335   */\n      mstore\n        /* \"#utility.yul\":5369:5403   */\n      0x20616e6420322a70693d3632383331383533303731382e204e6f74653a207261\n        /* \"#utility.yul\":5364:5366   */\n      0x20\n        /* \"#utility.yul\":5356:5362   */\n      dup3\n        /* \"#utility.yul\":5352:5367   */\n      add\n        /* \"#utility.yul\":5345:5404   */\n      mstore\n        /* \"#utility.yul\":5438:5452   */\n      0x6469616e742a31305e31312e0000000000000000000000000000000000000000\n        /* \"#utility.yul\":5433:5435   */\n      0x40\n        /* \"#utility.yul\":5425:5431   */\n      dup3\n        /* \"#utility.yul\":5421:5436   */\n      add\n        /* \"#utility.yul\":5414:5453   */\n      mstore\n        /* \"#utility.yul\":5160:5460   */\n      pop\n      jump\t// out\n        /* \"#utility.yul\":5466:5588   */\n    tag_101:\n        /* \"#utility.yul\":5539:5563   */\n      tag_172\n        /* \"#utility.yul\":5557:5562   */\n      dup2\n        /* \"#utility.yul\":5539:5563   */\n      tag_125\n      jump\t// in\n    tag_172:\n        /* \"#utility.yul\":5532:5537   */\n      dup2\n        /* \"#utility.yul\":5529:5564   */\n      eq\n        /* \"#utility.yul\":5519:5582   */\n      tag_173\n      jumpi\n        /* \"#utility.yul\":5578:5579   */\n      0x00\n        /* \"#utility.yul\":5575:5576   */\n      dup1\n        /* \"#utility.yul\":5568:5580   */\n      revert\n        /* \"#utility.yul\":5519:5582   */\n    tag_173:\n        /* \"#utility.yul\":5466:5588   */\n      pop\n      jump\t// out\n\n    auxdata: 0xa26469706673582212207dcf0569a980cb772c88a85949afd6503c4ddb97f63c3aeddf888276dc660e6064736f6c63430008070033\n}\n",
				"bytecode": {
					"linkReferences": {},
					"object": "608060405264492559f64f60005562000021600a600b6200003860201b60201c565b6001553480156200003157600080fd5b5062000236565b60008082101562000080576040517f08c379a00000000000000000000000000000000000000000000000000000000081526004016200007790620000f2565b60405180910390fd5b600190506000821115620000c5576000600190505b828111620000c3578382620000ab919062000125565b91508080620000ba9062000190565b91505062000095565b505b92915050565b6000620000da600d8362000114565b9150620000e7826200020d565b602082019050919050565b600060208201905081810360008301526200010d81620000cb565b9050919050565b600082825260208201905092915050565b6000620001328262000186565b91506200013f8362000186565b9250817fffffffffffffffffffffffffffffffffffffffffffffffffffffffffffffffff04831182151516156200017b576200017a620001de565b5b828202905092915050565b6000819050919050565b60006200019d8262000186565b91507fffffffffffffffffffffffffffffffffffffffffffffffffffffffffffffffff821415620001d357620001d2620001de565b5b600182019050919050565b7f4e487b7100000000000000000000000000000000000000000000000000000000600052601160045260246000fd5b7f43686f6f7365205f703e3d302e00000000000000000000000000000000000000600082015250565b61087380620002466000396000f3fe608060405234801561001057600080fd5b50600436106100365760003560e01c8063a58b00ba1461003b578063cb5cc1091461006c575b600080fd5b610055600480360381019061005091906104a6565b61009d565b604051610063929190610537565b60405180910390f35b610086600480360381019061008191906104a6565b61032e565b604051610094929190610537565b60405180910390f35b600080826000111580156100bf575060005460026100bb9190610638565b8311155b6100fe576040517f08c379a00000000000000000000000000000000000000000000000000000000081526004016100f590610580565b60405180910390fd5b600260005461010d9190610607565b8314806101335750600260005460036101269190610638565b6101309190610607565b83145b15610145576001915060009050610329565b60026000546101549190610607565b83101561016457600191506101fa565b600054831161018657600091508260005461017f9190610692565b92506101f9565b600260005460036101979190610638565b6101a19190610607565b8310156101c15760009150600054836101ba9190610692565b92506101f8565b60005460026101d09190610638565b83116101f757600191508260005460026101ea9190610638565b6101f49190610692565b92505b5b5b5b6102076001546006610408565b6102d06102149190610638565b9050610221836002610408565b61022e6001546004610408565b61016861023b9190610638565b6102459190610638565b81111561032357610257836002610408565b6102646001546004610408565b6101686102719190610638565b61027b9190610638565b816102869190610692565b9050610293836004610408565b6102a06001546002610408565b601e6102ac9190610638565b6102b69190610638565b816102c191906105b1565b90506102ce836006610408565b8111156102f2576102e0836006610408565b816102eb9190610692565b90506102f7565b600090505b6103046001546005610408565b6102d06103119190610638565b8161031c9190610607565b9050610328565b600090505b5b915091565b600080826000111580156103505750600054600261034c9190610638565b8311155b61038f576040517f08c379a000000000000000000000000000000000000000000000000000000000815260040161038690610580565b60405180910390fd5b600060026000546103a09190610607565b905060026000546103b19190610607565b8411156103e35760005460026103c79190610638565b60026000546103d69190610607565b6103e091906105b1565b90505b83816103ef9190610692565b93506103fa8461009d565b809350819450505050915091565b60008082101561044d576040517f08c379a000000000000000000000000000000000000000000000000000000000815260040161044490610560565b60405180910390fd5b60019050600082111561048b576000600190505b8281116104895783826104749190610638565b91508080610481906106dc565b915050610461565b505b92915050565b6000813590506104a081610826565b92915050565b6000602082840312156104bc576104bb610783565b5b60006104ca84828501610491565b91505092915050565b6104dc816106c6565b82525050565b60006104ef600d836105a0565b91506104fa82610788565b602082019050919050565b6000610512604c836105a0565b915061051d826107b1565b606082019050919050565b610531816106d2565b82525050565b600060408201905061054c60008301856104d3565b6105596020830184610528565b9392505050565b60006020820190508181036000830152610579816104e2565b9050919050565b6000602082019050818103600083015261059981610505565b9050919050565b600082825260208201905092915050565b60006105bc826106d2565b91506105c7836106d2565b9250827fffffffffffffffffffffffffffffffffffffffffffffffffffffffffffffffff038211156105fc576105fb610725565b5b828201905092915050565b6000610612826106d2565b915061061d836106d2565b92508261062d5761062c610754565b5b828204905092915050565b6000610643826106d2565b915061064e836106d2565b9250817fffffffffffffffffffffffffffffffffffffffffffffffffffffffffffffffff048311821515161561068757610686610725565b5b828202905092915050565b600061069d826106d2565b91506106a8836106d2565b9250828210156106bb576106ba610725565b5b828203905092915050565b60008115159050919050565b6000819050919050565b60006106e7826106d2565b91507fffffffffffffffffffffffffffffffffffffffffffffffffffffffffffffffff82141561071a57610719610725565b5b600182019050919050565b7f4e487b7100000000000000000000000000000000000000000000000000000000600052601160045260246000fd5b7f4e487b7100000000000000000000000000000000000000000000000000000000600052601260045260246000fd5b600080fd5b7f43686f6f7365205f703e3d302e00000000000000000000000000000000000000600082015250565b7f506c656173652063686f6f7365205f72616469616e74206265747765656e203060008201527f20616e6420322a70693d3632383331383533303731382e204e6f74653a20726160208201527f6469616e742a31305e31312e0000000000000000000000000000000000000000604082015250565b61082f816106d2565b811461083a57600080fd5b5056fea26469706673582212207dcf0569a980cb772c88a85949afd6503c4ddb97f63c3aeddf888276dc660e6064736f6c63430008070033",
					"opcodes": "PUSH1 0x80 PUSH1 0x40 MSTORE PUSH5 0x492559F64F PUSH1 0x0 SSTORE PUSH3 0x21 PUSH1 0xA PUSH1 0xB PUSH3 0x38 PUSH1 0x20 SHL PUSH1 0x20 SHR JUMP JUMPDEST PUSH1 0x1 SSTORE CALLVALUE DUP1 ISZERO PUSH3 0x31 JUMPI PUSH1 0x0 DUP1 REVERT JUMPDEST POP PUSH3 0x236 JUMP JUMPDEST PUSH1 0x0 DUP1 DUP3 LT ISZERO PUSH3 0x80 JUMPI PUSH1 0x40 MLOAD PUSH32 0x8C379A000000000000000000000000000000000000000000000000000000000 DUP2 MSTORE PUSH1 0x4 ADD PUSH3 0x77 SWAP1 PUSH3 0xF2 JUMP JUMPDEST PUSH1 0x40 MLOAD DUP1 SWAP2 SUB SWAP1 REVERT JUMPDEST PUSH1 0x1 SWAP1 POP PUSH1 0x0 DUP3 GT ISZERO PUSH3 0xC5 JUMPI PUSH1 0x0 PUSH1 0x1 SWAP1 POP JUMPDEST DUP3 DUP2 GT PUSH3 0xC3 JUMPI DUP4 DUP3 PUSH3 0xAB SWAP2 SWAP1 PUSH3 0x125 JUMP JUMPDEST SWAP2 POP DUP1 DUP1 PUSH3 0xBA SWAP1 PUSH3 0x190 JUMP JUMPDEST SWAP2 POP POP PUSH3 0x95 JUMP JUMPDEST POP JUMPDEST SWAP3 SWAP2 POP POP JUMP JUMPDEST PUSH1 0x0 PUSH3 0xDA PUSH1 0xD DUP4 PUSH3 0x114 JUMP JUMPDEST SWAP2 POP PUSH3 0xE7 DUP3 PUSH3 0x20D JUMP JUMPDEST PUSH1 0x20 DUP3 ADD SWAP1 POP SWAP2 SWAP1 POP JUMP JUMPDEST PUSH1 0x0 PUSH1 0x20 DUP3 ADD SWAP1 POP DUP2 DUP2 SUB PUSH1 0x0 DUP4 ADD MSTORE PUSH3 0x10D DUP2 PUSH3 0xCB JUMP JUMPDEST SWAP1 POP SWAP2 SWAP1 POP JUMP JUMPDEST PUSH1 0x0 DUP3 DUP3 MSTORE PUSH1 0x20 DUP3 ADD SWAP1 POP SWAP3 SWAP2 POP POP JUMP JUMPDEST PUSH1 0x0 PUSH3 0x132 DUP3 PUSH3 0x186 JUMP JUMPDEST SWAP2 POP PUSH3 0x13F DUP4 PUSH3 0x186 JUMP JUMPDEST SWAP3 POP DUP2 PUSH32 0xFFFFFFFFFFFFFFFFFFFFFFFFFFFFFFFFFFFFFFFFFFFFFFFFFFFFFFFFFFFFFFFF DIV DUP4 GT DUP3 ISZERO ISZERO AND ISZERO PUSH3 0x17B JUMPI PUSH3 0x17A PUSH3 0x1DE JUMP JUMPDEST JUMPDEST DUP3 DUP3 MUL SWAP1 POP SWAP3 SWAP2 POP POP JUMP JUMPDEST PUSH1 0x0 DUP2 SWAP1 POP SWAP2 SWAP1 POP JUMP JUMPDEST PUSH1 0x0 PUSH3 0x19D DUP3 PUSH3 0x186 JUMP JUMPDEST SWAP2 POP PUSH32 0xFFFFFFFFFFFFFFFFFFFFFFFFFFFFFFFFFFFFFFFFFFFFFFFFFFFFFFFFFFFFFFFF DUP3 EQ ISZERO PUSH3 0x1D3 JUMPI PUSH3 0x1D2 PUSH3 0x1DE JUMP JUMPDEST JUMPDEST PUSH1 0x1 DUP3 ADD SWAP1 POP SWAP2 SWAP1 POP JUMP JUMPDEST PUSH32 0x4E487B7100000000000000000000000000000000000000000000000000000000 PUSH1 0x0 MSTORE PUSH1 0x11 PUSH1 0x4 MSTORE PUSH1 0x24 PUSH1 0x0 REVERT JUMPDEST PUSH32 0x43686F6F7365205F703E3D302E00000000000000000000000000000000000000 PUSH1 0x0 DUP3 ADD MSTORE POP JUMP JUMPDEST PUSH2 0x873 DUP1 PUSH3 0x246 PUSH1 0x0 CODECOPY PUSH1 0x0 RETURN INVALID PUSH1 0x80 PUSH1 0x40 MSTORE CALLVALUE DUP1 ISZERO PUSH2 0x10 JUMPI PUSH1 0x0 DUP1 REVERT JUMPDEST POP PUSH1 0x4 CALLDATASIZE LT PUSH2 0x36 JUMPI PUSH1 0x0 CALLDATALOAD PUSH1 0xE0 SHR DUP1 PUSH4 0xA58B00BA EQ PUSH2 0x3B JUMPI DUP1 PUSH4 0xCB5CC109 EQ PUSH2 0x6C JUMPI JUMPDEST PUSH1 0x0 DUP1 REVERT JUMPDEST PUSH2 0x55 PUSH1 0x4 DUP1 CALLDATASIZE SUB DUP2 ADD SWAP1 PUSH2 0x50 SWAP2 SWAP1 PUSH2 0x4A6 JUMP JUMPDEST PUSH2 0x9D JUMP JUMPDEST PUSH1 0x40 MLOAD PUSH2 0x63 SWAP3 SWAP2 SWAP1 PUSH2 0x537 JUMP JUMPDEST PUSH1 0x40 MLOAD DUP1 SWAP2 SUB SWAP1 RETURN JUMPDEST PUSH2 0x86 PUSH1 0x4 DUP1 CALLDATASIZE SUB DUP2 ADD SWAP1 PUSH2 0x81 SWAP2 SWAP1 PUSH2 0x4A6 JUMP JUMPDEST PUSH2 0x32E JUMP JUMPDEST PUSH1 0x40 MLOAD PUSH2 0x94 SWAP3 SWAP2 SWAP1 PUSH2 0x537 JUMP JUMPDEST PUSH1 0x40 MLOAD DUP1 SWAP2 SUB SWAP1 RETURN JUMPDEST PUSH1 0x0 DUP1 DUP3 PUSH1 0x0 GT ISZERO DUP1 ISZERO PUSH2 0xBF JUMPI POP PUSH1 0x0 SLOAD PUSH1 0x2 PUSH2 0xBB SWAP2 SWAP1 PUSH2 0x638 JUMP JUMPDEST DUP4 GT ISZERO JUMPDEST PUSH2 0xFE JUMPI PUSH1 0x40 MLOAD PUSH32 0x8C379A000000000000000000000000000000000000000000000000000000000 DUP2 MSTORE PUSH1 0x4 ADD PUSH2 0xF5 SWAP1 PUSH2 0x580 JUMP JUMPDEST PUSH1 0x40 MLOAD DUP1 SWAP2 SUB SWAP1 REVERT JUMPDEST PUSH1 0x2 PUSH1 0x0 SLOAD PUSH2 0x10D SWAP2 SWAP1 PUSH2 0x607 JUMP JUMPDEST DUP4 EQ DUP1 PUSH2 0x133 JUMPI POP PUSH1 0x2 PUSH1 0x0 SLOAD PUSH1 0x3 PUSH2 0x126 SWAP2 SWAP1 PUSH2 0x638 JUMP JUMPDEST PUSH2 0x130 SWAP2 SWAP1 PUSH2 0x607 JUMP JUMPDEST DUP4 EQ JUMPDEST ISZERO PUSH2 0x145 JUMPI PUSH1 0x1 SWAP2 POP PUSH1 0x0 SWAP1 POP PUSH2 0x329 JUMP JUMPDEST PUSH1 0x2 PUSH1 0x0 SLOAD PUSH2 0x154 SWAP2 SWAP1 PUSH2 0x607 JUMP JUMPDEST DUP4 LT ISZERO PUSH2 0x164 JUMPI PUSH1 0x1 SWAP2 POP PUSH2 0x1FA JUMP JUMPDEST PUSH1 0x0 SLOAD DUP4 GT PUSH2 0x186 JUMPI PUSH1 0x0 SWAP2 POP DUP3 PUSH1 0x0 SLOAD PUSH2 0x17F SWAP2 SWAP1 PUSH2 0x692 JUMP JUMPDEST SWAP3 POP PUSH2 0x1F9 JUMP JUMPDEST PUSH1 0x2 PUSH1 0x0 SLOAD PUSH1 0x3 PUSH2 0x197 SWAP2 SWAP1 PUSH2 0x638 JUMP JUMPDEST PUSH2 0x1A1 SWAP2 SWAP1 PUSH2 0x607 JUMP JUMPDEST DUP4 LT ISZERO PUSH2 0x1C1 JUMPI PUSH1 0x0 SWAP2 POP PUSH1 0x0 SLOAD DUP4 PUSH2 0x1BA SWAP2 SWAP1 PUSH2 0x692 JUMP JUMPDEST SWAP3 POP PUSH2 0x1F8 JUMP JUMPDEST PUSH1 0x0 SLOAD PUSH1 0x2 PUSH2 0x1D0 SWAP2 SWAP1 PUSH2 0x638 JUMP JUMPDEST DUP4 GT PUSH2 0x1F7 JUMPI PUSH1 0x1 SWAP2 POP DUP3 PUSH1 0x0 SLOAD PUSH1 0x2 PUSH2 0x1EA SWAP2 SWAP1 PUSH2 0x638 JUMP JUMPDEST PUSH2 0x1F4 SWAP2 SWAP1 PUSH2 0x692 JUMP JUMPDEST SWAP3 POP JUMPDEST JUMPDEST JUMPDEST JUMPDEST PUSH2 0x207 PUSH1 0x1 SLOAD PUSH1 0x6 PUSH2 0x408 JUMP JUMPDEST PUSH2 0x2D0 PUSH2 0x214 SWAP2 SWAP1 PUSH2 0x638 JUMP JUMPDEST SWAP1 POP PUSH2 0x221 DUP4 PUSH1 0x2 PUSH2 0x408 JUMP JUMPDEST PUSH2 0x22E PUSH1 0x1 SLOAD PUSH1 0x4 PUSH2 0x408 JUMP JUMPDEST PUSH2 0x168 PUSH2 0x23B SWAP2 SWAP1 PUSH2 0x638 JUMP JUMPDEST PUSH2 0x245 SWAP2 SWAP1 PUSH2 0x638 JUMP JUMPDEST DUP2 GT ISZERO PUSH2 0x323 JUMPI PUSH2 0x257 DUP4 PUSH1 0x2 PUSH2 0x408 JUMP JUMPDEST PUSH2 0x264 PUSH1 0x1 SLOAD PUSH1 0x4 PUSH2 0x408 JUMP JUMPDEST PUSH2 0x168 PUSH2 0x271 SWAP2 SWAP1 PUSH2 0x638 JUMP JUMPDEST PUSH2 0x27B SWAP2 SWAP1 PUSH2 0x638 JUMP JUMPDEST DUP2 PUSH2 0x286 SWAP2 SWAP1 PUSH2 0x692 JUMP JUMPDEST SWAP1 POP PUSH2 0x293 DUP4 PUSH1 0x4 PUSH2 0x408 JUMP JUMPDEST PUSH2 0x2A0 PUSH1 0x1 SLOAD PUSH1 0x2 PUSH2 0x408 JUMP JUMPDEST PUSH1 0x1E PUSH2 0x2AC SWAP2 SWAP1 PUSH2 0x638 JUMP JUMPDEST PUSH2 0x2B6 SWAP2 SWAP1 PUSH2 0x638 JUMP JUMPDEST DUP2 PUSH2 0x2C1 SWAP2 SWAP1 PUSH2 0x5B1 JUMP JUMPDEST SWAP1 POP PUSH2 0x2CE DUP4 PUSH1 0x6 PUSH2 0x408 JUMP JUMPDEST DUP2 GT ISZERO PUSH2 0x2F2 JUMPI PUSH2 0x2E0 DUP4 PUSH1 0x6 PUSH2 0x408 JUMP JUMPDEST DUP2 PUSH2 0x2EB SWAP2 SWAP1 PUSH2 0x692 JUMP JUMPDEST SWAP1 POP PUSH2 0x2F7 JUMP JUMPDEST PUSH1 0x0 SWAP1 POP JUMPDEST PUSH2 0x304 PUSH1 0x1 SLOAD PUSH1 0x5 PUSH2 0x408 JUMP JUMPDEST PUSH2 0x2D0 PUSH2 0x311 SWAP2 SWAP1 PUSH2 0x638 JUMP JUMPDEST DUP2 PUSH2 0x31C SWAP2 SWAP1 PUSH2 0x607 JUMP JUMPDEST SWAP1 POP PUSH2 0x328 JUMP JUMPDEST PUSH1 0x0 SWAP1 POP JUMPDEST JUMPDEST SWAP2 POP SWAP2 JUMP JUMPDEST PUSH1 0x0 DUP1 DUP3 PUSH1 0x0 GT ISZERO DUP1 ISZERO PUSH2 0x350 JUMPI POP PUSH1 0x0 SLOAD PUSH1 0x2 PUSH2 0x34C SWAP2 SWAP1 PUSH2 0x638 JUMP JUMPDEST DUP4 GT ISZERO JUMPDEST PUSH2 0x38F JUMPI PUSH1 0x40 MLOAD PUSH32 0x8C379A000000000000000000000000000000000000000000000000000000000 DUP2 MSTORE PUSH1 0x4 ADD PUSH2 0x386 SWAP1 PUSH2 0x580 JUMP JUMPDEST PUSH1 0x40 MLOAD DUP1 SWAP2 SUB SWAP1 REVERT JUMPDEST PUSH1 0x0 PUSH1 0x2 PUSH1 0x0 SLOAD PUSH2 0x3A0 SWAP2 SWAP1 PUSH2 0x607 JUMP JUMPDEST SWAP1 POP PUSH1 0x2 PUSH1 0x0 SLOAD PUSH2 0x3B1 SWAP2 SWAP1 PUSH2 0x607 JUMP JUMPDEST DUP5 GT ISZERO PUSH2 0x3E3 JUMPI PUSH1 0x0 SLOAD PUSH1 0x2 PUSH2 0x3C7 SWAP2 SWAP1 PUSH2 0x638 JUMP JUMPDEST PUSH1 0x2 PUSH1 0x0 SLOAD PUSH2 0x3D6 SWAP2 SWAP1 PUSH2 0x607 JUMP JUMPDEST PUSH2 0x3E0 SWAP2 SWAP1 PUSH2 0x5B1 JUMP JUMPDEST SWAP1 POP JUMPDEST DUP4 DUP2 PUSH2 0x3EF SWAP2 SWAP1 PUSH2 0x692 JUMP JUMPDEST SWAP4 POP PUSH2 0x3FA DUP5 PUSH2 0x9D JUMP JUMPDEST DUP1 SWAP4 POP DUP2 SWAP5 POP POP POP POP SWAP2 POP SWAP2 JUMP JUMPDEST PUSH1 0x0 DUP1 DUP3 LT ISZERO PUSH2 0x44D JUMPI PUSH1 0x40 MLOAD PUSH32 0x8C379A000000000000000000000000000000000000000000000000000000000 DUP2 MSTORE PUSH1 0x4 ADD PUSH2 0x444 SWAP1 PUSH2 0x560 JUMP JUMPDEST PUSH1 0x40 MLOAD DUP1 SWAP2 SUB SWAP1 REVERT JUMPDEST PUSH1 0x1 SWAP1 POP PUSH1 0x0 DUP3 GT ISZERO PUSH2 0x48B JUMPI PUSH1 0x0 PUSH1 0x1 SWAP1 POP JUMPDEST DUP3 DUP2 GT PUSH2 0x489 JUMPI DUP4 DUP3 PUSH2 0x474 SWAP2 SWAP1 PUSH2 0x638 JUMP JUMPDEST SWAP2 POP DUP1 DUP1 PUSH2 0x481 SWAP1 PUSH2 0x6DC JUMP JUMPDEST SWAP2 POP POP PUSH2 0x461 JUMP JUMPDEST POP JUMPDEST SWAP3 SWAP2 POP POP JUMP JUMPDEST PUSH1 0x0 DUP2 CALLDATALOAD SWAP1 POP PUSH2 0x4A0 DUP2 PUSH2 0x826 JUMP JUMPDEST SWAP3 SWAP2 POP POP JUMP JUMPDEST PUSH1 0x0 PUSH1 0x20 DUP3 DUP5 SUB SLT ISZERO PUSH2 0x4BC JUMPI PUSH2 0x4BB PUSH2 0x783 JUMP JUMPDEST JUMPDEST PUSH1 0x0 PUSH2 0x4CA DUP5 DUP3 DUP6 ADD PUSH2 0x491 JUMP JUMPDEST SWAP2 POP POP SWAP3 SWAP2 POP POP JUMP JUMPDEST PUSH2 0x4DC DUP2 PUSH2 0x6C6 JUMP JUMPDEST DUP3 MSTORE POP POP JUMP JUMPDEST PUSH1 0x0 PUSH2 0x4EF PUSH1 0xD DUP4 PUSH2 0x5A0 JUMP JUMPDEST SWAP2 POP PUSH2 0x4FA DUP3 PUSH2 0x788 JUMP JUMPDEST PUSH1 0x20 DUP3 ADD SWAP1 POP SWAP2 SWAP1 POP JUMP JUMPDEST PUSH1 0x0 PUSH2 0x512 PUSH1 0x4C DUP4 PUSH2 0x5A0 JUMP JUMPDEST SWAP2 POP PUSH2 0x51D DUP3 PUSH2 0x7B1 JUMP JUMPDEST PUSH1 0x60 DUP3 ADD SWAP1 POP SWAP2 SWAP1 POP JUMP JUMPDEST PUSH2 0x531 DUP2 PUSH2 0x6D2 JUMP JUMPDEST DUP3 MSTORE POP POP JUMP JUMPDEST PUSH1 0x0 PUSH1 0x40 DUP3 ADD SWAP1 POP PUSH2 0x54C PUSH1 0x0 DUP4 ADD DUP6 PUSH2 0x4D3 JUMP JUMPDEST PUSH2 0x559 PUSH1 0x20 DUP4 ADD DUP5 PUSH2 0x528 JUMP JUMPDEST SWAP4 SWAP3 POP POP POP JUMP JUMPDEST PUSH1 0x0 PUSH1 0x20 DUP3 ADD SWAP1 POP DUP2 DUP2 SUB PUSH1 0x0 DUP4 ADD MSTORE PUSH2 0x579 DUP2 PUSH2 0x4E2 JUMP JUMPDEST SWAP1 POP SWAP2 SWAP1 POP JUMP JUMPDEST PUSH1 0x0 PUSH1 0x20 DUP3 ADD SWAP1 POP DUP2 DUP2 SUB PUSH1 0x0 DUP4 ADD MSTORE PUSH2 0x599 DUP2 PUSH2 0x505 JUMP JUMPDEST SWAP1 POP SWAP2 SWAP1 POP JUMP JUMPDEST PUSH1 0x0 DUP3 DUP3 MSTORE PUSH1 0x20 DUP3 ADD SWAP1 POP SWAP3 SWAP2 POP POP JUMP JUMPDEST PUSH1 0x0 PUSH2 0x5BC DUP3 PUSH2 0x6D2 JUMP JUMPDEST SWAP2 POP PUSH2 0x5C7 DUP4 PUSH2 0x6D2 JUMP JUMPDEST SWAP3 POP DUP3 PUSH32 0xFFFFFFFFFFFFFFFFFFFFFFFFFFFFFFFFFFFFFFFFFFFFFFFFFFFFFFFFFFFFFFFF SUB DUP3 GT ISZERO PUSH2 0x5FC JUMPI PUSH2 0x5FB PUSH2 0x725 JUMP JUMPDEST JUMPDEST DUP3 DUP3 ADD SWAP1 POP SWAP3 SWAP2 POP POP JUMP JUMPDEST PUSH1 0x0 PUSH2 0x612 DUP3 PUSH2 0x6D2 JUMP JUMPDEST SWAP2 POP PUSH2 0x61D DUP4 PUSH2 0x6D2 JUMP JUMPDEST SWAP3 POP DUP3 PUSH2 0x62D JUMPI PUSH2 0x62C PUSH2 0x754 JUMP JUMPDEST JUMPDEST DUP3 DUP3 DIV SWAP1 POP SWAP3 SWAP2 POP POP JUMP JUMPDEST PUSH1 0x0 PUSH2 0x643 DUP3 PUSH2 0x6D2 JUMP JUMPDEST SWAP2 POP PUSH2 0x64E DUP4 PUSH2 0x6D2 JUMP JUMPDEST SWAP3 POP DUP2 PUSH32 0xFFFFFFFFFFFFFFFFFFFFFFFFFFFFFFFFFFFFFFFFFFFFFFFFFFFFFFFFFFFFFFFF DIV DUP4 GT DUP3 ISZERO ISZERO AND ISZERO PUSH2 0x687 JUMPI PUSH2 0x686 PUSH2 0x725 JUMP JUMPDEST JUMPDEST DUP3 DUP3 MUL SWAP1 POP SWAP3 SWAP2 POP POP JUMP JUMPDEST PUSH1 0x0 PUSH2 0x69D DUP3 PUSH2 0x6D2 JUMP JUMPDEST SWAP2 POP PUSH2 0x6A8 DUP4 PUSH2 0x6D2 JUMP JUMPDEST SWAP3 POP DUP3 DUP3 LT ISZERO PUSH2 0x6BB JUMPI PUSH2 0x6BA PUSH2 0x725 JUMP JUMPDEST JUMPDEST DUP3 DUP3 SUB SWAP1 POP SWAP3 SWAP2 POP POP JUMP JUMPDEST PUSH1 0x0 DUP2 ISZERO ISZERO SWAP1 POP SWAP2 SWAP1 POP JUMP JUMPDEST PUSH1 0x0 DUP2 SWAP1 POP SWAP2 SWAP1 POP JUMP JUMPDEST PUSH1 0x0 PUSH2 0x6E7 DUP3 PUSH2 0x6D2 JUMP JUMPDEST SWAP2 POP PUSH32 0xFFFFFFFFFFFFFFFFFFFFFFFFFFFFFFFFFFFFFFFFFFFFFFFFFFFFFFFFFFFFFFFF DUP3 EQ ISZERO PUSH2 0x71A JUMPI PUSH2 0x719 PUSH2 0x725 JUMP JUMPDEST JUMPDEST PUSH1 0x1 DUP3 ADD SWAP1 POP SWAP2 SWAP1 POP JUMP JUMPDEST PUSH32 0x4E487B7100000000000000000000000000000000000000000000000000000000 PUSH1 0x0 MSTORE PUSH1 0x11 PUSH1 0x4 MSTORE PUSH1 0x24 PUSH1 0x0 REVERT JUMPDEST PUSH32 0x4E487B7100000000000000000000000000000000000000000000000000000000 PUSH1 0x0 MSTORE PUSH1 0x12 PUSH1 0x4 MSTORE PUSH1 0x24 PUSH1 0x0 REVERT JUMPDEST PUSH1 0x0 DUP1 REVERT JUMPDEST PUSH32 0x43686F6F7365205F703E3D302E00000000000000000000000000000000000000 PUSH1 0x0 DUP3 ADD MSTORE POP JUMP JUMPDEST PUSH32 0x506C656173652063686F6F7365205F72616469616E74206265747765656E2030 PUSH1 0x0 DUP3 ADD MSTORE PUSH32 0x20616E6420322A70693D3632383331383533303731382E204E6F74653A207261 PUSH1 0x20 DUP3 ADD MSTORE PUSH32 0x6469616E742A31305E31312E0000000000000000000000000000000000000000 PUSH1 0x40 DUP3 ADD MSTORE POP JUMP JUMPDEST PUSH2 0x82F DUP2 PUSH2 0x6D2 JUMP JUMPDEST DUP2 EQ PUSH2 0x83A JUMPI PUSH1 0x0 DUP1 REVERT JUMPDEST POP JUMP INVALID LOG2 PUSH5 0x6970667358 0x22 SLT KECCAK256 PUSH30 0xCF0569A980CB772C88A85949AFD6503C4DDB97F63C3AEDDF888276DC660E PUSH1 0x64 PUSH20 0x6F6C634300080700330000000000000000000000 "
				},
				"gasEstimates": {
					"creation": {
						"codeDepositCost": "432600",
						"executionCost": "infinite",
						"totalCost": "infinite"
					},
					"external": {
						"cos(uint256)": "infinite",
						"sin(uint256)": "infinite"
					},
					"internal": {
						"_pow(uint256,uint256)": "infinite"
					}
				},
				"methodIdentifiers": {
					"cos(uint256)": "a58b00ba",
					"sin(uint256)": "cb5cc109"
				}
			},
			"storageLayout": {
				"storage": [
					{
						"astId": 4,
						"contract": "plants/nft/contracts/CosSin.sol:CosSin",
						"label": "pi",
						"offset": 0,
						"slot": "0",
						"type": "t_uint256"
					},
					{
						"astId": 10,
						"contract": "plants/nft/contracts/CosSin.sol:CosSin",
						"label": "n",
						"offset": 0,
						"slot": "1",
						"type": "t_uint256"
					}
				],
				"types": {
					"t_uint256": {
						"encoding": "inplace",
						"label": "uint256",
						"numberOfBytes": "32"
					}
				}
			},
			"userdoc": {
				"kind": "user",
				"methods": {},
				"version": 1
			}
		}
	}
}