{
	"plants/nft/contracts/common/meta-transactions/NativeMetaTransaction.sol": {
		"NativeMetaTransaction": {
			"abi": [
				{
					"anonymous": false,
					"inputs": [
						{
							"indexed": false,
							"internalType": "address",
							"name": "userAddress",
							"type": "address"
						},
						{
							"indexed": false,
							"internalType": "address payable",
							"name": "relayerAddress",
							"type": "address"
						},
						{
							"indexed": false,
							"internalType": "bytes",
							"name": "functionSignature",
							"type": "bytes"
						}
					],
					"name": "MetaTransactionExecuted",
					"type": "event"
				},
				{
					"inputs": [],
					"name": "ERC712_VERSION",
					"outputs": [
						{
							"internalType": "string",
							"name": "",
							"type": "string"
						}
					],
					"stateMutability": "view",
					"type": "function"
				},
				{
					"inputs": [
						{
							"internalType": "address",
							"name": "userAddress",
							"type": "address"
						},
						{
							"internalType": "bytes",
							"name": "functionSignature",
							"type": "bytes"
						},
						{
							"internalType": "bytes32",
							"name": "sigR",
							"type": "bytes32"
						},
						{
							"internalType": "bytes32",
							"name": "sigS",
							"type": "bytes32"
						},
						{
							"internalType": "uint8",
							"name": "sigV",
							"type": "uint8"
						}
					],
					"name": "executeMetaTransaction",
					"outputs": [
						{
							"internalType": "bytes",
							"name": "",
							"type": "bytes"
						}
					],
					"stateMutability": "payable",
					"type": "function"
				},
				{
					"inputs": [],
					"name": "getChainId",
					"outputs": [
						{
							"internalType": "uint256",
							"name": "",
							"type": "uint256"
						}
					],
					"stateMutability": "view",
					"type": "function"
				},
				{
					"inputs": [],
					"name": "getDomainSeperator",
					"outputs": [
						{
							"internalType": "bytes32",
							"name": "",
							"type": "bytes32"
						}
					],
					"stateMutability": "view",
					"type": "function"
				},
				{
					"inputs": [
						{
							"internalType": "address",
							"name": "user",
							"type": "address"
						}
					],
					"name": "getNonce",
					"outputs": [
						{
							"internalType": "uint256",
							"name": "nonce",
							"type": "uint256"
						}
					],
					"stateMutability": "view",
					"type": "function"
				}
			],
			"devdoc": {
				"kind": "dev",
				"methods": {},
				"version": 1
			},
			"evm": {
				"assembly": "    /* \"plants/nft/contracts/common/meta-transactions/NativeMetaTransaction.sol\":179:3084  contract NativeMetaTransaction is EIP712Base {... */\n  mstore(0x40, 0x80)\n    /* \"plants/nft/contracts/common/meta-transactions/Initializable.sol\":101:106  false */\n  0x00\n    /* \"plants/nft/contracts/common/meta-transactions/Initializable.sol\":87:106  bool inited = false */\n  dup1\n  exp(0x0100, 0x00)\n  dup2\n  sload\n  dup2\n  0xff\n  mul\n  not\n  and\n  swap1\n  dup4\n  iszero\n  iszero\n  mul\n  or\n  swap1\n  sstore\n  pop\n    /* \"plants/nft/contracts/common/meta-transactions/NativeMetaTransaction.sol\":179:3084  contract NativeMetaTransaction is EIP712Base {... */\n  callvalue\n  dup1\n  iszero\n  tag_1\n  jumpi\n  0x00\n  dup1\n  revert\ntag_1:\n  pop\n  dataSize(sub_0)\n  dup1\n  dataOffset(sub_0)\n  0x00\n  codecopy\n  0x00\n  return\nstop\n\nsub_0: assembly {\n        /* \"plants/nft/contracts/common/meta-transactions/NativeMetaTransaction.sol\":179:3084  contract NativeMetaTransaction is EIP712Base {... */\n      mstore(0x40, 0x80)\n      jumpi(tag_1, lt(calldatasize, 0x04))\n      shr(0xe0, calldataload(0x00))\n      dup1\n      0x0c53c51c\n      eq\n      tag_2\n      jumpi\n      dup1\n      0x0f7e5970\n      eq\n      tag_3\n      jumpi\n      dup1\n      0x20379ee5\n      eq\n      tag_4\n      jumpi\n      dup1\n      0x2d0335ab\n      eq\n      tag_5\n      jumpi\n      dup1\n      0x3408e470\n      eq\n      tag_6\n      jumpi\n    tag_1:\n      0x00\n      dup1\n      revert\n        /* \"plants/nft/contracts/common/meta-transactions/NativeMetaTransaction.sol\":976:2093  function executeMetaTransaction(... */\n    tag_2:\n      tag_7\n      0x04\n      dup1\n      calldatasize\n      sub\n      dup2\n      add\n      swap1\n      tag_8\n      swap2\n      swap1\n      tag_9\n      jump\t// in\n    tag_8:\n      tag_10\n      jump\t// in\n    tag_7:\n      mload(0x40)\n      tag_11\n      swap2\n      swap1\n      tag_12\n      jump\t// in\n    tag_11:\n      mload(0x40)\n      dup1\n      swap2\n      sub\n      swap1\n      return\n        /* \"plants/nft/contracts/common/meta-transactions/EIP712Base.sol\":288:331  string constant public ERC712_VERSION = \"1\" */\n    tag_3:\n      callvalue\n      dup1\n      iszero\n      tag_13\n      jumpi\n      0x00\n      dup1\n      revert\n    tag_13:\n      pop\n      tag_14\n      tag_15\n      jump\t// in\n    tag_14:\n      mload(0x40)\n      tag_16\n      swap2\n      swap1\n      tag_17\n      jump\t// in\n    tag_16:\n      mload(0x40)\n      dup1\n      swap2\n      sub\n      swap1\n      return\n        /* \"plants/nft/contracts/common/meta-transactions/EIP712Base.sol\":1264:1363  function getDomainSeperator() public view returns (bytes32) {... */\n    tag_4:\n      callvalue\n      dup1\n      iszero\n      tag_18\n      jumpi\n      0x00\n      dup1\n      revert\n    tag_18:\n      pop\n      tag_19\n      tag_20\n      jump\t// in\n    tag_19:\n      mload(0x40)\n      tag_21\n      swap2\n      swap1\n      tag_22\n      jump\t// in\n    tag_21:\n      mload(0x40)\n      dup1\n      swap2\n      sub\n      swap1\n      return\n        /* \"plants/nft/contracts/common/meta-transactions/NativeMetaTransaction.sol\":2501:2606  function getNonce(address user) public view returns (uint256 nonce) {... */\n    tag_5:\n      callvalue\n      dup1\n      iszero\n      tag_23\n      jumpi\n      0x00\n      dup1\n      revert\n    tag_23:\n      pop\n      tag_24\n      0x04\n      dup1\n      calldatasize\n      sub\n      dup2\n      add\n      swap1\n      tag_25\n      swap2\n      swap1\n      tag_26\n      jump\t// in\n    tag_25:\n      tag_27\n      jump\t// in\n    tag_24:\n      mload(0x40)\n      tag_28\n      swap2\n      swap1\n      tag_29\n      jump\t// in\n    tag_28:\n      mload(0x40)\n      dup1\n      swap2\n      sub\n      swap1\n      return\n        /* \"plants/nft/contracts/common/meta-transactions/EIP712Base.sol\":1369:1524  function getChainId() public view returns (uint256) {... */\n    tag_6:\n      callvalue\n      dup1\n      iszero\n      tag_30\n      jumpi\n      0x00\n      dup1\n      revert\n    tag_30:\n      pop\n      tag_31\n      tag_32\n      jump\t// in\n    tag_31:\n      mload(0x40)\n      tag_33\n      swap2\n      swap1\n      tag_29\n      jump\t// in\n    tag_33:\n      mload(0x40)\n      dup1\n      swap2\n      sub\n      swap1\n      return\n        /* \"plants/nft/contracts/common/meta-transactions/NativeMetaTransaction.sol\":976:2093  function executeMetaTransaction(... */\n    tag_10:\n        /* \"plants/nft/contracts/common/meta-transactions/NativeMetaTransaction.sol\":1171:1183  bytes memory */\n      0x60\n        /* \"plants/nft/contracts/common/meta-transactions/NativeMetaTransaction.sol\":1195:1224  MetaTransaction memory metaTx */\n      0x00\n        /* \"plants/nft/contracts/common/meta-transactions/NativeMetaTransaction.sol\":1227:1375  MetaTransaction({... */\n      mload(0x40)\n      dup1\n      0x60\n      add\n      0x40\n      mstore\n      dup1\n        /* \"plants/nft/contracts/common/meta-transactions/NativeMetaTransaction.sol\":1264:1270  nonces */\n      0x02\n        /* \"plants/nft/contracts/common/meta-transactions/NativeMetaTransaction.sol\":1264:1283  nonces[userAddress] */\n      0x00\n        /* \"plants/nft/contracts/common/meta-transactions/NativeMetaTransaction.sol\":1271:1282  userAddress */\n      dup11\n        /* \"plants/nft/contracts/common/meta-transactions/NativeMetaTransaction.sol\":1264:1283  nonces[userAddress] */\n      0xffffffffffffffffffffffffffffffffffffffff\n      and\n      0xffffffffffffffffffffffffffffffffffffffff\n      and\n      dup2\n      mstore\n      0x20\n      add\n      swap1\n      dup2\n      mstore\n      0x20\n      add\n      0x00\n      keccak256\n      sload\n        /* \"plants/nft/contracts/common/meta-transactions/NativeMetaTransaction.sol\":1227:1375  MetaTransaction({... */\n      dup2\n      mstore\n      0x20\n      add\n        /* \"plants/nft/contracts/common/meta-transactions/NativeMetaTransaction.sol\":1303:1314  userAddress */\n      dup9\n        /* \"plants/nft/contracts/common/meta-transactions/NativeMetaTransaction.sol\":1227:1375  MetaTransaction({... */\n      0xffffffffffffffffffffffffffffffffffffffff\n      and\n      dup2\n      mstore\n      0x20\n      add\n        /* \"plants/nft/contracts/common/meta-transactions/NativeMetaTransaction.sol\":1347:1364  functionSignature */\n      dup8\n        /* \"plants/nft/contracts/common/meta-transactions/NativeMetaTransaction.sol\":1227:1375  MetaTransaction({... */\n      dup2\n      mstore\n      pop\n        /* \"plants/nft/contracts/common/meta-transactions/NativeMetaTransaction.sol\":1195:1375  MetaTransaction memory metaTx = MetaTransaction({... */\n      swap1\n      pop\n        /* \"plants/nft/contracts/common/meta-transactions/NativeMetaTransaction.sol\":1407:1452  verify(userAddress, metaTx, sigR, sigS, sigV) */\n      tag_35\n        /* \"plants/nft/contracts/common/meta-transactions/NativeMetaTransaction.sol\":1414:1425  userAddress */\n      dup8\n        /* \"plants/nft/contracts/common/meta-transactions/NativeMetaTransaction.sol\":1427:1433  metaTx */\n      dup3\n        /* \"plants/nft/contracts/common/meta-transactions/NativeMetaTransaction.sol\":1435:1439  sigR */\n      dup8\n        /* \"plants/nft/contracts/common/meta-transactions/NativeMetaTransaction.sol\":1441:1445  sigS */\n      dup8\n        /* \"plants/nft/contracts/common/meta-transactions/NativeMetaTransaction.sol\":1447:1451  sigV */\n      dup8\n        /* \"plants/nft/contracts/common/meta-transactions/NativeMetaTransaction.sol\":1407:1413  verify */\n      tag_36\n        /* \"plants/nft/contracts/common/meta-transactions/NativeMetaTransaction.sol\":1407:1452  verify(userAddress, metaTx, sigR, sigS, sigV) */\n      jump\t// in\n    tag_35:\n        /* \"plants/nft/contracts/common/meta-transactions/NativeMetaTransaction.sol\":1386:1511  require(... */\n      tag_37\n      jumpi\n      mload(0x40)\n      0x08c379a000000000000000000000000000000000000000000000000000000000\n      dup2\n      mstore\n      0x04\n      add\n      tag_38\n      swap1\n      tag_39\n      jump\t// in\n    tag_38:\n      mload(0x40)\n      dup1\n      swap2\n      sub\n      swap1\n      revert\n    tag_37:\n        /* \"plants/nft/contracts/common/meta-transactions/NativeMetaTransaction.sol\":1597:1623  nonces[userAddress].add(1) */\n      tag_40\n        /* \"plants/nft/contracts/common/meta-transactions/NativeMetaTransaction.sol\":1621:1622  1 */\n      0x01\n        /* \"plants/nft/contracts/common/meta-transactions/NativeMetaTransaction.sol\":1597:1603  nonces */\n      0x02\n        /* \"plants/nft/contracts/common/meta-transactions/NativeMetaTransaction.sol\":1597:1616  nonces[userAddress] */\n      0x00\n        /* \"plants/nft/contracts/common/meta-transactions/NativeMetaTransaction.sol\":1604:1615  userAddress */\n      dup11\n        /* \"plants/nft/contracts/common/meta-transactions/NativeMetaTransaction.sol\":1597:1616  nonces[userAddress] */\n      0xffffffffffffffffffffffffffffffffffffffff\n      and\n      0xffffffffffffffffffffffffffffffffffffffff\n      and\n      dup2\n      mstore\n      0x20\n      add\n      swap1\n      dup2\n      mstore\n      0x20\n      add\n      0x00\n      keccak256\n      sload\n        /* \"plants/nft/contracts/common/meta-transactions/NativeMetaTransaction.sol\":1597:1620  nonces[userAddress].add */\n      tag_41\n      swap1\n        /* \"plants/nft/contracts/common/meta-transactions/NativeMetaTransaction.sol\":1597:1623  nonces[userAddress].add(1) */\n      swap2\n      swap1\n      0xffffffff\n      and\n      jump\t// in\n    tag_40:\n        /* \"plants/nft/contracts/common/meta-transactions/NativeMetaTransaction.sol\":1575:1581  nonces */\n      0x02\n        /* \"plants/nft/contracts/common/meta-transactions/NativeMetaTransaction.sol\":1575:1594  nonces[userAddress] */\n      0x00\n        /* \"plants/nft/contracts/common/meta-transactions/NativeMetaTransaction.sol\":1582:1593  userAddress */\n      dup10\n        /* \"plants/nft/contracts/common/meta-transactions/NativeMetaTransaction.sol\":1575:1594  nonces[userAddress] */\n      0xffffffffffffffffffffffffffffffffffffffff\n      and\n      0xffffffffffffffffffffffffffffffffffffffff\n      and\n      dup2\n      mstore\n      0x20\n      add\n      swap1\n      dup2\n      mstore\n      0x20\n      add\n      0x00\n      keccak256\n        /* \"plants/nft/contracts/common/meta-transactions/NativeMetaTransaction.sol\":1575:1623  nonces[userAddress] = nonces[userAddress].add(1) */\n      dup2\n      swap1\n      sstore\n      pop\n        /* \"plants/nft/contracts/common/meta-transactions/NativeMetaTransaction.sol\":1639:1761  MetaTransactionExecuted(... */\n      0x5845892132946850460bff5a0083f71031bc5bf9aadcd40f1de79423eac9b10b\n        /* \"plants/nft/contracts/common/meta-transactions/NativeMetaTransaction.sol\":1676:1687  userAddress */\n      dup8\n        /* \"plants/nft/contracts/common/meta-transactions/NativeMetaTransaction.sol\":1709:1719  msg.sender */\n      caller\n        /* \"plants/nft/contracts/common/meta-transactions/NativeMetaTransaction.sol\":1734:1751  functionSignature */\n      dup9\n        /* \"plants/nft/contracts/common/meta-transactions/NativeMetaTransaction.sol\":1639:1761  MetaTransactionExecuted(... */\n      mload(0x40)\n      tag_42\n      swap4\n      swap3\n      swap2\n      swap1\n      tag_43\n      jump\t// in\n    tag_42:\n      mload(0x40)\n      dup1\n      swap2\n      sub\n      swap1\n      log1\n        /* \"plants/nft/contracts/common/meta-transactions/NativeMetaTransaction.sol\":1869:1881  bool success */\n      0x00\n        /* \"plants/nft/contracts/common/meta-transactions/NativeMetaTransaction.sol\":1883:1906  bytes memory returnData */\n      dup1\n        /* \"plants/nft/contracts/common/meta-transactions/NativeMetaTransaction.sol\":1918:1922  this */\n      address\n        /* \"plants/nft/contracts/common/meta-transactions/NativeMetaTransaction.sol\":1910:1928  address(this).call */\n      0xffffffffffffffffffffffffffffffffffffffff\n      and\n        /* \"plants/nft/contracts/common/meta-transactions/NativeMetaTransaction.sol\":1959:1976  functionSignature */\n      dup9\n        /* \"plants/nft/contracts/common/meta-transactions/NativeMetaTransaction.sol\":1978:1989  userAddress */\n      dup11\n        /* \"plants/nft/contracts/common/meta-transactions/NativeMetaTransaction.sol\":1942:1990  abi.encodePacked(functionSignature, userAddress) */\n      add(0x20, mload(0x40))\n      tag_44\n      swap3\n      swap2\n      swap1\n      tag_45\n      jump\t// in\n    tag_44:\n      mload(0x40)\n      0x20\n      dup2\n      dup4\n      sub\n      sub\n      dup2\n      mstore\n      swap1\n      0x40\n      mstore\n        /* \"plants/nft/contracts/common/meta-transactions/NativeMetaTransaction.sol\":1910:2000  address(this).call(... */\n      mload(0x40)\n      tag_46\n      swap2\n      swap1\n      tag_47\n      jump\t// in\n    tag_46:\n      0x00\n      mload(0x40)\n      dup1\n      dup4\n      sub\n      dup2\n      0x00\n      dup7\n      gas\n      call\n      swap2\n      pop\n      pop\n      returndatasize\n      dup1\n      0x00\n      dup2\n      eq\n      tag_50\n      jumpi\n      mload(0x40)\n      swap2\n      pop\n      and(add(returndatasize, 0x3f), not(0x1f))\n      dup3\n      add\n      0x40\n      mstore\n      returndatasize\n      dup3\n      mstore\n      returndatasize\n      0x00\n      0x20\n      dup5\n      add\n      returndatacopy\n      jump(tag_49)\n    tag_50:\n      0x60\n      swap2\n      pop\n    tag_49:\n      pop\n        /* \"plants/nft/contracts/common/meta-transactions/NativeMetaTransaction.sol\":1868:2000  (bool success, bytes memory returnData) = address(this).call(... */\n      swap2\n      pop\n      swap2\n      pop\n        /* \"plants/nft/contracts/common/meta-transactions/NativeMetaTransaction.sol\":2018:2025  success */\n      dup2\n        /* \"plants/nft/contracts/common/meta-transactions/NativeMetaTransaction.sol\":2010:2058  require(success, \"Function call not successful\") */\n      tag_51\n      jumpi\n      mload(0x40)\n      0x08c379a000000000000000000000000000000000000000000000000000000000\n      dup2\n      mstore\n      0x04\n      add\n      tag_52\n      swap1\n      tag_53\n      jump\t// in\n    tag_52:\n      mload(0x40)\n      dup1\n      swap2\n      sub\n      swap1\n      revert\n    tag_51:\n        /* \"plants/nft/contracts/common/meta-transactions/NativeMetaTransaction.sol\":2076:2086  returnData */\n      dup1\n        /* \"plants/nft/contracts/common/meta-transactions/NativeMetaTransaction.sol\":2069:2086  return returnData */\n      swap4\n      pop\n      pop\n      pop\n      pop\n        /* \"plants/nft/contracts/common/meta-transactions/NativeMetaTransaction.sol\":976:2093  function executeMetaTransaction(... */\n      swap6\n      swap5\n      pop\n      pop\n      pop\n      pop\n      pop\n      jump\t// out\n        /* \"plants/nft/contracts/common/meta-transactions/EIP712Base.sol\":288:331  string constant public ERC712_VERSION = \"1\" */\n    tag_15:\n      mload(0x40)\n      dup1\n      0x40\n      add\n      0x40\n      mstore\n      dup1\n      0x01\n      dup2\n      mstore\n      0x20\n      add\n      0x3100000000000000000000000000000000000000000000000000000000000000\n      dup2\n      mstore\n      pop\n      dup2\n      jump\t// out\n        /* \"plants/nft/contracts/common/meta-transactions/EIP712Base.sol\":1264:1363  function getDomainSeperator() public view returns (bytes32) {... */\n    tag_20:\n        /* \"plants/nft/contracts/common/meta-transactions/EIP712Base.sol\":1315:1322  bytes32 */\n      0x00\n        /* \"plants/nft/contracts/common/meta-transactions/EIP712Base.sol\":1341:1356  domainSeperator */\n      sload(0x01)\n        /* \"plants/nft/contracts/common/meta-transactions/EIP712Base.sol\":1334:1356  return domainSeperator */\n      swap1\n      pop\n        /* \"plants/nft/contracts/common/meta-transactions/EIP712Base.sol\":1264:1363  function getDomainSeperator() public view returns (bytes32) {... */\n      swap1\n      jump\t// out\n        /* \"plants/nft/contracts/common/meta-transactions/NativeMetaTransaction.sol\":2501:2606  function getNonce(address user) public view returns (uint256 nonce) {... */\n    tag_27:\n        /* \"plants/nft/contracts/common/meta-transactions/NativeMetaTransaction.sol\":2554:2567  uint256 nonce */\n      0x00\n        /* \"plants/nft/contracts/common/meta-transactions/NativeMetaTransaction.sol\":2587:2593  nonces */\n      0x02\n        /* \"plants/nft/contracts/common/meta-transactions/NativeMetaTransaction.sol\":2587:2599  nonces[user] */\n      0x00\n        /* \"plants/nft/contracts/common/meta-transactions/NativeMetaTransaction.sol\":2594:2598  user */\n      dup4\n        /* \"plants/nft/contracts/common/meta-transactions/NativeMetaTransaction.sol\":2587:2599  nonces[user] */\n      0xffffffffffffffffffffffffffffffffffffffff\n      and\n      0xffffffffffffffffffffffffffffffffffffffff\n      and\n      dup2\n      mstore\n      0x20\n      add\n      swap1\n      dup2\n      mstore\n      0x20\n      add\n      0x00\n      keccak256\n      sload\n        /* \"plants/nft/contracts/common/meta-transactions/NativeMetaTransaction.sol\":2579:2599  nonce = nonces[user] */\n      swap1\n      pop\n        /* \"plants/nft/contracts/common/meta-transactions/NativeMetaTransaction.sol\":2501:2606  function getNonce(address user) public view returns (uint256 nonce) {... */\n      swap2\n      swap1\n      pop\n      jump\t// out\n        /* \"plants/nft/contracts/common/meta-transactions/EIP712Base.sol\":1369:1524  function getChainId() public view returns (uint256) {... */\n    tag_32:\n        /* \"plants/nft/contracts/common/meta-transactions/EIP712Base.sol\":1412:1419  uint256 */\n      0x00\n        /* \"plants/nft/contracts/common/meta-transactions/EIP712Base.sol\":1431:1441  uint256 id */\n      dup1\n        /* \"plants/nft/contracts/common/meta-transactions/EIP712Base.sol\":1480:1489  chainid() */\n      chainid\n        /* \"plants/nft/contracts/common/meta-transactions/EIP712Base.sol\":1474:1489  id := chainid() */\n      swap1\n      pop\n        /* \"plants/nft/contracts/common/meta-transactions/EIP712Base.sol\":1515:1517  id */\n      dup1\n        /* \"plants/nft/contracts/common/meta-transactions/EIP712Base.sol\":1508:1517  return id */\n      swap2\n      pop\n      pop\n        /* \"plants/nft/contracts/common/meta-transactions/EIP712Base.sol\":1369:1524  function getChainId() public view returns (uint256) {... */\n      swap1\n      jump\t// out\n        /* \"plants/nft/contracts/common/meta-transactions/NativeMetaTransaction.sol\":2612:3082  function verify(... */\n    tag_36:\n        /* \"plants/nft/contracts/common/meta-transactions/NativeMetaTransaction.sol\":2784:2788  bool */\n      0x00\n        /* \"plants/nft/contracts/common/meta-transactions/NativeMetaTransaction.sol\":2826:2827  0 */\n      dup1\n        /* \"plants/nft/contracts/common/meta-transactions/NativeMetaTransaction.sol\":2808:2828  signer != address(0) */\n      0xffffffffffffffffffffffffffffffffffffffff\n      and\n        /* \"plants/nft/contracts/common/meta-transactions/NativeMetaTransaction.sol\":2808:2814  signer */\n      dup7\n        /* \"plants/nft/contracts/common/meta-transactions/NativeMetaTransaction.sol\":2808:2828  signer != address(0) */\n      0xffffffffffffffffffffffffffffffffffffffff\n      and\n      eq\n      iszero\n        /* \"plants/nft/contracts/common/meta-transactions/NativeMetaTransaction.sol\":2800:2870  require(signer != address(0), \"NativeMetaTransaction: INVALID_SIGNER\") */\n      tag_58\n      jumpi\n      mload(0x40)\n      0x08c379a000000000000000000000000000000000000000000000000000000000\n      dup2\n      mstore\n      0x04\n      add\n      tag_59\n      swap1\n      tag_60\n      jump\t// in\n    tag_59:\n      mload(0x40)\n      dup1\n      swap2\n      sub\n      swap1\n      revert\n    tag_58:\n        /* \"plants/nft/contracts/common/meta-transactions/NativeMetaTransaction.sol\":2921:3075  ecrecover(... */\n      0x01\n        /* \"plants/nft/contracts/common/meta-transactions/NativeMetaTransaction.sol\":2948:2995  toTypedMessageHash(hashMetaTransaction(metaTx)) */\n      tag_61\n        /* \"plants/nft/contracts/common/meta-transactions/NativeMetaTransaction.sol\":2967:2994  hashMetaTransaction(metaTx) */\n      tag_62\n        /* \"plants/nft/contracts/common/meta-transactions/NativeMetaTransaction.sol\":2987:2993  metaTx */\n      dup8\n        /* \"plants/nft/contracts/common/meta-transactions/NativeMetaTransaction.sol\":2967:2986  hashMetaTransaction */\n      tag_63\n        /* \"plants/nft/contracts/common/meta-transactions/NativeMetaTransaction.sol\":2967:2994  hashMetaTransaction(metaTx) */\n      jump\t// in\n    tag_62:\n        /* \"plants/nft/contracts/common/meta-transactions/NativeMetaTransaction.sol\":2948:2966  toTypedMessageHash */\n      tag_64\n        /* \"plants/nft/contracts/common/meta-transactions/NativeMetaTransaction.sol\":2948:2995  toTypedMessageHash(hashMetaTransaction(metaTx)) */\n      jump\t// in\n    tag_61:\n        /* \"plants/nft/contracts/common/meta-transactions/NativeMetaTransaction.sol\":3013:3017  sigV */\n      dup4\n        /* \"plants/nft/contracts/common/meta-transactions/NativeMetaTransaction.sol\":3035:3039  sigR */\n      dup7\n        /* \"plants/nft/contracts/common/meta-transactions/NativeMetaTransaction.sol\":3057:3061  sigS */\n      dup7\n        /* \"plants/nft/contracts/common/meta-transactions/NativeMetaTransaction.sol\":2921:3075  ecrecover(... */\n      mload(0x40)\n      0x00\n      dup2\n      mstore\n      0x20\n      add\n      0x40\n      mstore\n      mload(0x40)\n      tag_65\n      swap5\n      swap4\n      swap3\n      swap2\n      swap1\n      tag_66\n      jump\t// in\n    tag_65:\n      0x20\n      mload(0x40)\n      0x20\n      dup2\n      sub\n      swap1\n      dup1\n      dup5\n      sub\n      swap1\n      dup6\n      gas\n      staticcall\n      iszero\n      dup1\n      iszero\n      tag_68\n      jumpi\n      returndatasize\n      0x00\n      dup1\n      returndatacopy\n      revert(0x00, returndatasize)\n    tag_68:\n      pop\n      pop\n      pop\n      mload(sub(mload(0x40), 0x20))\n        /* \"plants/nft/contracts/common/meta-transactions/NativeMetaTransaction.sol\":2899:3075  signer ==... */\n      0xffffffffffffffffffffffffffffffffffffffff\n      and\n        /* \"plants/nft/contracts/common/meta-transactions/NativeMetaTransaction.sol\":2899:2905  signer */\n      dup7\n        /* \"plants/nft/contracts/common/meta-transactions/NativeMetaTransaction.sol\":2899:3075  signer ==... */\n      0xffffffffffffffffffffffffffffffffffffffff\n      and\n      eq\n        /* \"plants/nft/contracts/common/meta-transactions/NativeMetaTransaction.sol\":2880:3075  return... */\n      swap1\n      pop\n        /* \"plants/nft/contracts/common/meta-transactions/NativeMetaTransaction.sol\":2612:3082  function verify(... */\n      swap6\n      swap5\n      pop\n      pop\n      pop\n      pop\n      pop\n      jump\t// out\n        /* \"@openzeppelin/contracts/utils/math/SafeMath.sol\":2755:2851  function add(uint256 a, uint256 b) internal pure returns (uint256) {... */\n    tag_41:\n        /* \"@openzeppelin/contracts/utils/math/SafeMath.sol\":2813:2820  uint256 */\n      0x00\n        /* \"@openzeppelin/contracts/utils/math/SafeMath.sol\":2843:2844  b */\n      dup2\n        /* \"@openzeppelin/contracts/utils/math/SafeMath.sol\":2839:2840  a */\n      dup4\n        /* \"@openzeppelin/contracts/utils/math/SafeMath.sol\":2839:2844  a + b */\n      tag_70\n      swap2\n      swap1\n      tag_71\n      jump\t// in\n    tag_70:\n        /* \"@openzeppelin/contracts/utils/math/SafeMath.sol\":2832:2844  return a + b */\n      swap1\n      pop\n        /* \"@openzeppelin/contracts/utils/math/SafeMath.sol\":2755:2851  function add(uint256 a, uint256 b) internal pure returns (uint256) {... */\n      swap3\n      swap2\n      pop\n      pop\n      jump\t// out\n        /* \"plants/nft/contracts/common/meta-transactions/NativeMetaTransaction.sol\":2099:2495  function hashMetaTransaction(MetaTransaction memory metaTx)... */\n    tag_63:\n        /* \"plants/nft/contracts/common/meta-transactions/NativeMetaTransaction.sol\":2206:2213  bytes32 */\n      0x00\n        /* \"plants/nft/contracts/common/meta-transactions/NativeMetaTransaction.sol\":334:432  bytes(... */\n      mload(0x40)\n      dup1\n      0x80\n      add\n      0x40\n      mstore\n      dup1\n      0x43\n      dup2\n      mstore\n      0x20\n      add\n      data_23d10def3caacba2e4042e0c75d44a42d2558aabcf5ce951d0642a8032e1e653\n      0x43\n      swap2\n      codecopy\n        /* \"plants/nft/contracts/common/meta-transactions/NativeMetaTransaction.sol\":315:438  keccak256(... */\n      dup1\n      mload\n      swap1\n      0x20\n      add\n      keccak256\n        /* \"plants/nft/contracts/common/meta-transactions/NativeMetaTransaction.sol\":2354:2360  metaTx */\n      dup3\n        /* \"plants/nft/contracts/common/meta-transactions/NativeMetaTransaction.sol\":2354:2366  metaTx.nonce */\n      0x00\n      add\n      mload\n        /* \"plants/nft/contracts/common/meta-transactions/NativeMetaTransaction.sol\":2388:2394  metaTx */\n      dup4\n        /* \"plants/nft/contracts/common/meta-transactions/NativeMetaTransaction.sol\":2388:2399  metaTx.from */\n      0x20\n      add\n      mload\n        /* \"plants/nft/contracts/common/meta-transactions/NativeMetaTransaction.sol\":2431:2437  metaTx */\n      dup5\n        /* \"plants/nft/contracts/common/meta-transactions/NativeMetaTransaction.sol\":2431:2455  metaTx.functionSignature */\n      0x40\n      add\n      mload\n        /* \"plants/nft/contracts/common/meta-transactions/NativeMetaTransaction.sol\":2421:2456  keccak256(metaTx.functionSignature) */\n      dup1\n      mload\n      swap1\n      0x20\n      add\n      keccak256\n        /* \"plants/nft/contracts/common/meta-transactions/NativeMetaTransaction.sol\":2275:2474  abi.encode(... */\n      add(0x20, mload(0x40))\n      tag_73\n      swap5\n      swap4\n      swap3\n      swap2\n      swap1\n      tag_74\n      jump\t// in\n    tag_73:\n      mload(0x40)\n      0x20\n      dup2\n      dup4\n      sub\n      sub\n      dup2\n      mstore\n      swap1\n      0x40\n      mstore\n        /* \"plants/nft/contracts/common/meta-transactions/NativeMetaTransaction.sol\":2248:2488  keccak256(... */\n      dup1\n      mload\n      swap1\n      0x20\n      add\n      keccak256\n        /* \"plants/nft/contracts/common/meta-transactions/NativeMetaTransaction.sol\":2229:2488  return... */\n      swap1\n      pop\n        /* \"plants/nft/contracts/common/meta-transactions/NativeMetaTransaction.sol\":2099:2495  function hashMetaTransaction(MetaTransaction memory metaTx)... */\n      swap2\n      swap1\n      pop\n      jump\t// out\n        /* \"plants/nft/contracts/common/meta-transactions/EIP712Base.sol\":1884:2133  function toTypedMessageHash(bytes32 messageHash)... */\n    tag_64:\n        /* \"plants/nft/contracts/common/meta-transactions/EIP712Base.sol\":1980:1987  bytes32 */\n      0x00\n        /* \"plants/nft/contracts/common/meta-transactions/EIP712Base.sol\":2078:2098  getDomainSeperator() */\n      tag_76\n        /* \"plants/nft/contracts/common/meta-transactions/EIP712Base.sol\":2078:2096  getDomainSeperator */\n      tag_20\n        /* \"plants/nft/contracts/common/meta-transactions/EIP712Base.sol\":2078:2098  getDomainSeperator() */\n      jump\t// in\n    tag_76:\n        /* \"plants/nft/contracts/common/meta-transactions/EIP712Base.sol\":2100:2111  messageHash */\n      dup3\n        /* \"plants/nft/contracts/common/meta-transactions/EIP712Base.sol\":2049:2112  abi.encodePacked(\"\\x19\\x01\", getDomainSeperator(), messageHash) */\n      add(0x20, mload(0x40))\n      tag_77\n      swap3\n      swap2\n      swap1\n      tag_78\n      jump\t// in\n    tag_77:\n      mload(0x40)\n      0x20\n      dup2\n      dup4\n      sub\n      sub\n      dup2\n      mstore\n      swap1\n      0x40\n      mstore\n        /* \"plants/nft/contracts/common/meta-transactions/EIP712Base.sol\":2022:2126  keccak256(... */\n      dup1\n      mload\n      swap1\n      0x20\n      add\n      keccak256\n        /* \"plants/nft/contracts/common/meta-transactions/EIP712Base.sol\":2003:2126  return... */\n      swap1\n      pop\n        /* \"plants/nft/contracts/common/meta-transactions/EIP712Base.sol\":1884:2133  function toTypedMessageHash(bytes32 messageHash)... */\n      swap2\n      swap1\n      pop\n      jump\t// out\n        /* \"#utility.yul\":7:417   */\n    tag_80:\n        /* \"#utility.yul\":84:89   */\n      0x00\n        /* \"#utility.yul\":109:174   */\n      tag_82\n        /* \"#utility.yul\":125:173   */\n      tag_83\n        /* \"#utility.yul\":166:172   */\n      dup5\n        /* \"#utility.yul\":125:173   */\n      tag_84\n      jump\t// in\n    tag_83:\n        /* \"#utility.yul\":109:174   */\n      tag_85\n      jump\t// in\n    tag_82:\n        /* \"#utility.yul\":100:174   */\n      swap1\n      pop\n        /* \"#utility.yul\":197:203   */\n      dup3\n        /* \"#utility.yul\":190:195   */\n      dup2\n        /* \"#utility.yul\":183:204   */\n      mstore\n        /* \"#utility.yul\":235:239   */\n      0x20\n        /* \"#utility.yul\":228:233   */\n      dup2\n        /* \"#utility.yul\":224:240   */\n      add\n        /* \"#utility.yul\":273:276   */\n      dup5\n        /* \"#utility.yul\":264:270   */\n      dup5\n        /* \"#utility.yul\":259:262   */\n      dup5\n        /* \"#utility.yul\":255:271   */\n      add\n        /* \"#utility.yul\":252:277   */\n      gt\n        /* \"#utility.yul\":249:361   */\n      iszero\n      tag_86\n      jumpi\n        /* \"#utility.yul\":280:359   */\n      tag_87\n      tag_88\n      jump\t// in\n    tag_87:\n        /* \"#utility.yul\":249:361   */\n    tag_86:\n        /* \"#utility.yul\":370:411   */\n      tag_89\n        /* \"#utility.yul\":404:410   */\n      dup5\n        /* \"#utility.yul\":399:402   */\n      dup3\n        /* \"#utility.yul\":394:397   */\n      dup6\n        /* \"#utility.yul\":370:411   */\n      tag_90\n      jump\t// in\n    tag_89:\n        /* \"#utility.yul\":90:417   */\n      pop\n        /* \"#utility.yul\":7:417   */\n      swap4\n      swap3\n      pop\n      pop\n      pop\n      jump\t// out\n        /* \"#utility.yul\":423:562   */\n    tag_91:\n        /* \"#utility.yul\":469:474   */\n      0x00\n        /* \"#utility.yul\":507:513   */\n      dup2\n        /* \"#utility.yul\":494:514   */\n      calldataload\n        /* \"#utility.yul\":485:514   */\n      swap1\n      pop\n        /* \"#utility.yul\":523:556   */\n      tag_93\n        /* \"#utility.yul\":550:555   */\n      dup2\n        /* \"#utility.yul\":523:556   */\n      tag_94\n      jump\t// in\n    tag_93:\n        /* \"#utility.yul\":423:562   */\n      swap3\n      swap2\n      pop\n      pop\n      jump\t// out\n        /* \"#utility.yul\":568:707   */\n    tag_95:\n        /* \"#utility.yul\":614:619   */\n      0x00\n        /* \"#utility.yul\":652:658   */\n      dup2\n        /* \"#utility.yul\":639:659   */\n      calldataload\n        /* \"#utility.yul\":630:659   */\n      swap1\n      pop\n        /* \"#utility.yul\":668:701   */\n      tag_97\n        /* \"#utility.yul\":695:700   */\n      dup2\n        /* \"#utility.yul\":668:701   */\n      tag_98\n      jump\t// in\n    tag_97:\n        /* \"#utility.yul\":568:707   */\n      swap3\n      swap2\n      pop\n      pop\n      jump\t// out\n        /* \"#utility.yul\":726:1064   */\n    tag_99:\n        /* \"#utility.yul\":781:786   */\n      0x00\n        /* \"#utility.yul\":830:833   */\n      dup3\n        /* \"#utility.yul\":823:827   */\n      0x1f\n        /* \"#utility.yul\":815:821   */\n      dup4\n        /* \"#utility.yul\":811:828   */\n      add\n        /* \"#utility.yul\":807:834   */\n      slt\n        /* \"#utility.yul\":797:919   */\n      tag_101\n      jumpi\n        /* \"#utility.yul\":838:917   */\n      tag_102\n      tag_103\n      jump\t// in\n    tag_102:\n        /* \"#utility.yul\":797:919   */\n    tag_101:\n        /* \"#utility.yul\":955:961   */\n      dup2\n        /* \"#utility.yul\":942:962   */\n      calldataload\n        /* \"#utility.yul\":980:1058   */\n      tag_104\n        /* \"#utility.yul\":1054:1057   */\n      dup5\n        /* \"#utility.yul\":1046:1052   */\n      dup3\n        /* \"#utility.yul\":1039:1043   */\n      0x20\n        /* \"#utility.yul\":1031:1037   */\n      dup7\n        /* \"#utility.yul\":1027:1044   */\n      add\n        /* \"#utility.yul\":980:1058   */\n      tag_80\n      jump\t// in\n    tag_104:\n        /* \"#utility.yul\":971:1058   */\n      swap2\n      pop\n        /* \"#utility.yul\":787:1064   */\n      pop\n        /* \"#utility.yul\":726:1064   */\n      swap3\n      swap2\n      pop\n      pop\n      jump\t// out\n        /* \"#utility.yul\":1070:1205   */\n    tag_105:\n        /* \"#utility.yul\":1114:1119   */\n      0x00\n        /* \"#utility.yul\":1152:1158   */\n      dup2\n        /* \"#utility.yul\":1139:1159   */\n      calldataload\n        /* \"#utility.yul\":1130:1159   */\n      swap1\n      pop\n        /* \"#utility.yul\":1168:1199   */\n      tag_107\n        /* \"#utility.yul\":1193:1198   */\n      dup2\n        /* \"#utility.yul\":1168:1199   */\n      tag_108\n      jump\t// in\n    tag_107:\n        /* \"#utility.yul\":1070:1205   */\n      swap3\n      swap2\n      pop\n      pop\n      jump\t// out\n        /* \"#utility.yul\":1211:1540   */\n    tag_26:\n        /* \"#utility.yul\":1270:1276   */\n      0x00\n        /* \"#utility.yul\":1319:1321   */\n      0x20\n        /* \"#utility.yul\":1307:1316   */\n      dup3\n        /* \"#utility.yul\":1298:1305   */\n      dup5\n        /* \"#utility.yul\":1294:1317   */\n      sub\n        /* \"#utility.yul\":1290:1322   */\n      slt\n        /* \"#utility.yul\":1287:1406   */\n      iszero\n      tag_110\n      jumpi\n        /* \"#utility.yul\":1325:1404   */\n      tag_111\n      tag_112\n      jump\t// in\n    tag_111:\n        /* \"#utility.yul\":1287:1406   */\n    tag_110:\n        /* \"#utility.yul\":1445:1446   */\n      0x00\n        /* \"#utility.yul\":1470:1523   */\n      tag_113\n        /* \"#utility.yul\":1515:1522   */\n      dup5\n        /* \"#utility.yul\":1506:1512   */\n      dup3\n        /* \"#utility.yul\":1495:1504   */\n      dup6\n        /* \"#utility.yul\":1491:1513   */\n      add\n        /* \"#utility.yul\":1470:1523   */\n      tag_91\n      jump\t// in\n    tag_113:\n        /* \"#utility.yul\":1460:1523   */\n      swap2\n      pop\n        /* \"#utility.yul\":1416:1533   */\n      pop\n        /* \"#utility.yul\":1211:1540   */\n      swap3\n      swap2\n      pop\n      pop\n      jump\t// out\n        /* \"#utility.yul\":1546:2631   */\n    tag_9:\n        /* \"#utility.yul\":1648:1654   */\n      0x00\n        /* \"#utility.yul\":1656:1662   */\n      dup1\n        /* \"#utility.yul\":1664:1670   */\n      0x00\n        /* \"#utility.yul\":1672:1678   */\n      dup1\n        /* \"#utility.yul\":1680:1686   */\n      0x00\n        /* \"#utility.yul\":1729:1732   */\n      0xa0\n        /* \"#utility.yul\":1717:1726   */\n      dup7\n        /* \"#utility.yul\":1708:1715   */\n      dup9\n        /* \"#utility.yul\":1704:1727   */\n      sub\n        /* \"#utility.yul\":1700:1733   */\n      slt\n        /* \"#utility.yul\":1697:1817   */\n      iszero\n      tag_115\n      jumpi\n        /* \"#utility.yul\":1736:1815   */\n      tag_116\n      tag_112\n      jump\t// in\n    tag_116:\n        /* \"#utility.yul\":1697:1817   */\n    tag_115:\n        /* \"#utility.yul\":1856:1857   */\n      0x00\n        /* \"#utility.yul\":1881:1934   */\n      tag_117\n        /* \"#utility.yul\":1926:1933   */\n      dup9\n        /* \"#utility.yul\":1917:1923   */\n      dup3\n        /* \"#utility.yul\":1906:1915   */\n      dup10\n        /* \"#utility.yul\":1902:1924   */\n      add\n        /* \"#utility.yul\":1881:1934   */\n      tag_91\n      jump\t// in\n    tag_117:\n        /* \"#utility.yul\":1871:1934   */\n      swap6\n      pop\n        /* \"#utility.yul\":1827:1944   */\n      pop\n        /* \"#utility.yul\":2011:2013   */\n      0x20\n        /* \"#utility.yul\":2000:2009   */\n      dup7\n        /* \"#utility.yul\":1996:2014   */\n      add\n        /* \"#utility.yul\":1983:2015   */\n      calldataload\n        /* \"#utility.yul\":2042:2060   */\n      0xffffffffffffffff\n        /* \"#utility.yul\":2034:2040   */\n      dup2\n        /* \"#utility.yul\":2031:2061   */\n      gt\n        /* \"#utility.yul\":2028:2145   */\n      iszero\n      tag_118\n      jumpi\n        /* \"#utility.yul\":2064:2143   */\n      tag_119\n      tag_120\n      jump\t// in\n    tag_119:\n        /* \"#utility.yul\":2028:2145   */\n    tag_118:\n        /* \"#utility.yul\":2169:2231   */\n      tag_121\n        /* \"#utility.yul\":2223:2230   */\n      dup9\n        /* \"#utility.yul\":2214:2220   */\n      dup3\n        /* \"#utility.yul\":2203:2212   */\n      dup10\n        /* \"#utility.yul\":2199:2221   */\n      add\n        /* \"#utility.yul\":2169:2231   */\n      tag_99\n      jump\t// in\n    tag_121:\n        /* \"#utility.yul\":2159:2231   */\n      swap5\n      pop\n        /* \"#utility.yul\":1954:2241   */\n      pop\n        /* \"#utility.yul\":2280:2282   */\n      0x40\n        /* \"#utility.yul\":2306:2359   */\n      tag_122\n        /* \"#utility.yul\":2351:2358   */\n      dup9\n        /* \"#utility.yul\":2342:2348   */\n      dup3\n        /* \"#utility.yul\":2331:2340   */\n      dup10\n        /* \"#utility.yul\":2327:2349   */\n      add\n        /* \"#utility.yul\":2306:2359   */\n      tag_95\n      jump\t// in\n    tag_122:\n        /* \"#utility.yul\":2296:2359   */\n      swap4\n      pop\n        /* \"#utility.yul\":2251:2369   */\n      pop\n        /* \"#utility.yul\":2408:2410   */\n      0x60\n        /* \"#utility.yul\":2434:2487   */\n      tag_123\n        /* \"#utility.yul\":2479:2486   */\n      dup9\n        /* \"#utility.yul\":2470:2476   */\n      dup3\n        /* \"#utility.yul\":2459:2468   */\n      dup10\n        /* \"#utility.yul\":2455:2477   */\n      add\n        /* \"#utility.yul\":2434:2487   */\n      tag_95\n      jump\t// in\n    tag_123:\n        /* \"#utility.yul\":2424:2487   */\n      swap3\n      pop\n        /* \"#utility.yul\":2379:2497   */\n      pop\n        /* \"#utility.yul\":2536:2539   */\n      0x80\n        /* \"#utility.yul\":2563:2614   */\n      tag_124\n        /* \"#utility.yul\":2606:2613   */\n      dup9\n        /* \"#utility.yul\":2597:2603   */\n      dup3\n        /* \"#utility.yul\":2586:2595   */\n      dup10\n        /* \"#utility.yul\":2582:2604   */\n      add\n        /* \"#utility.yul\":2563:2614   */\n      tag_105\n      jump\t// in\n    tag_124:\n        /* \"#utility.yul\":2553:2614   */\n      swap2\n      pop\n        /* \"#utility.yul\":2507:2624   */\n      pop\n        /* \"#utility.yul\":1546:2631   */\n      swap3\n      swap6\n      pop\n      swap3\n      swap6\n      swap1\n      swap4\n      pop\n      jump\t// out\n        /* \"#utility.yul\":2637:2779   */\n    tag_125:\n        /* \"#utility.yul\":2740:2772   */\n      tag_127\n        /* \"#utility.yul\":2766:2771   */\n      dup2\n        /* \"#utility.yul\":2740:2772   */\n      tag_128\n      jump\t// in\n    tag_127:\n        /* \"#utility.yul\":2735:2738   */\n      dup3\n        /* \"#utility.yul\":2728:2773   */\n      mstore\n        /* \"#utility.yul\":2637:2779   */\n      pop\n      pop\n      jump\t// out\n        /* \"#utility.yul\":2785:2903   */\n    tag_129:\n        /* \"#utility.yul\":2872:2896   */\n      tag_131\n        /* \"#utility.yul\":2890:2895   */\n      dup2\n        /* \"#utility.yul\":2872:2896   */\n      tag_132\n      jump\t// in\n    tag_131:\n        /* \"#utility.yul\":2867:2870   */\n      dup3\n        /* \"#utility.yul\":2860:2897   */\n      mstore\n        /* \"#utility.yul\":2785:2903   */\n      pop\n      pop\n      jump\t// out\n        /* \"#utility.yul\":2909:3066   */\n    tag_133:\n        /* \"#utility.yul\":3014:3059   */\n      tag_135\n        /* \"#utility.yul\":3034:3058   */\n      tag_136\n        /* \"#utility.yul\":3052:3057   */\n      dup3\n        /* \"#utility.yul\":3034:3058   */\n      tag_132\n      jump\t// in\n    tag_136:\n        /* \"#utility.yul\":3014:3059   */\n      tag_137\n      jump\t// in\n    tag_135:\n        /* \"#utility.yul\":3009:3012   */\n      dup3\n        /* \"#utility.yul\":3002:3060   */\n      mstore\n        /* \"#utility.yul\":2909:3066   */\n      pop\n      pop\n      jump\t// out\n        /* \"#utility.yul\":3072:3190   */\n    tag_138:\n        /* \"#utility.yul\":3159:3183   */\n      tag_140\n        /* \"#utility.yul\":3177:3182   */\n      dup2\n        /* \"#utility.yul\":3159:3183   */\n      tag_141\n      jump\t// in\n    tag_140:\n        /* \"#utility.yul\":3154:3157   */\n      dup3\n        /* \"#utility.yul\":3147:3184   */\n      mstore\n        /* \"#utility.yul\":3072:3190   */\n      pop\n      pop\n      jump\t// out\n        /* \"#utility.yul\":3196:3353   */\n    tag_142:\n        /* \"#utility.yul\":3301:3346   */\n      tag_144\n        /* \"#utility.yul\":3321:3345   */\n      tag_145\n        /* \"#utility.yul\":3339:3344   */\n      dup3\n        /* \"#utility.yul\":3321:3345   */\n      tag_141\n      jump\t// in\n    tag_145:\n        /* \"#utility.yul\":3301:3346   */\n      tag_146\n      jump\t// in\n    tag_144:\n        /* \"#utility.yul\":3296:3299   */\n      dup3\n        /* \"#utility.yul\":3289:3347   */\n      mstore\n        /* \"#utility.yul\":3196:3353   */\n      pop\n      pop\n      jump\t// out\n        /* \"#utility.yul\":3359:3719   */\n    tag_147:\n        /* \"#utility.yul\":3445:3448   */\n      0x00\n        /* \"#utility.yul\":3473:3511   */\n      tag_149\n        /* \"#utility.yul\":3505:3510   */\n      dup3\n        /* \"#utility.yul\":3473:3511   */\n      tag_150\n      jump\t// in\n    tag_149:\n        /* \"#utility.yul\":3527:3597   */\n      tag_151\n        /* \"#utility.yul\":3590:3596   */\n      dup2\n        /* \"#utility.yul\":3585:3588   */\n      dup6\n        /* \"#utility.yul\":3527:3597   */\n      tag_152\n      jump\t// in\n    tag_151:\n        /* \"#utility.yul\":3520:3597   */\n      swap4\n      pop\n        /* \"#utility.yul\":3606:3658   */\n      tag_153\n        /* \"#utility.yul\":3651:3657   */\n      dup2\n        /* \"#utility.yul\":3646:3649   */\n      dup6\n        /* \"#utility.yul\":3639:3643   */\n      0x20\n        /* \"#utility.yul\":3632:3637   */\n      dup7\n        /* \"#utility.yul\":3628:3644   */\n      add\n        /* \"#utility.yul\":3606:3658   */\n      tag_154\n      jump\t// in\n    tag_153:\n        /* \"#utility.yul\":3683:3712   */\n      tag_155\n        /* \"#utility.yul\":3705:3711   */\n      dup2\n        /* \"#utility.yul\":3683:3712   */\n      tag_156\n      jump\t// in\n    tag_155:\n        /* \"#utility.yul\":3678:3681   */\n      dup5\n        /* \"#utility.yul\":3674:3713   */\n      add\n        /* \"#utility.yul\":3667:3713   */\n      swap2\n      pop\n        /* \"#utility.yul\":3449:3719   */\n      pop\n        /* \"#utility.yul\":3359:3719   */\n      swap3\n      swap2\n      pop\n      pop\n      jump\t// out\n        /* \"#utility.yul\":3725:4098   */\n    tag_157:\n        /* \"#utility.yul\":3829:3832   */\n      0x00\n        /* \"#utility.yul\":3857:3895   */\n      tag_159\n        /* \"#utility.yul\":3889:3894   */\n      dup3\n        /* \"#utility.yul\":3857:3895   */\n      tag_150\n      jump\t// in\n    tag_159:\n        /* \"#utility.yul\":3911:3999   */\n      tag_160\n        /* \"#utility.yul\":3992:3998   */\n      dup2\n        /* \"#utility.yul\":3987:3990   */\n      dup6\n        /* \"#utility.yul\":3911:3999   */\n      tag_161\n      jump\t// in\n    tag_160:\n        /* \"#utility.yul\":3904:3999   */\n      swap4\n      pop\n        /* \"#utility.yul\":4008:4060   */\n      tag_162\n        /* \"#utility.yul\":4053:4059   */\n      dup2\n        /* \"#utility.yul\":4048:4051   */\n      dup6\n        /* \"#utility.yul\":4041:4045   */\n      0x20\n        /* \"#utility.yul\":4034:4039   */\n      dup7\n        /* \"#utility.yul\":4030:4046   */\n      add\n        /* \"#utility.yul\":4008:4060   */\n      tag_154\n      jump\t// in\n    tag_162:\n        /* \"#utility.yul\":4085:4091   */\n      dup1\n        /* \"#utility.yul\":4080:4083   */\n      dup5\n        /* \"#utility.yul\":4076:4092   */\n      add\n        /* \"#utility.yul\":4069:4092   */\n      swap2\n      pop\n        /* \"#utility.yul\":3833:4098   */\n      pop\n        /* \"#utility.yul\":3725:4098   */\n      swap3\n      swap2\n      pop\n      pop\n      jump\t// out\n        /* \"#utility.yul\":4104:4468   */\n    tag_163:\n        /* \"#utility.yul\":4192:4195   */\n      0x00\n        /* \"#utility.yul\":4220:4259   */\n      tag_165\n        /* \"#utility.yul\":4253:4258   */\n      dup3\n        /* \"#utility.yul\":4220:4259   */\n      tag_166\n      jump\t// in\n    tag_165:\n        /* \"#utility.yul\":4275:4346   */\n      tag_167\n        /* \"#utility.yul\":4339:4345   */\n      dup2\n        /* \"#utility.yul\":4334:4337   */\n      dup6\n        /* \"#utility.yul\":4275:4346   */\n      tag_168\n      jump\t// in\n    tag_167:\n        /* \"#utility.yul\":4268:4346   */\n      swap4\n      pop\n        /* \"#utility.yul\":4355:4407   */\n      tag_169\n        /* \"#utility.yul\":4400:4406   */\n      dup2\n        /* \"#utility.yul\":4395:4398   */\n      dup6\n        /* \"#utility.yul\":4388:4392   */\n      0x20\n        /* \"#utility.yul\":4381:4386   */\n      dup7\n        /* \"#utility.yul\":4377:4393   */\n      add\n        /* \"#utility.yul\":4355:4407   */\n      tag_154\n      jump\t// in\n    tag_169:\n        /* \"#utility.yul\":4432:4461   */\n      tag_170\n        /* \"#utility.yul\":4454:4460   */\n      dup2\n        /* \"#utility.yul\":4432:4461   */\n      tag_156\n      jump\t// in\n    tag_170:\n        /* \"#utility.yul\":4427:4430   */\n      dup5\n        /* \"#utility.yul\":4423:4462   */\n      add\n        /* \"#utility.yul\":4416:4462   */\n      swap2\n      pop\n        /* \"#utility.yul\":4196:4468   */\n      pop\n        /* \"#utility.yul\":4104:4468   */\n      swap3\n      swap2\n      pop\n      pop\n      jump\t// out\n        /* \"#utility.yul\":4474:4840   */\n    tag_171:\n        /* \"#utility.yul\":4616:4619   */\n      0x00\n        /* \"#utility.yul\":4637:4704   */\n      tag_173\n        /* \"#utility.yul\":4701:4703   */\n      0x1c\n        /* \"#utility.yul\":4696:4699   */\n      dup4\n        /* \"#utility.yul\":4637:4704   */\n      tag_168\n      jump\t// in\n    tag_173:\n        /* \"#utility.yul\":4630:4704   */\n      swap2\n      pop\n        /* \"#utility.yul\":4713:4806   */\n      tag_174\n        /* \"#utility.yul\":4802:4805   */\n      dup3\n        /* \"#utility.yul\":4713:4806   */\n      tag_175\n      jump\t// in\n    tag_174:\n        /* \"#utility.yul\":4831:4833   */\n      0x20\n        /* \"#utility.yul\":4826:4829   */\n      dup3\n        /* \"#utility.yul\":4822:4834   */\n      add\n        /* \"#utility.yul\":4815:4834   */\n      swap1\n      pop\n        /* \"#utility.yul\":4474:4840   */\n      swap2\n      swap1\n      pop\n      jump\t// out\n        /* \"#utility.yul\":4846:5246   */\n    tag_176:\n        /* \"#utility.yul\":5006:5009   */\n      0x00\n        /* \"#utility.yul\":5027:5111   */\n      tag_178\n        /* \"#utility.yul\":5109:5110   */\n      0x02\n        /* \"#utility.yul\":5104:5107   */\n      dup4\n        /* \"#utility.yul\":5027:5111   */\n      tag_179\n      jump\t// in\n    tag_178:\n        /* \"#utility.yul\":5020:5111   */\n      swap2\n      pop\n        /* \"#utility.yul\":5120:5213   */\n      tag_180\n        /* \"#utility.yul\":5209:5212   */\n      dup3\n        /* \"#utility.yul\":5120:5213   */\n      tag_181\n      jump\t// in\n    tag_180:\n        /* \"#utility.yul\":5238:5239   */\n      0x02\n        /* \"#utility.yul\":5233:5236   */\n      dup3\n        /* \"#utility.yul\":5229:5240   */\n      add\n        /* \"#utility.yul\":5222:5240   */\n      swap1\n      pop\n        /* \"#utility.yul\":4846:5246   */\n      swap2\n      swap1\n      pop\n      jump\t// out\n        /* \"#utility.yul\":5252:5618   */\n    tag_182:\n        /* \"#utility.yul\":5394:5397   */\n      0x00\n        /* \"#utility.yul\":5415:5482   */\n      tag_184\n        /* \"#utility.yul\":5479:5481   */\n      0x25\n        /* \"#utility.yul\":5474:5477   */\n      dup4\n        /* \"#utility.yul\":5415:5482   */\n      tag_168\n      jump\t// in\n    tag_184:\n        /* \"#utility.yul\":5408:5482   */\n      swap2\n      pop\n        /* \"#utility.yul\":5491:5584   */\n      tag_185\n        /* \"#utility.yul\":5580:5583   */\n      dup3\n        /* \"#utility.yul\":5491:5584   */\n      tag_186\n      jump\t// in\n    tag_185:\n        /* \"#utility.yul\":5609:5611   */\n      0x40\n        /* \"#utility.yul\":5604:5607   */\n      dup3\n        /* \"#utility.yul\":5600:5612   */\n      add\n        /* \"#utility.yul\":5593:5612   */\n      swap1\n      pop\n        /* \"#utility.yul\":5252:5618   */\n      swap2\n      swap1\n      pop\n      jump\t// out\n        /* \"#utility.yul\":5624:5990   */\n    tag_187:\n        /* \"#utility.yul\":5766:5769   */\n      0x00\n        /* \"#utility.yul\":5787:5854   */\n      tag_189\n        /* \"#utility.yul\":5851:5853   */\n      0x21\n        /* \"#utility.yul\":5846:5849   */\n      dup4\n        /* \"#utility.yul\":5787:5854   */\n      tag_168\n      jump\t// in\n    tag_189:\n        /* \"#utility.yul\":5780:5854   */\n      swap2\n      pop\n        /* \"#utility.yul\":5863:5956   */\n      tag_190\n        /* \"#utility.yul\":5952:5955   */\n      dup3\n        /* \"#utility.yul\":5863:5956   */\n      tag_191\n      jump\t// in\n    tag_190:\n        /* \"#utility.yul\":5981:5983   */\n      0x40\n        /* \"#utility.yul\":5976:5979   */\n      dup3\n        /* \"#utility.yul\":5972:5984   */\n      add\n        /* \"#utility.yul\":5965:5984   */\n      swap1\n      pop\n        /* \"#utility.yul\":5624:5990   */\n      swap2\n      swap1\n      pop\n      jump\t// out\n        /* \"#utility.yul\":5996:6114   */\n    tag_192:\n        /* \"#utility.yul\":6083:6107   */\n      tag_194\n        /* \"#utility.yul\":6101:6106   */\n      dup2\n        /* \"#utility.yul\":6083:6107   */\n      tag_195\n      jump\t// in\n    tag_194:\n        /* \"#utility.yul\":6078:6081   */\n      dup3\n        /* \"#utility.yul\":6071:6108   */\n      mstore\n        /* \"#utility.yul\":5996:6114   */\n      pop\n      pop\n      jump\t// out\n        /* \"#utility.yul\":6120:6232   */\n    tag_196:\n        /* \"#utility.yul\":6203:6225   */\n      tag_198\n        /* \"#utility.yul\":6219:6224   */\n      dup2\n        /* \"#utility.yul\":6203:6225   */\n      tag_199\n      jump\t// in\n    tag_198:\n        /* \"#utility.yul\":6198:6201   */\n      dup3\n        /* \"#utility.yul\":6191:6226   */\n      mstore\n        /* \"#utility.yul\":6120:6232   */\n      pop\n      pop\n      jump\t// out\n        /* \"#utility.yul\":6238:6509   */\n    tag_47:\n        /* \"#utility.yul\":6368:6371   */\n      0x00\n        /* \"#utility.yul\":6390:6483   */\n      tag_201\n        /* \"#utility.yul\":6479:6482   */\n      dup3\n        /* \"#utility.yul\":6470:6476   */\n      dup5\n        /* \"#utility.yul\":6390:6483   */\n      tag_157\n      jump\t// in\n    tag_201:\n        /* \"#utility.yul\":6383:6483   */\n      swap2\n      pop\n        /* \"#utility.yul\":6500:6503   */\n      dup2\n        /* \"#utility.yul\":6493:6503   */\n      swap1\n      pop\n        /* \"#utility.yul\":6238:6509   */\n      swap3\n      swap2\n      pop\n      pop\n      jump\t// out\n        /* \"#utility.yul\":6515:6927   */\n    tag_45:\n        /* \"#utility.yul\":6673:6676   */\n      0x00\n        /* \"#utility.yul\":6695:6788   */\n      tag_203\n        /* \"#utility.yul\":6784:6787   */\n      dup3\n        /* \"#utility.yul\":6775:6781   */\n      dup6\n        /* \"#utility.yul\":6695:6788   */\n      tag_157\n      jump\t// in\n    tag_203:\n        /* \"#utility.yul\":6688:6788   */\n      swap2\n      pop\n        /* \"#utility.yul\":6798:6873   */\n      tag_204\n        /* \"#utility.yul\":6869:6872   */\n      dup3\n        /* \"#utility.yul\":6860:6866   */\n      dup5\n        /* \"#utility.yul\":6798:6873   */\n      tag_133\n      jump\t// in\n    tag_204:\n        /* \"#utility.yul\":6898:6900   */\n      0x14\n        /* \"#utility.yul\":6893:6896   */\n      dup3\n        /* \"#utility.yul\":6889:6901   */\n      add\n        /* \"#utility.yul\":6882:6901   */\n      swap2\n      pop\n        /* \"#utility.yul\":6918:6921   */\n      dup2\n        /* \"#utility.yul\":6911:6921   */\n      swap1\n      pop\n        /* \"#utility.yul\":6515:6927   */\n      swap4\n      swap3\n      pop\n      pop\n      pop\n      jump\t// out\n        /* \"#utility.yul\":6933:7596   */\n    tag_78:\n        /* \"#utility.yul\":7174:7177   */\n      0x00\n        /* \"#utility.yul\":7196:7344   */\n      tag_206\n        /* \"#utility.yul\":7340:7343   */\n      dup3\n        /* \"#utility.yul\":7196:7344   */\n      tag_176\n      jump\t// in\n    tag_206:\n        /* \"#utility.yul\":7189:7344   */\n      swap2\n      pop\n        /* \"#utility.yul\":7354:7429   */\n      tag_207\n        /* \"#utility.yul\":7425:7428   */\n      dup3\n        /* \"#utility.yul\":7416:7422   */\n      dup6\n        /* \"#utility.yul\":7354:7429   */\n      tag_142\n      jump\t// in\n    tag_207:\n        /* \"#utility.yul\":7454:7456   */\n      0x20\n        /* \"#utility.yul\":7449:7452   */\n      dup3\n        /* \"#utility.yul\":7445:7457   */\n      add\n        /* \"#utility.yul\":7438:7457   */\n      swap2\n      pop\n        /* \"#utility.yul\":7467:7542   */\n      tag_208\n        /* \"#utility.yul\":7538:7541   */\n      dup3\n        /* \"#utility.yul\":7529:7535   */\n      dup5\n        /* \"#utility.yul\":7467:7542   */\n      tag_142\n      jump\t// in\n    tag_208:\n        /* \"#utility.yul\":7567:7569   */\n      0x20\n        /* \"#utility.yul\":7562:7565   */\n      dup3\n        /* \"#utility.yul\":7558:7570   */\n      add\n        /* \"#utility.yul\":7551:7570   */\n      swap2\n      pop\n        /* \"#utility.yul\":7587:7590   */\n      dup2\n        /* \"#utility.yul\":7580:7590   */\n      swap1\n      pop\n        /* \"#utility.yul\":6933:7596   */\n      swap4\n      swap3\n      pop\n      pop\n      pop\n      jump\t// out\n        /* \"#utility.yul\":7602:8163   */\n    tag_43:\n        /* \"#utility.yul\":7785:7789   */\n      0x00\n        /* \"#utility.yul\":7823:7825   */\n      0x60\n        /* \"#utility.yul\":7812:7821   */\n      dup3\n        /* \"#utility.yul\":7808:7826   */\n      add\n        /* \"#utility.yul\":7800:7826   */\n      swap1\n      pop\n        /* \"#utility.yul\":7836:7907   */\n      tag_210\n        /* \"#utility.yul\":7904:7905   */\n      0x00\n        /* \"#utility.yul\":7893:7902   */\n      dup4\n        /* \"#utility.yul\":7889:7906   */\n      add\n        /* \"#utility.yul\":7880:7886   */\n      dup7\n        /* \"#utility.yul\":7836:7907   */\n      tag_129\n      jump\t// in\n    tag_210:\n        /* \"#utility.yul\":7917:8005   */\n      tag_211\n        /* \"#utility.yul\":8001:8003   */\n      0x20\n        /* \"#utility.yul\":7990:7999   */\n      dup4\n        /* \"#utility.yul\":7986:8004   */\n      add\n        /* \"#utility.yul\":7977:7983   */\n      dup6\n        /* \"#utility.yul\":7917:8005   */\n      tag_125\n      jump\t// in\n    tag_211:\n        /* \"#utility.yul\":8052:8061   */\n      dup2\n        /* \"#utility.yul\":8046:8050   */\n      dup2\n        /* \"#utility.yul\":8042:8062   */\n      sub\n        /* \"#utility.yul\":8037:8039   */\n      0x40\n        /* \"#utility.yul\":8026:8035   */\n      dup4\n        /* \"#utility.yul\":8022:8040   */\n      add\n        /* \"#utility.yul\":8015:8063   */\n      mstore\n        /* \"#utility.yul\":8080:8156   */\n      tag_212\n        /* \"#utility.yul\":8151:8155   */\n      dup2\n        /* \"#utility.yul\":8142:8148   */\n      dup5\n        /* \"#utility.yul\":8080:8156   */\n      tag_147\n      jump\t// in\n    tag_212:\n        /* \"#utility.yul\":8072:8156   */\n      swap1\n      pop\n        /* \"#utility.yul\":7602:8163   */\n      swap5\n      swap4\n      pop\n      pop\n      pop\n      pop\n      jump\t// out\n        /* \"#utility.yul\":8169:8391   */\n    tag_22:\n        /* \"#utility.yul\":8262:8266   */\n      0x00\n        /* \"#utility.yul\":8300:8302   */\n      0x20\n        /* \"#utility.yul\":8289:8298   */\n      dup3\n        /* \"#utility.yul\":8285:8303   */\n      add\n        /* \"#utility.yul\":8277:8303   */\n      swap1\n      pop\n        /* \"#utility.yul\":8313:8384   */\n      tag_214\n        /* \"#utility.yul\":8381:8382   */\n      0x00\n        /* \"#utility.yul\":8370:8379   */\n      dup4\n        /* \"#utility.yul\":8366:8383   */\n      add\n        /* \"#utility.yul\":8357:8363   */\n      dup5\n        /* \"#utility.yul\":8313:8384   */\n      tag_138\n      jump\t// in\n    tag_214:\n        /* \"#utility.yul\":8169:8391   */\n      swap3\n      swap2\n      pop\n      pop\n      jump\t// out\n        /* \"#utility.yul\":8397:8950   */\n    tag_74:\n        /* \"#utility.yul\":8574:8578   */\n      0x00\n        /* \"#utility.yul\":8612:8615   */\n      0x80\n        /* \"#utility.yul\":8601:8610   */\n      dup3\n        /* \"#utility.yul\":8597:8616   */\n      add\n        /* \"#utility.yul\":8589:8616   */\n      swap1\n      pop\n        /* \"#utility.yul\":8626:8697   */\n      tag_216\n        /* \"#utility.yul\":8694:8695   */\n      0x00\n        /* \"#utility.yul\":8683:8692   */\n      dup4\n        /* \"#utility.yul\":8679:8696   */\n      add\n        /* \"#utility.yul\":8670:8676   */\n      dup8\n        /* \"#utility.yul\":8626:8697   */\n      tag_138\n      jump\t// in\n    tag_216:\n        /* \"#utility.yul\":8707:8779   */\n      tag_217\n        /* \"#utility.yul\":8775:8777   */\n      0x20\n        /* \"#utility.yul\":8764:8773   */\n      dup4\n        /* \"#utility.yul\":8760:8778   */\n      add\n        /* \"#utility.yul\":8751:8757   */\n      dup7\n        /* \"#utility.yul\":8707:8779   */\n      tag_192\n      jump\t// in\n    tag_217:\n        /* \"#utility.yul\":8789:8861   */\n      tag_218\n        /* \"#utility.yul\":8857:8859   */\n      0x40\n        /* \"#utility.yul\":8846:8855   */\n      dup4\n        /* \"#utility.yul\":8842:8860   */\n      add\n        /* \"#utility.yul\":8833:8839   */\n      dup6\n        /* \"#utility.yul\":8789:8861   */\n      tag_129\n      jump\t// in\n    tag_218:\n        /* \"#utility.yul\":8871:8943   */\n      tag_219\n        /* \"#utility.yul\":8939:8941   */\n      0x60\n        /* \"#utility.yul\":8928:8937   */\n      dup4\n        /* \"#utility.yul\":8924:8942   */\n      add\n        /* \"#utility.yul\":8915:8921   */\n      dup5\n        /* \"#utility.yul\":8871:8943   */\n      tag_138\n      jump\t// in\n    tag_219:\n        /* \"#utility.yul\":8397:8950   */\n      swap6\n      swap5\n      pop\n      pop\n      pop\n      pop\n      pop\n      jump\t// out\n        /* \"#utility.yul\":8956:9501   */\n    tag_66:\n        /* \"#utility.yul\":9129:9133   */\n      0x00\n        /* \"#utility.yul\":9167:9170   */\n      0x80\n        /* \"#utility.yul\":9156:9165   */\n      dup3\n        /* \"#utility.yul\":9152:9171   */\n      add\n        /* \"#utility.yul\":9144:9171   */\n      swap1\n      pop\n        /* \"#utility.yul\":9181:9252   */\n      tag_221\n        /* \"#utility.yul\":9249:9250   */\n      0x00\n        /* \"#utility.yul\":9238:9247   */\n      dup4\n        /* \"#utility.yul\":9234:9251   */\n      add\n        /* \"#utility.yul\":9225:9231   */\n      dup8\n        /* \"#utility.yul\":9181:9252   */\n      tag_138\n      jump\t// in\n    tag_221:\n        /* \"#utility.yul\":9262:9330   */\n      tag_222\n        /* \"#utility.yul\":9326:9328   */\n      0x20\n        /* \"#utility.yul\":9315:9324   */\n      dup4\n        /* \"#utility.yul\":9311:9329   */\n      add\n        /* \"#utility.yul\":9302:9308   */\n      dup7\n        /* \"#utility.yul\":9262:9330   */\n      tag_196\n      jump\t// in\n    tag_222:\n        /* \"#utility.yul\":9340:9412   */\n      tag_223\n        /* \"#utility.yul\":9408:9410   */\n      0x40\n        /* \"#utility.yul\":9397:9406   */\n      dup4\n        /* \"#utility.yul\":9393:9411   */\n      add\n        /* \"#utility.yul\":9384:9390   */\n      dup6\n        /* \"#utility.yul\":9340:9412   */\n      tag_138\n      jump\t// in\n    tag_223:\n        /* \"#utility.yul\":9422:9494   */\n      tag_224\n        /* \"#utility.yul\":9490:9492   */\n      0x60\n        /* \"#utility.yul\":9479:9488   */\n      dup4\n        /* \"#utility.yul\":9475:9493   */\n      add\n        /* \"#utility.yul\":9466:9472   */\n      dup5\n        /* \"#utility.yul\":9422:9494   */\n      tag_138\n      jump\t// in\n    tag_224:\n        /* \"#utility.yul\":8956:9501   */\n      swap6\n      swap5\n      pop\n      pop\n      pop\n      pop\n      pop\n      jump\t// out\n        /* \"#utility.yul\":9507:9816   */\n    tag_12:\n        /* \"#utility.yul\":9618:9622   */\n      0x00\n        /* \"#utility.yul\":9656:9658   */\n      0x20\n        /* \"#utility.yul\":9645:9654   */\n      dup3\n        /* \"#utility.yul\":9641:9659   */\n      add\n        /* \"#utility.yul\":9633:9659   */\n      swap1\n      pop\n        /* \"#utility.yul\":9705:9714   */\n      dup2\n        /* \"#utility.yul\":9699:9703   */\n      dup2\n        /* \"#utility.yul\":9695:9715   */\n      sub\n        /* \"#utility.yul\":9691:9692   */\n      0x00\n        /* \"#utility.yul\":9680:9689   */\n      dup4\n        /* \"#utility.yul\":9676:9693   */\n      add\n        /* \"#utility.yul\":9669:9716   */\n      mstore\n        /* \"#utility.yul\":9733:9809   */\n      tag_226\n        /* \"#utility.yul\":9804:9808   */\n      dup2\n        /* \"#utility.yul\":9795:9801   */\n      dup5\n        /* \"#utility.yul\":9733:9809   */\n      tag_147\n      jump\t// in\n    tag_226:\n        /* \"#utility.yul\":9725:9809   */\n      swap1\n      pop\n        /* \"#utility.yul\":9507:9816   */\n      swap3\n      swap2\n      pop\n      pop\n      jump\t// out\n        /* \"#utility.yul\":9822:10135   */\n    tag_17:\n        /* \"#utility.yul\":9935:9939   */\n      0x00\n        /* \"#utility.yul\":9973:9975   */\n      0x20\n        /* \"#utility.yul\":9962:9971   */\n      dup3\n        /* \"#utility.yul\":9958:9976   */\n      add\n        /* \"#utility.yul\":9950:9976   */\n      swap1\n      pop\n        /* \"#utility.yul\":10022:10031   */\n      dup2\n        /* \"#utility.yul\":10016:10020   */\n      dup2\n        /* \"#utility.yul\":10012:10032   */\n      sub\n        /* \"#utility.yul\":10008:10009   */\n      0x00\n        /* \"#utility.yul\":9997:10006   */\n      dup4\n        /* \"#utility.yul\":9993:10010   */\n      add\n        /* \"#utility.yul\":9986:10033   */\n      mstore\n        /* \"#utility.yul\":10050:10128   */\n      tag_228\n        /* \"#utility.yul\":10123:10127   */\n      dup2\n        /* \"#utility.yul\":10114:10120   */\n      dup5\n        /* \"#utility.yul\":10050:10128   */\n      tag_163\n      jump\t// in\n    tag_228:\n        /* \"#utility.yul\":10042:10128   */\n      swap1\n      pop\n        /* \"#utility.yul\":9822:10135   */\n      swap3\n      swap2\n      pop\n      pop\n      jump\t// out\n        /* \"#utility.yul\":10141:10560   */\n    tag_53:\n        /* \"#utility.yul\":10307:10311   */\n      0x00\n        /* \"#utility.yul\":10345:10347   */\n      0x20\n        /* \"#utility.yul\":10334:10343   */\n      dup3\n        /* \"#utility.yul\":10330:10348   */\n      add\n        /* \"#utility.yul\":10322:10348   */\n      swap1\n      pop\n        /* \"#utility.yul\":10394:10403   */\n      dup2\n        /* \"#utility.yul\":10388:10392   */\n      dup2\n        /* \"#utility.yul\":10384:10404   */\n      sub\n        /* \"#utility.yul\":10380:10381   */\n      0x00\n        /* \"#utility.yul\":10369:10378   */\n      dup4\n        /* \"#utility.yul\":10365:10382   */\n      add\n        /* \"#utility.yul\":10358:10405   */\n      mstore\n        /* \"#utility.yul\":10422:10553   */\n      tag_230\n        /* \"#utility.yul\":10548:10552   */\n      dup2\n        /* \"#utility.yul\":10422:10553   */\n      tag_171\n      jump\t// in\n    tag_230:\n        /* \"#utility.yul\":10414:10553   */\n      swap1\n      pop\n        /* \"#utility.yul\":10141:10560   */\n      swap2\n      swap1\n      pop\n      jump\t// out\n        /* \"#utility.yul\":10566:10985   */\n    tag_60:\n        /* \"#utility.yul\":10732:10736   */\n      0x00\n        /* \"#utility.yul\":10770:10772   */\n      0x20\n        /* \"#utility.yul\":10759:10768   */\n      dup3\n        /* \"#utility.yul\":10755:10773   */\n      add\n        /* \"#utility.yul\":10747:10773   */\n      swap1\n      pop\n        /* \"#utility.yul\":10819:10828   */\n      dup2\n        /* \"#utility.yul\":10813:10817   */\n      dup2\n        /* \"#utility.yul\":10809:10829   */\n      sub\n        /* \"#utility.yul\":10805:10806   */\n      0x00\n        /* \"#utility.yul\":10794:10803   */\n      dup4\n        /* \"#utility.yul\":10790:10807   */\n      add\n        /* \"#utility.yul\":10783:10830   */\n      mstore\n        /* \"#utility.yul\":10847:10978   */\n      tag_232\n        /* \"#utility.yul\":10973:10977   */\n      dup2\n        /* \"#utility.yul\":10847:10978   */\n      tag_182\n      jump\t// in\n    tag_232:\n        /* \"#utility.yul\":10839:10978   */\n      swap1\n      pop\n        /* \"#utility.yul\":10566:10985   */\n      swap2\n      swap1\n      pop\n      jump\t// out\n        /* \"#utility.yul\":10991:11410   */\n    tag_39:\n        /* \"#utility.yul\":11157:11161   */\n      0x00\n        /* \"#utility.yul\":11195:11197   */\n      0x20\n        /* \"#utility.yul\":11184:11193   */\n      dup3\n        /* \"#utility.yul\":11180:11198   */\n      add\n        /* \"#utility.yul\":11172:11198   */\n      swap1\n      pop\n        /* \"#utility.yul\":11244:11253   */\n      dup2\n        /* \"#utility.yul\":11238:11242   */\n      dup2\n        /* \"#utility.yul\":11234:11254   */\n      sub\n        /* \"#utility.yul\":11230:11231   */\n      0x00\n        /* \"#utility.yul\":11219:11228   */\n      dup4\n        /* \"#utility.yul\":11215:11232   */\n      add\n        /* \"#utility.yul\":11208:11255   */\n      mstore\n        /* \"#utility.yul\":11272:11403   */\n      tag_234\n        /* \"#utility.yul\":11398:11402   */\n      dup2\n        /* \"#utility.yul\":11272:11403   */\n      tag_187\n      jump\t// in\n    tag_234:\n        /* \"#utility.yul\":11264:11403   */\n      swap1\n      pop\n        /* \"#utility.yul\":10991:11410   */\n      swap2\n      swap1\n      pop\n      jump\t// out\n        /* \"#utility.yul\":11416:11638   */\n    tag_29:\n        /* \"#utility.yul\":11509:11513   */\n      0x00\n        /* \"#utility.yul\":11547:11549   */\n      0x20\n        /* \"#utility.yul\":11536:11545   */\n      dup3\n        /* \"#utility.yul\":11532:11550   */\n      add\n        /* \"#utility.yul\":11524:11550   */\n      swap1\n      pop\n        /* \"#utility.yul\":11560:11631   */\n      tag_236\n        /* \"#utility.yul\":11628:11629   */\n      0x00\n        /* \"#utility.yul\":11617:11626   */\n      dup4\n        /* \"#utility.yul\":11613:11630   */\n      add\n        /* \"#utility.yul\":11604:11610   */\n      dup5\n        /* \"#utility.yul\":11560:11631   */\n      tag_192\n      jump\t// in\n    tag_236:\n        /* \"#utility.yul\":11416:11638   */\n      swap3\n      swap2\n      pop\n      pop\n      jump\t// out\n        /* \"#utility.yul\":11644:11773   */\n    tag_85:\n        /* \"#utility.yul\":11678:11684   */\n      0x00\n        /* \"#utility.yul\":11705:11725   */\n      tag_238\n      tag_239\n      jump\t// in\n    tag_238:\n        /* \"#utility.yul\":11695:11725   */\n      swap1\n      pop\n        /* \"#utility.yul\":11734:11767   */\n      tag_240\n        /* \"#utility.yul\":11762:11766   */\n      dup3\n        /* \"#utility.yul\":11754:11760   */\n      dup3\n        /* \"#utility.yul\":11734:11767   */\n      tag_241\n      jump\t// in\n    tag_240:\n        /* \"#utility.yul\":11644:11773   */\n      swap2\n      swap1\n      pop\n      jump\t// out\n        /* \"#utility.yul\":11779:11854   */\n    tag_239:\n        /* \"#utility.yul\":11812:11818   */\n      0x00\n        /* \"#utility.yul\":11845:11847   */\n      0x40\n        /* \"#utility.yul\":11839:11848   */\n      mload\n        /* \"#utility.yul\":11829:11848   */\n      swap1\n      pop\n        /* \"#utility.yul\":11779:11854   */\n      swap1\n      jump\t// out\n        /* \"#utility.yul\":11860:12167   */\n    tag_84:\n        /* \"#utility.yul\":11921:11925   */\n      0x00\n        /* \"#utility.yul\":12011:12029   */\n      0xffffffffffffffff\n        /* \"#utility.yul\":12003:12009   */\n      dup3\n        /* \"#utility.yul\":12000:12030   */\n      gt\n        /* \"#utility.yul\":11997:12053   */\n      iszero\n      tag_244\n      jumpi\n        /* \"#utility.yul\":12033:12051   */\n      tag_245\n      tag_246\n      jump\t// in\n    tag_245:\n        /* \"#utility.yul\":11997:12053   */\n    tag_244:\n        /* \"#utility.yul\":12071:12100   */\n      tag_247\n        /* \"#utility.yul\":12093:12099   */\n      dup3\n        /* \"#utility.yul\":12071:12100   */\n      tag_156\n      jump\t// in\n    tag_247:\n        /* \"#utility.yul\":12063:12100   */\n      swap1\n      pop\n        /* \"#utility.yul\":12155:12159   */\n      0x20\n        /* \"#utility.yul\":12149:12153   */\n      dup2\n        /* \"#utility.yul\":12145:12160   */\n      add\n        /* \"#utility.yul\":12137:12160   */\n      swap1\n      pop\n        /* \"#utility.yul\":11860:12167   */\n      swap2\n      swap1\n      pop\n      jump\t// out\n        /* \"#utility.yul\":12173:12271   */\n    tag_150:\n        /* \"#utility.yul\":12224:12230   */\n      0x00\n        /* \"#utility.yul\":12258:12263   */\n      dup2\n        /* \"#utility.yul\":12252:12264   */\n      mload\n        /* \"#utility.yul\":12242:12264   */\n      swap1\n      pop\n        /* \"#utility.yul\":12173:12271   */\n      swap2\n      swap1\n      pop\n      jump\t// out\n        /* \"#utility.yul\":12277:12376   */\n    tag_166:\n        /* \"#utility.yul\":12329:12335   */\n      0x00\n        /* \"#utility.yul\":12363:12368   */\n      dup2\n        /* \"#utility.yul\":12357:12369   */\n      mload\n        /* \"#utility.yul\":12347:12369   */\n      swap1\n      pop\n        /* \"#utility.yul\":12277:12376   */\n      swap2\n      swap1\n      pop\n      jump\t// out\n        /* \"#utility.yul\":12382:12550   */\n    tag_152:\n        /* \"#utility.yul\":12465:12476   */\n      0x00\n        /* \"#utility.yul\":12499:12505   */\n      dup3\n        /* \"#utility.yul\":12494:12497   */\n      dup3\n        /* \"#utility.yul\":12487:12506   */\n      mstore\n        /* \"#utility.yul\":12539:12543   */\n      0x20\n        /* \"#utility.yul\":12534:12537   */\n      dup3\n        /* \"#utility.yul\":12530:12544   */\n      add\n        /* \"#utility.yul\":12515:12544   */\n      swap1\n      pop\n        /* \"#utility.yul\":12382:12550   */\n      swap3\n      swap2\n      pop\n      pop\n      jump\t// out\n        /* \"#utility.yul\":12556:12703   */\n    tag_161:\n        /* \"#utility.yul\":12657:12668   */\n      0x00\n        /* \"#utility.yul\":12694:12697   */\n      dup2\n        /* \"#utility.yul\":12679:12697   */\n      swap1\n      pop\n        /* \"#utility.yul\":12556:12703   */\n      swap3\n      swap2\n      pop\n      pop\n      jump\t// out\n        /* \"#utility.yul\":12709:12878   */\n    tag_168:\n        /* \"#utility.yul\":12793:12804   */\n      0x00\n        /* \"#utility.yul\":12827:12833   */\n      dup3\n        /* \"#utility.yul\":12822:12825   */\n      dup3\n        /* \"#utility.yul\":12815:12834   */\n      mstore\n        /* \"#utility.yul\":12867:12871   */\n      0x20\n        /* \"#utility.yul\":12862:12865   */\n      dup3\n        /* \"#utility.yul\":12858:12872   */\n      add\n        /* \"#utility.yul\":12843:12872   */\n      swap1\n      pop\n        /* \"#utility.yul\":12709:12878   */\n      swap3\n      swap2\n      pop\n      pop\n      jump\t// out\n        /* \"#utility.yul\":12884:13032   */\n    tag_179:\n        /* \"#utility.yul\":12986:12997   */\n      0x00\n        /* \"#utility.yul\":13023:13026   */\n      dup2\n        /* \"#utility.yul\":13008:13026   */\n      swap1\n      pop\n        /* \"#utility.yul\":12884:13032   */\n      swap3\n      swap2\n      pop\n      pop\n      jump\t// out\n        /* \"#utility.yul\":13038:13343   */\n    tag_71:\n        /* \"#utility.yul\":13078:13081   */\n      0x00\n        /* \"#utility.yul\":13097:13117   */\n      tag_255\n        /* \"#utility.yul\":13115:13116   */\n      dup3\n        /* \"#utility.yul\":13097:13117   */\n      tag_195\n      jump\t// in\n    tag_255:\n        /* \"#utility.yul\":13092:13117   */\n      swap2\n      pop\n        /* \"#utility.yul\":13131:13151   */\n      tag_256\n        /* \"#utility.yul\":13149:13150   */\n      dup4\n        /* \"#utility.yul\":13131:13151   */\n      tag_195\n      jump\t// in\n    tag_256:\n        /* \"#utility.yul\":13126:13151   */\n      swap3\n      pop\n        /* \"#utility.yul\":13285:13286   */\n      dup3\n        /* \"#utility.yul\":13217:13283   */\n      0xffffffffffffffffffffffffffffffffffffffffffffffffffffffffffffffff\n        /* \"#utility.yul\":13213:13287   */\n      sub\n        /* \"#utility.yul\":13210:13211   */\n      dup3\n        /* \"#utility.yul\":13207:13288   */\n      gt\n        /* \"#utility.yul\":13204:13311   */\n      iszero\n      tag_257\n      jumpi\n        /* \"#utility.yul\":13291:13309   */\n      tag_258\n      tag_259\n      jump\t// in\n    tag_258:\n        /* \"#utility.yul\":13204:13311   */\n    tag_257:\n        /* \"#utility.yul\":13335:13336   */\n      dup3\n        /* \"#utility.yul\":13332:13333   */\n      dup3\n        /* \"#utility.yul\":13328:13337   */\n      add\n        /* \"#utility.yul\":13321:13337   */\n      swap1\n      pop\n        /* \"#utility.yul\":13038:13343   */\n      swap3\n      swap2\n      pop\n      pop\n      jump\t// out\n        /* \"#utility.yul\":13349:13445   */\n    tag_132:\n        /* \"#utility.yul\":13386:13393   */\n      0x00\n        /* \"#utility.yul\":13415:13439   */\n      tag_261\n        /* \"#utility.yul\":13433:13438   */\n      dup3\n        /* \"#utility.yul\":13415:13439   */\n      tag_262\n      jump\t// in\n    tag_261:\n        /* \"#utility.yul\":13404:13439   */\n      swap1\n      pop\n        /* \"#utility.yul\":13349:13445   */\n      swap2\n      swap1\n      pop\n      jump\t// out\n        /* \"#utility.yul\":13451:13555   */\n    tag_128:\n        /* \"#utility.yul\":13496:13503   */\n      0x00\n        /* \"#utility.yul\":13525:13549   */\n      tag_264\n        /* \"#utility.yul\":13543:13548   */\n      dup3\n        /* \"#utility.yul\":13525:13549   */\n      tag_262\n      jump\t// in\n    tag_264:\n        /* \"#utility.yul\":13514:13549   */\n      swap1\n      pop\n        /* \"#utility.yul\":13451:13555   */\n      swap2\n      swap1\n      pop\n      jump\t// out\n        /* \"#utility.yul\":13561:13638   */\n    tag_141:\n        /* \"#utility.yul\":13598:13605   */\n      0x00\n        /* \"#utility.yul\":13627:13632   */\n      dup2\n        /* \"#utility.yul\":13616:13632   */\n      swap1\n      pop\n        /* \"#utility.yul\":13561:13638   */\n      swap2\n      swap1\n      pop\n      jump\t// out\n        /* \"#utility.yul\":13644:13770   */\n    tag_262:\n        /* \"#utility.yul\":13681:13688   */\n      0x00\n        /* \"#utility.yul\":13721:13763   */\n      0xffffffffffffffffffffffffffffffffffffffff\n        /* \"#utility.yul\":13714:13719   */\n      dup3\n        /* \"#utility.yul\":13710:13764   */\n      and\n        /* \"#utility.yul\":13699:13764   */\n      swap1\n      pop\n        /* \"#utility.yul\":13644:13770   */\n      swap2\n      swap1\n      pop\n      jump\t// out\n        /* \"#utility.yul\":13776:13853   */\n    tag_195:\n        /* \"#utility.yul\":13813:13820   */\n      0x00\n        /* \"#utility.yul\":13842:13847   */\n      dup2\n        /* \"#utility.yul\":13831:13847   */\n      swap1\n      pop\n        /* \"#utility.yul\":13776:13853   */\n      swap2\n      swap1\n      pop\n      jump\t// out\n        /* \"#utility.yul\":13859:13945   */\n    tag_199:\n        /* \"#utility.yul\":13894:13901   */\n      0x00\n        /* \"#utility.yul\":13934:13938   */\n      0xff\n        /* \"#utility.yul\":13927:13932   */\n      dup3\n        /* \"#utility.yul\":13923:13939   */\n      and\n        /* \"#utility.yul\":13912:13939   */\n      swap1\n      pop\n        /* \"#utility.yul\":13859:13945   */\n      swap2\n      swap1\n      pop\n      jump\t// out\n        /* \"#utility.yul\":13951:14105   */\n    tag_90:\n        /* \"#utility.yul\":14035:14041   */\n      dup3\n        /* \"#utility.yul\":14030:14033   */\n      dup2\n        /* \"#utility.yul\":14025:14028   */\n      dup4\n        /* \"#utility.yul\":14012:14042   */\n      calldatacopy\n        /* \"#utility.yul\":14097:14098   */\n      0x00\n        /* \"#utility.yul\":14088:14094   */\n      dup4\n        /* \"#utility.yul\":14083:14086   */\n      dup4\n        /* \"#utility.yul\":14079:14095   */\n      add\n        /* \"#utility.yul\":14072:14099   */\n      mstore\n        /* \"#utility.yul\":13951:14105   */\n      pop\n      pop\n      pop\n      jump\t// out\n        /* \"#utility.yul\":14111:14418   */\n    tag_154:\n        /* \"#utility.yul\":14179:14180   */\n      0x00\n        /* \"#utility.yul\":14189:14302   */\n    tag_271:\n        /* \"#utility.yul\":14203:14209   */\n      dup4\n        /* \"#utility.yul\":14200:14201   */\n      dup2\n        /* \"#utility.yul\":14197:14210   */\n      lt\n        /* \"#utility.yul\":14189:14302   */\n      iszero\n      tag_273\n      jumpi\n        /* \"#utility.yul\":14288:14289   */\n      dup1\n        /* \"#utility.yul\":14283:14286   */\n      dup3\n        /* \"#utility.yul\":14279:14290   */\n      add\n        /* \"#utility.yul\":14273:14291   */\n      mload\n        /* \"#utility.yul\":14269:14270   */\n      dup2\n        /* \"#utility.yul\":14264:14267   */\n      dup5\n        /* \"#utility.yul\":14260:14271   */\n      add\n        /* \"#utility.yul\":14253:14292   */\n      mstore\n        /* \"#utility.yul\":14225:14227   */\n      0x20\n        /* \"#utility.yul\":14222:14223   */\n      dup2\n        /* \"#utility.yul\":14218:14228   */\n      add\n        /* \"#utility.yul\":14213:14228   */\n      swap1\n      pop\n        /* \"#utility.yul\":14189:14302   */\n      jump(tag_271)\n    tag_273:\n        /* \"#utility.yul\":14320:14326   */\n      dup4\n        /* \"#utility.yul\":14317:14318   */\n      dup2\n        /* \"#utility.yul\":14314:14327   */\n      gt\n        /* \"#utility.yul\":14311:14412   */\n      iszero\n      tag_274\n      jumpi\n        /* \"#utility.yul\":14400:14401   */\n      0x00\n        /* \"#utility.yul\":14391:14397   */\n      dup5\n        /* \"#utility.yul\":14386:14389   */\n      dup5\n        /* \"#utility.yul\":14382:14398   */\n      add\n        /* \"#utility.yul\":14375:14402   */\n      mstore\n        /* \"#utility.yul\":14311:14412   */\n    tag_274:\n        /* \"#utility.yul\":14160:14418   */\n      pop\n        /* \"#utility.yul\":14111:14418   */\n      pop\n      pop\n      pop\n      jump\t// out\n        /* \"#utility.yul\":14424:14705   */\n    tag_241:\n        /* \"#utility.yul\":14507:14534   */\n      tag_276\n        /* \"#utility.yul\":14529:14533   */\n      dup3\n        /* \"#utility.yul\":14507:14534   */\n      tag_156\n      jump\t// in\n    tag_276:\n        /* \"#utility.yul\":14499:14505   */\n      dup2\n        /* \"#utility.yul\":14495:14535   */\n      add\n        /* \"#utility.yul\":14637:14643   */\n      dup2\n        /* \"#utility.yul\":14625:14635   */\n      dup2\n        /* \"#utility.yul\":14622:14644   */\n      lt\n        /* \"#utility.yul\":14601:14619   */\n      0xffffffffffffffff\n        /* \"#utility.yul\":14589:14599   */\n      dup3\n        /* \"#utility.yul\":14586:14620   */\n      gt\n        /* \"#utility.yul\":14583:14645   */\n      or\n        /* \"#utility.yul\":14580:14668   */\n      iszero\n      tag_277\n      jumpi\n        /* \"#utility.yul\":14648:14666   */\n      tag_278\n      tag_246\n      jump\t// in\n    tag_278:\n        /* \"#utility.yul\":14580:14668   */\n    tag_277:\n        /* \"#utility.yul\":14688:14698   */\n      dup1\n        /* \"#utility.yul\":14684:14686   */\n      0x40\n        /* \"#utility.yul\":14677:14699   */\n      mstore\n        /* \"#utility.yul\":14467:14705   */\n      pop\n        /* \"#utility.yul\":14424:14705   */\n      pop\n      pop\n      jump\t// out\n        /* \"#utility.yul\":14711:14811   */\n    tag_137:\n        /* \"#utility.yul\":14750:14757   */\n      0x00\n        /* \"#utility.yul\":14779:14805   */\n      tag_280\n        /* \"#utility.yul\":14799:14804   */\n      dup3\n        /* \"#utility.yul\":14779:14805   */\n      tag_281\n      jump\t// in\n    tag_280:\n        /* \"#utility.yul\":14768:14805   */\n      swap1\n      pop\n        /* \"#utility.yul\":14711:14811   */\n      swap2\n      swap1\n      pop\n      jump\t// out\n        /* \"#utility.yul\":14817:14896   */\n    tag_146:\n        /* \"#utility.yul\":14856:14863   */\n      0x00\n        /* \"#utility.yul\":14885:14890   */\n      dup2\n        /* \"#utility.yul\":14874:14890   */\n      swap1\n      pop\n        /* \"#utility.yul\":14817:14896   */\n      swap2\n      swap1\n      pop\n      jump\t// out\n        /* \"#utility.yul\":14902:14996   */\n    tag_281:\n        /* \"#utility.yul\":14941:14948   */\n      0x00\n        /* \"#utility.yul\":14970:14990   */\n      tag_284\n        /* \"#utility.yul\":14984:14989   */\n      dup3\n        /* \"#utility.yul\":14970:14990   */\n      tag_285\n      jump\t// in\n    tag_284:\n        /* \"#utility.yul\":14959:14990   */\n      swap1\n      pop\n        /* \"#utility.yul\":14902:14996   */\n      swap2\n      swap1\n      pop\n      jump\t// out\n        /* \"#utility.yul\":15002:15182   */\n    tag_259:\n        /* \"#utility.yul\":15050:15127   */\n      0x4e487b7100000000000000000000000000000000000000000000000000000000\n        /* \"#utility.yul\":15047:15048   */\n      0x00\n        /* \"#utility.yul\":15040:15128   */\n      mstore\n        /* \"#utility.yul\":15147:15151   */\n      0x11\n        /* \"#utility.yul\":15144:15145   */\n      0x04\n        /* \"#utility.yul\":15137:15152   */\n      mstore\n        /* \"#utility.yul\":15171:15175   */\n      0x24\n        /* \"#utility.yul\":15168:15169   */\n      0x00\n        /* \"#utility.yul\":15161:15176   */\n      revert\n        /* \"#utility.yul\":15188:15368   */\n    tag_246:\n        /* \"#utility.yul\":15236:15313   */\n      0x4e487b7100000000000000000000000000000000000000000000000000000000\n        /* \"#utility.yul\":15233:15234   */\n      0x00\n        /* \"#utility.yul\":15226:15314   */\n      mstore\n        /* \"#utility.yul\":15333:15337   */\n      0x41\n        /* \"#utility.yul\":15330:15331   */\n      0x04\n        /* \"#utility.yul\":15323:15338   */\n      mstore\n        /* \"#utility.yul\":15357:15361   */\n      0x24\n        /* \"#utility.yul\":15354:15355   */\n      0x00\n        /* \"#utility.yul\":15347:15362   */\n      revert\n        /* \"#utility.yul\":15374:15491   */\n    tag_103:\n        /* \"#utility.yul\":15483:15484   */\n      0x00\n        /* \"#utility.yul\":15480:15481   */\n      dup1\n        /* \"#utility.yul\":15473:15485   */\n      revert\n        /* \"#utility.yul\":15497:15614   */\n    tag_88:\n        /* \"#utility.yul\":15606:15607   */\n      0x00\n        /* \"#utility.yul\":15603:15604   */\n      dup1\n        /* \"#utility.yul\":15596:15608   */\n      revert\n        /* \"#utility.yul\":15620:15737   */\n    tag_120:\n        /* \"#utility.yul\":15729:15730   */\n      0x00\n        /* \"#utility.yul\":15726:15727   */\n      dup1\n        /* \"#utility.yul\":15719:15731   */\n      revert\n        /* \"#utility.yul\":15743:15860   */\n    tag_112:\n        /* \"#utility.yul\":15852:15853   */\n      0x00\n        /* \"#utility.yul\":15849:15850   */\n      dup1\n        /* \"#utility.yul\":15842:15854   */\n      revert\n        /* \"#utility.yul\":15866:15968   */\n    tag_156:\n        /* \"#utility.yul\":15907:15913   */\n      0x00\n        /* \"#utility.yul\":15958:15960   */\n      0x1f\n        /* \"#utility.yul\":15954:15961   */\n      not\n        /* \"#utility.yul\":15949:15951   */\n      0x1f\n        /* \"#utility.yul\":15942:15947   */\n      dup4\n        /* \"#utility.yul\":15938:15952   */\n      add\n        /* \"#utility.yul\":15934:15962   */\n      and\n        /* \"#utility.yul\":15924:15962   */\n      swap1\n      pop\n        /* \"#utility.yul\":15866:15968   */\n      swap2\n      swap1\n      pop\n      jump\t// out\n        /* \"#utility.yul\":15974:16068   */\n    tag_285:\n        /* \"#utility.yul\":16007:16015   */\n      0x00\n        /* \"#utility.yul\":16055:16060   */\n      dup2\n        /* \"#utility.yul\":16051:16053   */\n      0x60\n        /* \"#utility.yul\":16047:16061   */\n      shl\n        /* \"#utility.yul\":16026:16061   */\n      swap1\n      pop\n        /* \"#utility.yul\":15974:16068   */\n      swap2\n      swap1\n      pop\n      jump\t// out\n        /* \"#utility.yul\":16074:16252   */\n    tag_175:\n        /* \"#utility.yul\":16214:16244   */\n      0x46756e6374696f6e2063616c6c206e6f74207375636365737366756c00000000\n        /* \"#utility.yul\":16210:16211   */\n      0x00\n        /* \"#utility.yul\":16202:16208   */\n      dup3\n        /* \"#utility.yul\":16198:16212   */\n      add\n        /* \"#utility.yul\":16191:16245   */\n      mstore\n        /* \"#utility.yul\":16074:16252   */\n      pop\n      jump\t// out\n        /* \"#utility.yul\":16258:16472   */\n    tag_181:\n        /* \"#utility.yul\":16398:16464   */\n      0x1901000000000000000000000000000000000000000000000000000000000000\n        /* \"#utility.yul\":16394:16395   */\n      0x00\n        /* \"#utility.yul\":16386:16392   */\n      dup3\n        /* \"#utility.yul\":16382:16396   */\n      add\n        /* \"#utility.yul\":16375:16465   */\n      mstore\n        /* \"#utility.yul\":16258:16472   */\n      pop\n      jump\t// out\n        /* \"#utility.yul\":16478:16702   */\n    tag_186:\n        /* \"#utility.yul\":16618:16652   */\n      0x4e61746976654d6574615472616e73616374696f6e3a20494e56414c49445f53\n        /* \"#utility.yul\":16614:16615   */\n      0x00\n        /* \"#utility.yul\":16606:16612   */\n      dup3\n        /* \"#utility.yul\":16602:16616   */\n      add\n        /* \"#utility.yul\":16595:16653   */\n      mstore\n        /* \"#utility.yul\":16687:16694   */\n      0x49474e4552000000000000000000000000000000000000000000000000000000\n        /* \"#utility.yul\":16682:16684   */\n      0x20\n        /* \"#utility.yul\":16674:16680   */\n      dup3\n        /* \"#utility.yul\":16670:16685   */\n      add\n        /* \"#utility.yul\":16663:16695   */\n      mstore\n        /* \"#utility.yul\":16478:16702   */\n      pop\n      jump\t// out\n        /* \"#utility.yul\":16708:16928   */\n    tag_191:\n        /* \"#utility.yul\":16848:16882   */\n      0x5369676e657220616e64207369676e617475726520646f206e6f74206d617463\n        /* \"#utility.yul\":16844:16845   */\n      0x00\n        /* \"#utility.yul\":16836:16842   */\n      dup3\n        /* \"#utility.yul\":16832:16846   */\n      add\n        /* \"#utility.yul\":16825:16883   */\n      mstore\n        /* \"#utility.yul\":16917:16920   */\n      0x6800000000000000000000000000000000000000000000000000000000000000\n        /* \"#utility.yul\":16912:16914   */\n      0x20\n        /* \"#utility.yul\":16904:16910   */\n      dup3\n        /* \"#utility.yul\":16900:16915   */\n      add\n        /* \"#utility.yul\":16893:16921   */\n      mstore\n        /* \"#utility.yul\":16708:16928   */\n      pop\n      jump\t// out\n        /* \"#utility.yul\":16934:17056   */\n    tag_94:\n        /* \"#utility.yul\":17007:17031   */\n      tag_299\n        /* \"#utility.yul\":17025:17030   */\n      dup2\n        /* \"#utility.yul\":17007:17031   */\n      tag_132\n      jump\t// in\n    tag_299:\n        /* \"#utility.yul\":17000:17005   */\n      dup2\n        /* \"#utility.yul\":16997:17032   */\n      eq\n        /* \"#utility.yul\":16987:17050   */\n      tag_300\n      jumpi\n        /* \"#utility.yul\":17046:17047   */\n      0x00\n        /* \"#utility.yul\":17043:17044   */\n      dup1\n        /* \"#utility.yul\":17036:17048   */\n      revert\n        /* \"#utility.yul\":16987:17050   */\n    tag_300:\n        /* \"#utility.yul\":16934:17056   */\n      pop\n      jump\t// out\n        /* \"#utility.yul\":17062:17184   */\n    tag_98:\n        /* \"#utility.yul\":17135:17159   */\n      tag_302\n        /* \"#utility.yul\":17153:17158   */\n      dup2\n        /* \"#utility.yul\":17135:17159   */\n      tag_141\n      jump\t// in\n    tag_302:\n        /* \"#utility.yul\":17128:17133   */\n      dup2\n        /* \"#utility.yul\":17125:17160   */\n      eq\n        /* \"#utility.yul\":17115:17178   */\n      tag_303\n      jumpi\n        /* \"#utility.yul\":17174:17175   */\n      0x00\n        /* \"#utility.yul\":17171:17172   */\n      dup1\n        /* \"#utility.yul\":17164:17176   */\n      revert\n        /* \"#utility.yul\":17115:17178   */\n    tag_303:\n        /* \"#utility.yul\":17062:17184   */\n      pop\n      jump\t// out\n        /* \"#utility.yul\":17190:17308   */\n    tag_108:\n        /* \"#utility.yul\":17261:17283   */\n      tag_305\n        /* \"#utility.yul\":17277:17282   */\n      dup2\n        /* \"#utility.yul\":17261:17283   */\n      tag_199\n      jump\t// in\n    tag_305:\n        /* \"#utility.yul\":17254:17259   */\n      dup2\n        /* \"#utility.yul\":17251:17284   */\n      eq\n        /* \"#utility.yul\":17241:17302   */\n      tag_306\n      jumpi\n        /* \"#utility.yul\":17298:17299   */\n      0x00\n        /* \"#utility.yul\":17295:17296   */\n      dup1\n        /* \"#utility.yul\":17288:17300   */\n      revert\n        /* \"#utility.yul\":17241:17302   */\n    tag_306:\n        /* \"#utility.yul\":17190:17308   */\n      pop\n      jump\t// out\n    stop\n    data_23d10def3caacba2e4042e0c75d44a42d2558aabcf5ce951d0642a8032e1e653 4d6574615472616e73616374696f6e2875696e74323536206e6f6e63652c616464726573732066726f6d2c62797465732066756e6374696f6e5369676e617475726529\n\n    auxdata: 0xa26469706673582212200e43ccfed7471b9fd0270f088378fc80ac51cf4950b085debbe21e46ec34299f64736f6c63430008070033\n}\n",
				"bytecode": {
					"linkReferences": {},
					"object": "608060405260008060006101000a81548160ff02191690831515021790555034801561002a57600080fd5b50610f798061003a6000396000f3fe60806040526004361061004a5760003560e01c80630c53c51c1461004f5780630f7e59701461007f57806320379ee5146100aa5780632d0335ab146100d55780633408e47014610112575b600080fd5b610069600480360381019061006491906106e4565b61013d565b6040516100769190610a7c565b60405180910390f35b34801561008b57600080fd5b506100946103af565b6040516100a19190610a9e565b60405180910390f35b3480156100b657600080fd5b506100bf6103e8565b6040516100cc91906109d7565b60405180910390f35b3480156100e157600080fd5b506100fc60048036038101906100f791906106b7565b6103f2565b6040516101099190610b20565b60405180910390f35b34801561011e57600080fd5b5061012761043b565b6040516101349190610b20565b60405180910390f35b606060006040518060600160405280600260008a73ffffffffffffffffffffffffffffffffffffffff1673ffffffffffffffffffffffffffffffffffffffff1681526020019081526020016000205481526020018873ffffffffffffffffffffffffffffffffffffffff1681526020018781525090506101c08782878787610448565b6101ff576040517f08c379a00000000000000000000000000000000000000000000000000000000081526004016101f690610b00565b60405180910390fd5b6102526001600260008a73ffffffffffffffffffffffffffffffffffffffff1673ffffffffffffffffffffffffffffffffffffffff1681526020019081526020016000205461055190919063ffffffff16565b600260008973ffffffffffffffffffffffffffffffffffffffff1673ffffffffffffffffffffffffffffffffffffffff168152602001908152602001600020819055507f5845892132946850460bff5a0083f71031bc5bf9aadcd40f1de79423eac9b10b8733886040516102c893929190610999565b60405180910390a16000803073ffffffffffffffffffffffffffffffffffffffff16888a6040516020016102fd92919061093a565b6040516020818303038152906040526040516103199190610923565b6000604051808303816000865af19150503d8060008114610356576040519150601f19603f3d011682016040523d82523d6000602084013e61035b565b606091505b5091509150816103a0576040517f08c379a000000000000000000000000000000000000000000000000000000000815260040161039790610ac0565b60405180910390fd5b80935050505095945050505050565b6040518060400160405280600181526020017f310000000000000000000000000000000000000000000000000000000000000081525081565b6000600154905090565b6000600260008373ffffffffffffffffffffffffffffffffffffffff1673ffffffffffffffffffffffffffffffffffffffff168152602001908152602001600020549050919050565b6000804690508091505090565b60008073ffffffffffffffffffffffffffffffffffffffff168673ffffffffffffffffffffffffffffffffffffffff1614156104b9576040517f08c379a00000000000000000000000000000000000000000000000000000000081526004016104b090610ae0565b60405180910390fd5b60016104cc6104c787610567565b6105cf565b838686604051600081526020016040526040516104ec9493929190610a37565b6020604051602081039080840390855afa15801561050e573d6000803e3d6000fd5b5050506020604051035173ffffffffffffffffffffffffffffffffffffffff168673ffffffffffffffffffffffffffffffffffffffff1614905095945050505050565b6000818361055f9190610bdf565b905092915050565b6000604051806080016040528060438152602001610f016043913980519060200120826000015183602001518460400151805190602001206040516020016105b294939291906109f2565b604051602081830303815290604052805190602001209050919050565b60006105d96103e8565b826040516020016105eb929190610962565b604051602081830303815290604052805190602001209050919050565b600061061b61061684610b60565b610b3b565b90508281526020810184848401111561063757610636610d9e565b5b610642848285610c9a565b509392505050565b60008135905061065981610ebb565b92915050565b60008135905061066e81610ed2565b92915050565b600082601f83011261068957610688610d99565b5b8135610699848260208601610608565b91505092915050565b6000813590506106b181610ee9565b92915050565b6000602082840312156106cd576106cc610da8565b5b60006106db8482850161064a565b91505092915050565b600080600080600060a08688031215610700576106ff610da8565b5b600061070e8882890161064a565b955050602086013567ffffffffffffffff81111561072f5761072e610da3565b5b61073b88828901610674565b945050604061074c8882890161065f565b935050606061075d8882890161065f565b925050608061076e888289016106a2565b9150509295509295909350565b61078481610c47565b82525050565b61079381610c35565b82525050565b6107aa6107a582610c35565b610d0d565b82525050565b6107b981610c59565b82525050565b6107d06107cb82610c59565b610d1f565b82525050565b60006107e182610b91565b6107eb8185610ba7565b93506107fb818560208601610ca9565b61080481610dad565b840191505092915050565b600061081a82610b91565b6108248185610bb8565b9350610834818560208601610ca9565b80840191505092915050565b600061084b82610b9c565b6108558185610bc3565b9350610865818560208601610ca9565b61086e81610dad565b840191505092915050565b6000610886601c83610bc3565b915061089182610dcb565b602082019050919050565b60006108a9600283610bd4565b91506108b482610df4565b600282019050919050565b60006108cc602583610bc3565b91506108d782610e1d565b604082019050919050565b60006108ef602183610bc3565b91506108fa82610e6c565b604082019050919050565b61090e81610c83565b82525050565b61091d81610c8d565b82525050565b600061092f828461080f565b915081905092915050565b6000610946828561080f565b91506109528284610799565b6014820191508190509392505050565b600061096d8261089c565b915061097982856107bf565b60208201915061098982846107bf565b6020820191508190509392505050565b60006060820190506109ae600083018661078a565b6109bb602083018561077b565b81810360408301526109cd81846107d6565b9050949350505050565b60006020820190506109ec60008301846107b0565b92915050565b6000608082019050610a0760008301876107b0565b610a146020830186610905565b610a21604083018561078a565b610a2e60608301846107b0565b95945050505050565b6000608082019050610a4c60008301876107b0565b610a596020830186610914565b610a6660408301856107b0565b610a7360608301846107b0565b95945050505050565b60006020820190508181036000830152610a9681846107d6565b905092915050565b60006020820190508181036000830152610ab88184610840565b905092915050565b60006020820190508181036000830152610ad981610879565b9050919050565b60006020820190508181036000830152610af9816108bf565b9050919050565b60006020820190508181036000830152610b19816108e2565b9050919050565b6000602082019050610b356000830184610905565b92915050565b6000610b45610b56565b9050610b518282610cdc565b919050565b6000604051905090565b600067ffffffffffffffff821115610b7b57610b7a610d6a565b5b610b8482610dad565b9050602081019050919050565b600081519050919050565b600081519050919050565b600082825260208201905092915050565b600081905092915050565b600082825260208201905092915050565b600081905092915050565b6000610bea82610c83565b9150610bf583610c83565b9250827fffffffffffffffffffffffffffffffffffffffffffffffffffffffffffffffff03821115610c2a57610c29610d3b565b5b828201905092915050565b6000610c4082610c63565b9050919050565b6000610c5282610c63565b9050919050565b6000819050919050565b600073ffffffffffffffffffffffffffffffffffffffff82169050919050565b6000819050919050565b600060ff82169050919050565b82818337600083830152505050565b60005b83811015610cc7578082015181840152602081019050610cac565b83811115610cd6576000848401525b50505050565b610ce582610dad565b810181811067ffffffffffffffff82111715610d0457610d03610d6a565b5b80604052505050565b6000610d1882610d29565b9050919050565b6000819050919050565b6000610d3482610dbe565b9050919050565b7f4e487b7100000000000000000000000000000000000000000000000000000000600052601160045260246000fd5b7f4e487b7100000000000000000000000000000000000000000000000000000000600052604160045260246000fd5b600080fd5b600080fd5b600080fd5b600080fd5b6000601f19601f8301169050919050565b60008160601b9050919050565b7f46756e6374696f6e2063616c6c206e6f74207375636365737366756c00000000600082015250565b7f1901000000000000000000000000000000000000000000000000000000000000600082015250565b7f4e61746976654d6574615472616e73616374696f6e3a20494e56414c49445f5360008201527f49474e4552000000000000000000000000000000000000000000000000000000602082015250565b7f5369676e657220616e64207369676e617475726520646f206e6f74206d61746360008201527f6800000000000000000000000000000000000000000000000000000000000000602082015250565b610ec481610c35565b8114610ecf57600080fd5b50565b610edb81610c59565b8114610ee657600080fd5b50565b610ef281610c8d565b8114610efd57600080fd5b5056fe4d6574615472616e73616374696f6e2875696e74323536206e6f6e63652c616464726573732066726f6d2c62797465732066756e6374696f6e5369676e617475726529a26469706673582212200e43ccfed7471b9fd0270f088378fc80ac51cf4950b085debbe21e46ec34299f64736f6c63430008070033",
					"opcodes": "PUSH1 0x80 PUSH1 0x40 MSTORE PUSH1 0x0 DUP1 PUSH1 0x0 PUSH2 0x100 EXP DUP2 SLOAD DUP2 PUSH1 0xFF MUL NOT AND SWAP1 DUP4 ISZERO ISZERO MUL OR SWAP1 SSTORE POP CALLVALUE DUP1 ISZERO PUSH2 0x2A JUMPI PUSH1 0x0 DUP1 REVERT JUMPDEST POP PUSH2 0xF79 DUP1 PUSH2 0x3A PUSH1 0x0 CODECOPY PUSH1 0x0 RETURN INVALID PUSH1 0x80 PUSH1 0x40 MSTORE PUSH1 0x4 CALLDATASIZE LT PUSH2 0x4A JUMPI PUSH1 0x0 CALLDATALOAD PUSH1 0xE0 SHR DUP1 PUSH4 0xC53C51C EQ PUSH2 0x4F JUMPI DUP1 PUSH4 0xF7E5970 EQ PUSH2 0x7F JUMPI DUP1 PUSH4 0x20379EE5 EQ PUSH2 0xAA JUMPI DUP1 PUSH4 0x2D0335AB EQ PUSH2 0xD5 JUMPI DUP1 PUSH4 0x3408E470 EQ PUSH2 0x112 JUMPI JUMPDEST PUSH1 0x0 DUP1 REVERT JUMPDEST PUSH2 0x69 PUSH1 0x4 DUP1 CALLDATASIZE SUB DUP2 ADD SWAP1 PUSH2 0x64 SWAP2 SWAP1 PUSH2 0x6E4 JUMP JUMPDEST PUSH2 0x13D JUMP JUMPDEST PUSH1 0x40 MLOAD PUSH2 0x76 SWAP2 SWAP1 PUSH2 0xA7C JUMP JUMPDEST PUSH1 0x40 MLOAD DUP1 SWAP2 SUB SWAP1 RETURN JUMPDEST CALLVALUE DUP1 ISZERO PUSH2 0x8B JUMPI PUSH1 0x0 DUP1 REVERT JUMPDEST POP PUSH2 0x94 PUSH2 0x3AF JUMP JUMPDEST PUSH1 0x40 MLOAD PUSH2 0xA1 SWAP2 SWAP1 PUSH2 0xA9E JUMP JUMPDEST PUSH1 0x40 MLOAD DUP1 SWAP2 SUB SWAP1 RETURN JUMPDEST CALLVALUE DUP1 ISZERO PUSH2 0xB6 JUMPI PUSH1 0x0 DUP1 REVERT JUMPDEST POP PUSH2 0xBF PUSH2 0x3E8 JUMP JUMPDEST PUSH1 0x40 MLOAD PUSH2 0xCC SWAP2 SWAP1 PUSH2 0x9D7 JUMP JUMPDEST PUSH1 0x40 MLOAD DUP1 SWAP2 SUB SWAP1 RETURN JUMPDEST CALLVALUE DUP1 ISZERO PUSH2 0xE1 JUMPI PUSH1 0x0 DUP1 REVERT JUMPDEST POP PUSH2 0xFC PUSH1 0x4 DUP1 CALLDATASIZE SUB DUP2 ADD SWAP1 PUSH2 0xF7 SWAP2 SWAP1 PUSH2 0x6B7 JUMP JUMPDEST PUSH2 0x3F2 JUMP JUMPDEST PUSH1 0x40 MLOAD PUSH2 0x109 SWAP2 SWAP1 PUSH2 0xB20 JUMP JUMPDEST PUSH1 0x40 MLOAD DUP1 SWAP2 SUB SWAP1 RETURN JUMPDEST CALLVALUE DUP1 ISZERO PUSH2 0x11E JUMPI PUSH1 0x0 DUP1 REVERT JUMPDEST POP PUSH2 0x127 PUSH2 0x43B JUMP JUMPDEST PUSH1 0x40 MLOAD PUSH2 0x134 SWAP2 SWAP1 PUSH2 0xB20 JUMP JUMPDEST PUSH1 0x40 MLOAD DUP1 SWAP2 SUB SWAP1 RETURN JUMPDEST PUSH1 0x60 PUSH1 0x0 PUSH1 0x40 MLOAD DUP1 PUSH1 0x60 ADD PUSH1 0x40 MSTORE DUP1 PUSH1 0x2 PUSH1 0x0 DUP11 PUSH20 0xFFFFFFFFFFFFFFFFFFFFFFFFFFFFFFFFFFFFFFFF AND PUSH20 0xFFFFFFFFFFFFFFFFFFFFFFFFFFFFFFFFFFFFFFFF AND DUP2 MSTORE PUSH1 0x20 ADD SWAP1 DUP2 MSTORE PUSH1 0x20 ADD PUSH1 0x0 KECCAK256 SLOAD DUP2 MSTORE PUSH1 0x20 ADD DUP9 PUSH20 0xFFFFFFFFFFFFFFFFFFFFFFFFFFFFFFFFFFFFFFFF AND DUP2 MSTORE PUSH1 0x20 ADD DUP8 DUP2 MSTORE POP SWAP1 POP PUSH2 0x1C0 DUP8 DUP3 DUP8 DUP8 DUP8 PUSH2 0x448 JUMP JUMPDEST PUSH2 0x1FF JUMPI PUSH1 0x40 MLOAD PUSH32 0x8C379A000000000000000000000000000000000000000000000000000000000 DUP2 MSTORE PUSH1 0x4 ADD PUSH2 0x1F6 SWAP1 PUSH2 0xB00 JUMP JUMPDEST PUSH1 0x40 MLOAD DUP1 SWAP2 SUB SWAP1 REVERT JUMPDEST PUSH2 0x252 PUSH1 0x1 PUSH1 0x2 PUSH1 0x0 DUP11 PUSH20 0xFFFFFFFFFFFFFFFFFFFFFFFFFFFFFFFFFFFFFFFF AND PUSH20 0xFFFFFFFFFFFFFFFFFFFFFFFFFFFFFFFFFFFFFFFF AND DUP2 MSTORE PUSH1 0x20 ADD SWAP1 DUP2 MSTORE PUSH1 0x20 ADD PUSH1 0x0 KECCAK256 SLOAD PUSH2 0x551 SWAP1 SWAP2 SWAP1 PUSH4 0xFFFFFFFF AND JUMP JUMPDEST PUSH1 0x2 PUSH1 0x0 DUP10 PUSH20 0xFFFFFFFFFFFFFFFFFFFFFFFFFFFFFFFFFFFFFFFF AND PUSH20 0xFFFFFFFFFFFFFFFFFFFFFFFFFFFFFFFFFFFFFFFF AND DUP2 MSTORE PUSH1 0x20 ADD SWAP1 DUP2 MSTORE PUSH1 0x20 ADD PUSH1 0x0 KECCAK256 DUP2 SWAP1 SSTORE POP PUSH32 0x5845892132946850460BFF5A0083F71031BC5BF9AADCD40F1DE79423EAC9B10B DUP8 CALLER DUP9 PUSH1 0x40 MLOAD PUSH2 0x2C8 SWAP4 SWAP3 SWAP2 SWAP1 PUSH2 0x999 JUMP JUMPDEST PUSH1 0x40 MLOAD DUP1 SWAP2 SUB SWAP1 LOG1 PUSH1 0x0 DUP1 ADDRESS PUSH20 0xFFFFFFFFFFFFFFFFFFFFFFFFFFFFFFFFFFFFFFFF AND DUP9 DUP11 PUSH1 0x40 MLOAD PUSH1 0x20 ADD PUSH2 0x2FD SWAP3 SWAP2 SWAP1 PUSH2 0x93A JUMP JUMPDEST PUSH1 0x40 MLOAD PUSH1 0x20 DUP2 DUP4 SUB SUB DUP2 MSTORE SWAP1 PUSH1 0x40 MSTORE PUSH1 0x40 MLOAD PUSH2 0x319 SWAP2 SWAP1 PUSH2 0x923 JUMP JUMPDEST PUSH1 0x0 PUSH1 0x40 MLOAD DUP1 DUP4 SUB DUP2 PUSH1 0x0 DUP7 GAS CALL SWAP2 POP POP RETURNDATASIZE DUP1 PUSH1 0x0 DUP2 EQ PUSH2 0x356 JUMPI PUSH1 0x40 MLOAD SWAP2 POP PUSH1 0x1F NOT PUSH1 0x3F RETURNDATASIZE ADD AND DUP3 ADD PUSH1 0x40 MSTORE RETURNDATASIZE DUP3 MSTORE RETURNDATASIZE PUSH1 0x0 PUSH1 0x20 DUP5 ADD RETURNDATACOPY PUSH2 0x35B JUMP JUMPDEST PUSH1 0x60 SWAP2 POP JUMPDEST POP SWAP2 POP SWAP2 POP DUP2 PUSH2 0x3A0 JUMPI PUSH1 0x40 MLOAD PUSH32 0x8C379A000000000000000000000000000000000000000000000000000000000 DUP2 MSTORE PUSH1 0x4 ADD PUSH2 0x397 SWAP1 PUSH2 0xAC0 JUMP JUMPDEST PUSH1 0x40 MLOAD DUP1 SWAP2 SUB SWAP1 REVERT JUMPDEST DUP1 SWAP4 POP POP POP POP SWAP6 SWAP5 POP POP POP POP POP JUMP JUMPDEST PUSH1 0x40 MLOAD DUP1 PUSH1 0x40 ADD PUSH1 0x40 MSTORE DUP1 PUSH1 0x1 DUP2 MSTORE PUSH1 0x20 ADD PUSH32 0x3100000000000000000000000000000000000000000000000000000000000000 DUP2 MSTORE POP DUP2 JUMP JUMPDEST PUSH1 0x0 PUSH1 0x1 SLOAD SWAP1 POP SWAP1 JUMP JUMPDEST PUSH1 0x0 PUSH1 0x2 PUSH1 0x0 DUP4 PUSH20 0xFFFFFFFFFFFFFFFFFFFFFFFFFFFFFFFFFFFFFFFF AND PUSH20 0xFFFFFFFFFFFFFFFFFFFFFFFFFFFFFFFFFFFFFFFF AND DUP2 MSTORE PUSH1 0x20 ADD SWAP1 DUP2 MSTORE PUSH1 0x20 ADD PUSH1 0x0 KECCAK256 SLOAD SWAP1 POP SWAP2 SWAP1 POP JUMP JUMPDEST PUSH1 0x0 DUP1 CHAINID SWAP1 POP DUP1 SWAP2 POP POP SWAP1 JUMP JUMPDEST PUSH1 0x0 DUP1 PUSH20 0xFFFFFFFFFFFFFFFFFFFFFFFFFFFFFFFFFFFFFFFF AND DUP7 PUSH20 0xFFFFFFFFFFFFFFFFFFFFFFFFFFFFFFFFFFFFFFFF AND EQ ISZERO PUSH2 0x4B9 JUMPI PUSH1 0x40 MLOAD PUSH32 0x8C379A000000000000000000000000000000000000000000000000000000000 DUP2 MSTORE PUSH1 0x4 ADD PUSH2 0x4B0 SWAP1 PUSH2 0xAE0 JUMP JUMPDEST PUSH1 0x40 MLOAD DUP1 SWAP2 SUB SWAP1 REVERT JUMPDEST PUSH1 0x1 PUSH2 0x4CC PUSH2 0x4C7 DUP8 PUSH2 0x567 JUMP JUMPDEST PUSH2 0x5CF JUMP JUMPDEST DUP4 DUP7 DUP7 PUSH1 0x40 MLOAD PUSH1 0x0 DUP2 MSTORE PUSH1 0x20 ADD PUSH1 0x40 MSTORE PUSH1 0x40 MLOAD PUSH2 0x4EC SWAP5 SWAP4 SWAP3 SWAP2 SWAP1 PUSH2 0xA37 JUMP JUMPDEST PUSH1 0x20 PUSH1 0x40 MLOAD PUSH1 0x20 DUP2 SUB SWAP1 DUP1 DUP5 SUB SWAP1 DUP6 GAS STATICCALL ISZERO DUP1 ISZERO PUSH2 0x50E JUMPI RETURNDATASIZE PUSH1 0x0 DUP1 RETURNDATACOPY RETURNDATASIZE PUSH1 0x0 REVERT JUMPDEST POP POP POP PUSH1 0x20 PUSH1 0x40 MLOAD SUB MLOAD PUSH20 0xFFFFFFFFFFFFFFFFFFFFFFFFFFFFFFFFFFFFFFFF AND DUP7 PUSH20 0xFFFFFFFFFFFFFFFFFFFFFFFFFFFFFFFFFFFFFFFF AND EQ SWAP1 POP SWAP6 SWAP5 POP POP POP POP POP JUMP JUMPDEST PUSH1 0x0 DUP2 DUP4 PUSH2 0x55F SWAP2 SWAP1 PUSH2 0xBDF JUMP JUMPDEST SWAP1 POP SWAP3 SWAP2 POP POP JUMP JUMPDEST PUSH1 0x0 PUSH1 0x40 MLOAD DUP1 PUSH1 0x80 ADD PUSH1 0x40 MSTORE DUP1 PUSH1 0x43 DUP2 MSTORE PUSH1 0x20 ADD PUSH2 0xF01 PUSH1 0x43 SWAP2 CODECOPY DUP1 MLOAD SWAP1 PUSH1 0x20 ADD KECCAK256 DUP3 PUSH1 0x0 ADD MLOAD DUP4 PUSH1 0x20 ADD MLOAD DUP5 PUSH1 0x40 ADD MLOAD DUP1 MLOAD SWAP1 PUSH1 0x20 ADD KECCAK256 PUSH1 0x40 MLOAD PUSH1 0x20 ADD PUSH2 0x5B2 SWAP5 SWAP4 SWAP3 SWAP2 SWAP1 PUSH2 0x9F2 JUMP JUMPDEST PUSH1 0x40 MLOAD PUSH1 0x20 DUP2 DUP4 SUB SUB DUP2 MSTORE SWAP1 PUSH1 0x40 MSTORE DUP1 MLOAD SWAP1 PUSH1 0x20 ADD KECCAK256 SWAP1 POP SWAP2 SWAP1 POP JUMP JUMPDEST PUSH1 0x0 PUSH2 0x5D9 PUSH2 0x3E8 JUMP JUMPDEST DUP3 PUSH1 0x40 MLOAD PUSH1 0x20 ADD PUSH2 0x5EB SWAP3 SWAP2 SWAP1 PUSH2 0x962 JUMP JUMPDEST PUSH1 0x40 MLOAD PUSH1 0x20 DUP2 DUP4 SUB SUB DUP2 MSTORE SWAP1 PUSH1 0x40 MSTORE DUP1 MLOAD SWAP1 PUSH1 0x20 ADD KECCAK256 SWAP1 POP SWAP2 SWAP1 POP JUMP JUMPDEST PUSH1 0x0 PUSH2 0x61B PUSH2 0x616 DUP5 PUSH2 0xB60 JUMP JUMPDEST PUSH2 0xB3B JUMP JUMPDEST SWAP1 POP DUP3 DUP2 MSTORE PUSH1 0x20 DUP2 ADD DUP5 DUP5 DUP5 ADD GT ISZERO PUSH2 0x637 JUMPI PUSH2 0x636 PUSH2 0xD9E JUMP JUMPDEST JUMPDEST PUSH2 0x642 DUP5 DUP3 DUP6 PUSH2 0xC9A JUMP JUMPDEST POP SWAP4 SWAP3 POP POP POP JUMP JUMPDEST PUSH1 0x0 DUP2 CALLDATALOAD SWAP1 POP PUSH2 0x659 DUP2 PUSH2 0xEBB JUMP JUMPDEST SWAP3 SWAP2 POP POP JUMP JUMPDEST PUSH1 0x0 DUP2 CALLDATALOAD SWAP1 POP PUSH2 0x66E DUP2 PUSH2 0xED2 JUMP JUMPDEST SWAP3 SWAP2 POP POP JUMP JUMPDEST PUSH1 0x0 DUP3 PUSH1 0x1F DUP4 ADD SLT PUSH2 0x689 JUMPI PUSH2 0x688 PUSH2 0xD99 JUMP JUMPDEST JUMPDEST DUP2 CALLDATALOAD PUSH2 0x699 DUP5 DUP3 PUSH1 0x20 DUP7 ADD PUSH2 0x608 JUMP JUMPDEST SWAP2 POP POP SWAP3 SWAP2 POP POP JUMP JUMPDEST PUSH1 0x0 DUP2 CALLDATALOAD SWAP1 POP PUSH2 0x6B1 DUP2 PUSH2 0xEE9 JUMP JUMPDEST SWAP3 SWAP2 POP POP JUMP JUMPDEST PUSH1 0x0 PUSH1 0x20 DUP3 DUP5 SUB SLT ISZERO PUSH2 0x6CD JUMPI PUSH2 0x6CC PUSH2 0xDA8 JUMP JUMPDEST JUMPDEST PUSH1 0x0 PUSH2 0x6DB DUP5 DUP3 DUP6 ADD PUSH2 0x64A JUMP JUMPDEST SWAP2 POP POP SWAP3 SWAP2 POP POP JUMP JUMPDEST PUSH1 0x0 DUP1 PUSH1 0x0 DUP1 PUSH1 0x0 PUSH1 0xA0 DUP7 DUP9 SUB SLT ISZERO PUSH2 0x700 JUMPI PUSH2 0x6FF PUSH2 0xDA8 JUMP JUMPDEST JUMPDEST PUSH1 0x0 PUSH2 0x70E DUP9 DUP3 DUP10 ADD PUSH2 0x64A JUMP JUMPDEST SWAP6 POP POP PUSH1 0x20 DUP7 ADD CALLDATALOAD PUSH8 0xFFFFFFFFFFFFFFFF DUP2 GT ISZERO PUSH2 0x72F JUMPI PUSH2 0x72E PUSH2 0xDA3 JUMP JUMPDEST JUMPDEST PUSH2 0x73B DUP9 DUP3 DUP10 ADD PUSH2 0x674 JUMP JUMPDEST SWAP5 POP POP PUSH1 0x40 PUSH2 0x74C DUP9 DUP3 DUP10 ADD PUSH2 0x65F JUMP JUMPDEST SWAP4 POP POP PUSH1 0x60 PUSH2 0x75D DUP9 DUP3 DUP10 ADD PUSH2 0x65F JUMP JUMPDEST SWAP3 POP POP PUSH1 0x80 PUSH2 0x76E DUP9 DUP3 DUP10 ADD PUSH2 0x6A2 JUMP JUMPDEST SWAP2 POP POP SWAP3 SWAP6 POP SWAP3 SWAP6 SWAP1 SWAP4 POP JUMP JUMPDEST PUSH2 0x784 DUP2 PUSH2 0xC47 JUMP JUMPDEST DUP3 MSTORE POP POP JUMP JUMPDEST PUSH2 0x793 DUP2 PUSH2 0xC35 JUMP JUMPDEST DUP3 MSTORE POP POP JUMP JUMPDEST PUSH2 0x7AA PUSH2 0x7A5 DUP3 PUSH2 0xC35 JUMP JUMPDEST PUSH2 0xD0D JUMP JUMPDEST DUP3 MSTORE POP POP JUMP JUMPDEST PUSH2 0x7B9 DUP2 PUSH2 0xC59 JUMP JUMPDEST DUP3 MSTORE POP POP JUMP JUMPDEST PUSH2 0x7D0 PUSH2 0x7CB DUP3 PUSH2 0xC59 JUMP JUMPDEST PUSH2 0xD1F JUMP JUMPDEST DUP3 MSTORE POP POP JUMP JUMPDEST PUSH1 0x0 PUSH2 0x7E1 DUP3 PUSH2 0xB91 JUMP JUMPDEST PUSH2 0x7EB DUP2 DUP6 PUSH2 0xBA7 JUMP JUMPDEST SWAP4 POP PUSH2 0x7FB DUP2 DUP6 PUSH1 0x20 DUP7 ADD PUSH2 0xCA9 JUMP JUMPDEST PUSH2 0x804 DUP2 PUSH2 0xDAD JUMP JUMPDEST DUP5 ADD SWAP2 POP POP SWAP3 SWAP2 POP POP JUMP JUMPDEST PUSH1 0x0 PUSH2 0x81A DUP3 PUSH2 0xB91 JUMP JUMPDEST PUSH2 0x824 DUP2 DUP6 PUSH2 0xBB8 JUMP JUMPDEST SWAP4 POP PUSH2 0x834 DUP2 DUP6 PUSH1 0x20 DUP7 ADD PUSH2 0xCA9 JUMP JUMPDEST DUP1 DUP5 ADD SWAP2 POP POP SWAP3 SWAP2 POP POP JUMP JUMPDEST PUSH1 0x0 PUSH2 0x84B DUP3 PUSH2 0xB9C JUMP JUMPDEST PUSH2 0x855 DUP2 DUP6 PUSH2 0xBC3 JUMP JUMPDEST SWAP4 POP PUSH2 0x865 DUP2 DUP6 PUSH1 0x20 DUP7 ADD PUSH2 0xCA9 JUMP JUMPDEST PUSH2 0x86E DUP2 PUSH2 0xDAD JUMP JUMPDEST DUP5 ADD SWAP2 POP POP SWAP3 SWAP2 POP POP JUMP JUMPDEST PUSH1 0x0 PUSH2 0x886 PUSH1 0x1C DUP4 PUSH2 0xBC3 JUMP JUMPDEST SWAP2 POP PUSH2 0x891 DUP3 PUSH2 0xDCB JUMP JUMPDEST PUSH1 0x20 DUP3 ADD SWAP1 POP SWAP2 SWAP1 POP JUMP JUMPDEST PUSH1 0x0 PUSH2 0x8A9 PUSH1 0x2 DUP4 PUSH2 0xBD4 JUMP JUMPDEST SWAP2 POP PUSH2 0x8B4 DUP3 PUSH2 0xDF4 JUMP JUMPDEST PUSH1 0x2 DUP3 ADD SWAP1 POP SWAP2 SWAP1 POP JUMP JUMPDEST PUSH1 0x0 PUSH2 0x8CC PUSH1 0x25 DUP4 PUSH2 0xBC3 JUMP JUMPDEST SWAP2 POP PUSH2 0x8D7 DUP3 PUSH2 0xE1D JUMP JUMPDEST PUSH1 0x40 DUP3 ADD SWAP1 POP SWAP2 SWAP1 POP JUMP JUMPDEST PUSH1 0x0 PUSH2 0x8EF PUSH1 0x21 DUP4 PUSH2 0xBC3 JUMP JUMPDEST SWAP2 POP PUSH2 0x8FA DUP3 PUSH2 0xE6C JUMP JUMPDEST PUSH1 0x40 DUP3 ADD SWAP1 POP SWAP2 SWAP1 POP JUMP JUMPDEST PUSH2 0x90E DUP2 PUSH2 0xC83 JUMP JUMPDEST DUP3 MSTORE POP POP JUMP JUMPDEST PUSH2 0x91D DUP2 PUSH2 0xC8D JUMP JUMPDEST DUP3 MSTORE POP POP JUMP JUMPDEST PUSH1 0x0 PUSH2 0x92F DUP3 DUP5 PUSH2 0x80F JUMP JUMPDEST SWAP2 POP DUP2 SWAP1 POP SWAP3 SWAP2 POP POP JUMP JUMPDEST PUSH1 0x0 PUSH2 0x946 DUP3 DUP6 PUSH2 0x80F JUMP JUMPDEST SWAP2 POP PUSH2 0x952 DUP3 DUP5 PUSH2 0x799 JUMP JUMPDEST PUSH1 0x14 DUP3 ADD SWAP2 POP DUP2 SWAP1 POP SWAP4 SWAP3 POP POP POP JUMP JUMPDEST PUSH1 0x0 PUSH2 0x96D DUP3 PUSH2 0x89C JUMP JUMPDEST SWAP2 POP PUSH2 0x979 DUP3 DUP6 PUSH2 0x7BF JUMP JUMPDEST PUSH1 0x20 DUP3 ADD SWAP2 POP PUSH2 0x989 DUP3 DUP5 PUSH2 0x7BF JUMP JUMPDEST PUSH1 0x20 DUP3 ADD SWAP2 POP DUP2 SWAP1 POP SWAP4 SWAP3 POP POP POP JUMP JUMPDEST PUSH1 0x0 PUSH1 0x60 DUP3 ADD SWAP1 POP PUSH2 0x9AE PUSH1 0x0 DUP4 ADD DUP7 PUSH2 0x78A JUMP JUMPDEST PUSH2 0x9BB PUSH1 0x20 DUP4 ADD DUP6 PUSH2 0x77B JUMP JUMPDEST DUP2 DUP2 SUB PUSH1 0x40 DUP4 ADD MSTORE PUSH2 0x9CD DUP2 DUP5 PUSH2 0x7D6 JUMP JUMPDEST SWAP1 POP SWAP5 SWAP4 POP POP POP POP JUMP JUMPDEST PUSH1 0x0 PUSH1 0x20 DUP3 ADD SWAP1 POP PUSH2 0x9EC PUSH1 0x0 DUP4 ADD DUP5 PUSH2 0x7B0 JUMP JUMPDEST SWAP3 SWAP2 POP POP JUMP JUMPDEST PUSH1 0x0 PUSH1 0x80 DUP3 ADD SWAP1 POP PUSH2 0xA07 PUSH1 0x0 DUP4 ADD DUP8 PUSH2 0x7B0 JUMP JUMPDEST PUSH2 0xA14 PUSH1 0x20 DUP4 ADD DUP7 PUSH2 0x905 JUMP JUMPDEST PUSH2 0xA21 PUSH1 0x40 DUP4 ADD DUP6 PUSH2 0x78A JUMP JUMPDEST PUSH2 0xA2E PUSH1 0x60 DUP4 ADD DUP5 PUSH2 0x7B0 JUMP JUMPDEST SWAP6 SWAP5 POP POP POP POP POP JUMP JUMPDEST PUSH1 0x0 PUSH1 0x80 DUP3 ADD SWAP1 POP PUSH2 0xA4C PUSH1 0x0 DUP4 ADD DUP8 PUSH2 0x7B0 JUMP JUMPDEST PUSH2 0xA59 PUSH1 0x20 DUP4 ADD DUP7 PUSH2 0x914 JUMP JUMPDEST PUSH2 0xA66 PUSH1 0x40 DUP4 ADD DUP6 PUSH2 0x7B0 JUMP JUMPDEST PUSH2 0xA73 PUSH1 0x60 DUP4 ADD DUP5 PUSH2 0x7B0 JUMP JUMPDEST SWAP6 SWAP5 POP POP POP POP POP JUMP JUMPDEST PUSH1 0x0 PUSH1 0x20 DUP3 ADD SWAP1 POP DUP2 DUP2 SUB PUSH1 0x0 DUP4 ADD MSTORE PUSH2 0xA96 DUP2 DUP5 PUSH2 0x7D6 JUMP JUMPDEST SWAP1 POP SWAP3 SWAP2 POP POP JUMP JUMPDEST PUSH1 0x0 PUSH1 0x20 DUP3 ADD SWAP1 POP DUP2 DUP2 SUB PUSH1 0x0 DUP4 ADD MSTORE PUSH2 0xAB8 DUP2 DUP5 PUSH2 0x840 JUMP JUMPDEST SWAP1 POP SWAP3 SWAP2 POP POP JUMP JUMPDEST PUSH1 0x0 PUSH1 0x20 DUP3 ADD SWAP1 POP DUP2 DUP2 SUB PUSH1 0x0 DUP4 ADD MSTORE PUSH2 0xAD9 DUP2 PUSH2 0x879 JUMP JUMPDEST SWAP1 POP SWAP2 SWAP1 POP JUMP JUMPDEST PUSH1 0x0 PUSH1 0x20 DUP3 ADD SWAP1 POP DUP2 DUP2 SUB PUSH1 0x0 DUP4 ADD MSTORE PUSH2 0xAF9 DUP2 PUSH2 0x8BF JUMP JUMPDEST SWAP1 POP SWAP2 SWAP1 POP JUMP JUMPDEST PUSH1 0x0 PUSH1 0x20 DUP3 ADD SWAP1 POP DUP2 DUP2 SUB PUSH1 0x0 DUP4 ADD MSTORE PUSH2 0xB19 DUP2 PUSH2 0x8E2 JUMP JUMPDEST SWAP1 POP SWAP2 SWAP1 POP JUMP JUMPDEST PUSH1 0x0 PUSH1 0x20 DUP3 ADD SWAP1 POP PUSH2 0xB35 PUSH1 0x0 DUP4 ADD DUP5 PUSH2 0x905 JUMP JUMPDEST SWAP3 SWAP2 POP POP JUMP JUMPDEST PUSH1 0x0 PUSH2 0xB45 PUSH2 0xB56 JUMP JUMPDEST SWAP1 POP PUSH2 0xB51 DUP3 DUP3 PUSH2 0xCDC JUMP JUMPDEST SWAP2 SWAP1 POP JUMP JUMPDEST PUSH1 0x0 PUSH1 0x40 MLOAD SWAP1 POP SWAP1 JUMP JUMPDEST PUSH1 0x0 PUSH8 0xFFFFFFFFFFFFFFFF DUP3 GT ISZERO PUSH2 0xB7B JUMPI PUSH2 0xB7A PUSH2 0xD6A JUMP JUMPDEST JUMPDEST PUSH2 0xB84 DUP3 PUSH2 0xDAD JUMP JUMPDEST SWAP1 POP PUSH1 0x20 DUP2 ADD SWAP1 POP SWAP2 SWAP1 POP JUMP JUMPDEST PUSH1 0x0 DUP2 MLOAD SWAP1 POP SWAP2 SWAP1 POP JUMP JUMPDEST PUSH1 0x0 DUP2 MLOAD SWAP1 POP SWAP2 SWAP1 POP JUMP JUMPDEST PUSH1 0x0 DUP3 DUP3 MSTORE PUSH1 0x20 DUP3 ADD SWAP1 POP SWAP3 SWAP2 POP POP JUMP JUMPDEST PUSH1 0x0 DUP2 SWAP1 POP SWAP3 SWAP2 POP POP JUMP JUMPDEST PUSH1 0x0 DUP3 DUP3 MSTORE PUSH1 0x20 DUP3 ADD SWAP1 POP SWAP3 SWAP2 POP POP JUMP JUMPDEST PUSH1 0x0 DUP2 SWAP1 POP SWAP3 SWAP2 POP POP JUMP JUMPDEST PUSH1 0x0 PUSH2 0xBEA DUP3 PUSH2 0xC83 JUMP JUMPDEST SWAP2 POP PUSH2 0xBF5 DUP4 PUSH2 0xC83 JUMP JUMPDEST SWAP3 POP DUP3 PUSH32 0xFFFFFFFFFFFFFFFFFFFFFFFFFFFFFFFFFFFFFFFFFFFFFFFFFFFFFFFFFFFFFFFF SUB DUP3 GT ISZERO PUSH2 0xC2A JUMPI PUSH2 0xC29 PUSH2 0xD3B JUMP JUMPDEST JUMPDEST DUP3 DUP3 ADD SWAP1 POP SWAP3 SWAP2 POP POP JUMP JUMPDEST PUSH1 0x0 PUSH2 0xC40 DUP3 PUSH2 0xC63 JUMP JUMPDEST SWAP1 POP SWAP2 SWAP1 POP JUMP JUMPDEST PUSH1 0x0 PUSH2 0xC52 DUP3 PUSH2 0xC63 JUMP JUMPDEST SWAP1 POP SWAP2 SWAP1 POP JUMP JUMPDEST PUSH1 0x0 DUP2 SWAP1 POP SWAP2 SWAP1 POP JUMP JUMPDEST PUSH1 0x0 PUSH20 0xFFFFFFFFFFFFFFFFFFFFFFFFFFFFFFFFFFFFFFFF DUP3 AND SWAP1 POP SWAP2 SWAP1 POP JUMP JUMPDEST PUSH1 0x0 DUP2 SWAP1 POP SWAP2 SWAP1 POP JUMP JUMPDEST PUSH1 0x0 PUSH1 0xFF DUP3 AND SWAP1 POP SWAP2 SWAP1 POP JUMP JUMPDEST DUP3 DUP2 DUP4 CALLDATACOPY PUSH1 0x0 DUP4 DUP4 ADD MSTORE POP POP POP JUMP JUMPDEST PUSH1 0x0 JUMPDEST DUP4 DUP2 LT ISZERO PUSH2 0xCC7 JUMPI DUP1 DUP3 ADD MLOAD DUP2 DUP5 ADD MSTORE PUSH1 0x20 DUP2 ADD SWAP1 POP PUSH2 0xCAC JUMP JUMPDEST DUP4 DUP2 GT ISZERO PUSH2 0xCD6 JUMPI PUSH1 0x0 DUP5 DUP5 ADD MSTORE JUMPDEST POP POP POP POP JUMP JUMPDEST PUSH2 0xCE5 DUP3 PUSH2 0xDAD JUMP JUMPDEST DUP2 ADD DUP2 DUP2 LT PUSH8 0xFFFFFFFFFFFFFFFF DUP3 GT OR ISZERO PUSH2 0xD04 JUMPI PUSH2 0xD03 PUSH2 0xD6A JUMP JUMPDEST JUMPDEST DUP1 PUSH1 0x40 MSTORE POP POP POP JUMP JUMPDEST PUSH1 0x0 PUSH2 0xD18 DUP3 PUSH2 0xD29 JUMP JUMPDEST SWAP1 POP SWAP2 SWAP1 POP JUMP JUMPDEST PUSH1 0x0 DUP2 SWAP1 POP SWAP2 SWAP1 POP JUMP JUMPDEST PUSH1 0x0 PUSH2 0xD34 DUP3 PUSH2 0xDBE JUMP JUMPDEST SWAP1 POP SWAP2 SWAP1 POP JUMP JUMPDEST PUSH32 0x4E487B7100000000000000000000000000000000000000000000000000000000 PUSH1 0x0 MSTORE PUSH1 0x11 PUSH1 0x4 MSTORE PUSH1 0x24 PUSH1 0x0 REVERT JUMPDEST PUSH32 0x4E487B7100000000000000000000000000000000000000000000000000000000 PUSH1 0x0 MSTORE PUSH1 0x41 PUSH1 0x4 MSTORE PUSH1 0x24 PUSH1 0x0 REVERT JUMPDEST PUSH1 0x0 DUP1 REVERT JUMPDEST PUSH1 0x0 DUP1 REVERT JUMPDEST PUSH1 0x0 DUP1 REVERT JUMPDEST PUSH1 0x0 DUP1 REVERT JUMPDEST PUSH1 0x0 PUSH1 0x1F NOT PUSH1 0x1F DUP4 ADD AND SWAP1 POP SWAP2 SWAP1 POP JUMP JUMPDEST PUSH1 0x0 DUP2 PUSH1 0x60 SHL SWAP1 POP SWAP2 SWAP1 POP JUMP JUMPDEST PUSH32 0x46756E6374696F6E2063616C6C206E6F74207375636365737366756C00000000 PUSH1 0x0 DUP3 ADD MSTORE POP JUMP JUMPDEST PUSH32 0x1901000000000000000000000000000000000000000000000000000000000000 PUSH1 0x0 DUP3 ADD MSTORE POP JUMP JUMPDEST PUSH32 0x4E61746976654D6574615472616E73616374696F6E3A20494E56414C49445F53 PUSH1 0x0 DUP3 ADD MSTORE PUSH32 0x49474E4552000000000000000000000000000000000000000000000000000000 PUSH1 0x20 DUP3 ADD MSTORE POP JUMP JUMPDEST PUSH32 0x5369676E657220616E64207369676E617475726520646F206E6F74206D617463 PUSH1 0x0 DUP3 ADD MSTORE PUSH32 0x6800000000000000000000000000000000000000000000000000000000000000 PUSH1 0x20 DUP3 ADD MSTORE POP JUMP JUMPDEST PUSH2 0xEC4 DUP2 PUSH2 0xC35 JUMP JUMPDEST DUP2 EQ PUSH2 0xECF JUMPI PUSH1 0x0 DUP1 REVERT JUMPDEST POP JUMP JUMPDEST PUSH2 0xEDB DUP2 PUSH2 0xC59 JUMP JUMPDEST DUP2 EQ PUSH2 0xEE6 JUMPI PUSH1 0x0 DUP1 REVERT JUMPDEST POP JUMP JUMPDEST PUSH2 0xEF2 DUP2 PUSH2 0xC8D JUMP JUMPDEST DUP2 EQ PUSH2 0xEFD JUMPI PUSH1 0x0 DUP1 REVERT JUMPDEST POP JUMP INVALID 0x4D PUSH6 0x74615472616E PUSH20 0x616374696F6E2875696E74323536206E6F6E6365 0x2C PUSH2 0x6464 PUSH19 0x6573732066726F6D2C62797465732066756E63 PUSH21 0x696F6E5369676E617475726529A264697066735822 SLT KECCAK256 0xE NUMBER 0xCC INVALID 0xD7 SELFBALANCE SHL SWAP16 0xD0 0x27 0xF ADDMOD DUP4 PUSH25 0xFC80AC51CF4950B085DEBBE21E46EC34299F64736F6C634300 ADDMOD SMOD STOP CALLER "
				},
				"gasEstimates": {
					"creation": {
						"codeDepositCost": "792200",
						"executionCost": "25092",
						"totalCost": "817292"
					},
					"external": {
						"ERC712_VERSION()": "infinite",
						"executeMetaTransaction(address,bytes,bytes32,bytes32,uint8)": "infinite",
						"getChainId()": "415",
						"getDomainSeperator()": "2459",
						"getNonce(address)": "2885"
					},
					"internal": {
						"hashMetaTransaction(struct NativeMetaTransaction.MetaTransaction memory)": "infinite",
						"verify(address,struct NativeMetaTransaction.MetaTransaction memory,bytes32,bytes32,uint8)": "infinite"
					}
				},
				"methodIdentifiers": {
					"ERC712_VERSION()": "0f7e5970",
					"executeMetaTransaction(address,bytes,bytes32,bytes32,uint8)": "0c53c51c",
					"getChainId()": "3408e470",
					"getDomainSeperator()": "20379ee5",
					"getNonce(address)": "2d0335ab"
				}
			},
			"storageLayout": {
				"storage": [
					{
						"astId": 2390,
						"contract": "plants/nft/contracts/common/meta-transactions/NativeMetaTransaction.sol:NativeMetaTransaction",
						"label": "inited",
						"offset": 0,
						"slot": "0",
						"type": "t_bool"
					},
					{
						"astId": 2297,
						"contract": "plants/nft/contracts/common/meta-transactions/NativeMetaTransaction.sol:NativeMetaTransaction",
						"label": "domainSeperator",
						"offset": 0,
						"slot": "1",
						"type": "t_bytes32"
					},
					{
						"astId": 2436,
						"contract": "plants/nft/contracts/common/meta-transactions/NativeMetaTransaction.sol:NativeMetaTransaction",
						"label": "nonces",
						"offset": 0,
						"slot": "2",
						"type": "t_mapping(t_address,t_uint256)"
					}
				],
				"types": {
					"t_address": {
						"encoding": "inplace",
						"label": "address",
						"numberOfBytes": "20"
					},
					"t_bool": {
						"encoding": "inplace",
						"label": "bool",
						"numberOfBytes": "1"
					},
					"t_bytes32": {
						"encoding": "inplace",
						"label": "bytes32",
						"numberOfBytes": "32"
					},
					"t_mapping(t_address,t_uint256)": {
						"encoding": "mapping",
						"key": "t_address",
						"label": "mapping(address => uint256)",
						"numberOfBytes": "32",
						"value": "t_uint256"
					},
					"t_uint256": {
						"encoding": "inplace",
						"label": "uint256",
						"numberOfBytes": "32"
					}
				}
			},
			"userdoc": {
				"kind": "user",
				"methods": {},
				"version": 1
			}
		}
	}
}