{
	"plants/nft/contracts/ERC721Tradable.sol": {
		"ProxyRegistry": {
			"abi": [
				{
					"inputs": [
						{
							"internalType": "address",
							"name": "",
							"type": "address"
						}
					],
					"name": "proxies",
					"outputs": [
						{
							"internalType": "contract OwnableDelegateProxy",
							"name": "",
							"type": "address"
						}
					],
					"stateMutability": "view",
					"type": "function"
				}
			],
			"devdoc": {
				"kind": "dev",
				"methods": {},
				"version": 1
			},
			"evm": {
				"assembly": "    /* \"plants/nft/contracts/ERC721Tradable.sol\":624:711  contract ProxyRegistry {... */\n  mstore(0x40, 0x80)\n  callvalue\n  dup1\n  iszero\n  tag_1\n  jumpi\n  0x00\n  dup1\n  revert\ntag_1:\n  pop\n  dataSize(sub_0)\n  dup1\n  dataOffset(sub_0)\n  0x00\n  codecopy\n  0x00\n  return\nstop\n\nsub_0: assembly {\n        /* \"plants/nft/contracts/ERC721Tradable.sol\":624:711  contract ProxyRegistry {... */\n      mstore(0x40, 0x80)\n      callvalue\n      dup1\n      iszero\n      tag_1\n      jumpi\n      0x00\n      dup1\n      revert\n    tag_1:\n      pop\n      jumpi(tag_2, lt(calldatasize, 0x04))\n      shr(0xe0, calldataload(0x00))\n      dup1\n      0xc4552791\n      eq\n      tag_3\n      jumpi\n    tag_2:\n      0x00\n      dup1\n      revert\n        /* \"plants/nft/contracts/ERC721Tradable.sol\":653:708  mapping(address => OwnableDelegateProxy) public proxies */\n    tag_3:\n      tag_4\n      0x04\n      dup1\n      calldatasize\n      sub\n      dup2\n      add\n      swap1\n      tag_5\n      swap2\n      swap1\n      tag_6\n      jump\t// in\n    tag_5:\n      tag_7\n      jump\t// in\n    tag_4:\n      mload(0x40)\n      tag_8\n      swap2\n      swap1\n      tag_9\n      jump\t// in\n    tag_8:\n      mload(0x40)\n      dup1\n      swap2\n      sub\n      swap1\n      return\n    tag_7:\n      mstore(0x20, 0x00)\n      dup1\n      0x00\n      mstore\n      keccak256(0x00, 0x40)\n      0x00\n      swap2\n      pop\n      sload\n      swap1\n      0x0100\n      exp\n      swap1\n      div\n      0xffffffffffffffffffffffffffffffffffffffff\n      and\n      dup2\n      jump\t// out\n        /* \"#utility.yul\":7:146   */\n    tag_11:\n        /* \"#utility.yul\":53:58   */\n      0x00\n        /* \"#utility.yul\":91:97   */\n      dup2\n        /* \"#utility.yul\":78:98   */\n      calldataload\n        /* \"#utility.yul\":69:98   */\n      swap1\n      pop\n        /* \"#utility.yul\":107:140   */\n      tag_13\n        /* \"#utility.yul\":134:139   */\n      dup2\n        /* \"#utility.yul\":107:140   */\n      tag_14\n      jump\t// in\n    tag_13:\n        /* \"#utility.yul\":7:146   */\n      swap3\n      swap2\n      pop\n      pop\n      jump\t// out\n        /* \"#utility.yul\":152:481   */\n    tag_6:\n        /* \"#utility.yul\":211:217   */\n      0x00\n        /* \"#utility.yul\":260:262   */\n      0x20\n        /* \"#utility.yul\":248:257   */\n      dup3\n        /* \"#utility.yul\":239:246   */\n      dup5\n        /* \"#utility.yul\":235:258   */\n      sub\n        /* \"#utility.yul\":231:263   */\n      slt\n        /* \"#utility.yul\":228:347   */\n      iszero\n      tag_16\n      jumpi\n        /* \"#utility.yul\":266:345   */\n      tag_17\n      tag_18\n      jump\t// in\n    tag_17:\n        /* \"#utility.yul\":228:347   */\n    tag_16:\n        /* \"#utility.yul\":386:387   */\n      0x00\n        /* \"#utility.yul\":411:464   */\n      tag_19\n        /* \"#utility.yul\":456:463   */\n      dup5\n        /* \"#utility.yul\":447:453   */\n      dup3\n        /* \"#utility.yul\":436:445   */\n      dup6\n        /* \"#utility.yul\":432:454   */\n      add\n        /* \"#utility.yul\":411:464   */\n      tag_11\n      jump\t// in\n    tag_19:\n        /* \"#utility.yul\":401:464   */\n      swap2\n      pop\n        /* \"#utility.yul\":357:474   */\n      pop\n        /* \"#utility.yul\":152:481   */\n      swap3\n      swap2\n      pop\n      pop\n      jump\t// out\n        /* \"#utility.yul\":487:676   */\n    tag_20:\n        /* \"#utility.yul\":603:669   */\n      tag_22\n        /* \"#utility.yul\":663:668   */\n      dup2\n        /* \"#utility.yul\":603:669   */\n      tag_23\n      jump\t// in\n    tag_22:\n        /* \"#utility.yul\":598:601   */\n      dup3\n        /* \"#utility.yul\":591:670   */\n      mstore\n        /* \"#utility.yul\":487:676   */\n      pop\n      pop\n      jump\t// out\n        /* \"#utility.yul\":682:962   */\n    tag_9:\n        /* \"#utility.yul\":804:808   */\n      0x00\n        /* \"#utility.yul\":842:844   */\n      0x20\n        /* \"#utility.yul\":831:840   */\n      dup3\n        /* \"#utility.yul\":827:845   */\n      add\n        /* \"#utility.yul\":819:845   */\n      swap1\n      pop\n        /* \"#utility.yul\":855:955   */\n      tag_25\n        /* \"#utility.yul\":952:953   */\n      0x00\n        /* \"#utility.yul\":941:950   */\n      dup4\n        /* \"#utility.yul\":937:954   */\n      add\n        /* \"#utility.yul\":928:934   */\n      dup5\n        /* \"#utility.yul\":855:955   */\n      tag_20\n      jump\t// in\n    tag_25:\n        /* \"#utility.yul\":682:962   */\n      swap3\n      swap2\n      pop\n      pop\n      jump\t// out\n        /* \"#utility.yul\":1049:1145   */\n    tag_28:\n        /* \"#utility.yul\":1086:1093   */\n      0x00\n        /* \"#utility.yul\":1115:1139   */\n      tag_30\n        /* \"#utility.yul\":1133:1138   */\n      dup3\n        /* \"#utility.yul\":1115:1139   */\n      tag_31\n      jump\t// in\n    tag_30:\n        /* \"#utility.yul\":1104:1139   */\n      swap1\n      pop\n        /* \"#utility.yul\":1049:1145   */\n      swap2\n      swap1\n      pop\n      jump\t// out\n        /* \"#utility.yul\":1151:1277   */\n    tag_31:\n        /* \"#utility.yul\":1188:1195   */\n      0x00\n        /* \"#utility.yul\":1228:1270   */\n      0xffffffffffffffffffffffffffffffffffffffff\n        /* \"#utility.yul\":1221:1226   */\n      dup3\n        /* \"#utility.yul\":1217:1271   */\n      and\n        /* \"#utility.yul\":1206:1271   */\n      swap1\n      pop\n        /* \"#utility.yul\":1151:1277   */\n      swap2\n      swap1\n      pop\n      jump\t// out\n        /* \"#utility.yul\":1283:1438   */\n    tag_23:\n        /* \"#utility.yul\":1362:1371   */\n      0x00\n        /* \"#utility.yul\":1395:1432   */\n      tag_34\n        /* \"#utility.yul\":1426:1431   */\n      dup3\n        /* \"#utility.yul\":1395:1432   */\n      tag_35\n      jump\t// in\n    tag_34:\n        /* \"#utility.yul\":1382:1432   */\n      swap1\n      pop\n        /* \"#utility.yul\":1283:1438   */\n      swap2\n      swap1\n      pop\n      jump\t// out\n        /* \"#utility.yul\":1444:1570   */\n    tag_35:\n        /* \"#utility.yul\":1494:1503   */\n      0x00\n        /* \"#utility.yul\":1527:1564   */\n      tag_37\n        /* \"#utility.yul\":1558:1563   */\n      dup3\n        /* \"#utility.yul\":1527:1564   */\n      tag_38\n      jump\t// in\n    tag_37:\n        /* \"#utility.yul\":1514:1564   */\n      swap1\n      pop\n        /* \"#utility.yul\":1444:1570   */\n      swap2\n      swap1\n      pop\n      jump\t// out\n        /* \"#utility.yul\":1576:1689   */\n    tag_38:\n        /* \"#utility.yul\":1626:1635   */\n      0x00\n        /* \"#utility.yul\":1659:1683   */\n      tag_40\n        /* \"#utility.yul\":1677:1682   */\n      dup3\n        /* \"#utility.yul\":1659:1683   */\n      tag_31\n      jump\t// in\n    tag_40:\n        /* \"#utility.yul\":1646:1683   */\n      swap1\n      pop\n        /* \"#utility.yul\":1576:1689   */\n      swap2\n      swap1\n      pop\n      jump\t// out\n        /* \"#utility.yul\":1818:1935   */\n    tag_18:\n        /* \"#utility.yul\":1927:1928   */\n      0x00\n        /* \"#utility.yul\":1924:1925   */\n      dup1\n        /* \"#utility.yul\":1917:1929   */\n      revert\n        /* \"#utility.yul\":1941:2063   */\n    tag_14:\n        /* \"#utility.yul\":2014:2038   */\n      tag_45\n        /* \"#utility.yul\":2032:2037   */\n      dup2\n        /* \"#utility.yul\":2014:2038   */\n      tag_28\n      jump\t// in\n    tag_45:\n        /* \"#utility.yul\":2007:2012   */\n      dup2\n        /* \"#utility.yul\":2004:2039   */\n      eq\n        /* \"#utility.yul\":1994:2057   */\n      tag_46\n      jumpi\n        /* \"#utility.yul\":2053:2054   */\n      0x00\n        /* \"#utility.yul\":2050:2051   */\n      dup1\n        /* \"#utility.yul\":2043:2055   */\n      revert\n        /* \"#utility.yul\":1994:2057   */\n    tag_46:\n        /* \"#utility.yul\":1941:2063   */\n      pop\n      jump\t// out\n\n    auxdata: 0xa26469706673582212200083c3b18fd0bca64cc464270f4e395b45f184d8831d37cb1aba492aeb889ec264736f6c63430008070033\n}\n",
				"bytecode": {
					"linkReferences": {},
					"object": "608060405234801561001057600080fd5b506101b9806100206000396000f3fe608060405234801561001057600080fd5b506004361061002b5760003560e01c8063c455279114610030575b600080fd5b61004a600480360381019061004591906100a8565b610060565b60405161005791906100e4565b60405180910390f35b60006020528060005260406000206000915054906101000a900473ffffffffffffffffffffffffffffffffffffffff1681565b6000813590506100a28161016c565b92915050565b6000602082840312156100be576100bd610167565b5b60006100cc84828501610093565b91505092915050565b6100de81610131565b82525050565b60006020820190506100f960008301846100d5565b92915050565b600061010a82610111565b9050919050565b600073ffffffffffffffffffffffffffffffffffffffff82169050919050565b600061013c82610143565b9050919050565b600061014e82610155565b9050919050565b600061016082610111565b9050919050565b600080fd5b610175816100ff565b811461018057600080fd5b5056fea26469706673582212200083c3b18fd0bca64cc464270f4e395b45f184d8831d37cb1aba492aeb889ec264736f6c63430008070033",
					"opcodes": "PUSH1 0x80 PUSH1 0x40 MSTORE CALLVALUE DUP1 ISZERO PUSH2 0x10 JUMPI PUSH1 0x0 DUP1 REVERT JUMPDEST POP PUSH2 0x1B9 DUP1 PUSH2 0x20 PUSH1 0x0 CODECOPY PUSH1 0x0 RETURN INVALID PUSH1 0x80 PUSH1 0x40 MSTORE CALLVALUE DUP1 ISZERO PUSH2 0x10 JUMPI PUSH1 0x0 DUP1 REVERT JUMPDEST POP PUSH1 0x4 CALLDATASIZE LT PUSH2 0x2B JUMPI PUSH1 0x0 CALLDATALOAD PUSH1 0xE0 SHR DUP1 PUSH4 0xC4552791 EQ PUSH2 0x30 JUMPI JUMPDEST PUSH1 0x0 DUP1 REVERT JUMPDEST PUSH2 0x4A PUSH1 0x4 DUP1 CALLDATASIZE SUB DUP2 ADD SWAP1 PUSH2 0x45 SWAP2 SWAP1 PUSH2 0xA8 JUMP JUMPDEST PUSH2 0x60 JUMP JUMPDEST PUSH1 0x40 MLOAD PUSH2 0x57 SWAP2 SWAP1 PUSH2 0xE4 JUMP JUMPDEST PUSH1 0x40 MLOAD DUP1 SWAP2 SUB SWAP1 RETURN JUMPDEST PUSH1 0x0 PUSH1 0x20 MSTORE DUP1 PUSH1 0x0 MSTORE PUSH1 0x40 PUSH1 0x0 KECCAK256 PUSH1 0x0 SWAP2 POP SLOAD SWAP1 PUSH2 0x100 EXP SWAP1 DIV PUSH20 0xFFFFFFFFFFFFFFFFFFFFFFFFFFFFFFFFFFFFFFFF AND DUP2 JUMP JUMPDEST PUSH1 0x0 DUP2 CALLDATALOAD SWAP1 POP PUSH2 0xA2 DUP2 PUSH2 0x16C JUMP JUMPDEST SWAP3 SWAP2 POP POP JUMP JUMPDEST PUSH1 0x0 PUSH1 0x20 DUP3 DUP5 SUB SLT ISZERO PUSH2 0xBE JUMPI PUSH2 0xBD PUSH2 0x167 JUMP JUMPDEST JUMPDEST PUSH1 0x0 PUSH2 0xCC DUP5 DUP3 DUP6 ADD PUSH2 0x93 JUMP JUMPDEST SWAP2 POP POP SWAP3 SWAP2 POP POP JUMP JUMPDEST PUSH2 0xDE DUP2 PUSH2 0x131 JUMP JUMPDEST DUP3 MSTORE POP POP JUMP JUMPDEST PUSH1 0x0 PUSH1 0x20 DUP3 ADD SWAP1 POP PUSH2 0xF9 PUSH1 0x0 DUP4 ADD DUP5 PUSH2 0xD5 JUMP JUMPDEST SWAP3 SWAP2 POP POP JUMP JUMPDEST PUSH1 0x0 PUSH2 0x10A DUP3 PUSH2 0x111 JUMP JUMPDEST SWAP1 POP SWAP2 SWAP1 POP JUMP JUMPDEST PUSH1 0x0 PUSH20 0xFFFFFFFFFFFFFFFFFFFFFFFFFFFFFFFFFFFFFFFF DUP3 AND SWAP1 POP SWAP2 SWAP1 POP JUMP JUMPDEST PUSH1 0x0 PUSH2 0x13C DUP3 PUSH2 0x143 JUMP JUMPDEST SWAP1 POP SWAP2 SWAP1 POP JUMP JUMPDEST PUSH1 0x0 PUSH2 0x14E DUP3 PUSH2 0x155 JUMP JUMPDEST SWAP1 POP SWAP2 SWAP1 POP JUMP JUMPDEST PUSH1 0x0 PUSH2 0x160 DUP3 PUSH2 0x111 JUMP JUMPDEST SWAP1 POP SWAP2 SWAP1 POP JUMP JUMPDEST PUSH1 0x0 DUP1 REVERT JUMPDEST PUSH2 0x175 DUP2 PUSH2 0xFF JUMP JUMPDEST DUP2 EQ PUSH2 0x180 JUMPI PUSH1 0x0 DUP1 REVERT JUMPDEST POP JUMP INVALID LOG2 PUSH5 0x6970667358 0x22 SLT KECCAK256 STOP DUP4 0xC3 0xB1 DUP16 0xD0 0xBC 0xA6 0x4C 0xC4 PUSH5 0x270F4E395B GASLIMIT CALL DUP5 0xD8 DUP4 SAR CALLDATACOPY 0xCB BYTE 0xBA 0x49 0x2A 0xEB DUP9 SWAP15 0xC2 PUSH5 0x736F6C6343 STOP ADDMOD SMOD STOP CALLER "
				},
				"gasEstimates": {
					"creation": {
						"codeDepositCost": "88200",
						"executionCost": "135",
						"totalCost": "88335"
					},
					"external": {
						"proxies(address)": "infinite"
					}
				},
				"methodIdentifiers": {
					"proxies(address)": "c4552791"
				}
			},
			"storageLayout": {
				"storage": [
					{
						"astId": 2089,
						"contract": "plants/nft/contracts/ERC721Tradable.sol:ProxyRegistry",
						"label": "proxies",
						"offset": 0,
						"slot": "0",
						"type": "t_mapping(t_address,t_contract(OwnableDelegateProxy)2083)"
					}
				],
				"types": {
					"t_address": {
						"encoding": "inplace",
						"label": "address",
						"numberOfBytes": "20"
					},
					"t_contract(OwnableDelegateProxy)2083": {
						"encoding": "inplace",
						"label": "contract OwnableDelegateProxy",
						"numberOfBytes": "20"
					},
					"t_mapping(t_address,t_contract(OwnableDelegateProxy)2083)": {
						"encoding": "mapping",
						"key": "t_address",
						"label": "mapping(address => contract OwnableDelegateProxy)",
						"numberOfBytes": "32",
						"value": "t_contract(OwnableDelegateProxy)2083"
					}
				}
			},
			"userdoc": {
				"kind": "user",
				"methods": {},
				"notice": "Used to delegate ownership of a contract to another address, to save on unneeded transactions to approve contract use for users",
				"version": 1
			}
		}
	}
}