{
	"plants/nft/contracts/CosSin.sol": {
		"CosSin": {
			"abi": [
				{
					"inputs": [
						{
							"internalType": "uint256",
							"name": "_radiant",
							"type": "uint256"
						}
					],
					"name": "cos",
					"outputs": [
						{
							"internalType": "bool",
							"name": "_sign",
							"type": "bool"
						},
						{
							"internalType": "uint256",
							"name": "_output",
							"type": "uint256"
						}
					],
					"stateMutability": "view",
					"type": "function"
				},
				{
					"inputs": [
						{
							"internalType": "uint256",
							"name": "_radiant",
							"type": "uint256"
						}
					],
					"name": "sin",
					"outputs": [
						{
							"internalType": "bool",
							"name": "_sign",
							"type": "bool"
						},
						{
							"internalType": "uint256",
							"name": "_output",
							"type": "uint256"
						}
					],
					"stateMutability": "view",
					"type": "function"
				}
			],
			"devdoc": {
				"kind": "dev",
				"methods": {},
				"version": 1
			},
			"evm": {
				"assembly": "    /* \"plants/nft/contracts/CosSin.sol\":61:1930  contract CosSin {... */\n  mstore(0x40, 0x80)\n    /* \"plants/nft/contracts/CosSin.sol\":92:104  314159265359 */\n  0x492559f64f\n    /* \"plants/nft/contracts/CosSin.sol\":82:104  uint pi = 314159265359 */\n  0x00\n  sstore\n    /* \"plants/nft/contracts/CosSin.sol\":61:1930  contract CosSin {... */\n  callvalue\n  dup1\n  iszero\n  tag_1\n  jumpi\n  0x00\n  dup1\n  revert\ntag_1:\n  pop\n  dataSize(sub_0)\n  dup1\n  dataOffset(sub_0)\n  0x00\n  codecopy\n  0x00\n  return\nstop\n\nsub_0: assembly {\n        /* \"plants/nft/contracts/CosSin.sol\":61:1930  contract CosSin {... */\n      mstore(0x40, 0x80)\n      callvalue\n      dup1\n      iszero\n      tag_1\n      jumpi\n      0x00\n      dup1\n      revert\n    tag_1:\n      pop\n      jumpi(tag_2, lt(calldatasize, 0x04))\n      shr(0xe0, calldataload(0x00))\n      dup1\n      0xa58b00ba\n      eq\n      tag_3\n      jumpi\n      dup1\n      0xcb5cc109\n      eq\n      tag_4\n      jumpi\n    tag_2:\n      0x00\n      dup1\n      revert\n        /* \"plants/nft/contracts/CosSin.sol\":320:1502  function cos(uint _radiant) public  view returns (bool _sign, uint _output) {... */\n    tag_3:\n      tag_5\n      0x04\n      dup1\n      calldatasize\n      sub\n      dup2\n      add\n      swap1\n      tag_6\n      swap2\n      swap1\n      tag_7\n      jump\t// in\n    tag_6:\n      tag_8\n      jump\t// in\n    tag_5:\n      mload(0x40)\n      tag_9\n      swap3\n      swap2\n      swap1\n      tag_10\n      jump\t// in\n    tag_9:\n      mload(0x40)\n      dup1\n      swap2\n      sub\n      swap1\n      return\n        /* \"plants/nft/contracts/CosSin.sol\":1509:1926  function sin(uint _radiant) public view returns (bool _sign, uint _output) {... */\n    tag_4:\n      tag_11\n      0x04\n      dup1\n      calldatasize\n      sub\n      dup2\n      add\n      swap1\n      tag_12\n      swap2\n      swap1\n      tag_7\n      jump\t// in\n    tag_12:\n      tag_13\n      jump\t// in\n    tag_11:\n      mload(0x40)\n      tag_14\n      swap3\n      swap2\n      swap1\n      tag_10\n      jump\t// in\n    tag_14:\n      mload(0x40)\n      dup1\n      swap2\n      sub\n      swap1\n      return\n        /* \"plants/nft/contracts/CosSin.sol\":320:1502  function cos(uint _radiant) public  view returns (bool _sign, uint _output) {... */\n    tag_8:\n        /* \"plants/nft/contracts/CosSin.sol\":370:380  bool _sign */\n      0x00\n        /* \"plants/nft/contracts/CosSin.sol\":382:394  uint _output */\n      dup1\n        /* \"plants/nft/contracts/CosSin.sol\":415:423  _radiant */\n      dup3\n        /* \"plants/nft/contracts/CosSin.sol\":412:413  0 */\n      0x00\n        /* \"plants/nft/contracts/CosSin.sol\":412:423  0<=_radiant */\n      gt\n      iszero\n        /* \"plants/nft/contracts/CosSin.sol\":412:443  0<=_radiant && _radiant <= 2*pi */\n      dup1\n      iszero\n      tag_16\n      jumpi\n      pop\n        /* \"plants/nft/contracts/CosSin.sol\":441:443  pi */\n      sload(0x00)\n        /* \"plants/nft/contracts/CosSin.sol\":439:440  2 */\n      0x02\n        /* \"plants/nft/contracts/CosSin.sol\":439:443  2*pi */\n      tag_17\n      swap2\n      swap1\n      tag_18\n      jump\t// in\n    tag_17:\n        /* \"plants/nft/contracts/CosSin.sol\":427:435  _radiant */\n      dup4\n        /* \"plants/nft/contracts/CosSin.sol\":427:443  _radiant <= 2*pi */\n      gt\n      iszero\n        /* \"plants/nft/contracts/CosSin.sol\":412:443  0<=_radiant && _radiant <= 2*pi */\n    tag_16:\n        /* \"plants/nft/contracts/CosSin.sol\":402:526  require( (0<=_radiant && _radiant <= 2*pi) , \"Please choose _radiant between 0 and 2*pi=628318530718. Note: radiant*10^11.\") */\n      tag_19\n      jumpi\n      mload(0x40)\n      0x08c379a000000000000000000000000000000000000000000000000000000000\n      dup2\n      mstore\n      0x04\n      add\n      tag_20\n      swap1\n      tag_21\n      jump\t// in\n    tag_20:\n      mload(0x40)\n      dup1\n      swap2\n      sub\n      swap1\n      revert\n    tag_19:\n        /* \"plants/nft/contracts/CosSin.sol\":532:538  uint n */\n      0x00\n        /* \"plants/nft/contracts/CosSin.sol\":541:552  _pow(10,11) */\n      tag_22\n        /* \"plants/nft/contracts/CosSin.sol\":546:548  10 */\n      0x0a\n        /* \"plants/nft/contracts/CosSin.sol\":549:551  11 */\n      0x0b\n        /* \"plants/nft/contracts/CosSin.sol\":541:545  _pow */\n      tag_23\n        /* \"plants/nft/contracts/CosSin.sol\":541:552  _pow(10,11) */\n      jump\t// in\n    tag_22:\n        /* \"plants/nft/contracts/CosSin.sol\":532:552  uint n = _pow(10,11) */\n      swap1\n      pop\n        /* \"plants/nft/contracts/CosSin.sol\":826:827  2 */\n      0x02\n        /* \"plants/nft/contracts/CosSin.sol\":823:825  pi */\n      sload(0x00)\n        /* \"plants/nft/contracts/CosSin.sol\":823:827  pi/2 */\n      tag_24\n      swap2\n      swap1\n      tag_25\n      jump\t// in\n    tag_24:\n        /* \"plants/nft/contracts/CosSin.sol\":811:819  _radiant */\n      dup5\n        /* \"plants/nft/contracts/CosSin.sol\":811:827  _radiant == pi/2 */\n      eq\n        /* \"plants/nft/contracts/CosSin.sol\":811:851  _radiant == pi/2 || _radiant == (3*pi)/2 */\n      dup1\n      tag_26\n      jumpi\n      pop\n        /* \"plants/nft/contracts/CosSin.sol\":850:851  2 */\n      0x02\n        /* \"plants/nft/contracts/CosSin.sol\":846:848  pi */\n      sload(0x00)\n        /* \"plants/nft/contracts/CosSin.sol\":844:845  3 */\n      0x03\n        /* \"plants/nft/contracts/CosSin.sol\":844:848  3*pi */\n      tag_27\n      swap2\n      swap1\n      tag_18\n      jump\t// in\n    tag_27:\n        /* \"plants/nft/contracts/CosSin.sol\":843:851  (3*pi)/2 */\n      tag_28\n      swap2\n      swap1\n      tag_25\n      jump\t// in\n    tag_28:\n        /* \"plants/nft/contracts/CosSin.sol\":831:839  _radiant */\n      dup5\n        /* \"plants/nft/contracts/CosSin.sol\":831:851  _radiant == (3*pi)/2 */\n      eq\n        /* \"plants/nft/contracts/CosSin.sol\":811:851  _radiant == pi/2 || _radiant == (3*pi)/2 */\n    tag_26:\n        /* \"plants/nft/contracts/CosSin.sol\":807:1498  if (_radiant == pi/2 || _radiant == (3*pi)/2 ) {... */\n      iszero\n      tag_29\n      jumpi\n        /* \"plants/nft/contracts/CosSin.sol\":872:876  true */\n      0x01\n        /* \"plants/nft/contracts/CosSin.sol\":862:876  _sign   = true */\n      swap3\n      pop\n        /* \"plants/nft/contracts/CosSin.sol\":894:895  0 */\n      0x00\n        /* \"plants/nft/contracts/CosSin.sol\":884:895  _output = 0 */\n      swap2\n      pop\n        /* \"plants/nft/contracts/CosSin.sol\":807:1498  if (_radiant == pi/2 || _radiant == (3*pi)/2 ) {... */\n      jump(tag_30)\n    tag_29:\n        /* \"plants/nft/contracts/CosSin.sol\":935:936  2 */\n      0x02\n        /* \"plants/nft/contracts/CosSin.sol\":932:934  pi */\n      sload(0x00)\n        /* \"plants/nft/contracts/CosSin.sol\":932:936  pi/2 */\n      tag_31\n      swap2\n      swap1\n      tag_25\n      jump\t// in\n    tag_31:\n        /* \"plants/nft/contracts/CosSin.sol\":921:929  _radiant */\n      dup5\n        /* \"plants/nft/contracts/CosSin.sol\":921:936  _radiant < pi/2 */\n      lt\n        /* \"plants/nft/contracts/CosSin.sol\":916:1290  if ( _radiant < pi/2 ) {... */\n      iszero\n      tag_32\n      jumpi\n        /* \"plants/nft/contracts/CosSin.sol\":957:961  true */\n      0x01\n        /* \"plants/nft/contracts/CosSin.sol\":949:961  _sign = true */\n      swap3\n      pop\n        /* \"plants/nft/contracts/CosSin.sol\":916:1290  if ( _radiant < pi/2 ) {... */\n      jump(tag_33)\n    tag_32:\n        /* \"plants/nft/contracts/CosSin.sol\":1016:1018  pi */\n      sload(0x00)\n        /* \"plants/nft/contracts/CosSin.sol\":1004:1012  _radiant */\n      dup5\n        /* \"plants/nft/contracts/CosSin.sol\":1004:1018  _radiant <= pi */\n      gt\n        /* \"plants/nft/contracts/CosSin.sol\":1000:1290  if (_radiant <= pi ){... */\n      tag_34\n      jumpi\n        /* \"plants/nft/contracts/CosSin.sol\":1040:1045  false */\n      0x00\n        /* \"plants/nft/contracts/CosSin.sol\":1032:1045  _sign = false */\n      swap3\n      pop\n        /* \"plants/nft/contracts/CosSin.sol\":1071:1079  _radiant */\n      dup4\n        /* \"plants/nft/contracts/CosSin.sol\":1068:1070  pi */\n      sload(0x00)\n        /* \"plants/nft/contracts/CosSin.sol\":1068:1079  pi-_radiant */\n      tag_35\n      swap2\n      swap1\n      tag_36\n      jump\t// in\n    tag_35:\n        /* \"plants/nft/contracts/CosSin.sol\":1057:1079  _radiant = pi-_radiant */\n      swap4\n      pop\n        /* \"plants/nft/contracts/CosSin.sol\":1000:1290  if (_radiant <= pi ){... */\n      jump(tag_37)\n    tag_34:\n        /* \"plants/nft/contracts/CosSin.sol\":1118:1119  2 */\n      0x02\n        /* \"plants/nft/contracts/CosSin.sol\":1114:1116  pi */\n      sload(0x00)\n        /* \"plants/nft/contracts/CosSin.sol\":1112:1113  3 */\n      0x03\n        /* \"plants/nft/contracts/CosSin.sol\":1112:1116  3*pi */\n      tag_38\n      swap2\n      swap1\n      tag_18\n      jump\t// in\n    tag_38:\n        /* \"plants/nft/contracts/CosSin.sol\":1111:1119  (3*pi)/2 */\n      tag_39\n      swap2\n      swap1\n      tag_25\n      jump\t// in\n    tag_39:\n        /* \"plants/nft/contracts/CosSin.sol\":1100:1108  _radiant */\n      dup5\n        /* \"plants/nft/contracts/CosSin.sol\":1100:1119  _radiant < (3*pi)/2 */\n      lt\n        /* \"plants/nft/contracts/CosSin.sol\":1096:1290  if (_radiant < (3*pi)/2 ){... */\n      iszero\n      tag_40\n      jumpi\n        /* \"plants/nft/contracts/CosSin.sol\":1141:1146  false */\n      0x00\n        /* \"plants/nft/contracts/CosSin.sol\":1133:1146  _sign = false */\n      swap3\n      pop\n        /* \"plants/nft/contracts/CosSin.sol\":1178:1180  pi */\n      sload(0x00)\n        /* \"plants/nft/contracts/CosSin.sol\":1169:1177  _radiant */\n      dup5\n        /* \"plants/nft/contracts/CosSin.sol\":1169:1180  _radiant-pi */\n      tag_41\n      swap2\n      swap1\n      tag_36\n      jump\t// in\n    tag_41:\n        /* \"plants/nft/contracts/CosSin.sol\":1158:1180  _radiant = _radiant-pi */\n      swap4\n      pop\n        /* \"plants/nft/contracts/CosSin.sol\":1096:1290  if (_radiant < (3*pi)/2 ){... */\n      jump(tag_42)\n    tag_40:\n        /* \"plants/nft/contracts/CosSin.sol\":1215:1217  pi */\n      sload(0x00)\n        /* \"plants/nft/contracts/CosSin.sol\":1213:1214  2 */\n      0x02\n        /* \"plants/nft/contracts/CosSin.sol\":1213:1217  2*pi */\n      tag_43\n      swap2\n      swap1\n      tag_18\n      jump\t// in\n    tag_43:\n        /* \"plants/nft/contracts/CosSin.sol\":1201:1209  _radiant */\n      dup5\n        /* \"plants/nft/contracts/CosSin.sol\":1201:1217  _radiant <= 2*pi */\n      gt\n        /* \"plants/nft/contracts/CosSin.sol\":1197:1290  if (_radiant <= 2*pi ){... */\n      tag_44\n      jumpi\n        /* \"plants/nft/contracts/CosSin.sol\":1239:1243  true */\n      0x01\n        /* \"plants/nft/contracts/CosSin.sol\":1231:1243  _sign = true */\n      swap3\n      pop\n        /* \"plants/nft/contracts/CosSin.sol\":1271:1279  _radiant */\n      dup4\n        /* \"plants/nft/contracts/CosSin.sol\":1268:1270  pi */\n      sload(0x00)\n        /* \"plants/nft/contracts/CosSin.sol\":1266:1267  2 */\n      0x02\n        /* \"plants/nft/contracts/CosSin.sol\":1266:1270  2*pi */\n      tag_45\n      swap2\n      swap1\n      tag_18\n      jump\t// in\n    tag_45:\n        /* \"plants/nft/contracts/CosSin.sol\":1266:1279  2*pi-_radiant */\n      tag_46\n      swap2\n      swap1\n      tag_36\n      jump\t// in\n    tag_46:\n        /* \"plants/nft/contracts/CosSin.sol\":1255:1279  _radiant = 2*pi-_radiant */\n      swap4\n      pop\n        /* \"plants/nft/contracts/CosSin.sol\":1197:1290  if (_radiant <= 2*pi ){... */\n    tag_44:\n        /* \"plants/nft/contracts/CosSin.sol\":1096:1290  if (_radiant < (3*pi)/2 ){... */\n    tag_42:\n        /* \"plants/nft/contracts/CosSin.sol\":1000:1290  if (_radiant <= pi ){... */\n    tag_37:\n        /* \"plants/nft/contracts/CosSin.sol\":916:1290  if ( _radiant < pi/2 ) {... */\n    tag_33:\n        /* \"plants/nft/contracts/CosSin.sol\":1312:1321  _pow(n,6) */\n      tag_47\n        /* \"plants/nft/contracts/CosSin.sol\":1317:1318  n */\n      dup2\n        /* \"plants/nft/contracts/CosSin.sol\":1319:1320  6 */\n      0x06\n        /* \"plants/nft/contracts/CosSin.sol\":1312:1316  _pow */\n      tag_23\n        /* \"plants/nft/contracts/CosSin.sol\":1312:1321  _pow(n,6) */\n      jump\t// in\n    tag_47:\n        /* \"plants/nft/contracts/CosSin.sol\":1308:1311  720 */\n      0x02d0\n        /* \"plants/nft/contracts/CosSin.sol\":1308:1321  720*_pow(n,6) */\n      tag_48\n      swap2\n      swap1\n      tag_18\n      jump\t// in\n    tag_48:\n        /* \"plants/nft/contracts/CosSin.sol\":1297:1321  _output  = 720*_pow(n,6) */\n      swap2\n      pop\n        /* \"plants/nft/contracts/CosSin.sol\":1355:1371  _pow(_radiant,2) */\n      tag_49\n        /* \"plants/nft/contracts/CosSin.sol\":1360:1368  _radiant */\n      dup5\n        /* \"plants/nft/contracts/CosSin.sol\":1369:1370  2 */\n      0x02\n        /* \"plants/nft/contracts/CosSin.sol\":1355:1359  _pow */\n      tag_23\n        /* \"plants/nft/contracts/CosSin.sol\":1355:1371  _pow(_radiant,2) */\n      jump\t// in\n    tag_49:\n        /* \"plants/nft/contracts/CosSin.sol\":1345:1354  _pow(n,4) */\n      tag_50\n        /* \"plants/nft/contracts/CosSin.sol\":1350:1351  n */\n      dup3\n        /* \"plants/nft/contracts/CosSin.sol\":1352:1353  4 */\n      0x04\n        /* \"plants/nft/contracts/CosSin.sol\":1345:1349  _pow */\n      tag_23\n        /* \"plants/nft/contracts/CosSin.sol\":1345:1354  _pow(n,4) */\n      jump\t// in\n    tag_50:\n        /* \"plants/nft/contracts/CosSin.sol\":1341:1344  360 */\n      0x0168\n        /* \"plants/nft/contracts/CosSin.sol\":1341:1354  360*_pow(n,4) */\n      tag_51\n      swap2\n      swap1\n      tag_18\n      jump\t// in\n    tag_51:\n        /* \"plants/nft/contracts/CosSin.sol\":1341:1371  360*_pow(n,4)*_pow(_radiant,2) */\n      tag_52\n      swap2\n      swap1\n      tag_18\n      jump\t// in\n    tag_52:\n        /* \"plants/nft/contracts/CosSin.sol\":1329:1372  _output -= (360*_pow(n,4)*_pow(_radiant,2)) */\n      dup3\n      tag_53\n      swap2\n      swap1\n      tag_36\n      jump\t// in\n    tag_53:\n      swap2\n      pop\n        /* \"plants/nft/contracts/CosSin.sol\":1405:1421  _pow(_radiant,4) */\n      tag_54\n        /* \"plants/nft/contracts/CosSin.sol\":1410:1418  _radiant */\n      dup5\n        /* \"plants/nft/contracts/CosSin.sol\":1419:1420  4 */\n      0x04\n        /* \"plants/nft/contracts/CosSin.sol\":1405:1409  _pow */\n      tag_23\n        /* \"plants/nft/contracts/CosSin.sol\":1405:1421  _pow(_radiant,4) */\n      jump\t// in\n    tag_54:\n        /* \"plants/nft/contracts/CosSin.sol\":1395:1404  _pow(n,2) */\n      tag_55\n        /* \"plants/nft/contracts/CosSin.sol\":1400:1401  n */\n      dup3\n        /* \"plants/nft/contracts/CosSin.sol\":1402:1403  2 */\n      0x02\n        /* \"plants/nft/contracts/CosSin.sol\":1395:1399  _pow */\n      tag_23\n        /* \"plants/nft/contracts/CosSin.sol\":1395:1404  _pow(n,2) */\n      jump\t// in\n    tag_55:\n        /* \"plants/nft/contracts/CosSin.sol\":1392:1394  30 */\n      0x1e\n        /* \"plants/nft/contracts/CosSin.sol\":1392:1404  30*_pow(n,2) */\n      tag_56\n      swap2\n      swap1\n      tag_18\n      jump\t// in\n    tag_56:\n        /* \"plants/nft/contracts/CosSin.sol\":1392:1421  30*_pow(n,2)*_pow(_radiant,4) */\n      tag_57\n      swap2\n      swap1\n      tag_18\n      jump\t// in\n    tag_57:\n        /* \"plants/nft/contracts/CosSin.sol\":1380:1422  _output += (30*_pow(n,2)*_pow(_radiant,4)) */\n      dup3\n      tag_58\n      swap2\n      swap1\n      tag_59\n      jump\t// in\n    tag_58:\n      swap2\n      pop\n        /* \"plants/nft/contracts/CosSin.sol\":1441:1457  _pow(_radiant,6) */\n      tag_60\n        /* \"plants/nft/contracts/CosSin.sol\":1446:1454  _radiant */\n      dup5\n        /* \"plants/nft/contracts/CosSin.sol\":1455:1456  6 */\n      0x06\n        /* \"plants/nft/contracts/CosSin.sol\":1441:1445  _pow */\n      tag_23\n        /* \"plants/nft/contracts/CosSin.sol\":1441:1457  _pow(_radiant,6) */\n      jump\t// in\n    tag_60:\n        /* \"plants/nft/contracts/CosSin.sol\":1430:1457  _output -= _pow(_radiant,6) */\n      dup3\n      tag_61\n      swap2\n      swap1\n      tag_36\n      jump\t// in\n    tag_61:\n      swap2\n      pop\n        /* \"plants/nft/contracts/CosSin.sol\":1481:1490  _pow(n,5) */\n      tag_62\n        /* \"plants/nft/contracts/CosSin.sol\":1486:1487  n */\n      dup2\n        /* \"plants/nft/contracts/CosSin.sol\":1488:1489  5 */\n      0x05\n        /* \"plants/nft/contracts/CosSin.sol\":1481:1485  _pow */\n      tag_23\n        /* \"plants/nft/contracts/CosSin.sol\":1481:1490  _pow(n,5) */\n      jump\t// in\n    tag_62:\n        /* \"plants/nft/contracts/CosSin.sol\":1477:1480  720 */\n      0x02d0\n        /* \"plants/nft/contracts/CosSin.sol\":1477:1490  720*_pow(n,5) */\n      tag_63\n      swap2\n      swap1\n      tag_18\n      jump\t// in\n    tag_63:\n        /* \"plants/nft/contracts/CosSin.sol\":1465:1491  _output /= (720*_pow(n,5)) */\n      dup3\n      tag_64\n      swap2\n      swap1\n      tag_25\n      jump\t// in\n    tag_64:\n      swap2\n      pop\n        /* \"plants/nft/contracts/CosSin.sol\":807:1498  if (_radiant == pi/2 || _radiant == (3*pi)/2 ) {... */\n    tag_30:\n        /* \"plants/nft/contracts/CosSin.sol\":396:1502  {... */\n      pop\n        /* \"plants/nft/contracts/CosSin.sol\":320:1502  function cos(uint _radiant) public  view returns (bool _sign, uint _output) {... */\n      swap2\n      pop\n      swap2\n      jump\t// out\n        /* \"plants/nft/contracts/CosSin.sol\":1509:1926  function sin(uint _radiant) public view returns (bool _sign, uint _output) {... */\n    tag_13:\n        /* \"plants/nft/contracts/CosSin.sol\":1558:1568  bool _sign */\n      0x00\n        /* \"plants/nft/contracts/CosSin.sol\":1570:1582  uint _output */\n      dup1\n        /* \"plants/nft/contracts/CosSin.sol\":1607:1615  _radiant */\n      dup3\n        /* \"plants/nft/contracts/CosSin.sol\":1604:1605  0 */\n      0x00\n        /* \"plants/nft/contracts/CosSin.sol\":1604:1615  0<=_radiant */\n      gt\n      iszero\n        /* \"plants/nft/contracts/CosSin.sol\":1604:1635  0<=_radiant && _radiant <= 2*pi */\n      dup1\n      iszero\n      tag_66\n      jumpi\n      pop\n        /* \"plants/nft/contracts/CosSin.sol\":1633:1635  pi */\n      sload(0x00)\n        /* \"plants/nft/contracts/CosSin.sol\":1631:1632  2 */\n      0x02\n        /* \"plants/nft/contracts/CosSin.sol\":1631:1635  2*pi */\n      tag_67\n      swap2\n      swap1\n      tag_18\n      jump\t// in\n    tag_67:\n        /* \"plants/nft/contracts/CosSin.sol\":1619:1627  _radiant */\n      dup4\n        /* \"plants/nft/contracts/CosSin.sol\":1619:1635  _radiant <= 2*pi */\n      gt\n      iszero\n        /* \"plants/nft/contracts/CosSin.sol\":1604:1635  0<=_radiant && _radiant <= 2*pi */\n    tag_66:\n        /* \"plants/nft/contracts/CosSin.sol\":1594:1718  require( (0<=_radiant && _radiant <= 2*pi) , \"Please choose _radiant between 0 and 2*pi=628318530718. Note: radiant*10^11.\") */\n      tag_68\n      jumpi\n      mload(0x40)\n      0x08c379a000000000000000000000000000000000000000000000000000000000\n      dup2\n      mstore\n      0x04\n      add\n      tag_69\n      swap1\n      tag_21\n      jump\t// in\n    tag_69:\n      mload(0x40)\n      dup1\n      swap2\n      sub\n      swap1\n      revert\n    tag_68:\n        /* \"plants/nft/contracts/CosSin.sol\":1768:1774  uint m */\n      0x00\n        /* \"plants/nft/contracts/CosSin.sol\":1780:1781  2 */\n      0x02\n        /* \"plants/nft/contracts/CosSin.sol\":1777:1779  pi */\n      sload(0x00)\n        /* \"plants/nft/contracts/CosSin.sol\":1777:1781  pi/2 */\n      tag_70\n      swap2\n      swap1\n      tag_25\n      jump\t// in\n    tag_70:\n        /* \"plants/nft/contracts/CosSin.sol\":1768:1781  uint m = pi/2 */\n      swap1\n      pop\n        /* \"plants/nft/contracts/CosSin.sol\":1807:1808  2 */\n      0x02\n        /* \"plants/nft/contracts/CosSin.sol\":1804:1806  pi */\n      sload(0x00)\n        /* \"plants/nft/contracts/CosSin.sol\":1804:1808  pi/2 */\n      tag_71\n      swap2\n      swap1\n      tag_25\n      jump\t// in\n    tag_71:\n        /* \"plants/nft/contracts/CosSin.sol\":1795:1803  _radiant */\n      dup5\n        /* \"plants/nft/contracts/CosSin.sol\":1795:1808  _radiant>pi/2 */\n      gt\n        /* \"plants/nft/contracts/CosSin.sol\":1791:1846  if (_radiant>pi/2) {... */\n      iszero\n      tag_72\n      jumpi\n        /* \"plants/nft/contracts/CosSin.sol\":1833:1835  pi */\n      sload(0x00)\n        /* \"plants/nft/contracts/CosSin.sol\":1831:1832  2 */\n      0x02\n        /* \"plants/nft/contracts/CosSin.sol\":1831:1835  2*pi */\n      tag_73\n      swap2\n      swap1\n      tag_18\n      jump\t// in\n    tag_73:\n        /* \"plants/nft/contracts/CosSin.sol\":1829:1830  2 */\n      0x02\n        /* \"plants/nft/contracts/CosSin.sol\":1826:1828  pi */\n      sload(0x00)\n        /* \"plants/nft/contracts/CosSin.sol\":1826:1830  pi/2 */\n      tag_74\n      swap2\n      swap1\n      tag_25\n      jump\t// in\n    tag_74:\n        /* \"plants/nft/contracts/CosSin.sol\":1826:1835  pi/2+2*pi */\n      tag_75\n      swap2\n      swap1\n      tag_59\n      jump\t// in\n    tag_75:\n        /* \"plants/nft/contracts/CosSin.sol\":1822:1835  m = pi/2+2*pi */\n      swap1\n      pop\n        /* \"plants/nft/contracts/CosSin.sol\":1791:1846  if (_radiant>pi/2) {... */\n    tag_72:\n        /* \"plants/nft/contracts/CosSin.sol\":1868:1876  _radiant */\n      dup4\n        /* \"plants/nft/contracts/CosSin.sol\":1866:1867  m */\n      dup2\n        /* \"plants/nft/contracts/CosSin.sol\":1866:1876  m-_radiant */\n      tag_76\n      swap2\n      swap1\n      tag_36\n      jump\t// in\n    tag_76:\n        /* \"plants/nft/contracts/CosSin.sol\":1855:1876  _radiant = m-_radiant */\n      swap4\n      pop\n        /* \"plants/nft/contracts/CosSin.sol\":1906:1919  cos(_radiant) */\n      tag_77\n        /* \"plants/nft/contracts/CosSin.sol\":1910:1918  _radiant */\n      dup5\n        /* \"plants/nft/contracts/CosSin.sol\":1906:1909  cos */\n      tag_8\n        /* \"plants/nft/contracts/CosSin.sol\":1906:1919  cos(_radiant) */\n      jump\t// in\n    tag_77:\n        /* \"plants/nft/contracts/CosSin.sol\":1886:1919  (_sign , _output) = cos(_radiant) */\n      dup1\n      swap4\n      pop\n      dup2\n      swap5\n      pop\n      pop\n      pop\n        /* \"plants/nft/contracts/CosSin.sol\":1584:1926  {... */\n      pop\n        /* \"plants/nft/contracts/CosSin.sol\":1509:1926  function sin(uint _radiant) public view returns (bool _sign, uint _output) {... */\n      swap2\n      pop\n      swap2\n      jump\t// out\n        /* \"plants/nft/contracts/CosSin.sol\":109:316  function _pow(uint _x, uint _p) internal pure returns (uint _y) {... */\n    tag_23:\n        /* \"plants/nft/contracts/CosSin.sol\":164:171  uint _y */\n      0x00\n        /* \"plants/nft/contracts/CosSin.sol\":191:192  0 */\n      dup1\n        /* \"plants/nft/contracts/CosSin.sol\":187:189  _p */\n      dup3\n        /* \"plants/nft/contracts/CosSin.sol\":187:192  _p>=0 */\n      lt\n      iszero\n        /* \"plants/nft/contracts/CosSin.sol\":179:210  require(_p>=0, \"Choose _p>=0.\") */\n      tag_79\n      jumpi\n      mload(0x40)\n      0x08c379a000000000000000000000000000000000000000000000000000000000\n      dup2\n      mstore\n      0x04\n      add\n      tag_80\n      swap1\n      tag_81\n      jump\t// in\n    tag_80:\n      mload(0x40)\n      dup1\n      swap2\n      sub\n      swap1\n      revert\n    tag_79:\n        /* \"plants/nft/contracts/CosSin.sol\":221:222  1 */\n      0x01\n        /* \"plants/nft/contracts/CosSin.sol\":216:222  _y = 1 */\n      swap1\n      pop\n        /* \"plants/nft/contracts/CosSin.sol\":235:236  0 */\n      0x00\n        /* \"plants/nft/contracts/CosSin.sol\":232:234  _p */\n      dup3\n        /* \"plants/nft/contracts/CosSin.sol\":232:236  _p>0 */\n      gt\n        /* \"plants/nft/contracts/CosSin.sol\":228:312  if (_p>0) {... */\n      iszero\n      tag_82\n      jumpi\n        /* \"plants/nft/contracts/CosSin.sol\":251:257  uint i */\n      0x00\n        /* \"plants/nft/contracts/CosSin.sol\":258:259  1 */\n      0x01\n        /* \"plants/nft/contracts/CosSin.sol\":251:259  uint i=1 */\n      swap1\n      pop\n        /* \"plants/nft/contracts/CosSin.sol\":246:304  for (uint i=1; i<=_p; i++) {... */\n    tag_83:\n        /* \"plants/nft/contracts/CosSin.sol\":264:266  _p */\n      dup3\n        /* \"plants/nft/contracts/CosSin.sol\":261:262  i */\n      dup2\n        /* \"plants/nft/contracts/CosSin.sol\":261:266  i<=_p */\n      gt\n        /* \"plants/nft/contracts/CosSin.sol\":246:304  for (uint i=1; i<=_p; i++) {... */\n      tag_84\n      jumpi\n        /* \"plants/nft/contracts/CosSin.sol\":291:293  _x */\n      dup4\n        /* \"plants/nft/contracts/CosSin.sol\":285:293  _y *= _x */\n      dup3\n      tag_86\n      swap2\n      swap1\n      tag_18\n      jump\t// in\n    tag_86:\n      swap2\n      pop\n        /* \"plants/nft/contracts/CosSin.sol\":268:271  i++ */\n      dup1\n      dup1\n      tag_87\n      swap1\n      tag_88\n      jump\t// in\n    tag_87:\n      swap2\n      pop\n      pop\n        /* \"plants/nft/contracts/CosSin.sol\":246:304  for (uint i=1; i<=_p; i++) {... */\n      jump(tag_83)\n    tag_84:\n      pop\n        /* \"plants/nft/contracts/CosSin.sol\":228:312  if (_p>0) {... */\n    tag_82:\n        /* \"plants/nft/contracts/CosSin.sol\":109:316  function _pow(uint _x, uint _p) internal pure returns (uint _y) {... */\n      swap3\n      swap2\n      pop\n      pop\n      jump\t// out\n        /* \"#utility.yul\":7:146   */\n    tag_90:\n        /* \"#utility.yul\":53:58   */\n      0x00\n        /* \"#utility.yul\":91:97   */\n      dup2\n        /* \"#utility.yul\":78:98   */\n      calldataload\n        /* \"#utility.yul\":69:98   */\n      swap1\n      pop\n        /* \"#utility.yul\":107:140   */\n      tag_92\n        /* \"#utility.yul\":134:139   */\n      dup2\n        /* \"#utility.yul\":107:140   */\n      tag_93\n      jump\t// in\n    tag_92:\n        /* \"#utility.yul\":7:146   */\n      swap3\n      swap2\n      pop\n      pop\n      jump\t// out\n        /* \"#utility.yul\":152:481   */\n    tag_7:\n        /* \"#utility.yul\":211:217   */\n      0x00\n        /* \"#utility.yul\":260:262   */\n      0x20\n        /* \"#utility.yul\":248:257   */\n      dup3\n        /* \"#utility.yul\":239:246   */\n      dup5\n        /* \"#utility.yul\":235:258   */\n      sub\n        /* \"#utility.yul\":231:263   */\n      slt\n        /* \"#utility.yul\":228:347   */\n      iszero\n      tag_95\n      jumpi\n        /* \"#utility.yul\":266:345   */\n      tag_96\n      tag_97\n      jump\t// in\n    tag_96:\n        /* \"#utility.yul\":228:347   */\n    tag_95:\n        /* \"#utility.yul\":386:387   */\n      0x00\n        /* \"#utility.yul\":411:464   */\n      tag_98\n        /* \"#utility.yul\":456:463   */\n      dup5\n        /* \"#utility.yul\":447:453   */\n      dup3\n        /* \"#utility.yul\":436:445   */\n      dup6\n        /* \"#utility.yul\":432:454   */\n      add\n        /* \"#utility.yul\":411:464   */\n      tag_90\n      jump\t// in\n    tag_98:\n        /* \"#utility.yul\":401:464   */\n      swap2\n      pop\n        /* \"#utility.yul\":357:474   */\n      pop\n        /* \"#utility.yul\":152:481   */\n      swap3\n      swap2\n      pop\n      pop\n      jump\t// out\n        /* \"#utility.yul\":487:596   */\n    tag_99:\n        /* \"#utility.yul\":568:589   */\n      tag_101\n        /* \"#utility.yul\":583:588   */\n      dup2\n        /* \"#utility.yul\":568:589   */\n      tag_102\n      jump\t// in\n    tag_101:\n        /* \"#utility.yul\":563:566   */\n      dup3\n        /* \"#utility.yul\":556:590   */\n      mstore\n        /* \"#utility.yul\":487:596   */\n      pop\n      pop\n      jump\t// out\n        /* \"#utility.yul\":602:968   */\n    tag_103:\n        /* \"#utility.yul\":744:747   */\n      0x00\n        /* \"#utility.yul\":765:832   */\n      tag_105\n        /* \"#utility.yul\":829:831   */\n      0x0d\n        /* \"#utility.yul\":824:827   */\n      dup4\n        /* \"#utility.yul\":765:832   */\n      tag_106\n      jump\t// in\n    tag_105:\n        /* \"#utility.yul\":758:832   */\n      swap2\n      pop\n        /* \"#utility.yul\":841:934   */\n      tag_107\n        /* \"#utility.yul\":930:933   */\n      dup3\n        /* \"#utility.yul\":841:934   */\n      tag_108\n      jump\t// in\n    tag_107:\n        /* \"#utility.yul\":959:961   */\n      0x20\n        /* \"#utility.yul\":954:957   */\n      dup3\n        /* \"#utility.yul\":950:962   */\n      add\n        /* \"#utility.yul\":943:962   */\n      swap1\n      pop\n        /* \"#utility.yul\":602:968   */\n      swap2\n      swap1\n      pop\n      jump\t// out\n        /* \"#utility.yul\":974:1340   */\n    tag_109:\n        /* \"#utility.yul\":1116:1119   */\n      0x00\n        /* \"#utility.yul\":1137:1204   */\n      tag_111\n        /* \"#utility.yul\":1201:1203   */\n      0x4c\n        /* \"#utility.yul\":1196:1199   */\n      dup4\n        /* \"#utility.yul\":1137:1204   */\n      tag_106\n      jump\t// in\n    tag_111:\n        /* \"#utility.yul\":1130:1204   */\n      swap2\n      pop\n        /* \"#utility.yul\":1213:1306   */\n      tag_112\n        /* \"#utility.yul\":1302:1305   */\n      dup3\n        /* \"#utility.yul\":1213:1306   */\n      tag_113\n      jump\t// in\n    tag_112:\n        /* \"#utility.yul\":1331:1333   */\n      0x60\n        /* \"#utility.yul\":1326:1329   */\n      dup3\n        /* \"#utility.yul\":1322:1334   */\n      add\n        /* \"#utility.yul\":1315:1334   */\n      swap1\n      pop\n        /* \"#utility.yul\":974:1340   */\n      swap2\n      swap1\n      pop\n      jump\t// out\n        /* \"#utility.yul\":1346:1464   */\n    tag_114:\n        /* \"#utility.yul\":1433:1457   */\n      tag_116\n        /* \"#utility.yul\":1451:1456   */\n      dup2\n        /* \"#utility.yul\":1433:1457   */\n      tag_117\n      jump\t// in\n    tag_116:\n        /* \"#utility.yul\":1428:1431   */\n      dup3\n        /* \"#utility.yul\":1421:1458   */\n      mstore\n        /* \"#utility.yul\":1346:1464   */\n      pop\n      pop\n      jump\t// out\n        /* \"#utility.yul\":1470:1790   */\n    tag_10:\n        /* \"#utility.yul\":1585:1589   */\n      0x00\n        /* \"#utility.yul\":1623:1625   */\n      0x40\n        /* \"#utility.yul\":1612:1621   */\n      dup3\n        /* \"#utility.yul\":1608:1626   */\n      add\n        /* \"#utility.yul\":1600:1626   */\n      swap1\n      pop\n        /* \"#utility.yul\":1636:1701   */\n      tag_119\n        /* \"#utility.yul\":1698:1699   */\n      0x00\n        /* \"#utility.yul\":1687:1696   */\n      dup4\n        /* \"#utility.yul\":1683:1700   */\n      add\n        /* \"#utility.yul\":1674:1680   */\n      dup6\n        /* \"#utility.yul\":1636:1701   */\n      tag_99\n      jump\t// in\n    tag_119:\n        /* \"#utility.yul\":1711:1783   */\n      tag_120\n        /* \"#utility.yul\":1779:1781   */\n      0x20\n        /* \"#utility.yul\":1768:1777   */\n      dup4\n        /* \"#utility.yul\":1764:1782   */\n      add\n        /* \"#utility.yul\":1755:1761   */\n      dup5\n        /* \"#utility.yul\":1711:1783   */\n      tag_114\n      jump\t// in\n    tag_120:\n        /* \"#utility.yul\":1470:1790   */\n      swap4\n      swap3\n      pop\n      pop\n      pop\n      jump\t// out\n        /* \"#utility.yul\":1796:2215   */\n    tag_81:\n        /* \"#utility.yul\":1962:1966   */\n      0x00\n        /* \"#utility.yul\":2000:2002   */\n      0x20\n        /* \"#utility.yul\":1989:1998   */\n      dup3\n        /* \"#utility.yul\":1985:2003   */\n      add\n        /* \"#utility.yul\":1977:2003   */\n      swap1\n      pop\n        /* \"#utility.yul\":2049:2058   */\n      dup2\n        /* \"#utility.yul\":2043:2047   */\n      dup2\n        /* \"#utility.yul\":2039:2059   */\n      sub\n        /* \"#utility.yul\":2035:2036   */\n      0x00\n        /* \"#utility.yul\":2024:2033   */\n      dup4\n        /* \"#utility.yul\":2020:2037   */\n      add\n        /* \"#utility.yul\":2013:2060   */\n      mstore\n        /* \"#utility.yul\":2077:2208   */\n      tag_122\n        /* \"#utility.yul\":2203:2207   */\n      dup2\n        /* \"#utility.yul\":2077:2208   */\n      tag_103\n      jump\t// in\n    tag_122:\n        /* \"#utility.yul\":2069:2208   */\n      swap1\n      pop\n        /* \"#utility.yul\":1796:2215   */\n      swap2\n      swap1\n      pop\n      jump\t// out\n        /* \"#utility.yul\":2221:2640   */\n    tag_21:\n        /* \"#utility.yul\":2387:2391   */\n      0x00\n        /* \"#utility.yul\":2425:2427   */\n      0x20\n        /* \"#utility.yul\":2414:2423   */\n      dup3\n        /* \"#utility.yul\":2410:2428   */\n      add\n        /* \"#utility.yul\":2402:2428   */\n      swap1\n      pop\n        /* \"#utility.yul\":2474:2483   */\n      dup2\n        /* \"#utility.yul\":2468:2472   */\n      dup2\n        /* \"#utility.yul\":2464:2484   */\n      sub\n        /* \"#utility.yul\":2460:2461   */\n      0x00\n        /* \"#utility.yul\":2449:2458   */\n      dup4\n        /* \"#utility.yul\":2445:2462   */\n      add\n        /* \"#utility.yul\":2438:2485   */\n      mstore\n        /* \"#utility.yul\":2502:2633   */\n      tag_124\n        /* \"#utility.yul\":2628:2632   */\n      dup2\n        /* \"#utility.yul\":2502:2633   */\n      tag_109\n      jump\t// in\n    tag_124:\n        /* \"#utility.yul\":2494:2633   */\n      swap1\n      pop\n        /* \"#utility.yul\":2221:2640   */\n      swap2\n      swap1\n      pop\n      jump\t// out\n        /* \"#utility.yul\":2727:2896   */\n    tag_106:\n        /* \"#utility.yul\":2811:2822   */\n      0x00\n        /* \"#utility.yul\":2845:2851   */\n      dup3\n        /* \"#utility.yul\":2840:2843   */\n      dup3\n        /* \"#utility.yul\":2833:2852   */\n      mstore\n        /* \"#utility.yul\":2885:2889   */\n      0x20\n        /* \"#utility.yul\":2880:2883   */\n      dup3\n        /* \"#utility.yul\":2876:2890   */\n      add\n        /* \"#utility.yul\":2861:2890   */\n      swap1\n      pop\n        /* \"#utility.yul\":2727:2896   */\n      swap3\n      swap2\n      pop\n      pop\n      jump\t// out\n        /* \"#utility.yul\":2902:3207   */\n    tag_59:\n        /* \"#utility.yul\":2942:2945   */\n      0x00\n        /* \"#utility.yul\":2961:2981   */\n      tag_129\n        /* \"#utility.yul\":2979:2980   */\n      dup3\n        /* \"#utility.yul\":2961:2981   */\n      tag_117\n      jump\t// in\n    tag_129:\n        /* \"#utility.yul\":2956:2981   */\n      swap2\n      pop\n        /* \"#utility.yul\":2995:3015   */\n      tag_130\n        /* \"#utility.yul\":3013:3014   */\n      dup4\n        /* \"#utility.yul\":2995:3015   */\n      tag_117\n      jump\t// in\n    tag_130:\n        /* \"#utility.yul\":2990:3015   */\n      swap3\n      pop\n        /* \"#utility.yul\":3149:3150   */\n      dup3\n        /* \"#utility.yul\":3081:3147   */\n      0xffffffffffffffffffffffffffffffffffffffffffffffffffffffffffffffff\n        /* \"#utility.yul\":3077:3151   */\n      sub\n        /* \"#utility.yul\":3074:3075   */\n      dup3\n        /* \"#utility.yul\":3071:3152   */\n      gt\n        /* \"#utility.yul\":3068:3175   */\n      iszero\n      tag_131\n      jumpi\n        /* \"#utility.yul\":3155:3173   */\n      tag_132\n      tag_133\n      jump\t// in\n    tag_132:\n        /* \"#utility.yul\":3068:3175   */\n    tag_131:\n        /* \"#utility.yul\":3199:3200   */\n      dup3\n        /* \"#utility.yul\":3196:3197   */\n      dup3\n        /* \"#utility.yul\":3192:3201   */\n      add\n        /* \"#utility.yul\":3185:3201   */\n      swap1\n      pop\n        /* \"#utility.yul\":2902:3207   */\n      swap3\n      swap2\n      pop\n      pop\n      jump\t// out\n        /* \"#utility.yul\":3213:3398   */\n    tag_25:\n        /* \"#utility.yul\":3253:3254   */\n      0x00\n        /* \"#utility.yul\":3270:3290   */\n      tag_135\n        /* \"#utility.yul\":3288:3289   */\n      dup3\n        /* \"#utility.yul\":3270:3290   */\n      tag_117\n      jump\t// in\n    tag_135:\n        /* \"#utility.yul\":3265:3290   */\n      swap2\n      pop\n        /* \"#utility.yul\":3304:3324   */\n      tag_136\n        /* \"#utility.yul\":3322:3323   */\n      dup4\n        /* \"#utility.yul\":3304:3324   */\n      tag_117\n      jump\t// in\n    tag_136:\n        /* \"#utility.yul\":3299:3324   */\n      swap3\n      pop\n        /* \"#utility.yul\":3343:3344   */\n      dup3\n        /* \"#utility.yul\":3333:3368   */\n      tag_137\n      jumpi\n        /* \"#utility.yul\":3348:3366   */\n      tag_138\n      tag_139\n      jump\t// in\n    tag_138:\n        /* \"#utility.yul\":3333:3368   */\n    tag_137:\n        /* \"#utility.yul\":3390:3391   */\n      dup3\n        /* \"#utility.yul\":3387:3388   */\n      dup3\n        /* \"#utility.yul\":3383:3392   */\n      div\n        /* \"#utility.yul\":3378:3392   */\n      swap1\n      pop\n        /* \"#utility.yul\":3213:3398   */\n      swap3\n      swap2\n      pop\n      pop\n      jump\t// out\n        /* \"#utility.yul\":3404:3752   */\n    tag_18:\n        /* \"#utility.yul\":3444:3451   */\n      0x00\n        /* \"#utility.yul\":3467:3487   */\n      tag_141\n        /* \"#utility.yul\":3485:3486   */\n      dup3\n        /* \"#utility.yul\":3467:3487   */\n      tag_117\n      jump\t// in\n    tag_141:\n        /* \"#utility.yul\":3462:3487   */\n      swap2\n      pop\n        /* \"#utility.yul\":3501:3521   */\n      tag_142\n        /* \"#utility.yul\":3519:3520   */\n      dup4\n        /* \"#utility.yul\":3501:3521   */\n      tag_117\n      jump\t// in\n    tag_142:\n        /* \"#utility.yul\":3496:3521   */\n      swap3\n      pop\n        /* \"#utility.yul\":3689:3690   */\n      dup2\n        /* \"#utility.yul\":3621:3687   */\n      0xffffffffffffffffffffffffffffffffffffffffffffffffffffffffffffffff\n        /* \"#utility.yul\":3617:3691   */\n      div\n        /* \"#utility.yul\":3614:3615   */\n      dup4\n        /* \"#utility.yul\":3611:3692   */\n      gt\n        /* \"#utility.yul\":3606:3607   */\n      dup3\n        /* \"#utility.yul\":3599:3608   */\n      iszero\n        /* \"#utility.yul\":3592:3609   */\n      iszero\n        /* \"#utility.yul\":3588:3693   */\n      and\n        /* \"#utility.yul\":3585:3716   */\n      iszero\n      tag_143\n      jumpi\n        /* \"#utility.yul\":3696:3714   */\n      tag_144\n      tag_133\n      jump\t// in\n    tag_144:\n        /* \"#utility.yul\":3585:3716   */\n    tag_143:\n        /* \"#utility.yul\":3744:3745   */\n      dup3\n        /* \"#utility.yul\":3741:3742   */\n      dup3\n        /* \"#utility.yul\":3737:3746   */\n      mul\n        /* \"#utility.yul\":3726:3746   */\n      swap1\n      pop\n        /* \"#utility.yul\":3404:3752   */\n      swap3\n      swap2\n      pop\n      pop\n      jump\t// out\n        /* \"#utility.yul\":3758:3949   */\n    tag_36:\n        /* \"#utility.yul\":3798:3802   */\n      0x00\n        /* \"#utility.yul\":3818:3838   */\n      tag_146\n        /* \"#utility.yul\":3836:3837   */\n      dup3\n        /* \"#utility.yul\":3818:3838   */\n      tag_117\n      jump\t// in\n    tag_146:\n        /* \"#utility.yul\":3813:3838   */\n      swap2\n      pop\n        /* \"#utility.yul\":3852:3872   */\n      tag_147\n        /* \"#utility.yul\":3870:3871   */\n      dup4\n        /* \"#utility.yul\":3852:3872   */\n      tag_117\n      jump\t// in\n    tag_147:\n        /* \"#utility.yul\":3847:3872   */\n      swap3\n      pop\n        /* \"#utility.yul\":3891:3892   */\n      dup3\n        /* \"#utility.yul\":3888:3889   */\n      dup3\n        /* \"#utility.yul\":3885:3893   */\n      lt\n        /* \"#utility.yul\":3882:3916   */\n      iszero\n      tag_148\n      jumpi\n        /* \"#utility.yul\":3896:3914   */\n      tag_149\n      tag_133\n      jump\t// in\n    tag_149:\n        /* \"#utility.yul\":3882:3916   */\n    tag_148:\n        /* \"#utility.yul\":3941:3942   */\n      dup3\n        /* \"#utility.yul\":3938:3939   */\n      dup3\n        /* \"#utility.yul\":3934:3943   */\n      sub\n        /* \"#utility.yul\":3926:3943   */\n      swap1\n      pop\n        /* \"#utility.yul\":3758:3949   */\n      swap3\n      swap2\n      pop\n      pop\n      jump\t// out\n        /* \"#utility.yul\":3955:4045   */\n    tag_102:\n        /* \"#utility.yul\":3989:3996   */\n      0x00\n        /* \"#utility.yul\":4032:4037   */\n      dup2\n        /* \"#utility.yul\":4025:4038   */\n      iszero\n        /* \"#utility.yul\":4018:4039   */\n      iszero\n        /* \"#utility.yul\":4007:4039   */\n      swap1\n      pop\n        /* \"#utility.yul\":3955:4045   */\n      swap2\n      swap1\n      pop\n      jump\t// out\n        /* \"#utility.yul\":4051:4128   */\n    tag_117:\n        /* \"#utility.yul\":4088:4095   */\n      0x00\n        /* \"#utility.yul\":4117:4122   */\n      dup2\n        /* \"#utility.yul\":4106:4122   */\n      swap1\n      pop\n        /* \"#utility.yul\":4051:4128   */\n      swap2\n      swap1\n      pop\n      jump\t// out\n        /* \"#utility.yul\":4134:4367   */\n    tag_88:\n        /* \"#utility.yul\":4173:4176   */\n      0x00\n        /* \"#utility.yul\":4196:4220   */\n      tag_153\n        /* \"#utility.yul\":4214:4219   */\n      dup3\n        /* \"#utility.yul\":4196:4220   */\n      tag_117\n      jump\t// in\n    tag_153:\n        /* \"#utility.yul\":4187:4220   */\n      swap2\n      pop\n        /* \"#utility.yul\":4242:4308   */\n      0xffffffffffffffffffffffffffffffffffffffffffffffffffffffffffffffff\n        /* \"#utility.yul\":4235:4240   */\n      dup3\n        /* \"#utility.yul\":4232:4309   */\n      eq\n        /* \"#utility.yul\":4229:4332   */\n      iszero\n      tag_154\n      jumpi\n        /* \"#utility.yul\":4312:4330   */\n      tag_155\n      tag_133\n      jump\t// in\n    tag_155:\n        /* \"#utility.yul\":4229:4332   */\n    tag_154:\n        /* \"#utility.yul\":4359:4360   */\n      0x01\n        /* \"#utility.yul\":4352:4357   */\n      dup3\n        /* \"#utility.yul\":4348:4361   */\n      add\n        /* \"#utility.yul\":4341:4361   */\n      swap1\n      pop\n        /* \"#utility.yul\":4134:4367   */\n      swap2\n      swap1\n      pop\n      jump\t// out\n        /* \"#utility.yul\":4373:4553   */\n    tag_133:\n        /* \"#utility.yul\":4421:4498   */\n      0x4e487b7100000000000000000000000000000000000000000000000000000000\n        /* \"#utility.yul\":4418:4419   */\n      0x00\n        /* \"#utility.yul\":4411:4499   */\n      mstore\n        /* \"#utility.yul\":4518:4522   */\n      0x11\n        /* \"#utility.yul\":4515:4516   */\n      0x04\n        /* \"#utility.yul\":4508:4523   */\n      mstore\n        /* \"#utility.yul\":4542:4546   */\n      0x24\n        /* \"#utility.yul\":4539:4540   */\n      0x00\n        /* \"#utility.yul\":4532:4547   */\n      revert\n        /* \"#utility.yul\":4559:4739   */\n    tag_139:\n        /* \"#utility.yul\":4607:4684   */\n      0x4e487b7100000000000000000000000000000000000000000000000000000000\n        /* \"#utility.yul\":4604:4605   */\n      0x00\n        /* \"#utility.yul\":4597:4685   */\n      mstore\n        /* \"#utility.yul\":4704:4708   */\n      0x12\n        /* \"#utility.yul\":4701:4702   */\n      0x04\n        /* \"#utility.yul\":4694:4709   */\n      mstore\n        /* \"#utility.yul\":4728:4732   */\n      0x24\n        /* \"#utility.yul\":4725:4726   */\n      0x00\n        /* \"#utility.yul\":4718:4733   */\n      revert\n        /* \"#utility.yul\":4868:4985   */\n    tag_97:\n        /* \"#utility.yul\":4977:4978   */\n      0x00\n        /* \"#utility.yul\":4974:4975   */\n      dup1\n        /* \"#utility.yul\":4967:4979   */\n      revert\n        /* \"#utility.yul\":4991:5154   */\n    tag_108:\n        /* \"#utility.yul\":5131:5146   */\n      0x43686f6f7365205f703e3d302e00000000000000000000000000000000000000\n        /* \"#utility.yul\":5127:5128   */\n      0x00\n        /* \"#utility.yul\":5119:5125   */\n      dup3\n        /* \"#utility.yul\":5115:5129   */\n      add\n        /* \"#utility.yul\":5108:5147   */\n      mstore\n        /* \"#utility.yul\":4991:5154   */\n      pop\n      jump\t// out\n        /* \"#utility.yul\":5160:5460   */\n    tag_113:\n        /* \"#utility.yul\":5300:5334   */\n      0x506c656173652063686f6f7365205f72616469616e74206265747765656e2030\n        /* \"#utility.yul\":5296:5297   */\n      0x00\n        /* \"#utility.yul\":5288:5294   */\n      dup3\n        /* \"#utility.yul\":5284:5298   */\n      add\n        /* \"#utility.yul\":5277:5335   */\n      mstore\n        /* \"#utility.yul\":5369:5403   */\n      0x20616e6420322a70693d3632383331383533303731382e204e6f74653a207261\n        /* \"#utility.yul\":5364:5366   */\n      0x20\n        /* \"#utility.yul\":5356:5362   */\n      dup3\n        /* \"#utility.yul\":5352:5367   */\n      add\n        /* \"#utility.yul\":5345:5404   */\n      mstore\n        /* \"#utility.yul\":5438:5452   */\n      0x6469616e742a31305e31312e0000000000000000000000000000000000000000\n        /* \"#utility.yul\":5433:5435   */\n      0x40\n        /* \"#utility.yul\":5425:5431   */\n      dup3\n        /* \"#utility.yul\":5421:5436   */\n      add\n        /* \"#utility.yul\":5414:5453   */\n      mstore\n        /* \"#utility.yul\":5160:5460   */\n      pop\n      jump\t// out\n        /* \"#utility.yul\":5466:5588   */\n    tag_93:\n        /* \"#utility.yul\":5539:5563   */\n      tag_164\n        /* \"#utility.yul\":5557:5562   */\n      dup2\n        /* \"#utility.yul\":5539:5563   */\n      tag_117\n      jump\t// in\n    tag_164:\n        /* \"#utility.yul\":5532:5537   */\n      dup2\n        /* \"#utility.yul\":5529:5564   */\n      eq\n        /* \"#utility.yul\":5519:5582   */\n      tag_165\n      jumpi\n        /* \"#utility.yul\":5578:5579   */\n      0x00\n        /* \"#utility.yul\":5575:5576   */\n      dup1\n        /* \"#utility.yul\":5568:5580   */\n      revert\n        /* \"#utility.yul\":5519:5582   */\n    tag_165:\n        /* \"#utility.yul\":5466:5588   */\n      pop\n      jump\t// out\n\n    auxdata: 0xa26469706673582212208e01bbae362c6996f275cf610376914732e3aa7a5347a9baee98ab4998f420bc64736f6c63430008070033\n}\n",
				"bytecode": {
					"linkReferences": {},
					"object": "608060405264492559f64f60005534801561001957600080fd5b50610820806100296000396000f3fe608060405234801561001057600080fd5b50600436106100365760003560e01c8063a58b00ba1461003b578063cb5cc1091461006c575b600080fd5b61005560048036038101906100509190610453565b61009d565b6040516100639291906104e4565b60405180910390f35b61008660048036038101906100819190610453565b6102db565b6040516100949291906104e4565b60405180910390f35b600080826000111580156100bf575060005460026100bb91906105e5565b8311155b6100fe576040517f08c379a00000000000000000000000000000000000000000000000000000000081526004016100f59061052d565b60405180910390fd5b600061010c600a600b6103b5565b9050600260005461011d91906105b4565b84148061014357506002600054600361013691906105e5565b61014091906105b4565b84145b156101555760019250600091506102d5565b600260005461016491906105b4565b841015610174576001925061020a565b600054841161019657600092508360005461018f919061063f565b9350610209565b600260005460036101a791906105e5565b6101b191906105b4565b8410156101d15760009250600054846101ca919061063f565b9350610208565b60005460026101e091906105e5565b841161020757600192508360005460026101fa91906105e5565b610204919061063f565b93505b5b5b5b6102158160066103b5565b6102d061022291906105e5565b915061022f8460026103b5565b61023a8260046103b5565b61016861024791906105e5565b61025191906105e5565b8261025c919061063f565b91506102698460046103b5565b6102748260026103b5565b601e61028091906105e5565b61028a91906105e5565b82610295919061055e565b91506102a28460066103b5565b826102ad919061063f565b91506102ba8160056103b5565b6102d06102c791906105e5565b826102d291906105b4565b91505b50915091565b600080826000111580156102fd575060005460026102f991906105e5565b8311155b61033c576040517f08c379a00000000000000000000000000000000000000000000000000000000081526004016103339061052d565b60405180910390fd5b6000600260005461034d91906105b4565b9050600260005461035e91906105b4565b84111561039057600054600261037491906105e5565b600260005461038391906105b4565b61038d919061055e565b90505b838161039c919061063f565b93506103a78461009d565b809350819450505050915091565b6000808210156103fa576040517f08c379a00000000000000000000000000000000000000000000000000000000081526004016103f19061050d565b60405180910390fd5b600190506000821115610438576000600190505b82811161043657838261042191906105e5565b9150808061042e90610689565b91505061040e565b505b92915050565b60008135905061044d816107d3565b92915050565b60006020828403121561046957610468610730565b5b60006104778482850161043e565b91505092915050565b61048981610673565b82525050565b600061049c600d8361054d565b91506104a782610735565b602082019050919050565b60006104bf604c8361054d565b91506104ca8261075e565b606082019050919050565b6104de8161067f565b82525050565b60006040820190506104f96000830185610480565b61050660208301846104d5565b9392505050565b600060208201905081810360008301526105268161048f565b9050919050565b60006020820190508181036000830152610546816104b2565b9050919050565b600082825260208201905092915050565b60006105698261067f565b91506105748361067f565b9250827fffffffffffffffffffffffffffffffffffffffffffffffffffffffffffffffff038211156105a9576105a86106d2565b5b828201905092915050565b60006105bf8261067f565b91506105ca8361067f565b9250826105da576105d9610701565b5b828204905092915050565b60006105f08261067f565b91506105fb8361067f565b9250817fffffffffffffffffffffffffffffffffffffffffffffffffffffffffffffffff0483118215151615610634576106336106d2565b5b828202905092915050565b600061064a8261067f565b91506106558361067f565b925082821015610668576106676106d2565b5b828203905092915050565b60008115159050919050565b6000819050919050565b60006106948261067f565b91507fffffffffffffffffffffffffffffffffffffffffffffffffffffffffffffffff8214156106c7576106c66106d2565b5b600182019050919050565b7f4e487b7100000000000000000000000000000000000000000000000000000000600052601160045260246000fd5b7f4e487b7100000000000000000000000000000000000000000000000000000000600052601260045260246000fd5b600080fd5b7f43686f6f7365205f703e3d302e00000000000000000000000000000000000000600082015250565b7f506c656173652063686f6f7365205f72616469616e74206265747765656e203060008201527f20616e6420322a70693d3632383331383533303731382e204e6f74653a20726160208201527f6469616e742a31305e31312e0000000000000000000000000000000000000000604082015250565b6107dc8161067f565b81146107e757600080fd5b5056fea26469706673582212208e01bbae362c6996f275cf610376914732e3aa7a5347a9baee98ab4998f420bc64736f6c63430008070033",
					"opcodes": "PUSH1 0x80 PUSH1 0x40 MSTORE PUSH5 0x492559F64F PUSH1 0x0 SSTORE CALLVALUE DUP1 ISZERO PUSH2 0x19 JUMPI PUSH1 0x0 DUP1 REVERT JUMPDEST POP PUSH2 0x820 DUP1 PUSH2 0x29 PUSH1 0x0 CODECOPY PUSH1 0x0 RETURN INVALID PUSH1 0x80 PUSH1 0x40 MSTORE CALLVALUE DUP1 ISZERO PUSH2 0x10 JUMPI PUSH1 0x0 DUP1 REVERT JUMPDEST POP PUSH1 0x4 CALLDATASIZE LT PUSH2 0x36 JUMPI PUSH1 0x0 CALLDATALOAD PUSH1 0xE0 SHR DUP1 PUSH4 0xA58B00BA EQ PUSH2 0x3B JUMPI DUP1 PUSH4 0xCB5CC109 EQ PUSH2 0x6C JUMPI JUMPDEST PUSH1 0x0 DUP1 REVERT JUMPDEST PUSH2 0x55 PUSH1 0x4 DUP1 CALLDATASIZE SUB DUP2 ADD SWAP1 PUSH2 0x50 SWAP2 SWAP1 PUSH2 0x453 JUMP JUMPDEST PUSH2 0x9D JUMP JUMPDEST PUSH1 0x40 MLOAD PUSH2 0x63 SWAP3 SWAP2 SWAP1 PUSH2 0x4E4 JUMP JUMPDEST PUSH1 0x40 MLOAD DUP1 SWAP2 SUB SWAP1 RETURN JUMPDEST PUSH2 0x86 PUSH1 0x4 DUP1 CALLDATASIZE SUB DUP2 ADD SWAP1 PUSH2 0x81 SWAP2 SWAP1 PUSH2 0x453 JUMP JUMPDEST PUSH2 0x2DB JUMP JUMPDEST PUSH1 0x40 MLOAD PUSH2 0x94 SWAP3 SWAP2 SWAP1 PUSH2 0x4E4 JUMP JUMPDEST PUSH1 0x40 MLOAD DUP1 SWAP2 SUB SWAP1 RETURN JUMPDEST PUSH1 0x0 DUP1 DUP3 PUSH1 0x0 GT ISZERO DUP1 ISZERO PUSH2 0xBF JUMPI POP PUSH1 0x0 SLOAD PUSH1 0x2 PUSH2 0xBB SWAP2 SWAP1 PUSH2 0x5E5 JUMP JUMPDEST DUP4 GT ISZERO JUMPDEST PUSH2 0xFE JUMPI PUSH1 0x40 MLOAD PUSH32 0x8C379A000000000000000000000000000000000000000000000000000000000 DUP2 MSTORE PUSH1 0x4 ADD PUSH2 0xF5 SWAP1 PUSH2 0x52D JUMP JUMPDEST PUSH1 0x40 MLOAD DUP1 SWAP2 SUB SWAP1 REVERT JUMPDEST PUSH1 0x0 PUSH2 0x10C PUSH1 0xA PUSH1 0xB PUSH2 0x3B5 JUMP JUMPDEST SWAP1 POP PUSH1 0x2 PUSH1 0x0 SLOAD PUSH2 0x11D SWAP2 SWAP1 PUSH2 0x5B4 JUMP JUMPDEST DUP5 EQ DUP1 PUSH2 0x143 JUMPI POP PUSH1 0x2 PUSH1 0x0 SLOAD PUSH1 0x3 PUSH2 0x136 SWAP2 SWAP1 PUSH2 0x5E5 JUMP JUMPDEST PUSH2 0x140 SWAP2 SWAP1 PUSH2 0x5B4 JUMP JUMPDEST DUP5 EQ JUMPDEST ISZERO PUSH2 0x155 JUMPI PUSH1 0x1 SWAP3 POP PUSH1 0x0 SWAP2 POP PUSH2 0x2D5 JUMP JUMPDEST PUSH1 0x2 PUSH1 0x0 SLOAD PUSH2 0x164 SWAP2 SWAP1 PUSH2 0x5B4 JUMP JUMPDEST DUP5 LT ISZERO PUSH2 0x174 JUMPI PUSH1 0x1 SWAP3 POP PUSH2 0x20A JUMP JUMPDEST PUSH1 0x0 SLOAD DUP5 GT PUSH2 0x196 JUMPI PUSH1 0x0 SWAP3 POP DUP4 PUSH1 0x0 SLOAD PUSH2 0x18F SWAP2 SWAP1 PUSH2 0x63F JUMP JUMPDEST SWAP4 POP PUSH2 0x209 JUMP JUMPDEST PUSH1 0x2 PUSH1 0x0 SLOAD PUSH1 0x3 PUSH2 0x1A7 SWAP2 SWAP1 PUSH2 0x5E5 JUMP JUMPDEST PUSH2 0x1B1 SWAP2 SWAP1 PUSH2 0x5B4 JUMP JUMPDEST DUP5 LT ISZERO PUSH2 0x1D1 JUMPI PUSH1 0x0 SWAP3 POP PUSH1 0x0 SLOAD DUP5 PUSH2 0x1CA SWAP2 SWAP1 PUSH2 0x63F JUMP JUMPDEST SWAP4 POP PUSH2 0x208 JUMP JUMPDEST PUSH1 0x0 SLOAD PUSH1 0x2 PUSH2 0x1E0 SWAP2 SWAP1 PUSH2 0x5E5 JUMP JUMPDEST DUP5 GT PUSH2 0x207 JUMPI PUSH1 0x1 SWAP3 POP DUP4 PUSH1 0x0 SLOAD PUSH1 0x2 PUSH2 0x1FA SWAP2 SWAP1 PUSH2 0x5E5 JUMP JUMPDEST PUSH2 0x204 SWAP2 SWAP1 PUSH2 0x63F JUMP JUMPDEST SWAP4 POP JUMPDEST JUMPDEST JUMPDEST JUMPDEST PUSH2 0x215 DUP2 PUSH1 0x6 PUSH2 0x3B5 JUMP JUMPDEST PUSH2 0x2D0 PUSH2 0x222 SWAP2 SWAP1 PUSH2 0x5E5 JUMP JUMPDEST SWAP2 POP PUSH2 0x22F DUP5 PUSH1 0x2 PUSH2 0x3B5 JUMP JUMPDEST PUSH2 0x23A DUP3 PUSH1 0x4 PUSH2 0x3B5 JUMP JUMPDEST PUSH2 0x168 PUSH2 0x247 SWAP2 SWAP1 PUSH2 0x5E5 JUMP JUMPDEST PUSH2 0x251 SWAP2 SWAP1 PUSH2 0x5E5 JUMP JUMPDEST DUP3 PUSH2 0x25C SWAP2 SWAP1 PUSH2 0x63F JUMP JUMPDEST SWAP2 POP PUSH2 0x269 DUP5 PUSH1 0x4 PUSH2 0x3B5 JUMP JUMPDEST PUSH2 0x274 DUP3 PUSH1 0x2 PUSH2 0x3B5 JUMP JUMPDEST PUSH1 0x1E PUSH2 0x280 SWAP2 SWAP1 PUSH2 0x5E5 JUMP JUMPDEST PUSH2 0x28A SWAP2 SWAP1 PUSH2 0x5E5 JUMP JUMPDEST DUP3 PUSH2 0x295 SWAP2 SWAP1 PUSH2 0x55E JUMP JUMPDEST SWAP2 POP PUSH2 0x2A2 DUP5 PUSH1 0x6 PUSH2 0x3B5 JUMP JUMPDEST DUP3 PUSH2 0x2AD SWAP2 SWAP1 PUSH2 0x63F JUMP JUMPDEST SWAP2 POP PUSH2 0x2BA DUP2 PUSH1 0x5 PUSH2 0x3B5 JUMP JUMPDEST PUSH2 0x2D0 PUSH2 0x2C7 SWAP2 SWAP1 PUSH2 0x5E5 JUMP JUMPDEST DUP3 PUSH2 0x2D2 SWAP2 SWAP1 PUSH2 0x5B4 JUMP JUMPDEST SWAP2 POP JUMPDEST POP SWAP2 POP SWAP2 JUMP JUMPDEST PUSH1 0x0 DUP1 DUP3 PUSH1 0x0 GT ISZERO DUP1 ISZERO PUSH2 0x2FD JUMPI POP PUSH1 0x0 SLOAD PUSH1 0x2 PUSH2 0x2F9 SWAP2 SWAP1 PUSH2 0x5E5 JUMP JUMPDEST DUP4 GT ISZERO JUMPDEST PUSH2 0x33C JUMPI PUSH1 0x40 MLOAD PUSH32 0x8C379A000000000000000000000000000000000000000000000000000000000 DUP2 MSTORE PUSH1 0x4 ADD PUSH2 0x333 SWAP1 PUSH2 0x52D JUMP JUMPDEST PUSH1 0x40 MLOAD DUP1 SWAP2 SUB SWAP1 REVERT JUMPDEST PUSH1 0x0 PUSH1 0x2 PUSH1 0x0 SLOAD PUSH2 0x34D SWAP2 SWAP1 PUSH2 0x5B4 JUMP JUMPDEST SWAP1 POP PUSH1 0x2 PUSH1 0x0 SLOAD PUSH2 0x35E SWAP2 SWAP1 PUSH2 0x5B4 JUMP JUMPDEST DUP5 GT ISZERO PUSH2 0x390 JUMPI PUSH1 0x0 SLOAD PUSH1 0x2 PUSH2 0x374 SWAP2 SWAP1 PUSH2 0x5E5 JUMP JUMPDEST PUSH1 0x2 PUSH1 0x0 SLOAD PUSH2 0x383 SWAP2 SWAP1 PUSH2 0x5B4 JUMP JUMPDEST PUSH2 0x38D SWAP2 SWAP1 PUSH2 0x55E JUMP JUMPDEST SWAP1 POP JUMPDEST DUP4 DUP2 PUSH2 0x39C SWAP2 SWAP1 PUSH2 0x63F JUMP JUMPDEST SWAP4 POP PUSH2 0x3A7 DUP5 PUSH2 0x9D JUMP JUMPDEST DUP1 SWAP4 POP DUP2 SWAP5 POP POP POP POP SWAP2 POP SWAP2 JUMP JUMPDEST PUSH1 0x0 DUP1 DUP3 LT ISZERO PUSH2 0x3FA JUMPI PUSH1 0x40 MLOAD PUSH32 0x8C379A000000000000000000000000000000000000000000000000000000000 DUP2 MSTORE PUSH1 0x4 ADD PUSH2 0x3F1 SWAP1 PUSH2 0x50D JUMP JUMPDEST PUSH1 0x40 MLOAD DUP1 SWAP2 SUB SWAP1 REVERT JUMPDEST PUSH1 0x1 SWAP1 POP PUSH1 0x0 DUP3 GT ISZERO PUSH2 0x438 JUMPI PUSH1 0x0 PUSH1 0x1 SWAP1 POP JUMPDEST DUP3 DUP2 GT PUSH2 0x436 JUMPI DUP4 DUP3 PUSH2 0x421 SWAP2 SWAP1 PUSH2 0x5E5 JUMP JUMPDEST SWAP2 POP DUP1 DUP1 PUSH2 0x42E SWAP1 PUSH2 0x689 JUMP JUMPDEST SWAP2 POP POP PUSH2 0x40E JUMP JUMPDEST POP JUMPDEST SWAP3 SWAP2 POP POP JUMP JUMPDEST PUSH1 0x0 DUP2 CALLDATALOAD SWAP1 POP PUSH2 0x44D DUP2 PUSH2 0x7D3 JUMP JUMPDEST SWAP3 SWAP2 POP POP JUMP JUMPDEST PUSH1 0x0 PUSH1 0x20 DUP3 DUP5 SUB SLT ISZERO PUSH2 0x469 JUMPI PUSH2 0x468 PUSH2 0x730 JUMP JUMPDEST JUMPDEST PUSH1 0x0 PUSH2 0x477 DUP5 DUP3 DUP6 ADD PUSH2 0x43E JUMP JUMPDEST SWAP2 POP POP SWAP3 SWAP2 POP POP JUMP JUMPDEST PUSH2 0x489 DUP2 PUSH2 0x673 JUMP JUMPDEST DUP3 MSTORE POP POP JUMP JUMPDEST PUSH1 0x0 PUSH2 0x49C PUSH1 0xD DUP4 PUSH2 0x54D JUMP JUMPDEST SWAP2 POP PUSH2 0x4A7 DUP3 PUSH2 0x735 JUMP JUMPDEST PUSH1 0x20 DUP3 ADD SWAP1 POP SWAP2 SWAP1 POP JUMP JUMPDEST PUSH1 0x0 PUSH2 0x4BF PUSH1 0x4C DUP4 PUSH2 0x54D JUMP JUMPDEST SWAP2 POP PUSH2 0x4CA DUP3 PUSH2 0x75E JUMP JUMPDEST PUSH1 0x60 DUP3 ADD SWAP1 POP SWAP2 SWAP1 POP JUMP JUMPDEST PUSH2 0x4DE DUP2 PUSH2 0x67F JUMP JUMPDEST DUP3 MSTORE POP POP JUMP JUMPDEST PUSH1 0x0 PUSH1 0x40 DUP3 ADD SWAP1 POP PUSH2 0x4F9 PUSH1 0x0 DUP4 ADD DUP6 PUSH2 0x480 JUMP JUMPDEST PUSH2 0x506 PUSH1 0x20 DUP4 ADD DUP5 PUSH2 0x4D5 JUMP JUMPDEST SWAP4 SWAP3 POP POP POP JUMP JUMPDEST PUSH1 0x0 PUSH1 0x20 DUP3 ADD SWAP1 POP DUP2 DUP2 SUB PUSH1 0x0 DUP4 ADD MSTORE PUSH2 0x526 DUP2 PUSH2 0x48F JUMP JUMPDEST SWAP1 POP SWAP2 SWAP1 POP JUMP JUMPDEST PUSH1 0x0 PUSH1 0x20 DUP3 ADD SWAP1 POP DUP2 DUP2 SUB PUSH1 0x0 DUP4 ADD MSTORE PUSH2 0x546 DUP2 PUSH2 0x4B2 JUMP JUMPDEST SWAP1 POP SWAP2 SWAP1 POP JUMP JUMPDEST PUSH1 0x0 DUP3 DUP3 MSTORE PUSH1 0x20 DUP3 ADD SWAP1 POP SWAP3 SWAP2 POP POP JUMP JUMPDEST PUSH1 0x0 PUSH2 0x569 DUP3 PUSH2 0x67F JUMP JUMPDEST SWAP2 POP PUSH2 0x574 DUP4 PUSH2 0x67F JUMP JUMPDEST SWAP3 POP DUP3 PUSH32 0xFFFFFFFFFFFFFFFFFFFFFFFFFFFFFFFFFFFFFFFFFFFFFFFFFFFFFFFFFFFFFFFF SUB DUP3 GT ISZERO PUSH2 0x5A9 JUMPI PUSH2 0x5A8 PUSH2 0x6D2 JUMP JUMPDEST JUMPDEST DUP3 DUP3 ADD SWAP1 POP SWAP3 SWAP2 POP POP JUMP JUMPDEST PUSH1 0x0 PUSH2 0x5BF DUP3 PUSH2 0x67F JUMP JUMPDEST SWAP2 POP PUSH2 0x5CA DUP4 PUSH2 0x67F JUMP JUMPDEST SWAP3 POP DUP3 PUSH2 0x5DA JUMPI PUSH2 0x5D9 PUSH2 0x701 JUMP JUMPDEST JUMPDEST DUP3 DUP3 DIV SWAP1 POP SWAP3 SWAP2 POP POP JUMP JUMPDEST PUSH1 0x0 PUSH2 0x5F0 DUP3 PUSH2 0x67F JUMP JUMPDEST SWAP2 POP PUSH2 0x5FB DUP4 PUSH2 0x67F JUMP JUMPDEST SWAP3 POP DUP2 PUSH32 0xFFFFFFFFFFFFFFFFFFFFFFFFFFFFFFFFFFFFFFFFFFFFFFFFFFFFFFFFFFFFFFFF DIV DUP4 GT DUP3 ISZERO ISZERO AND ISZERO PUSH2 0x634 JUMPI PUSH2 0x633 PUSH2 0x6D2 JUMP JUMPDEST JUMPDEST DUP3 DUP3 MUL SWAP1 POP SWAP3 SWAP2 POP POP JUMP JUMPDEST PUSH1 0x0 PUSH2 0x64A DUP3 PUSH2 0x67F JUMP JUMPDEST SWAP2 POP PUSH2 0x655 DUP4 PUSH2 0x67F JUMP JUMPDEST SWAP3 POP DUP3 DUP3 LT ISZERO PUSH2 0x668 JUMPI PUSH2 0x667 PUSH2 0x6D2 JUMP JUMPDEST JUMPDEST DUP3 DUP3 SUB SWAP1 POP SWAP3 SWAP2 POP POP JUMP JUMPDEST PUSH1 0x0 DUP2 ISZERO ISZERO SWAP1 POP SWAP2 SWAP1 POP JUMP JUMPDEST PUSH1 0x0 DUP2 SWAP1 POP SWAP2 SWAP1 POP JUMP JUMPDEST PUSH1 0x0 PUSH2 0x694 DUP3 PUSH2 0x67F JUMP JUMPDEST SWAP2 POP PUSH32 0xFFFFFFFFFFFFFFFFFFFFFFFFFFFFFFFFFFFFFFFFFFFFFFFFFFFFFFFFFFFFFFFF DUP3 EQ ISZERO PUSH2 0x6C7 JUMPI PUSH2 0x6C6 PUSH2 0x6D2 JUMP JUMPDEST JUMPDEST PUSH1 0x1 DUP3 ADD SWAP1 POP SWAP2 SWAP1 POP JUMP JUMPDEST PUSH32 0x4E487B7100000000000000000000000000000000000000000000000000000000 PUSH1 0x0 MSTORE PUSH1 0x11 PUSH1 0x4 MSTORE PUSH1 0x24 PUSH1 0x0 REVERT JUMPDEST PUSH32 0x4E487B7100000000000000000000000000000000000000000000000000000000 PUSH1 0x0 MSTORE PUSH1 0x12 PUSH1 0x4 MSTORE PUSH1 0x24 PUSH1 0x0 REVERT JUMPDEST PUSH1 0x0 DUP1 REVERT JUMPDEST PUSH32 0x43686F6F7365205F703E3D302E00000000000000000000000000000000000000 PUSH1 0x0 DUP3 ADD MSTORE POP JUMP JUMPDEST PUSH32 0x506C656173652063686F6F7365205F72616469616E74206265747765656E2030 PUSH1 0x0 DUP3 ADD MSTORE PUSH32 0x20616E6420322A70693D3632383331383533303731382E204E6F74653A207261 PUSH1 0x20 DUP3 ADD MSTORE PUSH32 0x6469616E742A31305E31312E0000000000000000000000000000000000000000 PUSH1 0x40 DUP3 ADD MSTORE POP JUMP JUMPDEST PUSH2 0x7DC DUP2 PUSH2 0x67F JUMP JUMPDEST DUP2 EQ PUSH2 0x7E7 JUMPI PUSH1 0x0 DUP1 REVERT JUMPDEST POP JUMP INVALID LOG2 PUSH5 0x6970667358 0x22 SLT KECCAK256 DUP15 ADD 0xBB 0xAE CALLDATASIZE 0x2C PUSH10 0x96F275CF610376914732 0xE3 0xAA PUSH27 0x5347A9BAEE98AB4998F420BC64736F6C6343000807003300000000 "
				},
				"gasEstimates": {
					"creation": {
						"codeDepositCost": "416000",
						"executionCost": "22555",
						"totalCost": "438555"
					},
					"external": {
						"cos(uint256)": "infinite",
						"sin(uint256)": "infinite"
					},
					"internal": {
						"_pow(uint256,uint256)": "infinite"
					}
				},
				"methodIdentifiers": {
					"cos(uint256)": "a58b00ba",
					"sin(uint256)": "cb5cc109"
				}
			},
			"storageLayout": {
				"storage": [
					{
						"astId": 4,
						"contract": "plants/nft/contracts/CosSin.sol:CosSin",
						"label": "pi",
						"offset": 0,
						"slot": "0",
						"type": "t_uint256"
					}
				],
				"types": {
					"t_uint256": {
						"encoding": "inplace",
						"label": "uint256",
						"numberOfBytes": "32"
					}
				}
			},
			"userdoc": {
				"kind": "user",
				"methods": {},
				"version": 1
			}
		}
	}
}