{
	"data": {
		"bytecode": {
			"linkReferences": {},
			"object": "608060405264492559f64f60005562000021600a600b6200003860201b60201c565b6001553480156200003157600080fd5b5062000236565b60008082101562000080576040517f08c379a00000000000000000000000000000000000000000000000000000000081526004016200007790620000f2565b60405180910390fd5b600190506000821115620000c5576000600190505b828111620000c3578382620000ab919062000125565b91508080620000ba9062000190565b91505062000095565b505b92915050565b6000620000da600d8362000114565b9150620000e7826200020d565b602082019050919050565b600060208201905081810360008301526200010d81620000cb565b9050919050565b600082825260208201905092915050565b6000620001328262000186565b91506200013f8362000186565b9250817fffffffffffffffffffffffffffffffffffffffffffffffffffffffffffffffff04831182151516156200017b576200017a620001de565b5b828202905092915050565b6000819050919050565b60006200019d8262000186565b91507fffffffffffffffffffffffffffffffffffffffffffffffffffffffffffffffff821415620001d357620001d2620001de565b5b600182019050919050565b7f4e487b7100000000000000000000000000000000000000000000000000000000600052601160045260246000fd5b7f43686f6f7365205f703e3d302e00000000000000000000000000000000000000600082015250565b61087380620002466000396000f3fe608060405234801561001057600080fd5b50600436106100365760003560e01c8063a58b00ba1461003b578063cb5cc1091461006c575b600080fd5b610055600480360381019061005091906104a6565b61009d565b604051610063929190610537565b60405180910390f35b610086600480360381019061008191906104a6565b61032e565b604051610094929190610537565b60405180910390f35b600080826000111580156100bf575060005460026100bb9190610638565b8311155b6100fe576040517f08c379a00000000000000000000000000000000000000000000000000000000081526004016100f590610580565b60405180910390fd5b600260005461010d9190610607565b8314806101335750600260005460036101269190610638565b6101309190610607565b83145b15610145576001915060009050610329565b60026000546101549190610607565b83101561016457600191506101fa565b600054831161018657600091508260005461017f9190610692565b92506101f9565b600260005460036101979190610638565b6101a19190610607565b8310156101c15760009150600054836101ba9190610692565b92506101f8565b60005460026101d09190610638565b83116101f757600191508260005460026101ea9190610638565b6101f49190610692565b92505b5b5b5b6102076001546006610408565b6102d06102149190610638565b9050610221836002610408565b61022e6001546004610408565b61016861023b9190610638565b6102459190610638565b81111561032357610257836002610408565b6102646001546004610408565b6101686102719190610638565b61027b9190610638565b816102869190610692565b9050610293836004610408565b6102a06001546002610408565b601e6102ac9190610638565b6102b69190610638565b816102c191906105b1565b90506102ce836006610408565b8111156102f2576102e0836006610408565b816102eb9190610692565b90506102f7565b600090505b6103046001546005610408565b6102d06103119190610638565b8161031c9190610607565b9050610328565b600090505b5b915091565b600080826000111580156103505750600054600261034c9190610638565b8311155b61038f576040517f08c379a000000000000000000000000000000000000000000000000000000000815260040161038690610580565b60405180910390fd5b600060026000546103a09190610607565b905060026000546103b19190610607565b8411156103e35760005460026103c79190610638565b60026000546103d69190610607565b6103e091906105b1565b90505b83816103ef9190610692565b93506103fa8461009d565b809350819450505050915091565b60008082101561044d576040517f08c379a000000000000000000000000000000000000000000000000000000000815260040161044490610560565b60405180910390fd5b60019050600082111561048b576000600190505b8281116104895783826104749190610638565b91508080610481906106dc565b915050610461565b505b92915050565b6000813590506104a081610826565b92915050565b6000602082840312156104bc576104bb610783565b5b60006104ca84828501610491565b91505092915050565b6104dc816106c6565b82525050565b60006104ef600d836105a0565b91506104fa82610788565b602082019050919050565b6000610512604c836105a0565b915061051d826107b1565b606082019050919050565b610531816106d2565b82525050565b600060408201905061054c60008301856104d3565b6105596020830184610528565b9392505050565b60006020820190508181036000830152610579816104e2565b9050919050565b6000602082019050818103600083015261059981610505565b9050919050565b600082825260208201905092915050565b60006105bc826106d2565b91506105c7836106d2565b9250827fffffffffffffffffffffffffffffffffffffffffffffffffffffffffffffffff038211156105fc576105fb610725565b5b828201905092915050565b6000610612826106d2565b915061061d836106d2565b92508261062d5761062c610754565b5b828204905092915050565b6000610643826106d2565b915061064e836106d2565b9250817fffffffffffffffffffffffffffffffffffffffffffffffffffffffffffffffff048311821515161561068757610686610725565b5b828202905092915050565b600061069d826106d2565b91506106a8836106d2565b9250828210156106bb576106ba610725565b5b828203905092915050565b60008115159050919050565b6000819050919050565b60006106e7826106d2565b91507fffffffffffffffffffffffffffffffffffffffffffffffffffffffffffffffff82141561071a57610719610725565b5b600182019050919050565b7f4e487b7100000000000000000000000000000000000000000000000000000000600052601160045260246000fd5b7f4e487b7100000000000000000000000000000000000000000000000000000000600052601260045260246000fd5b600080fd5b7f43686f6f7365205f703e3d302e00000000000000000000000000000000000000600082015250565b7f506c656173652063686f6f7365205f72616469616e74206265747765656e203060008201527f20616e6420322a70693d3632383331383533303731382e204e6f74653a20726160208201527f6469616e742a31305e31312e0000000000000000000000000000000000000000604082015250565b61082f816106d2565b811461083a57600080fd5b5056fea26469706673582212207dcf0569a980cb772c88a85949afd6503c4ddb97f63c3aeddf888276dc660e6064736f6c63430008070033",
			"opcodes": "PUSH1 0x80 PUSH1 0x40 MSTORE PUSH5 0x492559F64F PUSH1 0x0 SSTORE PUSH3 0x21 PUSH1 0xA PUSH1 0xB PUSH3 0x38 PUSH1 0x20 SHL PUSH1 0x20 SHR JUMP JUMPDEST PUSH1 0x1 SSTORE CALLVALUE DUP1 ISZERO PUSH3 0x31 JUMPI PUSH1 0x0 DUP1 REVERT JUMPDEST POP PUSH3 0x236 JUMP JUMPDEST PUSH1 0x0 DUP1 DUP3 LT ISZERO PUSH3 0x80 JUMPI PUSH1 0x40 MLOAD PUSH32 0x8C379A000000000000000000000000000000000000000000000000000000000 DUP2 MSTORE PUSH1 0x4 ADD PUSH3 0x77 SWAP1 PUSH3 0xF2 JUMP JUMPDEST PUSH1 0x40 MLOAD DUP1 SWAP2 SUB SWAP1 REVERT JUMPDEST PUSH1 0x1 SWAP1 POP PUSH1 0x0 DUP3 GT ISZERO PUSH3 0xC5 JUMPI PUSH1 0x0 PUSH1 0x1 SWAP1 POP JUMPDEST DUP3 DUP2 GT PUSH3 0xC3 JUMPI DUP4 DUP3 PUSH3 0xAB SWAP2 SWAP1 PUSH3 0x125 JUMP JUMPDEST SWAP2 POP DUP1 DUP1 PUSH3 0xBA SWAP1 PUSH3 0x190 JUMP JUMPDEST SWAP2 POP POP PUSH3 0x95 JUMP JUMPDEST POP JUMPDEST SWAP3 SWAP2 POP POP JUMP JUMPDEST PUSH1 0x0 PUSH3 0xDA PUSH1 0xD DUP4 PUSH3 0x114 JUMP JUMPDEST SWAP2 POP PUSH3 0xE7 DUP3 PUSH3 0x20D JUMP JUMPDEST PUSH1 0x20 DUP3 ADD SWAP1 POP SWAP2 SWAP1 POP JUMP JUMPDEST PUSH1 0x0 PUSH1 0x20 DUP3 ADD SWAP1 POP DUP2 DUP2 SUB PUSH1 0x0 DUP4 ADD MSTORE PUSH3 0x10D DUP2 PUSH3 0xCB JUMP JUMPDEST SWAP1 POP SWAP2 SWAP1 POP JUMP JUMPDEST PUSH1 0x0 DUP3 DUP3 MSTORE PUSH1 0x20 DUP3 ADD SWAP1 POP SWAP3 SWAP2 POP POP JUMP JUMPDEST PUSH1 0x0 PUSH3 0x132 DUP3 PUSH3 0x186 JUMP JUMPDEST SWAP2 POP PUSH3 0x13F DUP4 PUSH3 0x186 JUMP JUMPDEST SWAP3 POP DUP2 PUSH32 0xFFFFFFFFFFFFFFFFFFFFFFFFFFFFFFFFFFFFFFFFFFFFFFFFFFFFFFFFFFFFFFFF DIV DUP4 GT DUP3 ISZERO ISZERO AND ISZERO PUSH3 0x17B JUMPI PUSH3 0x17A PUSH3 0x1DE JUMP JUMPDEST JUMPDEST DUP3 DUP3 MUL SWAP1 POP SWAP3 SWAP2 POP POP JUMP JUMPDEST PUSH1 0x0 DUP2 SWAP1 POP SWAP2 SWAP1 POP JUMP JUMPDEST PUSH1 0x0 PUSH3 0x19D DUP3 PUSH3 0x186 JUMP JUMPDEST SWAP2 POP PUSH32 0xFFFFFFFFFFFFFFFFFFFFFFFFFFFFFFFFFFFFFFFFFFFFFFFFFFFFFFFFFFFFFFFF DUP3 EQ ISZERO PUSH3 0x1D3 JUMPI PUSH3 0x1D2 PUSH3 0x1DE JUMP JUMPDEST JUMPDEST PUSH1 0x1 DUP3 ADD SWAP1 POP SWAP2 SWAP1 POP JUMP JUMPDEST PUSH32 0x4E487B7100000000000000000000000000000000000000000000000000000000 PUSH1 0x0 MSTORE PUSH1 0x11 PUSH1 0x4 MSTORE PUSH1 0x24 PUSH1 0x0 REVERT JUMPDEST PUSH32 0x43686F6F7365205F703E3D302E00000000000000000000000000000000000000 PUSH1 0x0 DUP3 ADD MSTORE POP JUMP JUMPDEST PUSH2 0x873 DUP1 PUSH3 0x246 PUSH1 0x0 CODECOPY PUSH1 0x0 RETURN INVALID PUSH1 0x80 PUSH1 0x40 MSTORE CALLVALUE DUP1 ISZERO PUSH2 0x10 JUMPI PUSH1 0x0 DUP1 REVERT JUMPDEST POP PUSH1 0x4 CALLDATASIZE LT PUSH2 0x36 JUMPI PUSH1 0x0 CALLDATALOAD PUSH1 0xE0 SHR DUP1 PUSH4 0xA58B00BA EQ PUSH2 0x3B JUMPI DUP1 PUSH4 0xCB5CC109 EQ PUSH2 0x6C JUMPI JUMPDEST PUSH1 0x0 DUP1 REVERT JUMPDEST PUSH2 0x55 PUSH1 0x4 DUP1 CALLDATASIZE SUB DUP2 ADD SWAP1 PUSH2 0x50 SWAP2 SWAP1 PUSH2 0x4A6 JUMP JUMPDEST PUSH2 0x9D JUMP JUMPDEST PUSH1 0x40 MLOAD PUSH2 0x63 SWAP3 SWAP2 SWAP1 PUSH2 0x537 JUMP JUMPDEST PUSH1 0x40 MLOAD DUP1 SWAP2 SUB SWAP1 RETURN JUMPDEST PUSH2 0x86 PUSH1 0x4 DUP1 CALLDATASIZE SUB DUP2 ADD SWAP1 PUSH2 0x81 SWAP2 SWAP1 PUSH2 0x4A6 JUMP JUMPDEST PUSH2 0x32E JUMP JUMPDEST PUSH1 0x40 MLOAD PUSH2 0x94 SWAP3 SWAP2 SWAP1 PUSH2 0x537 JUMP JUMPDEST PUSH1 0x40 MLOAD DUP1 SWAP2 SUB SWAP1 RETURN JUMPDEST PUSH1 0x0 DUP1 DUP3 PUSH1 0x0 GT ISZERO DUP1 ISZERO PUSH2 0xBF JUMPI POP PUSH1 0x0 SLOAD PUSH1 0x2 PUSH2 0xBB SWAP2 SWAP1 PUSH2 0x638 JUMP JUMPDEST DUP4 GT ISZERO JUMPDEST PUSH2 0xFE JUMPI PUSH1 0x40 MLOAD PUSH32 0x8C379A000000000000000000000000000000000000000000000000000000000 DUP2 MSTORE PUSH1 0x4 ADD PUSH2 0xF5 SWAP1 PUSH2 0x580 JUMP JUMPDEST PUSH1 0x40 MLOAD DUP1 SWAP2 SUB SWAP1 REVERT JUMPDEST PUSH1 0x2 PUSH1 0x0 SLOAD PUSH2 0x10D SWAP2 SWAP1 PUSH2 0x607 JUMP JUMPDEST DUP4 EQ DUP1 PUSH2 0x133 JUMPI POP PUSH1 0x2 PUSH1 0x0 SLOAD PUSH1 0x3 PUSH2 0x126 SWAP2 SWAP1 PUSH2 0x638 JUMP JUMPDEST PUSH2 0x130 SWAP2 SWAP1 PUSH2 0x607 JUMP JUMPDEST DUP4 EQ JUMPDEST ISZERO PUSH2 0x145 JUMPI PUSH1 0x1 SWAP2 POP PUSH1 0x0 SWAP1 POP PUSH2 0x329 JUMP JUMPDEST PUSH1 0x2 PUSH1 0x0 SLOAD PUSH2 0x154 SWAP2 SWAP1 PUSH2 0x607 JUMP JUMPDEST DUP4 LT ISZERO PUSH2 0x164 JUMPI PUSH1 0x1 SWAP2 POP PUSH2 0x1FA JUMP JUMPDEST PUSH1 0x0 SLOAD DUP4 GT PUSH2 0x186 JUMPI PUSH1 0x0 SWAP2 POP DUP3 PUSH1 0x0 SLOAD PUSH2 0x17F SWAP2 SWAP1 PUSH2 0x692 JUMP JUMPDEST SWAP3 POP PUSH2 0x1F9 JUMP JUMPDEST PUSH1 0x2 PUSH1 0x0 SLOAD PUSH1 0x3 PUSH2 0x197 SWAP2 SWAP1 PUSH2 0x638 JUMP JUMPDEST PUSH2 0x1A1 SWAP2 SWAP1 PUSH2 0x607 JUMP JUMPDEST DUP4 LT ISZERO PUSH2 0x1C1 JUMPI PUSH1 0x0 SWAP2 POP PUSH1 0x0 SLOAD DUP4 PUSH2 0x1BA SWAP2 SWAP1 PUSH2 0x692 JUMP JUMPDEST SWAP3 POP PUSH2 0x1F8 JUMP JUMPDEST PUSH1 0x0 SLOAD PUSH1 0x2 PUSH2 0x1D0 SWAP2 SWAP1 PUSH2 0x638 JUMP JUMPDEST DUP4 GT PUSH2 0x1F7 JUMPI PUSH1 0x1 SWAP2 POP DUP3 PUSH1 0x0 SLOAD PUSH1 0x2 PUSH2 0x1EA SWAP2 SWAP1 PUSH2 0x638 JUMP JUMPDEST PUSH2 0x1F4 SWAP2 SWAP1 PUSH2 0x692 JUMP JUMPDEST SWAP3 POP JUMPDEST JUMPDEST JUMPDEST JUMPDEST PUSH2 0x207 PUSH1 0x1 SLOAD PUSH1 0x6 PUSH2 0x408 JUMP JUMPDEST PUSH2 0x2D0 PUSH2 0x214 SWAP2 SWAP1 PUSH2 0x638 JUMP JUMPDEST SWAP1 POP PUSH2 0x221 DUP4 PUSH1 0x2 PUSH2 0x408 JUMP JUMPDEST PUSH2 0x22E PUSH1 0x1 SLOAD PUSH1 0x4 PUSH2 0x408 JUMP JUMPDEST PUSH2 0x168 PUSH2 0x23B SWAP2 SWAP1 PUSH2 0x638 JUMP JUMPDEST PUSH2 0x245 SWAP2 SWAP1 PUSH2 0x638 JUMP JUMPDEST DUP2 GT ISZERO PUSH2 0x323 JUMPI PUSH2 0x257 DUP4 PUSH1 0x2 PUSH2 0x408 JUMP JUMPDEST PUSH2 0x264 PUSH1 0x1 SLOAD PUSH1 0x4 PUSH2 0x408 JUMP JUMPDEST PUSH2 0x168 PUSH2 0x271 SWAP2 SWAP1 PUSH2 0x638 JUMP JUMPDEST PUSH2 0x27B SWAP2 SWAP1 PUSH2 0x638 JUMP JUMPDEST DUP2 PUSH2 0x286 SWAP2 SWAP1 PUSH2 0x692 JUMP JUMPDEST SWAP1 POP PUSH2 0x293 DUP4 PUSH1 0x4 PUSH2 0x408 JUMP JUMPDEST PUSH2 0x2A0 PUSH1 0x1 SLOAD PUSH1 0x2 PUSH2 0x408 JUMP JUMPDEST PUSH1 0x1E PUSH2 0x2AC SWAP2 SWAP1 PUSH2 0x638 JUMP JUMPDEST PUSH2 0x2B6 SWAP2 SWAP1 PUSH2 0x638 JUMP JUMPDEST DUP2 PUSH2 0x2C1 SWAP2 SWAP1 PUSH2 0x5B1 JUMP JUMPDEST SWAP1 POP PUSH2 0x2CE DUP4 PUSH1 0x6 PUSH2 0x408 JUMP JUMPDEST DUP2 GT ISZERO PUSH2 0x2F2 JUMPI PUSH2 0x2E0 DUP4 PUSH1 0x6 PUSH2 0x408 JUMP JUMPDEST DUP2 PUSH2 0x2EB SWAP2 SWAP1 PUSH2 0x692 JUMP JUMPDEST SWAP1 POP PUSH2 0x2F7 JUMP JUMPDEST PUSH1 0x0 SWAP1 POP JUMPDEST PUSH2 0x304 PUSH1 0x1 SLOAD PUSH1 0x5 PUSH2 0x408 JUMP JUMPDEST PUSH2 0x2D0 PUSH2 0x311 SWAP2 SWAP1 PUSH2 0x638 JUMP JUMPDEST DUP2 PUSH2 0x31C SWAP2 SWAP1 PUSH2 0x607 JUMP JUMPDEST SWAP1 POP PUSH2 0x328 JUMP JUMPDEST PUSH1 0x0 SWAP1 POP JUMPDEST JUMPDEST SWAP2 POP SWAP2 JUMP JUMPDEST PUSH1 0x0 DUP1 DUP3 PUSH1 0x0 GT ISZERO DUP1 ISZERO PUSH2 0x350 JUMPI POP PUSH1 0x0 SLOAD PUSH1 0x2 PUSH2 0x34C SWAP2 SWAP1 PUSH2 0x638 JUMP JUMPDEST DUP4 GT ISZERO JUMPDEST PUSH2 0x38F JUMPI PUSH1 0x40 MLOAD PUSH32 0x8C379A000000000000000000000000000000000000000000000000000000000 DUP2 MSTORE PUSH1 0x4 ADD PUSH2 0x386 SWAP1 PUSH2 0x580 JUMP JUMPDEST PUSH1 0x40 MLOAD DUP1 SWAP2 SUB SWAP1 REVERT JUMPDEST PUSH1 0x0 PUSH1 0x2 PUSH1 0x0 SLOAD PUSH2 0x3A0 SWAP2 SWAP1 PUSH2 0x607 JUMP JUMPDEST SWAP1 POP PUSH1 0x2 PUSH1 0x0 SLOAD PUSH2 0x3B1 SWAP2 SWAP1 PUSH2 0x607 JUMP JUMPDEST DUP5 GT ISZERO PUSH2 0x3E3 JUMPI PUSH1 0x0 SLOAD PUSH1 0x2 PUSH2 0x3C7 SWAP2 SWAP1 PUSH2 0x638 JUMP JUMPDEST PUSH1 0x2 PUSH1 0x0 SLOAD PUSH2 0x3D6 SWAP2 SWAP1 PUSH2 0x607 JUMP JUMPDEST PUSH2 0x3E0 SWAP2 SWAP1 PUSH2 0x5B1 JUMP JUMPDEST SWAP1 POP JUMPDEST DUP4 DUP2 PUSH2 0x3EF SWAP2 SWAP1 PUSH2 0x692 JUMP JUMPDEST SWAP4 POP PUSH2 0x3FA DUP5 PUSH2 0x9D JUMP JUMPDEST DUP1 SWAP4 POP DUP2 SWAP5 POP POP POP POP SWAP2 POP SWAP2 JUMP JUMPDEST PUSH1 0x0 DUP1 DUP3 LT ISZERO PUSH2 0x44D JUMPI PUSH1 0x40 MLOAD PUSH32 0x8C379A000000000000000000000000000000000000000000000000000000000 DUP2 MSTORE PUSH1 0x4 ADD PUSH2 0x444 SWAP1 PUSH2 0x560 JUMP JUMPDEST PUSH1 0x40 MLOAD DUP1 SWAP2 SUB SWAP1 REVERT JUMPDEST PUSH1 0x1 SWAP1 POP PUSH1 0x0 DUP3 GT ISZERO PUSH2 0x48B JUMPI PUSH1 0x0 PUSH1 0x1 SWAP1 POP JUMPDEST DUP3 DUP2 GT PUSH2 0x489 JUMPI DUP4 DUP3 PUSH2 0x474 SWAP2 SWAP1 PUSH2 0x638 JUMP JUMPDEST SWAP2 POP DUP1 DUP1 PUSH2 0x481 SWAP1 PUSH2 0x6DC JUMP JUMPDEST SWAP2 POP POP PUSH2 0x461 JUMP JUMPDEST POP JUMPDEST SWAP3 SWAP2 POP POP JUMP JUMPDEST PUSH1 0x0 DUP2 CALLDATALOAD SWAP1 POP PUSH2 0x4A0 DUP2 PUSH2 0x826 JUMP JUMPDEST SWAP3 SWAP2 POP POP JUMP JUMPDEST PUSH1 0x0 PUSH1 0x20 DUP3 DUP5 SUB SLT ISZERO PUSH2 0x4BC JUMPI PUSH2 0x4BB PUSH2 0x783 JUMP JUMPDEST JUMPDEST PUSH1 0x0 PUSH2 0x4CA DUP5 DUP3 DUP6 ADD PUSH2 0x491 JUMP JUMPDEST SWAP2 POP POP SWAP3 SWAP2 POP POP JUMP JUMPDEST PUSH2 0x4DC DUP2 PUSH2 0x6C6 JUMP JUMPDEST DUP3 MSTORE POP POP JUMP JUMPDEST PUSH1 0x0 PUSH2 0x4EF PUSH1 0xD DUP4 PUSH2 0x5A0 JUMP JUMPDEST SWAP2 POP PUSH2 0x4FA DUP3 PUSH2 0x788 JUMP JUMPDEST PUSH1 0x20 DUP3 ADD SWAP1 POP SWAP2 SWAP1 POP JUMP JUMPDEST PUSH1 0x0 PUSH2 0x512 PUSH1 0x4C DUP4 PUSH2 0x5A0 JUMP JUMPDEST SWAP2 POP PUSH2 0x51D DUP3 PUSH2 0x7B1 JUMP JUMPDEST PUSH1 0x60 DUP3 ADD SWAP1 POP SWAP2 SWAP1 POP JUMP JUMPDEST PUSH2 0x531 DUP2 PUSH2 0x6D2 JUMP JUMPDEST DUP3 MSTORE POP POP JUMP JUMPDEST PUSH1 0x0 PUSH1 0x40 DUP3 ADD SWAP1 POP PUSH2 0x54C PUSH1 0x0 DUP4 ADD DUP6 PUSH2 0x4D3 JUMP JUMPDEST PUSH2 0x559 PUSH1 0x20 DUP4 ADD DUP5 PUSH2 0x528 JUMP JUMPDEST SWAP4 SWAP3 POP POP POP JUMP JUMPDEST PUSH1 0x0 PUSH1 0x20 DUP3 ADD SWAP1 POP DUP2 DUP2 SUB PUSH1 0x0 DUP4 ADD MSTORE PUSH2 0x579 DUP2 PUSH2 0x4E2 JUMP JUMPDEST SWAP1 POP SWAP2 SWAP1 POP JUMP JUMPDEST PUSH1 0x0 PUSH1 0x20 DUP3 ADD SWAP1 POP DUP2 DUP2 SUB PUSH1 0x0 DUP4 ADD MSTORE PUSH2 0x599 DUP2 PUSH2 0x505 JUMP JUMPDEST SWAP1 POP SWAP2 SWAP1 POP JUMP JUMPDEST PUSH1 0x0 DUP3 DUP3 MSTORE PUSH1 0x20 DUP3 ADD SWAP1 POP SWAP3 SWAP2 POP POP JUMP JUMPDEST PUSH1 0x0 PUSH2 0x5BC DUP3 PUSH2 0x6D2 JUMP JUMPDEST SWAP2 POP PUSH2 0x5C7 DUP4 PUSH2 0x6D2 JUMP JUMPDEST SWAP3 POP DUP3 PUSH32 0xFFFFFFFFFFFFFFFFFFFFFFFFFFFFFFFFFFFFFFFFFFFFFFFFFFFFFFFFFFFFFFFF SUB DUP3 GT ISZERO PUSH2 0x5FC JUMPI PUSH2 0x5FB PUSH2 0x725 JUMP JUMPDEST JUMPDEST DUP3 DUP3 ADD SWAP1 POP SWAP3 SWAP2 POP POP JUMP JUMPDEST PUSH1 0x0 PUSH2 0x612 DUP3 PUSH2 0x6D2 JUMP JUMPDEST SWAP2 POP PUSH2 0x61D DUP4 PUSH2 0x6D2 JUMP JUMPDEST SWAP3 POP DUP3 PUSH2 0x62D JUMPI PUSH2 0x62C PUSH2 0x754 JUMP JUMPDEST JUMPDEST DUP3 DUP3 DIV SWAP1 POP SWAP3 SWAP2 POP POP JUMP JUMPDEST PUSH1 0x0 PUSH2 0x643 DUP3 PUSH2 0x6D2 JUMP JUMPDEST SWAP2 POP PUSH2 0x64E DUP4 PUSH2 0x6D2 JUMP JUMPDEST SWAP3 POP DUP2 PUSH32 0xFFFFFFFFFFFFFFFFFFFFFFFFFFFFFFFFFFFFFFFFFFFFFFFFFFFFFFFFFFFFFFFF DIV DUP4 GT DUP3 ISZERO ISZERO AND ISZERO PUSH2 0x687 JUMPI PUSH2 0x686 PUSH2 0x725 JUMP JUMPDEST JUMPDEST DUP3 DUP3 MUL SWAP1 POP SWAP3 SWAP2 POP POP JUMP JUMPDEST PUSH1 0x0 PUSH2 0x69D DUP3 PUSH2 0x6D2 JUMP JUMPDEST SWAP2 POP PUSH2 0x6A8 DUP4 PUSH2 0x6D2 JUMP JUMPDEST SWAP3 POP DUP3 DUP3 LT ISZERO PUSH2 0x6BB JUMPI PUSH2 0x6BA PUSH2 0x725 JUMP JUMPDEST JUMPDEST DUP3 DUP3 SUB SWAP1 POP SWAP3 SWAP2 POP POP JUMP JUMPDEST PUSH1 0x0 DUP2 ISZERO ISZERO SWAP1 POP SWAP2 SWAP1 POP JUMP JUMPDEST PUSH1 0x0 DUP2 SWAP1 POP SWAP2 SWAP1 POP JUMP JUMPDEST PUSH1 0x0 PUSH2 0x6E7 DUP3 PUSH2 0x6D2 JUMP JUMPDEST SWAP2 POP PUSH32 0xFFFFFFFFFFFFFFFFFFFFFFFFFFFFFFFFFFFFFFFFFFFFFFFFFFFFFFFFFFFFFFFF DUP3 EQ ISZERO PUSH2 0x71A JUMPI PUSH2 0x719 PUSH2 0x725 JUMP JUMPDEST JUMPDEST PUSH1 0x1 DUP3 ADD SWAP1 POP SWAP2 SWAP1 POP JUMP JUMPDEST PUSH32 0x4E487B7100000000000000000000000000000000000000000000000000000000 PUSH1 0x0 MSTORE PUSH1 0x11 PUSH1 0x4 MSTORE PUSH1 0x24 PUSH1 0x0 REVERT JUMPDEST PUSH32 0x4E487B7100000000000000000000000000000000000000000000000000000000 PUSH1 0x0 MSTORE PUSH1 0x12 PUSH1 0x4 MSTORE PUSH1 0x24 PUSH1 0x0 REVERT JUMPDEST PUSH1 0x0 DUP1 REVERT JUMPDEST PUSH32 0x43686F6F7365205F703E3D302E00000000000000000000000000000000000000 PUSH1 0x0 DUP3 ADD MSTORE POP JUMP JUMPDEST PUSH32 0x506C656173652063686F6F7365205F72616469616E74206265747765656E2030 PUSH1 0x0 DUP3 ADD MSTORE PUSH32 0x20616E6420322A70693D3632383331383533303731382E204E6F74653A207261 PUSH1 0x20 DUP3 ADD MSTORE PUSH32 0x6469616E742A31305E31312E0000000000000000000000000000000000000000 PUSH1 0x40 DUP3 ADD MSTORE POP JUMP JUMPDEST PUSH2 0x82F DUP2 PUSH2 0x6D2 JUMP JUMPDEST DUP2 EQ PUSH2 0x83A JUMPI PUSH1 0x0 DUP1 REVERT JUMPDEST POP JUMP INVALID LOG2 PUSH5 0x6970667358 0x22 SLT KECCAK256 PUSH30 0xCF0569A980CB772C88A85949AFD6503C4DDB97F63C3AEDDF888276DC660E PUSH1 0x64 PUSH20 0x6F6C634300080700330000000000000000000000 "
		},
		"gasEstimates": {
			"creation": {
				"codeDepositCost": "432600",
				"executionCost": "infinite",
				"totalCost": "infinite"
			},
			"external": {
				"cos(uint256)": "infinite",
				"sin(uint256)": "infinite"
			},
			"internal": {
				"_pow(uint256,uint256)": "infinite"
			}
		},
		"methodIdentifiers": {
			"cos(uint256)": "a58b00ba",
			"sin(uint256)": "cb5cc109"
		}
	},
	"abi": [
		{
			"inputs": [
				{
					"internalType": "uint256",
					"name": "_radiant",
					"type": "uint256"
				}
			],
			"name": "cos",
			"outputs": [
				{
					"internalType": "bool",
					"name": "_sign",
					"type": "bool"
				},
				{
					"internalType": "uint256",
					"name": "_output",
					"type": "uint256"
				}
			],
			"stateMutability": "view",
			"type": "function"
		},
		{
			"inputs": [
				{
					"internalType": "uint256",
					"name": "_radiant",
					"type": "uint256"
				}
			],
			"name": "sin",
			"outputs": [
				{
					"internalType": "bool",
					"name": "_sign",
					"type": "bool"
				},
				{
					"internalType": "uint256",
					"name": "_output",
					"type": "uint256"
				}
			],
			"stateMutability": "view",
			"type": "function"
		}
	]
}