{
	"data": {
		"bytecode": {
			"linkReferences": {},
			"object": "60806040526000600660006101000a81548160ff0219169083151502179055506040518060400160405280600c81526020017f4f6e2d436861696e205356470000000000000000000000000000000000000000815250600d90805190602001906200006c92919062000499565b503480156200007a57600080fd5b506040518060400160405280600481526020017f54657374000000000000000000000000000000000000000000000000000000008152506040518060400160405280600281526020017f545400000000000000000000000000000000000000000000000000000000000081525033828281600090805190602001906200010292919062000499565b5080600190805190602001906200011b92919062000499565b5050506200013e62000132620001b060201b60201c565b620001cc60201b60201c565b80600b60006101000a81548173ffffffffffffffffffffffffffffffffffffffff021916908373ffffffffffffffffffffffffffffffffffffffff16021790555062000196600a6200029260201b620015591760201c565b620001a783620002a860201b60201c565b505050620006ee565b6000620001c76200032a60201b6200156f1760201c565b905090565b6000600960009054906101000a900473ffffffffffffffffffffffffffffffffffffffff16905081600960006101000a81548173ffffffffffffffffffffffffffffffffffffffff021916908373ffffffffffffffffffffffffffffffffffffffff1602179055508173ffffffffffffffffffffffffffffffffffffffff168173ffffffffffffffffffffffffffffffffffffffff167f8be0079c531659141344cd1fd0a4f28419497f9722a3daafe3b4186f6b6457e060405160405180910390a35050565b6001816000016000828254019250508190555050565b600660009054906101000a900460ff1615620002fb576040517f08c379a0000000000000000000000000000000000000000000000000000000008152600401620002f290620005ef565b60405180910390fd5b6200030c81620003dd60201b60201c565b6001600660006101000a81548160ff02191690831515021790555050565b60003073ffffffffffffffffffffffffffffffffffffffff163373ffffffffffffffffffffffffffffffffffffffff161415620003d657600080368080601f016020809104026020016040519081016040528093929190818152602001838380828437600081840152601f19601f820116905080830192505050505050509050600080369050905073ffffffffffffffffffffffffffffffffffffffff818301511692505050620003da565b3390505b90565b6040518060800160405280604f815260200162004fd3604f91398051906020012081805190602001206040518060400160405280600181526020017f31000000000000000000000000000000000000000000000000000000000000008152508051906020012030620004546200048c60201b60201c565b60001b6040516020016200046d95949392919062000592565b6040516020818303038152906040528051906020012060078190555050565b6000804690508091505090565b828054620004a79062000660565b90600052602060002090601f016020900481019282620004cb576000855562000517565b82601f10620004e657805160ff191683800117855562000517565b8280016001018555821562000517579182015b8281111562000516578251825591602001919060010190620004f9565b5b5090506200052691906200052a565b5090565b5b80821115620005455760008160009055506001016200052b565b5090565b620005548162000622565b82525050565b620005658162000636565b82525050565b60006200057a600e8362000611565b91506200058782620006c5565b602082019050919050565b600060a082019050620005a960008301886200055a565b620005b860208301876200055a565b620005c760408301866200055a565b620005d6606083018562000549565b620005e560808301846200055a565b9695505050505050565b600060208201905081810360008301526200060a816200056b565b9050919050565b600082825260208201905092915050565b60006200062f8262000640565b9050919050565b6000819050919050565b600073ffffffffffffffffffffffffffffffffffffffff82169050919050565b600060028204905060018216806200067957607f821691505b6020821081141562000690576200068f62000696565b5b50919050565b7f4e487b7100000000000000000000000000000000000000000000000000000000600052602260045260246000fd5b7f616c726561647920696e69746564000000000000000000000000000000000000600082015250565b6148d580620006fe6000396000f3fe60806040526004361061019c5760003560e01c806342842e0e116100ec5780638da5cb5b1161008a578063b88d4fde11610064578063b88d4fde14610595578063c87b56dd146105be578063e985e9c5146105fb578063f2fde38b146106385761019c565b80638da5cb5b1461051657806395d89b4114610541578063a22cb4651461056c5761019c565b80636352211e116100c65780636352211e1461045c57806370a0823114610499578063715018a6146104d6578063755edd17146104ed5761019c565b806342842e0e146103df57806342966c681461040857806361bc221a146104315761019c565b80631249c58b1161015957806323b872dd1161013357806323b872dd146103375780632d0335ab146103605780633408e4701461039d57806340a3d246146103c85761019c565b80631249c58b146102ca57806318160ddd146102e157806320379ee51461030c5761019c565b806301ffc9a7146101a157806306fdde03146101de578063081812fc14610209578063095ea7b3146102465780630c53c51c1461026f5780630f7e59701461029f575b600080fd5b3480156101ad57600080fd5b506101c860048036038101906101c39190612b93565b610661565b6040516101d59190613572565b60405180910390f35b3480156101ea57600080fd5b506101f3610743565b6040516102009190613654565b60405180910390f35b34801561021557600080fd5b50610230600480360381019061022b9190612c1a565b6107d5565b60405161023d91906134cd565b60405180910390f35b34801561025257600080fd5b5061026d60048036038101906102689190612b53565b61085a565b005b61028960048036038101906102849190612abc565b610972565b6040516102969190613632565b60405180910390f35b3480156102ab57600080fd5b506102b4610be4565b6040516102c19190613654565b60405180910390f35b3480156102d657600080fd5b506102df610c1d565b005b3480156102ed57600080fd5b506102f6610c3d565b60405161030391906138b6565b60405180910390f35b34801561031857600080fd5b50610321610c5a565b60405161032e919061358d565b60405180910390f35b34801561034357600080fd5b5061035e600480360381019061035991906129a6565b610c64565b005b34801561036c57600080fd5b5061038760048036038101906103829190612939565b610cc4565b60405161039491906138b6565b60405180910390f35b3480156103a957600080fd5b506103b2610d0d565b6040516103bf91906138b6565b60405180910390f35b3480156103d457600080fd5b506103dd610d1a565b005b3480156103eb57600080fd5b50610406600480360381019061040191906129a6565b610d46565b005b34801561041457600080fd5b5061042f600480360381019061042a9190612c1a565b610d66565b005b34801561043d57600080fd5b50610446610d72565b60405161045391906138b6565b60405180910390f35b34801561046857600080fd5b50610483600480360381019061047e9190612c1a565b610d78565b60405161049091906134cd565b60405180910390f35b3480156104a557600080fd5b506104c060048036038101906104bb9190612939565b610e2a565b6040516104cd91906138b6565b60405180910390f35b3480156104e257600080fd5b506104eb610ee2565b005b3480156104f957600080fd5b50610514600480360381019061050f9190612939565b610f6a565b005b34801561052257600080fd5b5061052b61100c565b60405161053891906134cd565b60405180910390f35b34801561054d57600080fd5b50610556611036565b6040516105639190613654565b60405180910390f35b34801561057857600080fd5b50610593600480360381019061058e9190612a7c565b6110c8565b005b3480156105a157600080fd5b506105bc60048036038101906105b791906129f9565b6110de565b005b3480156105ca57600080fd5b506105e560048036038101906105e09190612c1a565b611140565b6040516105f29190613654565b60405180910390f35b34801561060757600080fd5b50610622600480360381019061061d9190612966565b61135f565b60405161062f9190613572565b60405180910390f35b34801561064457600080fd5b5061065f600480360381019061065a9190612939565b611461565b005b60007f80ac58cd000000000000000000000000000000000000000000000000000000007bffffffffffffffffffffffffffffffffffffffffffffffffffffffff1916827bffffffffffffffffffffffffffffffffffffffffffffffffffffffff1916148061072c57507f5b5e139f000000000000000000000000000000000000000000000000000000007bffffffffffffffffffffffffffffffffffffffffffffffffffffffff1916827bffffffffffffffffffffffffffffffffffffffffffffffffffffffff1916145b8061073c575061073b82611620565b5b9050919050565b60606000805461075290613b90565b80601f016020809104026020016040519081016040528092919081815260200182805461077e90613b90565b80156107cb5780601f106107a0576101008083540402835291602001916107cb565b820191906000526020600020905b8154815290600101906020018083116107ae57829003601f168201915b5050505050905090565b60006107e08261168a565b61081f576040517f08c379a000000000000000000000000000000000000000000000000000000000815260040161081690613816565b60405180910390fd5b6004600083815260200190815260200160002060009054906101000a900473ffffffffffffffffffffffffffffffffffffffff169050919050565b600061086582610d78565b90508073ffffffffffffffffffffffffffffffffffffffff168373ffffffffffffffffffffffffffffffffffffffff1614156108d6576040517f08c379a00000000000000000000000000000000000000000000000000000000081526004016108cd90613876565b60405180910390fd5b8073ffffffffffffffffffffffffffffffffffffffff166108f56116f6565b73ffffffffffffffffffffffffffffffffffffffff16148061092457506109238161091e6116f6565b61135f565b5b610963576040517f08c379a000000000000000000000000000000000000000000000000000000000815260040161095a90613796565b60405180910390fd5b61096d8383611705565b505050565b606060006040518060600160405280600860008a73ffffffffffffffffffffffffffffffffffffffff1673ffffffffffffffffffffffffffffffffffffffff1681526020019081526020016000205481526020018873ffffffffffffffffffffffffffffffffffffffff1681526020018781525090506109f587828787876117be565b610a34576040517f08c379a0000000000000000000000000000000000000000000000000000000008152600401610a2b90613856565b60405180910390fd5b610a876001600860008a73ffffffffffffffffffffffffffffffffffffffff1673ffffffffffffffffffffffffffffffffffffffff168152602001908152602001600020546118c790919063ffffffff16565b600860008973ffffffffffffffffffffffffffffffffffffffff1673ffffffffffffffffffffffffffffffffffffffff168152602001908152602001600020819055507f5845892132946850460bff5a0083f71031bc5bf9aadcd40f1de79423eac9b10b873388604051610afd939291906134e8565b60405180910390a16000803073ffffffffffffffffffffffffffffffffffffffff16888a604051602001610b329291906132df565b604051602081830303815290604052604051610b4e91906132c8565b6000604051808303816000865af19150503d8060008114610b8b576040519150601f19603f3d011682016040523d82523d6000602084013e610b90565b606091505b509150915081610bd5576040517f08c379a0000000000000000000000000000000000000000000000000000000008152600401610bcc906136b6565b60405180910390fd5b80935050505095945050505050565b6040518060400160405280600181526020017f310000000000000000000000000000000000000000000000000000000000000081525081565b610c3b33600c60008154610c3090613bf3565b9190508190556118dd565b565b60006001610c4b600a6118fb565b610c559190613a6b565b905090565b6000600754905090565b610c75610c6f6116f6565b82611909565b610cb4576040517f08c379a0000000000000000000000000000000000000000000000000000000008152600401610cab90613896565b60405180910390fd5b610cbf8383836119e7565b505050565b6000600860008373ffffffffffffffffffffffffffffffffffffffff1673ffffffffffffffffffffffffffffffffffffffff168152602001908152602001600020549050919050565b6000804690508091505090565b600e60009054906101000a900460ff1615600e60006101000a81548160ff021916908315150217905550565b610d61838383604051806020016040528060008152506110de565b505050565b610d6f81611c4e565b50565b600c5481565b6000806002600084815260200190815260200160002060009054906101000a900473ffffffffffffffffffffffffffffffffffffffff169050600073ffffffffffffffffffffffffffffffffffffffff168173ffffffffffffffffffffffffffffffffffffffff161415610e21576040517f08c379a0000000000000000000000000000000000000000000000000000000008152600401610e18906137d6565b60405180910390fd5b80915050919050565b60008073ffffffffffffffffffffffffffffffffffffffff168273ffffffffffffffffffffffffffffffffffffffff161415610e9b576040517f08c379a0000000000000000000000000000000000000000000000000000000008152600401610e92906137b6565b60405180910390fd5b600360008373ffffffffffffffffffffffffffffffffffffffff1673ffffffffffffffffffffffffffffffffffffffff168152602001908152602001600020549050919050565b610eea6116f6565b73ffffffffffffffffffffffffffffffffffffffff16610f0861100c565b73ffffffffffffffffffffffffffffffffffffffff1614610f5e576040517f08c379a0000000000000000000000000000000000000000000000000000000008152600401610f5590613836565b60405180910390fd5b610f686000611d6b565b565b610f726116f6565b73ffffffffffffffffffffffffffffffffffffffff16610f9061100c565b73ffffffffffffffffffffffffffffffffffffffff1614610fe6576040517f08c379a0000000000000000000000000000000000000000000000000000000008152600401610fdd90613836565b60405180910390fd5b6000610ff2600a6118fb565b9050610ffe600a611559565b61100882826118dd565b5050565b6000600960009054906101000a900473ffffffffffffffffffffffffffffffffffffffff16905090565b60606001805461104590613b90565b80601f016020809104026020016040519081016040528092919081815260200182805461107190613b90565b80156110be5780601f10611093576101008083540402835291602001916110be565b820191906000526020600020905b8154815290600101906020018083116110a157829003601f168201915b5050505050905090565b6110da6110d36116f6565b8383611e31565b5050565b6110ef6110e96116f6565b83611909565b61112e576040517f08c379a000000000000000000000000000000000000000000000000000000000815260040161112590613896565b60405180910390fd5b61113a84848484611f9e565b50505050565b6060600e60009054906101000a900460ff16156111a35761117d604051602001611169906134b8565b604051602081830303815290604052611ffa565b60405160200161118d9190613496565b604051602081830303815290604052905061135a565b6000600e60009054906101000a900460ff166111f4576040518060400160405280600781526020017f236666303030300000000000000000000000000000000000000000000000000081525061122b565b6040518060400160405280600781526020017f23303066663030000000000000000000000000000000000000000000000000008152505b905060006040518060800160405280604f8152602001614811604f913990508060405160200161125b91906133d7565b6040516020818303038152906040529050808260405160200161127f929190613341565b604051602081830303815290604052905080600d6040516020016112a4929190613307565b6040516020818303038152906040529050806112bf85612192565b6040516020016112d092919061337b565b6040516020818303038152906040529050806040516020016112f291906133b5565b6040516020818303038152906040529050611336600d61131183611ffa565b604051602001611322929190613451565b604051602081830303815290604052611ffa565b6040516020016113469190613496565b604051602081830303815290604052925050505b919050565b600080600b60009054906101000a900473ffffffffffffffffffffffffffffffffffffffff1690508273ffffffffffffffffffffffffffffffffffffffff168173ffffffffffffffffffffffffffffffffffffffff1663c4552791866040518263ffffffff1660e01b81526004016113d791906134cd565b60206040518083038186803b1580156113ef57600080fd5b505afa158015611403573d6000803e3d6000fd5b505050506040513d601f19601f820116820180604052508101906114279190612bed565b73ffffffffffffffffffffffffffffffffffffffff16141561144d57600191505061145b565b61145784846122f3565b9150505b92915050565b6114696116f6565b73ffffffffffffffffffffffffffffffffffffffff1661148761100c565b73ffffffffffffffffffffffffffffffffffffffff16146114dd576040517f08c379a00000000000000000000000000000000000000000000000000000000081526004016114d490613836565b60405180910390fd5b600073ffffffffffffffffffffffffffffffffffffffff168173ffffffffffffffffffffffffffffffffffffffff16141561154d576040517f08c379a000000000000000000000000000000000000000000000000000000000815260040161154490613696565b60405180910390fd5b61155681611d6b565b50565b6001816000016000828254019250508190555050565b60003073ffffffffffffffffffffffffffffffffffffffff163373ffffffffffffffffffffffffffffffffffffffff16141561161957600080368080601f016020809104026020016040519081016040528093929190818152602001838380828437600081840152601f19601f820116905080830192505050505050509050600080369050905073ffffffffffffffffffffffffffffffffffffffff81830151169250505061161d565b3390505b90565b60007f01ffc9a7000000000000000000000000000000000000000000000000000000007bffffffffffffffffffffffffffffffffffffffffffffffffffffffff1916827bffffffffffffffffffffffffffffffffffffffffffffffffffffffff1916149050919050565b60008073ffffffffffffffffffffffffffffffffffffffff166002600084815260200190815260200160002060009054906101000a900473ffffffffffffffffffffffffffffffffffffffff1673ffffffffffffffffffffffffffffffffffffffff1614159050919050565b600061170061156f565b905090565b816004600083815260200190815260200160002060006101000a81548173ffffffffffffffffffffffffffffffffffffffff021916908373ffffffffffffffffffffffffffffffffffffffff160217905550808273ffffffffffffffffffffffffffffffffffffffff1661177883610d78565b73ffffffffffffffffffffffffffffffffffffffff167f8c5be1e5ebec7d5bd14f71427d1e84f3dd0314c0f7b2291e5b200ac8c7c3b92560405160405180910390a45050565b60008073ffffffffffffffffffffffffffffffffffffffff168673ffffffffffffffffffffffffffffffffffffffff16141561182f576040517f08c379a000000000000000000000000000000000000000000000000000000000815260040161182690613776565b60405180910390fd5b600161184261183d87612387565b6123ef565b8386866040516000815260200160405260405161186294939291906135ed565b6020604051602081039080840390855afa158015611884573d6000803e3d6000fd5b5050506020604051035173ffffffffffffffffffffffffffffffffffffffff168673ffffffffffffffffffffffffffffffffffffffff1614905095945050505050565b600081836118d5919061398a565b905092915050565b6118f7828260405180602001604052806000815250612428565b5050565b600081600001549050919050565b60006119148261168a565b611953576040517f08c379a000000000000000000000000000000000000000000000000000000000815260040161194a90613756565b60405180910390fd5b600061195e83610d78565b90508073ffffffffffffffffffffffffffffffffffffffff168473ffffffffffffffffffffffffffffffffffffffff1614806119a0575061199f818561135f565b5b806119de57508373ffffffffffffffffffffffffffffffffffffffff166119c6846107d5565b73ffffffffffffffffffffffffffffffffffffffff16145b91505092915050565b8273ffffffffffffffffffffffffffffffffffffffff16611a0782610d78565b73ffffffffffffffffffffffffffffffffffffffff1614611a5d576040517f08c379a0000000000000000000000000000000000000000000000000000000008152600401611a54906136d6565b60405180910390fd5b600073ffffffffffffffffffffffffffffffffffffffff168273ffffffffffffffffffffffffffffffffffffffff161415611acd576040517f08c379a0000000000000000000000000000000000000000000000000000000008152600401611ac490613716565b60405180910390fd5b611ad8838383612483565b611ae3600082611705565b6001600360008573ffffffffffffffffffffffffffffffffffffffff1673ffffffffffffffffffffffffffffffffffffffff1681526020019081526020016000206000828254611b339190613a6b565b925050819055506001600360008473ffffffffffffffffffffffffffffffffffffffff1673ffffffffffffffffffffffffffffffffffffffff1681526020019081526020016000206000828254611b8a919061398a565b92505081905550816002600083815260200190815260200160002060006101000a81548173ffffffffffffffffffffffffffffffffffffffff021916908373ffffffffffffffffffffffffffffffffffffffff160217905550808273ffffffffffffffffffffffffffffffffffffffff168473ffffffffffffffffffffffffffffffffffffffff167fddf252ad1be2c89b69c2b068fc378daa952ba7f163c4a11628f55a4df523b3ef60405160405180910390a4611c49838383612488565b505050565b6000611c5982610d78565b9050611c6781600084612483565b611c72600083611705565b6001600360008373ffffffffffffffffffffffffffffffffffffffff1673ffffffffffffffffffffffffffffffffffffffff1681526020019081526020016000206000828254611cc29190613a6b565b925050819055506002600083815260200190815260200160002060006101000a81549073ffffffffffffffffffffffffffffffffffffffff021916905581600073ffffffffffffffffffffffffffffffffffffffff168273ffffffffffffffffffffffffffffffffffffffff167fddf252ad1be2c89b69c2b068fc378daa952ba7f163c4a11628f55a4df523b3ef60405160405180910390a4611d6781600084612488565b5050565b6000600960009054906101000a900473ffffffffffffffffffffffffffffffffffffffff16905081600960006101000a81548173ffffffffffffffffffffffffffffffffffffffff021916908373ffffffffffffffffffffffffffffffffffffffff1602179055508173ffffffffffffffffffffffffffffffffffffffff168173ffffffffffffffffffffffffffffffffffffffff167f8be0079c531659141344cd1fd0a4f28419497f9722a3daafe3b4186f6b6457e060405160405180910390a35050565b8173ffffffffffffffffffffffffffffffffffffffff168373ffffffffffffffffffffffffffffffffffffffff161415611ea0576040517f08c379a0000000000000000000000000000000000000000000000000000000008152600401611e9790613736565b60405180910390fd5b80600560008573ffffffffffffffffffffffffffffffffffffffff1673ffffffffffffffffffffffffffffffffffffffff16815260200190815260200160002060008473ffffffffffffffffffffffffffffffffffffffff1673ffffffffffffffffffffffffffffffffffffffff16815260200190815260200160002060006101000a81548160ff0219169083151502179055508173ffffffffffffffffffffffffffffffffffffffff168373ffffffffffffffffffffffffffffffffffffffff167f17307eab39ab6107e8899845ad3d59bd9653f200f220920489ca2b5937696c3183604051611f919190613572565b60405180910390a3505050565b611fa98484846119e7565b611fb58484848461248d565b611ff4576040517f08c379a0000000000000000000000000000000000000000000000000000000008152600401611feb90613676565b60405180910390fd5b50505050565b60606000825190506000811415612023576040518060200160405280600081525091505061218d565b60006003600283612034919061398a565b61203e91906139e0565b600461204a9190613a11565b9050600060208261205b919061398a565b67ffffffffffffffff81111561207457612073613d57565b5b6040519080825280601f01601f1916602001820160405280156120a65781602001600182028036833780820191505090505b5090506000604051806060016040528060408152602001614860604091399050600181016020830160005b8681101561214a5760038101905062ffffff818a015116603f8160121c168401518060081b905060ff603f83600c1c1686015116810190508060081b905060ff603f8360061c1686015116810190508060081b905060ff603f831686015116810190508060e01b905080845260048401935050506120d1565b50600386066001811461216457600281146121745761217f565b613d3d60f01b600283035261217f565b603d60f81b60018303525b508484525050819450505050505b919050565b606060008214156121da576040518060400160405280600181526020017f300000000000000000000000000000000000000000000000000000000000000081525090506122ee565b600082905060005b6000821461220c5780806121f590613bf3565b915050600a8261220591906139e0565b91506121e2565b60008167ffffffffffffffff81111561222857612227613d57565b5b6040519080825280601f01601f19166020018201604052801561225a5781602001600182028036833780820191505090505b5090505b600085146122e7576001826122739190613a6b565b9150600a856122829190613c6a565b603061228e919061398a565b60f81b8183815181106122a4576122a3613d28565b5b60200101907effffffffffffffffffffffffffffffffffffffffffffffffffffffffffffff1916908160001a905350600a856122e091906139e0565b945061225e565b8093505050505b919050565b6000600560008473ffffffffffffffffffffffffffffffffffffffff1673ffffffffffffffffffffffffffffffffffffffff16815260200190815260200160002060008373ffffffffffffffffffffffffffffffffffffffff1673ffffffffffffffffffffffffffffffffffffffff16815260200190815260200160002060009054906101000a900460ff16905092915050565b60006040518060800160405280604381526020016147ce6043913980519060200120826000015183602001518460400151805190602001206040516020016123d294939291906135a8565b604051602081830303815290604052805190602001209050919050565b60006123f9610c5a565b8260405160200161240b92919061341a565b604051602081830303815290604052805190602001209050919050565b6124328383612624565b61243f600084848461248d565b61247e576040517f08c379a000000000000000000000000000000000000000000000000000000000815260040161247590613676565b60405180910390fd5b505050565b505050565b505050565b60006124ae8473ffffffffffffffffffffffffffffffffffffffff166127fe565b15612617578373ffffffffffffffffffffffffffffffffffffffff1663150b7a026124d76116f6565b8786866040518563ffffffff1660e01b81526004016124f99493929190613526565b602060405180830381600087803b15801561251357600080fd5b505af192505050801561254457506040513d601f19601f820116820180604052508101906125419190612bc0565b60015b6125c7573d8060008114612574576040519150601f19603f3d011682016040523d82523d6000602084013e612579565b606091505b506000815114156125bf576040517f08c379a00000000000000000000000000000000000000000000000000000000081526004016125b690613676565b60405180910390fd5b805181602001fd5b63150b7a0260e01b7bffffffffffffffffffffffffffffffffffffffffffffffffffffffff1916817bffffffffffffffffffffffffffffffffffffffffffffffffffffffff19161491505061261c565b600190505b949350505050565b600073ffffffffffffffffffffffffffffffffffffffff168273ffffffffffffffffffffffffffffffffffffffff161415612694576040517f08c379a000000000000000000000000000000000000000000000000000000000815260040161268b906137f6565b60405180910390fd5b61269d8161168a565b156126dd576040517f08c379a00000000000000000000000000000000000000000000000000000000081526004016126d4906136f6565b60405180910390fd5b6126e960008383612483565b6001600360008473ffffffffffffffffffffffffffffffffffffffff1673ffffffffffffffffffffffffffffffffffffffff1681526020019081526020016000206000828254612739919061398a565b92505081905550816002600083815260200190815260200160002060006101000a81548173ffffffffffffffffffffffffffffffffffffffff021916908373ffffffffffffffffffffffffffffffffffffffff160217905550808273ffffffffffffffffffffffffffffffffffffffff16600073ffffffffffffffffffffffffffffffffffffffff167fddf252ad1be2c89b69c2b068fc378daa952ba7f163c4a11628f55a4df523b3ef60405160405180910390a46127fa60008383612488565b5050565b6000808273ffffffffffffffffffffffffffffffffffffffff163b119050919050565b600061283461282f846138f6565b6138d1565b9050828152602081018484840111156128505761284f613d8b565b5b61285b848285613b4e565b509392505050565b6000813590506128728161472c565b92915050565b60008135905061288781614743565b92915050565b60008135905061289c8161475a565b92915050565b6000813590506128b181614771565b92915050565b6000815190506128c681614771565b92915050565b600082601f8301126128e1576128e0613d86565b5b81356128f1848260208601612821565b91505092915050565b60008151905061290981614788565b92915050565b60008135905061291e8161479f565b92915050565b600081359050612933816147b6565b92915050565b60006020828403121561294f5761294e613d95565b5b600061295d84828501612863565b91505092915050565b6000806040838503121561297d5761297c613d95565b5b600061298b85828601612863565b925050602061299c85828601612863565b9150509250929050565b6000806000606084860312156129bf576129be613d95565b5b60006129cd86828701612863565b93505060206129de86828701612863565b92505060406129ef8682870161290f565b9150509250925092565b60008060008060808587031215612a1357612a12613d95565b5b6000612a2187828801612863565b9450506020612a3287828801612863565b9350506040612a438782880161290f565b925050606085013567ffffffffffffffff811115612a6457612a63613d90565b5b612a70878288016128cc565b91505092959194509250565b60008060408385031215612a9357612a92613d95565b5b6000612aa185828601612863565b9250506020612ab285828601612878565b9150509250929050565b600080600080600060a08688031215612ad857612ad7613d95565b5b6000612ae688828901612863565b955050602086013567ffffffffffffffff811115612b0757612b06613d90565b5b612b13888289016128cc565b9450506040612b248882890161288d565b9350506060612b358882890161288d565b9250506080612b4688828901612924565b9150509295509295909350565b60008060408385031215612b6a57612b69613d95565b5b6000612b7885828601612863565b9250506020612b898582860161290f565b9150509250929050565b600060208284031215612ba957612ba8613d95565b5b6000612bb7848285016128a2565b91505092915050565b600060208284031215612bd657612bd5613d95565b5b6000612be4848285016128b7565b91505092915050565b600060208284031215612c0357612c02613d95565b5b6000612c11848285016128fa565b91505092915050565b600060208284031215612c3057612c2f613d95565b5b6000612c3e8482850161290f565b91505092915050565b612c5081613ab1565b82525050565b612c5f81613a9f565b82525050565b612c76612c7182613a9f565b613c3c565b82525050565b612c8581613ac3565b82525050565b612c9481613acf565b82525050565b612cab612ca682613acf565b613c4e565b82525050565b6000612cbc8261393c565b612cc68185613952565b9350612cd6818560208601613b5d565b612cdf81613d9a565b840191505092915050565b6000612cf58261393c565b612cff8185613963565b9350612d0f818560208601613b5d565b80840191505092915050565b6000612d2682613947565b612d30818561396e565b9350612d40818560208601613b5d565b612d4981613d9a565b840191505092915050565b6000612d5f82613947565b612d69818561397f565b9350612d79818560208601613b5d565b80840191505092915050565b60008154612d9281613b90565b612d9c818661397f565b94506001821660008114612db75760018114612dc857612dfb565b60ff19831686528186019350612dfb565b612dd185613927565b60005b83811015612df357815481890152600182019150602081019050612dd4565b838801955050505b50505092915050565b6000612e1160328361396e565b9150612e1c82613db8565b604082019050919050565b6000612e3460268361396e565b9150612e3f82613e07565b604082019050919050565b6000612e57601c8361396e565b9150612e6282613e56565b602082019050919050565b6000612e7a60258361396e565b9150612e8582613e7f565b604082019050919050565b6000612e9d601c8361396e565b9150612ea882613ece565b602082019050919050565b6000612ec060028361397f565b9150612ecb82613ef7565b600282019050919050565b6000612ee360088361397f565b9150612eee82613f20565b600882019050919050565b6000612f0660248361396e565b9150612f1182613f49565b604082019050919050565b6000612f2960198361396e565b9150612f3482613f98565b602082019050919050565b6000612f4c602c8361396e565b9150612f5782613fc1565b604082019050919050565b6000612f6f602a8361397f565b9150612f7a82614010565b602a82019050919050565b6000612f9260258361396e565b9150612f9d8261405f565b604082019050919050565b6000612fb560388361396e565b9150612fc0826140ae565b604082019050919050565b6000612fd860048361397f565b9150612fe3826140fd565b600482019050919050565b6000612ffb602a8361396e565b915061300682614126565b604082019050919050565b600061301e60298361396e565b915061302982614175565b604082019050919050565b600061304160278361397f565b915061304c826141c4565b602782019050919050565b600061306460028361397f565b915061306f82614213565b600282019050919050565b600061308760078361397f565b91506130928261423c565b600782019050919050565b60006130aa60208361396e565b91506130b582614265565b602082019050919050565b60006130cd602c8361396e565b91506130d88261428e565b604082019050919050565b60006130f060208361396e565b91506130fb826142dd565b602082019050919050565b600061311360218361396e565b915061311e82614306565b604082019050919050565b600061313660278361397f565b915061314182614355565b602782019050919050565b6000613159600a8361397f565b9150613164826143a4565b600a82019050919050565b600061317c60218361396e565b9150613187826143cd565b604082019050919050565b600061319f601d8361397f565b91506131aa8261441c565b601d82019050919050565b60006131c260318361396e565b91506131cd82614445565b604082019050919050565b60006131e560318361397f565b91506131f082614494565b603182019050919050565b600061320860698361397f565b9150613213826144e3565b606982019050919050565b600061322b601c8361397f565b91506132368261457e565b601c82019050919050565b600061324e60068361397f565b9150613259826145a7565b600682019050919050565b600061327160e68361397f565b915061327c826145d0565b60e682019050919050565b600061329460078361397f565b915061329f82614703565b600782019050919050565b6132b381613b37565b82525050565b6132c281613b41565b82525050565b60006132d48284612cea565b915081905092915050565b60006132eb8285612cea565b91506132f78284612c65565b6014820191508190509392505050565b60006133138285612d54565b915061331e82612f62565b915061332a8284612d85565b91506133358261307a565b91508190509392505050565b600061334d8285612d54565b915061335882613034565b91506133648284612d54565b915061336f82612fcb565b91508190509392505050565b60006133878285612d54565b91506133928261321e565b915061339e8284612d54565b91506133a98261307a565b91508190509392505050565b60006133c18284612d54565b91506133cc82613241565b915081905092915050565b60006133e38284612d54565b91506133ee82613287565b91506133f9826131fb565b9150613404826131d8565b915061340f82612ed6565b915081905092915050565b600061342582612eb3565b91506134318285612c9a565b6020820191506134418284612c9a565b6020820191508190509392505050565b600061345c8261314c565b91506134688285612d85565b915061347382613129565b915061347f8284612d54565b915061348a82613057565b91508190509392505050565b60006134a182613192565b91506134ad8284612d54565b915081905092915050565b60006134c382613264565b9150819050919050565b60006020820190506134e26000830184612c56565b92915050565b60006060820190506134fd6000830186612c56565b61350a6020830185612c47565b818103604083015261351c8184612cb1565b9050949350505050565b600060808201905061353b6000830187612c56565b6135486020830186612c56565b61355560408301856132aa565b81810360608301526135678184612cb1565b905095945050505050565b60006020820190506135876000830184612c7c565b92915050565b60006020820190506135a26000830184612c8b565b92915050565b60006080820190506135bd6000830187612c8b565b6135ca60208301866132aa565b6135d76040830185612c56565b6135e46060830184612c8b565b95945050505050565b60006080820190506136026000830187612c8b565b61360f60208301866132b9565b61361c6040830185612c8b565b6136296060830184612c8b565b95945050505050565b6000602082019050818103600083015261364c8184612cb1565b905092915050565b6000602082019050818103600083015261366e8184612d1b565b905092915050565b6000602082019050818103600083015261368f81612e04565b9050919050565b600060208201905081810360008301526136af81612e27565b9050919050565b600060208201905081810360008301526136cf81612e4a565b9050919050565b600060208201905081810360008301526136ef81612e6d565b9050919050565b6000602082019050818103600083015261370f81612e90565b9050919050565b6000602082019050818103600083015261372f81612ef9565b9050919050565b6000602082019050818103600083015261374f81612f1c565b9050919050565b6000602082019050818103600083015261376f81612f3f565b9050919050565b6000602082019050818103600083015261378f81612f85565b9050919050565b600060208201905081810360008301526137af81612fa8565b9050919050565b600060208201905081810360008301526137cf81612fee565b9050919050565b600060208201905081810360008301526137ef81613011565b9050919050565b6000602082019050818103600083015261380f8161309d565b9050919050565b6000602082019050818103600083015261382f816130c0565b9050919050565b6000602082019050818103600083015261384f816130e3565b9050919050565b6000602082019050818103600083015261386f81613106565b9050919050565b6000602082019050818103600083015261388f8161316f565b9050919050565b600060208201905081810360008301526138af816131b5565b9050919050565b60006020820190506138cb60008301846132aa565b92915050565b60006138db6138ec565b90506138e78282613bc2565b919050565b6000604051905090565b600067ffffffffffffffff82111561391157613910613d57565b5b61391a82613d9a565b9050602081019050919050565b60008190508160005260206000209050919050565b600081519050919050565b600081519050919050565b600082825260208201905092915050565b600081905092915050565b600082825260208201905092915050565b600081905092915050565b600061399582613b37565b91506139a083613b37565b9250827fffffffffffffffffffffffffffffffffffffffffffffffffffffffffffffffff038211156139d5576139d4613c9b565b5b828201905092915050565b60006139eb82613b37565b91506139f683613b37565b925082613a0657613a05613cca565b5b828204905092915050565b6000613a1c82613b37565b9150613a2783613b37565b9250817fffffffffffffffffffffffffffffffffffffffffffffffffffffffffffffffff0483118215151615613a6057613a5f613c9b565b5b828202905092915050565b6000613a7682613b37565b9150613a8183613b37565b925082821015613a9457613a93613c9b565b5b828203905092915050565b6000613aaa82613b17565b9050919050565b6000613abc82613b17565b9050919050565b60008115159050919050565b6000819050919050565b60007fffffffff0000000000000000000000000000000000000000000000000000000082169050919050565b6000613b1082613a9f565b9050919050565b600073ffffffffffffffffffffffffffffffffffffffff82169050919050565b6000819050919050565b600060ff82169050919050565b82818337600083830152505050565b60005b83811015613b7b578082015181840152602081019050613b60565b83811115613b8a576000848401525b50505050565b60006002820490506001821680613ba857607f821691505b60208210811415613bbc57613bbb613cf9565b5b50919050565b613bcb82613d9a565b810181811067ffffffffffffffff82111715613bea57613be9613d57565b5b80604052505050565b6000613bfe82613b37565b91507fffffffffffffffffffffffffffffffffffffffffffffffffffffffffffffffff821415613c3157613c30613c9b565b5b600182019050919050565b6000613c4782613c58565b9050919050565b6000819050919050565b6000613c6382613dab565b9050919050565b6000613c7582613b37565b9150613c8083613b37565b925082613c9057613c8f613cca565b5b828206905092915050565b7f4e487b7100000000000000000000000000000000000000000000000000000000600052601160045260246000fd5b7f4e487b7100000000000000000000000000000000000000000000000000000000600052601260045260246000fd5b7f4e487b7100000000000000000000000000000000000000000000000000000000600052602260045260246000fd5b7f4e487b7100000000000000000000000000000000000000000000000000000000600052603260045260246000fd5b7f4e487b7100000000000000000000000000000000000000000000000000000000600052604160045260246000fd5b600080fd5b600080fd5b600080fd5b600080fd5b6000601f19601f8301169050919050565b60008160601b9050919050565b7f4552433732313a207472616e7366657220746f206e6f6e20455243373231526560008201527f63656976657220696d706c656d656e7465720000000000000000000000000000602082015250565b7f4f776e61626c653a206e6577206f776e657220697320746865207a65726f206160008201527f6464726573730000000000000000000000000000000000000000000000000000602082015250565b7f46756e6374696f6e2063616c6c206e6f74207375636365737366756c00000000600082015250565b7f4552433732313a207472616e736665722066726f6d20696e636f72726563742060008201527f6f776e6572000000000000000000000000000000000000000000000000000000602082015250565b7f4552433732313a20746f6b656e20616c7265616479206d696e74656400000000600082015250565b7f1901000000000000000000000000000000000000000000000000000000000000600082015250565b7f3c2f7374796c653e000000000000000000000000000000000000000000000000600082015250565b7f4552433732313a207472616e7366657220746f20746865207a65726f2061646460008201527f7265737300000000000000000000000000000000000000000000000000000000602082015250565b7f4552433732313a20617070726f766520746f2063616c6c657200000000000000600082015250565b7f4552433732313a206f70657261746f7220717565727920666f72206e6f6e657860008201527f697374656e7420746f6b656e0000000000000000000000000000000000000000602082015250565b7f3c7465787420783d223230302220793d2234302220636c6173733d227469746c60008201527f65223e5469746c653a2000000000000000000000000000000000000000000000602082015250565b7f4e61746976654d6574615472616e73616374696f6e3a20494e56414c49445f5360008201527f49474e4552000000000000000000000000000000000000000000000000000000602082015250565b7f4552433732313a20617070726f76652063616c6c6572206973206e6f74206f7760008201527f6e6572206e6f7220617070726f76656420666f7220616c6c0000000000000000602082015250565b7f22202f3e00000000000000000000000000000000000000000000000000000000600082015250565b7f4552433732313a2062616c616e636520717565727920666f7220746865207a6560008201527f726f206164647265737300000000000000000000000000000000000000000000602082015250565b7f4552433732313a206f776e657220717565727920666f72206e6f6e657869737460008201527f656e7420746f6b656e0000000000000000000000000000000000000000000000602082015250565b7f3c726563742077696474683d223130302522206865696768743d22313030252260008201527f2066696c6c3d2200000000000000000000000000000000000000000000000000602082015250565b7f227d000000000000000000000000000000000000000000000000000000000000600082015250565b7f3c2f746578743e00000000000000000000000000000000000000000000000000600082015250565b7f4552433732313a206d696e7420746f20746865207a65726f2061646472657373600082015250565b7f4552433732313a20617070726f76656420717565727920666f72206e6f6e657860008201527f697374656e7420746f6b656e0000000000000000000000000000000000000000602082015250565b7f4f776e61626c653a2063616c6c6572206973206e6f7420746865206f776e6572600082015250565b7f5369676e657220616e64207369676e617475726520646f206e6f74206d61746360008201527f6800000000000000000000000000000000000000000000000000000000000000602082015250565b7f222c2022696d616765223a2022646174613a696d6167652f7376672b786d6c3b60008201527f6261736536342c00000000000000000000000000000000000000000000000000602082015250565b7f7b226e616d65223a202200000000000000000000000000000000000000000000600082015250565b7f4552433732313a20617070726f76616c20746f2063757272656e74206f776e6560008201527f7200000000000000000000000000000000000000000000000000000000000000602082015250565b7f646174613a6170706c69636174696f6e2f6a736f6e3b6261736536342c000000600082015250565b7f4552433732313a207472616e736665722063616c6c6572206973206e6f74206f60008201527f776e6572206e6f7220617070726f766564000000000000000000000000000000602082015250565b7f2e7469746c65207b20746578742d616e63686f723a206d6964646c653b20666f60008201527f6e742d73697a653a20312e35656d3b207d000000000000000000000000000000602082015250565b7f74657874207b20666f6e742d66616d696c793a204d6f6e6f73706163652c204860008201527f656c7665746963612c2073616e732d73657269663b20666f6e742d776569676860208201527f743a20626f6c643b2066696c6c3a20233434343434343b20666f6e742d73697a60408201527f653a2031656d3b207d0000000000000000000000000000000000000000000000606082015250565b7f3c7465787420783d2232302220793d223830223e4e46542049443a2000000000600082015250565b7f3c2f7376673e0000000000000000000000000000000000000000000000000000600082015250565b7f7b226e616d65223a20224d61736b20426c6120426c61222c226465736372697060008201527f74696f6e223a20224e6f7468696e67206861206265656e20726576656c65616460208201527f207965742e2e2e222c22696d616765223a202268747470733a2f2f6170702e7360408201527f74617267617a652e7a6f6e652f5f6e6578742f696d6167653f75726c3d68747460608201527f70732533412532462532467265732e636c6f7564696e6172792e636f6d25324660808201527f7374617267617a65253246696d61676525324675706c6f6164253246775f373060a08201527f30253246766e34626e727532626a776f386f32737539666b26773d333834302660c08201527f713d3735227d000000000000000000000000000000000000000000000000000060e082015250565b7f3c7374796c653e00000000000000000000000000000000000000000000000000600082015250565b61473581613a9f565b811461474057600080fd5b50565b61474c81613ac3565b811461475757600080fd5b50565b61476381613acf565b811461476e57600080fd5b50565b61477a81613ad9565b811461478557600080fd5b50565b61479181613b05565b811461479c57600080fd5b50565b6147a881613b37565b81146147b357600080fd5b50565b6147bf81613b41565b81146147ca57600080fd5b5056fe4d6574615472616e73616374696f6e2875696e74323536206e6f6e63652c616464726573732066726f6d2c62797465732066756e6374696f6e5369676e6174757265293c737667206865696768743d22323030222076657273696f6e3d22312e31222077696474683d223430302220786d6c6e733d22687474703a2f2f7777772e77332e6f72672f323030302f737667223e4142434445464748494a4b4c4d4e4f505152535455565758595a6162636465666768696a6b6c6d6e6f707172737475767778797a303132333435363738392b2fa2646970667358221220803d4bf53a7f591dc07cc80039b697af7238fcb146274e6637630a17b3386c2c64736f6c63430008070033454950373132446f6d61696e28737472696e67206e616d652c737472696e672076657273696f6e2c6164647265737320766572696679696e67436f6e74726163742c627974657333322073616c7429",
			"opcodes": "PUSH1 0x80 PUSH1 0x40 MSTORE PUSH1 0x0 PUSH1 0x6 PUSH1 0x0 PUSH2 0x100 EXP DUP2 SLOAD DUP2 PUSH1 0xFF MUL NOT AND SWAP1 DUP4 ISZERO ISZERO MUL OR SWAP1 SSTORE POP PUSH1 0x40 MLOAD DUP1 PUSH1 0x40 ADD PUSH1 0x40 MSTORE DUP1 PUSH1 0xC DUP2 MSTORE PUSH1 0x20 ADD PUSH32 0x4F6E2D436861696E205356470000000000000000000000000000000000000000 DUP2 MSTORE POP PUSH1 0xD SWAP1 DUP1 MLOAD SWAP1 PUSH1 0x20 ADD SWAP1 PUSH3 0x6C SWAP3 SWAP2 SWAP1 PUSH3 0x499 JUMP JUMPDEST POP CALLVALUE DUP1 ISZERO PUSH3 0x7A JUMPI PUSH1 0x0 DUP1 REVERT JUMPDEST POP PUSH1 0x40 MLOAD DUP1 PUSH1 0x40 ADD PUSH1 0x40 MSTORE DUP1 PUSH1 0x4 DUP2 MSTORE PUSH1 0x20 ADD PUSH32 0x5465737400000000000000000000000000000000000000000000000000000000 DUP2 MSTORE POP PUSH1 0x40 MLOAD DUP1 PUSH1 0x40 ADD PUSH1 0x40 MSTORE DUP1 PUSH1 0x2 DUP2 MSTORE PUSH1 0x20 ADD PUSH32 0x5454000000000000000000000000000000000000000000000000000000000000 DUP2 MSTORE POP CALLER DUP3 DUP3 DUP2 PUSH1 0x0 SWAP1 DUP1 MLOAD SWAP1 PUSH1 0x20 ADD SWAP1 PUSH3 0x102 SWAP3 SWAP2 SWAP1 PUSH3 0x499 JUMP JUMPDEST POP DUP1 PUSH1 0x1 SWAP1 DUP1 MLOAD SWAP1 PUSH1 0x20 ADD SWAP1 PUSH3 0x11B SWAP3 SWAP2 SWAP1 PUSH3 0x499 JUMP JUMPDEST POP POP POP PUSH3 0x13E PUSH3 0x132 PUSH3 0x1B0 PUSH1 0x20 SHL PUSH1 0x20 SHR JUMP JUMPDEST PUSH3 0x1CC PUSH1 0x20 SHL PUSH1 0x20 SHR JUMP JUMPDEST DUP1 PUSH1 0xB PUSH1 0x0 PUSH2 0x100 EXP DUP2 SLOAD DUP2 PUSH20 0xFFFFFFFFFFFFFFFFFFFFFFFFFFFFFFFFFFFFFFFF MUL NOT AND SWAP1 DUP4 PUSH20 0xFFFFFFFFFFFFFFFFFFFFFFFFFFFFFFFFFFFFFFFF AND MUL OR SWAP1 SSTORE POP PUSH3 0x196 PUSH1 0xA PUSH3 0x292 PUSH1 0x20 SHL PUSH3 0x1559 OR PUSH1 0x20 SHR JUMP JUMPDEST PUSH3 0x1A7 DUP4 PUSH3 0x2A8 PUSH1 0x20 SHL PUSH1 0x20 SHR JUMP JUMPDEST POP POP POP PUSH3 0x6EE JUMP JUMPDEST PUSH1 0x0 PUSH3 0x1C7 PUSH3 0x32A PUSH1 0x20 SHL PUSH3 0x156F OR PUSH1 0x20 SHR JUMP JUMPDEST SWAP1 POP SWAP1 JUMP JUMPDEST PUSH1 0x0 PUSH1 0x9 PUSH1 0x0 SWAP1 SLOAD SWAP1 PUSH2 0x100 EXP SWAP1 DIV PUSH20 0xFFFFFFFFFFFFFFFFFFFFFFFFFFFFFFFFFFFFFFFF AND SWAP1 POP DUP2 PUSH1 0x9 PUSH1 0x0 PUSH2 0x100 EXP DUP2 SLOAD DUP2 PUSH20 0xFFFFFFFFFFFFFFFFFFFFFFFFFFFFFFFFFFFFFFFF MUL NOT AND SWAP1 DUP4 PUSH20 0xFFFFFFFFFFFFFFFFFFFFFFFFFFFFFFFFFFFFFFFF AND MUL OR SWAP1 SSTORE POP DUP2 PUSH20 0xFFFFFFFFFFFFFFFFFFFFFFFFFFFFFFFFFFFFFFFF AND DUP2 PUSH20 0xFFFFFFFFFFFFFFFFFFFFFFFFFFFFFFFFFFFFFFFF AND PUSH32 0x8BE0079C531659141344CD1FD0A4F28419497F9722A3DAAFE3B4186F6B6457E0 PUSH1 0x40 MLOAD PUSH1 0x40 MLOAD DUP1 SWAP2 SUB SWAP1 LOG3 POP POP JUMP JUMPDEST PUSH1 0x1 DUP2 PUSH1 0x0 ADD PUSH1 0x0 DUP3 DUP3 SLOAD ADD SWAP3 POP POP DUP2 SWAP1 SSTORE POP POP JUMP JUMPDEST PUSH1 0x6 PUSH1 0x0 SWAP1 SLOAD SWAP1 PUSH2 0x100 EXP SWAP1 DIV PUSH1 0xFF AND ISZERO PUSH3 0x2FB JUMPI PUSH1 0x40 MLOAD PUSH32 0x8C379A000000000000000000000000000000000000000000000000000000000 DUP2 MSTORE PUSH1 0x4 ADD PUSH3 0x2F2 SWAP1 PUSH3 0x5EF JUMP JUMPDEST PUSH1 0x40 MLOAD DUP1 SWAP2 SUB SWAP1 REVERT JUMPDEST PUSH3 0x30C DUP2 PUSH3 0x3DD PUSH1 0x20 SHL PUSH1 0x20 SHR JUMP JUMPDEST PUSH1 0x1 PUSH1 0x6 PUSH1 0x0 PUSH2 0x100 EXP DUP2 SLOAD DUP2 PUSH1 0xFF MUL NOT AND SWAP1 DUP4 ISZERO ISZERO MUL OR SWAP1 SSTORE POP POP JUMP JUMPDEST PUSH1 0x0 ADDRESS PUSH20 0xFFFFFFFFFFFFFFFFFFFFFFFFFFFFFFFFFFFFFFFF AND CALLER PUSH20 0xFFFFFFFFFFFFFFFFFFFFFFFFFFFFFFFFFFFFFFFF AND EQ ISZERO PUSH3 0x3D6 JUMPI PUSH1 0x0 DUP1 CALLDATASIZE DUP1 DUP1 PUSH1 0x1F ADD PUSH1 0x20 DUP1 SWAP2 DIV MUL PUSH1 0x20 ADD PUSH1 0x40 MLOAD SWAP1 DUP2 ADD PUSH1 0x40 MSTORE DUP1 SWAP4 SWAP3 SWAP2 SWAP1 DUP2 DUP2 MSTORE PUSH1 0x20 ADD DUP4 DUP4 DUP1 DUP3 DUP5 CALLDATACOPY PUSH1 0x0 DUP2 DUP5 ADD MSTORE PUSH1 0x1F NOT PUSH1 0x1F DUP3 ADD AND SWAP1 POP DUP1 DUP4 ADD SWAP3 POP POP POP POP POP POP POP SWAP1 POP PUSH1 0x0 DUP1 CALLDATASIZE SWAP1 POP SWAP1 POP PUSH20 0xFFFFFFFFFFFFFFFFFFFFFFFFFFFFFFFFFFFFFFFF DUP2 DUP4 ADD MLOAD AND SWAP3 POP POP POP PUSH3 0x3DA JUMP JUMPDEST CALLER SWAP1 POP JUMPDEST SWAP1 JUMP JUMPDEST PUSH1 0x40 MLOAD DUP1 PUSH1 0x80 ADD PUSH1 0x40 MSTORE DUP1 PUSH1 0x4F DUP2 MSTORE PUSH1 0x20 ADD PUSH3 0x4FD3 PUSH1 0x4F SWAP2 CODECOPY DUP1 MLOAD SWAP1 PUSH1 0x20 ADD KECCAK256 DUP2 DUP1 MLOAD SWAP1 PUSH1 0x20 ADD KECCAK256 PUSH1 0x40 MLOAD DUP1 PUSH1 0x40 ADD PUSH1 0x40 MSTORE DUP1 PUSH1 0x1 DUP2 MSTORE PUSH1 0x20 ADD PUSH32 0x3100000000000000000000000000000000000000000000000000000000000000 DUP2 MSTORE POP DUP1 MLOAD SWAP1 PUSH1 0x20 ADD KECCAK256 ADDRESS PUSH3 0x454 PUSH3 0x48C PUSH1 0x20 SHL PUSH1 0x20 SHR JUMP JUMPDEST PUSH1 0x0 SHL PUSH1 0x40 MLOAD PUSH1 0x20 ADD PUSH3 0x46D SWAP6 SWAP5 SWAP4 SWAP3 SWAP2 SWAP1 PUSH3 0x592 JUMP JUMPDEST PUSH1 0x40 MLOAD PUSH1 0x20 DUP2 DUP4 SUB SUB DUP2 MSTORE SWAP1 PUSH1 0x40 MSTORE DUP1 MLOAD SWAP1 PUSH1 0x20 ADD KECCAK256 PUSH1 0x7 DUP2 SWAP1 SSTORE POP POP JUMP JUMPDEST PUSH1 0x0 DUP1 CHAINID SWAP1 POP DUP1 SWAP2 POP POP SWAP1 JUMP JUMPDEST DUP3 DUP1 SLOAD PUSH3 0x4A7 SWAP1 PUSH3 0x660 JUMP JUMPDEST SWAP1 PUSH1 0x0 MSTORE PUSH1 0x20 PUSH1 0x0 KECCAK256 SWAP1 PUSH1 0x1F ADD PUSH1 0x20 SWAP1 DIV DUP2 ADD SWAP3 DUP3 PUSH3 0x4CB JUMPI PUSH1 0x0 DUP6 SSTORE PUSH3 0x517 JUMP JUMPDEST DUP3 PUSH1 0x1F LT PUSH3 0x4E6 JUMPI DUP1 MLOAD PUSH1 0xFF NOT AND DUP4 DUP1 ADD OR DUP6 SSTORE PUSH3 0x517 JUMP JUMPDEST DUP3 DUP1 ADD PUSH1 0x1 ADD DUP6 SSTORE DUP3 ISZERO PUSH3 0x517 JUMPI SWAP2 DUP3 ADD JUMPDEST DUP3 DUP2 GT ISZERO PUSH3 0x516 JUMPI DUP3 MLOAD DUP3 SSTORE SWAP2 PUSH1 0x20 ADD SWAP2 SWAP1 PUSH1 0x1 ADD SWAP1 PUSH3 0x4F9 JUMP JUMPDEST JUMPDEST POP SWAP1 POP PUSH3 0x526 SWAP2 SWAP1 PUSH3 0x52A JUMP JUMPDEST POP SWAP1 JUMP JUMPDEST JUMPDEST DUP1 DUP3 GT ISZERO PUSH3 0x545 JUMPI PUSH1 0x0 DUP2 PUSH1 0x0 SWAP1 SSTORE POP PUSH1 0x1 ADD PUSH3 0x52B JUMP JUMPDEST POP SWAP1 JUMP JUMPDEST PUSH3 0x554 DUP2 PUSH3 0x622 JUMP JUMPDEST DUP3 MSTORE POP POP JUMP JUMPDEST PUSH3 0x565 DUP2 PUSH3 0x636 JUMP JUMPDEST DUP3 MSTORE POP POP JUMP JUMPDEST PUSH1 0x0 PUSH3 0x57A PUSH1 0xE DUP4 PUSH3 0x611 JUMP JUMPDEST SWAP2 POP PUSH3 0x587 DUP3 PUSH3 0x6C5 JUMP JUMPDEST PUSH1 0x20 DUP3 ADD SWAP1 POP SWAP2 SWAP1 POP JUMP JUMPDEST PUSH1 0x0 PUSH1 0xA0 DUP3 ADD SWAP1 POP PUSH3 0x5A9 PUSH1 0x0 DUP4 ADD DUP9 PUSH3 0x55A JUMP JUMPDEST PUSH3 0x5B8 PUSH1 0x20 DUP4 ADD DUP8 PUSH3 0x55A JUMP JUMPDEST PUSH3 0x5C7 PUSH1 0x40 DUP4 ADD DUP7 PUSH3 0x55A JUMP JUMPDEST PUSH3 0x5D6 PUSH1 0x60 DUP4 ADD DUP6 PUSH3 0x549 JUMP JUMPDEST PUSH3 0x5E5 PUSH1 0x80 DUP4 ADD DUP5 PUSH3 0x55A JUMP JUMPDEST SWAP7 SWAP6 POP POP POP POP POP POP JUMP JUMPDEST PUSH1 0x0 PUSH1 0x20 DUP3 ADD SWAP1 POP DUP2 DUP2 SUB PUSH1 0x0 DUP4 ADD MSTORE PUSH3 0x60A DUP2 PUSH3 0x56B JUMP JUMPDEST SWAP1 POP SWAP2 SWAP1 POP JUMP JUMPDEST PUSH1 0x0 DUP3 DUP3 MSTORE PUSH1 0x20 DUP3 ADD SWAP1 POP SWAP3 SWAP2 POP POP JUMP JUMPDEST PUSH1 0x0 PUSH3 0x62F DUP3 PUSH3 0x640 JUMP JUMPDEST SWAP1 POP SWAP2 SWAP1 POP JUMP JUMPDEST PUSH1 0x0 DUP2 SWAP1 POP SWAP2 SWAP1 POP JUMP JUMPDEST PUSH1 0x0 PUSH20 0xFFFFFFFFFFFFFFFFFFFFFFFFFFFFFFFFFFFFFFFF DUP3 AND SWAP1 POP SWAP2 SWAP1 POP JUMP JUMPDEST PUSH1 0x0 PUSH1 0x2 DUP3 DIV SWAP1 POP PUSH1 0x1 DUP3 AND DUP1 PUSH3 0x679 JUMPI PUSH1 0x7F DUP3 AND SWAP2 POP JUMPDEST PUSH1 0x20 DUP3 LT DUP2 EQ ISZERO PUSH3 0x690 JUMPI PUSH3 0x68F PUSH3 0x696 JUMP JUMPDEST JUMPDEST POP SWAP2 SWAP1 POP JUMP JUMPDEST PUSH32 0x4E487B7100000000000000000000000000000000000000000000000000000000 PUSH1 0x0 MSTORE PUSH1 0x22 PUSH1 0x4 MSTORE PUSH1 0x24 PUSH1 0x0 REVERT JUMPDEST PUSH32 0x616C726561647920696E69746564000000000000000000000000000000000000 PUSH1 0x0 DUP3 ADD MSTORE POP JUMP JUMPDEST PUSH2 0x48D5 DUP1 PUSH3 0x6FE PUSH1 0x0 CODECOPY PUSH1 0x0 RETURN INVALID PUSH1 0x80 PUSH1 0x40 MSTORE PUSH1 0x4 CALLDATASIZE LT PUSH2 0x19C JUMPI PUSH1 0x0 CALLDATALOAD PUSH1 0xE0 SHR DUP1 PUSH4 0x42842E0E GT PUSH2 0xEC JUMPI DUP1 PUSH4 0x8DA5CB5B GT PUSH2 0x8A JUMPI DUP1 PUSH4 0xB88D4FDE GT PUSH2 0x64 JUMPI DUP1 PUSH4 0xB88D4FDE EQ PUSH2 0x595 JUMPI DUP1 PUSH4 0xC87B56DD EQ PUSH2 0x5BE JUMPI DUP1 PUSH4 0xE985E9C5 EQ PUSH2 0x5FB JUMPI DUP1 PUSH4 0xF2FDE38B EQ PUSH2 0x638 JUMPI PUSH2 0x19C JUMP JUMPDEST DUP1 PUSH4 0x8DA5CB5B EQ PUSH2 0x516 JUMPI DUP1 PUSH4 0x95D89B41 EQ PUSH2 0x541 JUMPI DUP1 PUSH4 0xA22CB465 EQ PUSH2 0x56C JUMPI PUSH2 0x19C JUMP JUMPDEST DUP1 PUSH4 0x6352211E GT PUSH2 0xC6 JUMPI DUP1 PUSH4 0x6352211E EQ PUSH2 0x45C JUMPI DUP1 PUSH4 0x70A08231 EQ PUSH2 0x499 JUMPI DUP1 PUSH4 0x715018A6 EQ PUSH2 0x4D6 JUMPI DUP1 PUSH4 0x755EDD17 EQ PUSH2 0x4ED JUMPI PUSH2 0x19C JUMP JUMPDEST DUP1 PUSH4 0x42842E0E EQ PUSH2 0x3DF JUMPI DUP1 PUSH4 0x42966C68 EQ PUSH2 0x408 JUMPI DUP1 PUSH4 0x61BC221A EQ PUSH2 0x431 JUMPI PUSH2 0x19C JUMP JUMPDEST DUP1 PUSH4 0x1249C58B GT PUSH2 0x159 JUMPI DUP1 PUSH4 0x23B872DD GT PUSH2 0x133 JUMPI DUP1 PUSH4 0x23B872DD EQ PUSH2 0x337 JUMPI DUP1 PUSH4 0x2D0335AB EQ PUSH2 0x360 JUMPI DUP1 PUSH4 0x3408E470 EQ PUSH2 0x39D JUMPI DUP1 PUSH4 0x40A3D246 EQ PUSH2 0x3C8 JUMPI PUSH2 0x19C JUMP JUMPDEST DUP1 PUSH4 0x1249C58B EQ PUSH2 0x2CA JUMPI DUP1 PUSH4 0x18160DDD EQ PUSH2 0x2E1 JUMPI DUP1 PUSH4 0x20379EE5 EQ PUSH2 0x30C JUMPI PUSH2 0x19C JUMP JUMPDEST DUP1 PUSH4 0x1FFC9A7 EQ PUSH2 0x1A1 JUMPI DUP1 PUSH4 0x6FDDE03 EQ PUSH2 0x1DE JUMPI DUP1 PUSH4 0x81812FC EQ PUSH2 0x209 JUMPI DUP1 PUSH4 0x95EA7B3 EQ PUSH2 0x246 JUMPI DUP1 PUSH4 0xC53C51C EQ PUSH2 0x26F JUMPI DUP1 PUSH4 0xF7E5970 EQ PUSH2 0x29F JUMPI JUMPDEST PUSH1 0x0 DUP1 REVERT JUMPDEST CALLVALUE DUP1 ISZERO PUSH2 0x1AD JUMPI PUSH1 0x0 DUP1 REVERT JUMPDEST POP PUSH2 0x1C8 PUSH1 0x4 DUP1 CALLDATASIZE SUB DUP2 ADD SWAP1 PUSH2 0x1C3 SWAP2 SWAP1 PUSH2 0x2B93 JUMP JUMPDEST PUSH2 0x661 JUMP JUMPDEST PUSH1 0x40 MLOAD PUSH2 0x1D5 SWAP2 SWAP1 PUSH2 0x3572 JUMP JUMPDEST PUSH1 0x40 MLOAD DUP1 SWAP2 SUB SWAP1 RETURN JUMPDEST CALLVALUE DUP1 ISZERO PUSH2 0x1EA JUMPI PUSH1 0x0 DUP1 REVERT JUMPDEST POP PUSH2 0x1F3 PUSH2 0x743 JUMP JUMPDEST PUSH1 0x40 MLOAD PUSH2 0x200 SWAP2 SWAP1 PUSH2 0x3654 JUMP JUMPDEST PUSH1 0x40 MLOAD DUP1 SWAP2 SUB SWAP1 RETURN JUMPDEST CALLVALUE DUP1 ISZERO PUSH2 0x215 JUMPI PUSH1 0x0 DUP1 REVERT JUMPDEST POP PUSH2 0x230 PUSH1 0x4 DUP1 CALLDATASIZE SUB DUP2 ADD SWAP1 PUSH2 0x22B SWAP2 SWAP1 PUSH2 0x2C1A JUMP JUMPDEST PUSH2 0x7D5 JUMP JUMPDEST PUSH1 0x40 MLOAD PUSH2 0x23D SWAP2 SWAP1 PUSH2 0x34CD JUMP JUMPDEST PUSH1 0x40 MLOAD DUP1 SWAP2 SUB SWAP1 RETURN JUMPDEST CALLVALUE DUP1 ISZERO PUSH2 0x252 JUMPI PUSH1 0x0 DUP1 REVERT JUMPDEST POP PUSH2 0x26D PUSH1 0x4 DUP1 CALLDATASIZE SUB DUP2 ADD SWAP1 PUSH2 0x268 SWAP2 SWAP1 PUSH2 0x2B53 JUMP JUMPDEST PUSH2 0x85A JUMP JUMPDEST STOP JUMPDEST PUSH2 0x289 PUSH1 0x4 DUP1 CALLDATASIZE SUB DUP2 ADD SWAP1 PUSH2 0x284 SWAP2 SWAP1 PUSH2 0x2ABC JUMP JUMPDEST PUSH2 0x972 JUMP JUMPDEST PUSH1 0x40 MLOAD PUSH2 0x296 SWAP2 SWAP1 PUSH2 0x3632 JUMP JUMPDEST PUSH1 0x40 MLOAD DUP1 SWAP2 SUB SWAP1 RETURN JUMPDEST CALLVALUE DUP1 ISZERO PUSH2 0x2AB JUMPI PUSH1 0x0 DUP1 REVERT JUMPDEST POP PUSH2 0x2B4 PUSH2 0xBE4 JUMP JUMPDEST PUSH1 0x40 MLOAD PUSH2 0x2C1 SWAP2 SWAP1 PUSH2 0x3654 JUMP JUMPDEST PUSH1 0x40 MLOAD DUP1 SWAP2 SUB SWAP1 RETURN JUMPDEST CALLVALUE DUP1 ISZERO PUSH2 0x2D6 JUMPI PUSH1 0x0 DUP1 REVERT JUMPDEST POP PUSH2 0x2DF PUSH2 0xC1D JUMP JUMPDEST STOP JUMPDEST CALLVALUE DUP1 ISZERO PUSH2 0x2ED JUMPI PUSH1 0x0 DUP1 REVERT JUMPDEST POP PUSH2 0x2F6 PUSH2 0xC3D JUMP JUMPDEST PUSH1 0x40 MLOAD PUSH2 0x303 SWAP2 SWAP1 PUSH2 0x38B6 JUMP JUMPDEST PUSH1 0x40 MLOAD DUP1 SWAP2 SUB SWAP1 RETURN JUMPDEST CALLVALUE DUP1 ISZERO PUSH2 0x318 JUMPI PUSH1 0x0 DUP1 REVERT JUMPDEST POP PUSH2 0x321 PUSH2 0xC5A JUMP JUMPDEST PUSH1 0x40 MLOAD PUSH2 0x32E SWAP2 SWAP1 PUSH2 0x358D JUMP JUMPDEST PUSH1 0x40 MLOAD DUP1 SWAP2 SUB SWAP1 RETURN JUMPDEST CALLVALUE DUP1 ISZERO PUSH2 0x343 JUMPI PUSH1 0x0 DUP1 REVERT JUMPDEST POP PUSH2 0x35E PUSH1 0x4 DUP1 CALLDATASIZE SUB DUP2 ADD SWAP1 PUSH2 0x359 SWAP2 SWAP1 PUSH2 0x29A6 JUMP JUMPDEST PUSH2 0xC64 JUMP JUMPDEST STOP JUMPDEST CALLVALUE DUP1 ISZERO PUSH2 0x36C JUMPI PUSH1 0x0 DUP1 REVERT JUMPDEST POP PUSH2 0x387 PUSH1 0x4 DUP1 CALLDATASIZE SUB DUP2 ADD SWAP1 PUSH2 0x382 SWAP2 SWAP1 PUSH2 0x2939 JUMP JUMPDEST PUSH2 0xCC4 JUMP JUMPDEST PUSH1 0x40 MLOAD PUSH2 0x394 SWAP2 SWAP1 PUSH2 0x38B6 JUMP JUMPDEST PUSH1 0x40 MLOAD DUP1 SWAP2 SUB SWAP1 RETURN JUMPDEST CALLVALUE DUP1 ISZERO PUSH2 0x3A9 JUMPI PUSH1 0x0 DUP1 REVERT JUMPDEST POP PUSH2 0x3B2 PUSH2 0xD0D JUMP JUMPDEST PUSH1 0x40 MLOAD PUSH2 0x3BF SWAP2 SWAP1 PUSH2 0x38B6 JUMP JUMPDEST PUSH1 0x40 MLOAD DUP1 SWAP2 SUB SWAP1 RETURN JUMPDEST CALLVALUE DUP1 ISZERO PUSH2 0x3D4 JUMPI PUSH1 0x0 DUP1 REVERT JUMPDEST POP PUSH2 0x3DD PUSH2 0xD1A JUMP JUMPDEST STOP JUMPDEST CALLVALUE DUP1 ISZERO PUSH2 0x3EB JUMPI PUSH1 0x0 DUP1 REVERT JUMPDEST POP PUSH2 0x406 PUSH1 0x4 DUP1 CALLDATASIZE SUB DUP2 ADD SWAP1 PUSH2 0x401 SWAP2 SWAP1 PUSH2 0x29A6 JUMP JUMPDEST PUSH2 0xD46 JUMP JUMPDEST STOP JUMPDEST CALLVALUE DUP1 ISZERO PUSH2 0x414 JUMPI PUSH1 0x0 DUP1 REVERT JUMPDEST POP PUSH2 0x42F PUSH1 0x4 DUP1 CALLDATASIZE SUB DUP2 ADD SWAP1 PUSH2 0x42A SWAP2 SWAP1 PUSH2 0x2C1A JUMP JUMPDEST PUSH2 0xD66 JUMP JUMPDEST STOP JUMPDEST CALLVALUE DUP1 ISZERO PUSH2 0x43D JUMPI PUSH1 0x0 DUP1 REVERT JUMPDEST POP PUSH2 0x446 PUSH2 0xD72 JUMP JUMPDEST PUSH1 0x40 MLOAD PUSH2 0x453 SWAP2 SWAP1 PUSH2 0x38B6 JUMP JUMPDEST PUSH1 0x40 MLOAD DUP1 SWAP2 SUB SWAP1 RETURN JUMPDEST CALLVALUE DUP1 ISZERO PUSH2 0x468 JUMPI PUSH1 0x0 DUP1 REVERT JUMPDEST POP PUSH2 0x483 PUSH1 0x4 DUP1 CALLDATASIZE SUB DUP2 ADD SWAP1 PUSH2 0x47E SWAP2 SWAP1 PUSH2 0x2C1A JUMP JUMPDEST PUSH2 0xD78 JUMP JUMPDEST PUSH1 0x40 MLOAD PUSH2 0x490 SWAP2 SWAP1 PUSH2 0x34CD JUMP JUMPDEST PUSH1 0x40 MLOAD DUP1 SWAP2 SUB SWAP1 RETURN JUMPDEST CALLVALUE DUP1 ISZERO PUSH2 0x4A5 JUMPI PUSH1 0x0 DUP1 REVERT JUMPDEST POP PUSH2 0x4C0 PUSH1 0x4 DUP1 CALLDATASIZE SUB DUP2 ADD SWAP1 PUSH2 0x4BB SWAP2 SWAP1 PUSH2 0x2939 JUMP JUMPDEST PUSH2 0xE2A JUMP JUMPDEST PUSH1 0x40 MLOAD PUSH2 0x4CD SWAP2 SWAP1 PUSH2 0x38B6 JUMP JUMPDEST PUSH1 0x40 MLOAD DUP1 SWAP2 SUB SWAP1 RETURN JUMPDEST CALLVALUE DUP1 ISZERO PUSH2 0x4E2 JUMPI PUSH1 0x0 DUP1 REVERT JUMPDEST POP PUSH2 0x4EB PUSH2 0xEE2 JUMP JUMPDEST STOP JUMPDEST CALLVALUE DUP1 ISZERO PUSH2 0x4F9 JUMPI PUSH1 0x0 DUP1 REVERT JUMPDEST POP PUSH2 0x514 PUSH1 0x4 DUP1 CALLDATASIZE SUB DUP2 ADD SWAP1 PUSH2 0x50F SWAP2 SWAP1 PUSH2 0x2939 JUMP JUMPDEST PUSH2 0xF6A JUMP JUMPDEST STOP JUMPDEST CALLVALUE DUP1 ISZERO PUSH2 0x522 JUMPI PUSH1 0x0 DUP1 REVERT JUMPDEST POP PUSH2 0x52B PUSH2 0x100C JUMP JUMPDEST PUSH1 0x40 MLOAD PUSH2 0x538 SWAP2 SWAP1 PUSH2 0x34CD JUMP JUMPDEST PUSH1 0x40 MLOAD DUP1 SWAP2 SUB SWAP1 RETURN JUMPDEST CALLVALUE DUP1 ISZERO PUSH2 0x54D JUMPI PUSH1 0x0 DUP1 REVERT JUMPDEST POP PUSH2 0x556 PUSH2 0x1036 JUMP JUMPDEST PUSH1 0x40 MLOAD PUSH2 0x563 SWAP2 SWAP1 PUSH2 0x3654 JUMP JUMPDEST PUSH1 0x40 MLOAD DUP1 SWAP2 SUB SWAP1 RETURN JUMPDEST CALLVALUE DUP1 ISZERO PUSH2 0x578 JUMPI PUSH1 0x0 DUP1 REVERT JUMPDEST POP PUSH2 0x593 PUSH1 0x4 DUP1 CALLDATASIZE SUB DUP2 ADD SWAP1 PUSH2 0x58E SWAP2 SWAP1 PUSH2 0x2A7C JUMP JUMPDEST PUSH2 0x10C8 JUMP JUMPDEST STOP JUMPDEST CALLVALUE DUP1 ISZERO PUSH2 0x5A1 JUMPI PUSH1 0x0 DUP1 REVERT JUMPDEST POP PUSH2 0x5BC PUSH1 0x4 DUP1 CALLDATASIZE SUB DUP2 ADD SWAP1 PUSH2 0x5B7 SWAP2 SWAP1 PUSH2 0x29F9 JUMP JUMPDEST PUSH2 0x10DE JUMP JUMPDEST STOP JUMPDEST CALLVALUE DUP1 ISZERO PUSH2 0x5CA JUMPI PUSH1 0x0 DUP1 REVERT JUMPDEST POP PUSH2 0x5E5 PUSH1 0x4 DUP1 CALLDATASIZE SUB DUP2 ADD SWAP1 PUSH2 0x5E0 SWAP2 SWAP1 PUSH2 0x2C1A JUMP JUMPDEST PUSH2 0x1140 JUMP JUMPDEST PUSH1 0x40 MLOAD PUSH2 0x5F2 SWAP2 SWAP1 PUSH2 0x3654 JUMP JUMPDEST PUSH1 0x40 MLOAD DUP1 SWAP2 SUB SWAP1 RETURN JUMPDEST CALLVALUE DUP1 ISZERO PUSH2 0x607 JUMPI PUSH1 0x0 DUP1 REVERT JUMPDEST POP PUSH2 0x622 PUSH1 0x4 DUP1 CALLDATASIZE SUB DUP2 ADD SWAP1 PUSH2 0x61D SWAP2 SWAP1 PUSH2 0x2966 JUMP JUMPDEST PUSH2 0x135F JUMP JUMPDEST PUSH1 0x40 MLOAD PUSH2 0x62F SWAP2 SWAP1 PUSH2 0x3572 JUMP JUMPDEST PUSH1 0x40 MLOAD DUP1 SWAP2 SUB SWAP1 RETURN JUMPDEST CALLVALUE DUP1 ISZERO PUSH2 0x644 JUMPI PUSH1 0x0 DUP1 REVERT JUMPDEST POP PUSH2 0x65F PUSH1 0x4 DUP1 CALLDATASIZE SUB DUP2 ADD SWAP1 PUSH2 0x65A SWAP2 SWAP1 PUSH2 0x2939 JUMP JUMPDEST PUSH2 0x1461 JUMP JUMPDEST STOP JUMPDEST PUSH1 0x0 PUSH32 0x80AC58CD00000000000000000000000000000000000000000000000000000000 PUSH28 0xFFFFFFFFFFFFFFFFFFFFFFFFFFFFFFFFFFFFFFFFFFFFFFFFFFFFFFFF NOT AND DUP3 PUSH28 0xFFFFFFFFFFFFFFFFFFFFFFFFFFFFFFFFFFFFFFFFFFFFFFFFFFFFFFFF NOT AND EQ DUP1 PUSH2 0x72C JUMPI POP PUSH32 0x5B5E139F00000000000000000000000000000000000000000000000000000000 PUSH28 0xFFFFFFFFFFFFFFFFFFFFFFFFFFFFFFFFFFFFFFFFFFFFFFFFFFFFFFFF NOT AND DUP3 PUSH28 0xFFFFFFFFFFFFFFFFFFFFFFFFFFFFFFFFFFFFFFFFFFFFFFFFFFFFFFFF NOT AND EQ JUMPDEST DUP1 PUSH2 0x73C JUMPI POP PUSH2 0x73B DUP3 PUSH2 0x1620 JUMP JUMPDEST JUMPDEST SWAP1 POP SWAP2 SWAP1 POP JUMP JUMPDEST PUSH1 0x60 PUSH1 0x0 DUP1 SLOAD PUSH2 0x752 SWAP1 PUSH2 0x3B90 JUMP JUMPDEST DUP1 PUSH1 0x1F ADD PUSH1 0x20 DUP1 SWAP2 DIV MUL PUSH1 0x20 ADD PUSH1 0x40 MLOAD SWAP1 DUP2 ADD PUSH1 0x40 MSTORE DUP1 SWAP3 SWAP2 SWAP1 DUP2 DUP2 MSTORE PUSH1 0x20 ADD DUP3 DUP1 SLOAD PUSH2 0x77E SWAP1 PUSH2 0x3B90 JUMP JUMPDEST DUP1 ISZERO PUSH2 0x7CB JUMPI DUP1 PUSH1 0x1F LT PUSH2 0x7A0 JUMPI PUSH2 0x100 DUP1 DUP4 SLOAD DIV MUL DUP4 MSTORE SWAP2 PUSH1 0x20 ADD SWAP2 PUSH2 0x7CB JUMP JUMPDEST DUP3 ADD SWAP2 SWAP1 PUSH1 0x0 MSTORE PUSH1 0x20 PUSH1 0x0 KECCAK256 SWAP1 JUMPDEST DUP2 SLOAD DUP2 MSTORE SWAP1 PUSH1 0x1 ADD SWAP1 PUSH1 0x20 ADD DUP1 DUP4 GT PUSH2 0x7AE JUMPI DUP3 SWAP1 SUB PUSH1 0x1F AND DUP3 ADD SWAP2 JUMPDEST POP POP POP POP POP SWAP1 POP SWAP1 JUMP JUMPDEST PUSH1 0x0 PUSH2 0x7E0 DUP3 PUSH2 0x168A JUMP JUMPDEST PUSH2 0x81F JUMPI PUSH1 0x40 MLOAD PUSH32 0x8C379A000000000000000000000000000000000000000000000000000000000 DUP2 MSTORE PUSH1 0x4 ADD PUSH2 0x816 SWAP1 PUSH2 0x3816 JUMP JUMPDEST PUSH1 0x40 MLOAD DUP1 SWAP2 SUB SWAP1 REVERT JUMPDEST PUSH1 0x4 PUSH1 0x0 DUP4 DUP2 MSTORE PUSH1 0x20 ADD SWAP1 DUP2 MSTORE PUSH1 0x20 ADD PUSH1 0x0 KECCAK256 PUSH1 0x0 SWAP1 SLOAD SWAP1 PUSH2 0x100 EXP SWAP1 DIV PUSH20 0xFFFFFFFFFFFFFFFFFFFFFFFFFFFFFFFFFFFFFFFF AND SWAP1 POP SWAP2 SWAP1 POP JUMP JUMPDEST PUSH1 0x0 PUSH2 0x865 DUP3 PUSH2 0xD78 JUMP JUMPDEST SWAP1 POP DUP1 PUSH20 0xFFFFFFFFFFFFFFFFFFFFFFFFFFFFFFFFFFFFFFFF AND DUP4 PUSH20 0xFFFFFFFFFFFFFFFFFFFFFFFFFFFFFFFFFFFFFFFF AND EQ ISZERO PUSH2 0x8D6 JUMPI PUSH1 0x40 MLOAD PUSH32 0x8C379A000000000000000000000000000000000000000000000000000000000 DUP2 MSTORE PUSH1 0x4 ADD PUSH2 0x8CD SWAP1 PUSH2 0x3876 JUMP JUMPDEST PUSH1 0x40 MLOAD DUP1 SWAP2 SUB SWAP1 REVERT JUMPDEST DUP1 PUSH20 0xFFFFFFFFFFFFFFFFFFFFFFFFFFFFFFFFFFFFFFFF AND PUSH2 0x8F5 PUSH2 0x16F6 JUMP JUMPDEST PUSH20 0xFFFFFFFFFFFFFFFFFFFFFFFFFFFFFFFFFFFFFFFF AND EQ DUP1 PUSH2 0x924 JUMPI POP PUSH2 0x923 DUP2 PUSH2 0x91E PUSH2 0x16F6 JUMP JUMPDEST PUSH2 0x135F JUMP JUMPDEST JUMPDEST PUSH2 0x963 JUMPI PUSH1 0x40 MLOAD PUSH32 0x8C379A000000000000000000000000000000000000000000000000000000000 DUP2 MSTORE PUSH1 0x4 ADD PUSH2 0x95A SWAP1 PUSH2 0x3796 JUMP JUMPDEST PUSH1 0x40 MLOAD DUP1 SWAP2 SUB SWAP1 REVERT JUMPDEST PUSH2 0x96D DUP4 DUP4 PUSH2 0x1705 JUMP JUMPDEST POP POP POP JUMP JUMPDEST PUSH1 0x60 PUSH1 0x0 PUSH1 0x40 MLOAD DUP1 PUSH1 0x60 ADD PUSH1 0x40 MSTORE DUP1 PUSH1 0x8 PUSH1 0x0 DUP11 PUSH20 0xFFFFFFFFFFFFFFFFFFFFFFFFFFFFFFFFFFFFFFFF AND PUSH20 0xFFFFFFFFFFFFFFFFFFFFFFFFFFFFFFFFFFFFFFFF AND DUP2 MSTORE PUSH1 0x20 ADD SWAP1 DUP2 MSTORE PUSH1 0x20 ADD PUSH1 0x0 KECCAK256 SLOAD DUP2 MSTORE PUSH1 0x20 ADD DUP9 PUSH20 0xFFFFFFFFFFFFFFFFFFFFFFFFFFFFFFFFFFFFFFFF AND DUP2 MSTORE PUSH1 0x20 ADD DUP8 DUP2 MSTORE POP SWAP1 POP PUSH2 0x9F5 DUP8 DUP3 DUP8 DUP8 DUP8 PUSH2 0x17BE JUMP JUMPDEST PUSH2 0xA34 JUMPI PUSH1 0x40 MLOAD PUSH32 0x8C379A000000000000000000000000000000000000000000000000000000000 DUP2 MSTORE PUSH1 0x4 ADD PUSH2 0xA2B SWAP1 PUSH2 0x3856 JUMP JUMPDEST PUSH1 0x40 MLOAD DUP1 SWAP2 SUB SWAP1 REVERT JUMPDEST PUSH2 0xA87 PUSH1 0x1 PUSH1 0x8 PUSH1 0x0 DUP11 PUSH20 0xFFFFFFFFFFFFFFFFFFFFFFFFFFFFFFFFFFFFFFFF AND PUSH20 0xFFFFFFFFFFFFFFFFFFFFFFFFFFFFFFFFFFFFFFFF AND DUP2 MSTORE PUSH1 0x20 ADD SWAP1 DUP2 MSTORE PUSH1 0x20 ADD PUSH1 0x0 KECCAK256 SLOAD PUSH2 0x18C7 SWAP1 SWAP2 SWAP1 PUSH4 0xFFFFFFFF AND JUMP JUMPDEST PUSH1 0x8 PUSH1 0x0 DUP10 PUSH20 0xFFFFFFFFFFFFFFFFFFFFFFFFFFFFFFFFFFFFFFFF AND PUSH20 0xFFFFFFFFFFFFFFFFFFFFFFFFFFFFFFFFFFFFFFFF AND DUP2 MSTORE PUSH1 0x20 ADD SWAP1 DUP2 MSTORE PUSH1 0x20 ADD PUSH1 0x0 KECCAK256 DUP2 SWAP1 SSTORE POP PUSH32 0x5845892132946850460BFF5A0083F71031BC5BF9AADCD40F1DE79423EAC9B10B DUP8 CALLER DUP9 PUSH1 0x40 MLOAD PUSH2 0xAFD SWAP4 SWAP3 SWAP2 SWAP1 PUSH2 0x34E8 JUMP JUMPDEST PUSH1 0x40 MLOAD DUP1 SWAP2 SUB SWAP1 LOG1 PUSH1 0x0 DUP1 ADDRESS PUSH20 0xFFFFFFFFFFFFFFFFFFFFFFFFFFFFFFFFFFFFFFFF AND DUP9 DUP11 PUSH1 0x40 MLOAD PUSH1 0x20 ADD PUSH2 0xB32 SWAP3 SWAP2 SWAP1 PUSH2 0x32DF JUMP JUMPDEST PUSH1 0x40 MLOAD PUSH1 0x20 DUP2 DUP4 SUB SUB DUP2 MSTORE SWAP1 PUSH1 0x40 MSTORE PUSH1 0x40 MLOAD PUSH2 0xB4E SWAP2 SWAP1 PUSH2 0x32C8 JUMP JUMPDEST PUSH1 0x0 PUSH1 0x40 MLOAD DUP1 DUP4 SUB DUP2 PUSH1 0x0 DUP7 GAS CALL SWAP2 POP POP RETURNDATASIZE DUP1 PUSH1 0x0 DUP2 EQ PUSH2 0xB8B JUMPI PUSH1 0x40 MLOAD SWAP2 POP PUSH1 0x1F NOT PUSH1 0x3F RETURNDATASIZE ADD AND DUP3 ADD PUSH1 0x40 MSTORE RETURNDATASIZE DUP3 MSTORE RETURNDATASIZE PUSH1 0x0 PUSH1 0x20 DUP5 ADD RETURNDATACOPY PUSH2 0xB90 JUMP JUMPDEST PUSH1 0x60 SWAP2 POP JUMPDEST POP SWAP2 POP SWAP2 POP DUP2 PUSH2 0xBD5 JUMPI PUSH1 0x40 MLOAD PUSH32 0x8C379A000000000000000000000000000000000000000000000000000000000 DUP2 MSTORE PUSH1 0x4 ADD PUSH2 0xBCC SWAP1 PUSH2 0x36B6 JUMP JUMPDEST PUSH1 0x40 MLOAD DUP1 SWAP2 SUB SWAP1 REVERT JUMPDEST DUP1 SWAP4 POP POP POP POP SWAP6 SWAP5 POP POP POP POP POP JUMP JUMPDEST PUSH1 0x40 MLOAD DUP1 PUSH1 0x40 ADD PUSH1 0x40 MSTORE DUP1 PUSH1 0x1 DUP2 MSTORE PUSH1 0x20 ADD PUSH32 0x3100000000000000000000000000000000000000000000000000000000000000 DUP2 MSTORE POP DUP2 JUMP JUMPDEST PUSH2 0xC3B CALLER PUSH1 0xC PUSH1 0x0 DUP2 SLOAD PUSH2 0xC30 SWAP1 PUSH2 0x3BF3 JUMP JUMPDEST SWAP2 SWAP1 POP DUP2 SWAP1 SSTORE PUSH2 0x18DD JUMP JUMPDEST JUMP JUMPDEST PUSH1 0x0 PUSH1 0x1 PUSH2 0xC4B PUSH1 0xA PUSH2 0x18FB JUMP JUMPDEST PUSH2 0xC55 SWAP2 SWAP1 PUSH2 0x3A6B JUMP JUMPDEST SWAP1 POP SWAP1 JUMP JUMPDEST PUSH1 0x0 PUSH1 0x7 SLOAD SWAP1 POP SWAP1 JUMP JUMPDEST PUSH2 0xC75 PUSH2 0xC6F PUSH2 0x16F6 JUMP JUMPDEST DUP3 PUSH2 0x1909 JUMP JUMPDEST PUSH2 0xCB4 JUMPI PUSH1 0x40 MLOAD PUSH32 0x8C379A000000000000000000000000000000000000000000000000000000000 DUP2 MSTORE PUSH1 0x4 ADD PUSH2 0xCAB SWAP1 PUSH2 0x3896 JUMP JUMPDEST PUSH1 0x40 MLOAD DUP1 SWAP2 SUB SWAP1 REVERT JUMPDEST PUSH2 0xCBF DUP4 DUP4 DUP4 PUSH2 0x19E7 JUMP JUMPDEST POP POP POP JUMP JUMPDEST PUSH1 0x0 PUSH1 0x8 PUSH1 0x0 DUP4 PUSH20 0xFFFFFFFFFFFFFFFFFFFFFFFFFFFFFFFFFFFFFFFF AND PUSH20 0xFFFFFFFFFFFFFFFFFFFFFFFFFFFFFFFFFFFFFFFF AND DUP2 MSTORE PUSH1 0x20 ADD SWAP1 DUP2 MSTORE PUSH1 0x20 ADD PUSH1 0x0 KECCAK256 SLOAD SWAP1 POP SWAP2 SWAP1 POP JUMP JUMPDEST PUSH1 0x0 DUP1 CHAINID SWAP1 POP DUP1 SWAP2 POP POP SWAP1 JUMP JUMPDEST PUSH1 0xE PUSH1 0x0 SWAP1 SLOAD SWAP1 PUSH2 0x100 EXP SWAP1 DIV PUSH1 0xFF AND ISZERO PUSH1 0xE PUSH1 0x0 PUSH2 0x100 EXP DUP2 SLOAD DUP2 PUSH1 0xFF MUL NOT AND SWAP1 DUP4 ISZERO ISZERO MUL OR SWAP1 SSTORE POP JUMP JUMPDEST PUSH2 0xD61 DUP4 DUP4 DUP4 PUSH1 0x40 MLOAD DUP1 PUSH1 0x20 ADD PUSH1 0x40 MSTORE DUP1 PUSH1 0x0 DUP2 MSTORE POP PUSH2 0x10DE JUMP JUMPDEST POP POP POP JUMP JUMPDEST PUSH2 0xD6F DUP2 PUSH2 0x1C4E JUMP JUMPDEST POP JUMP JUMPDEST PUSH1 0xC SLOAD DUP2 JUMP JUMPDEST PUSH1 0x0 DUP1 PUSH1 0x2 PUSH1 0x0 DUP5 DUP2 MSTORE PUSH1 0x20 ADD SWAP1 DUP2 MSTORE PUSH1 0x20 ADD PUSH1 0x0 KECCAK256 PUSH1 0x0 SWAP1 SLOAD SWAP1 PUSH2 0x100 EXP SWAP1 DIV PUSH20 0xFFFFFFFFFFFFFFFFFFFFFFFFFFFFFFFFFFFFFFFF AND SWAP1 POP PUSH1 0x0 PUSH20 0xFFFFFFFFFFFFFFFFFFFFFFFFFFFFFFFFFFFFFFFF AND DUP2 PUSH20 0xFFFFFFFFFFFFFFFFFFFFFFFFFFFFFFFFFFFFFFFF AND EQ ISZERO PUSH2 0xE21 JUMPI PUSH1 0x40 MLOAD PUSH32 0x8C379A000000000000000000000000000000000000000000000000000000000 DUP2 MSTORE PUSH1 0x4 ADD PUSH2 0xE18 SWAP1 PUSH2 0x37D6 JUMP JUMPDEST PUSH1 0x40 MLOAD DUP1 SWAP2 SUB SWAP1 REVERT JUMPDEST DUP1 SWAP2 POP POP SWAP2 SWAP1 POP JUMP JUMPDEST PUSH1 0x0 DUP1 PUSH20 0xFFFFFFFFFFFFFFFFFFFFFFFFFFFFFFFFFFFFFFFF AND DUP3 PUSH20 0xFFFFFFFFFFFFFFFFFFFFFFFFFFFFFFFFFFFFFFFF AND EQ ISZERO PUSH2 0xE9B JUMPI PUSH1 0x40 MLOAD PUSH32 0x8C379A000000000000000000000000000000000000000000000000000000000 DUP2 MSTORE PUSH1 0x4 ADD PUSH2 0xE92 SWAP1 PUSH2 0x37B6 JUMP JUMPDEST PUSH1 0x40 MLOAD DUP1 SWAP2 SUB SWAP1 REVERT JUMPDEST PUSH1 0x3 PUSH1 0x0 DUP4 PUSH20 0xFFFFFFFFFFFFFFFFFFFFFFFFFFFFFFFFFFFFFFFF AND PUSH20 0xFFFFFFFFFFFFFFFFFFFFFFFFFFFFFFFFFFFFFFFF AND DUP2 MSTORE PUSH1 0x20 ADD SWAP1 DUP2 MSTORE PUSH1 0x20 ADD PUSH1 0x0 KECCAK256 SLOAD SWAP1 POP SWAP2 SWAP1 POP JUMP JUMPDEST PUSH2 0xEEA PUSH2 0x16F6 JUMP JUMPDEST PUSH20 0xFFFFFFFFFFFFFFFFFFFFFFFFFFFFFFFFFFFFFFFF AND PUSH2 0xF08 PUSH2 0x100C JUMP JUMPDEST PUSH20 0xFFFFFFFFFFFFFFFFFFFFFFFFFFFFFFFFFFFFFFFF AND EQ PUSH2 0xF5E JUMPI PUSH1 0x40 MLOAD PUSH32 0x8C379A000000000000000000000000000000000000000000000000000000000 DUP2 MSTORE PUSH1 0x4 ADD PUSH2 0xF55 SWAP1 PUSH2 0x3836 JUMP JUMPDEST PUSH1 0x40 MLOAD DUP1 SWAP2 SUB SWAP1 REVERT JUMPDEST PUSH2 0xF68 PUSH1 0x0 PUSH2 0x1D6B JUMP JUMPDEST JUMP JUMPDEST PUSH2 0xF72 PUSH2 0x16F6 JUMP JUMPDEST PUSH20 0xFFFFFFFFFFFFFFFFFFFFFFFFFFFFFFFFFFFFFFFF AND PUSH2 0xF90 PUSH2 0x100C JUMP JUMPDEST PUSH20 0xFFFFFFFFFFFFFFFFFFFFFFFFFFFFFFFFFFFFFFFF AND EQ PUSH2 0xFE6 JUMPI PUSH1 0x40 MLOAD PUSH32 0x8C379A000000000000000000000000000000000000000000000000000000000 DUP2 MSTORE PUSH1 0x4 ADD PUSH2 0xFDD SWAP1 PUSH2 0x3836 JUMP JUMPDEST PUSH1 0x40 MLOAD DUP1 SWAP2 SUB SWAP1 REVERT JUMPDEST PUSH1 0x0 PUSH2 0xFF2 PUSH1 0xA PUSH2 0x18FB JUMP JUMPDEST SWAP1 POP PUSH2 0xFFE PUSH1 0xA PUSH2 0x1559 JUMP JUMPDEST PUSH2 0x1008 DUP3 DUP3 PUSH2 0x18DD JUMP JUMPDEST POP POP JUMP JUMPDEST PUSH1 0x0 PUSH1 0x9 PUSH1 0x0 SWAP1 SLOAD SWAP1 PUSH2 0x100 EXP SWAP1 DIV PUSH20 0xFFFFFFFFFFFFFFFFFFFFFFFFFFFFFFFFFFFFFFFF AND SWAP1 POP SWAP1 JUMP JUMPDEST PUSH1 0x60 PUSH1 0x1 DUP1 SLOAD PUSH2 0x1045 SWAP1 PUSH2 0x3B90 JUMP JUMPDEST DUP1 PUSH1 0x1F ADD PUSH1 0x20 DUP1 SWAP2 DIV MUL PUSH1 0x20 ADD PUSH1 0x40 MLOAD SWAP1 DUP2 ADD PUSH1 0x40 MSTORE DUP1 SWAP3 SWAP2 SWAP1 DUP2 DUP2 MSTORE PUSH1 0x20 ADD DUP3 DUP1 SLOAD PUSH2 0x1071 SWAP1 PUSH2 0x3B90 JUMP JUMPDEST DUP1 ISZERO PUSH2 0x10BE JUMPI DUP1 PUSH1 0x1F LT PUSH2 0x1093 JUMPI PUSH2 0x100 DUP1 DUP4 SLOAD DIV MUL DUP4 MSTORE SWAP2 PUSH1 0x20 ADD SWAP2 PUSH2 0x10BE JUMP JUMPDEST DUP3 ADD SWAP2 SWAP1 PUSH1 0x0 MSTORE PUSH1 0x20 PUSH1 0x0 KECCAK256 SWAP1 JUMPDEST DUP2 SLOAD DUP2 MSTORE SWAP1 PUSH1 0x1 ADD SWAP1 PUSH1 0x20 ADD DUP1 DUP4 GT PUSH2 0x10A1 JUMPI DUP3 SWAP1 SUB PUSH1 0x1F AND DUP3 ADD SWAP2 JUMPDEST POP POP POP POP POP SWAP1 POP SWAP1 JUMP JUMPDEST PUSH2 0x10DA PUSH2 0x10D3 PUSH2 0x16F6 JUMP JUMPDEST DUP4 DUP4 PUSH2 0x1E31 JUMP JUMPDEST POP POP JUMP JUMPDEST PUSH2 0x10EF PUSH2 0x10E9 PUSH2 0x16F6 JUMP JUMPDEST DUP4 PUSH2 0x1909 JUMP JUMPDEST PUSH2 0x112E JUMPI PUSH1 0x40 MLOAD PUSH32 0x8C379A000000000000000000000000000000000000000000000000000000000 DUP2 MSTORE PUSH1 0x4 ADD PUSH2 0x1125 SWAP1 PUSH2 0x3896 JUMP JUMPDEST PUSH1 0x40 MLOAD DUP1 SWAP2 SUB SWAP1 REVERT JUMPDEST PUSH2 0x113A DUP5 DUP5 DUP5 DUP5 PUSH2 0x1F9E JUMP JUMPDEST POP POP POP POP JUMP JUMPDEST PUSH1 0x60 PUSH1 0xE PUSH1 0x0 SWAP1 SLOAD SWAP1 PUSH2 0x100 EXP SWAP1 DIV PUSH1 0xFF AND ISZERO PUSH2 0x11A3 JUMPI PUSH2 0x117D PUSH1 0x40 MLOAD PUSH1 0x20 ADD PUSH2 0x1169 SWAP1 PUSH2 0x34B8 JUMP JUMPDEST PUSH1 0x40 MLOAD PUSH1 0x20 DUP2 DUP4 SUB SUB DUP2 MSTORE SWAP1 PUSH1 0x40 MSTORE PUSH2 0x1FFA JUMP JUMPDEST PUSH1 0x40 MLOAD PUSH1 0x20 ADD PUSH2 0x118D SWAP2 SWAP1 PUSH2 0x3496 JUMP JUMPDEST PUSH1 0x40 MLOAD PUSH1 0x20 DUP2 DUP4 SUB SUB DUP2 MSTORE SWAP1 PUSH1 0x40 MSTORE SWAP1 POP PUSH2 0x135A JUMP JUMPDEST PUSH1 0x0 PUSH1 0xE PUSH1 0x0 SWAP1 SLOAD SWAP1 PUSH2 0x100 EXP SWAP1 DIV PUSH1 0xFF AND PUSH2 0x11F4 JUMPI PUSH1 0x40 MLOAD DUP1 PUSH1 0x40 ADD PUSH1 0x40 MSTORE DUP1 PUSH1 0x7 DUP2 MSTORE PUSH1 0x20 ADD PUSH32 0x2366663030303000000000000000000000000000000000000000000000000000 DUP2 MSTORE POP PUSH2 0x122B JUMP JUMPDEST PUSH1 0x40 MLOAD DUP1 PUSH1 0x40 ADD PUSH1 0x40 MSTORE DUP1 PUSH1 0x7 DUP2 MSTORE PUSH1 0x20 ADD PUSH32 0x2330306666303000000000000000000000000000000000000000000000000000 DUP2 MSTORE POP JUMPDEST SWAP1 POP PUSH1 0x0 PUSH1 0x40 MLOAD DUP1 PUSH1 0x80 ADD PUSH1 0x40 MSTORE DUP1 PUSH1 0x4F DUP2 MSTORE PUSH1 0x20 ADD PUSH2 0x4811 PUSH1 0x4F SWAP2 CODECOPY SWAP1 POP DUP1 PUSH1 0x40 MLOAD PUSH1 0x20 ADD PUSH2 0x125B SWAP2 SWAP1 PUSH2 0x33D7 JUMP JUMPDEST PUSH1 0x40 MLOAD PUSH1 0x20 DUP2 DUP4 SUB SUB DUP2 MSTORE SWAP1 PUSH1 0x40 MSTORE SWAP1 POP DUP1 DUP3 PUSH1 0x40 MLOAD PUSH1 0x20 ADD PUSH2 0x127F SWAP3 SWAP2 SWAP1 PUSH2 0x3341 JUMP JUMPDEST PUSH1 0x40 MLOAD PUSH1 0x20 DUP2 DUP4 SUB SUB DUP2 MSTORE SWAP1 PUSH1 0x40 MSTORE SWAP1 POP DUP1 PUSH1 0xD PUSH1 0x40 MLOAD PUSH1 0x20 ADD PUSH2 0x12A4 SWAP3 SWAP2 SWAP1 PUSH2 0x3307 JUMP JUMPDEST PUSH1 0x40 MLOAD PUSH1 0x20 DUP2 DUP4 SUB SUB DUP2 MSTORE SWAP1 PUSH1 0x40 MSTORE SWAP1 POP DUP1 PUSH2 0x12BF DUP6 PUSH2 0x2192 JUMP JUMPDEST PUSH1 0x40 MLOAD PUSH1 0x20 ADD PUSH2 0x12D0 SWAP3 SWAP2 SWAP1 PUSH2 0x337B JUMP JUMPDEST PUSH1 0x40 MLOAD PUSH1 0x20 DUP2 DUP4 SUB SUB DUP2 MSTORE SWAP1 PUSH1 0x40 MSTORE SWAP1 POP DUP1 PUSH1 0x40 MLOAD PUSH1 0x20 ADD PUSH2 0x12F2 SWAP2 SWAP1 PUSH2 0x33B5 JUMP JUMPDEST PUSH1 0x40 MLOAD PUSH1 0x20 DUP2 DUP4 SUB SUB DUP2 MSTORE SWAP1 PUSH1 0x40 MSTORE SWAP1 POP PUSH2 0x1336 PUSH1 0xD PUSH2 0x1311 DUP4 PUSH2 0x1FFA JUMP JUMPDEST PUSH1 0x40 MLOAD PUSH1 0x20 ADD PUSH2 0x1322 SWAP3 SWAP2 SWAP1 PUSH2 0x3451 JUMP JUMPDEST PUSH1 0x40 MLOAD PUSH1 0x20 DUP2 DUP4 SUB SUB DUP2 MSTORE SWAP1 PUSH1 0x40 MSTORE PUSH2 0x1FFA JUMP JUMPDEST PUSH1 0x40 MLOAD PUSH1 0x20 ADD PUSH2 0x1346 SWAP2 SWAP1 PUSH2 0x3496 JUMP JUMPDEST PUSH1 0x40 MLOAD PUSH1 0x20 DUP2 DUP4 SUB SUB DUP2 MSTORE SWAP1 PUSH1 0x40 MSTORE SWAP3 POP POP POP JUMPDEST SWAP2 SWAP1 POP JUMP JUMPDEST PUSH1 0x0 DUP1 PUSH1 0xB PUSH1 0x0 SWAP1 SLOAD SWAP1 PUSH2 0x100 EXP SWAP1 DIV PUSH20 0xFFFFFFFFFFFFFFFFFFFFFFFFFFFFFFFFFFFFFFFF AND SWAP1 POP DUP3 PUSH20 0xFFFFFFFFFFFFFFFFFFFFFFFFFFFFFFFFFFFFFFFF AND DUP2 PUSH20 0xFFFFFFFFFFFFFFFFFFFFFFFFFFFFFFFFFFFFFFFF AND PUSH4 0xC4552791 DUP7 PUSH1 0x40 MLOAD DUP3 PUSH4 0xFFFFFFFF AND PUSH1 0xE0 SHL DUP2 MSTORE PUSH1 0x4 ADD PUSH2 0x13D7 SWAP2 SWAP1 PUSH2 0x34CD JUMP JUMPDEST PUSH1 0x20 PUSH1 0x40 MLOAD DUP1 DUP4 SUB DUP2 DUP7 DUP1 EXTCODESIZE ISZERO DUP1 ISZERO PUSH2 0x13EF JUMPI PUSH1 0x0 DUP1 REVERT JUMPDEST POP GAS STATICCALL ISZERO DUP1 ISZERO PUSH2 0x1403 JUMPI RETURNDATASIZE PUSH1 0x0 DUP1 RETURNDATACOPY RETURNDATASIZE PUSH1 0x0 REVERT JUMPDEST POP POP POP POP PUSH1 0x40 MLOAD RETURNDATASIZE PUSH1 0x1F NOT PUSH1 0x1F DUP3 ADD AND DUP3 ADD DUP1 PUSH1 0x40 MSTORE POP DUP2 ADD SWAP1 PUSH2 0x1427 SWAP2 SWAP1 PUSH2 0x2BED JUMP JUMPDEST PUSH20 0xFFFFFFFFFFFFFFFFFFFFFFFFFFFFFFFFFFFFFFFF AND EQ ISZERO PUSH2 0x144D JUMPI PUSH1 0x1 SWAP2 POP POP PUSH2 0x145B JUMP JUMPDEST PUSH2 0x1457 DUP5 DUP5 PUSH2 0x22F3 JUMP JUMPDEST SWAP2 POP POP JUMPDEST SWAP3 SWAP2 POP POP JUMP JUMPDEST PUSH2 0x1469 PUSH2 0x16F6 JUMP JUMPDEST PUSH20 0xFFFFFFFFFFFFFFFFFFFFFFFFFFFFFFFFFFFFFFFF AND PUSH2 0x1487 PUSH2 0x100C JUMP JUMPDEST PUSH20 0xFFFFFFFFFFFFFFFFFFFFFFFFFFFFFFFFFFFFFFFF AND EQ PUSH2 0x14DD JUMPI PUSH1 0x40 MLOAD PUSH32 0x8C379A000000000000000000000000000000000000000000000000000000000 DUP2 MSTORE PUSH1 0x4 ADD PUSH2 0x14D4 SWAP1 PUSH2 0x3836 JUMP JUMPDEST PUSH1 0x40 MLOAD DUP1 SWAP2 SUB SWAP1 REVERT JUMPDEST PUSH1 0x0 PUSH20 0xFFFFFFFFFFFFFFFFFFFFFFFFFFFFFFFFFFFFFFFF AND DUP2 PUSH20 0xFFFFFFFFFFFFFFFFFFFFFFFFFFFFFFFFFFFFFFFF AND EQ ISZERO PUSH2 0x154D JUMPI PUSH1 0x40 MLOAD PUSH32 0x8C379A000000000000000000000000000000000000000000000000000000000 DUP2 MSTORE PUSH1 0x4 ADD PUSH2 0x1544 SWAP1 PUSH2 0x3696 JUMP JUMPDEST PUSH1 0x40 MLOAD DUP1 SWAP2 SUB SWAP1 REVERT JUMPDEST PUSH2 0x1556 DUP2 PUSH2 0x1D6B JUMP JUMPDEST POP JUMP JUMPDEST PUSH1 0x1 DUP2 PUSH1 0x0 ADD PUSH1 0x0 DUP3 DUP3 SLOAD ADD SWAP3 POP POP DUP2 SWAP1 SSTORE POP POP JUMP JUMPDEST PUSH1 0x0 ADDRESS PUSH20 0xFFFFFFFFFFFFFFFFFFFFFFFFFFFFFFFFFFFFFFFF AND CALLER PUSH20 0xFFFFFFFFFFFFFFFFFFFFFFFFFFFFFFFFFFFFFFFF AND EQ ISZERO PUSH2 0x1619 JUMPI PUSH1 0x0 DUP1 CALLDATASIZE DUP1 DUP1 PUSH1 0x1F ADD PUSH1 0x20 DUP1 SWAP2 DIV MUL PUSH1 0x20 ADD PUSH1 0x40 MLOAD SWAP1 DUP2 ADD PUSH1 0x40 MSTORE DUP1 SWAP4 SWAP3 SWAP2 SWAP1 DUP2 DUP2 MSTORE PUSH1 0x20 ADD DUP4 DUP4 DUP1 DUP3 DUP5 CALLDATACOPY PUSH1 0x0 DUP2 DUP5 ADD MSTORE PUSH1 0x1F NOT PUSH1 0x1F DUP3 ADD AND SWAP1 POP DUP1 DUP4 ADD SWAP3 POP POP POP POP POP POP POP SWAP1 POP PUSH1 0x0 DUP1 CALLDATASIZE SWAP1 POP SWAP1 POP PUSH20 0xFFFFFFFFFFFFFFFFFFFFFFFFFFFFFFFFFFFFFFFF DUP2 DUP4 ADD MLOAD AND SWAP3 POP POP POP PUSH2 0x161D JUMP JUMPDEST CALLER SWAP1 POP JUMPDEST SWAP1 JUMP JUMPDEST PUSH1 0x0 PUSH32 0x1FFC9A700000000000000000000000000000000000000000000000000000000 PUSH28 0xFFFFFFFFFFFFFFFFFFFFFFFFFFFFFFFFFFFFFFFFFFFFFFFFFFFFFFFF NOT AND DUP3 PUSH28 0xFFFFFFFFFFFFFFFFFFFFFFFFFFFFFFFFFFFFFFFFFFFFFFFFFFFFFFFF NOT AND EQ SWAP1 POP SWAP2 SWAP1 POP JUMP JUMPDEST PUSH1 0x0 DUP1 PUSH20 0xFFFFFFFFFFFFFFFFFFFFFFFFFFFFFFFFFFFFFFFF AND PUSH1 0x2 PUSH1 0x0 DUP5 DUP2 MSTORE PUSH1 0x20 ADD SWAP1 DUP2 MSTORE PUSH1 0x20 ADD PUSH1 0x0 KECCAK256 PUSH1 0x0 SWAP1 SLOAD SWAP1 PUSH2 0x100 EXP SWAP1 DIV PUSH20 0xFFFFFFFFFFFFFFFFFFFFFFFFFFFFFFFFFFFFFFFF AND PUSH20 0xFFFFFFFFFFFFFFFFFFFFFFFFFFFFFFFFFFFFFFFF AND EQ ISZERO SWAP1 POP SWAP2 SWAP1 POP JUMP JUMPDEST PUSH1 0x0 PUSH2 0x1700 PUSH2 0x156F JUMP JUMPDEST SWAP1 POP SWAP1 JUMP JUMPDEST DUP2 PUSH1 0x4 PUSH1 0x0 DUP4 DUP2 MSTORE PUSH1 0x20 ADD SWAP1 DUP2 MSTORE PUSH1 0x20 ADD PUSH1 0x0 KECCAK256 PUSH1 0x0 PUSH2 0x100 EXP DUP2 SLOAD DUP2 PUSH20 0xFFFFFFFFFFFFFFFFFFFFFFFFFFFFFFFFFFFFFFFF MUL NOT AND SWAP1 DUP4 PUSH20 0xFFFFFFFFFFFFFFFFFFFFFFFFFFFFFFFFFFFFFFFF AND MUL OR SWAP1 SSTORE POP DUP1 DUP3 PUSH20 0xFFFFFFFFFFFFFFFFFFFFFFFFFFFFFFFFFFFFFFFF AND PUSH2 0x1778 DUP4 PUSH2 0xD78 JUMP JUMPDEST PUSH20 0xFFFFFFFFFFFFFFFFFFFFFFFFFFFFFFFFFFFFFFFF AND PUSH32 0x8C5BE1E5EBEC7D5BD14F71427D1E84F3DD0314C0F7B2291E5B200AC8C7C3B925 PUSH1 0x40 MLOAD PUSH1 0x40 MLOAD DUP1 SWAP2 SUB SWAP1 LOG4 POP POP JUMP JUMPDEST PUSH1 0x0 DUP1 PUSH20 0xFFFFFFFFFFFFFFFFFFFFFFFFFFFFFFFFFFFFFFFF AND DUP7 PUSH20 0xFFFFFFFFFFFFFFFFFFFFFFFFFFFFFFFFFFFFFFFF AND EQ ISZERO PUSH2 0x182F JUMPI PUSH1 0x40 MLOAD PUSH32 0x8C379A000000000000000000000000000000000000000000000000000000000 DUP2 MSTORE PUSH1 0x4 ADD PUSH2 0x1826 SWAP1 PUSH2 0x3776 JUMP JUMPDEST PUSH1 0x40 MLOAD DUP1 SWAP2 SUB SWAP1 REVERT JUMPDEST PUSH1 0x1 PUSH2 0x1842 PUSH2 0x183D DUP8 PUSH2 0x2387 JUMP JUMPDEST PUSH2 0x23EF JUMP JUMPDEST DUP4 DUP7 DUP7 PUSH1 0x40 MLOAD PUSH1 0x0 DUP2 MSTORE PUSH1 0x20 ADD PUSH1 0x40 MSTORE PUSH1 0x40 MLOAD PUSH2 0x1862 SWAP5 SWAP4 SWAP3 SWAP2 SWAP1 PUSH2 0x35ED JUMP JUMPDEST PUSH1 0x20 PUSH1 0x40 MLOAD PUSH1 0x20 DUP2 SUB SWAP1 DUP1 DUP5 SUB SWAP1 DUP6 GAS STATICCALL ISZERO DUP1 ISZERO PUSH2 0x1884 JUMPI RETURNDATASIZE PUSH1 0x0 DUP1 RETURNDATACOPY RETURNDATASIZE PUSH1 0x0 REVERT JUMPDEST POP POP POP PUSH1 0x20 PUSH1 0x40 MLOAD SUB MLOAD PUSH20 0xFFFFFFFFFFFFFFFFFFFFFFFFFFFFFFFFFFFFFFFF AND DUP7 PUSH20 0xFFFFFFFFFFFFFFFFFFFFFFFFFFFFFFFFFFFFFFFF AND EQ SWAP1 POP SWAP6 SWAP5 POP POP POP POP POP JUMP JUMPDEST PUSH1 0x0 DUP2 DUP4 PUSH2 0x18D5 SWAP2 SWAP1 PUSH2 0x398A JUMP JUMPDEST SWAP1 POP SWAP3 SWAP2 POP POP JUMP JUMPDEST PUSH2 0x18F7 DUP3 DUP3 PUSH1 0x40 MLOAD DUP1 PUSH1 0x20 ADD PUSH1 0x40 MSTORE DUP1 PUSH1 0x0 DUP2 MSTORE POP PUSH2 0x2428 JUMP JUMPDEST POP POP JUMP JUMPDEST PUSH1 0x0 DUP2 PUSH1 0x0 ADD SLOAD SWAP1 POP SWAP2 SWAP1 POP JUMP JUMPDEST PUSH1 0x0 PUSH2 0x1914 DUP3 PUSH2 0x168A JUMP JUMPDEST PUSH2 0x1953 JUMPI PUSH1 0x40 MLOAD PUSH32 0x8C379A000000000000000000000000000000000000000000000000000000000 DUP2 MSTORE PUSH1 0x4 ADD PUSH2 0x194A SWAP1 PUSH2 0x3756 JUMP JUMPDEST PUSH1 0x40 MLOAD DUP1 SWAP2 SUB SWAP1 REVERT JUMPDEST PUSH1 0x0 PUSH2 0x195E DUP4 PUSH2 0xD78 JUMP JUMPDEST SWAP1 POP DUP1 PUSH20 0xFFFFFFFFFFFFFFFFFFFFFFFFFFFFFFFFFFFFFFFF AND DUP5 PUSH20 0xFFFFFFFFFFFFFFFFFFFFFFFFFFFFFFFFFFFFFFFF AND EQ DUP1 PUSH2 0x19A0 JUMPI POP PUSH2 0x199F DUP2 DUP6 PUSH2 0x135F JUMP JUMPDEST JUMPDEST DUP1 PUSH2 0x19DE JUMPI POP DUP4 PUSH20 0xFFFFFFFFFFFFFFFFFFFFFFFFFFFFFFFFFFFFFFFF AND PUSH2 0x19C6 DUP5 PUSH2 0x7D5 JUMP JUMPDEST PUSH20 0xFFFFFFFFFFFFFFFFFFFFFFFFFFFFFFFFFFFFFFFF AND EQ JUMPDEST SWAP2 POP POP SWAP3 SWAP2 POP POP JUMP JUMPDEST DUP3 PUSH20 0xFFFFFFFFFFFFFFFFFFFFFFFFFFFFFFFFFFFFFFFF AND PUSH2 0x1A07 DUP3 PUSH2 0xD78 JUMP JUMPDEST PUSH20 0xFFFFFFFFFFFFFFFFFFFFFFFFFFFFFFFFFFFFFFFF AND EQ PUSH2 0x1A5D JUMPI PUSH1 0x40 MLOAD PUSH32 0x8C379A000000000000000000000000000000000000000000000000000000000 DUP2 MSTORE PUSH1 0x4 ADD PUSH2 0x1A54 SWAP1 PUSH2 0x36D6 JUMP JUMPDEST PUSH1 0x40 MLOAD DUP1 SWAP2 SUB SWAP1 REVERT JUMPDEST PUSH1 0x0 PUSH20 0xFFFFFFFFFFFFFFFFFFFFFFFFFFFFFFFFFFFFFFFF AND DUP3 PUSH20 0xFFFFFFFFFFFFFFFFFFFFFFFFFFFFFFFFFFFFFFFF AND EQ ISZERO PUSH2 0x1ACD JUMPI PUSH1 0x40 MLOAD PUSH32 0x8C379A000000000000000000000000000000000000000000000000000000000 DUP2 MSTORE PUSH1 0x4 ADD PUSH2 0x1AC4 SWAP1 PUSH2 0x3716 JUMP JUMPDEST PUSH1 0x40 MLOAD DUP1 SWAP2 SUB SWAP1 REVERT JUMPDEST PUSH2 0x1AD8 DUP4 DUP4 DUP4 PUSH2 0x2483 JUMP JUMPDEST PUSH2 0x1AE3 PUSH1 0x0 DUP3 PUSH2 0x1705 JUMP JUMPDEST PUSH1 0x1 PUSH1 0x3 PUSH1 0x0 DUP6 PUSH20 0xFFFFFFFFFFFFFFFFFFFFFFFFFFFFFFFFFFFFFFFF AND PUSH20 0xFFFFFFFFFFFFFFFFFFFFFFFFFFFFFFFFFFFFFFFF AND DUP2 MSTORE PUSH1 0x20 ADD SWAP1 DUP2 MSTORE PUSH1 0x20 ADD PUSH1 0x0 KECCAK256 PUSH1 0x0 DUP3 DUP3 SLOAD PUSH2 0x1B33 SWAP2 SWAP1 PUSH2 0x3A6B JUMP JUMPDEST SWAP3 POP POP DUP2 SWAP1 SSTORE POP PUSH1 0x1 PUSH1 0x3 PUSH1 0x0 DUP5 PUSH20 0xFFFFFFFFFFFFFFFFFFFFFFFFFFFFFFFFFFFFFFFF AND PUSH20 0xFFFFFFFFFFFFFFFFFFFFFFFFFFFFFFFFFFFFFFFF AND DUP2 MSTORE PUSH1 0x20 ADD SWAP1 DUP2 MSTORE PUSH1 0x20 ADD PUSH1 0x0 KECCAK256 PUSH1 0x0 DUP3 DUP3 SLOAD PUSH2 0x1B8A SWAP2 SWAP1 PUSH2 0x398A JUMP JUMPDEST SWAP3 POP POP DUP2 SWAP1 SSTORE POP DUP2 PUSH1 0x2 PUSH1 0x0 DUP4 DUP2 MSTORE PUSH1 0x20 ADD SWAP1 DUP2 MSTORE PUSH1 0x20 ADD PUSH1 0x0 KECCAK256 PUSH1 0x0 PUSH2 0x100 EXP DUP2 SLOAD DUP2 PUSH20 0xFFFFFFFFFFFFFFFFFFFFFFFFFFFFFFFFFFFFFFFF MUL NOT AND SWAP1 DUP4 PUSH20 0xFFFFFFFFFFFFFFFFFFFFFFFFFFFFFFFFFFFFFFFF AND MUL OR SWAP1 SSTORE POP DUP1 DUP3 PUSH20 0xFFFFFFFFFFFFFFFFFFFFFFFFFFFFFFFFFFFFFFFF AND DUP5 PUSH20 0xFFFFFFFFFFFFFFFFFFFFFFFFFFFFFFFFFFFFFFFF AND PUSH32 0xDDF252AD1BE2C89B69C2B068FC378DAA952BA7F163C4A11628F55A4DF523B3EF PUSH1 0x40 MLOAD PUSH1 0x40 MLOAD DUP1 SWAP2 SUB SWAP1 LOG4 PUSH2 0x1C49 DUP4 DUP4 DUP4 PUSH2 0x2488 JUMP JUMPDEST POP POP POP JUMP JUMPDEST PUSH1 0x0 PUSH2 0x1C59 DUP3 PUSH2 0xD78 JUMP JUMPDEST SWAP1 POP PUSH2 0x1C67 DUP2 PUSH1 0x0 DUP5 PUSH2 0x2483 JUMP JUMPDEST PUSH2 0x1C72 PUSH1 0x0 DUP4 PUSH2 0x1705 JUMP JUMPDEST PUSH1 0x1 PUSH1 0x3 PUSH1 0x0 DUP4 PUSH20 0xFFFFFFFFFFFFFFFFFFFFFFFFFFFFFFFFFFFFFFFF AND PUSH20 0xFFFFFFFFFFFFFFFFFFFFFFFFFFFFFFFFFFFFFFFF AND DUP2 MSTORE PUSH1 0x20 ADD SWAP1 DUP2 MSTORE PUSH1 0x20 ADD PUSH1 0x0 KECCAK256 PUSH1 0x0 DUP3 DUP3 SLOAD PUSH2 0x1CC2 SWAP2 SWAP1 PUSH2 0x3A6B JUMP JUMPDEST SWAP3 POP POP DUP2 SWAP1 SSTORE POP PUSH1 0x2 PUSH1 0x0 DUP4 DUP2 MSTORE PUSH1 0x20 ADD SWAP1 DUP2 MSTORE PUSH1 0x20 ADD PUSH1 0x0 KECCAK256 PUSH1 0x0 PUSH2 0x100 EXP DUP2 SLOAD SWAP1 PUSH20 0xFFFFFFFFFFFFFFFFFFFFFFFFFFFFFFFFFFFFFFFF MUL NOT AND SWAP1 SSTORE DUP2 PUSH1 0x0 PUSH20 0xFFFFFFFFFFFFFFFFFFFFFFFFFFFFFFFFFFFFFFFF AND DUP3 PUSH20 0xFFFFFFFFFFFFFFFFFFFFFFFFFFFFFFFFFFFFFFFF AND PUSH32 0xDDF252AD1BE2C89B69C2B068FC378DAA952BA7F163C4A11628F55A4DF523B3EF PUSH1 0x40 MLOAD PUSH1 0x40 MLOAD DUP1 SWAP2 SUB SWAP1 LOG4 PUSH2 0x1D67 DUP2 PUSH1 0x0 DUP5 PUSH2 0x2488 JUMP JUMPDEST POP POP JUMP JUMPDEST PUSH1 0x0 PUSH1 0x9 PUSH1 0x0 SWAP1 SLOAD SWAP1 PUSH2 0x100 EXP SWAP1 DIV PUSH20 0xFFFFFFFFFFFFFFFFFFFFFFFFFFFFFFFFFFFFFFFF AND SWAP1 POP DUP2 PUSH1 0x9 PUSH1 0x0 PUSH2 0x100 EXP DUP2 SLOAD DUP2 PUSH20 0xFFFFFFFFFFFFFFFFFFFFFFFFFFFFFFFFFFFFFFFF MUL NOT AND SWAP1 DUP4 PUSH20 0xFFFFFFFFFFFFFFFFFFFFFFFFFFFFFFFFFFFFFFFF AND MUL OR SWAP1 SSTORE POP DUP2 PUSH20 0xFFFFFFFFFFFFFFFFFFFFFFFFFFFFFFFFFFFFFFFF AND DUP2 PUSH20 0xFFFFFFFFFFFFFFFFFFFFFFFFFFFFFFFFFFFFFFFF AND PUSH32 0x8BE0079C531659141344CD1FD0A4F28419497F9722A3DAAFE3B4186F6B6457E0 PUSH1 0x40 MLOAD PUSH1 0x40 MLOAD DUP1 SWAP2 SUB SWAP1 LOG3 POP POP JUMP JUMPDEST DUP2 PUSH20 0xFFFFFFFFFFFFFFFFFFFFFFFFFFFFFFFFFFFFFFFF AND DUP4 PUSH20 0xFFFFFFFFFFFFFFFFFFFFFFFFFFFFFFFFFFFFFFFF AND EQ ISZERO PUSH2 0x1EA0 JUMPI PUSH1 0x40 MLOAD PUSH32 0x8C379A000000000000000000000000000000000000000000000000000000000 DUP2 MSTORE PUSH1 0x4 ADD PUSH2 0x1E97 SWAP1 PUSH2 0x3736 JUMP JUMPDEST PUSH1 0x40 MLOAD DUP1 SWAP2 SUB SWAP1 REVERT JUMPDEST DUP1 PUSH1 0x5 PUSH1 0x0 DUP6 PUSH20 0xFFFFFFFFFFFFFFFFFFFFFFFFFFFFFFFFFFFFFFFF AND PUSH20 0xFFFFFFFFFFFFFFFFFFFFFFFFFFFFFFFFFFFFFFFF AND DUP2 MSTORE PUSH1 0x20 ADD SWAP1 DUP2 MSTORE PUSH1 0x20 ADD PUSH1 0x0 KECCAK256 PUSH1 0x0 DUP5 PUSH20 0xFFFFFFFFFFFFFFFFFFFFFFFFFFFFFFFFFFFFFFFF AND PUSH20 0xFFFFFFFFFFFFFFFFFFFFFFFFFFFFFFFFFFFFFFFF AND DUP2 MSTORE PUSH1 0x20 ADD SWAP1 DUP2 MSTORE PUSH1 0x20 ADD PUSH1 0x0 KECCAK256 PUSH1 0x0 PUSH2 0x100 EXP DUP2 SLOAD DUP2 PUSH1 0xFF MUL NOT AND SWAP1 DUP4 ISZERO ISZERO MUL OR SWAP1 SSTORE POP DUP2 PUSH20 0xFFFFFFFFFFFFFFFFFFFFFFFFFFFFFFFFFFFFFFFF AND DUP4 PUSH20 0xFFFFFFFFFFFFFFFFFFFFFFFFFFFFFFFFFFFFFFFF AND PUSH32 0x17307EAB39AB6107E8899845AD3D59BD9653F200F220920489CA2B5937696C31 DUP4 PUSH1 0x40 MLOAD PUSH2 0x1F91 SWAP2 SWAP1 PUSH2 0x3572 JUMP JUMPDEST PUSH1 0x40 MLOAD DUP1 SWAP2 SUB SWAP1 LOG3 POP POP POP JUMP JUMPDEST PUSH2 0x1FA9 DUP5 DUP5 DUP5 PUSH2 0x19E7 JUMP JUMPDEST PUSH2 0x1FB5 DUP5 DUP5 DUP5 DUP5 PUSH2 0x248D JUMP JUMPDEST PUSH2 0x1FF4 JUMPI PUSH1 0x40 MLOAD PUSH32 0x8C379A000000000000000000000000000000000000000000000000000000000 DUP2 MSTORE PUSH1 0x4 ADD PUSH2 0x1FEB SWAP1 PUSH2 0x3676 JUMP JUMPDEST PUSH1 0x40 MLOAD DUP1 SWAP2 SUB SWAP1 REVERT JUMPDEST POP POP POP POP JUMP JUMPDEST PUSH1 0x60 PUSH1 0x0 DUP3 MLOAD SWAP1 POP PUSH1 0x0 DUP2 EQ ISZERO PUSH2 0x2023 JUMPI PUSH1 0x40 MLOAD DUP1 PUSH1 0x20 ADD PUSH1 0x40 MSTORE DUP1 PUSH1 0x0 DUP2 MSTORE POP SWAP2 POP POP PUSH2 0x218D JUMP JUMPDEST PUSH1 0x0 PUSH1 0x3 PUSH1 0x2 DUP4 PUSH2 0x2034 SWAP2 SWAP1 PUSH2 0x398A JUMP JUMPDEST PUSH2 0x203E SWAP2 SWAP1 PUSH2 0x39E0 JUMP JUMPDEST PUSH1 0x4 PUSH2 0x204A SWAP2 SWAP1 PUSH2 0x3A11 JUMP JUMPDEST SWAP1 POP PUSH1 0x0 PUSH1 0x20 DUP3 PUSH2 0x205B SWAP2 SWAP1 PUSH2 0x398A JUMP JUMPDEST PUSH8 0xFFFFFFFFFFFFFFFF DUP2 GT ISZERO PUSH2 0x2074 JUMPI PUSH2 0x2073 PUSH2 0x3D57 JUMP JUMPDEST JUMPDEST PUSH1 0x40 MLOAD SWAP1 DUP1 DUP3 MSTORE DUP1 PUSH1 0x1F ADD PUSH1 0x1F NOT AND PUSH1 0x20 ADD DUP3 ADD PUSH1 0x40 MSTORE DUP1 ISZERO PUSH2 0x20A6 JUMPI DUP2 PUSH1 0x20 ADD PUSH1 0x1 DUP3 MUL DUP1 CALLDATASIZE DUP4 CALLDATACOPY DUP1 DUP3 ADD SWAP2 POP POP SWAP1 POP JUMPDEST POP SWAP1 POP PUSH1 0x0 PUSH1 0x40 MLOAD DUP1 PUSH1 0x60 ADD PUSH1 0x40 MSTORE DUP1 PUSH1 0x40 DUP2 MSTORE PUSH1 0x20 ADD PUSH2 0x4860 PUSH1 0x40 SWAP2 CODECOPY SWAP1 POP PUSH1 0x1 DUP2 ADD PUSH1 0x20 DUP4 ADD PUSH1 0x0 JUMPDEST DUP7 DUP2 LT ISZERO PUSH2 0x214A JUMPI PUSH1 0x3 DUP2 ADD SWAP1 POP PUSH3 0xFFFFFF DUP2 DUP11 ADD MLOAD AND PUSH1 0x3F DUP2 PUSH1 0x12 SHR AND DUP5 ADD MLOAD DUP1 PUSH1 0x8 SHL SWAP1 POP PUSH1 0xFF PUSH1 0x3F DUP4 PUSH1 0xC SHR AND DUP7 ADD MLOAD AND DUP2 ADD SWAP1 POP DUP1 PUSH1 0x8 SHL SWAP1 POP PUSH1 0xFF PUSH1 0x3F DUP4 PUSH1 0x6 SHR AND DUP7 ADD MLOAD AND DUP2 ADD SWAP1 POP DUP1 PUSH1 0x8 SHL SWAP1 POP PUSH1 0xFF PUSH1 0x3F DUP4 AND DUP7 ADD MLOAD AND DUP2 ADD SWAP1 POP DUP1 PUSH1 0xE0 SHL SWAP1 POP DUP1 DUP5 MSTORE PUSH1 0x4 DUP5 ADD SWAP4 POP POP POP PUSH2 0x20D1 JUMP JUMPDEST POP PUSH1 0x3 DUP7 MOD PUSH1 0x1 DUP2 EQ PUSH2 0x2164 JUMPI PUSH1 0x2 DUP2 EQ PUSH2 0x2174 JUMPI PUSH2 0x217F JUMP JUMPDEST PUSH2 0x3D3D PUSH1 0xF0 SHL PUSH1 0x2 DUP4 SUB MSTORE PUSH2 0x217F JUMP JUMPDEST PUSH1 0x3D PUSH1 0xF8 SHL PUSH1 0x1 DUP4 SUB MSTORE JUMPDEST POP DUP5 DUP5 MSTORE POP POP DUP2 SWAP5 POP POP POP POP POP JUMPDEST SWAP2 SWAP1 POP JUMP JUMPDEST PUSH1 0x60 PUSH1 0x0 DUP3 EQ ISZERO PUSH2 0x21DA JUMPI PUSH1 0x40 MLOAD DUP1 PUSH1 0x40 ADD PUSH1 0x40 MSTORE DUP1 PUSH1 0x1 DUP2 MSTORE PUSH1 0x20 ADD PUSH32 0x3000000000000000000000000000000000000000000000000000000000000000 DUP2 MSTORE POP SWAP1 POP PUSH2 0x22EE JUMP JUMPDEST PUSH1 0x0 DUP3 SWAP1 POP PUSH1 0x0 JUMPDEST PUSH1 0x0 DUP3 EQ PUSH2 0x220C JUMPI DUP1 DUP1 PUSH2 0x21F5 SWAP1 PUSH2 0x3BF3 JUMP JUMPDEST SWAP2 POP POP PUSH1 0xA DUP3 PUSH2 0x2205 SWAP2 SWAP1 PUSH2 0x39E0 JUMP JUMPDEST SWAP2 POP PUSH2 0x21E2 JUMP JUMPDEST PUSH1 0x0 DUP2 PUSH8 0xFFFFFFFFFFFFFFFF DUP2 GT ISZERO PUSH2 0x2228 JUMPI PUSH2 0x2227 PUSH2 0x3D57 JUMP JUMPDEST JUMPDEST PUSH1 0x40 MLOAD SWAP1 DUP1 DUP3 MSTORE DUP1 PUSH1 0x1F ADD PUSH1 0x1F NOT AND PUSH1 0x20 ADD DUP3 ADD PUSH1 0x40 MSTORE DUP1 ISZERO PUSH2 0x225A JUMPI DUP2 PUSH1 0x20 ADD PUSH1 0x1 DUP3 MUL DUP1 CALLDATASIZE DUP4 CALLDATACOPY DUP1 DUP3 ADD SWAP2 POP POP SWAP1 POP JUMPDEST POP SWAP1 POP JUMPDEST PUSH1 0x0 DUP6 EQ PUSH2 0x22E7 JUMPI PUSH1 0x1 DUP3 PUSH2 0x2273 SWAP2 SWAP1 PUSH2 0x3A6B JUMP JUMPDEST SWAP2 POP PUSH1 0xA DUP6 PUSH2 0x2282 SWAP2 SWAP1 PUSH2 0x3C6A JUMP JUMPDEST PUSH1 0x30 PUSH2 0x228E SWAP2 SWAP1 PUSH2 0x398A JUMP JUMPDEST PUSH1 0xF8 SHL DUP2 DUP4 DUP2 MLOAD DUP2 LT PUSH2 0x22A4 JUMPI PUSH2 0x22A3 PUSH2 0x3D28 JUMP JUMPDEST JUMPDEST PUSH1 0x20 ADD ADD SWAP1 PUSH31 0xFFFFFFFFFFFFFFFFFFFFFFFFFFFFFFFFFFFFFFFFFFFFFFFFFFFFFFFFFFFFFF NOT AND SWAP1 DUP2 PUSH1 0x0 BYTE SWAP1 MSTORE8 POP PUSH1 0xA DUP6 PUSH2 0x22E0 SWAP2 SWAP1 PUSH2 0x39E0 JUMP JUMPDEST SWAP5 POP PUSH2 0x225E JUMP JUMPDEST DUP1 SWAP4 POP POP POP POP JUMPDEST SWAP2 SWAP1 POP JUMP JUMPDEST PUSH1 0x0 PUSH1 0x5 PUSH1 0x0 DUP5 PUSH20 0xFFFFFFFFFFFFFFFFFFFFFFFFFFFFFFFFFFFFFFFF AND PUSH20 0xFFFFFFFFFFFFFFFFFFFFFFFFFFFFFFFFFFFFFFFF AND DUP2 MSTORE PUSH1 0x20 ADD SWAP1 DUP2 MSTORE PUSH1 0x20 ADD PUSH1 0x0 KECCAK256 PUSH1 0x0 DUP4 PUSH20 0xFFFFFFFFFFFFFFFFFFFFFFFFFFFFFFFFFFFFFFFF AND PUSH20 0xFFFFFFFFFFFFFFFFFFFFFFFFFFFFFFFFFFFFFFFF AND DUP2 MSTORE PUSH1 0x20 ADD SWAP1 DUP2 MSTORE PUSH1 0x20 ADD PUSH1 0x0 KECCAK256 PUSH1 0x0 SWAP1 SLOAD SWAP1 PUSH2 0x100 EXP SWAP1 DIV PUSH1 0xFF AND SWAP1 POP SWAP3 SWAP2 POP POP JUMP JUMPDEST PUSH1 0x0 PUSH1 0x40 MLOAD DUP1 PUSH1 0x80 ADD PUSH1 0x40 MSTORE DUP1 PUSH1 0x43 DUP2 MSTORE PUSH1 0x20 ADD PUSH2 0x47CE PUSH1 0x43 SWAP2 CODECOPY DUP1 MLOAD SWAP1 PUSH1 0x20 ADD KECCAK256 DUP3 PUSH1 0x0 ADD MLOAD DUP4 PUSH1 0x20 ADD MLOAD DUP5 PUSH1 0x40 ADD MLOAD DUP1 MLOAD SWAP1 PUSH1 0x20 ADD KECCAK256 PUSH1 0x40 MLOAD PUSH1 0x20 ADD PUSH2 0x23D2 SWAP5 SWAP4 SWAP3 SWAP2 SWAP1 PUSH2 0x35A8 JUMP JUMPDEST PUSH1 0x40 MLOAD PUSH1 0x20 DUP2 DUP4 SUB SUB DUP2 MSTORE SWAP1 PUSH1 0x40 MSTORE DUP1 MLOAD SWAP1 PUSH1 0x20 ADD KECCAK256 SWAP1 POP SWAP2 SWAP1 POP JUMP JUMPDEST PUSH1 0x0 PUSH2 0x23F9 PUSH2 0xC5A JUMP JUMPDEST DUP3 PUSH1 0x40 MLOAD PUSH1 0x20 ADD PUSH2 0x240B SWAP3 SWAP2 SWAP1 PUSH2 0x341A JUMP JUMPDEST PUSH1 0x40 MLOAD PUSH1 0x20 DUP2 DUP4 SUB SUB DUP2 MSTORE SWAP1 PUSH1 0x40 MSTORE DUP1 MLOAD SWAP1 PUSH1 0x20 ADD KECCAK256 SWAP1 POP SWAP2 SWAP1 POP JUMP JUMPDEST PUSH2 0x2432 DUP4 DUP4 PUSH2 0x2624 JUMP JUMPDEST PUSH2 0x243F PUSH1 0x0 DUP5 DUP5 DUP5 PUSH2 0x248D JUMP JUMPDEST PUSH2 0x247E JUMPI PUSH1 0x40 MLOAD PUSH32 0x8C379A000000000000000000000000000000000000000000000000000000000 DUP2 MSTORE PUSH1 0x4 ADD PUSH2 0x2475 SWAP1 PUSH2 0x3676 JUMP JUMPDEST PUSH1 0x40 MLOAD DUP1 SWAP2 SUB SWAP1 REVERT JUMPDEST POP POP POP JUMP JUMPDEST POP POP POP JUMP JUMPDEST POP POP POP JUMP JUMPDEST PUSH1 0x0 PUSH2 0x24AE DUP5 PUSH20 0xFFFFFFFFFFFFFFFFFFFFFFFFFFFFFFFFFFFFFFFF AND PUSH2 0x27FE JUMP JUMPDEST ISZERO PUSH2 0x2617 JUMPI DUP4 PUSH20 0xFFFFFFFFFFFFFFFFFFFFFFFFFFFFFFFFFFFFFFFF AND PUSH4 0x150B7A02 PUSH2 0x24D7 PUSH2 0x16F6 JUMP JUMPDEST DUP8 DUP7 DUP7 PUSH1 0x40 MLOAD DUP6 PUSH4 0xFFFFFFFF AND PUSH1 0xE0 SHL DUP2 MSTORE PUSH1 0x4 ADD PUSH2 0x24F9 SWAP5 SWAP4 SWAP3 SWAP2 SWAP1 PUSH2 0x3526 JUMP JUMPDEST PUSH1 0x20 PUSH1 0x40 MLOAD DUP1 DUP4 SUB DUP2 PUSH1 0x0 DUP8 DUP1 EXTCODESIZE ISZERO DUP1 ISZERO PUSH2 0x2513 JUMPI PUSH1 0x0 DUP1 REVERT JUMPDEST POP GAS CALL SWAP3 POP POP POP DUP1 ISZERO PUSH2 0x2544 JUMPI POP PUSH1 0x40 MLOAD RETURNDATASIZE PUSH1 0x1F NOT PUSH1 0x1F DUP3 ADD AND DUP3 ADD DUP1 PUSH1 0x40 MSTORE POP DUP2 ADD SWAP1 PUSH2 0x2541 SWAP2 SWAP1 PUSH2 0x2BC0 JUMP JUMPDEST PUSH1 0x1 JUMPDEST PUSH2 0x25C7 JUMPI RETURNDATASIZE DUP1 PUSH1 0x0 DUP2 EQ PUSH2 0x2574 JUMPI PUSH1 0x40 MLOAD SWAP2 POP PUSH1 0x1F NOT PUSH1 0x3F RETURNDATASIZE ADD AND DUP3 ADD PUSH1 0x40 MSTORE RETURNDATASIZE DUP3 MSTORE RETURNDATASIZE PUSH1 0x0 PUSH1 0x20 DUP5 ADD RETURNDATACOPY PUSH2 0x2579 JUMP JUMPDEST PUSH1 0x60 SWAP2 POP JUMPDEST POP PUSH1 0x0 DUP2 MLOAD EQ ISZERO PUSH2 0x25BF JUMPI PUSH1 0x40 MLOAD PUSH32 0x8C379A000000000000000000000000000000000000000000000000000000000 DUP2 MSTORE PUSH1 0x4 ADD PUSH2 0x25B6 SWAP1 PUSH2 0x3676 JUMP JUMPDEST PUSH1 0x40 MLOAD DUP1 SWAP2 SUB SWAP1 REVERT JUMPDEST DUP1 MLOAD DUP2 PUSH1 0x20 ADD REVERT JUMPDEST PUSH4 0x150B7A02 PUSH1 0xE0 SHL PUSH28 0xFFFFFFFFFFFFFFFFFFFFFFFFFFFFFFFFFFFFFFFFFFFFFFFFFFFFFFFF NOT AND DUP2 PUSH28 0xFFFFFFFFFFFFFFFFFFFFFFFFFFFFFFFFFFFFFFFFFFFFFFFFFFFFFFFF NOT AND EQ SWAP2 POP POP PUSH2 0x261C JUMP JUMPDEST PUSH1 0x1 SWAP1 POP JUMPDEST SWAP5 SWAP4 POP POP POP POP JUMP JUMPDEST PUSH1 0x0 PUSH20 0xFFFFFFFFFFFFFFFFFFFFFFFFFFFFFFFFFFFFFFFF AND DUP3 PUSH20 0xFFFFFFFFFFFFFFFFFFFFFFFFFFFFFFFFFFFFFFFF AND EQ ISZERO PUSH2 0x2694 JUMPI PUSH1 0x40 MLOAD PUSH32 0x8C379A000000000000000000000000000000000000000000000000000000000 DUP2 MSTORE PUSH1 0x4 ADD PUSH2 0x268B SWAP1 PUSH2 0x37F6 JUMP JUMPDEST PUSH1 0x40 MLOAD DUP1 SWAP2 SUB SWAP1 REVERT JUMPDEST PUSH2 0x269D DUP2 PUSH2 0x168A JUMP JUMPDEST ISZERO PUSH2 0x26DD JUMPI PUSH1 0x40 MLOAD PUSH32 0x8C379A000000000000000000000000000000000000000000000000000000000 DUP2 MSTORE PUSH1 0x4 ADD PUSH2 0x26D4 SWAP1 PUSH2 0x36F6 JUMP JUMPDEST PUSH1 0x40 MLOAD DUP1 SWAP2 SUB SWAP1 REVERT JUMPDEST PUSH2 0x26E9 PUSH1 0x0 DUP4 DUP4 PUSH2 0x2483 JUMP JUMPDEST PUSH1 0x1 PUSH1 0x3 PUSH1 0x0 DUP5 PUSH20 0xFFFFFFFFFFFFFFFFFFFFFFFFFFFFFFFFFFFFFFFF AND PUSH20 0xFFFFFFFFFFFFFFFFFFFFFFFFFFFFFFFFFFFFFFFF AND DUP2 MSTORE PUSH1 0x20 ADD SWAP1 DUP2 MSTORE PUSH1 0x20 ADD PUSH1 0x0 KECCAK256 PUSH1 0x0 DUP3 DUP3 SLOAD PUSH2 0x2739 SWAP2 SWAP1 PUSH2 0x398A JUMP JUMPDEST SWAP3 POP POP DUP2 SWAP1 SSTORE POP DUP2 PUSH1 0x2 PUSH1 0x0 DUP4 DUP2 MSTORE PUSH1 0x20 ADD SWAP1 DUP2 MSTORE PUSH1 0x20 ADD PUSH1 0x0 KECCAK256 PUSH1 0x0 PUSH2 0x100 EXP DUP2 SLOAD DUP2 PUSH20 0xFFFFFFFFFFFFFFFFFFFFFFFFFFFFFFFFFFFFFFFF MUL NOT AND SWAP1 DUP4 PUSH20 0xFFFFFFFFFFFFFFFFFFFFFFFFFFFFFFFFFFFFFFFF AND MUL OR SWAP1 SSTORE POP DUP1 DUP3 PUSH20 0xFFFFFFFFFFFFFFFFFFFFFFFFFFFFFFFFFFFFFFFF AND PUSH1 0x0 PUSH20 0xFFFFFFFFFFFFFFFFFFFFFFFFFFFFFFFFFFFFFFFF AND PUSH32 0xDDF252AD1BE2C89B69C2B068FC378DAA952BA7F163C4A11628F55A4DF523B3EF PUSH1 0x40 MLOAD PUSH1 0x40 MLOAD DUP1 SWAP2 SUB SWAP1 LOG4 PUSH2 0x27FA PUSH1 0x0 DUP4 DUP4 PUSH2 0x2488 JUMP JUMPDEST POP POP JUMP JUMPDEST PUSH1 0x0 DUP1 DUP3 PUSH20 0xFFFFFFFFFFFFFFFFFFFFFFFFFFFFFFFFFFFFFFFF AND EXTCODESIZE GT SWAP1 POP SWAP2 SWAP1 POP JUMP JUMPDEST PUSH1 0x0 PUSH2 0x2834 PUSH2 0x282F DUP5 PUSH2 0x38F6 JUMP JUMPDEST PUSH2 0x38D1 JUMP JUMPDEST SWAP1 POP DUP3 DUP2 MSTORE PUSH1 0x20 DUP2 ADD DUP5 DUP5 DUP5 ADD GT ISZERO PUSH2 0x2850 JUMPI PUSH2 0x284F PUSH2 0x3D8B JUMP JUMPDEST JUMPDEST PUSH2 0x285B DUP5 DUP3 DUP6 PUSH2 0x3B4E JUMP JUMPDEST POP SWAP4 SWAP3 POP POP POP JUMP JUMPDEST PUSH1 0x0 DUP2 CALLDATALOAD SWAP1 POP PUSH2 0x2872 DUP2 PUSH2 0x472C JUMP JUMPDEST SWAP3 SWAP2 POP POP JUMP JUMPDEST PUSH1 0x0 DUP2 CALLDATALOAD SWAP1 POP PUSH2 0x2887 DUP2 PUSH2 0x4743 JUMP JUMPDEST SWAP3 SWAP2 POP POP JUMP JUMPDEST PUSH1 0x0 DUP2 CALLDATALOAD SWAP1 POP PUSH2 0x289C DUP2 PUSH2 0x475A JUMP JUMPDEST SWAP3 SWAP2 POP POP JUMP JUMPDEST PUSH1 0x0 DUP2 CALLDATALOAD SWAP1 POP PUSH2 0x28B1 DUP2 PUSH2 0x4771 JUMP JUMPDEST SWAP3 SWAP2 POP POP JUMP JUMPDEST PUSH1 0x0 DUP2 MLOAD SWAP1 POP PUSH2 0x28C6 DUP2 PUSH2 0x4771 JUMP JUMPDEST SWAP3 SWAP2 POP POP JUMP JUMPDEST PUSH1 0x0 DUP3 PUSH1 0x1F DUP4 ADD SLT PUSH2 0x28E1 JUMPI PUSH2 0x28E0 PUSH2 0x3D86 JUMP JUMPDEST JUMPDEST DUP2 CALLDATALOAD PUSH2 0x28F1 DUP5 DUP3 PUSH1 0x20 DUP7 ADD PUSH2 0x2821 JUMP JUMPDEST SWAP2 POP POP SWAP3 SWAP2 POP POP JUMP JUMPDEST PUSH1 0x0 DUP2 MLOAD SWAP1 POP PUSH2 0x2909 DUP2 PUSH2 0x4788 JUMP JUMPDEST SWAP3 SWAP2 POP POP JUMP JUMPDEST PUSH1 0x0 DUP2 CALLDATALOAD SWAP1 POP PUSH2 0x291E DUP2 PUSH2 0x479F JUMP JUMPDEST SWAP3 SWAP2 POP POP JUMP JUMPDEST PUSH1 0x0 DUP2 CALLDATALOAD SWAP1 POP PUSH2 0x2933 DUP2 PUSH2 0x47B6 JUMP JUMPDEST SWAP3 SWAP2 POP POP JUMP JUMPDEST PUSH1 0x0 PUSH1 0x20 DUP3 DUP5 SUB SLT ISZERO PUSH2 0x294F JUMPI PUSH2 0x294E PUSH2 0x3D95 JUMP JUMPDEST JUMPDEST PUSH1 0x0 PUSH2 0x295D DUP5 DUP3 DUP6 ADD PUSH2 0x2863 JUMP JUMPDEST SWAP2 POP POP SWAP3 SWAP2 POP POP JUMP JUMPDEST PUSH1 0x0 DUP1 PUSH1 0x40 DUP4 DUP6 SUB SLT ISZERO PUSH2 0x297D JUMPI PUSH2 0x297C PUSH2 0x3D95 JUMP JUMPDEST JUMPDEST PUSH1 0x0 PUSH2 0x298B DUP6 DUP3 DUP7 ADD PUSH2 0x2863 JUMP JUMPDEST SWAP3 POP POP PUSH1 0x20 PUSH2 0x299C DUP6 DUP3 DUP7 ADD PUSH2 0x2863 JUMP JUMPDEST SWAP2 POP POP SWAP3 POP SWAP3 SWAP1 POP JUMP JUMPDEST PUSH1 0x0 DUP1 PUSH1 0x0 PUSH1 0x60 DUP5 DUP7 SUB SLT ISZERO PUSH2 0x29BF JUMPI PUSH2 0x29BE PUSH2 0x3D95 JUMP JUMPDEST JUMPDEST PUSH1 0x0 PUSH2 0x29CD DUP7 DUP3 DUP8 ADD PUSH2 0x2863 JUMP JUMPDEST SWAP4 POP POP PUSH1 0x20 PUSH2 0x29DE DUP7 DUP3 DUP8 ADD PUSH2 0x2863 JUMP JUMPDEST SWAP3 POP POP PUSH1 0x40 PUSH2 0x29EF DUP7 DUP3 DUP8 ADD PUSH2 0x290F JUMP JUMPDEST SWAP2 POP POP SWAP3 POP SWAP3 POP SWAP3 JUMP JUMPDEST PUSH1 0x0 DUP1 PUSH1 0x0 DUP1 PUSH1 0x80 DUP6 DUP8 SUB SLT ISZERO PUSH2 0x2A13 JUMPI PUSH2 0x2A12 PUSH2 0x3D95 JUMP JUMPDEST JUMPDEST PUSH1 0x0 PUSH2 0x2A21 DUP8 DUP3 DUP9 ADD PUSH2 0x2863 JUMP JUMPDEST SWAP5 POP POP PUSH1 0x20 PUSH2 0x2A32 DUP8 DUP3 DUP9 ADD PUSH2 0x2863 JUMP JUMPDEST SWAP4 POP POP PUSH1 0x40 PUSH2 0x2A43 DUP8 DUP3 DUP9 ADD PUSH2 0x290F JUMP JUMPDEST SWAP3 POP POP PUSH1 0x60 DUP6 ADD CALLDATALOAD PUSH8 0xFFFFFFFFFFFFFFFF DUP2 GT ISZERO PUSH2 0x2A64 JUMPI PUSH2 0x2A63 PUSH2 0x3D90 JUMP JUMPDEST JUMPDEST PUSH2 0x2A70 DUP8 DUP3 DUP9 ADD PUSH2 0x28CC JUMP JUMPDEST SWAP2 POP POP SWAP3 SWAP6 SWAP2 SWAP5 POP SWAP3 POP JUMP JUMPDEST PUSH1 0x0 DUP1 PUSH1 0x40 DUP4 DUP6 SUB SLT ISZERO PUSH2 0x2A93 JUMPI PUSH2 0x2A92 PUSH2 0x3D95 JUMP JUMPDEST JUMPDEST PUSH1 0x0 PUSH2 0x2AA1 DUP6 DUP3 DUP7 ADD PUSH2 0x2863 JUMP JUMPDEST SWAP3 POP POP PUSH1 0x20 PUSH2 0x2AB2 DUP6 DUP3 DUP7 ADD PUSH2 0x2878 JUMP JUMPDEST SWAP2 POP POP SWAP3 POP SWAP3 SWAP1 POP JUMP JUMPDEST PUSH1 0x0 DUP1 PUSH1 0x0 DUP1 PUSH1 0x0 PUSH1 0xA0 DUP7 DUP9 SUB SLT ISZERO PUSH2 0x2AD8 JUMPI PUSH2 0x2AD7 PUSH2 0x3D95 JUMP JUMPDEST JUMPDEST PUSH1 0x0 PUSH2 0x2AE6 DUP9 DUP3 DUP10 ADD PUSH2 0x2863 JUMP JUMPDEST SWAP6 POP POP PUSH1 0x20 DUP7 ADD CALLDATALOAD PUSH8 0xFFFFFFFFFFFFFFFF DUP2 GT ISZERO PUSH2 0x2B07 JUMPI PUSH2 0x2B06 PUSH2 0x3D90 JUMP JUMPDEST JUMPDEST PUSH2 0x2B13 DUP9 DUP3 DUP10 ADD PUSH2 0x28CC JUMP JUMPDEST SWAP5 POP POP PUSH1 0x40 PUSH2 0x2B24 DUP9 DUP3 DUP10 ADD PUSH2 0x288D JUMP JUMPDEST SWAP4 POP POP PUSH1 0x60 PUSH2 0x2B35 DUP9 DUP3 DUP10 ADD PUSH2 0x288D JUMP JUMPDEST SWAP3 POP POP PUSH1 0x80 PUSH2 0x2B46 DUP9 DUP3 DUP10 ADD PUSH2 0x2924 JUMP JUMPDEST SWAP2 POP POP SWAP3 SWAP6 POP SWAP3 SWAP6 SWAP1 SWAP4 POP JUMP JUMPDEST PUSH1 0x0 DUP1 PUSH1 0x40 DUP4 DUP6 SUB SLT ISZERO PUSH2 0x2B6A JUMPI PUSH2 0x2B69 PUSH2 0x3D95 JUMP JUMPDEST JUMPDEST PUSH1 0x0 PUSH2 0x2B78 DUP6 DUP3 DUP7 ADD PUSH2 0x2863 JUMP JUMPDEST SWAP3 POP POP PUSH1 0x20 PUSH2 0x2B89 DUP6 DUP3 DUP7 ADD PUSH2 0x290F JUMP JUMPDEST SWAP2 POP POP SWAP3 POP SWAP3 SWAP1 POP JUMP JUMPDEST PUSH1 0x0 PUSH1 0x20 DUP3 DUP5 SUB SLT ISZERO PUSH2 0x2BA9 JUMPI PUSH2 0x2BA8 PUSH2 0x3D95 JUMP JUMPDEST JUMPDEST PUSH1 0x0 PUSH2 0x2BB7 DUP5 DUP3 DUP6 ADD PUSH2 0x28A2 JUMP JUMPDEST SWAP2 POP POP SWAP3 SWAP2 POP POP JUMP JUMPDEST PUSH1 0x0 PUSH1 0x20 DUP3 DUP5 SUB SLT ISZERO PUSH2 0x2BD6 JUMPI PUSH2 0x2BD5 PUSH2 0x3D95 JUMP JUMPDEST JUMPDEST PUSH1 0x0 PUSH2 0x2BE4 DUP5 DUP3 DUP6 ADD PUSH2 0x28B7 JUMP JUMPDEST SWAP2 POP POP SWAP3 SWAP2 POP POP JUMP JUMPDEST PUSH1 0x0 PUSH1 0x20 DUP3 DUP5 SUB SLT ISZERO PUSH2 0x2C03 JUMPI PUSH2 0x2C02 PUSH2 0x3D95 JUMP JUMPDEST JUMPDEST PUSH1 0x0 PUSH2 0x2C11 DUP5 DUP3 DUP6 ADD PUSH2 0x28FA JUMP JUMPDEST SWAP2 POP POP SWAP3 SWAP2 POP POP JUMP JUMPDEST PUSH1 0x0 PUSH1 0x20 DUP3 DUP5 SUB SLT ISZERO PUSH2 0x2C30 JUMPI PUSH2 0x2C2F PUSH2 0x3D95 JUMP JUMPDEST JUMPDEST PUSH1 0x0 PUSH2 0x2C3E DUP5 DUP3 DUP6 ADD PUSH2 0x290F JUMP JUMPDEST SWAP2 POP POP SWAP3 SWAP2 POP POP JUMP JUMPDEST PUSH2 0x2C50 DUP2 PUSH2 0x3AB1 JUMP JUMPDEST DUP3 MSTORE POP POP JUMP JUMPDEST PUSH2 0x2C5F DUP2 PUSH2 0x3A9F JUMP JUMPDEST DUP3 MSTORE POP POP JUMP JUMPDEST PUSH2 0x2C76 PUSH2 0x2C71 DUP3 PUSH2 0x3A9F JUMP JUMPDEST PUSH2 0x3C3C JUMP JUMPDEST DUP3 MSTORE POP POP JUMP JUMPDEST PUSH2 0x2C85 DUP2 PUSH2 0x3AC3 JUMP JUMPDEST DUP3 MSTORE POP POP JUMP JUMPDEST PUSH2 0x2C94 DUP2 PUSH2 0x3ACF JUMP JUMPDEST DUP3 MSTORE POP POP JUMP JUMPDEST PUSH2 0x2CAB PUSH2 0x2CA6 DUP3 PUSH2 0x3ACF JUMP JUMPDEST PUSH2 0x3C4E JUMP JUMPDEST DUP3 MSTORE POP POP JUMP JUMPDEST PUSH1 0x0 PUSH2 0x2CBC DUP3 PUSH2 0x393C JUMP JUMPDEST PUSH2 0x2CC6 DUP2 DUP6 PUSH2 0x3952 JUMP JUMPDEST SWAP4 POP PUSH2 0x2CD6 DUP2 DUP6 PUSH1 0x20 DUP7 ADD PUSH2 0x3B5D JUMP JUMPDEST PUSH2 0x2CDF DUP2 PUSH2 0x3D9A JUMP JUMPDEST DUP5 ADD SWAP2 POP POP SWAP3 SWAP2 POP POP JUMP JUMPDEST PUSH1 0x0 PUSH2 0x2CF5 DUP3 PUSH2 0x393C JUMP JUMPDEST PUSH2 0x2CFF DUP2 DUP6 PUSH2 0x3963 JUMP JUMPDEST SWAP4 POP PUSH2 0x2D0F DUP2 DUP6 PUSH1 0x20 DUP7 ADD PUSH2 0x3B5D JUMP JUMPDEST DUP1 DUP5 ADD SWAP2 POP POP SWAP3 SWAP2 POP POP JUMP JUMPDEST PUSH1 0x0 PUSH2 0x2D26 DUP3 PUSH2 0x3947 JUMP JUMPDEST PUSH2 0x2D30 DUP2 DUP6 PUSH2 0x396E JUMP JUMPDEST SWAP4 POP PUSH2 0x2D40 DUP2 DUP6 PUSH1 0x20 DUP7 ADD PUSH2 0x3B5D JUMP JUMPDEST PUSH2 0x2D49 DUP2 PUSH2 0x3D9A JUMP JUMPDEST DUP5 ADD SWAP2 POP POP SWAP3 SWAP2 POP POP JUMP JUMPDEST PUSH1 0x0 PUSH2 0x2D5F DUP3 PUSH2 0x3947 JUMP JUMPDEST PUSH2 0x2D69 DUP2 DUP6 PUSH2 0x397F JUMP JUMPDEST SWAP4 POP PUSH2 0x2D79 DUP2 DUP6 PUSH1 0x20 DUP7 ADD PUSH2 0x3B5D JUMP JUMPDEST DUP1 DUP5 ADD SWAP2 POP POP SWAP3 SWAP2 POP POP JUMP JUMPDEST PUSH1 0x0 DUP2 SLOAD PUSH2 0x2D92 DUP2 PUSH2 0x3B90 JUMP JUMPDEST PUSH2 0x2D9C DUP2 DUP7 PUSH2 0x397F JUMP JUMPDEST SWAP5 POP PUSH1 0x1 DUP3 AND PUSH1 0x0 DUP2 EQ PUSH2 0x2DB7 JUMPI PUSH1 0x1 DUP2 EQ PUSH2 0x2DC8 JUMPI PUSH2 0x2DFB JUMP JUMPDEST PUSH1 0xFF NOT DUP4 AND DUP7 MSTORE DUP2 DUP7 ADD SWAP4 POP PUSH2 0x2DFB JUMP JUMPDEST PUSH2 0x2DD1 DUP6 PUSH2 0x3927 JUMP JUMPDEST PUSH1 0x0 JUMPDEST DUP4 DUP2 LT ISZERO PUSH2 0x2DF3 JUMPI DUP2 SLOAD DUP2 DUP10 ADD MSTORE PUSH1 0x1 DUP3 ADD SWAP2 POP PUSH1 0x20 DUP2 ADD SWAP1 POP PUSH2 0x2DD4 JUMP JUMPDEST DUP4 DUP9 ADD SWAP6 POP POP POP JUMPDEST POP POP POP SWAP3 SWAP2 POP POP JUMP JUMPDEST PUSH1 0x0 PUSH2 0x2E11 PUSH1 0x32 DUP4 PUSH2 0x396E JUMP JUMPDEST SWAP2 POP PUSH2 0x2E1C DUP3 PUSH2 0x3DB8 JUMP JUMPDEST PUSH1 0x40 DUP3 ADD SWAP1 POP SWAP2 SWAP1 POP JUMP JUMPDEST PUSH1 0x0 PUSH2 0x2E34 PUSH1 0x26 DUP4 PUSH2 0x396E JUMP JUMPDEST SWAP2 POP PUSH2 0x2E3F DUP3 PUSH2 0x3E07 JUMP JUMPDEST PUSH1 0x40 DUP3 ADD SWAP1 POP SWAP2 SWAP1 POP JUMP JUMPDEST PUSH1 0x0 PUSH2 0x2E57 PUSH1 0x1C DUP4 PUSH2 0x396E JUMP JUMPDEST SWAP2 POP PUSH2 0x2E62 DUP3 PUSH2 0x3E56 JUMP JUMPDEST PUSH1 0x20 DUP3 ADD SWAP1 POP SWAP2 SWAP1 POP JUMP JUMPDEST PUSH1 0x0 PUSH2 0x2E7A PUSH1 0x25 DUP4 PUSH2 0x396E JUMP JUMPDEST SWAP2 POP PUSH2 0x2E85 DUP3 PUSH2 0x3E7F JUMP JUMPDEST PUSH1 0x40 DUP3 ADD SWAP1 POP SWAP2 SWAP1 POP JUMP JUMPDEST PUSH1 0x0 PUSH2 0x2E9D PUSH1 0x1C DUP4 PUSH2 0x396E JUMP JUMPDEST SWAP2 POP PUSH2 0x2EA8 DUP3 PUSH2 0x3ECE JUMP JUMPDEST PUSH1 0x20 DUP3 ADD SWAP1 POP SWAP2 SWAP1 POP JUMP JUMPDEST PUSH1 0x0 PUSH2 0x2EC0 PUSH1 0x2 DUP4 PUSH2 0x397F JUMP JUMPDEST SWAP2 POP PUSH2 0x2ECB DUP3 PUSH2 0x3EF7 JUMP JUMPDEST PUSH1 0x2 DUP3 ADD SWAP1 POP SWAP2 SWAP1 POP JUMP JUMPDEST PUSH1 0x0 PUSH2 0x2EE3 PUSH1 0x8 DUP4 PUSH2 0x397F JUMP JUMPDEST SWAP2 POP PUSH2 0x2EEE DUP3 PUSH2 0x3F20 JUMP JUMPDEST PUSH1 0x8 DUP3 ADD SWAP1 POP SWAP2 SWAP1 POP JUMP JUMPDEST PUSH1 0x0 PUSH2 0x2F06 PUSH1 0x24 DUP4 PUSH2 0x396E JUMP JUMPDEST SWAP2 POP PUSH2 0x2F11 DUP3 PUSH2 0x3F49 JUMP JUMPDEST PUSH1 0x40 DUP3 ADD SWAP1 POP SWAP2 SWAP1 POP JUMP JUMPDEST PUSH1 0x0 PUSH2 0x2F29 PUSH1 0x19 DUP4 PUSH2 0x396E JUMP JUMPDEST SWAP2 POP PUSH2 0x2F34 DUP3 PUSH2 0x3F98 JUMP JUMPDEST PUSH1 0x20 DUP3 ADD SWAP1 POP SWAP2 SWAP1 POP JUMP JUMPDEST PUSH1 0x0 PUSH2 0x2F4C PUSH1 0x2C DUP4 PUSH2 0x396E JUMP JUMPDEST SWAP2 POP PUSH2 0x2F57 DUP3 PUSH2 0x3FC1 JUMP JUMPDEST PUSH1 0x40 DUP3 ADD SWAP1 POP SWAP2 SWAP1 POP JUMP JUMPDEST PUSH1 0x0 PUSH2 0x2F6F PUSH1 0x2A DUP4 PUSH2 0x397F JUMP JUMPDEST SWAP2 POP PUSH2 0x2F7A DUP3 PUSH2 0x4010 JUMP JUMPDEST PUSH1 0x2A DUP3 ADD SWAP1 POP SWAP2 SWAP1 POP JUMP JUMPDEST PUSH1 0x0 PUSH2 0x2F92 PUSH1 0x25 DUP4 PUSH2 0x396E JUMP JUMPDEST SWAP2 POP PUSH2 0x2F9D DUP3 PUSH2 0x405F JUMP JUMPDEST PUSH1 0x40 DUP3 ADD SWAP1 POP SWAP2 SWAP1 POP JUMP JUMPDEST PUSH1 0x0 PUSH2 0x2FB5 PUSH1 0x38 DUP4 PUSH2 0x396E JUMP JUMPDEST SWAP2 POP PUSH2 0x2FC0 DUP3 PUSH2 0x40AE JUMP JUMPDEST PUSH1 0x40 DUP3 ADD SWAP1 POP SWAP2 SWAP1 POP JUMP JUMPDEST PUSH1 0x0 PUSH2 0x2FD8 PUSH1 0x4 DUP4 PUSH2 0x397F JUMP JUMPDEST SWAP2 POP PUSH2 0x2FE3 DUP3 PUSH2 0x40FD JUMP JUMPDEST PUSH1 0x4 DUP3 ADD SWAP1 POP SWAP2 SWAP1 POP JUMP JUMPDEST PUSH1 0x0 PUSH2 0x2FFB PUSH1 0x2A DUP4 PUSH2 0x396E JUMP JUMPDEST SWAP2 POP PUSH2 0x3006 DUP3 PUSH2 0x4126 JUMP JUMPDEST PUSH1 0x40 DUP3 ADD SWAP1 POP SWAP2 SWAP1 POP JUMP JUMPDEST PUSH1 0x0 PUSH2 0x301E PUSH1 0x29 DUP4 PUSH2 0x396E JUMP JUMPDEST SWAP2 POP PUSH2 0x3029 DUP3 PUSH2 0x4175 JUMP JUMPDEST PUSH1 0x40 DUP3 ADD SWAP1 POP SWAP2 SWAP1 POP JUMP JUMPDEST PUSH1 0x0 PUSH2 0x3041 PUSH1 0x27 DUP4 PUSH2 0x397F JUMP JUMPDEST SWAP2 POP PUSH2 0x304C DUP3 PUSH2 0x41C4 JUMP JUMPDEST PUSH1 0x27 DUP3 ADD SWAP1 POP SWAP2 SWAP1 POP JUMP JUMPDEST PUSH1 0x0 PUSH2 0x3064 PUSH1 0x2 DUP4 PUSH2 0x397F JUMP JUMPDEST SWAP2 POP PUSH2 0x306F DUP3 PUSH2 0x4213 JUMP JUMPDEST PUSH1 0x2 DUP3 ADD SWAP1 POP SWAP2 SWAP1 POP JUMP JUMPDEST PUSH1 0x0 PUSH2 0x3087 PUSH1 0x7 DUP4 PUSH2 0x397F JUMP JUMPDEST SWAP2 POP PUSH2 0x3092 DUP3 PUSH2 0x423C JUMP JUMPDEST PUSH1 0x7 DUP3 ADD SWAP1 POP SWAP2 SWAP1 POP JUMP JUMPDEST PUSH1 0x0 PUSH2 0x30AA PUSH1 0x20 DUP4 PUSH2 0x396E JUMP JUMPDEST SWAP2 POP PUSH2 0x30B5 DUP3 PUSH2 0x4265 JUMP JUMPDEST PUSH1 0x20 DUP3 ADD SWAP1 POP SWAP2 SWAP1 POP JUMP JUMPDEST PUSH1 0x0 PUSH2 0x30CD PUSH1 0x2C DUP4 PUSH2 0x396E JUMP JUMPDEST SWAP2 POP PUSH2 0x30D8 DUP3 PUSH2 0x428E JUMP JUMPDEST PUSH1 0x40 DUP3 ADD SWAP1 POP SWAP2 SWAP1 POP JUMP JUMPDEST PUSH1 0x0 PUSH2 0x30F0 PUSH1 0x20 DUP4 PUSH2 0x396E JUMP JUMPDEST SWAP2 POP PUSH2 0x30FB DUP3 PUSH2 0x42DD JUMP JUMPDEST PUSH1 0x20 DUP3 ADD SWAP1 POP SWAP2 SWAP1 POP JUMP JUMPDEST PUSH1 0x0 PUSH2 0x3113 PUSH1 0x21 DUP4 PUSH2 0x396E JUMP JUMPDEST SWAP2 POP PUSH2 0x311E DUP3 PUSH2 0x4306 JUMP JUMPDEST PUSH1 0x40 DUP3 ADD SWAP1 POP SWAP2 SWAP1 POP JUMP JUMPDEST PUSH1 0x0 PUSH2 0x3136 PUSH1 0x27 DUP4 PUSH2 0x397F JUMP JUMPDEST SWAP2 POP PUSH2 0x3141 DUP3 PUSH2 0x4355 JUMP JUMPDEST PUSH1 0x27 DUP3 ADD SWAP1 POP SWAP2 SWAP1 POP JUMP JUMPDEST PUSH1 0x0 PUSH2 0x3159 PUSH1 0xA DUP4 PUSH2 0x397F JUMP JUMPDEST SWAP2 POP PUSH2 0x3164 DUP3 PUSH2 0x43A4 JUMP JUMPDEST PUSH1 0xA DUP3 ADD SWAP1 POP SWAP2 SWAP1 POP JUMP JUMPDEST PUSH1 0x0 PUSH2 0x317C PUSH1 0x21 DUP4 PUSH2 0x396E JUMP JUMPDEST SWAP2 POP PUSH2 0x3187 DUP3 PUSH2 0x43CD JUMP JUMPDEST PUSH1 0x40 DUP3 ADD SWAP1 POP SWAP2 SWAP1 POP JUMP JUMPDEST PUSH1 0x0 PUSH2 0x319F PUSH1 0x1D DUP4 PUSH2 0x397F JUMP JUMPDEST SWAP2 POP PUSH2 0x31AA DUP3 PUSH2 0x441C JUMP JUMPDEST PUSH1 0x1D DUP3 ADD SWAP1 POP SWAP2 SWAP1 POP JUMP JUMPDEST PUSH1 0x0 PUSH2 0x31C2 PUSH1 0x31 DUP4 PUSH2 0x396E JUMP JUMPDEST SWAP2 POP PUSH2 0x31CD DUP3 PUSH2 0x4445 JUMP JUMPDEST PUSH1 0x40 DUP3 ADD SWAP1 POP SWAP2 SWAP1 POP JUMP JUMPDEST PUSH1 0x0 PUSH2 0x31E5 PUSH1 0x31 DUP4 PUSH2 0x397F JUMP JUMPDEST SWAP2 POP PUSH2 0x31F0 DUP3 PUSH2 0x4494 JUMP JUMPDEST PUSH1 0x31 DUP3 ADD SWAP1 POP SWAP2 SWAP1 POP JUMP JUMPDEST PUSH1 0x0 PUSH2 0x3208 PUSH1 0x69 DUP4 PUSH2 0x397F JUMP JUMPDEST SWAP2 POP PUSH2 0x3213 DUP3 PUSH2 0x44E3 JUMP JUMPDEST PUSH1 0x69 DUP3 ADD SWAP1 POP SWAP2 SWAP1 POP JUMP JUMPDEST PUSH1 0x0 PUSH2 0x322B PUSH1 0x1C DUP4 PUSH2 0x397F JUMP JUMPDEST SWAP2 POP PUSH2 0x3236 DUP3 PUSH2 0x457E JUMP JUMPDEST PUSH1 0x1C DUP3 ADD SWAP1 POP SWAP2 SWAP1 POP JUMP JUMPDEST PUSH1 0x0 PUSH2 0x324E PUSH1 0x6 DUP4 PUSH2 0x397F JUMP JUMPDEST SWAP2 POP PUSH2 0x3259 DUP3 PUSH2 0x45A7 JUMP JUMPDEST PUSH1 0x6 DUP3 ADD SWAP1 POP SWAP2 SWAP1 POP JUMP JUMPDEST PUSH1 0x0 PUSH2 0x3271 PUSH1 0xE6 DUP4 PUSH2 0x397F JUMP JUMPDEST SWAP2 POP PUSH2 0x327C DUP3 PUSH2 0x45D0 JUMP JUMPDEST PUSH1 0xE6 DUP3 ADD SWAP1 POP SWAP2 SWAP1 POP JUMP JUMPDEST PUSH1 0x0 PUSH2 0x3294 PUSH1 0x7 DUP4 PUSH2 0x397F JUMP JUMPDEST SWAP2 POP PUSH2 0x329F DUP3 PUSH2 0x4703 JUMP JUMPDEST PUSH1 0x7 DUP3 ADD SWAP1 POP SWAP2 SWAP1 POP JUMP JUMPDEST PUSH2 0x32B3 DUP2 PUSH2 0x3B37 JUMP JUMPDEST DUP3 MSTORE POP POP JUMP JUMPDEST PUSH2 0x32C2 DUP2 PUSH2 0x3B41 JUMP JUMPDEST DUP3 MSTORE POP POP JUMP JUMPDEST PUSH1 0x0 PUSH2 0x32D4 DUP3 DUP5 PUSH2 0x2CEA JUMP JUMPDEST SWAP2 POP DUP2 SWAP1 POP SWAP3 SWAP2 POP POP JUMP JUMPDEST PUSH1 0x0 PUSH2 0x32EB DUP3 DUP6 PUSH2 0x2CEA JUMP JUMPDEST SWAP2 POP PUSH2 0x32F7 DUP3 DUP5 PUSH2 0x2C65 JUMP JUMPDEST PUSH1 0x14 DUP3 ADD SWAP2 POP DUP2 SWAP1 POP SWAP4 SWAP3 POP POP POP JUMP JUMPDEST PUSH1 0x0 PUSH2 0x3313 DUP3 DUP6 PUSH2 0x2D54 JUMP JUMPDEST SWAP2 POP PUSH2 0x331E DUP3 PUSH2 0x2F62 JUMP JUMPDEST SWAP2 POP PUSH2 0x332A DUP3 DUP5 PUSH2 0x2D85 JUMP JUMPDEST SWAP2 POP PUSH2 0x3335 DUP3 PUSH2 0x307A JUMP JUMPDEST SWAP2 POP DUP2 SWAP1 POP SWAP4 SWAP3 POP POP POP JUMP JUMPDEST PUSH1 0x0 PUSH2 0x334D DUP3 DUP6 PUSH2 0x2D54 JUMP JUMPDEST SWAP2 POP PUSH2 0x3358 DUP3 PUSH2 0x3034 JUMP JUMPDEST SWAP2 POP PUSH2 0x3364 DUP3 DUP5 PUSH2 0x2D54 JUMP JUMPDEST SWAP2 POP PUSH2 0x336F DUP3 PUSH2 0x2FCB JUMP JUMPDEST SWAP2 POP DUP2 SWAP1 POP SWAP4 SWAP3 POP POP POP JUMP JUMPDEST PUSH1 0x0 PUSH2 0x3387 DUP3 DUP6 PUSH2 0x2D54 JUMP JUMPDEST SWAP2 POP PUSH2 0x3392 DUP3 PUSH2 0x321E JUMP JUMPDEST SWAP2 POP PUSH2 0x339E DUP3 DUP5 PUSH2 0x2D54 JUMP JUMPDEST SWAP2 POP PUSH2 0x33A9 DUP3 PUSH2 0x307A JUMP JUMPDEST SWAP2 POP DUP2 SWAP1 POP SWAP4 SWAP3 POP POP POP JUMP JUMPDEST PUSH1 0x0 PUSH2 0x33C1 DUP3 DUP5 PUSH2 0x2D54 JUMP JUMPDEST SWAP2 POP PUSH2 0x33CC DUP3 PUSH2 0x3241 JUMP JUMPDEST SWAP2 POP DUP2 SWAP1 POP SWAP3 SWAP2 POP POP JUMP JUMPDEST PUSH1 0x0 PUSH2 0x33E3 DUP3 DUP5 PUSH2 0x2D54 JUMP JUMPDEST SWAP2 POP PUSH2 0x33EE DUP3 PUSH2 0x3287 JUMP JUMPDEST SWAP2 POP PUSH2 0x33F9 DUP3 PUSH2 0x31FB JUMP JUMPDEST SWAP2 POP PUSH2 0x3404 DUP3 PUSH2 0x31D8 JUMP JUMPDEST SWAP2 POP PUSH2 0x340F DUP3 PUSH2 0x2ED6 JUMP JUMPDEST SWAP2 POP DUP2 SWAP1 POP SWAP3 SWAP2 POP POP JUMP JUMPDEST PUSH1 0x0 PUSH2 0x3425 DUP3 PUSH2 0x2EB3 JUMP JUMPDEST SWAP2 POP PUSH2 0x3431 DUP3 DUP6 PUSH2 0x2C9A JUMP JUMPDEST PUSH1 0x20 DUP3 ADD SWAP2 POP PUSH2 0x3441 DUP3 DUP5 PUSH2 0x2C9A JUMP JUMPDEST PUSH1 0x20 DUP3 ADD SWAP2 POP DUP2 SWAP1 POP SWAP4 SWAP3 POP POP POP JUMP JUMPDEST PUSH1 0x0 PUSH2 0x345C DUP3 PUSH2 0x314C JUMP JUMPDEST SWAP2 POP PUSH2 0x3468 DUP3 DUP6 PUSH2 0x2D85 JUMP JUMPDEST SWAP2 POP PUSH2 0x3473 DUP3 PUSH2 0x3129 JUMP JUMPDEST SWAP2 POP PUSH2 0x347F DUP3 DUP5 PUSH2 0x2D54 JUMP JUMPDEST SWAP2 POP PUSH2 0x348A DUP3 PUSH2 0x3057 JUMP JUMPDEST SWAP2 POP DUP2 SWAP1 POP SWAP4 SWAP3 POP POP POP JUMP JUMPDEST PUSH1 0x0 PUSH2 0x34A1 DUP3 PUSH2 0x3192 JUMP JUMPDEST SWAP2 POP PUSH2 0x34AD DUP3 DUP5 PUSH2 0x2D54 JUMP JUMPDEST SWAP2 POP DUP2 SWAP1 POP SWAP3 SWAP2 POP POP JUMP JUMPDEST PUSH1 0x0 PUSH2 0x34C3 DUP3 PUSH2 0x3264 JUMP JUMPDEST SWAP2 POP DUP2 SWAP1 POP SWAP2 SWAP1 POP JUMP JUMPDEST PUSH1 0x0 PUSH1 0x20 DUP3 ADD SWAP1 POP PUSH2 0x34E2 PUSH1 0x0 DUP4 ADD DUP5 PUSH2 0x2C56 JUMP JUMPDEST SWAP3 SWAP2 POP POP JUMP JUMPDEST PUSH1 0x0 PUSH1 0x60 DUP3 ADD SWAP1 POP PUSH2 0x34FD PUSH1 0x0 DUP4 ADD DUP7 PUSH2 0x2C56 JUMP JUMPDEST PUSH2 0x350A PUSH1 0x20 DUP4 ADD DUP6 PUSH2 0x2C47 JUMP JUMPDEST DUP2 DUP2 SUB PUSH1 0x40 DUP4 ADD MSTORE PUSH2 0x351C DUP2 DUP5 PUSH2 0x2CB1 JUMP JUMPDEST SWAP1 POP SWAP5 SWAP4 POP POP POP POP JUMP JUMPDEST PUSH1 0x0 PUSH1 0x80 DUP3 ADD SWAP1 POP PUSH2 0x353B PUSH1 0x0 DUP4 ADD DUP8 PUSH2 0x2C56 JUMP JUMPDEST PUSH2 0x3548 PUSH1 0x20 DUP4 ADD DUP7 PUSH2 0x2C56 JUMP JUMPDEST PUSH2 0x3555 PUSH1 0x40 DUP4 ADD DUP6 PUSH2 0x32AA JUMP JUMPDEST DUP2 DUP2 SUB PUSH1 0x60 DUP4 ADD MSTORE PUSH2 0x3567 DUP2 DUP5 PUSH2 0x2CB1 JUMP JUMPDEST SWAP1 POP SWAP6 SWAP5 POP POP POP POP POP JUMP JUMPDEST PUSH1 0x0 PUSH1 0x20 DUP3 ADD SWAP1 POP PUSH2 0x3587 PUSH1 0x0 DUP4 ADD DUP5 PUSH2 0x2C7C JUMP JUMPDEST SWAP3 SWAP2 POP POP JUMP JUMPDEST PUSH1 0x0 PUSH1 0x20 DUP3 ADD SWAP1 POP PUSH2 0x35A2 PUSH1 0x0 DUP4 ADD DUP5 PUSH2 0x2C8B JUMP JUMPDEST SWAP3 SWAP2 POP POP JUMP JUMPDEST PUSH1 0x0 PUSH1 0x80 DUP3 ADD SWAP1 POP PUSH2 0x35BD PUSH1 0x0 DUP4 ADD DUP8 PUSH2 0x2C8B JUMP JUMPDEST PUSH2 0x35CA PUSH1 0x20 DUP4 ADD DUP7 PUSH2 0x32AA JUMP JUMPDEST PUSH2 0x35D7 PUSH1 0x40 DUP4 ADD DUP6 PUSH2 0x2C56 JUMP JUMPDEST PUSH2 0x35E4 PUSH1 0x60 DUP4 ADD DUP5 PUSH2 0x2C8B JUMP JUMPDEST SWAP6 SWAP5 POP POP POP POP POP JUMP JUMPDEST PUSH1 0x0 PUSH1 0x80 DUP3 ADD SWAP1 POP PUSH2 0x3602 PUSH1 0x0 DUP4 ADD DUP8 PUSH2 0x2C8B JUMP JUMPDEST PUSH2 0x360F PUSH1 0x20 DUP4 ADD DUP7 PUSH2 0x32B9 JUMP JUMPDEST PUSH2 0x361C PUSH1 0x40 DUP4 ADD DUP6 PUSH2 0x2C8B JUMP JUMPDEST PUSH2 0x3629 PUSH1 0x60 DUP4 ADD DUP5 PUSH2 0x2C8B JUMP JUMPDEST SWAP6 SWAP5 POP POP POP POP POP JUMP JUMPDEST PUSH1 0x0 PUSH1 0x20 DUP3 ADD SWAP1 POP DUP2 DUP2 SUB PUSH1 0x0 DUP4 ADD MSTORE PUSH2 0x364C DUP2 DUP5 PUSH2 0x2CB1 JUMP JUMPDEST SWAP1 POP SWAP3 SWAP2 POP POP JUMP JUMPDEST PUSH1 0x0 PUSH1 0x20 DUP3 ADD SWAP1 POP DUP2 DUP2 SUB PUSH1 0x0 DUP4 ADD MSTORE PUSH2 0x366E DUP2 DUP5 PUSH2 0x2D1B JUMP JUMPDEST SWAP1 POP SWAP3 SWAP2 POP POP JUMP JUMPDEST PUSH1 0x0 PUSH1 0x20 DUP3 ADD SWAP1 POP DUP2 DUP2 SUB PUSH1 0x0 DUP4 ADD MSTORE PUSH2 0x368F DUP2 PUSH2 0x2E04 JUMP JUMPDEST SWAP1 POP SWAP2 SWAP1 POP JUMP JUMPDEST PUSH1 0x0 PUSH1 0x20 DUP3 ADD SWAP1 POP DUP2 DUP2 SUB PUSH1 0x0 DUP4 ADD MSTORE PUSH2 0x36AF DUP2 PUSH2 0x2E27 JUMP JUMPDEST SWAP1 POP SWAP2 SWAP1 POP JUMP JUMPDEST PUSH1 0x0 PUSH1 0x20 DUP3 ADD SWAP1 POP DUP2 DUP2 SUB PUSH1 0x0 DUP4 ADD MSTORE PUSH2 0x36CF DUP2 PUSH2 0x2E4A JUMP JUMPDEST SWAP1 POP SWAP2 SWAP1 POP JUMP JUMPDEST PUSH1 0x0 PUSH1 0x20 DUP3 ADD SWAP1 POP DUP2 DUP2 SUB PUSH1 0x0 DUP4 ADD MSTORE PUSH2 0x36EF DUP2 PUSH2 0x2E6D JUMP JUMPDEST SWAP1 POP SWAP2 SWAP1 POP JUMP JUMPDEST PUSH1 0x0 PUSH1 0x20 DUP3 ADD SWAP1 POP DUP2 DUP2 SUB PUSH1 0x0 DUP4 ADD MSTORE PUSH2 0x370F DUP2 PUSH2 0x2E90 JUMP JUMPDEST SWAP1 POP SWAP2 SWAP1 POP JUMP JUMPDEST PUSH1 0x0 PUSH1 0x20 DUP3 ADD SWAP1 POP DUP2 DUP2 SUB PUSH1 0x0 DUP4 ADD MSTORE PUSH2 0x372F DUP2 PUSH2 0x2EF9 JUMP JUMPDEST SWAP1 POP SWAP2 SWAP1 POP JUMP JUMPDEST PUSH1 0x0 PUSH1 0x20 DUP3 ADD SWAP1 POP DUP2 DUP2 SUB PUSH1 0x0 DUP4 ADD MSTORE PUSH2 0x374F DUP2 PUSH2 0x2F1C JUMP JUMPDEST SWAP1 POP SWAP2 SWAP1 POP JUMP JUMPDEST PUSH1 0x0 PUSH1 0x20 DUP3 ADD SWAP1 POP DUP2 DUP2 SUB PUSH1 0x0 DUP4 ADD MSTORE PUSH2 0x376F DUP2 PUSH2 0x2F3F JUMP JUMPDEST SWAP1 POP SWAP2 SWAP1 POP JUMP JUMPDEST PUSH1 0x0 PUSH1 0x20 DUP3 ADD SWAP1 POP DUP2 DUP2 SUB PUSH1 0x0 DUP4 ADD MSTORE PUSH2 0x378F DUP2 PUSH2 0x2F85 JUMP JUMPDEST SWAP1 POP SWAP2 SWAP1 POP JUMP JUMPDEST PUSH1 0x0 PUSH1 0x20 DUP3 ADD SWAP1 POP DUP2 DUP2 SUB PUSH1 0x0 DUP4 ADD MSTORE PUSH2 0x37AF DUP2 PUSH2 0x2FA8 JUMP JUMPDEST SWAP1 POP SWAP2 SWAP1 POP JUMP JUMPDEST PUSH1 0x0 PUSH1 0x20 DUP3 ADD SWAP1 POP DUP2 DUP2 SUB PUSH1 0x0 DUP4 ADD MSTORE PUSH2 0x37CF DUP2 PUSH2 0x2FEE JUMP JUMPDEST SWAP1 POP SWAP2 SWAP1 POP JUMP JUMPDEST PUSH1 0x0 PUSH1 0x20 DUP3 ADD SWAP1 POP DUP2 DUP2 SUB PUSH1 0x0 DUP4 ADD MSTORE PUSH2 0x37EF DUP2 PUSH2 0x3011 JUMP JUMPDEST SWAP1 POP SWAP2 SWAP1 POP JUMP JUMPDEST PUSH1 0x0 PUSH1 0x20 DUP3 ADD SWAP1 POP DUP2 DUP2 SUB PUSH1 0x0 DUP4 ADD MSTORE PUSH2 0x380F DUP2 PUSH2 0x309D JUMP JUMPDEST SWAP1 POP SWAP2 SWAP1 POP JUMP JUMPDEST PUSH1 0x0 PUSH1 0x20 DUP3 ADD SWAP1 POP DUP2 DUP2 SUB PUSH1 0x0 DUP4 ADD MSTORE PUSH2 0x382F DUP2 PUSH2 0x30C0 JUMP JUMPDEST SWAP1 POP SWAP2 SWAP1 POP JUMP JUMPDEST PUSH1 0x0 PUSH1 0x20 DUP3 ADD SWAP1 POP DUP2 DUP2 SUB PUSH1 0x0 DUP4 ADD MSTORE PUSH2 0x384F DUP2 PUSH2 0x30E3 JUMP JUMPDEST SWAP1 POP SWAP2 SWAP1 POP JUMP JUMPDEST PUSH1 0x0 PUSH1 0x20 DUP3 ADD SWAP1 POP DUP2 DUP2 SUB PUSH1 0x0 DUP4 ADD MSTORE PUSH2 0x386F DUP2 PUSH2 0x3106 JUMP JUMPDEST SWAP1 POP SWAP2 SWAP1 POP JUMP JUMPDEST PUSH1 0x0 PUSH1 0x20 DUP3 ADD SWAP1 POP DUP2 DUP2 SUB PUSH1 0x0 DUP4 ADD MSTORE PUSH2 0x388F DUP2 PUSH2 0x316F JUMP JUMPDEST SWAP1 POP SWAP2 SWAP1 POP JUMP JUMPDEST PUSH1 0x0 PUSH1 0x20 DUP3 ADD SWAP1 POP DUP2 DUP2 SUB PUSH1 0x0 DUP4 ADD MSTORE PUSH2 0x38AF DUP2 PUSH2 0x31B5 JUMP JUMPDEST SWAP1 POP SWAP2 SWAP1 POP JUMP JUMPDEST PUSH1 0x0 PUSH1 0x20 DUP3 ADD SWAP1 POP PUSH2 0x38CB PUSH1 0x0 DUP4 ADD DUP5 PUSH2 0x32AA JUMP JUMPDEST SWAP3 SWAP2 POP POP JUMP JUMPDEST PUSH1 0x0 PUSH2 0x38DB PUSH2 0x38EC JUMP JUMPDEST SWAP1 POP PUSH2 0x38E7 DUP3 DUP3 PUSH2 0x3BC2 JUMP JUMPDEST SWAP2 SWAP1 POP JUMP JUMPDEST PUSH1 0x0 PUSH1 0x40 MLOAD SWAP1 POP SWAP1 JUMP JUMPDEST PUSH1 0x0 PUSH8 0xFFFFFFFFFFFFFFFF DUP3 GT ISZERO PUSH2 0x3911 JUMPI PUSH2 0x3910 PUSH2 0x3D57 JUMP JUMPDEST JUMPDEST PUSH2 0x391A DUP3 PUSH2 0x3D9A JUMP JUMPDEST SWAP1 POP PUSH1 0x20 DUP2 ADD SWAP1 POP SWAP2 SWAP1 POP JUMP JUMPDEST PUSH1 0x0 DUP2 SWAP1 POP DUP2 PUSH1 0x0 MSTORE PUSH1 0x20 PUSH1 0x0 KECCAK256 SWAP1 POP SWAP2 SWAP1 POP JUMP JUMPDEST PUSH1 0x0 DUP2 MLOAD SWAP1 POP SWAP2 SWAP1 POP JUMP JUMPDEST PUSH1 0x0 DUP2 MLOAD SWAP1 POP SWAP2 SWAP1 POP JUMP JUMPDEST PUSH1 0x0 DUP3 DUP3 MSTORE PUSH1 0x20 DUP3 ADD SWAP1 POP SWAP3 SWAP2 POP POP JUMP JUMPDEST PUSH1 0x0 DUP2 SWAP1 POP SWAP3 SWAP2 POP POP JUMP JUMPDEST PUSH1 0x0 DUP3 DUP3 MSTORE PUSH1 0x20 DUP3 ADD SWAP1 POP SWAP3 SWAP2 POP POP JUMP JUMPDEST PUSH1 0x0 DUP2 SWAP1 POP SWAP3 SWAP2 POP POP JUMP JUMPDEST PUSH1 0x0 PUSH2 0x3995 DUP3 PUSH2 0x3B37 JUMP JUMPDEST SWAP2 POP PUSH2 0x39A0 DUP4 PUSH2 0x3B37 JUMP JUMPDEST SWAP3 POP DUP3 PUSH32 0xFFFFFFFFFFFFFFFFFFFFFFFFFFFFFFFFFFFFFFFFFFFFFFFFFFFFFFFFFFFFFFFF SUB DUP3 GT ISZERO PUSH2 0x39D5 JUMPI PUSH2 0x39D4 PUSH2 0x3C9B JUMP JUMPDEST JUMPDEST DUP3 DUP3 ADD SWAP1 POP SWAP3 SWAP2 POP POP JUMP JUMPDEST PUSH1 0x0 PUSH2 0x39EB DUP3 PUSH2 0x3B37 JUMP JUMPDEST SWAP2 POP PUSH2 0x39F6 DUP4 PUSH2 0x3B37 JUMP JUMPDEST SWAP3 POP DUP3 PUSH2 0x3A06 JUMPI PUSH2 0x3A05 PUSH2 0x3CCA JUMP JUMPDEST JUMPDEST DUP3 DUP3 DIV SWAP1 POP SWAP3 SWAP2 POP POP JUMP JUMPDEST PUSH1 0x0 PUSH2 0x3A1C DUP3 PUSH2 0x3B37 JUMP JUMPDEST SWAP2 POP PUSH2 0x3A27 DUP4 PUSH2 0x3B37 JUMP JUMPDEST SWAP3 POP DUP2 PUSH32 0xFFFFFFFFFFFFFFFFFFFFFFFFFFFFFFFFFFFFFFFFFFFFFFFFFFFFFFFFFFFFFFFF DIV DUP4 GT DUP3 ISZERO ISZERO AND ISZERO PUSH2 0x3A60 JUMPI PUSH2 0x3A5F PUSH2 0x3C9B JUMP JUMPDEST JUMPDEST DUP3 DUP3 MUL SWAP1 POP SWAP3 SWAP2 POP POP JUMP JUMPDEST PUSH1 0x0 PUSH2 0x3A76 DUP3 PUSH2 0x3B37 JUMP JUMPDEST SWAP2 POP PUSH2 0x3A81 DUP4 PUSH2 0x3B37 JUMP JUMPDEST SWAP3 POP DUP3 DUP3 LT ISZERO PUSH2 0x3A94 JUMPI PUSH2 0x3A93 PUSH2 0x3C9B JUMP JUMPDEST JUMPDEST DUP3 DUP3 SUB SWAP1 POP SWAP3 SWAP2 POP POP JUMP JUMPDEST PUSH1 0x0 PUSH2 0x3AAA DUP3 PUSH2 0x3B17 JUMP JUMPDEST SWAP1 POP SWAP2 SWAP1 POP JUMP JUMPDEST PUSH1 0x0 PUSH2 0x3ABC DUP3 PUSH2 0x3B17 JUMP JUMPDEST SWAP1 POP SWAP2 SWAP1 POP JUMP JUMPDEST PUSH1 0x0 DUP2 ISZERO ISZERO SWAP1 POP SWAP2 SWAP1 POP JUMP JUMPDEST PUSH1 0x0 DUP2 SWAP1 POP SWAP2 SWAP1 POP JUMP JUMPDEST PUSH1 0x0 PUSH32 0xFFFFFFFF00000000000000000000000000000000000000000000000000000000 DUP3 AND SWAP1 POP SWAP2 SWAP1 POP JUMP JUMPDEST PUSH1 0x0 PUSH2 0x3B10 DUP3 PUSH2 0x3A9F JUMP JUMPDEST SWAP1 POP SWAP2 SWAP1 POP JUMP JUMPDEST PUSH1 0x0 PUSH20 0xFFFFFFFFFFFFFFFFFFFFFFFFFFFFFFFFFFFFFFFF DUP3 AND SWAP1 POP SWAP2 SWAP1 POP JUMP JUMPDEST PUSH1 0x0 DUP2 SWAP1 POP SWAP2 SWAP1 POP JUMP JUMPDEST PUSH1 0x0 PUSH1 0xFF DUP3 AND SWAP1 POP SWAP2 SWAP1 POP JUMP JUMPDEST DUP3 DUP2 DUP4 CALLDATACOPY PUSH1 0x0 DUP4 DUP4 ADD MSTORE POP POP POP JUMP JUMPDEST PUSH1 0x0 JUMPDEST DUP4 DUP2 LT ISZERO PUSH2 0x3B7B JUMPI DUP1 DUP3 ADD MLOAD DUP2 DUP5 ADD MSTORE PUSH1 0x20 DUP2 ADD SWAP1 POP PUSH2 0x3B60 JUMP JUMPDEST DUP4 DUP2 GT ISZERO PUSH2 0x3B8A JUMPI PUSH1 0x0 DUP5 DUP5 ADD MSTORE JUMPDEST POP POP POP POP JUMP JUMPDEST PUSH1 0x0 PUSH1 0x2 DUP3 DIV SWAP1 POP PUSH1 0x1 DUP3 AND DUP1 PUSH2 0x3BA8 JUMPI PUSH1 0x7F DUP3 AND SWAP2 POP JUMPDEST PUSH1 0x20 DUP3 LT DUP2 EQ ISZERO PUSH2 0x3BBC JUMPI PUSH2 0x3BBB PUSH2 0x3CF9 JUMP JUMPDEST JUMPDEST POP SWAP2 SWAP1 POP JUMP JUMPDEST PUSH2 0x3BCB DUP3 PUSH2 0x3D9A JUMP JUMPDEST DUP2 ADD DUP2 DUP2 LT PUSH8 0xFFFFFFFFFFFFFFFF DUP3 GT OR ISZERO PUSH2 0x3BEA JUMPI PUSH2 0x3BE9 PUSH2 0x3D57 JUMP JUMPDEST JUMPDEST DUP1 PUSH1 0x40 MSTORE POP POP POP JUMP JUMPDEST PUSH1 0x0 PUSH2 0x3BFE DUP3 PUSH2 0x3B37 JUMP JUMPDEST SWAP2 POP PUSH32 0xFFFFFFFFFFFFFFFFFFFFFFFFFFFFFFFFFFFFFFFFFFFFFFFFFFFFFFFFFFFFFFFF DUP3 EQ ISZERO PUSH2 0x3C31 JUMPI PUSH2 0x3C30 PUSH2 0x3C9B JUMP JUMPDEST JUMPDEST PUSH1 0x1 DUP3 ADD SWAP1 POP SWAP2 SWAP1 POP JUMP JUMPDEST PUSH1 0x0 PUSH2 0x3C47 DUP3 PUSH2 0x3C58 JUMP JUMPDEST SWAP1 POP SWAP2 SWAP1 POP JUMP JUMPDEST PUSH1 0x0 DUP2 SWAP1 POP SWAP2 SWAP1 POP JUMP JUMPDEST PUSH1 0x0 PUSH2 0x3C63 DUP3 PUSH2 0x3DAB JUMP JUMPDEST SWAP1 POP SWAP2 SWAP1 POP JUMP JUMPDEST PUSH1 0x0 PUSH2 0x3C75 DUP3 PUSH2 0x3B37 JUMP JUMPDEST SWAP2 POP PUSH2 0x3C80 DUP4 PUSH2 0x3B37 JUMP JUMPDEST SWAP3 POP DUP3 PUSH2 0x3C90 JUMPI PUSH2 0x3C8F PUSH2 0x3CCA JUMP JUMPDEST JUMPDEST DUP3 DUP3 MOD SWAP1 POP SWAP3 SWAP2 POP POP JUMP JUMPDEST PUSH32 0x4E487B7100000000000000000000000000000000000000000000000000000000 PUSH1 0x0 MSTORE PUSH1 0x11 PUSH1 0x4 MSTORE PUSH1 0x24 PUSH1 0x0 REVERT JUMPDEST PUSH32 0x4E487B7100000000000000000000000000000000000000000000000000000000 PUSH1 0x0 MSTORE PUSH1 0x12 PUSH1 0x4 MSTORE PUSH1 0x24 PUSH1 0x0 REVERT JUMPDEST PUSH32 0x4E487B7100000000000000000000000000000000000000000000000000000000 PUSH1 0x0 MSTORE PUSH1 0x22 PUSH1 0x4 MSTORE PUSH1 0x24 PUSH1 0x0 REVERT JUMPDEST PUSH32 0x4E487B7100000000000000000000000000000000000000000000000000000000 PUSH1 0x0 MSTORE PUSH1 0x32 PUSH1 0x4 MSTORE PUSH1 0x24 PUSH1 0x0 REVERT JUMPDEST PUSH32 0x4E487B7100000000000000000000000000000000000000000000000000000000 PUSH1 0x0 MSTORE PUSH1 0x41 PUSH1 0x4 MSTORE PUSH1 0x24 PUSH1 0x0 REVERT JUMPDEST PUSH1 0x0 DUP1 REVERT JUMPDEST PUSH1 0x0 DUP1 REVERT JUMPDEST PUSH1 0x0 DUP1 REVERT JUMPDEST PUSH1 0x0 DUP1 REVERT JUMPDEST PUSH1 0x0 PUSH1 0x1F NOT PUSH1 0x1F DUP4 ADD AND SWAP1 POP SWAP2 SWAP1 POP JUMP JUMPDEST PUSH1 0x0 DUP2 PUSH1 0x60 SHL SWAP1 POP SWAP2 SWAP1 POP JUMP JUMPDEST PUSH32 0x4552433732313A207472616E7366657220746F206E6F6E204552433732315265 PUSH1 0x0 DUP3 ADD MSTORE PUSH32 0x63656976657220696D706C656D656E7465720000000000000000000000000000 PUSH1 0x20 DUP3 ADD MSTORE POP JUMP JUMPDEST PUSH32 0x4F776E61626C653A206E6577206F776E657220697320746865207A65726F2061 PUSH1 0x0 DUP3 ADD MSTORE PUSH32 0x6464726573730000000000000000000000000000000000000000000000000000 PUSH1 0x20 DUP3 ADD MSTORE POP JUMP JUMPDEST PUSH32 0x46756E6374696F6E2063616C6C206E6F74207375636365737366756C00000000 PUSH1 0x0 DUP3 ADD MSTORE POP JUMP JUMPDEST PUSH32 0x4552433732313A207472616E736665722066726F6D20696E636F727265637420 PUSH1 0x0 DUP3 ADD MSTORE PUSH32 0x6F776E6572000000000000000000000000000000000000000000000000000000 PUSH1 0x20 DUP3 ADD MSTORE POP JUMP JUMPDEST PUSH32 0x4552433732313A20746F6B656E20616C7265616479206D696E74656400000000 PUSH1 0x0 DUP3 ADD MSTORE POP JUMP JUMPDEST PUSH32 0x1901000000000000000000000000000000000000000000000000000000000000 PUSH1 0x0 DUP3 ADD MSTORE POP JUMP JUMPDEST PUSH32 0x3C2F7374796C653E000000000000000000000000000000000000000000000000 PUSH1 0x0 DUP3 ADD MSTORE POP JUMP JUMPDEST PUSH32 0x4552433732313A207472616E7366657220746F20746865207A65726F20616464 PUSH1 0x0 DUP3 ADD MSTORE PUSH32 0x7265737300000000000000000000000000000000000000000000000000000000 PUSH1 0x20 DUP3 ADD MSTORE POP JUMP JUMPDEST PUSH32 0x4552433732313A20617070726F766520746F2063616C6C657200000000000000 PUSH1 0x0 DUP3 ADD MSTORE POP JUMP JUMPDEST PUSH32 0x4552433732313A206F70657261746F7220717565727920666F72206E6F6E6578 PUSH1 0x0 DUP3 ADD MSTORE PUSH32 0x697374656E7420746F6B656E0000000000000000000000000000000000000000 PUSH1 0x20 DUP3 ADD MSTORE POP JUMP JUMPDEST PUSH32 0x3C7465787420783D223230302220793D2234302220636C6173733D227469746C PUSH1 0x0 DUP3 ADD MSTORE PUSH32 0x65223E5469746C653A2000000000000000000000000000000000000000000000 PUSH1 0x20 DUP3 ADD MSTORE POP JUMP JUMPDEST PUSH32 0x4E61746976654D6574615472616E73616374696F6E3A20494E56414C49445F53 PUSH1 0x0 DUP3 ADD MSTORE PUSH32 0x49474E4552000000000000000000000000000000000000000000000000000000 PUSH1 0x20 DUP3 ADD MSTORE POP JUMP JUMPDEST PUSH32 0x4552433732313A20617070726F76652063616C6C6572206973206E6F74206F77 PUSH1 0x0 DUP3 ADD MSTORE PUSH32 0x6E6572206E6F7220617070726F76656420666F7220616C6C0000000000000000 PUSH1 0x20 DUP3 ADD MSTORE POP JUMP JUMPDEST PUSH32 0x22202F3E00000000000000000000000000000000000000000000000000000000 PUSH1 0x0 DUP3 ADD MSTORE POP JUMP JUMPDEST PUSH32 0x4552433732313A2062616C616E636520717565727920666F7220746865207A65 PUSH1 0x0 DUP3 ADD MSTORE PUSH32 0x726F206164647265737300000000000000000000000000000000000000000000 PUSH1 0x20 DUP3 ADD MSTORE POP JUMP JUMPDEST PUSH32 0x4552433732313A206F776E657220717565727920666F72206E6F6E6578697374 PUSH1 0x0 DUP3 ADD MSTORE PUSH32 0x656E7420746F6B656E0000000000000000000000000000000000000000000000 PUSH1 0x20 DUP3 ADD MSTORE POP JUMP JUMPDEST PUSH32 0x3C726563742077696474683D223130302522206865696768743D223130302522 PUSH1 0x0 DUP3 ADD MSTORE PUSH32 0x2066696C6C3D2200000000000000000000000000000000000000000000000000 PUSH1 0x20 DUP3 ADD MSTORE POP JUMP JUMPDEST PUSH32 0x227D000000000000000000000000000000000000000000000000000000000000 PUSH1 0x0 DUP3 ADD MSTORE POP JUMP JUMPDEST PUSH32 0x3C2F746578743E00000000000000000000000000000000000000000000000000 PUSH1 0x0 DUP3 ADD MSTORE POP JUMP JUMPDEST PUSH32 0x4552433732313A206D696E7420746F20746865207A65726F2061646472657373 PUSH1 0x0 DUP3 ADD MSTORE POP JUMP JUMPDEST PUSH32 0x4552433732313A20617070726F76656420717565727920666F72206E6F6E6578 PUSH1 0x0 DUP3 ADD MSTORE PUSH32 0x697374656E7420746F6B656E0000000000000000000000000000000000000000 PUSH1 0x20 DUP3 ADD MSTORE POP JUMP JUMPDEST PUSH32 0x4F776E61626C653A2063616C6C6572206973206E6F7420746865206F776E6572 PUSH1 0x0 DUP3 ADD MSTORE POP JUMP JUMPDEST PUSH32 0x5369676E657220616E64207369676E617475726520646F206E6F74206D617463 PUSH1 0x0 DUP3 ADD MSTORE PUSH32 0x6800000000000000000000000000000000000000000000000000000000000000 PUSH1 0x20 DUP3 ADD MSTORE POP JUMP JUMPDEST PUSH32 0x222C2022696D616765223A2022646174613A696D6167652F7376672B786D6C3B PUSH1 0x0 DUP3 ADD MSTORE PUSH32 0x6261736536342C00000000000000000000000000000000000000000000000000 PUSH1 0x20 DUP3 ADD MSTORE POP JUMP JUMPDEST PUSH32 0x7B226E616D65223A202200000000000000000000000000000000000000000000 PUSH1 0x0 DUP3 ADD MSTORE POP JUMP JUMPDEST PUSH32 0x4552433732313A20617070726F76616C20746F2063757272656E74206F776E65 PUSH1 0x0 DUP3 ADD MSTORE PUSH32 0x7200000000000000000000000000000000000000000000000000000000000000 PUSH1 0x20 DUP3 ADD MSTORE POP JUMP JUMPDEST PUSH32 0x646174613A6170706C69636174696F6E2F6A736F6E3B6261736536342C000000 PUSH1 0x0 DUP3 ADD MSTORE POP JUMP JUMPDEST PUSH32 0x4552433732313A207472616E736665722063616C6C6572206973206E6F74206F PUSH1 0x0 DUP3 ADD MSTORE PUSH32 0x776E6572206E6F7220617070726F766564000000000000000000000000000000 PUSH1 0x20 DUP3 ADD MSTORE POP JUMP JUMPDEST PUSH32 0x2E7469746C65207B20746578742D616E63686F723A206D6964646C653B20666F PUSH1 0x0 DUP3 ADD MSTORE PUSH32 0x6E742D73697A653A20312E35656D3B207D000000000000000000000000000000 PUSH1 0x20 DUP3 ADD MSTORE POP JUMP JUMPDEST PUSH32 0x74657874207B20666F6E742D66616D696C793A204D6F6E6F73706163652C2048 PUSH1 0x0 DUP3 ADD MSTORE PUSH32 0x656C7665746963612C2073616E732D73657269663B20666F6E742D7765696768 PUSH1 0x20 DUP3 ADD MSTORE PUSH32 0x743A20626F6C643B2066696C6C3A20233434343434343B20666F6E742D73697A PUSH1 0x40 DUP3 ADD MSTORE PUSH32 0x653A2031656D3B207D0000000000000000000000000000000000000000000000 PUSH1 0x60 DUP3 ADD MSTORE POP JUMP JUMPDEST PUSH32 0x3C7465787420783D2232302220793D223830223E4E46542049443A2000000000 PUSH1 0x0 DUP3 ADD MSTORE POP JUMP JUMPDEST PUSH32 0x3C2F7376673E0000000000000000000000000000000000000000000000000000 PUSH1 0x0 DUP3 ADD MSTORE POP JUMP JUMPDEST PUSH32 0x7B226E616D65223A20224D61736B20426C6120426C61222C2264657363726970 PUSH1 0x0 DUP3 ADD MSTORE PUSH32 0x74696F6E223A20224E6F7468696E67206861206265656E20726576656C656164 PUSH1 0x20 DUP3 ADD MSTORE PUSH32 0x207965742E2E2E222C22696D616765223A202268747470733A2F2F6170702E73 PUSH1 0x40 DUP3 ADD MSTORE PUSH32 0x74617267617A652E7A6F6E652F5F6E6578742F696D6167653F75726C3D687474 PUSH1 0x60 DUP3 ADD MSTORE PUSH32 0x70732533412532462532467265732E636C6F7564696E6172792E636F6D253246 PUSH1 0x80 DUP3 ADD MSTORE PUSH32 0x7374617267617A65253246696D61676525324675706C6F6164253246775F3730 PUSH1 0xA0 DUP3 ADD MSTORE PUSH32 0x30253246766E34626E727532626A776F386F32737539666B26773D3338343026 PUSH1 0xC0 DUP3 ADD MSTORE PUSH32 0x713D3735227D0000000000000000000000000000000000000000000000000000 PUSH1 0xE0 DUP3 ADD MSTORE POP JUMP JUMPDEST PUSH32 0x3C7374796C653E00000000000000000000000000000000000000000000000000 PUSH1 0x0 DUP3 ADD MSTORE POP JUMP JUMPDEST PUSH2 0x4735 DUP2 PUSH2 0x3A9F JUMP JUMPDEST DUP2 EQ PUSH2 0x4740 JUMPI PUSH1 0x0 DUP1 REVERT JUMPDEST POP JUMP JUMPDEST PUSH2 0x474C DUP2 PUSH2 0x3AC3 JUMP JUMPDEST DUP2 EQ PUSH2 0x4757 JUMPI PUSH1 0x0 DUP1 REVERT JUMPDEST POP JUMP JUMPDEST PUSH2 0x4763 DUP2 PUSH2 0x3ACF JUMP JUMPDEST DUP2 EQ PUSH2 0x476E JUMPI PUSH1 0x0 DUP1 REVERT JUMPDEST POP JUMP JUMPDEST PUSH2 0x477A DUP2 PUSH2 0x3AD9 JUMP JUMPDEST DUP2 EQ PUSH2 0x4785 JUMPI PUSH1 0x0 DUP1 REVERT JUMPDEST POP JUMP JUMPDEST PUSH2 0x4791 DUP2 PUSH2 0x3B05 JUMP JUMPDEST DUP2 EQ PUSH2 0x479C JUMPI PUSH1 0x0 DUP1 REVERT JUMPDEST POP JUMP JUMPDEST PUSH2 0x47A8 DUP2 PUSH2 0x3B37 JUMP JUMPDEST DUP2 EQ PUSH2 0x47B3 JUMPI PUSH1 0x0 DUP1 REVERT JUMPDEST POP JUMP JUMPDEST PUSH2 0x47BF DUP2 PUSH2 0x3B41 JUMP JUMPDEST DUP2 EQ PUSH2 0x47CA JUMPI PUSH1 0x0 DUP1 REVERT JUMPDEST POP JUMP INVALID 0x4D PUSH6 0x74615472616E PUSH20 0x616374696F6E2875696E74323536206E6F6E6365 0x2C PUSH2 0x6464 PUSH19 0x6573732066726F6D2C62797465732066756E63 PUSH21 0x696F6E5369676E6174757265293C73766720686569 PUSH8 0x68743D2232303022 KECCAK256 PUSH23 0x657273696F6E3D22312E31222077696474683D22343030 0x22 KECCAK256 PUSH25 0x6D6C6E733D22687474703A2F2F7777772E77332E6F72672F32 ADDRESS ADDRESS ADDRESS 0x2F PUSH20 0x7667223E4142434445464748494A4B4C4D4E4F50 MLOAD MSTORE MSTORE8 SLOAD SSTORE JUMP JUMPI PC MSIZE GAS PUSH2 0x6263 PUSH5 0x6566676869 PUSH11 0x6B6C6D6E6F707172737475 PUSH23 0x7778797A303132333435363738392B2FA2646970667358 0x22 SLT KECCAK256 DUP1 RETURNDATASIZE 0x4B CREATE2 GASPRICE PUSH32 0x591DC07CC80039B697AF7238FCB146274E6637630A17B3386C2C64736F6C6343 STOP ADDMOD SMOD STOP CALLER GASLIMIT 0x49 POP CALLDATACOPY BALANCE ORIGIN DIFFICULTY PUSH16 0x6D61696E28737472696E67206E616D65 0x2C PUSH20 0x7472696E672076657273696F6E2C616464726573 PUSH20 0x20766572696679696E67436F6E74726163742C62 PUSH26 0x74657333322073616C7429000000000000000000000000000000 "
		},
		"gasEstimates": {
			"creation": {
				"codeDepositCost": "3729000",
				"executionCost": "infinite",
				"totalCost": "infinite"
			},
			"external": {
				"ERC712_VERSION()": "infinite",
				"approve(address,uint256)": "infinite",
				"balanceOf(address)": "2946",
				"burn(uint256)": "infinite",
				"counter()": "2519",
				"executeMetaTransaction(address,bytes,bytes32,bytes32,uint8)": "infinite",
				"getApproved(uint256)": "5228",
				"getChainId()": "438",
				"getDomainSeperator()": "2527",
				"getNonce(address)": "2908",
				"isApprovedForAll(address,address)": "infinite",
				"mint()": "infinite",
				"mintTo(address)": "infinite",
				"name()": "infinite",
				"owner()": "2567",
				"ownerOf(uint256)": "3022",
				"renounceOwnership()": "infinite",
				"safeTransferFrom(address,address,uint256)": "infinite",
				"safeTransferFrom(address,address,uint256,bytes)": "infinite",
				"setApprovalForAll(address,bool)": "infinite",
				"supportsInterface(bytes4)": "797",
				"symbol()": "infinite",
				"toggle()": "26661",
				"tokenURI(uint256)": "infinite",
				"totalSupply()": "infinite",
				"transferFrom(address,address,uint256)": "infinite",
				"transferOwnership(address)": "infinite"
			}
		},
		"methodIdentifiers": {
			"ERC712_VERSION()": "0f7e5970",
			"approve(address,uint256)": "095ea7b3",
			"balanceOf(address)": "70a08231",
			"burn(uint256)": "42966c68",
			"counter()": "61bc221a",
			"executeMetaTransaction(address,bytes,bytes32,bytes32,uint8)": "0c53c51c",
			"getApproved(uint256)": "081812fc",
			"getChainId()": "3408e470",
			"getDomainSeperator()": "20379ee5",
			"getNonce(address)": "2d0335ab",
			"isApprovedForAll(address,address)": "e985e9c5",
			"mint()": "1249c58b",
			"mintTo(address)": "755edd17",
			"name()": "06fdde03",
			"owner()": "8da5cb5b",
			"ownerOf(uint256)": "6352211e",
			"renounceOwnership()": "715018a6",
			"safeTransferFrom(address,address,uint256)": "42842e0e",
			"safeTransferFrom(address,address,uint256,bytes)": "b88d4fde",
			"setApprovalForAll(address,bool)": "a22cb465",
			"supportsInterface(bytes4)": "01ffc9a7",
			"symbol()": "95d89b41",
			"toggle()": "40a3d246",
			"tokenURI(uint256)": "c87b56dd",
			"totalSupply()": "18160ddd",
			"transferFrom(address,address,uint256)": "23b872dd",
			"transferOwnership(address)": "f2fde38b"
		}
	},
	"abi": [
		{
			"inputs": [],
			"stateMutability": "nonpayable",
			"type": "constructor"
		},
		{
			"anonymous": false,
			"inputs": [
				{
					"indexed": true,
					"internalType": "address",
					"name": "owner",
					"type": "address"
				},
				{
					"indexed": true,
					"internalType": "address",
					"name": "approved",
					"type": "address"
				},
				{
					"indexed": true,
					"internalType": "uint256",
					"name": "tokenId",
					"type": "uint256"
				}
			],
			"name": "Approval",
			"type": "event"
		},
		{
			"anonymous": false,
			"inputs": [
				{
					"indexed": true,
					"internalType": "address",
					"name": "owner",
					"type": "address"
				},
				{
					"indexed": true,
					"internalType": "address",
					"name": "operator",
					"type": "address"
				},
				{
					"indexed": false,
					"internalType": "bool",
					"name": "approved",
					"type": "bool"
				}
			],
			"name": "ApprovalForAll",
			"type": "event"
		},
		{
			"anonymous": false,
			"inputs": [
				{
					"indexed": false,
					"internalType": "address",
					"name": "userAddress",
					"type": "address"
				},
				{
					"indexed": false,
					"internalType": "address payable",
					"name": "relayerAddress",
					"type": "address"
				},
				{
					"indexed": false,
					"internalType": "bytes",
					"name": "functionSignature",
					"type": "bytes"
				}
			],
			"name": "MetaTransactionExecuted",
			"type": "event"
		},
		{
			"anonymous": false,
			"inputs": [
				{
					"indexed": true,
					"internalType": "address",
					"name": "previousOwner",
					"type": "address"
				},
				{
					"indexed": true,
					"internalType": "address",
					"name": "newOwner",
					"type": "address"
				}
			],
			"name": "OwnershipTransferred",
			"type": "event"
		},
		{
			"anonymous": false,
			"inputs": [
				{
					"indexed": true,
					"internalType": "address",
					"name": "from",
					"type": "address"
				},
				{
					"indexed": true,
					"internalType": "address",
					"name": "to",
					"type": "address"
				},
				{
					"indexed": true,
					"internalType": "uint256",
					"name": "tokenId",
					"type": "uint256"
				}
			],
			"name": "Transfer",
			"type": "event"
		},
		{
			"inputs": [],
			"name": "ERC712_VERSION",
			"outputs": [
				{
					"internalType": "string",
					"name": "",
					"type": "string"
				}
			],
			"stateMutability": "view",
			"type": "function"
		},
		{
			"inputs": [
				{
					"internalType": "address",
					"name": "to",
					"type": "address"
				},
				{
					"internalType": "uint256",
					"name": "tokenId",
					"type": "uint256"
				}
			],
			"name": "approve",
			"outputs": [],
			"stateMutability": "nonpayable",
			"type": "function"
		},
		{
			"inputs": [
				{
					"internalType": "address",
					"name": "owner",
					"type": "address"
				}
			],
			"name": "balanceOf",
			"outputs": [
				{
					"internalType": "uint256",
					"name": "",
					"type": "uint256"
				}
			],
			"stateMutability": "view",
			"type": "function"
		},
		{
			"inputs": [
				{
					"internalType": "uint256",
					"name": "tokenId",
					"type": "uint256"
				}
			],
			"name": "burn",
			"outputs": [],
			"stateMutability": "nonpayable",
			"type": "function"
		},
		{
			"inputs": [],
			"name": "counter",
			"outputs": [
				{
					"internalType": "uint256",
					"name": "",
					"type": "uint256"
				}
			],
			"stateMutability": "view",
			"type": "function"
		},
		{
			"inputs": [
				{
					"internalType": "address",
					"name": "userAddress",
					"type": "address"
				},
				{
					"internalType": "bytes",
					"name": "functionSignature",
					"type": "bytes"
				},
				{
					"internalType": "bytes32",
					"name": "sigR",
					"type": "bytes32"
				},
				{
					"internalType": "bytes32",
					"name": "sigS",
					"type": "bytes32"
				},
				{
					"internalType": "uint8",
					"name": "sigV",
					"type": "uint8"
				}
			],
			"name": "executeMetaTransaction",
			"outputs": [
				{
					"internalType": "bytes",
					"name": "",
					"type": "bytes"
				}
			],
			"stateMutability": "payable",
			"type": "function"
		},
		{
			"inputs": [
				{
					"internalType": "uint256",
					"name": "tokenId",
					"type": "uint256"
				}
			],
			"name": "getApproved",
			"outputs": [
				{
					"internalType": "address",
					"name": "",
					"type": "address"
				}
			],
			"stateMutability": "view",
			"type": "function"
		},
		{
			"inputs": [],
			"name": "getChainId",
			"outputs": [
				{
					"internalType": "uint256",
					"name": "",
					"type": "uint256"
				}
			],
			"stateMutability": "view",
			"type": "function"
		},
		{
			"inputs": [],
			"name": "getDomainSeperator",
			"outputs": [
				{
					"internalType": "bytes32",
					"name": "",
					"type": "bytes32"
				}
			],
			"stateMutability": "view",
			"type": "function"
		},
		{
			"inputs": [
				{
					"internalType": "address",
					"name": "user",
					"type": "address"
				}
			],
			"name": "getNonce",
			"outputs": [
				{
					"internalType": "uint256",
					"name": "nonce",
					"type": "uint256"
				}
			],
			"stateMutability": "view",
			"type": "function"
		},
		{
			"inputs": [
				{
					"internalType": "address",
					"name": "owner",
					"type": "address"
				},
				{
					"internalType": "address",
					"name": "operator",
					"type": "address"
				}
			],
			"name": "isApprovedForAll",
			"outputs": [
				{
					"internalType": "bool",
					"name": "",
					"type": "bool"
				}
			],
			"stateMutability": "view",
			"type": "function"
		},
		{
			"inputs": [],
			"name": "mint",
			"outputs": [],
			"stateMutability": "nonpayable",
			"type": "function"
		},
		{
			"inputs": [
				{
					"internalType": "address",
					"name": "_to",
					"type": "address"
				}
			],
			"name": "mintTo",
			"outputs": [],
			"stateMutability": "nonpayable",
			"type": "function"
		},
		{
			"inputs": [],
			"name": "name",
			"outputs": [
				{
					"internalType": "string",
					"name": "",
					"type": "string"
				}
			],
			"stateMutability": "view",
			"type": "function"
		},
		{
			"inputs": [],
			"name": "owner",
			"outputs": [
				{
					"internalType": "address",
					"name": "",
					"type": "address"
				}
			],
			"stateMutability": "view",
			"type": "function"
		},
		{
			"inputs": [
				{
					"internalType": "uint256",
					"name": "tokenId",
					"type": "uint256"
				}
			],
			"name": "ownerOf",
			"outputs": [
				{
					"internalType": "address",
					"name": "",
					"type": "address"
				}
			],
			"stateMutability": "view",
			"type": "function"
		},
		{
			"inputs": [],
			"name": "renounceOwnership",
			"outputs": [],
			"stateMutability": "nonpayable",
			"type": "function"
		},
		{
			"inputs": [
				{
					"internalType": "address",
					"name": "from",
					"type": "address"
				},
				{
					"internalType": "address",
					"name": "to",
					"type": "address"
				},
				{
					"internalType": "uint256",
					"name": "tokenId",
					"type": "uint256"
				}
			],
			"name": "safeTransferFrom",
			"outputs": [],
			"stateMutability": "nonpayable",
			"type": "function"
		},
		{
			"inputs": [
				{
					"internalType": "address",
					"name": "from",
					"type": "address"
				},
				{
					"internalType": "address",
					"name": "to",
					"type": "address"
				},
				{
					"internalType": "uint256",
					"name": "tokenId",
					"type": "uint256"
				},
				{
					"internalType": "bytes",
					"name": "_data",
					"type": "bytes"
				}
			],
			"name": "safeTransferFrom",
			"outputs": [],
			"stateMutability": "nonpayable",
			"type": "function"
		},
		{
			"inputs": [
				{
					"internalType": "address",
					"name": "operator",
					"type": "address"
				},
				{
					"internalType": "bool",
					"name": "approved",
					"type": "bool"
				}
			],
			"name": "setApprovalForAll",
			"outputs": [],
			"stateMutability": "nonpayable",
			"type": "function"
		},
		{
			"inputs": [
				{
					"internalType": "bytes4",
					"name": "interfaceId",
					"type": "bytes4"
				}
			],
			"name": "supportsInterface",
			"outputs": [
				{
					"internalType": "bool",
					"name": "",
					"type": "bool"
				}
			],
			"stateMutability": "view",
			"type": "function"
		},
		{
			"inputs": [],
			"name": "symbol",
			"outputs": [
				{
					"internalType": "string",
					"name": "",
					"type": "string"
				}
			],
			"stateMutability": "view",
			"type": "function"
		},
		{
			"inputs": [],
			"name": "toggle",
			"outputs": [],
			"stateMutability": "nonpayable",
			"type": "function"
		},
		{
			"inputs": [
				{
					"internalType": "uint256",
					"name": "tokenId",
					"type": "uint256"
				}
			],
			"name": "tokenURI",
			"outputs": [
				{
					"internalType": "string",
					"name": "output",
					"type": "string"
				}
			],
			"stateMutability": "view",
			"type": "function"
		},
		{
			"inputs": [],
			"name": "totalSupply",
			"outputs": [
				{
					"internalType": "uint256",
					"name": "",
					"type": "uint256"
				}
			],
			"stateMutability": "view",
			"type": "function"
		},
		{
			"inputs": [
				{
					"internalType": "address",
					"name": "from",
					"type": "address"
				},
				{
					"internalType": "address",
					"name": "to",
					"type": "address"
				},
				{
					"internalType": "uint256",
					"name": "tokenId",
					"type": "uint256"
				}
			],
			"name": "transferFrom",
			"outputs": [],
			"stateMutability": "nonpayable",
			"type": "function"
		},
		{
			"inputs": [
				{
					"internalType": "address",
					"name": "newOwner",
					"type": "address"
				}
			],
			"name": "transferOwnership",
			"outputs": [],
			"stateMutability": "nonpayable",
			"type": "function"
		}
	]
}