{
	"data": {
		"bytecode": {
			"linkReferences": {},
			"object": "60806040526006805460ff1916815560b4600c556200002190600a9062000ebc565b600d5560408051808201909152600c8082526b4f6e2d436861696e2053564760a01b60209092019182526200005991601091620010e6565b503480156200006757600080fd5b506040518060400160405280600481526020016315195cdd60e21b81525060405180604001604052806002815260200161151560f21b8152503382828160009080519060200190620000bb929190620010e6565b508051620000d1906001906020840190620010e6565b505050620000ee620000e862000f0d60201b60201c565b62000f29565b600b80546001600160a01b0319166001600160a01b03831617905562000121600a62000f7b602090811b62001f2217901c565b6200012c8362000f84565b5050600e60205250620f42407fe710864318d4a32f37d6ce54cb3fadbef648dd12d8dbdf53973564d56b7f881c55620f41a87fa7c5ba7114a813b50159add3a36832908dc83db71d0b9a24c2ad0f83be95820755620f3fdf7f9adb202b1492743bc00c81d33cdc6423fa8c79109027eb6a845391e8fc1f048155620f3ce67fe0283e559c29e31ee7f56467acc9dd307779c843a883aeeb3bf5c6128c90814455620f38bc7fa1d6913cd9e08c872be3e7525cca82e4fc0fc298a783f19022be725b19be685a55620f33637fb9bec7e2561f624fe753ff070f1599b306cbf59fafd4e8d5a8184a1ea1841bce55620f2cda7f92b4482321f41ce3aa65f798bda23d0d12a60fc5f212868a548ddb00aa49de7255620f25227f376529bb8a2d41b4a589a133407fc64f3212472dbd74744348be1098bf7ba08d55620f1c3c7feab6bc3746954d8a0719de62c86ea908d362be2a58c781ada1046727253f9df255620f12287f0d5ccdc17421fca5ca768ae29a27b8b2aa886c9e56e3482f9ba55d79d3a8066455620f06e87f0978afefdfd541f3bdffe34b0f19bc4ce1d7b3554d278a75e04686adf3223b3955620efa7b7f7528327bfca11f705552fba9c3966003c5a3e73459dc289e7c8420997d319bee55620eece47f47a2bf86628ea95bf13ae7e8527a13a64f52541d600ba060a013f0b8e72a5e2d55620ede227f9d0231707eb2041153c28e130d22114ee38b252cf17233585036af02278e418155620ece387fa6897c210c76a29b3d6bf757063b10a3faa77fe0657de0ee282493e99a18ed5055620ebd267f60dd7f0393e3d3987afafbb50883ff45658a7a0c2d4460aa7a872d45c2ea235255620eaaee7f33820a7b4c4724aafa212ecdbe06d3782aeae3dbe20fcf670d9acc29d388ea9055620e97917fc0fe3ac15929d25201e62b8c796afb6745bcdd80b8be9470092f43535ba0b48d55620e83117f3757bb026b72bf4f9cbbbf8f2bafe0ea3d356ae6d8f07ef005aafb99b4cbde4055620e6d6f7f23e995b0ea7a69c30e45fb21cd9d4e2adf7852a8949479c1017e50a0a5021d5155620e56ad7fad2085924f073c582f946bd77dc0abaa9c2630e9d25fd72a62a7ae1d39c6419555620e3ecc7f3acbbd99b1d795e2737bd4514a5a2e4c70b9b25dcfdfbb7fdeb840da20f59d9355620e25d07f63dac8ac72609a2437a2da33ae5c3341a805b2815f084aeb7a66b5dcf5c8eb5955620e0bb97f1e3dcd93811a15ec9f36f04603879a32c5170fc20534b809651c2612846b406955620df0897f44e03dbd624a27d622b68a614bb2fcdc0a3c0d48a3e0952eb6bb06da342d359355620dd4447f41855fb39c7a9bc7dd5224540bf31aa8c51aa701281698eb9b0450eb341e390c55620db6ea7f63a95b9616c622c07053963654670b5e448d2e5bc2586b50f21c88e28c6e272a55620d987f7f5c803e1db6902b36029c98ad9ad0b0e757a990b4aca3bbcc2e6be55d61e8523d55620d79047f0e3e8d4d0c0a4c6954d73282fe4432276404522c9fcca5859a98c1b05048126555620d587c7f661d7ca5ad5b75e592e91071d1b2ca8fdcaee5f32e9d2d97c1dc3892d2a0b6a055620d36e97f195ad0e161a4326cd85229a1fcca74cf96f3c99e31b4ec5457e0d9c344e0003155620d144f7f049497add93d4f18e64063a8f7817b0e4355b1c78d57825bcccbfc59b42a610555620cf0b07ff9b40ccbd72da968d49c559bdeb3f9302213a0d9b07d71a740292ff93de761b655620ccc0f7f867860e68c26dcf78da3e73b2d7cdac0e6f5e8894f50972c9e06418c7086789c55620ca66e7f076e03eaa7af9af5522fce0f6a91d10c6a1f021c1595ee08481e3f4b76adf27a55620c7fd07fa64d66100f9495abf0bf52bef446a9530dfe9440bbb706a7477689805873aaf155620c58397fb561edf3fa4f34f12e63ca96b0c4a9a41b035d8b66fcc5400e41fde18314c0a455620c2fac7fbe1c30e381e02bd4c9909abf61a02e988401285c9bcb2992bf720c8af27c9ffc55620c062b7f0156cd391437a66e89e3dd79e84438c6b85a5c2f292d759080c53ac86398ce2d55620bdbba7faa3fac4e1c1c54f4b9aa2872b8327c38574f06178847983c0d3070726ddcb17355620bb05c7f22d693247411e4e82e8cfd4298d7d01b584d717e72112345c49f1cb7852eb12c55620b84167f0c07f4fe9e7a67d59a6d916831877a58b85ff9aa619bc0726a102b66b7e76c9b55620b56e97f034d3bf46be22e80b324162c4355c21c6b4225120cd159f1e6a2be771b6c331955620b28da7f9475d144584cca22df272b1820bb768aa8333d19a7fbf74e822a269b7811942755620af9ec7f660f3766e6df0ae3ac912a3eea62c1e458aaa9a8d181a1727a7d0aa56155f9e955620aca237facd05e631b0d698f89d62443d4ee3d3515bec98eb8dba893e0cd5daf3bf32fd555620a99827fe26ed9d99babfec354f7cfa35997d140fd73e605c766a5636a0b075f5e200d1555620a680e7ff9dcd18c9119282f748aba2570598ab3b5957ef6d543e79d393a250894b4070055620a35cb7f16b639777c4b89c1fc9f57eed394d7c1848b10a8f8fb7109f89dd08a075844fa55620a02bb7f402ff062a9c543790f02e6d234e65ed9318fd647d1ec696d9591cf4797c0a135556209cee47f2ea41e58b11602759f1683af45a764aa8dcc37674c9a64070cf320a49ab591665562099a487ff251d33c6a315353f25d6f4dbc7bc7045266484a2f18bc4ab7510c33dfd177be55620964ed7f4d067697d7f0b5fb99ab8d337330874853bca13d130d6411192e8766150408565562092ed77f1e40c519e21237a57ea0dd277e5c20a6a693ce0e3970322ad11edee130ed57f2556208f8097f46f8923cbf100dd7e54a41f335bc4762111f1f1da96fae0d3b46cc0a5e84d972556208c0887feb2297ce9617ff3f26264a182c718661034e24edb137ccb6c28028e44a77100d55620888597f655dac19b0f73ae65a1a5bb438a0052d2c8aa7e1e11ec724659e7492a92f39e95562084f7f7fba62a4d6bcb1e95a84ecfa096ace5c0be352288a4161bf78c9730dc3cb064a8d55620815ff7f9a3531bcee64fa55d925caae79e6cda7a9b7c253a01c621e4591d4aa4c06e78e556207dbde7fa8a8fd055bccaa52503d6eebc5e1335cd791f8f54f336c872fa678e7db26a143556207a1207f60847b922233da4994d5a56502fceb98b1ddb870fd1515200054cdbf36dd181b55620765ca7fc16e0584eeff1847dc11229feedb9c57a4ce37345f68fecef550bce07edb54e255620729e07f2f4de26b460fc134c8554776795ff9280fe26cece61ce2464a91caca6afef1d2556206ed667f0df18825f42ec31b35e6fcb10704d13bb08e5f765964d67975be10daeaa29218556206b0637f2fd216d2a757183cfa8390f87efab00b552fe88ef6bb223c53ed41d006fbe36355620672da7f84c85efd40b589d956c4fdd38a3a85bcce836f865c52fc9518bd545577e5c9a955620634d17f9dd2afd2434864502d7edd19da0e44efb145746fc9ca1125aa2eaa042da4ca9b556205f64b7f6a90653d1dbd4890440d31f2db01fc0e1057821540d61cb34f0b2c2443172be8556205b74f7f4439675d373bcb2b0afcf469afdd27fef3e78479bd21d47914d3545b899b575555620577e07fd79b16b958325c8d3bcfa7b2e29fbaef6ad6c570c0bd46f0992ff18126c3280255620538047f69e1545e52f408ae909cd415940a7b813d61ec6c00d504158a6f7e91ce939eec556204f7c07f03e0b13c4bbe97cc346245e6439c55c5dbeb5409cc04867952daffedd6acd5a9556204b7197fb602799364e0aa853ed5a213917855292bb9786429d1aadde9dd9abb6241256d55620476147f6c197e8e150e1f788f836ca18457d4e3a8d89d9dfa74437ee20de159c15be30d55620434b57fb97a35aaf52a2a53d8fa350dbedaa2f09de31ed6299927f50168033958abe4d3556203f3037fba0079d03d5c13aed51752fa5274346aa72a0bf09d9c4039cf6f6c53aefb1ba9556203b1027f5f3e4f2419a08d46a52e0564190f647cab0e7a89921a5c47d58050a3304e9d535562036eb77fc769f38d30d35523ac1587198ac3a9bd5bec4e9e24ff8859d066cf9c84bbed495562032c287f0f62d84222602b8c70d8bafb1d2c83702f901094d265b3f04babe95577970dca556202e9597f0c7deb991fc853786b4c519cef4543ab22263d9796479532faf97a661e6419c4556202a6507f15631be2b91109eb9aaa833fe3a83e0059ebde91c7789eea5a1e302df33db96a55620263127f3d93d1f18e63ff82f719b54b2294465011fdc4419ba836e6e16c0bf9579069315562021fa57fb6ad7948d1cd2a455cdcd0786555994e698237ed85d8a2dbb19712e247edf401556201dc0d7fe028df9c2611a2f88d20c99f8009d5cfa0f719f1f49403f10ac9a5f362da94e155620198507f1109b359940bbf6b56ebf86a894ecea173ab35e81aae3bcbbab5f8d06ca088e755620154747fa047bf8e15af485b1a145265dc36217c4b5f712921c6c0168a321d989cc0296e556201107c7feae89a02f6697dce83787f9b6931b5e8b392523233310018ee59c684272f0a1b5561cc707fc588c2d5808b77745f83f843e11f18de66e8fe22b986684756699a1e1babe2b4556188537f5ea54d52ee8c9b980f7ee6f575aaaf3d4769efd8809d64a2e6f4c02f24b3e9225561442c7f2d8dfbda3fa278822f1d2c058755d7424dbcdcc97331cb0ee8c6ecf2bf0dc3ad55605a60009081527f280ae0cff1002d66bf67a1695081e14a3a1ea44cfefc7d0dde04fe9364207c6d556200121f565b600062000ecd565b60405180910390fd5b506001811562000f075760015b82811162000f055762000eee84836200118c565b91508062000efc81620011eb565b91505062000eda565b505b92915050565b600062000f2462000fe560201b62001f2b1760201c565b905090565b600980546001600160a01b038381166001600160a01b0319831681179093556040519116919082907f8be0079c531659141344cd1fd0a4f28419497f9722a3daafe3b4186f6b6457e090600090a35050565b80546001019055565b60065460ff161562000fca5760405162461bcd60e51b815260206004820152600e60248201526d185b1c9958591e481a5b9a5d195960921b604482015260640162000ec4565b62000fd58162001044565b506006805460ff19166001179055565b6000333014156200103e57600080368080601f0160208091040260200160405190810160405280939291908181526020018383808284376000920191909152505050503601516001600160a01b03169150620010419050565b50335b90565b6040518060800160405280604f815260200162004c56604f9139805160209182012082519282019290922060408051808201825260018152603160f81b90840152805180840194909452838101919091527fc89efdaa54c0f20c7adf612882df0950f5a951637e0307cdcb4c672f298b8bc660608401523060808401524660a0808501919091528151808503909101815260c090930190528151910120600755565b828054620010f490620011ae565b90600052602060002090601f01602090048101928262001118576000855562001163565b82601f106200113357805160ff191683800117855562001163565b8280016001018555821562001163579182015b828111156200116357825182559160200191906001019062001146565b506200117192915062001175565b5090565b5b8082111562001171576000815560010162001176565b6000816000190483118215151615620011a957620011a962001209565b500290565b600181811c90821680620011c357607f821691505b60208210811415620011e557634e487b7160e01b600052602260045260246000fd5b50919050565b600060001982141562001202576200120262001209565b5060010190565b634e487b7160e01b600052601160045260246000fd5b613a27806200122f6000396000f3fe6080604052600436106101cd5760003560e01c80634e4007f0116100f757806395d89b4111610095578063c87b56dd11610064578063c87b56dd14610548578063cb5cc10914610568578063e985e9c514610588578063f2fde38b146105a857600080fd5b806395d89b41146104bc578063a22cb465146104d1578063a58b00ba146104f1578063b88d4fde1461052857600080fd5b806370a08231116100d157806370a0823114610449578063715018a614610469578063755edd171461047e5780638da5cb5b1461049e57600080fd5b80634e4007f0146103f357806361bc221a146104135780636352211e1461042957600080fd5b806318160ddd1161016f5780633408e4701161013e5780633408e4701461037157806342842e0e1461038457806342966c68146103a45780634af4f341146103c457600080fd5b806318160ddd146102e357806320379ee51461030657806323b872dd1461031b5780632d0335ab1461033b57600080fd5b8063081812fc116101ab578063081812fc1461024b578063095ea7b3146102835780630c53c51c146102a35780630f7e5970146102b657600080fd5b806301ffc9a7146101d257806306bdc9491461020757806306fdde0314610229575b600080fd5b3480156101de57600080fd5b506101f26101ed366004612fb9565b6105c8565b60405190151581526020015b60405180910390f35b34801561021357600080fd5b50610227610222366004613010565b61061a565b005b34801561023557600080fd5b5061023e6106a2565b6040516101fe9190613695565b34801561025757600080fd5b5061026b61026636600461307d565b610734565b6040516001600160a01b0390911681526020016101fe565b34801561028f57600080fd5b5061022761029e366004612f8d565b6107ce565b61023e6102b1366004612f0f565b6108f6565b3480156102c257600080fd5b5061023e604051806040016040528060018152602001603160f81b81525081565b3480156102ef57600080fd5b506102f8610ae0565b6040519081526020016101fe565b34801561031257600080fd5b506007546102f8565b34801561032757600080fd5b50610227610336366004612e2f565b610afc565b34801561034757600080fd5b506102f8610356366004612dd9565b6001600160a01b031660009081526008602052604090205490565b34801561037d57600080fd5b50466102f8565b34801561039057600080fd5b5061022761039f366004612e2f565b610b34565b3480156103b057600080fd5b506102276103bf36600461307d565b610b4f565b3480156103d057600080fd5b506103e46103df36600461307d565b610b5b565b6040516101fe939291906136a8565b3480156103ff57600080fd5b5061023e61040e36600461307d565b610cac565b34801561041f57600080fd5b506102f8600f5481565b34801561043557600080fd5b5061026b61044436600461307d565b611988565b34801561045557600080fd5b506102f8610464366004612dd9565b6119ff565b34801561047557600080fd5b50610227611a86565b34801561048a57600080fd5b50610227610499366004612dd9565b611adb565b3480156104aa57600080fd5b506009546001600160a01b031661026b565b3480156104c857600080fd5b5061023e611b4d565b3480156104dd57600080fd5b506102276104ec366004612edc565b611b5c565b3480156104fd57600080fd5b5061051161050c36600461307d565b611b6e565b6040805192151583526020830191909152016101fe565b34801561053457600080fd5b50610227610543366004612e70565b611c50565b34801561055457600080fd5b5061023e61056336600461307d565b611c8f565b34801561057457600080fd5b5061051161058336600461307d565b611cf8565b34801561059457600080fd5b506101f26105a3366004612df6565b611d9b565b3480156105b457600080fd5b506102276105c3366004612dd9565b611e6b565b60006001600160e01b031982166380ac58cd60e01b14806105f957506001600160e01b03198216635b5e139f60e01b145b8061061457506301ffc9a760e01b6001600160e01b03198316145b92915050565b61062633600f54611f88565b6106338383600f54611fa2565b600f546000908152601160209081526040909120845161065592860190612cb3565b50600f805460009081526012602090815260408083208690559254825260148152919020825161068792840190612cb3565b50600f8054906000610698836138bc565b9190505550505050565b6060600080546106b190613881565b80601f01602080910402602001604051908101604052809291908181526020018280546106dd90613881565b801561072a5780601f106106ff5761010080835404028352916020019161072a565b820191906000526020600020905b81548152906001019060200180831161070d57829003601f168201915b5050505050905090565b6000818152600260205260408120546001600160a01b03166107b25760405162461bcd60e51b815260206004820152602c60248201527f4552433732313a20617070726f76656420717565727920666f72206e6f6e657860448201526b34b9ba32b73a103a37b5b2b760a11b60648201526084015b60405180910390fd5b506000908152600460205260409020546001600160a01b031690565b60006107d982611988565b9050806001600160a01b0316836001600160a01b031614156108475760405162461bcd60e51b815260206004820152602160248201527f4552433732313a20617070726f76616c20746f2063757272656e74206f776e656044820152603960f91b60648201526084016107a9565b806001600160a01b031661085961213d565b6001600160a01b031614806108755750610875816105a361213d565b6108e75760405162461bcd60e51b815260206004820152603860248201527f4552433732313a20617070726f76652063616c6c6572206973206e6f74206f7760448201527f6e6572206e6f7220617070726f76656420666f7220616c6c000000000000000060648201526084016107a9565b6108f18383612147565b505050565b60408051606081810183526001600160a01b0388166000818152600860209081529085902054845283015291810186905261093487828787876121b5565b61098a5760405162461bcd60e51b815260206004820152602160248201527f5369676e657220616e64207369676e617475726520646f206e6f74206d6174636044820152600d60fb1b60648201526084016107a9565b6001600160a01b0387166000908152600860205260409020546109ae9060016122a5565b6001600160a01b0388166000908152600860205260409081902091909155517f5845892132946850460bff5a0083f71031bc5bf9aadcd40f1de79423eac9b10b906109fe90899033908a90613623565b60405180910390a1600080306001600160a01b0316888a604051602001610a2692919061318d565b60408051601f1981840301815290829052610a4091613171565b6000604051808303816000865af19150503d8060008114610a7d576040519150601f19603f3d011682016040523d82523d6000602084013e610a82565b606091505b509150915081610ad45760405162461bcd60e51b815260206004820152601c60248201527f46756e6374696f6e2063616c6c206e6f74207375636365737366756c0000000060448201526064016107a9565b98975050505050505050565b60006001610aed600a5490565b610af7919061383e565b905090565b610b0d610b0761213d565b826122b8565b610b295760405162461bcd60e51b81526004016107a9906137a2565b6108f183838361238e565b6108f183838360405180602001604052806000815250611c50565b610b588161252a565b50565b60008181526011602052604081208054606092918391610b7a90613881565b80601f0160208091040260200160405190810160405280929190818152602001828054610ba690613881565b8015610bf35780601f10610bc857610100808354040283529160200191610bf3565b820191906000526020600020905b815481529060010190602001808311610bd657829003601f168201915b5050506000878152601260209081526040808320546014909252909120805494975090955092610c2592509050613881565b80601f0160208091040260200160405190810160405280929190818152602001828054610c5190613881565b8015610c9e5780601f10610c7357610100808354040283529160200191610c9e565b820191906000526020600020905b815481529060010190602001808311610c8157829003601f168201915b505050505090509193909250565b6060610d0860405180610140016040528060008152602001600081526020016000815260200160008152602001600081526020016000815260200160008152602001600081526020016000151581526020016000151581525090565b6040518061014001604052806127108152602001612710815260200161271081526020016127108152602001612710815260200161271081526020016000815260200160008152602001600115158152602001600115158152509050606060005b60008581526011602052604090208054610d8290613881565b90508110156118615760008581526013602052604090208054610dc0919083908110610db057610db0613917565b9060005260206000200154611cf8565b60c0850152151561010084015260008581526013602052604090208054610e02919083908110610df257610df2613917565b9060005260206000200154611b6e565b60e08501521515610120840181905260011415610e26576000610120840152610e2f565b60016101208401525b610100830151151560011415610e4c576000610100840152610e55565b60016101008401525b6005600d548460c001516064610e6b919061381f565b610e75919061380b565b600d5460c0860151610e89906103e861381f565b610e93919061380b565b610e9d919061383e565b610ea890600a61381f565b10610edf57600d5460c0840151610ec090606461381f565b610eca919061380b565b610ed59060016137f3565b60c0840152610f02565b600d5460c0840151610ef290606461381f565b610efc919061380b565b60c08401525b6005600d548460e001516064610f18919061381f565b610f22919061380b565b600d5460e0860151610f36906103e861381f565b610f40919061380b565b610f4a919061383e565b610f5590600a61381f565b10610f8c57600d5460e0840151610f6d90606461381f565b610f77919061380b565b610f829060016137f3565b60e0840152610faf565b600d5460e0840151610f9f90606461381f565b610fa9919061380b565b60e08401525b61010083015115156001148015610fcd575061012083015115156001145b156111cf57600085815260116020526040902080548290610fed90613881565b8110610ffb57610ffb613917565b81546001161561101a5790600052602060002090602091828204019190065b9054901a600160f81b02604051602001611034919061315c565b6040516020818303038152906040528051906020012060405160200161106190602360f91b815260010190565b6040516020818303038152906040528051906020012014156110f2578161108b8460c001516125c5565b6110988560e001516125c5565b6040516020016110aa939291906133e7565b60405160208183030381529060405291508260c00151836000018181516110d191906137f3565b90525060e08301516060840180516110ea9083906137f3565b9052506117ef565b60008581526011602052604090208054829061110d90613881565b811061111b5761111b613917565b81546001161561113a5790600052602060002090602091828204019190065b9054901a600160f81b02604051602001611154919061315c565b6040516020818303038152906040528051906020012060405160200161118190603360f91b815260010190565b6040516020818303038152906040528051906020012014156111ca57816111ab8460c001516125c5565b6111b88560e001516125c5565b6040516020016110aa939291906132be565b6117ef565b610100830151151560011480156111e95750610120830151155b156113de5760008581526011602052604090208054829061120990613881565b811061121757611217613917565b8154600116156112365790600052602060002090602091828204019190065b9054901a600160f81b02604051602001611250919061315c565b6040516020818303038152906040528051906020012060405160200161127d90602360f91b815260010190565b60405160208183030381529060405280519060200120141561130657816112a78460c001516125c5565b6112b48560e001516125c5565b6040516020016112c693929190613419565b60405160208183030381529060405291508260c00151836000018181516112ed91906137f3565b90525060e08301516060840180516110ea90839061383e565b60008581526011602052604090208054829061132190613881565b811061132f5761132f613917565b81546001161561134e5790600052602060002090602091828204019190065b9054901a600160f81b02604051602001611368919061315c565b6040516020818303038152906040528051906020012060405160200161139590603360f91b815260010190565b6040516020818303038152906040528051906020012014156111ca57816113bf8460c001516125c5565b6113cc8560e001516125c5565b6040516020016112c693929190613320565b6101008301511580156113f8575061012083015115156001145b156115d45760008581526011602052604090208054829061141890613881565b811061142657611426613917565b8154600116156114455790600052602060002090602091828204019190065b9054901a600160f81b0260405160200161145f919061315c565b6040516020818303038152906040528051906020012060405160200161148c90602360f91b815260010190565b6040516020818303038152906040528051906020012014156114fc57816114b68460c001516125c5565b6114c38560e001516125c5565b6040516020016114d59392919061344b565b60405160208183030381529060405291508260c00151836000018181516110d1919061383e565b60008581526011602052604090208054829061151790613881565b811061152557611525613917565b8154600116156115445790600052602060002090602091828204019190065b9054901a600160f81b0260405160200161155e919061315c565b6040516020818303038152906040528051906020012060405160200161158b90603360f91b815260010190565b6040516020818303038152906040528051906020012014156111ca57816115b58460c001516125c5565b6115c28560e001516125c5565b6040516020016114d5939291906134f8565b6000858152601160205260409020805482906115ef90613881565b81106115fd576115fd613917565b81546001161561161c5790600052602060002090602091828204019190065b9054901a600160f81b02604051602001611636919061315c565b6040516020818303038152906040528051906020012060405160200161166390602360f91b815260010190565b6040516020818303038152906040528051906020012014156116d3578161168d8460c001516125c5565b61169a8560e001516125c5565b6040516020016116ac939291906134a1565b60405160208183030381529060405291508260c00151836000018181516112ed919061383e565b6000858152601160205260409020805482906116ee90613881565b81106116fc576116fc613917565b81546001161561171b5790600052602060002090602091828204019190065b9054901a600160f81b02604051602001611735919061315c565b6040516020818303038152906040528051906020012060405160200161176290603360f91b815260010190565b6040516020818303038152906040528051906020012014156117ef578161178c8460c001516125c5565b6117998560e001516125c5565b6040516020016117ab9392919061352b565b60405160208183030381529060405291508260c00151836000018181516117d2919061383e565b90525060e08301516060840180516117eb90839061383e565b9052505b60208301518351111561180457825160208401525b82608001518360600151111561181f57606083015160808401525b60408301518351101561183457825160408401525b8260a001518360600151101561184f57606083015160a08401525b80611859816138bc565b915050610d69565b5060006040518060400160405280601281526020017101e39bb33903b34b2bba137bc1e91181018160751b8152509050806118b9846040015185602001516118a9919061383e565b6118b49060646137f3565b6125c5565b6118d08560a0015186608001516118a9919061383e565b60008881526014602090815260409182902091516118f2959493929101613208565b6040516020818303038152906040529050806119248460400151612710611919919061383e565b6118b49060326137f3565b6119398560a00151612710611919919061383e565b60405160200161194b93929190613383565b6040516020818303038152906040529050808260405160200161196f9291906131c4565b6040516020818303038152906040529350505050919050565b6000818152600260205260408120546001600160a01b0316806106145760405162461bcd60e51b815260206004820152602960248201527f4552433732313a206f776e657220717565727920666f72206e6f6e657869737460448201526832b73a103a37b5b2b760b91b60648201526084016107a9565b60006001600160a01b038216611a6a5760405162461bcd60e51b815260206004820152602a60248201527f4552433732313a2062616c616e636520717565727920666f7220746865207a65604482015269726f206164647265737360b01b60648201526084016107a9565b506001600160a01b031660009081526003602052604090205490565b611a8e61213d565b6001600160a01b0316611aa96009546001600160a01b031690565b6001600160a01b031614611acf5760405162461bcd60e51b81526004016107a99061376d565b611ad960006126c3565b565b611ae361213d565b6001600160a01b0316611afe6009546001600160a01b031690565b6001600160a01b031614611b245760405162461bcd60e51b81526004016107a99061376d565b6000611b2f600a5490565b9050611b3f600a80546001019055565b611b498282611f88565b5050565b6060600180546106b190613881565b611b49611b6761213d565b8383612715565b600080610168831115611b935760405162461bcd60e51b81526004016107a990613725565b6002600c54611ba2919061380b565b8311611bbe5750506000908152600e6020526040902054600191565b600c548311611bee5782600c54611bd5919061383e565b6000908152600e60205260408120549094909350915050565b6002600c546003611bff919061381f565b611c09919061380b565b8311611c1c57600c54611bd5908461383e565b82600c546002611c2c919061381f565b611c36919061383e565b6000908152600e6020526040902054600194909350915050565b611c61611c5b61213d565b836122b8565b611c7d5760405162461bcd60e51b81526004016107a9906137a2565b611c89848484846127e4565b50505050565b60606000611c9c83610cac565b9050611cd16010611cac83612817565b604051602001611cbd92919061355e565b604051602081830303815290604052612817565b604051602001611ce191906135de565b604051602081830303815290604052915050919050565b600080600c54611d0990600261381f565b831115611d285760405162461bcd60e51b81526004016107a990613725565b60006002600c54611d39919061380b565b90506002600c54611d4a919061380b565b841115611d7b57600c54611d5f90600261381f565b6002600c54611d6e919061380b565b611d7891906137f3565b90505b611d85848261383e565b9350611d9084611b6e565b909590945092505050565b600b5460405163c455279160e01b81526001600160a01b03848116600483015260009281169190841690829063c45527919060240160206040518083038186803b158015611de857600080fd5b505afa158015611dfc573d6000803e3d6000fd5b505050506040513d601f19601f82011682018060405250810190611e209190612ff3565b6001600160a01b03161415611e39576001915050610614565b6001600160a01b0380851660009081526005602090815260408083209387168352929052205460ff165b949350505050565b611e7361213d565b6001600160a01b0316611e8e6009546001600160a01b031690565b6001600160a01b031614611eb45760405162461bcd60e51b81526004016107a99061376d565b6001600160a01b038116611f195760405162461bcd60e51b815260206004820152602660248201527f4f776e61626c653a206e6577206f776e657220697320746865207a65726f206160448201526564647265737360d01b60648201526084016107a9565b610b58816126c3565b80546001019055565b600033301415611f8257600080368080601f0160208091040260200160405190810160405280939291908181526020018383808284376000920191909152505050503601516001600160a01b03169150611f859050565b50335b90565b611b4982826040518060200160405280600081525061297d565b600083815b815181101561213557818181518110611fc257611fc2613917565b602001015160f81c60f81b604051602001611fdd919061315c565b6040516020818303038152906040528051906020012060405160200161200a90602b60f81b815260010190565b6040516020818303038152906040528051906020012014156120525761203085846137f3565b9250600c546002612041919061381f565b61204b90846138d7565b9250612102565b81818151811061206457612064613917565b602001015160f81c60f81b60405160200161207f919061315c565b604051602081830303815290604052805190602001206040516020016120ac90602d60f81b815260010190565b60405160208183030381529060405280519060200120141561210257848310156120f5578483600c5460026120e1919061381f565b6120eb91906137f3565b612030919061383e565b6120ff858461383e565b92505b6000848152601360209081526040822080546001810182559083529120018390558061212d816138bc565b915050611fa7565b505050505050565b6000610af7611f2b565b600081815260046020526040902080546001600160a01b0319166001600160a01b038416908117909155819061217c82611988565b6001600160a01b03167f8c5be1e5ebec7d5bd14f71427d1e84f3dd0314c0f7b2291e5b200ac8c7c3b92560405160405180910390a45050565b60006001600160a01b03861661221b5760405162461bcd60e51b815260206004820152602560248201527f4e61746976654d6574615472616e73616374696f6e3a20494e56414c49445f5360448201526424a3a722a960d91b60648201526084016107a9565b600161222e612229876129b0565b612a2d565b6040805160008152602081018083529290925260ff851690820152606081018690526080810185905260a0016020604051602081039080840390855afa15801561227c573d6000803e3d6000fd5b505050602060405103516001600160a01b0316866001600160a01b031614905095945050505050565b60006122b182846137f3565b9392505050565b6000818152600260205260408120546001600160a01b03166123315760405162461bcd60e51b815260206004820152602c60248201527f4552433732313a206f70657261746f7220717565727920666f72206e6f6e657860448201526b34b9ba32b73a103a37b5b2b760a11b60648201526084016107a9565b600061233c83611988565b9050806001600160a01b0316846001600160a01b0316148061236357506123638185611d9b565b80611e635750836001600160a01b031661237c84610734565b6001600160a01b031614949350505050565b826001600160a01b03166123a182611988565b6001600160a01b0316146124055760405162461bcd60e51b815260206004820152602560248201527f4552433732313a207472616e736665722066726f6d20696e636f72726563742060448201526437bbb732b960d91b60648201526084016107a9565b6001600160a01b0382166124675760405162461bcd60e51b8152602060048201526024808201527f4552433732313a207472616e7366657220746f20746865207a65726f206164646044820152637265737360e01b60648201526084016107a9565b612472600082612147565b6001600160a01b038316600090815260036020526040812080546001929061249b90849061383e565b90915550506001600160a01b03821660009081526003602052604081208054600192906124c99084906137f3565b909155505060008181526002602052604080822080546001600160a01b0319166001600160a01b0386811691821790925591518493918716917fddf252ad1be2c89b69c2b068fc378daa952ba7f163c4a11628f55a4df523b3ef91a4505050565b600061253582611988565b9050612542600083612147565b6001600160a01b038116600090815260036020526040812080546001929061256b90849061383e565b909155505060008281526002602052604080822080546001600160a01b0319169055518391906001600160a01b038416907fddf252ad1be2c89b69c2b068fc378daa952ba7f163c4a11628f55a4df523b3ef908390a45050565b6060816125e95750506040805180820190915260018152600360fc1b602082015290565b8160005b811561261357806125fd816138bc565b915061260c9050600a8361380b565b91506125ed565b60008167ffffffffffffffff81111561262e5761262e61392d565b6040519080825280601f01601f191660200182016040528015612658576020820181803683370190505b5090505b8415611e635761266d60018361383e565b915061267a600a866138d7565b6126859060306137f3565b60f81b81838151811061269a5761269a613917565b60200101906001600160f81b031916908160001a9053506126bc600a8661380b565b945061265c565b600980546001600160a01b038381166001600160a01b0319831681179093556040519116919082907f8be0079c531659141344cd1fd0a4f28419497f9722a3daafe3b4186f6b6457e090600090a35050565b816001600160a01b0316836001600160a01b031614156127775760405162461bcd60e51b815260206004820152601960248201527f4552433732313a20617070726f766520746f2063616c6c65720000000000000060448201526064016107a9565b6001600160a01b03838116600081815260056020908152604080832094871680845294825291829020805460ff191686151590811790915591519182527f17307eab39ab6107e8899845ad3d59bd9653f200f220920489ca2b5937696c31910160405180910390a3505050565b6127ef84848461238e565b6127fb84848484612a5d565b611c895760405162461bcd60e51b81526004016107a9906136d3565b805160609080612837575050604080516020810190915260008152919050565b600060036128468360026137f3565b612850919061380b565b61285b90600461381f565b9050600061286a8260206137f3565b67ffffffffffffffff8111156128825761288261392d565b6040519080825280601f01601f1916602001820160405280156128ac576020820181803683370190505b50905060006040518060600160405280604081526020016139b2604091399050600181016020830160005b86811015612938576003818a01810151603f601282901c8116860151600c83901c8216870151600684901c831688015192909316870151600891821b60ff94851601821b92841692909201901b91160160e01b8352600490920191016128d7565b50600386066001811461295257600281146129635761296f565b613d3d60f01b60011983015261296f565b603d60f81b6000198301525b505050918152949350505050565b6129878383612b71565b6129946000848484612a5d565b6108f15760405162461bcd60e51b81526004016107a9906136d3565b600060405180608001604052806043815260200161396f6043913980516020918201208351848301516040808701518051908601209051612a10950193845260208401929092526001600160a01b03166040830152606082015260800190565b604051602081830303815290604052805190602001209050919050565b6000612a3860075490565b60405161190160f01b6020820152602281019190915260428101839052606201612a10565b60006001600160a01b0384163b15612b6657836001600160a01b031663150b7a02612a8661213d565b8786866040518563ffffffff1660e01b8152600401612aa89493929190613658565b602060405180830381600087803b158015612ac257600080fd5b505af1925050508015612af2575060408051601f3d908101601f19168201909252612aef91810190612fd6565b60015b612b4c573d808015612b20576040519150601f19603f3d011682016040523d82523d6000602084013e612b25565b606091505b508051612b445760405162461bcd60e51b81526004016107a9906136d3565b805181602001fd5b6001600160e01b031916630a85bd0160e11b149050611e63565b506001949350505050565b6001600160a01b038216612bc75760405162461bcd60e51b815260206004820181905260248201527f4552433732313a206d696e7420746f20746865207a65726f206164647265737360448201526064016107a9565b6000818152600260205260409020546001600160a01b031615612c2c5760405162461bcd60e51b815260206004820152601c60248201527f4552433732313a20746f6b656e20616c7265616479206d696e7465640000000060448201526064016107a9565b6001600160a01b0382166000908152600360205260408120805460019290612c559084906137f3565b909155505060008181526002602052604080822080546001600160a01b0319166001600160a01b03861690811790915590518392907fddf252ad1be2c89b69c2b068fc378daa952ba7f163c4a11628f55a4df523b3ef908290a45050565b828054612cbf90613881565b90600052602060002090601f016020900481019282612ce15760008555612d27565b82601f10612cfa57805160ff1916838001178555612d27565b82800160010185558215612d27579182015b82811115612d27578251825591602001919060010190612d0c565b50612d33929150612d37565b5090565b5b80821115612d335760008155600101612d38565b600082601f830112612d5d57600080fd5b813567ffffffffffffffff80821115612d7857612d7861392d565b604051601f8301601f19908116603f01168101908282118183101715612da057612da061392d565b81604052838152866020858801011115612db957600080fd5b836020870160208301376000602085830101528094505050505092915050565b600060208284031215612deb57600080fd5b81356122b181613943565b60008060408385031215612e0957600080fd5b8235612e1481613943565b91506020830135612e2481613943565b809150509250929050565b600080600060608486031215612e4457600080fd5b8335612e4f81613943565b92506020840135612e5f81613943565b929592945050506040919091013590565b60008060008060808587031215612e8657600080fd5b8435612e9181613943565b93506020850135612ea181613943565b925060408501359150606085013567ffffffffffffffff811115612ec457600080fd5b612ed087828801612d4c565b91505092959194509250565b60008060408385031215612eef57600080fd5b8235612efa81613943565b915060208301358015158114612e2457600080fd5b600080600080600060a08688031215612f2757600080fd5b8535612f3281613943565b9450602086013567ffffffffffffffff811115612f4e57600080fd5b612f5a88828901612d4c565b9450506040860135925060608601359150608086013560ff81168114612f7f57600080fd5b809150509295509295909350565b60008060408385031215612fa057600080fd5b8235612fab81613943565b946020939093013593505050565b600060208284031215612fcb57600080fd5b81356122b181613958565b600060208284031215612fe857600080fd5b81516122b181613958565b60006020828403121561300557600080fd5b81516122b181613943565b60008060006060848603121561302557600080fd5b833567ffffffffffffffff8082111561303d57600080fd5b61304987838801612d4c565b945060208601359350604086013591508082111561306657600080fd5b5061307386828701612d4c565b9150509250925092565b60006020828403121561308f57600080fd5b5035919050565b600081518084526130ae816020860160208601613855565b601f01601f19169290920160200192915050565b8054600090600181811c90808316806130dc57607f831692505b60208084108214156130fe57634e487b7160e01b600052602260045260246000fd5b818015613112576001811461312357613150565b60ff19861689528489019650613150565b60008881526020902060005b868110156131485781548b82015290850190830161312f565b505084890196505b50505050505092915050565b6001600160f81b031991909116815260010190565b60008251613183818460208701613855565b9190910192915050565b6000835161319f818460208801613855565b60609390931b6bffffffffffffffffffffffff19169190920190815260140192915050565b600083516131d6818460208801613855565b8351908301906131ea818360208801613855565b691110179f1e17b9bb339f60b11b9101908152600a01949350505050565b6000855161321a818460208a01613855565b85519083019061322e818360208a01613855565b600160fd1b9101908152845161324b816001840160208901613855565b7f2220786d6c6e733d22687474703a2f2f7777772e77332e6f72672f323030302f600192909101918201527f737667223e3c706174682066696c6c3d226e6f6e6522207374726f6b653d220060218201526132a960408201856130c2565b601160f91b8152600101979650505050505050565b600084516132d0818460208901613855565b6201036960ed1b90830190815284516132f0816003840160208901613855565b61016160f51b600392909101918201528351613313816005840160208801613855565b0160050195945050505050565b60008451613332818460208901613855565b6201036960ed1b9083019081528451613352816003840160208901613855565b622c202d60e81b600392909101918201528351613376816006840160208801613855565b0160060195945050505050565b60008451613395818460208901613855565b65010321e9126960d51b90830190815284516133b8816006840160208901613855565b600b60fa1b6006929091019182015283516133da816007840160208801613855565b0160070195945050505050565b600084516133f9818460208901613855565b6201036160ed1b90830190815284516132f0816003840160208901613855565b6000845161342b818460208901613855565b6201036160ed1b9083019081528451613352816003840160208901613855565b6000845161345d818460208901613855565b63206c202d60e01b908301908152845161347e816004840160208901613855565b61016160f51b600492909101918201528351613376816006840160208801613855565b600084516134b3818460208901613855565b63206c202d60e01b90830190815284516134d4816004840160208901613855565b622c202d60e81b6004929091019182015283516133da816007840160208801613855565b6000845161350a818460208901613855565b63206d202d60e01b908301908152845161347e816004840160208901613855565b6000845161353d818460208901613855565b63206d202d60e01b90830190815284516134d4816004840160208901613855565b693d913730b6b2911d101160b11b8152600061357d600a8301856130c2565b7f222c2022696d616765223a2022646174613a696d6167652f7376672b786d6c3b81526618985cd94d8d0b60ca1b602082015283516135c3816027840160208801613855565b61227d60f01b60279290910191820152602901949350505050565b7f646174613a6170706c69636174696f6e2f6a736f6e3b6261736536342c00000081526000825161361681601d850160208701613855565b91909101601d0192915050565b6001600160a01b0384811682528316602082015260606040820181905260009061364f90830184613096565b95945050505050565b6001600160a01b038581168252841660208201526040810183905260806060820181905260009061368b90830184613096565b9695505050505050565b6020815260006122b16020830184613096565b6060815260006136bb6060830186613096565b846020840152828103604084015261368b8185613096565b60208082526032908201527f4552433732313a207472616e7366657220746f206e6f6e20455243373231526560408201527131b2b4bb32b91034b6b83632b6b2b73a32b960711b606082015260800190565b60208082526028908201527f506c656173652063686f6f7365205f646567726565206265747765656e20302060408201526730b73210199b181760c11b606082015260800190565b6020808252818101527f4f776e61626c653a2063616c6c6572206973206e6f7420746865206f776e6572604082015260600190565b60208082526031908201527f4552433732313a207472616e736665722063616c6c6572206973206e6f74206f6040820152701ddb995c881b9bdc88185c1c1c9bdd9959607a1b606082015260800190565b60008219821115613806576138066138eb565b500190565b60008261381a5761381a613901565b500490565b6000816000190483118215151615613839576138396138eb565b500290565b600082821015613850576138506138eb565b500390565b60005b83811015613870578181015183820152602001613858565b83811115611c895750506000910152565b600181811c9082168061389557607f821691505b602082108114156138b657634e487b7160e01b600052602260045260246000fd5b50919050565b60006000198214156138d0576138d06138eb565b5060010190565b6000826138e6576138e6613901565b500690565b634e487b7160e01b600052601160045260246000fd5b634e487b7160e01b600052601260045260246000fd5b634e487b7160e01b600052603260045260246000fd5b634e487b7160e01b600052604160045260246000fd5b6001600160a01b0381168114610b5857600080fd5b6001600160e01b031981168114610b5857600080fdfe4d6574615472616e73616374696f6e2875696e74323536206e6f6e63652c616464726573732066726f6d2c62797465732066756e6374696f6e5369676e6174757265294142434445464748494a4b4c4d4e4f505152535455565758595a6162636465666768696a6b6c6d6e6f707172737475767778797a303132333435363738392b2fa264697066735822122014f52b6d7d848b8d777b0aff917a892b08ee8af9634d380178bf56982a67048e64736f6c63430008070033454950373132446f6d61696e28737472696e67206e616d652c737472696e672076657273696f6e2c6164647265737320766572696679696e67436f6e74726163742c627974657333322073616c7429",
			"opcodes": "PUSH1 0x80 PUSH1 0x40 MSTORE PUSH1 0x6 DUP1 SLOAD PUSH1 0xFF NOT AND DUP2 SSTORE PUSH1 0xB4 PUSH1 0xC SSTORE PUSH3 0x21 SWAP1 PUSH1 0xA SWAP1 PUSH3 0xEBC JUMP JUMPDEST PUSH1 0xD SSTORE PUSH1 0x40 DUP1 MLOAD DUP1 DUP3 ADD SWAP1 SWAP2 MSTORE PUSH1 0xC DUP1 DUP3 MSTORE PUSH12 0x4F6E2D436861696E20535647 PUSH1 0xA0 SHL PUSH1 0x20 SWAP1 SWAP3 ADD SWAP2 DUP3 MSTORE PUSH3 0x59 SWAP2 PUSH1 0x10 SWAP2 PUSH3 0x10E6 JUMP JUMPDEST POP CALLVALUE DUP1 ISZERO PUSH3 0x67 JUMPI PUSH1 0x0 DUP1 REVERT JUMPDEST POP PUSH1 0x40 MLOAD DUP1 PUSH1 0x40 ADD PUSH1 0x40 MSTORE DUP1 PUSH1 0x4 DUP2 MSTORE PUSH1 0x20 ADD PUSH4 0x15195CDD PUSH1 0xE2 SHL DUP2 MSTORE POP PUSH1 0x40 MLOAD DUP1 PUSH1 0x40 ADD PUSH1 0x40 MSTORE DUP1 PUSH1 0x2 DUP2 MSTORE PUSH1 0x20 ADD PUSH2 0x1515 PUSH1 0xF2 SHL DUP2 MSTORE POP CALLER DUP3 DUP3 DUP2 PUSH1 0x0 SWAP1 DUP1 MLOAD SWAP1 PUSH1 0x20 ADD SWAP1 PUSH3 0xBB SWAP3 SWAP2 SWAP1 PUSH3 0x10E6 JUMP JUMPDEST POP DUP1 MLOAD PUSH3 0xD1 SWAP1 PUSH1 0x1 SWAP1 PUSH1 0x20 DUP5 ADD SWAP1 PUSH3 0x10E6 JUMP JUMPDEST POP POP POP PUSH3 0xEE PUSH3 0xE8 PUSH3 0xF0D PUSH1 0x20 SHL PUSH1 0x20 SHR JUMP JUMPDEST PUSH3 0xF29 JUMP JUMPDEST PUSH1 0xB DUP1 SLOAD PUSH1 0x1 PUSH1 0x1 PUSH1 0xA0 SHL SUB NOT AND PUSH1 0x1 PUSH1 0x1 PUSH1 0xA0 SHL SUB DUP4 AND OR SWAP1 SSTORE PUSH3 0x121 PUSH1 0xA PUSH3 0xF7B PUSH1 0x20 SWAP1 DUP2 SHL PUSH3 0x1F22 OR SWAP1 SHR JUMP JUMPDEST PUSH3 0x12C DUP4 PUSH3 0xF84 JUMP JUMPDEST POP POP PUSH1 0xE PUSH1 0x20 MSTORE POP PUSH3 0xF4240 PUSH32 0xE710864318D4A32F37D6CE54CB3FADBEF648DD12D8DBDF53973564D56B7F881C SSTORE PUSH3 0xF41A8 PUSH32 0xA7C5BA7114A813B50159ADD3A36832908DC83DB71D0B9A24C2AD0F83BE958207 SSTORE PUSH3 0xF3FDF PUSH32 0x9ADB202B1492743BC00C81D33CDC6423FA8C79109027EB6A845391E8FC1F0481 SSTORE PUSH3 0xF3CE6 PUSH32 0xE0283E559C29E31EE7F56467ACC9DD307779C843A883AEEB3BF5C6128C908144 SSTORE PUSH3 0xF38BC PUSH32 0xA1D6913CD9E08C872BE3E7525CCA82E4FC0FC298A783F19022BE725B19BE685A SSTORE PUSH3 0xF3363 PUSH32 0xB9BEC7E2561F624FE753FF070F1599B306CBF59FAFD4E8D5A8184A1EA1841BCE SSTORE PUSH3 0xF2CDA PUSH32 0x92B4482321F41CE3AA65F798BDA23D0D12A60FC5F212868A548DDB00AA49DE72 SSTORE PUSH3 0xF2522 PUSH32 0x376529BB8A2D41B4A589A133407FC64F3212472DBD74744348BE1098BF7BA08D SSTORE PUSH3 0xF1C3C PUSH32 0xEAB6BC3746954D8A0719DE62C86EA908D362BE2A58C781ADA1046727253F9DF2 SSTORE PUSH3 0xF1228 PUSH32 0xD5CCDC17421FCA5CA768AE29A27B8B2AA886C9E56E3482F9BA55D79D3A80664 SSTORE PUSH3 0xF06E8 PUSH32 0x978AFEFDFD541F3BDFFE34B0F19BC4CE1D7B3554D278A75E04686ADF3223B39 SSTORE PUSH3 0xEFA7B PUSH32 0x7528327BFCA11F705552FBA9C3966003C5A3E73459DC289E7C8420997D319BEE SSTORE PUSH3 0xEECE4 PUSH32 0x47A2BF86628EA95BF13AE7E8527A13A64F52541D600BA060A013F0B8E72A5E2D SSTORE PUSH3 0xEDE22 PUSH32 0x9D0231707EB2041153C28E130D22114EE38B252CF17233585036AF02278E4181 SSTORE PUSH3 0xECE38 PUSH32 0xA6897C210C76A29B3D6BF757063B10A3FAA77FE0657DE0EE282493E99A18ED50 SSTORE PUSH3 0xEBD26 PUSH32 0x60DD7F0393E3D3987AFAFBB50883FF45658A7A0C2D4460AA7A872D45C2EA2352 SSTORE PUSH3 0xEAAEE PUSH32 0x33820A7B4C4724AAFA212ECDBE06D3782AEAE3DBE20FCF670D9ACC29D388EA90 SSTORE PUSH3 0xE9791 PUSH32 0xC0FE3AC15929D25201E62B8C796AFB6745BCDD80B8BE9470092F43535BA0B48D SSTORE PUSH3 0xE8311 PUSH32 0x3757BB026B72BF4F9CBBBF8F2BAFE0EA3D356AE6D8F07EF005AAFB99B4CBDE40 SSTORE PUSH3 0xE6D6F PUSH32 0x23E995B0EA7A69C30E45FB21CD9D4E2ADF7852A8949479C1017E50A0A5021D51 SSTORE PUSH3 0xE56AD PUSH32 0xAD2085924F073C582F946BD77DC0ABAA9C2630E9D25FD72A62A7AE1D39C64195 SSTORE PUSH3 0xE3ECC PUSH32 0x3ACBBD99B1D795E2737BD4514A5A2E4C70B9B25DCFDFBB7FDEB840DA20F59D93 SSTORE PUSH3 0xE25D0 PUSH32 0x63DAC8AC72609A2437A2DA33AE5C3341A805B2815F084AEB7A66B5DCF5C8EB59 SSTORE PUSH3 0xE0BB9 PUSH32 0x1E3DCD93811A15EC9F36F04603879A32C5170FC20534B809651C2612846B4069 SSTORE PUSH3 0xDF089 PUSH32 0x44E03DBD624A27D622B68A614BB2FCDC0A3C0D48A3E0952EB6BB06DA342D3593 SSTORE PUSH3 0xDD444 PUSH32 0x41855FB39C7A9BC7DD5224540BF31AA8C51AA701281698EB9B0450EB341E390C SSTORE PUSH3 0xDB6EA PUSH32 0x63A95B9616C622C07053963654670B5E448D2E5BC2586B50F21C88E28C6E272A SSTORE PUSH3 0xD987F PUSH32 0x5C803E1DB6902B36029C98AD9AD0B0E757A990B4ACA3BBCC2E6BE55D61E8523D SSTORE PUSH3 0xD7904 PUSH32 0xE3E8D4D0C0A4C6954D73282FE4432276404522C9FCCA5859A98C1B050481265 SSTORE PUSH3 0xD587C PUSH32 0x661D7CA5AD5B75E592E91071D1B2CA8FDCAEE5F32E9D2D97C1DC3892D2A0B6A0 SSTORE PUSH3 0xD36E9 PUSH32 0x195AD0E161A4326CD85229A1FCCA74CF96F3C99E31B4EC5457E0D9C344E00031 SSTORE PUSH3 0xD144F PUSH32 0x49497ADD93D4F18E64063A8F7817B0E4355B1C78D57825BCCCBFC59B42A6105 SSTORE PUSH3 0xCF0B0 PUSH32 0xF9B40CCBD72DA968D49C559BDEB3F9302213A0D9B07D71A740292FF93DE761B6 SSTORE PUSH3 0xCCC0F PUSH32 0x867860E68C26DCF78DA3E73B2D7CDAC0E6F5E8894F50972C9E06418C7086789C SSTORE PUSH3 0xCA66E PUSH32 0x76E03EAA7AF9AF5522FCE0F6A91D10C6A1F021C1595EE08481E3F4B76ADF27A SSTORE PUSH3 0xC7FD0 PUSH32 0xA64D66100F9495ABF0BF52BEF446A9530DFE9440BBB706A7477689805873AAF1 SSTORE PUSH3 0xC5839 PUSH32 0xB561EDF3FA4F34F12E63CA96B0C4A9A41B035D8B66FCC5400E41FDE18314C0A4 SSTORE PUSH3 0xC2FAC PUSH32 0xBE1C30E381E02BD4C9909ABF61A02E988401285C9BCB2992BF720C8AF27C9FFC SSTORE PUSH3 0xC062B PUSH32 0x156CD391437A66E89E3DD79E84438C6B85A5C2F292D759080C53AC86398CE2D SSTORE PUSH3 0xBDBBA PUSH32 0xAA3FAC4E1C1C54F4B9AA2872B8327C38574F06178847983C0D3070726DDCB173 SSTORE PUSH3 0xBB05C PUSH32 0x22D693247411E4E82E8CFD4298D7D01B584D717E72112345C49F1CB7852EB12C SSTORE PUSH3 0xB8416 PUSH32 0xC07F4FE9E7A67D59A6D916831877A58B85FF9AA619BC0726A102B66B7E76C9B SSTORE PUSH3 0xB56E9 PUSH32 0x34D3BF46BE22E80B324162C4355C21C6B4225120CD159F1E6A2BE771B6C3319 SSTORE PUSH3 0xB28DA PUSH32 0x9475D144584CCA22DF272B1820BB768AA8333D19A7FBF74E822A269B78119427 SSTORE PUSH3 0xAF9EC PUSH32 0x660F3766E6DF0AE3AC912A3EEA62C1E458AAA9A8D181A1727A7D0AA56155F9E9 SSTORE PUSH3 0xACA23 PUSH32 0xACD05E631B0D698F89D62443D4EE3D3515BEC98EB8DBA893E0CD5DAF3BF32FD5 SSTORE PUSH3 0xA9982 PUSH32 0xE26ED9D99BABFEC354F7CFA35997D140FD73E605C766A5636A0B075F5E200D15 SSTORE PUSH3 0xA680E PUSH32 0xF9DCD18C9119282F748ABA2570598AB3B5957EF6D543E79D393A250894B40700 SSTORE PUSH3 0xA35CB PUSH32 0x16B639777C4B89C1FC9F57EED394D7C1848B10A8F8FB7109F89DD08A075844FA SSTORE PUSH3 0xA02BB PUSH32 0x402FF062A9C543790F02E6D234E65ED9318FD647D1EC696D9591CF4797C0A135 SSTORE PUSH3 0x9CEE4 PUSH32 0x2EA41E58B11602759F1683AF45A764AA8DCC37674C9A64070CF320A49AB59166 SSTORE PUSH3 0x99A48 PUSH32 0xF251D33C6A315353F25D6F4DBC7BC7045266484A2F18BC4AB7510C33DFD177BE SSTORE PUSH3 0x964ED PUSH32 0x4D067697D7F0B5FB99AB8D337330874853BCA13D130D6411192E876615040856 SSTORE PUSH3 0x92ED7 PUSH32 0x1E40C519E21237A57EA0DD277E5C20A6A693CE0E3970322AD11EDEE130ED57F2 SSTORE PUSH3 0x8F809 PUSH32 0x46F8923CBF100DD7E54A41F335BC4762111F1F1DA96FAE0D3B46CC0A5E84D972 SSTORE PUSH3 0x8C088 PUSH32 0xEB2297CE9617FF3F26264A182C718661034E24EDB137CCB6C28028E44A77100D SSTORE PUSH3 0x88859 PUSH32 0x655DAC19B0F73AE65A1A5BB438A0052D2C8AA7E1E11EC724659E7492A92F39E9 SSTORE PUSH3 0x84F7F PUSH32 0xBA62A4D6BCB1E95A84ECFA096ACE5C0BE352288A4161BF78C9730DC3CB064A8D SSTORE PUSH3 0x815FF PUSH32 0x9A3531BCEE64FA55D925CAAE79E6CDA7A9B7C253A01C621E4591D4AA4C06E78E SSTORE PUSH3 0x7DBDE PUSH32 0xA8A8FD055BCCAA52503D6EEBC5E1335CD791F8F54F336C872FA678E7DB26A143 SSTORE PUSH3 0x7A120 PUSH32 0x60847B922233DA4994D5A56502FCEB98B1DDB870FD1515200054CDBF36DD181B SSTORE PUSH3 0x765CA PUSH32 0xC16E0584EEFF1847DC11229FEEDB9C57A4CE37345F68FECEF550BCE07EDB54E2 SSTORE PUSH3 0x729E0 PUSH32 0x2F4DE26B460FC134C8554776795FF9280FE26CECE61CE2464A91CACA6AFEF1D2 SSTORE PUSH3 0x6ED66 PUSH32 0xDF18825F42EC31B35E6FCB10704D13BB08E5F765964D67975BE10DAEAA29218 SSTORE PUSH3 0x6B063 PUSH32 0x2FD216D2A757183CFA8390F87EFAB00B552FE88EF6BB223C53ED41D006FBE363 SSTORE PUSH3 0x672DA PUSH32 0x84C85EFD40B589D956C4FDD38A3A85BCCE836F865C52FC9518BD545577E5C9A9 SSTORE PUSH3 0x634D1 PUSH32 0x9DD2AFD2434864502D7EDD19DA0E44EFB145746FC9CA1125AA2EAA042DA4CA9B SSTORE PUSH3 0x5F64B PUSH32 0x6A90653D1DBD4890440D31F2DB01FC0E1057821540D61CB34F0B2C2443172BE8 SSTORE PUSH3 0x5B74F PUSH32 0x4439675D373BCB2B0AFCF469AFDD27FEF3E78479BD21D47914D3545B899B5755 SSTORE PUSH3 0x577E0 PUSH32 0xD79B16B958325C8D3BCFA7B2E29FBAEF6AD6C570C0BD46F0992FF18126C32802 SSTORE PUSH3 0x53804 PUSH32 0x69E1545E52F408AE909CD415940A7B813D61EC6C00D504158A6F7E91CE939EEC SSTORE PUSH3 0x4F7C0 PUSH32 0x3E0B13C4BBE97CC346245E6439C55C5DBEB5409CC04867952DAFFEDD6ACD5A9 SSTORE PUSH3 0x4B719 PUSH32 0xB602799364E0AA853ED5A213917855292BB9786429D1AADDE9DD9ABB6241256D SSTORE PUSH3 0x47614 PUSH32 0x6C197E8E150E1F788F836CA18457D4E3A8D89D9DFA74437EE20DE159C15BE30D SSTORE PUSH3 0x434B5 PUSH32 0xB97A35AAF52A2A53D8FA350DBEDAA2F09DE31ED6299927F50168033958ABE4D3 SSTORE PUSH3 0x3F303 PUSH32 0xBA0079D03D5C13AED51752FA5274346AA72A0BF09D9C4039CF6F6C53AEFB1BA9 SSTORE PUSH3 0x3B102 PUSH32 0x5F3E4F2419A08D46A52E0564190F647CAB0E7A89921A5C47D58050A3304E9D53 SSTORE PUSH3 0x36EB7 PUSH32 0xC769F38D30D35523AC1587198AC3A9BD5BEC4E9E24FF8859D066CF9C84BBED49 SSTORE PUSH3 0x32C28 PUSH32 0xF62D84222602B8C70D8BAFB1D2C83702F901094D265B3F04BABE95577970DCA SSTORE PUSH3 0x2E959 PUSH32 0xC7DEB991FC853786B4C519CEF4543AB22263D9796479532FAF97A661E6419C4 SSTORE PUSH3 0x2A650 PUSH32 0x15631BE2B91109EB9AAA833FE3A83E0059EBDE91C7789EEA5A1E302DF33DB96A SSTORE PUSH3 0x26312 PUSH32 0x3D93D1F18E63FF82F719B54B2294465011FDC4419BA836E6E16C0BF957906931 SSTORE PUSH3 0x21FA5 PUSH32 0xB6AD7948D1CD2A455CDCD0786555994E698237ED85D8A2DBB19712E247EDF401 SSTORE PUSH3 0x1DC0D PUSH32 0xE028DF9C2611A2F88D20C99F8009D5CFA0F719F1F49403F10AC9A5F362DA94E1 SSTORE PUSH3 0x19850 PUSH32 0x1109B359940BBF6B56EBF86A894ECEA173AB35E81AAE3BCBBAB5F8D06CA088E7 SSTORE PUSH3 0x15474 PUSH32 0xA047BF8E15AF485B1A145265DC36217C4B5F712921C6C0168A321D989CC0296E SSTORE PUSH3 0x1107C PUSH32 0xEAE89A02F6697DCE83787F9B6931B5E8B392523233310018EE59C684272F0A1B SSTORE PUSH2 0xCC70 PUSH32 0xC588C2D5808B77745F83F843E11F18DE66E8FE22B986684756699A1E1BABE2B4 SSTORE PUSH2 0x8853 PUSH32 0x5EA54D52EE8C9B980F7EE6F575AAAF3D4769EFD8809D64A2E6F4C02F24B3E922 SSTORE PUSH2 0x442C PUSH32 0x2D8DFBDA3FA278822F1D2C058755D7424DBCDCC97331CB0EE8C6ECF2BF0DC3AD SSTORE PUSH1 0x5A PUSH1 0x0 SWAP1 DUP2 MSTORE PUSH32 0x280AE0CFF1002D66BF67A1695081E14A3A1EA44CFEFC7D0DDE04FE9364207C6D SSTORE PUSH3 0x121F JUMP JUMPDEST PUSH1 0x0 PUSH3 0xECD JUMP JUMPDEST PUSH1 0x40 MLOAD DUP1 SWAP2 SUB SWAP1 REVERT JUMPDEST POP PUSH1 0x1 DUP2 ISZERO PUSH3 0xF07 JUMPI PUSH1 0x1 JUMPDEST DUP3 DUP2 GT PUSH3 0xF05 JUMPI PUSH3 0xEEE DUP5 DUP4 PUSH3 0x118C JUMP JUMPDEST SWAP2 POP DUP1 PUSH3 0xEFC DUP2 PUSH3 0x11EB JUMP JUMPDEST SWAP2 POP POP PUSH3 0xEDA JUMP JUMPDEST POP JUMPDEST SWAP3 SWAP2 POP POP JUMP JUMPDEST PUSH1 0x0 PUSH3 0xF24 PUSH3 0xFE5 PUSH1 0x20 SHL PUSH3 0x1F2B OR PUSH1 0x20 SHR JUMP JUMPDEST SWAP1 POP SWAP1 JUMP JUMPDEST PUSH1 0x9 DUP1 SLOAD PUSH1 0x1 PUSH1 0x1 PUSH1 0xA0 SHL SUB DUP4 DUP2 AND PUSH1 0x1 PUSH1 0x1 PUSH1 0xA0 SHL SUB NOT DUP4 AND DUP2 OR SWAP1 SWAP4 SSTORE PUSH1 0x40 MLOAD SWAP2 AND SWAP2 SWAP1 DUP3 SWAP1 PUSH32 0x8BE0079C531659141344CD1FD0A4F28419497F9722A3DAAFE3B4186F6B6457E0 SWAP1 PUSH1 0x0 SWAP1 LOG3 POP POP JUMP JUMPDEST DUP1 SLOAD PUSH1 0x1 ADD SWAP1 SSTORE JUMP JUMPDEST PUSH1 0x6 SLOAD PUSH1 0xFF AND ISZERO PUSH3 0xFCA JUMPI PUSH1 0x40 MLOAD PUSH3 0x461BCD PUSH1 0xE5 SHL DUP2 MSTORE PUSH1 0x20 PUSH1 0x4 DUP3 ADD MSTORE PUSH1 0xE PUSH1 0x24 DUP3 ADD MSTORE PUSH14 0x185B1C9958591E481A5B9A5D1959 PUSH1 0x92 SHL PUSH1 0x44 DUP3 ADD MSTORE PUSH1 0x64 ADD PUSH3 0xEC4 JUMP JUMPDEST PUSH3 0xFD5 DUP2 PUSH3 0x1044 JUMP JUMPDEST POP PUSH1 0x6 DUP1 SLOAD PUSH1 0xFF NOT AND PUSH1 0x1 OR SWAP1 SSTORE JUMP JUMPDEST PUSH1 0x0 CALLER ADDRESS EQ ISZERO PUSH3 0x103E JUMPI PUSH1 0x0 DUP1 CALLDATASIZE DUP1 DUP1 PUSH1 0x1F ADD PUSH1 0x20 DUP1 SWAP2 DIV MUL PUSH1 0x20 ADD PUSH1 0x40 MLOAD SWAP1 DUP2 ADD PUSH1 0x40 MSTORE DUP1 SWAP4 SWAP3 SWAP2 SWAP1 DUP2 DUP2 MSTORE PUSH1 0x20 ADD DUP4 DUP4 DUP1 DUP3 DUP5 CALLDATACOPY PUSH1 0x0 SWAP3 ADD SWAP2 SWAP1 SWAP2 MSTORE POP POP POP POP CALLDATASIZE ADD MLOAD PUSH1 0x1 PUSH1 0x1 PUSH1 0xA0 SHL SUB AND SWAP2 POP PUSH3 0x1041 SWAP1 POP JUMP JUMPDEST POP CALLER JUMPDEST SWAP1 JUMP JUMPDEST PUSH1 0x40 MLOAD DUP1 PUSH1 0x80 ADD PUSH1 0x40 MSTORE DUP1 PUSH1 0x4F DUP2 MSTORE PUSH1 0x20 ADD PUSH3 0x4C56 PUSH1 0x4F SWAP2 CODECOPY DUP1 MLOAD PUSH1 0x20 SWAP2 DUP3 ADD KECCAK256 DUP3 MLOAD SWAP3 DUP3 ADD SWAP3 SWAP1 SWAP3 KECCAK256 PUSH1 0x40 DUP1 MLOAD DUP1 DUP3 ADD DUP3 MSTORE PUSH1 0x1 DUP2 MSTORE PUSH1 0x31 PUSH1 0xF8 SHL SWAP1 DUP5 ADD MSTORE DUP1 MLOAD DUP1 DUP5 ADD SWAP5 SWAP1 SWAP5 MSTORE DUP4 DUP2 ADD SWAP2 SWAP1 SWAP2 MSTORE PUSH32 0xC89EFDAA54C0F20C7ADF612882DF0950F5A951637E0307CDCB4C672F298B8BC6 PUSH1 0x60 DUP5 ADD MSTORE ADDRESS PUSH1 0x80 DUP5 ADD MSTORE CHAINID PUSH1 0xA0 DUP1 DUP6 ADD SWAP2 SWAP1 SWAP2 MSTORE DUP2 MLOAD DUP1 DUP6 SUB SWAP1 SWAP2 ADD DUP2 MSTORE PUSH1 0xC0 SWAP1 SWAP4 ADD SWAP1 MSTORE DUP2 MLOAD SWAP2 ADD KECCAK256 PUSH1 0x7 SSTORE JUMP JUMPDEST DUP3 DUP1 SLOAD PUSH3 0x10F4 SWAP1 PUSH3 0x11AE JUMP JUMPDEST SWAP1 PUSH1 0x0 MSTORE PUSH1 0x20 PUSH1 0x0 KECCAK256 SWAP1 PUSH1 0x1F ADD PUSH1 0x20 SWAP1 DIV DUP2 ADD SWAP3 DUP3 PUSH3 0x1118 JUMPI PUSH1 0x0 DUP6 SSTORE PUSH3 0x1163 JUMP JUMPDEST DUP3 PUSH1 0x1F LT PUSH3 0x1133 JUMPI DUP1 MLOAD PUSH1 0xFF NOT AND DUP4 DUP1 ADD OR DUP6 SSTORE PUSH3 0x1163 JUMP JUMPDEST DUP3 DUP1 ADD PUSH1 0x1 ADD DUP6 SSTORE DUP3 ISZERO PUSH3 0x1163 JUMPI SWAP2 DUP3 ADD JUMPDEST DUP3 DUP2 GT ISZERO PUSH3 0x1163 JUMPI DUP3 MLOAD DUP3 SSTORE SWAP2 PUSH1 0x20 ADD SWAP2 SWAP1 PUSH1 0x1 ADD SWAP1 PUSH3 0x1146 JUMP JUMPDEST POP PUSH3 0x1171 SWAP3 SWAP2 POP PUSH3 0x1175 JUMP JUMPDEST POP SWAP1 JUMP JUMPDEST JUMPDEST DUP1 DUP3 GT ISZERO PUSH3 0x1171 JUMPI PUSH1 0x0 DUP2 SSTORE PUSH1 0x1 ADD PUSH3 0x1176 JUMP JUMPDEST PUSH1 0x0 DUP2 PUSH1 0x0 NOT DIV DUP4 GT DUP3 ISZERO ISZERO AND ISZERO PUSH3 0x11A9 JUMPI PUSH3 0x11A9 PUSH3 0x1209 JUMP JUMPDEST POP MUL SWAP1 JUMP JUMPDEST PUSH1 0x1 DUP2 DUP2 SHR SWAP1 DUP3 AND DUP1 PUSH3 0x11C3 JUMPI PUSH1 0x7F DUP3 AND SWAP2 POP JUMPDEST PUSH1 0x20 DUP3 LT DUP2 EQ ISZERO PUSH3 0x11E5 JUMPI PUSH4 0x4E487B71 PUSH1 0xE0 SHL PUSH1 0x0 MSTORE PUSH1 0x22 PUSH1 0x4 MSTORE PUSH1 0x24 PUSH1 0x0 REVERT JUMPDEST POP SWAP2 SWAP1 POP JUMP JUMPDEST PUSH1 0x0 PUSH1 0x0 NOT DUP3 EQ ISZERO PUSH3 0x1202 JUMPI PUSH3 0x1202 PUSH3 0x1209 JUMP JUMPDEST POP PUSH1 0x1 ADD SWAP1 JUMP JUMPDEST PUSH4 0x4E487B71 PUSH1 0xE0 SHL PUSH1 0x0 MSTORE PUSH1 0x11 PUSH1 0x4 MSTORE PUSH1 0x24 PUSH1 0x0 REVERT JUMPDEST PUSH2 0x3A27 DUP1 PUSH3 0x122F PUSH1 0x0 CODECOPY PUSH1 0x0 RETURN INVALID PUSH1 0x80 PUSH1 0x40 MSTORE PUSH1 0x4 CALLDATASIZE LT PUSH2 0x1CD JUMPI PUSH1 0x0 CALLDATALOAD PUSH1 0xE0 SHR DUP1 PUSH4 0x4E4007F0 GT PUSH2 0xF7 JUMPI DUP1 PUSH4 0x95D89B41 GT PUSH2 0x95 JUMPI DUP1 PUSH4 0xC87B56DD GT PUSH2 0x64 JUMPI DUP1 PUSH4 0xC87B56DD EQ PUSH2 0x548 JUMPI DUP1 PUSH4 0xCB5CC109 EQ PUSH2 0x568 JUMPI DUP1 PUSH4 0xE985E9C5 EQ PUSH2 0x588 JUMPI DUP1 PUSH4 0xF2FDE38B EQ PUSH2 0x5A8 JUMPI PUSH1 0x0 DUP1 REVERT JUMPDEST DUP1 PUSH4 0x95D89B41 EQ PUSH2 0x4BC JUMPI DUP1 PUSH4 0xA22CB465 EQ PUSH2 0x4D1 JUMPI DUP1 PUSH4 0xA58B00BA EQ PUSH2 0x4F1 JUMPI DUP1 PUSH4 0xB88D4FDE EQ PUSH2 0x528 JUMPI PUSH1 0x0 DUP1 REVERT JUMPDEST DUP1 PUSH4 0x70A08231 GT PUSH2 0xD1 JUMPI DUP1 PUSH4 0x70A08231 EQ PUSH2 0x449 JUMPI DUP1 PUSH4 0x715018A6 EQ PUSH2 0x469 JUMPI DUP1 PUSH4 0x755EDD17 EQ PUSH2 0x47E JUMPI DUP1 PUSH4 0x8DA5CB5B EQ PUSH2 0x49E JUMPI PUSH1 0x0 DUP1 REVERT JUMPDEST DUP1 PUSH4 0x4E4007F0 EQ PUSH2 0x3F3 JUMPI DUP1 PUSH4 0x61BC221A EQ PUSH2 0x413 JUMPI DUP1 PUSH4 0x6352211E EQ PUSH2 0x429 JUMPI PUSH1 0x0 DUP1 REVERT JUMPDEST DUP1 PUSH4 0x18160DDD GT PUSH2 0x16F JUMPI DUP1 PUSH4 0x3408E470 GT PUSH2 0x13E JUMPI DUP1 PUSH4 0x3408E470 EQ PUSH2 0x371 JUMPI DUP1 PUSH4 0x42842E0E EQ PUSH2 0x384 JUMPI DUP1 PUSH4 0x42966C68 EQ PUSH2 0x3A4 JUMPI DUP1 PUSH4 0x4AF4F341 EQ PUSH2 0x3C4 JUMPI PUSH1 0x0 DUP1 REVERT JUMPDEST DUP1 PUSH4 0x18160DDD EQ PUSH2 0x2E3 JUMPI DUP1 PUSH4 0x20379EE5 EQ PUSH2 0x306 JUMPI DUP1 PUSH4 0x23B872DD EQ PUSH2 0x31B JUMPI DUP1 PUSH4 0x2D0335AB EQ PUSH2 0x33B JUMPI PUSH1 0x0 DUP1 REVERT JUMPDEST DUP1 PUSH4 0x81812FC GT PUSH2 0x1AB JUMPI DUP1 PUSH4 0x81812FC EQ PUSH2 0x24B JUMPI DUP1 PUSH4 0x95EA7B3 EQ PUSH2 0x283 JUMPI DUP1 PUSH4 0xC53C51C EQ PUSH2 0x2A3 JUMPI DUP1 PUSH4 0xF7E5970 EQ PUSH2 0x2B6 JUMPI PUSH1 0x0 DUP1 REVERT JUMPDEST DUP1 PUSH4 0x1FFC9A7 EQ PUSH2 0x1D2 JUMPI DUP1 PUSH4 0x6BDC949 EQ PUSH2 0x207 JUMPI DUP1 PUSH4 0x6FDDE03 EQ PUSH2 0x229 JUMPI JUMPDEST PUSH1 0x0 DUP1 REVERT JUMPDEST CALLVALUE DUP1 ISZERO PUSH2 0x1DE JUMPI PUSH1 0x0 DUP1 REVERT JUMPDEST POP PUSH2 0x1F2 PUSH2 0x1ED CALLDATASIZE PUSH1 0x4 PUSH2 0x2FB9 JUMP JUMPDEST PUSH2 0x5C8 JUMP JUMPDEST PUSH1 0x40 MLOAD SWAP1 ISZERO ISZERO DUP2 MSTORE PUSH1 0x20 ADD JUMPDEST PUSH1 0x40 MLOAD DUP1 SWAP2 SUB SWAP1 RETURN JUMPDEST CALLVALUE DUP1 ISZERO PUSH2 0x213 JUMPI PUSH1 0x0 DUP1 REVERT JUMPDEST POP PUSH2 0x227 PUSH2 0x222 CALLDATASIZE PUSH1 0x4 PUSH2 0x3010 JUMP JUMPDEST PUSH2 0x61A JUMP JUMPDEST STOP JUMPDEST CALLVALUE DUP1 ISZERO PUSH2 0x235 JUMPI PUSH1 0x0 DUP1 REVERT JUMPDEST POP PUSH2 0x23E PUSH2 0x6A2 JUMP JUMPDEST PUSH1 0x40 MLOAD PUSH2 0x1FE SWAP2 SWAP1 PUSH2 0x3695 JUMP JUMPDEST CALLVALUE DUP1 ISZERO PUSH2 0x257 JUMPI PUSH1 0x0 DUP1 REVERT JUMPDEST POP PUSH2 0x26B PUSH2 0x266 CALLDATASIZE PUSH1 0x4 PUSH2 0x307D JUMP JUMPDEST PUSH2 0x734 JUMP JUMPDEST PUSH1 0x40 MLOAD PUSH1 0x1 PUSH1 0x1 PUSH1 0xA0 SHL SUB SWAP1 SWAP2 AND DUP2 MSTORE PUSH1 0x20 ADD PUSH2 0x1FE JUMP JUMPDEST CALLVALUE DUP1 ISZERO PUSH2 0x28F JUMPI PUSH1 0x0 DUP1 REVERT JUMPDEST POP PUSH2 0x227 PUSH2 0x29E CALLDATASIZE PUSH1 0x4 PUSH2 0x2F8D JUMP JUMPDEST PUSH2 0x7CE JUMP JUMPDEST PUSH2 0x23E PUSH2 0x2B1 CALLDATASIZE PUSH1 0x4 PUSH2 0x2F0F JUMP JUMPDEST PUSH2 0x8F6 JUMP JUMPDEST CALLVALUE DUP1 ISZERO PUSH2 0x2C2 JUMPI PUSH1 0x0 DUP1 REVERT JUMPDEST POP PUSH2 0x23E PUSH1 0x40 MLOAD DUP1 PUSH1 0x40 ADD PUSH1 0x40 MSTORE DUP1 PUSH1 0x1 DUP2 MSTORE PUSH1 0x20 ADD PUSH1 0x31 PUSH1 0xF8 SHL DUP2 MSTORE POP DUP2 JUMP JUMPDEST CALLVALUE DUP1 ISZERO PUSH2 0x2EF JUMPI PUSH1 0x0 DUP1 REVERT JUMPDEST POP PUSH2 0x2F8 PUSH2 0xAE0 JUMP JUMPDEST PUSH1 0x40 MLOAD SWAP1 DUP2 MSTORE PUSH1 0x20 ADD PUSH2 0x1FE JUMP JUMPDEST CALLVALUE DUP1 ISZERO PUSH2 0x312 JUMPI PUSH1 0x0 DUP1 REVERT JUMPDEST POP PUSH1 0x7 SLOAD PUSH2 0x2F8 JUMP JUMPDEST CALLVALUE DUP1 ISZERO PUSH2 0x327 JUMPI PUSH1 0x0 DUP1 REVERT JUMPDEST POP PUSH2 0x227 PUSH2 0x336 CALLDATASIZE PUSH1 0x4 PUSH2 0x2E2F JUMP JUMPDEST PUSH2 0xAFC JUMP JUMPDEST CALLVALUE DUP1 ISZERO PUSH2 0x347 JUMPI PUSH1 0x0 DUP1 REVERT JUMPDEST POP PUSH2 0x2F8 PUSH2 0x356 CALLDATASIZE PUSH1 0x4 PUSH2 0x2DD9 JUMP JUMPDEST PUSH1 0x1 PUSH1 0x1 PUSH1 0xA0 SHL SUB AND PUSH1 0x0 SWAP1 DUP2 MSTORE PUSH1 0x8 PUSH1 0x20 MSTORE PUSH1 0x40 SWAP1 KECCAK256 SLOAD SWAP1 JUMP JUMPDEST CALLVALUE DUP1 ISZERO PUSH2 0x37D JUMPI PUSH1 0x0 DUP1 REVERT JUMPDEST POP CHAINID PUSH2 0x2F8 JUMP JUMPDEST CALLVALUE DUP1 ISZERO PUSH2 0x390 JUMPI PUSH1 0x0 DUP1 REVERT JUMPDEST POP PUSH2 0x227 PUSH2 0x39F CALLDATASIZE PUSH1 0x4 PUSH2 0x2E2F JUMP JUMPDEST PUSH2 0xB34 JUMP JUMPDEST CALLVALUE DUP1 ISZERO PUSH2 0x3B0 JUMPI PUSH1 0x0 DUP1 REVERT JUMPDEST POP PUSH2 0x227 PUSH2 0x3BF CALLDATASIZE PUSH1 0x4 PUSH2 0x307D JUMP JUMPDEST PUSH2 0xB4F JUMP JUMPDEST CALLVALUE DUP1 ISZERO PUSH2 0x3D0 JUMPI PUSH1 0x0 DUP1 REVERT JUMPDEST POP PUSH2 0x3E4 PUSH2 0x3DF CALLDATASIZE PUSH1 0x4 PUSH2 0x307D JUMP JUMPDEST PUSH2 0xB5B JUMP JUMPDEST PUSH1 0x40 MLOAD PUSH2 0x1FE SWAP4 SWAP3 SWAP2 SWAP1 PUSH2 0x36A8 JUMP JUMPDEST CALLVALUE DUP1 ISZERO PUSH2 0x3FF JUMPI PUSH1 0x0 DUP1 REVERT JUMPDEST POP PUSH2 0x23E PUSH2 0x40E CALLDATASIZE PUSH1 0x4 PUSH2 0x307D JUMP JUMPDEST PUSH2 0xCAC JUMP JUMPDEST CALLVALUE DUP1 ISZERO PUSH2 0x41F JUMPI PUSH1 0x0 DUP1 REVERT JUMPDEST POP PUSH2 0x2F8 PUSH1 0xF SLOAD DUP2 JUMP JUMPDEST CALLVALUE DUP1 ISZERO PUSH2 0x435 JUMPI PUSH1 0x0 DUP1 REVERT JUMPDEST POP PUSH2 0x26B PUSH2 0x444 CALLDATASIZE PUSH1 0x4 PUSH2 0x307D JUMP JUMPDEST PUSH2 0x1988 JUMP JUMPDEST CALLVALUE DUP1 ISZERO PUSH2 0x455 JUMPI PUSH1 0x0 DUP1 REVERT JUMPDEST POP PUSH2 0x2F8 PUSH2 0x464 CALLDATASIZE PUSH1 0x4 PUSH2 0x2DD9 JUMP JUMPDEST PUSH2 0x19FF JUMP JUMPDEST CALLVALUE DUP1 ISZERO PUSH2 0x475 JUMPI PUSH1 0x0 DUP1 REVERT JUMPDEST POP PUSH2 0x227 PUSH2 0x1A86 JUMP JUMPDEST CALLVALUE DUP1 ISZERO PUSH2 0x48A JUMPI PUSH1 0x0 DUP1 REVERT JUMPDEST POP PUSH2 0x227 PUSH2 0x499 CALLDATASIZE PUSH1 0x4 PUSH2 0x2DD9 JUMP JUMPDEST PUSH2 0x1ADB JUMP JUMPDEST CALLVALUE DUP1 ISZERO PUSH2 0x4AA JUMPI PUSH1 0x0 DUP1 REVERT JUMPDEST POP PUSH1 0x9 SLOAD PUSH1 0x1 PUSH1 0x1 PUSH1 0xA0 SHL SUB AND PUSH2 0x26B JUMP JUMPDEST CALLVALUE DUP1 ISZERO PUSH2 0x4C8 JUMPI PUSH1 0x0 DUP1 REVERT JUMPDEST POP PUSH2 0x23E PUSH2 0x1B4D JUMP JUMPDEST CALLVALUE DUP1 ISZERO PUSH2 0x4DD JUMPI PUSH1 0x0 DUP1 REVERT JUMPDEST POP PUSH2 0x227 PUSH2 0x4EC CALLDATASIZE PUSH1 0x4 PUSH2 0x2EDC JUMP JUMPDEST PUSH2 0x1B5C JUMP JUMPDEST CALLVALUE DUP1 ISZERO PUSH2 0x4FD JUMPI PUSH1 0x0 DUP1 REVERT JUMPDEST POP PUSH2 0x511 PUSH2 0x50C CALLDATASIZE PUSH1 0x4 PUSH2 0x307D JUMP JUMPDEST PUSH2 0x1B6E JUMP JUMPDEST PUSH1 0x40 DUP1 MLOAD SWAP3 ISZERO ISZERO DUP4 MSTORE PUSH1 0x20 DUP4 ADD SWAP2 SWAP1 SWAP2 MSTORE ADD PUSH2 0x1FE JUMP JUMPDEST CALLVALUE DUP1 ISZERO PUSH2 0x534 JUMPI PUSH1 0x0 DUP1 REVERT JUMPDEST POP PUSH2 0x227 PUSH2 0x543 CALLDATASIZE PUSH1 0x4 PUSH2 0x2E70 JUMP JUMPDEST PUSH2 0x1C50 JUMP JUMPDEST CALLVALUE DUP1 ISZERO PUSH2 0x554 JUMPI PUSH1 0x0 DUP1 REVERT JUMPDEST POP PUSH2 0x23E PUSH2 0x563 CALLDATASIZE PUSH1 0x4 PUSH2 0x307D JUMP JUMPDEST PUSH2 0x1C8F JUMP JUMPDEST CALLVALUE DUP1 ISZERO PUSH2 0x574 JUMPI PUSH1 0x0 DUP1 REVERT JUMPDEST POP PUSH2 0x511 PUSH2 0x583 CALLDATASIZE PUSH1 0x4 PUSH2 0x307D JUMP JUMPDEST PUSH2 0x1CF8 JUMP JUMPDEST CALLVALUE DUP1 ISZERO PUSH2 0x594 JUMPI PUSH1 0x0 DUP1 REVERT JUMPDEST POP PUSH2 0x1F2 PUSH2 0x5A3 CALLDATASIZE PUSH1 0x4 PUSH2 0x2DF6 JUMP JUMPDEST PUSH2 0x1D9B JUMP JUMPDEST CALLVALUE DUP1 ISZERO PUSH2 0x5B4 JUMPI PUSH1 0x0 DUP1 REVERT JUMPDEST POP PUSH2 0x227 PUSH2 0x5C3 CALLDATASIZE PUSH1 0x4 PUSH2 0x2DD9 JUMP JUMPDEST PUSH2 0x1E6B JUMP JUMPDEST PUSH1 0x0 PUSH1 0x1 PUSH1 0x1 PUSH1 0xE0 SHL SUB NOT DUP3 AND PUSH4 0x80AC58CD PUSH1 0xE0 SHL EQ DUP1 PUSH2 0x5F9 JUMPI POP PUSH1 0x1 PUSH1 0x1 PUSH1 0xE0 SHL SUB NOT DUP3 AND PUSH4 0x5B5E139F PUSH1 0xE0 SHL EQ JUMPDEST DUP1 PUSH2 0x614 JUMPI POP PUSH4 0x1FFC9A7 PUSH1 0xE0 SHL PUSH1 0x1 PUSH1 0x1 PUSH1 0xE0 SHL SUB NOT DUP4 AND EQ JUMPDEST SWAP3 SWAP2 POP POP JUMP JUMPDEST PUSH2 0x626 CALLER PUSH1 0xF SLOAD PUSH2 0x1F88 JUMP JUMPDEST PUSH2 0x633 DUP4 DUP4 PUSH1 0xF SLOAD PUSH2 0x1FA2 JUMP JUMPDEST PUSH1 0xF SLOAD PUSH1 0x0 SWAP1 DUP2 MSTORE PUSH1 0x11 PUSH1 0x20 SWAP1 DUP2 MSTORE PUSH1 0x40 SWAP1 SWAP2 KECCAK256 DUP5 MLOAD PUSH2 0x655 SWAP3 DUP7 ADD SWAP1 PUSH2 0x2CB3 JUMP JUMPDEST POP PUSH1 0xF DUP1 SLOAD PUSH1 0x0 SWAP1 DUP2 MSTORE PUSH1 0x12 PUSH1 0x20 SWAP1 DUP2 MSTORE PUSH1 0x40 DUP1 DUP4 KECCAK256 DUP7 SWAP1 SSTORE SWAP3 SLOAD DUP3 MSTORE PUSH1 0x14 DUP2 MSTORE SWAP2 SWAP1 KECCAK256 DUP3 MLOAD PUSH2 0x687 SWAP3 DUP5 ADD SWAP1 PUSH2 0x2CB3 JUMP JUMPDEST POP PUSH1 0xF DUP1 SLOAD SWAP1 PUSH1 0x0 PUSH2 0x698 DUP4 PUSH2 0x38BC JUMP JUMPDEST SWAP2 SWAP1 POP SSTORE POP POP POP POP JUMP JUMPDEST PUSH1 0x60 PUSH1 0x0 DUP1 SLOAD PUSH2 0x6B1 SWAP1 PUSH2 0x3881 JUMP JUMPDEST DUP1 PUSH1 0x1F ADD PUSH1 0x20 DUP1 SWAP2 DIV MUL PUSH1 0x20 ADD PUSH1 0x40 MLOAD SWAP1 DUP2 ADD PUSH1 0x40 MSTORE DUP1 SWAP3 SWAP2 SWAP1 DUP2 DUP2 MSTORE PUSH1 0x20 ADD DUP3 DUP1 SLOAD PUSH2 0x6DD SWAP1 PUSH2 0x3881 JUMP JUMPDEST DUP1 ISZERO PUSH2 0x72A JUMPI DUP1 PUSH1 0x1F LT PUSH2 0x6FF JUMPI PUSH2 0x100 DUP1 DUP4 SLOAD DIV MUL DUP4 MSTORE SWAP2 PUSH1 0x20 ADD SWAP2 PUSH2 0x72A JUMP JUMPDEST DUP3 ADD SWAP2 SWAP1 PUSH1 0x0 MSTORE PUSH1 0x20 PUSH1 0x0 KECCAK256 SWAP1 JUMPDEST DUP2 SLOAD DUP2 MSTORE SWAP1 PUSH1 0x1 ADD SWAP1 PUSH1 0x20 ADD DUP1 DUP4 GT PUSH2 0x70D JUMPI DUP3 SWAP1 SUB PUSH1 0x1F AND DUP3 ADD SWAP2 JUMPDEST POP POP POP POP POP SWAP1 POP SWAP1 JUMP JUMPDEST PUSH1 0x0 DUP2 DUP2 MSTORE PUSH1 0x2 PUSH1 0x20 MSTORE PUSH1 0x40 DUP2 KECCAK256 SLOAD PUSH1 0x1 PUSH1 0x1 PUSH1 0xA0 SHL SUB AND PUSH2 0x7B2 JUMPI PUSH1 0x40 MLOAD PUSH3 0x461BCD PUSH1 0xE5 SHL DUP2 MSTORE PUSH1 0x20 PUSH1 0x4 DUP3 ADD MSTORE PUSH1 0x2C PUSH1 0x24 DUP3 ADD MSTORE PUSH32 0x4552433732313A20617070726F76656420717565727920666F72206E6F6E6578 PUSH1 0x44 DUP3 ADD MSTORE PUSH12 0x34B9BA32B73A103A37B5B2B7 PUSH1 0xA1 SHL PUSH1 0x64 DUP3 ADD MSTORE PUSH1 0x84 ADD JUMPDEST PUSH1 0x40 MLOAD DUP1 SWAP2 SUB SWAP1 REVERT JUMPDEST POP PUSH1 0x0 SWAP1 DUP2 MSTORE PUSH1 0x4 PUSH1 0x20 MSTORE PUSH1 0x40 SWAP1 KECCAK256 SLOAD PUSH1 0x1 PUSH1 0x1 PUSH1 0xA0 SHL SUB AND SWAP1 JUMP JUMPDEST PUSH1 0x0 PUSH2 0x7D9 DUP3 PUSH2 0x1988 JUMP JUMPDEST SWAP1 POP DUP1 PUSH1 0x1 PUSH1 0x1 PUSH1 0xA0 SHL SUB AND DUP4 PUSH1 0x1 PUSH1 0x1 PUSH1 0xA0 SHL SUB AND EQ ISZERO PUSH2 0x847 JUMPI PUSH1 0x40 MLOAD PUSH3 0x461BCD PUSH1 0xE5 SHL DUP2 MSTORE PUSH1 0x20 PUSH1 0x4 DUP3 ADD MSTORE PUSH1 0x21 PUSH1 0x24 DUP3 ADD MSTORE PUSH32 0x4552433732313A20617070726F76616C20746F2063757272656E74206F776E65 PUSH1 0x44 DUP3 ADD MSTORE PUSH1 0x39 PUSH1 0xF9 SHL PUSH1 0x64 DUP3 ADD MSTORE PUSH1 0x84 ADD PUSH2 0x7A9 JUMP JUMPDEST DUP1 PUSH1 0x1 PUSH1 0x1 PUSH1 0xA0 SHL SUB AND PUSH2 0x859 PUSH2 0x213D JUMP JUMPDEST PUSH1 0x1 PUSH1 0x1 PUSH1 0xA0 SHL SUB AND EQ DUP1 PUSH2 0x875 JUMPI POP PUSH2 0x875 DUP2 PUSH2 0x5A3 PUSH2 0x213D JUMP JUMPDEST PUSH2 0x8E7 JUMPI PUSH1 0x40 MLOAD PUSH3 0x461BCD PUSH1 0xE5 SHL DUP2 MSTORE PUSH1 0x20 PUSH1 0x4 DUP3 ADD MSTORE PUSH1 0x38 PUSH1 0x24 DUP3 ADD MSTORE PUSH32 0x4552433732313A20617070726F76652063616C6C6572206973206E6F74206F77 PUSH1 0x44 DUP3 ADD MSTORE PUSH32 0x6E6572206E6F7220617070726F76656420666F7220616C6C0000000000000000 PUSH1 0x64 DUP3 ADD MSTORE PUSH1 0x84 ADD PUSH2 0x7A9 JUMP JUMPDEST PUSH2 0x8F1 DUP4 DUP4 PUSH2 0x2147 JUMP JUMPDEST POP POP POP JUMP JUMPDEST PUSH1 0x40 DUP1 MLOAD PUSH1 0x60 DUP2 DUP2 ADD DUP4 MSTORE PUSH1 0x1 PUSH1 0x1 PUSH1 0xA0 SHL SUB DUP9 AND PUSH1 0x0 DUP2 DUP2 MSTORE PUSH1 0x8 PUSH1 0x20 SWAP1 DUP2 MSTORE SWAP1 DUP6 SWAP1 KECCAK256 SLOAD DUP5 MSTORE DUP4 ADD MSTORE SWAP2 DUP2 ADD DUP7 SWAP1 MSTORE PUSH2 0x934 DUP8 DUP3 DUP8 DUP8 DUP8 PUSH2 0x21B5 JUMP JUMPDEST PUSH2 0x98A JUMPI PUSH1 0x40 MLOAD PUSH3 0x461BCD PUSH1 0xE5 SHL DUP2 MSTORE PUSH1 0x20 PUSH1 0x4 DUP3 ADD MSTORE PUSH1 0x21 PUSH1 0x24 DUP3 ADD MSTORE PUSH32 0x5369676E657220616E64207369676E617475726520646F206E6F74206D617463 PUSH1 0x44 DUP3 ADD MSTORE PUSH1 0xD PUSH1 0xFB SHL PUSH1 0x64 DUP3 ADD MSTORE PUSH1 0x84 ADD PUSH2 0x7A9 JUMP JUMPDEST PUSH1 0x1 PUSH1 0x1 PUSH1 0xA0 SHL SUB DUP8 AND PUSH1 0x0 SWAP1 DUP2 MSTORE PUSH1 0x8 PUSH1 0x20 MSTORE PUSH1 0x40 SWAP1 KECCAK256 SLOAD PUSH2 0x9AE SWAP1 PUSH1 0x1 PUSH2 0x22A5 JUMP JUMPDEST PUSH1 0x1 PUSH1 0x1 PUSH1 0xA0 SHL SUB DUP9 AND PUSH1 0x0 SWAP1 DUP2 MSTORE PUSH1 0x8 PUSH1 0x20 MSTORE PUSH1 0x40 SWAP1 DUP2 SWAP1 KECCAK256 SWAP2 SWAP1 SWAP2 SSTORE MLOAD PUSH32 0x5845892132946850460BFF5A0083F71031BC5BF9AADCD40F1DE79423EAC9B10B SWAP1 PUSH2 0x9FE SWAP1 DUP10 SWAP1 CALLER SWAP1 DUP11 SWAP1 PUSH2 0x3623 JUMP JUMPDEST PUSH1 0x40 MLOAD DUP1 SWAP2 SUB SWAP1 LOG1 PUSH1 0x0 DUP1 ADDRESS PUSH1 0x1 PUSH1 0x1 PUSH1 0xA0 SHL SUB AND DUP9 DUP11 PUSH1 0x40 MLOAD PUSH1 0x20 ADD PUSH2 0xA26 SWAP3 SWAP2 SWAP1 PUSH2 0x318D JUMP JUMPDEST PUSH1 0x40 DUP1 MLOAD PUSH1 0x1F NOT DUP2 DUP5 SUB ADD DUP2 MSTORE SWAP1 DUP3 SWAP1 MSTORE PUSH2 0xA40 SWAP2 PUSH2 0x3171 JUMP JUMPDEST PUSH1 0x0 PUSH1 0x40 MLOAD DUP1 DUP4 SUB DUP2 PUSH1 0x0 DUP7 GAS CALL SWAP2 POP POP RETURNDATASIZE DUP1 PUSH1 0x0 DUP2 EQ PUSH2 0xA7D JUMPI PUSH1 0x40 MLOAD SWAP2 POP PUSH1 0x1F NOT PUSH1 0x3F RETURNDATASIZE ADD AND DUP3 ADD PUSH1 0x40 MSTORE RETURNDATASIZE DUP3 MSTORE RETURNDATASIZE PUSH1 0x0 PUSH1 0x20 DUP5 ADD RETURNDATACOPY PUSH2 0xA82 JUMP JUMPDEST PUSH1 0x60 SWAP2 POP JUMPDEST POP SWAP2 POP SWAP2 POP DUP2 PUSH2 0xAD4 JUMPI PUSH1 0x40 MLOAD PUSH3 0x461BCD PUSH1 0xE5 SHL DUP2 MSTORE PUSH1 0x20 PUSH1 0x4 DUP3 ADD MSTORE PUSH1 0x1C PUSH1 0x24 DUP3 ADD MSTORE PUSH32 0x46756E6374696F6E2063616C6C206E6F74207375636365737366756C00000000 PUSH1 0x44 DUP3 ADD MSTORE PUSH1 0x64 ADD PUSH2 0x7A9 JUMP JUMPDEST SWAP9 SWAP8 POP POP POP POP POP POP POP POP JUMP JUMPDEST PUSH1 0x0 PUSH1 0x1 PUSH2 0xAED PUSH1 0xA SLOAD SWAP1 JUMP JUMPDEST PUSH2 0xAF7 SWAP2 SWAP1 PUSH2 0x383E JUMP JUMPDEST SWAP1 POP SWAP1 JUMP JUMPDEST PUSH2 0xB0D PUSH2 0xB07 PUSH2 0x213D JUMP JUMPDEST DUP3 PUSH2 0x22B8 JUMP JUMPDEST PUSH2 0xB29 JUMPI PUSH1 0x40 MLOAD PUSH3 0x461BCD PUSH1 0xE5 SHL DUP2 MSTORE PUSH1 0x4 ADD PUSH2 0x7A9 SWAP1 PUSH2 0x37A2 JUMP JUMPDEST PUSH2 0x8F1 DUP4 DUP4 DUP4 PUSH2 0x238E JUMP JUMPDEST PUSH2 0x8F1 DUP4 DUP4 DUP4 PUSH1 0x40 MLOAD DUP1 PUSH1 0x20 ADD PUSH1 0x40 MSTORE DUP1 PUSH1 0x0 DUP2 MSTORE POP PUSH2 0x1C50 JUMP JUMPDEST PUSH2 0xB58 DUP2 PUSH2 0x252A JUMP JUMPDEST POP JUMP JUMPDEST PUSH1 0x0 DUP2 DUP2 MSTORE PUSH1 0x11 PUSH1 0x20 MSTORE PUSH1 0x40 DUP2 KECCAK256 DUP1 SLOAD PUSH1 0x60 SWAP3 SWAP2 DUP4 SWAP2 PUSH2 0xB7A SWAP1 PUSH2 0x3881 JUMP JUMPDEST DUP1 PUSH1 0x1F ADD PUSH1 0x20 DUP1 SWAP2 DIV MUL PUSH1 0x20 ADD PUSH1 0x40 MLOAD SWAP1 DUP2 ADD PUSH1 0x40 MSTORE DUP1 SWAP3 SWAP2 SWAP1 DUP2 DUP2 MSTORE PUSH1 0x20 ADD DUP3 DUP1 SLOAD PUSH2 0xBA6 SWAP1 PUSH2 0x3881 JUMP JUMPDEST DUP1 ISZERO PUSH2 0xBF3 JUMPI DUP1 PUSH1 0x1F LT PUSH2 0xBC8 JUMPI PUSH2 0x100 DUP1 DUP4 SLOAD DIV MUL DUP4 MSTORE SWAP2 PUSH1 0x20 ADD SWAP2 PUSH2 0xBF3 JUMP JUMPDEST DUP3 ADD SWAP2 SWAP1 PUSH1 0x0 MSTORE PUSH1 0x20 PUSH1 0x0 KECCAK256 SWAP1 JUMPDEST DUP2 SLOAD DUP2 MSTORE SWAP1 PUSH1 0x1 ADD SWAP1 PUSH1 0x20 ADD DUP1 DUP4 GT PUSH2 0xBD6 JUMPI DUP3 SWAP1 SUB PUSH1 0x1F AND DUP3 ADD SWAP2 JUMPDEST POP POP POP PUSH1 0x0 DUP8 DUP2 MSTORE PUSH1 0x12 PUSH1 0x20 SWAP1 DUP2 MSTORE PUSH1 0x40 DUP1 DUP4 KECCAK256 SLOAD PUSH1 0x14 SWAP1 SWAP3 MSTORE SWAP1 SWAP2 KECCAK256 DUP1 SLOAD SWAP5 SWAP8 POP SWAP1 SWAP6 POP SWAP3 PUSH2 0xC25 SWAP3 POP SWAP1 POP PUSH2 0x3881 JUMP JUMPDEST DUP1 PUSH1 0x1F ADD PUSH1 0x20 DUP1 SWAP2 DIV MUL PUSH1 0x20 ADD PUSH1 0x40 MLOAD SWAP1 DUP2 ADD PUSH1 0x40 MSTORE DUP1 SWAP3 SWAP2 SWAP1 DUP2 DUP2 MSTORE PUSH1 0x20 ADD DUP3 DUP1 SLOAD PUSH2 0xC51 SWAP1 PUSH2 0x3881 JUMP JUMPDEST DUP1 ISZERO PUSH2 0xC9E JUMPI DUP1 PUSH1 0x1F LT PUSH2 0xC73 JUMPI PUSH2 0x100 DUP1 DUP4 SLOAD DIV MUL DUP4 MSTORE SWAP2 PUSH1 0x20 ADD SWAP2 PUSH2 0xC9E JUMP JUMPDEST DUP3 ADD SWAP2 SWAP1 PUSH1 0x0 MSTORE PUSH1 0x20 PUSH1 0x0 KECCAK256 SWAP1 JUMPDEST DUP2 SLOAD DUP2 MSTORE SWAP1 PUSH1 0x1 ADD SWAP1 PUSH1 0x20 ADD DUP1 DUP4 GT PUSH2 0xC81 JUMPI DUP3 SWAP1 SUB PUSH1 0x1F AND DUP3 ADD SWAP2 JUMPDEST POP POP POP POP POP SWAP1 POP SWAP2 SWAP4 SWAP1 SWAP3 POP JUMP JUMPDEST PUSH1 0x60 PUSH2 0xD08 PUSH1 0x40 MLOAD DUP1 PUSH2 0x140 ADD PUSH1 0x40 MSTORE DUP1 PUSH1 0x0 DUP2 MSTORE PUSH1 0x20 ADD PUSH1 0x0 DUP2 MSTORE PUSH1 0x20 ADD PUSH1 0x0 DUP2 MSTORE PUSH1 0x20 ADD PUSH1 0x0 DUP2 MSTORE PUSH1 0x20 ADD PUSH1 0x0 DUP2 MSTORE PUSH1 0x20 ADD PUSH1 0x0 DUP2 MSTORE PUSH1 0x20 ADD PUSH1 0x0 DUP2 MSTORE PUSH1 0x20 ADD PUSH1 0x0 DUP2 MSTORE PUSH1 0x20 ADD PUSH1 0x0 ISZERO ISZERO DUP2 MSTORE PUSH1 0x20 ADD PUSH1 0x0 ISZERO ISZERO DUP2 MSTORE POP SWAP1 JUMP JUMPDEST PUSH1 0x40 MLOAD DUP1 PUSH2 0x140 ADD PUSH1 0x40 MSTORE DUP1 PUSH2 0x2710 DUP2 MSTORE PUSH1 0x20 ADD PUSH2 0x2710 DUP2 MSTORE PUSH1 0x20 ADD PUSH2 0x2710 DUP2 MSTORE PUSH1 0x20 ADD PUSH2 0x2710 DUP2 MSTORE PUSH1 0x20 ADD PUSH2 0x2710 DUP2 MSTORE PUSH1 0x20 ADD PUSH2 0x2710 DUP2 MSTORE PUSH1 0x20 ADD PUSH1 0x0 DUP2 MSTORE PUSH1 0x20 ADD PUSH1 0x0 DUP2 MSTORE PUSH1 0x20 ADD PUSH1 0x1 ISZERO ISZERO DUP2 MSTORE PUSH1 0x20 ADD PUSH1 0x1 ISZERO ISZERO DUP2 MSTORE POP SWAP1 POP PUSH1 0x60 PUSH1 0x0 JUMPDEST PUSH1 0x0 DUP6 DUP2 MSTORE PUSH1 0x11 PUSH1 0x20 MSTORE PUSH1 0x40 SWAP1 KECCAK256 DUP1 SLOAD PUSH2 0xD82 SWAP1 PUSH2 0x3881 JUMP JUMPDEST SWAP1 POP DUP2 LT ISZERO PUSH2 0x1861 JUMPI PUSH1 0x0 DUP6 DUP2 MSTORE PUSH1 0x13 PUSH1 0x20 MSTORE PUSH1 0x40 SWAP1 KECCAK256 DUP1 SLOAD PUSH2 0xDC0 SWAP2 SWAP1 DUP4 SWAP1 DUP2 LT PUSH2 0xDB0 JUMPI PUSH2 0xDB0 PUSH2 0x3917 JUMP JUMPDEST SWAP1 PUSH1 0x0 MSTORE PUSH1 0x20 PUSH1 0x0 KECCAK256 ADD SLOAD PUSH2 0x1CF8 JUMP JUMPDEST PUSH1 0xC0 DUP6 ADD MSTORE ISZERO ISZERO PUSH2 0x100 DUP5 ADD MSTORE PUSH1 0x0 DUP6 DUP2 MSTORE PUSH1 0x13 PUSH1 0x20 MSTORE PUSH1 0x40 SWAP1 KECCAK256 DUP1 SLOAD PUSH2 0xE02 SWAP2 SWAP1 DUP4 SWAP1 DUP2 LT PUSH2 0xDF2 JUMPI PUSH2 0xDF2 PUSH2 0x3917 JUMP JUMPDEST SWAP1 PUSH1 0x0 MSTORE PUSH1 0x20 PUSH1 0x0 KECCAK256 ADD SLOAD PUSH2 0x1B6E JUMP JUMPDEST PUSH1 0xE0 DUP6 ADD MSTORE ISZERO ISZERO PUSH2 0x120 DUP5 ADD DUP2 SWAP1 MSTORE PUSH1 0x1 EQ ISZERO PUSH2 0xE26 JUMPI PUSH1 0x0 PUSH2 0x120 DUP5 ADD MSTORE PUSH2 0xE2F JUMP JUMPDEST PUSH1 0x1 PUSH2 0x120 DUP5 ADD MSTORE JUMPDEST PUSH2 0x100 DUP4 ADD MLOAD ISZERO ISZERO PUSH1 0x1 EQ ISZERO PUSH2 0xE4C JUMPI PUSH1 0x0 PUSH2 0x100 DUP5 ADD MSTORE PUSH2 0xE55 JUMP JUMPDEST PUSH1 0x1 PUSH2 0x100 DUP5 ADD MSTORE JUMPDEST PUSH1 0x5 PUSH1 0xD SLOAD DUP5 PUSH1 0xC0 ADD MLOAD PUSH1 0x64 PUSH2 0xE6B SWAP2 SWAP1 PUSH2 0x381F JUMP JUMPDEST PUSH2 0xE75 SWAP2 SWAP1 PUSH2 0x380B JUMP JUMPDEST PUSH1 0xD SLOAD PUSH1 0xC0 DUP7 ADD MLOAD PUSH2 0xE89 SWAP1 PUSH2 0x3E8 PUSH2 0x381F JUMP JUMPDEST PUSH2 0xE93 SWAP2 SWAP1 PUSH2 0x380B JUMP JUMPDEST PUSH2 0xE9D SWAP2 SWAP1 PUSH2 0x383E JUMP JUMPDEST PUSH2 0xEA8 SWAP1 PUSH1 0xA PUSH2 0x381F JUMP JUMPDEST LT PUSH2 0xEDF JUMPI PUSH1 0xD SLOAD PUSH1 0xC0 DUP5 ADD MLOAD PUSH2 0xEC0 SWAP1 PUSH1 0x64 PUSH2 0x381F JUMP JUMPDEST PUSH2 0xECA SWAP2 SWAP1 PUSH2 0x380B JUMP JUMPDEST PUSH2 0xED5 SWAP1 PUSH1 0x1 PUSH2 0x37F3 JUMP JUMPDEST PUSH1 0xC0 DUP5 ADD MSTORE PUSH2 0xF02 JUMP JUMPDEST PUSH1 0xD SLOAD PUSH1 0xC0 DUP5 ADD MLOAD PUSH2 0xEF2 SWAP1 PUSH1 0x64 PUSH2 0x381F JUMP JUMPDEST PUSH2 0xEFC SWAP2 SWAP1 PUSH2 0x380B JUMP JUMPDEST PUSH1 0xC0 DUP5 ADD MSTORE JUMPDEST PUSH1 0x5 PUSH1 0xD SLOAD DUP5 PUSH1 0xE0 ADD MLOAD PUSH1 0x64 PUSH2 0xF18 SWAP2 SWAP1 PUSH2 0x381F JUMP JUMPDEST PUSH2 0xF22 SWAP2 SWAP1 PUSH2 0x380B JUMP JUMPDEST PUSH1 0xD SLOAD PUSH1 0xE0 DUP7 ADD MLOAD PUSH2 0xF36 SWAP1 PUSH2 0x3E8 PUSH2 0x381F JUMP JUMPDEST PUSH2 0xF40 SWAP2 SWAP1 PUSH2 0x380B JUMP JUMPDEST PUSH2 0xF4A SWAP2 SWAP1 PUSH2 0x383E JUMP JUMPDEST PUSH2 0xF55 SWAP1 PUSH1 0xA PUSH2 0x381F JUMP JUMPDEST LT PUSH2 0xF8C JUMPI PUSH1 0xD SLOAD PUSH1 0xE0 DUP5 ADD MLOAD PUSH2 0xF6D SWAP1 PUSH1 0x64 PUSH2 0x381F JUMP JUMPDEST PUSH2 0xF77 SWAP2 SWAP1 PUSH2 0x380B JUMP JUMPDEST PUSH2 0xF82 SWAP1 PUSH1 0x1 PUSH2 0x37F3 JUMP JUMPDEST PUSH1 0xE0 DUP5 ADD MSTORE PUSH2 0xFAF JUMP JUMPDEST PUSH1 0xD SLOAD PUSH1 0xE0 DUP5 ADD MLOAD PUSH2 0xF9F SWAP1 PUSH1 0x64 PUSH2 0x381F JUMP JUMPDEST PUSH2 0xFA9 SWAP2 SWAP1 PUSH2 0x380B JUMP JUMPDEST PUSH1 0xE0 DUP5 ADD MSTORE JUMPDEST PUSH2 0x100 DUP4 ADD MLOAD ISZERO ISZERO PUSH1 0x1 EQ DUP1 ISZERO PUSH2 0xFCD JUMPI POP PUSH2 0x120 DUP4 ADD MLOAD ISZERO ISZERO PUSH1 0x1 EQ JUMPDEST ISZERO PUSH2 0x11CF JUMPI PUSH1 0x0 DUP6 DUP2 MSTORE PUSH1 0x11 PUSH1 0x20 MSTORE PUSH1 0x40 SWAP1 KECCAK256 DUP1 SLOAD DUP3 SWAP1 PUSH2 0xFED SWAP1 PUSH2 0x3881 JUMP JUMPDEST DUP2 LT PUSH2 0xFFB JUMPI PUSH2 0xFFB PUSH2 0x3917 JUMP JUMPDEST DUP2 SLOAD PUSH1 0x1 AND ISZERO PUSH2 0x101A JUMPI SWAP1 PUSH1 0x0 MSTORE PUSH1 0x20 PUSH1 0x0 KECCAK256 SWAP1 PUSH1 0x20 SWAP2 DUP3 DUP3 DIV ADD SWAP2 SWAP1 MOD JUMPDEST SWAP1 SLOAD SWAP1 BYTE PUSH1 0x1 PUSH1 0xF8 SHL MUL PUSH1 0x40 MLOAD PUSH1 0x20 ADD PUSH2 0x1034 SWAP2 SWAP1 PUSH2 0x315C JUMP JUMPDEST PUSH1 0x40 MLOAD PUSH1 0x20 DUP2 DUP4 SUB SUB DUP2 MSTORE SWAP1 PUSH1 0x40 MSTORE DUP1 MLOAD SWAP1 PUSH1 0x20 ADD KECCAK256 PUSH1 0x40 MLOAD PUSH1 0x20 ADD PUSH2 0x1061 SWAP1 PUSH1 0x23 PUSH1 0xF9 SHL DUP2 MSTORE PUSH1 0x1 ADD SWAP1 JUMP JUMPDEST PUSH1 0x40 MLOAD PUSH1 0x20 DUP2 DUP4 SUB SUB DUP2 MSTORE SWAP1 PUSH1 0x40 MSTORE DUP1 MLOAD SWAP1 PUSH1 0x20 ADD KECCAK256 EQ ISZERO PUSH2 0x10F2 JUMPI DUP2 PUSH2 0x108B DUP5 PUSH1 0xC0 ADD MLOAD PUSH2 0x25C5 JUMP JUMPDEST PUSH2 0x1098 DUP6 PUSH1 0xE0 ADD MLOAD PUSH2 0x25C5 JUMP JUMPDEST PUSH1 0x40 MLOAD PUSH1 0x20 ADD PUSH2 0x10AA SWAP4 SWAP3 SWAP2 SWAP1 PUSH2 0x33E7 JUMP JUMPDEST PUSH1 0x40 MLOAD PUSH1 0x20 DUP2 DUP4 SUB SUB DUP2 MSTORE SWAP1 PUSH1 0x40 MSTORE SWAP2 POP DUP3 PUSH1 0xC0 ADD MLOAD DUP4 PUSH1 0x0 ADD DUP2 DUP2 MLOAD PUSH2 0x10D1 SWAP2 SWAP1 PUSH2 0x37F3 JUMP JUMPDEST SWAP1 MSTORE POP PUSH1 0xE0 DUP4 ADD MLOAD PUSH1 0x60 DUP5 ADD DUP1 MLOAD PUSH2 0x10EA SWAP1 DUP4 SWAP1 PUSH2 0x37F3 JUMP JUMPDEST SWAP1 MSTORE POP PUSH2 0x17EF JUMP JUMPDEST PUSH1 0x0 DUP6 DUP2 MSTORE PUSH1 0x11 PUSH1 0x20 MSTORE PUSH1 0x40 SWAP1 KECCAK256 DUP1 SLOAD DUP3 SWAP1 PUSH2 0x110D SWAP1 PUSH2 0x3881 JUMP JUMPDEST DUP2 LT PUSH2 0x111B JUMPI PUSH2 0x111B PUSH2 0x3917 JUMP JUMPDEST DUP2 SLOAD PUSH1 0x1 AND ISZERO PUSH2 0x113A JUMPI SWAP1 PUSH1 0x0 MSTORE PUSH1 0x20 PUSH1 0x0 KECCAK256 SWAP1 PUSH1 0x20 SWAP2 DUP3 DUP3 DIV ADD SWAP2 SWAP1 MOD JUMPDEST SWAP1 SLOAD SWAP1 BYTE PUSH1 0x1 PUSH1 0xF8 SHL MUL PUSH1 0x40 MLOAD PUSH1 0x20 ADD PUSH2 0x1154 SWAP2 SWAP1 PUSH2 0x315C JUMP JUMPDEST PUSH1 0x40 MLOAD PUSH1 0x20 DUP2 DUP4 SUB SUB DUP2 MSTORE SWAP1 PUSH1 0x40 MSTORE DUP1 MLOAD SWAP1 PUSH1 0x20 ADD KECCAK256 PUSH1 0x40 MLOAD PUSH1 0x20 ADD PUSH2 0x1181 SWAP1 PUSH1 0x33 PUSH1 0xF9 SHL DUP2 MSTORE PUSH1 0x1 ADD SWAP1 JUMP JUMPDEST PUSH1 0x40 MLOAD PUSH1 0x20 DUP2 DUP4 SUB SUB DUP2 MSTORE SWAP1 PUSH1 0x40 MSTORE DUP1 MLOAD SWAP1 PUSH1 0x20 ADD KECCAK256 EQ ISZERO PUSH2 0x11CA JUMPI DUP2 PUSH2 0x11AB DUP5 PUSH1 0xC0 ADD MLOAD PUSH2 0x25C5 JUMP JUMPDEST PUSH2 0x11B8 DUP6 PUSH1 0xE0 ADD MLOAD PUSH2 0x25C5 JUMP JUMPDEST PUSH1 0x40 MLOAD PUSH1 0x20 ADD PUSH2 0x10AA SWAP4 SWAP3 SWAP2 SWAP1 PUSH2 0x32BE JUMP JUMPDEST PUSH2 0x17EF JUMP JUMPDEST PUSH2 0x100 DUP4 ADD MLOAD ISZERO ISZERO PUSH1 0x1 EQ DUP1 ISZERO PUSH2 0x11E9 JUMPI POP PUSH2 0x120 DUP4 ADD MLOAD ISZERO JUMPDEST ISZERO PUSH2 0x13DE JUMPI PUSH1 0x0 DUP6 DUP2 MSTORE PUSH1 0x11 PUSH1 0x20 MSTORE PUSH1 0x40 SWAP1 KECCAK256 DUP1 SLOAD DUP3 SWAP1 PUSH2 0x1209 SWAP1 PUSH2 0x3881 JUMP JUMPDEST DUP2 LT PUSH2 0x1217 JUMPI PUSH2 0x1217 PUSH2 0x3917 JUMP JUMPDEST DUP2 SLOAD PUSH1 0x1 AND ISZERO PUSH2 0x1236 JUMPI SWAP1 PUSH1 0x0 MSTORE PUSH1 0x20 PUSH1 0x0 KECCAK256 SWAP1 PUSH1 0x20 SWAP2 DUP3 DUP3 DIV ADD SWAP2 SWAP1 MOD JUMPDEST SWAP1 SLOAD SWAP1 BYTE PUSH1 0x1 PUSH1 0xF8 SHL MUL PUSH1 0x40 MLOAD PUSH1 0x20 ADD PUSH2 0x1250 SWAP2 SWAP1 PUSH2 0x315C JUMP JUMPDEST PUSH1 0x40 MLOAD PUSH1 0x20 DUP2 DUP4 SUB SUB DUP2 MSTORE SWAP1 PUSH1 0x40 MSTORE DUP1 MLOAD SWAP1 PUSH1 0x20 ADD KECCAK256 PUSH1 0x40 MLOAD PUSH1 0x20 ADD PUSH2 0x127D SWAP1 PUSH1 0x23 PUSH1 0xF9 SHL DUP2 MSTORE PUSH1 0x1 ADD SWAP1 JUMP JUMPDEST PUSH1 0x40 MLOAD PUSH1 0x20 DUP2 DUP4 SUB SUB DUP2 MSTORE SWAP1 PUSH1 0x40 MSTORE DUP1 MLOAD SWAP1 PUSH1 0x20 ADD KECCAK256 EQ ISZERO PUSH2 0x1306 JUMPI DUP2 PUSH2 0x12A7 DUP5 PUSH1 0xC0 ADD MLOAD PUSH2 0x25C5 JUMP JUMPDEST PUSH2 0x12B4 DUP6 PUSH1 0xE0 ADD MLOAD PUSH2 0x25C5 JUMP JUMPDEST PUSH1 0x40 MLOAD PUSH1 0x20 ADD PUSH2 0x12C6 SWAP4 SWAP3 SWAP2 SWAP1 PUSH2 0x3419 JUMP JUMPDEST PUSH1 0x40 MLOAD PUSH1 0x20 DUP2 DUP4 SUB SUB DUP2 MSTORE SWAP1 PUSH1 0x40 MSTORE SWAP2 POP DUP3 PUSH1 0xC0 ADD MLOAD DUP4 PUSH1 0x0 ADD DUP2 DUP2 MLOAD PUSH2 0x12ED SWAP2 SWAP1 PUSH2 0x37F3 JUMP JUMPDEST SWAP1 MSTORE POP PUSH1 0xE0 DUP4 ADD MLOAD PUSH1 0x60 DUP5 ADD DUP1 MLOAD PUSH2 0x10EA SWAP1 DUP4 SWAP1 PUSH2 0x383E JUMP JUMPDEST PUSH1 0x0 DUP6 DUP2 MSTORE PUSH1 0x11 PUSH1 0x20 MSTORE PUSH1 0x40 SWAP1 KECCAK256 DUP1 SLOAD DUP3 SWAP1 PUSH2 0x1321 SWAP1 PUSH2 0x3881 JUMP JUMPDEST DUP2 LT PUSH2 0x132F JUMPI PUSH2 0x132F PUSH2 0x3917 JUMP JUMPDEST DUP2 SLOAD PUSH1 0x1 AND ISZERO PUSH2 0x134E JUMPI SWAP1 PUSH1 0x0 MSTORE PUSH1 0x20 PUSH1 0x0 KECCAK256 SWAP1 PUSH1 0x20 SWAP2 DUP3 DUP3 DIV ADD SWAP2 SWAP1 MOD JUMPDEST SWAP1 SLOAD SWAP1 BYTE PUSH1 0x1 PUSH1 0xF8 SHL MUL PUSH1 0x40 MLOAD PUSH1 0x20 ADD PUSH2 0x1368 SWAP2 SWAP1 PUSH2 0x315C JUMP JUMPDEST PUSH1 0x40 MLOAD PUSH1 0x20 DUP2 DUP4 SUB SUB DUP2 MSTORE SWAP1 PUSH1 0x40 MSTORE DUP1 MLOAD SWAP1 PUSH1 0x20 ADD KECCAK256 PUSH1 0x40 MLOAD PUSH1 0x20 ADD PUSH2 0x1395 SWAP1 PUSH1 0x33 PUSH1 0xF9 SHL DUP2 MSTORE PUSH1 0x1 ADD SWAP1 JUMP JUMPDEST PUSH1 0x40 MLOAD PUSH1 0x20 DUP2 DUP4 SUB SUB DUP2 MSTORE SWAP1 PUSH1 0x40 MSTORE DUP1 MLOAD SWAP1 PUSH1 0x20 ADD KECCAK256 EQ ISZERO PUSH2 0x11CA JUMPI DUP2 PUSH2 0x13BF DUP5 PUSH1 0xC0 ADD MLOAD PUSH2 0x25C5 JUMP JUMPDEST PUSH2 0x13CC DUP6 PUSH1 0xE0 ADD MLOAD PUSH2 0x25C5 JUMP JUMPDEST PUSH1 0x40 MLOAD PUSH1 0x20 ADD PUSH2 0x12C6 SWAP4 SWAP3 SWAP2 SWAP1 PUSH2 0x3320 JUMP JUMPDEST PUSH2 0x100 DUP4 ADD MLOAD ISZERO DUP1 ISZERO PUSH2 0x13F8 JUMPI POP PUSH2 0x120 DUP4 ADD MLOAD ISZERO ISZERO PUSH1 0x1 EQ JUMPDEST ISZERO PUSH2 0x15D4 JUMPI PUSH1 0x0 DUP6 DUP2 MSTORE PUSH1 0x11 PUSH1 0x20 MSTORE PUSH1 0x40 SWAP1 KECCAK256 DUP1 SLOAD DUP3 SWAP1 PUSH2 0x1418 SWAP1 PUSH2 0x3881 JUMP JUMPDEST DUP2 LT PUSH2 0x1426 JUMPI PUSH2 0x1426 PUSH2 0x3917 JUMP JUMPDEST DUP2 SLOAD PUSH1 0x1 AND ISZERO PUSH2 0x1445 JUMPI SWAP1 PUSH1 0x0 MSTORE PUSH1 0x20 PUSH1 0x0 KECCAK256 SWAP1 PUSH1 0x20 SWAP2 DUP3 DUP3 DIV ADD SWAP2 SWAP1 MOD JUMPDEST SWAP1 SLOAD SWAP1 BYTE PUSH1 0x1 PUSH1 0xF8 SHL MUL PUSH1 0x40 MLOAD PUSH1 0x20 ADD PUSH2 0x145F SWAP2 SWAP1 PUSH2 0x315C JUMP JUMPDEST PUSH1 0x40 MLOAD PUSH1 0x20 DUP2 DUP4 SUB SUB DUP2 MSTORE SWAP1 PUSH1 0x40 MSTORE DUP1 MLOAD SWAP1 PUSH1 0x20 ADD KECCAK256 PUSH1 0x40 MLOAD PUSH1 0x20 ADD PUSH2 0x148C SWAP1 PUSH1 0x23 PUSH1 0xF9 SHL DUP2 MSTORE PUSH1 0x1 ADD SWAP1 JUMP JUMPDEST PUSH1 0x40 MLOAD PUSH1 0x20 DUP2 DUP4 SUB SUB DUP2 MSTORE SWAP1 PUSH1 0x40 MSTORE DUP1 MLOAD SWAP1 PUSH1 0x20 ADD KECCAK256 EQ ISZERO PUSH2 0x14FC JUMPI DUP2 PUSH2 0x14B6 DUP5 PUSH1 0xC0 ADD MLOAD PUSH2 0x25C5 JUMP JUMPDEST PUSH2 0x14C3 DUP6 PUSH1 0xE0 ADD MLOAD PUSH2 0x25C5 JUMP JUMPDEST PUSH1 0x40 MLOAD PUSH1 0x20 ADD PUSH2 0x14D5 SWAP4 SWAP3 SWAP2 SWAP1 PUSH2 0x344B JUMP JUMPDEST PUSH1 0x40 MLOAD PUSH1 0x20 DUP2 DUP4 SUB SUB DUP2 MSTORE SWAP1 PUSH1 0x40 MSTORE SWAP2 POP DUP3 PUSH1 0xC0 ADD MLOAD DUP4 PUSH1 0x0 ADD DUP2 DUP2 MLOAD PUSH2 0x10D1 SWAP2 SWAP1 PUSH2 0x383E JUMP JUMPDEST PUSH1 0x0 DUP6 DUP2 MSTORE PUSH1 0x11 PUSH1 0x20 MSTORE PUSH1 0x40 SWAP1 KECCAK256 DUP1 SLOAD DUP3 SWAP1 PUSH2 0x1517 SWAP1 PUSH2 0x3881 JUMP JUMPDEST DUP2 LT PUSH2 0x1525 JUMPI PUSH2 0x1525 PUSH2 0x3917 JUMP JUMPDEST DUP2 SLOAD PUSH1 0x1 AND ISZERO PUSH2 0x1544 JUMPI SWAP1 PUSH1 0x0 MSTORE PUSH1 0x20 PUSH1 0x0 KECCAK256 SWAP1 PUSH1 0x20 SWAP2 DUP3 DUP3 DIV ADD SWAP2 SWAP1 MOD JUMPDEST SWAP1 SLOAD SWAP1 BYTE PUSH1 0x1 PUSH1 0xF8 SHL MUL PUSH1 0x40 MLOAD PUSH1 0x20 ADD PUSH2 0x155E SWAP2 SWAP1 PUSH2 0x315C JUMP JUMPDEST PUSH1 0x40 MLOAD PUSH1 0x20 DUP2 DUP4 SUB SUB DUP2 MSTORE SWAP1 PUSH1 0x40 MSTORE DUP1 MLOAD SWAP1 PUSH1 0x20 ADD KECCAK256 PUSH1 0x40 MLOAD PUSH1 0x20 ADD PUSH2 0x158B SWAP1 PUSH1 0x33 PUSH1 0xF9 SHL DUP2 MSTORE PUSH1 0x1 ADD SWAP1 JUMP JUMPDEST PUSH1 0x40 MLOAD PUSH1 0x20 DUP2 DUP4 SUB SUB DUP2 MSTORE SWAP1 PUSH1 0x40 MSTORE DUP1 MLOAD SWAP1 PUSH1 0x20 ADD KECCAK256 EQ ISZERO PUSH2 0x11CA JUMPI DUP2 PUSH2 0x15B5 DUP5 PUSH1 0xC0 ADD MLOAD PUSH2 0x25C5 JUMP JUMPDEST PUSH2 0x15C2 DUP6 PUSH1 0xE0 ADD MLOAD PUSH2 0x25C5 JUMP JUMPDEST PUSH1 0x40 MLOAD PUSH1 0x20 ADD PUSH2 0x14D5 SWAP4 SWAP3 SWAP2 SWAP1 PUSH2 0x34F8 JUMP JUMPDEST PUSH1 0x0 DUP6 DUP2 MSTORE PUSH1 0x11 PUSH1 0x20 MSTORE PUSH1 0x40 SWAP1 KECCAK256 DUP1 SLOAD DUP3 SWAP1 PUSH2 0x15EF SWAP1 PUSH2 0x3881 JUMP JUMPDEST DUP2 LT PUSH2 0x15FD JUMPI PUSH2 0x15FD PUSH2 0x3917 JUMP JUMPDEST DUP2 SLOAD PUSH1 0x1 AND ISZERO PUSH2 0x161C JUMPI SWAP1 PUSH1 0x0 MSTORE PUSH1 0x20 PUSH1 0x0 KECCAK256 SWAP1 PUSH1 0x20 SWAP2 DUP3 DUP3 DIV ADD SWAP2 SWAP1 MOD JUMPDEST SWAP1 SLOAD SWAP1 BYTE PUSH1 0x1 PUSH1 0xF8 SHL MUL PUSH1 0x40 MLOAD PUSH1 0x20 ADD PUSH2 0x1636 SWAP2 SWAP1 PUSH2 0x315C JUMP JUMPDEST PUSH1 0x40 MLOAD PUSH1 0x20 DUP2 DUP4 SUB SUB DUP2 MSTORE SWAP1 PUSH1 0x40 MSTORE DUP1 MLOAD SWAP1 PUSH1 0x20 ADD KECCAK256 PUSH1 0x40 MLOAD PUSH1 0x20 ADD PUSH2 0x1663 SWAP1 PUSH1 0x23 PUSH1 0xF9 SHL DUP2 MSTORE PUSH1 0x1 ADD SWAP1 JUMP JUMPDEST PUSH1 0x40 MLOAD PUSH1 0x20 DUP2 DUP4 SUB SUB DUP2 MSTORE SWAP1 PUSH1 0x40 MSTORE DUP1 MLOAD SWAP1 PUSH1 0x20 ADD KECCAK256 EQ ISZERO PUSH2 0x16D3 JUMPI DUP2 PUSH2 0x168D DUP5 PUSH1 0xC0 ADD MLOAD PUSH2 0x25C5 JUMP JUMPDEST PUSH2 0x169A DUP6 PUSH1 0xE0 ADD MLOAD PUSH2 0x25C5 JUMP JUMPDEST PUSH1 0x40 MLOAD PUSH1 0x20 ADD PUSH2 0x16AC SWAP4 SWAP3 SWAP2 SWAP1 PUSH2 0x34A1 JUMP JUMPDEST PUSH1 0x40 MLOAD PUSH1 0x20 DUP2 DUP4 SUB SUB DUP2 MSTORE SWAP1 PUSH1 0x40 MSTORE SWAP2 POP DUP3 PUSH1 0xC0 ADD MLOAD DUP4 PUSH1 0x0 ADD DUP2 DUP2 MLOAD PUSH2 0x12ED SWAP2 SWAP1 PUSH2 0x383E JUMP JUMPDEST PUSH1 0x0 DUP6 DUP2 MSTORE PUSH1 0x11 PUSH1 0x20 MSTORE PUSH1 0x40 SWAP1 KECCAK256 DUP1 SLOAD DUP3 SWAP1 PUSH2 0x16EE SWAP1 PUSH2 0x3881 JUMP JUMPDEST DUP2 LT PUSH2 0x16FC JUMPI PUSH2 0x16FC PUSH2 0x3917 JUMP JUMPDEST DUP2 SLOAD PUSH1 0x1 AND ISZERO PUSH2 0x171B JUMPI SWAP1 PUSH1 0x0 MSTORE PUSH1 0x20 PUSH1 0x0 KECCAK256 SWAP1 PUSH1 0x20 SWAP2 DUP3 DUP3 DIV ADD SWAP2 SWAP1 MOD JUMPDEST SWAP1 SLOAD SWAP1 BYTE PUSH1 0x1 PUSH1 0xF8 SHL MUL PUSH1 0x40 MLOAD PUSH1 0x20 ADD PUSH2 0x1735 SWAP2 SWAP1 PUSH2 0x315C JUMP JUMPDEST PUSH1 0x40 MLOAD PUSH1 0x20 DUP2 DUP4 SUB SUB DUP2 MSTORE SWAP1 PUSH1 0x40 MSTORE DUP1 MLOAD SWAP1 PUSH1 0x20 ADD KECCAK256 PUSH1 0x40 MLOAD PUSH1 0x20 ADD PUSH2 0x1762 SWAP1 PUSH1 0x33 PUSH1 0xF9 SHL DUP2 MSTORE PUSH1 0x1 ADD SWAP1 JUMP JUMPDEST PUSH1 0x40 MLOAD PUSH1 0x20 DUP2 DUP4 SUB SUB DUP2 MSTORE SWAP1 PUSH1 0x40 MSTORE DUP1 MLOAD SWAP1 PUSH1 0x20 ADD KECCAK256 EQ ISZERO PUSH2 0x17EF JUMPI DUP2 PUSH2 0x178C DUP5 PUSH1 0xC0 ADD MLOAD PUSH2 0x25C5 JUMP JUMPDEST PUSH2 0x1799 DUP6 PUSH1 0xE0 ADD MLOAD PUSH2 0x25C5 JUMP JUMPDEST PUSH1 0x40 MLOAD PUSH1 0x20 ADD PUSH2 0x17AB SWAP4 SWAP3 SWAP2 SWAP1 PUSH2 0x352B JUMP JUMPDEST PUSH1 0x40 MLOAD PUSH1 0x20 DUP2 DUP4 SUB SUB DUP2 MSTORE SWAP1 PUSH1 0x40 MSTORE SWAP2 POP DUP3 PUSH1 0xC0 ADD MLOAD DUP4 PUSH1 0x0 ADD DUP2 DUP2 MLOAD PUSH2 0x17D2 SWAP2 SWAP1 PUSH2 0x383E JUMP JUMPDEST SWAP1 MSTORE POP PUSH1 0xE0 DUP4 ADD MLOAD PUSH1 0x60 DUP5 ADD DUP1 MLOAD PUSH2 0x17EB SWAP1 DUP4 SWAP1 PUSH2 0x383E JUMP JUMPDEST SWAP1 MSTORE POP JUMPDEST PUSH1 0x20 DUP4 ADD MLOAD DUP4 MLOAD GT ISZERO PUSH2 0x1804 JUMPI DUP3 MLOAD PUSH1 0x20 DUP5 ADD MSTORE JUMPDEST DUP3 PUSH1 0x80 ADD MLOAD DUP4 PUSH1 0x60 ADD MLOAD GT ISZERO PUSH2 0x181F JUMPI PUSH1 0x60 DUP4 ADD MLOAD PUSH1 0x80 DUP5 ADD MSTORE JUMPDEST PUSH1 0x40 DUP4 ADD MLOAD DUP4 MLOAD LT ISZERO PUSH2 0x1834 JUMPI DUP3 MLOAD PUSH1 0x40 DUP5 ADD MSTORE JUMPDEST DUP3 PUSH1 0xA0 ADD MLOAD DUP4 PUSH1 0x60 ADD MLOAD LT ISZERO PUSH2 0x184F JUMPI PUSH1 0x60 DUP4 ADD MLOAD PUSH1 0xA0 DUP5 ADD MSTORE JUMPDEST DUP1 PUSH2 0x1859 DUP2 PUSH2 0x38BC JUMP JUMPDEST SWAP2 POP POP PUSH2 0xD69 JUMP JUMPDEST POP PUSH1 0x0 PUSH1 0x40 MLOAD DUP1 PUSH1 0x40 ADD PUSH1 0x40 MSTORE DUP1 PUSH1 0x12 DUP2 MSTORE PUSH1 0x20 ADD PUSH18 0x1E39BB33903B34B2BBA137BC1E911810181 PUSH1 0x75 SHL DUP2 MSTORE POP SWAP1 POP DUP1 PUSH2 0x18B9 DUP5 PUSH1 0x40 ADD MLOAD DUP6 PUSH1 0x20 ADD MLOAD PUSH2 0x18A9 SWAP2 SWAP1 PUSH2 0x383E JUMP JUMPDEST PUSH2 0x18B4 SWAP1 PUSH1 0x64 PUSH2 0x37F3 JUMP JUMPDEST PUSH2 0x25C5 JUMP JUMPDEST PUSH2 0x18D0 DUP6 PUSH1 0xA0 ADD MLOAD DUP7 PUSH1 0x80 ADD MLOAD PUSH2 0x18A9 SWAP2 SWAP1 PUSH2 0x383E JUMP JUMPDEST PUSH1 0x0 DUP9 DUP2 MSTORE PUSH1 0x14 PUSH1 0x20 SWAP1 DUP2 MSTORE PUSH1 0x40 SWAP2 DUP3 SWAP1 KECCAK256 SWAP2 MLOAD PUSH2 0x18F2 SWAP6 SWAP5 SWAP4 SWAP3 SWAP2 ADD PUSH2 0x3208 JUMP JUMPDEST PUSH1 0x40 MLOAD PUSH1 0x20 DUP2 DUP4 SUB SUB DUP2 MSTORE SWAP1 PUSH1 0x40 MSTORE SWAP1 POP DUP1 PUSH2 0x1924 DUP5 PUSH1 0x40 ADD MLOAD PUSH2 0x2710 PUSH2 0x1919 SWAP2 SWAP1 PUSH2 0x383E JUMP JUMPDEST PUSH2 0x18B4 SWAP1 PUSH1 0x32 PUSH2 0x37F3 JUMP JUMPDEST PUSH2 0x1939 DUP6 PUSH1 0xA0 ADD MLOAD PUSH2 0x2710 PUSH2 0x1919 SWAP2 SWAP1 PUSH2 0x383E JUMP JUMPDEST PUSH1 0x40 MLOAD PUSH1 0x20 ADD PUSH2 0x194B SWAP4 SWAP3 SWAP2 SWAP1 PUSH2 0x3383 JUMP JUMPDEST PUSH1 0x40 MLOAD PUSH1 0x20 DUP2 DUP4 SUB SUB DUP2 MSTORE SWAP1 PUSH1 0x40 MSTORE SWAP1 POP DUP1 DUP3 PUSH1 0x40 MLOAD PUSH1 0x20 ADD PUSH2 0x196F SWAP3 SWAP2 SWAP1 PUSH2 0x31C4 JUMP JUMPDEST PUSH1 0x40 MLOAD PUSH1 0x20 DUP2 DUP4 SUB SUB DUP2 MSTORE SWAP1 PUSH1 0x40 MSTORE SWAP4 POP POP POP POP SWAP2 SWAP1 POP JUMP JUMPDEST PUSH1 0x0 DUP2 DUP2 MSTORE PUSH1 0x2 PUSH1 0x20 MSTORE PUSH1 0x40 DUP2 KECCAK256 SLOAD PUSH1 0x1 PUSH1 0x1 PUSH1 0xA0 SHL SUB AND DUP1 PUSH2 0x614 JUMPI PUSH1 0x40 MLOAD PUSH3 0x461BCD PUSH1 0xE5 SHL DUP2 MSTORE PUSH1 0x20 PUSH1 0x4 DUP3 ADD MSTORE PUSH1 0x29 PUSH1 0x24 DUP3 ADD MSTORE PUSH32 0x4552433732313A206F776E657220717565727920666F72206E6F6E6578697374 PUSH1 0x44 DUP3 ADD MSTORE PUSH9 0x32B73A103A37B5B2B7 PUSH1 0xB9 SHL PUSH1 0x64 DUP3 ADD MSTORE PUSH1 0x84 ADD PUSH2 0x7A9 JUMP JUMPDEST PUSH1 0x0 PUSH1 0x1 PUSH1 0x1 PUSH1 0xA0 SHL SUB DUP3 AND PUSH2 0x1A6A JUMPI PUSH1 0x40 MLOAD PUSH3 0x461BCD PUSH1 0xE5 SHL DUP2 MSTORE PUSH1 0x20 PUSH1 0x4 DUP3 ADD MSTORE PUSH1 0x2A PUSH1 0x24 DUP3 ADD MSTORE PUSH32 0x4552433732313A2062616C616E636520717565727920666F7220746865207A65 PUSH1 0x44 DUP3 ADD MSTORE PUSH10 0x726F2061646472657373 PUSH1 0xB0 SHL PUSH1 0x64 DUP3 ADD MSTORE PUSH1 0x84 ADD PUSH2 0x7A9 JUMP JUMPDEST POP PUSH1 0x1 PUSH1 0x1 PUSH1 0xA0 SHL SUB AND PUSH1 0x0 SWAP1 DUP2 MSTORE PUSH1 0x3 PUSH1 0x20 MSTORE PUSH1 0x40 SWAP1 KECCAK256 SLOAD SWAP1 JUMP JUMPDEST PUSH2 0x1A8E PUSH2 0x213D JUMP JUMPDEST PUSH1 0x1 PUSH1 0x1 PUSH1 0xA0 SHL SUB AND PUSH2 0x1AA9 PUSH1 0x9 SLOAD PUSH1 0x1 PUSH1 0x1 PUSH1 0xA0 SHL SUB AND SWAP1 JUMP JUMPDEST PUSH1 0x1 PUSH1 0x1 PUSH1 0xA0 SHL SUB AND EQ PUSH2 0x1ACF JUMPI PUSH1 0x40 MLOAD PUSH3 0x461BCD PUSH1 0xE5 SHL DUP2 MSTORE PUSH1 0x4 ADD PUSH2 0x7A9 SWAP1 PUSH2 0x376D JUMP JUMPDEST PUSH2 0x1AD9 PUSH1 0x0 PUSH2 0x26C3 JUMP JUMPDEST JUMP JUMPDEST PUSH2 0x1AE3 PUSH2 0x213D JUMP JUMPDEST PUSH1 0x1 PUSH1 0x1 PUSH1 0xA0 SHL SUB AND PUSH2 0x1AFE PUSH1 0x9 SLOAD PUSH1 0x1 PUSH1 0x1 PUSH1 0xA0 SHL SUB AND SWAP1 JUMP JUMPDEST PUSH1 0x1 PUSH1 0x1 PUSH1 0xA0 SHL SUB AND EQ PUSH2 0x1B24 JUMPI PUSH1 0x40 MLOAD PUSH3 0x461BCD PUSH1 0xE5 SHL DUP2 MSTORE PUSH1 0x4 ADD PUSH2 0x7A9 SWAP1 PUSH2 0x376D JUMP JUMPDEST PUSH1 0x0 PUSH2 0x1B2F PUSH1 0xA SLOAD SWAP1 JUMP JUMPDEST SWAP1 POP PUSH2 0x1B3F PUSH1 0xA DUP1 SLOAD PUSH1 0x1 ADD SWAP1 SSTORE JUMP JUMPDEST PUSH2 0x1B49 DUP3 DUP3 PUSH2 0x1F88 JUMP JUMPDEST POP POP JUMP JUMPDEST PUSH1 0x60 PUSH1 0x1 DUP1 SLOAD PUSH2 0x6B1 SWAP1 PUSH2 0x3881 JUMP JUMPDEST PUSH2 0x1B49 PUSH2 0x1B67 PUSH2 0x213D JUMP JUMPDEST DUP4 DUP4 PUSH2 0x2715 JUMP JUMPDEST PUSH1 0x0 DUP1 PUSH2 0x168 DUP4 GT ISZERO PUSH2 0x1B93 JUMPI PUSH1 0x40 MLOAD PUSH3 0x461BCD PUSH1 0xE5 SHL DUP2 MSTORE PUSH1 0x4 ADD PUSH2 0x7A9 SWAP1 PUSH2 0x3725 JUMP JUMPDEST PUSH1 0x2 PUSH1 0xC SLOAD PUSH2 0x1BA2 SWAP2 SWAP1 PUSH2 0x380B JUMP JUMPDEST DUP4 GT PUSH2 0x1BBE JUMPI POP POP PUSH1 0x0 SWAP1 DUP2 MSTORE PUSH1 0xE PUSH1 0x20 MSTORE PUSH1 0x40 SWAP1 KECCAK256 SLOAD PUSH1 0x1 SWAP2 JUMP JUMPDEST PUSH1 0xC SLOAD DUP4 GT PUSH2 0x1BEE JUMPI DUP3 PUSH1 0xC SLOAD PUSH2 0x1BD5 SWAP2 SWAP1 PUSH2 0x383E JUMP JUMPDEST PUSH1 0x0 SWAP1 DUP2 MSTORE PUSH1 0xE PUSH1 0x20 MSTORE PUSH1 0x40 DUP2 KECCAK256 SLOAD SWAP1 SWAP5 SWAP1 SWAP4 POP SWAP2 POP POP JUMP JUMPDEST PUSH1 0x2 PUSH1 0xC SLOAD PUSH1 0x3 PUSH2 0x1BFF SWAP2 SWAP1 PUSH2 0x381F JUMP JUMPDEST PUSH2 0x1C09 SWAP2 SWAP1 PUSH2 0x380B JUMP JUMPDEST DUP4 GT PUSH2 0x1C1C JUMPI PUSH1 0xC SLOAD PUSH2 0x1BD5 SWAP1 DUP5 PUSH2 0x383E JUMP JUMPDEST DUP3 PUSH1 0xC SLOAD PUSH1 0x2 PUSH2 0x1C2C SWAP2 SWAP1 PUSH2 0x381F JUMP JUMPDEST PUSH2 0x1C36 SWAP2 SWAP1 PUSH2 0x383E JUMP JUMPDEST PUSH1 0x0 SWAP1 DUP2 MSTORE PUSH1 0xE PUSH1 0x20 MSTORE PUSH1 0x40 SWAP1 KECCAK256 SLOAD PUSH1 0x1 SWAP5 SWAP1 SWAP4 POP SWAP2 POP POP JUMP JUMPDEST PUSH2 0x1C61 PUSH2 0x1C5B PUSH2 0x213D JUMP JUMPDEST DUP4 PUSH2 0x22B8 JUMP JUMPDEST PUSH2 0x1C7D JUMPI PUSH1 0x40 MLOAD PUSH3 0x461BCD PUSH1 0xE5 SHL DUP2 MSTORE PUSH1 0x4 ADD PUSH2 0x7A9 SWAP1 PUSH2 0x37A2 JUMP JUMPDEST PUSH2 0x1C89 DUP5 DUP5 DUP5 DUP5 PUSH2 0x27E4 JUMP JUMPDEST POP POP POP POP JUMP JUMPDEST PUSH1 0x60 PUSH1 0x0 PUSH2 0x1C9C DUP4 PUSH2 0xCAC JUMP JUMPDEST SWAP1 POP PUSH2 0x1CD1 PUSH1 0x10 PUSH2 0x1CAC DUP4 PUSH2 0x2817 JUMP JUMPDEST PUSH1 0x40 MLOAD PUSH1 0x20 ADD PUSH2 0x1CBD SWAP3 SWAP2 SWAP1 PUSH2 0x355E JUMP JUMPDEST PUSH1 0x40 MLOAD PUSH1 0x20 DUP2 DUP4 SUB SUB DUP2 MSTORE SWAP1 PUSH1 0x40 MSTORE PUSH2 0x2817 JUMP JUMPDEST PUSH1 0x40 MLOAD PUSH1 0x20 ADD PUSH2 0x1CE1 SWAP2 SWAP1 PUSH2 0x35DE JUMP JUMPDEST PUSH1 0x40 MLOAD PUSH1 0x20 DUP2 DUP4 SUB SUB DUP2 MSTORE SWAP1 PUSH1 0x40 MSTORE SWAP2 POP POP SWAP2 SWAP1 POP JUMP JUMPDEST PUSH1 0x0 DUP1 PUSH1 0xC SLOAD PUSH2 0x1D09 SWAP1 PUSH1 0x2 PUSH2 0x381F JUMP JUMPDEST DUP4 GT ISZERO PUSH2 0x1D28 JUMPI PUSH1 0x40 MLOAD PUSH3 0x461BCD PUSH1 0xE5 SHL DUP2 MSTORE PUSH1 0x4 ADD PUSH2 0x7A9 SWAP1 PUSH2 0x3725 JUMP JUMPDEST PUSH1 0x0 PUSH1 0x2 PUSH1 0xC SLOAD PUSH2 0x1D39 SWAP2 SWAP1 PUSH2 0x380B JUMP JUMPDEST SWAP1 POP PUSH1 0x2 PUSH1 0xC SLOAD PUSH2 0x1D4A SWAP2 SWAP1 PUSH2 0x380B JUMP JUMPDEST DUP5 GT ISZERO PUSH2 0x1D7B JUMPI PUSH1 0xC SLOAD PUSH2 0x1D5F SWAP1 PUSH1 0x2 PUSH2 0x381F JUMP JUMPDEST PUSH1 0x2 PUSH1 0xC SLOAD PUSH2 0x1D6E SWAP2 SWAP1 PUSH2 0x380B JUMP JUMPDEST PUSH2 0x1D78 SWAP2 SWAP1 PUSH2 0x37F3 JUMP JUMPDEST SWAP1 POP JUMPDEST PUSH2 0x1D85 DUP5 DUP3 PUSH2 0x383E JUMP JUMPDEST SWAP4 POP PUSH2 0x1D90 DUP5 PUSH2 0x1B6E JUMP JUMPDEST SWAP1 SWAP6 SWAP1 SWAP5 POP SWAP3 POP POP POP JUMP JUMPDEST PUSH1 0xB SLOAD PUSH1 0x40 MLOAD PUSH4 0xC4552791 PUSH1 0xE0 SHL DUP2 MSTORE PUSH1 0x1 PUSH1 0x1 PUSH1 0xA0 SHL SUB DUP5 DUP2 AND PUSH1 0x4 DUP4 ADD MSTORE PUSH1 0x0 SWAP3 DUP2 AND SWAP2 SWAP1 DUP5 AND SWAP1 DUP3 SWAP1 PUSH4 0xC4552791 SWAP1 PUSH1 0x24 ADD PUSH1 0x20 PUSH1 0x40 MLOAD DUP1 DUP4 SUB DUP2 DUP7 DUP1 EXTCODESIZE ISZERO DUP1 ISZERO PUSH2 0x1DE8 JUMPI PUSH1 0x0 DUP1 REVERT JUMPDEST POP GAS STATICCALL ISZERO DUP1 ISZERO PUSH2 0x1DFC JUMPI RETURNDATASIZE PUSH1 0x0 DUP1 RETURNDATACOPY RETURNDATASIZE PUSH1 0x0 REVERT JUMPDEST POP POP POP POP PUSH1 0x40 MLOAD RETURNDATASIZE PUSH1 0x1F NOT PUSH1 0x1F DUP3 ADD AND DUP3 ADD DUP1 PUSH1 0x40 MSTORE POP DUP2 ADD SWAP1 PUSH2 0x1E20 SWAP2 SWAP1 PUSH2 0x2FF3 JUMP JUMPDEST PUSH1 0x1 PUSH1 0x1 PUSH1 0xA0 SHL SUB AND EQ ISZERO PUSH2 0x1E39 JUMPI PUSH1 0x1 SWAP2 POP POP PUSH2 0x614 JUMP JUMPDEST PUSH1 0x1 PUSH1 0x1 PUSH1 0xA0 SHL SUB DUP1 DUP6 AND PUSH1 0x0 SWAP1 DUP2 MSTORE PUSH1 0x5 PUSH1 0x20 SWAP1 DUP2 MSTORE PUSH1 0x40 DUP1 DUP4 KECCAK256 SWAP4 DUP8 AND DUP4 MSTORE SWAP3 SWAP1 MSTORE KECCAK256 SLOAD PUSH1 0xFF AND JUMPDEST SWAP5 SWAP4 POP POP POP POP JUMP JUMPDEST PUSH2 0x1E73 PUSH2 0x213D JUMP JUMPDEST PUSH1 0x1 PUSH1 0x1 PUSH1 0xA0 SHL SUB AND PUSH2 0x1E8E PUSH1 0x9 SLOAD PUSH1 0x1 PUSH1 0x1 PUSH1 0xA0 SHL SUB AND SWAP1 JUMP JUMPDEST PUSH1 0x1 PUSH1 0x1 PUSH1 0xA0 SHL SUB AND EQ PUSH2 0x1EB4 JUMPI PUSH1 0x40 MLOAD PUSH3 0x461BCD PUSH1 0xE5 SHL DUP2 MSTORE PUSH1 0x4 ADD PUSH2 0x7A9 SWAP1 PUSH2 0x376D JUMP JUMPDEST PUSH1 0x1 PUSH1 0x1 PUSH1 0xA0 SHL SUB DUP2 AND PUSH2 0x1F19 JUMPI PUSH1 0x40 MLOAD PUSH3 0x461BCD PUSH1 0xE5 SHL DUP2 MSTORE PUSH1 0x20 PUSH1 0x4 DUP3 ADD MSTORE PUSH1 0x26 PUSH1 0x24 DUP3 ADD MSTORE PUSH32 0x4F776E61626C653A206E6577206F776E657220697320746865207A65726F2061 PUSH1 0x44 DUP3 ADD MSTORE PUSH6 0x646472657373 PUSH1 0xD0 SHL PUSH1 0x64 DUP3 ADD MSTORE PUSH1 0x84 ADD PUSH2 0x7A9 JUMP JUMPDEST PUSH2 0xB58 DUP2 PUSH2 0x26C3 JUMP JUMPDEST DUP1 SLOAD PUSH1 0x1 ADD SWAP1 SSTORE JUMP JUMPDEST PUSH1 0x0 CALLER ADDRESS EQ ISZERO PUSH2 0x1F82 JUMPI PUSH1 0x0 DUP1 CALLDATASIZE DUP1 DUP1 PUSH1 0x1F ADD PUSH1 0x20 DUP1 SWAP2 DIV MUL PUSH1 0x20 ADD PUSH1 0x40 MLOAD SWAP1 DUP2 ADD PUSH1 0x40 MSTORE DUP1 SWAP4 SWAP3 SWAP2 SWAP1 DUP2 DUP2 MSTORE PUSH1 0x20 ADD DUP4 DUP4 DUP1 DUP3 DUP5 CALLDATACOPY PUSH1 0x0 SWAP3 ADD SWAP2 SWAP1 SWAP2 MSTORE POP POP POP POP CALLDATASIZE ADD MLOAD PUSH1 0x1 PUSH1 0x1 PUSH1 0xA0 SHL SUB AND SWAP2 POP PUSH2 0x1F85 SWAP1 POP JUMP JUMPDEST POP CALLER JUMPDEST SWAP1 JUMP JUMPDEST PUSH2 0x1B49 DUP3 DUP3 PUSH1 0x40 MLOAD DUP1 PUSH1 0x20 ADD PUSH1 0x40 MSTORE DUP1 PUSH1 0x0 DUP2 MSTORE POP PUSH2 0x297D JUMP JUMPDEST PUSH1 0x0 DUP4 DUP2 JUMPDEST DUP2 MLOAD DUP2 LT ISZERO PUSH2 0x2135 JUMPI DUP2 DUP2 DUP2 MLOAD DUP2 LT PUSH2 0x1FC2 JUMPI PUSH2 0x1FC2 PUSH2 0x3917 JUMP JUMPDEST PUSH1 0x20 ADD ADD MLOAD PUSH1 0xF8 SHR PUSH1 0xF8 SHL PUSH1 0x40 MLOAD PUSH1 0x20 ADD PUSH2 0x1FDD SWAP2 SWAP1 PUSH2 0x315C JUMP JUMPDEST PUSH1 0x40 MLOAD PUSH1 0x20 DUP2 DUP4 SUB SUB DUP2 MSTORE SWAP1 PUSH1 0x40 MSTORE DUP1 MLOAD SWAP1 PUSH1 0x20 ADD KECCAK256 PUSH1 0x40 MLOAD PUSH1 0x20 ADD PUSH2 0x200A SWAP1 PUSH1 0x2B PUSH1 0xF8 SHL DUP2 MSTORE PUSH1 0x1 ADD SWAP1 JUMP JUMPDEST PUSH1 0x40 MLOAD PUSH1 0x20 DUP2 DUP4 SUB SUB DUP2 MSTORE SWAP1 PUSH1 0x40 MSTORE DUP1 MLOAD SWAP1 PUSH1 0x20 ADD KECCAK256 EQ ISZERO PUSH2 0x2052 JUMPI PUSH2 0x2030 DUP6 DUP5 PUSH2 0x37F3 JUMP JUMPDEST SWAP3 POP PUSH1 0xC SLOAD PUSH1 0x2 PUSH2 0x2041 SWAP2 SWAP1 PUSH2 0x381F JUMP JUMPDEST PUSH2 0x204B SWAP1 DUP5 PUSH2 0x38D7 JUMP JUMPDEST SWAP3 POP PUSH2 0x2102 JUMP JUMPDEST DUP2 DUP2 DUP2 MLOAD DUP2 LT PUSH2 0x2064 JUMPI PUSH2 0x2064 PUSH2 0x3917 JUMP JUMPDEST PUSH1 0x20 ADD ADD MLOAD PUSH1 0xF8 SHR PUSH1 0xF8 SHL PUSH1 0x40 MLOAD PUSH1 0x20 ADD PUSH2 0x207F SWAP2 SWAP1 PUSH2 0x315C JUMP JUMPDEST PUSH1 0x40 MLOAD PUSH1 0x20 DUP2 DUP4 SUB SUB DUP2 MSTORE SWAP1 PUSH1 0x40 MSTORE DUP1 MLOAD SWAP1 PUSH1 0x20 ADD KECCAK256 PUSH1 0x40 MLOAD PUSH1 0x20 ADD PUSH2 0x20AC SWAP1 PUSH1 0x2D PUSH1 0xF8 SHL DUP2 MSTORE PUSH1 0x1 ADD SWAP1 JUMP JUMPDEST PUSH1 0x40 MLOAD PUSH1 0x20 DUP2 DUP4 SUB SUB DUP2 MSTORE SWAP1 PUSH1 0x40 MSTORE DUP1 MLOAD SWAP1 PUSH1 0x20 ADD KECCAK256 EQ ISZERO PUSH2 0x2102 JUMPI DUP5 DUP4 LT ISZERO PUSH2 0x20F5 JUMPI DUP5 DUP4 PUSH1 0xC SLOAD PUSH1 0x2 PUSH2 0x20E1 SWAP2 SWAP1 PUSH2 0x381F JUMP JUMPDEST PUSH2 0x20EB SWAP2 SWAP1 PUSH2 0x37F3 JUMP JUMPDEST PUSH2 0x2030 SWAP2 SWAP1 PUSH2 0x383E JUMP JUMPDEST PUSH2 0x20FF DUP6 DUP5 PUSH2 0x383E JUMP JUMPDEST SWAP3 POP JUMPDEST PUSH1 0x0 DUP5 DUP2 MSTORE PUSH1 0x13 PUSH1 0x20 SWAP1 DUP2 MSTORE PUSH1 0x40 DUP3 KECCAK256 DUP1 SLOAD PUSH1 0x1 DUP2 ADD DUP3 SSTORE SWAP1 DUP4 MSTORE SWAP2 KECCAK256 ADD DUP4 SWAP1 SSTORE DUP1 PUSH2 0x212D DUP2 PUSH2 0x38BC JUMP JUMPDEST SWAP2 POP POP PUSH2 0x1FA7 JUMP JUMPDEST POP POP POP POP POP POP JUMP JUMPDEST PUSH1 0x0 PUSH2 0xAF7 PUSH2 0x1F2B JUMP JUMPDEST PUSH1 0x0 DUP2 DUP2 MSTORE PUSH1 0x4 PUSH1 0x20 MSTORE PUSH1 0x40 SWAP1 KECCAK256 DUP1 SLOAD PUSH1 0x1 PUSH1 0x1 PUSH1 0xA0 SHL SUB NOT AND PUSH1 0x1 PUSH1 0x1 PUSH1 0xA0 SHL SUB DUP5 AND SWAP1 DUP2 OR SWAP1 SWAP2 SSTORE DUP2 SWAP1 PUSH2 0x217C DUP3 PUSH2 0x1988 JUMP JUMPDEST PUSH1 0x1 PUSH1 0x1 PUSH1 0xA0 SHL SUB AND PUSH32 0x8C5BE1E5EBEC7D5BD14F71427D1E84F3DD0314C0F7B2291E5B200AC8C7C3B925 PUSH1 0x40 MLOAD PUSH1 0x40 MLOAD DUP1 SWAP2 SUB SWAP1 LOG4 POP POP JUMP JUMPDEST PUSH1 0x0 PUSH1 0x1 PUSH1 0x1 PUSH1 0xA0 SHL SUB DUP7 AND PUSH2 0x221B JUMPI PUSH1 0x40 MLOAD PUSH3 0x461BCD PUSH1 0xE5 SHL DUP2 MSTORE PUSH1 0x20 PUSH1 0x4 DUP3 ADD MSTORE PUSH1 0x25 PUSH1 0x24 DUP3 ADD MSTORE PUSH32 0x4E61746976654D6574615472616E73616374696F6E3A20494E56414C49445F53 PUSH1 0x44 DUP3 ADD MSTORE PUSH5 0x24A3A722A9 PUSH1 0xD9 SHL PUSH1 0x64 DUP3 ADD MSTORE PUSH1 0x84 ADD PUSH2 0x7A9 JUMP JUMPDEST PUSH1 0x1 PUSH2 0x222E PUSH2 0x2229 DUP8 PUSH2 0x29B0 JUMP JUMPDEST PUSH2 0x2A2D JUMP JUMPDEST PUSH1 0x40 DUP1 MLOAD PUSH1 0x0 DUP2 MSTORE PUSH1 0x20 DUP2 ADD DUP1 DUP4 MSTORE SWAP3 SWAP1 SWAP3 MSTORE PUSH1 0xFF DUP6 AND SWAP1 DUP3 ADD MSTORE PUSH1 0x60 DUP2 ADD DUP7 SWAP1 MSTORE PUSH1 0x80 DUP2 ADD DUP6 SWAP1 MSTORE PUSH1 0xA0 ADD PUSH1 0x20 PUSH1 0x40 MLOAD PUSH1 0x20 DUP2 SUB SWAP1 DUP1 DUP5 SUB SWAP1 DUP6 GAS STATICCALL ISZERO DUP1 ISZERO PUSH2 0x227C JUMPI RETURNDATASIZE PUSH1 0x0 DUP1 RETURNDATACOPY RETURNDATASIZE PUSH1 0x0 REVERT JUMPDEST POP POP POP PUSH1 0x20 PUSH1 0x40 MLOAD SUB MLOAD PUSH1 0x1 PUSH1 0x1 PUSH1 0xA0 SHL SUB AND DUP7 PUSH1 0x1 PUSH1 0x1 PUSH1 0xA0 SHL SUB AND EQ SWAP1 POP SWAP6 SWAP5 POP POP POP POP POP JUMP JUMPDEST PUSH1 0x0 PUSH2 0x22B1 DUP3 DUP5 PUSH2 0x37F3 JUMP JUMPDEST SWAP4 SWAP3 POP POP POP JUMP JUMPDEST PUSH1 0x0 DUP2 DUP2 MSTORE PUSH1 0x2 PUSH1 0x20 MSTORE PUSH1 0x40 DUP2 KECCAK256 SLOAD PUSH1 0x1 PUSH1 0x1 PUSH1 0xA0 SHL SUB AND PUSH2 0x2331 JUMPI PUSH1 0x40 MLOAD PUSH3 0x461BCD PUSH1 0xE5 SHL DUP2 MSTORE PUSH1 0x20 PUSH1 0x4 DUP3 ADD MSTORE PUSH1 0x2C PUSH1 0x24 DUP3 ADD MSTORE PUSH32 0x4552433732313A206F70657261746F7220717565727920666F72206E6F6E6578 PUSH1 0x44 DUP3 ADD MSTORE PUSH12 0x34B9BA32B73A103A37B5B2B7 PUSH1 0xA1 SHL PUSH1 0x64 DUP3 ADD MSTORE PUSH1 0x84 ADD PUSH2 0x7A9 JUMP JUMPDEST PUSH1 0x0 PUSH2 0x233C DUP4 PUSH2 0x1988 JUMP JUMPDEST SWAP1 POP DUP1 PUSH1 0x1 PUSH1 0x1 PUSH1 0xA0 SHL SUB AND DUP5 PUSH1 0x1 PUSH1 0x1 PUSH1 0xA0 SHL SUB AND EQ DUP1 PUSH2 0x2363 JUMPI POP PUSH2 0x2363 DUP2 DUP6 PUSH2 0x1D9B JUMP JUMPDEST DUP1 PUSH2 0x1E63 JUMPI POP DUP4 PUSH1 0x1 PUSH1 0x1 PUSH1 0xA0 SHL SUB AND PUSH2 0x237C DUP5 PUSH2 0x734 JUMP JUMPDEST PUSH1 0x1 PUSH1 0x1 PUSH1 0xA0 SHL SUB AND EQ SWAP5 SWAP4 POP POP POP POP JUMP JUMPDEST DUP3 PUSH1 0x1 PUSH1 0x1 PUSH1 0xA0 SHL SUB AND PUSH2 0x23A1 DUP3 PUSH2 0x1988 JUMP JUMPDEST PUSH1 0x1 PUSH1 0x1 PUSH1 0xA0 SHL SUB AND EQ PUSH2 0x2405 JUMPI PUSH1 0x40 MLOAD PUSH3 0x461BCD PUSH1 0xE5 SHL DUP2 MSTORE PUSH1 0x20 PUSH1 0x4 DUP3 ADD MSTORE PUSH1 0x25 PUSH1 0x24 DUP3 ADD MSTORE PUSH32 0x4552433732313A207472616E736665722066726F6D20696E636F727265637420 PUSH1 0x44 DUP3 ADD MSTORE PUSH5 0x37BBB732B9 PUSH1 0xD9 SHL PUSH1 0x64 DUP3 ADD MSTORE PUSH1 0x84 ADD PUSH2 0x7A9 JUMP JUMPDEST PUSH1 0x1 PUSH1 0x1 PUSH1 0xA0 SHL SUB DUP3 AND PUSH2 0x2467 JUMPI PUSH1 0x40 MLOAD PUSH3 0x461BCD PUSH1 0xE5 SHL DUP2 MSTORE PUSH1 0x20 PUSH1 0x4 DUP3 ADD MSTORE PUSH1 0x24 DUP1 DUP3 ADD MSTORE PUSH32 0x4552433732313A207472616E7366657220746F20746865207A65726F20616464 PUSH1 0x44 DUP3 ADD MSTORE PUSH4 0x72657373 PUSH1 0xE0 SHL PUSH1 0x64 DUP3 ADD MSTORE PUSH1 0x84 ADD PUSH2 0x7A9 JUMP JUMPDEST PUSH2 0x2472 PUSH1 0x0 DUP3 PUSH2 0x2147 JUMP JUMPDEST PUSH1 0x1 PUSH1 0x1 PUSH1 0xA0 SHL SUB DUP4 AND PUSH1 0x0 SWAP1 DUP2 MSTORE PUSH1 0x3 PUSH1 0x20 MSTORE PUSH1 0x40 DUP2 KECCAK256 DUP1 SLOAD PUSH1 0x1 SWAP3 SWAP1 PUSH2 0x249B SWAP1 DUP5 SWAP1 PUSH2 0x383E JUMP JUMPDEST SWAP1 SWAP2 SSTORE POP POP PUSH1 0x1 PUSH1 0x1 PUSH1 0xA0 SHL SUB DUP3 AND PUSH1 0x0 SWAP1 DUP2 MSTORE PUSH1 0x3 PUSH1 0x20 MSTORE PUSH1 0x40 DUP2 KECCAK256 DUP1 SLOAD PUSH1 0x1 SWAP3 SWAP1 PUSH2 0x24C9 SWAP1 DUP5 SWAP1 PUSH2 0x37F3 JUMP JUMPDEST SWAP1 SWAP2 SSTORE POP POP PUSH1 0x0 DUP2 DUP2 MSTORE PUSH1 0x2 PUSH1 0x20 MSTORE PUSH1 0x40 DUP1 DUP3 KECCAK256 DUP1 SLOAD PUSH1 0x1 PUSH1 0x1 PUSH1 0xA0 SHL SUB NOT AND PUSH1 0x1 PUSH1 0x1 PUSH1 0xA0 SHL SUB DUP7 DUP2 AND SWAP2 DUP3 OR SWAP1 SWAP3 SSTORE SWAP2 MLOAD DUP5 SWAP4 SWAP2 DUP8 AND SWAP2 PUSH32 0xDDF252AD1BE2C89B69C2B068FC378DAA952BA7F163C4A11628F55A4DF523B3EF SWAP2 LOG4 POP POP POP JUMP JUMPDEST PUSH1 0x0 PUSH2 0x2535 DUP3 PUSH2 0x1988 JUMP JUMPDEST SWAP1 POP PUSH2 0x2542 PUSH1 0x0 DUP4 PUSH2 0x2147 JUMP JUMPDEST PUSH1 0x1 PUSH1 0x1 PUSH1 0xA0 SHL SUB DUP2 AND PUSH1 0x0 SWAP1 DUP2 MSTORE PUSH1 0x3 PUSH1 0x20 MSTORE PUSH1 0x40 DUP2 KECCAK256 DUP1 SLOAD PUSH1 0x1 SWAP3 SWAP1 PUSH2 0x256B SWAP1 DUP5 SWAP1 PUSH2 0x383E JUMP JUMPDEST SWAP1 SWAP2 SSTORE POP POP PUSH1 0x0 DUP3 DUP2 MSTORE PUSH1 0x2 PUSH1 0x20 MSTORE PUSH1 0x40 DUP1 DUP3 KECCAK256 DUP1 SLOAD PUSH1 0x1 PUSH1 0x1 PUSH1 0xA0 SHL SUB NOT AND SWAP1 SSTORE MLOAD DUP4 SWAP2 SWAP1 PUSH1 0x1 PUSH1 0x1 PUSH1 0xA0 SHL SUB DUP5 AND SWAP1 PUSH32 0xDDF252AD1BE2C89B69C2B068FC378DAA952BA7F163C4A11628F55A4DF523B3EF SWAP1 DUP4 SWAP1 LOG4 POP POP JUMP JUMPDEST PUSH1 0x60 DUP2 PUSH2 0x25E9 JUMPI POP POP PUSH1 0x40 DUP1 MLOAD DUP1 DUP3 ADD SWAP1 SWAP2 MSTORE PUSH1 0x1 DUP2 MSTORE PUSH1 0x3 PUSH1 0xFC SHL PUSH1 0x20 DUP3 ADD MSTORE SWAP1 JUMP JUMPDEST DUP2 PUSH1 0x0 JUMPDEST DUP2 ISZERO PUSH2 0x2613 JUMPI DUP1 PUSH2 0x25FD DUP2 PUSH2 0x38BC JUMP JUMPDEST SWAP2 POP PUSH2 0x260C SWAP1 POP PUSH1 0xA DUP4 PUSH2 0x380B JUMP JUMPDEST SWAP2 POP PUSH2 0x25ED JUMP JUMPDEST PUSH1 0x0 DUP2 PUSH8 0xFFFFFFFFFFFFFFFF DUP2 GT ISZERO PUSH2 0x262E JUMPI PUSH2 0x262E PUSH2 0x392D JUMP JUMPDEST PUSH1 0x40 MLOAD SWAP1 DUP1 DUP3 MSTORE DUP1 PUSH1 0x1F ADD PUSH1 0x1F NOT AND PUSH1 0x20 ADD DUP3 ADD PUSH1 0x40 MSTORE DUP1 ISZERO PUSH2 0x2658 JUMPI PUSH1 0x20 DUP3 ADD DUP2 DUP1 CALLDATASIZE DUP4 CALLDATACOPY ADD SWAP1 POP JUMPDEST POP SWAP1 POP JUMPDEST DUP5 ISZERO PUSH2 0x1E63 JUMPI PUSH2 0x266D PUSH1 0x1 DUP4 PUSH2 0x383E JUMP JUMPDEST SWAP2 POP PUSH2 0x267A PUSH1 0xA DUP7 PUSH2 0x38D7 JUMP JUMPDEST PUSH2 0x2685 SWAP1 PUSH1 0x30 PUSH2 0x37F3 JUMP JUMPDEST PUSH1 0xF8 SHL DUP2 DUP4 DUP2 MLOAD DUP2 LT PUSH2 0x269A JUMPI PUSH2 0x269A PUSH2 0x3917 JUMP JUMPDEST PUSH1 0x20 ADD ADD SWAP1 PUSH1 0x1 PUSH1 0x1 PUSH1 0xF8 SHL SUB NOT AND SWAP1 DUP2 PUSH1 0x0 BYTE SWAP1 MSTORE8 POP PUSH2 0x26BC PUSH1 0xA DUP7 PUSH2 0x380B JUMP JUMPDEST SWAP5 POP PUSH2 0x265C JUMP JUMPDEST PUSH1 0x9 DUP1 SLOAD PUSH1 0x1 PUSH1 0x1 PUSH1 0xA0 SHL SUB DUP4 DUP2 AND PUSH1 0x1 PUSH1 0x1 PUSH1 0xA0 SHL SUB NOT DUP4 AND DUP2 OR SWAP1 SWAP4 SSTORE PUSH1 0x40 MLOAD SWAP2 AND SWAP2 SWAP1 DUP3 SWAP1 PUSH32 0x8BE0079C531659141344CD1FD0A4F28419497F9722A3DAAFE3B4186F6B6457E0 SWAP1 PUSH1 0x0 SWAP1 LOG3 POP POP JUMP JUMPDEST DUP2 PUSH1 0x1 PUSH1 0x1 PUSH1 0xA0 SHL SUB AND DUP4 PUSH1 0x1 PUSH1 0x1 PUSH1 0xA0 SHL SUB AND EQ ISZERO PUSH2 0x2777 JUMPI PUSH1 0x40 MLOAD PUSH3 0x461BCD PUSH1 0xE5 SHL DUP2 MSTORE PUSH1 0x20 PUSH1 0x4 DUP3 ADD MSTORE PUSH1 0x19 PUSH1 0x24 DUP3 ADD MSTORE PUSH32 0x4552433732313A20617070726F766520746F2063616C6C657200000000000000 PUSH1 0x44 DUP3 ADD MSTORE PUSH1 0x64 ADD PUSH2 0x7A9 JUMP JUMPDEST PUSH1 0x1 PUSH1 0x1 PUSH1 0xA0 SHL SUB DUP4 DUP2 AND PUSH1 0x0 DUP2 DUP2 MSTORE PUSH1 0x5 PUSH1 0x20 SWAP1 DUP2 MSTORE PUSH1 0x40 DUP1 DUP4 KECCAK256 SWAP5 DUP8 AND DUP1 DUP5 MSTORE SWAP5 DUP3 MSTORE SWAP2 DUP3 SWAP1 KECCAK256 DUP1 SLOAD PUSH1 0xFF NOT AND DUP7 ISZERO ISZERO SWAP1 DUP2 OR SWAP1 SWAP2 SSTORE SWAP2 MLOAD SWAP2 DUP3 MSTORE PUSH32 0x17307EAB39AB6107E8899845AD3D59BD9653F200F220920489CA2B5937696C31 SWAP2 ADD PUSH1 0x40 MLOAD DUP1 SWAP2 SUB SWAP1 LOG3 POP POP POP JUMP JUMPDEST PUSH2 0x27EF DUP5 DUP5 DUP5 PUSH2 0x238E JUMP JUMPDEST PUSH2 0x27FB DUP5 DUP5 DUP5 DUP5 PUSH2 0x2A5D JUMP JUMPDEST PUSH2 0x1C89 JUMPI PUSH1 0x40 MLOAD PUSH3 0x461BCD PUSH1 0xE5 SHL DUP2 MSTORE PUSH1 0x4 ADD PUSH2 0x7A9 SWAP1 PUSH2 0x36D3 JUMP JUMPDEST DUP1 MLOAD PUSH1 0x60 SWAP1 DUP1 PUSH2 0x2837 JUMPI POP POP PUSH1 0x40 DUP1 MLOAD PUSH1 0x20 DUP2 ADD SWAP1 SWAP2 MSTORE PUSH1 0x0 DUP2 MSTORE SWAP2 SWAP1 POP JUMP JUMPDEST PUSH1 0x0 PUSH1 0x3 PUSH2 0x2846 DUP4 PUSH1 0x2 PUSH2 0x37F3 JUMP JUMPDEST PUSH2 0x2850 SWAP2 SWAP1 PUSH2 0x380B JUMP JUMPDEST PUSH2 0x285B SWAP1 PUSH1 0x4 PUSH2 0x381F JUMP JUMPDEST SWAP1 POP PUSH1 0x0 PUSH2 0x286A DUP3 PUSH1 0x20 PUSH2 0x37F3 JUMP JUMPDEST PUSH8 0xFFFFFFFFFFFFFFFF DUP2 GT ISZERO PUSH2 0x2882 JUMPI PUSH2 0x2882 PUSH2 0x392D JUMP JUMPDEST PUSH1 0x40 MLOAD SWAP1 DUP1 DUP3 MSTORE DUP1 PUSH1 0x1F ADD PUSH1 0x1F NOT AND PUSH1 0x20 ADD DUP3 ADD PUSH1 0x40 MSTORE DUP1 ISZERO PUSH2 0x28AC JUMPI PUSH1 0x20 DUP3 ADD DUP2 DUP1 CALLDATASIZE DUP4 CALLDATACOPY ADD SWAP1 POP JUMPDEST POP SWAP1 POP PUSH1 0x0 PUSH1 0x40 MLOAD DUP1 PUSH1 0x60 ADD PUSH1 0x40 MSTORE DUP1 PUSH1 0x40 DUP2 MSTORE PUSH1 0x20 ADD PUSH2 0x39B2 PUSH1 0x40 SWAP2 CODECOPY SWAP1 POP PUSH1 0x1 DUP2 ADD PUSH1 0x20 DUP4 ADD PUSH1 0x0 JUMPDEST DUP7 DUP2 LT ISZERO PUSH2 0x2938 JUMPI PUSH1 0x3 DUP2 DUP11 ADD DUP2 ADD MLOAD PUSH1 0x3F PUSH1 0x12 DUP3 SWAP1 SHR DUP2 AND DUP7 ADD MLOAD PUSH1 0xC DUP4 SWAP1 SHR DUP3 AND DUP8 ADD MLOAD PUSH1 0x6 DUP5 SWAP1 SHR DUP4 AND DUP9 ADD MLOAD SWAP3 SWAP1 SWAP4 AND DUP8 ADD MLOAD PUSH1 0x8 SWAP2 DUP3 SHL PUSH1 0xFF SWAP5 DUP6 AND ADD DUP3 SHL SWAP3 DUP5 AND SWAP3 SWAP1 SWAP3 ADD SWAP1 SHL SWAP2 AND ADD PUSH1 0xE0 SHL DUP4 MSTORE PUSH1 0x4 SWAP1 SWAP3 ADD SWAP2 ADD PUSH2 0x28D7 JUMP JUMPDEST POP PUSH1 0x3 DUP7 MOD PUSH1 0x1 DUP2 EQ PUSH2 0x2952 JUMPI PUSH1 0x2 DUP2 EQ PUSH2 0x2963 JUMPI PUSH2 0x296F JUMP JUMPDEST PUSH2 0x3D3D PUSH1 0xF0 SHL PUSH1 0x1 NOT DUP4 ADD MSTORE PUSH2 0x296F JUMP JUMPDEST PUSH1 0x3D PUSH1 0xF8 SHL PUSH1 0x0 NOT DUP4 ADD MSTORE JUMPDEST POP POP POP SWAP2 DUP2 MSTORE SWAP5 SWAP4 POP POP POP POP JUMP JUMPDEST PUSH2 0x2987 DUP4 DUP4 PUSH2 0x2B71 JUMP JUMPDEST PUSH2 0x2994 PUSH1 0x0 DUP5 DUP5 DUP5 PUSH2 0x2A5D JUMP JUMPDEST PUSH2 0x8F1 JUMPI PUSH1 0x40 MLOAD PUSH3 0x461BCD PUSH1 0xE5 SHL DUP2 MSTORE PUSH1 0x4 ADD PUSH2 0x7A9 SWAP1 PUSH2 0x36D3 JUMP JUMPDEST PUSH1 0x0 PUSH1 0x40 MLOAD DUP1 PUSH1 0x80 ADD PUSH1 0x40 MSTORE DUP1 PUSH1 0x43 DUP2 MSTORE PUSH1 0x20 ADD PUSH2 0x396F PUSH1 0x43 SWAP2 CODECOPY DUP1 MLOAD PUSH1 0x20 SWAP2 DUP3 ADD KECCAK256 DUP4 MLOAD DUP5 DUP4 ADD MLOAD PUSH1 0x40 DUP1 DUP8 ADD MLOAD DUP1 MLOAD SWAP1 DUP7 ADD KECCAK256 SWAP1 MLOAD PUSH2 0x2A10 SWAP6 ADD SWAP4 DUP5 MSTORE PUSH1 0x20 DUP5 ADD SWAP3 SWAP1 SWAP3 MSTORE PUSH1 0x1 PUSH1 0x1 PUSH1 0xA0 SHL SUB AND PUSH1 0x40 DUP4 ADD MSTORE PUSH1 0x60 DUP3 ADD MSTORE PUSH1 0x80 ADD SWAP1 JUMP JUMPDEST PUSH1 0x40 MLOAD PUSH1 0x20 DUP2 DUP4 SUB SUB DUP2 MSTORE SWAP1 PUSH1 0x40 MSTORE DUP1 MLOAD SWAP1 PUSH1 0x20 ADD KECCAK256 SWAP1 POP SWAP2 SWAP1 POP JUMP JUMPDEST PUSH1 0x0 PUSH2 0x2A38 PUSH1 0x7 SLOAD SWAP1 JUMP JUMPDEST PUSH1 0x40 MLOAD PUSH2 0x1901 PUSH1 0xF0 SHL PUSH1 0x20 DUP3 ADD MSTORE PUSH1 0x22 DUP2 ADD SWAP2 SWAP1 SWAP2 MSTORE PUSH1 0x42 DUP2 ADD DUP4 SWAP1 MSTORE PUSH1 0x62 ADD PUSH2 0x2A10 JUMP JUMPDEST PUSH1 0x0 PUSH1 0x1 PUSH1 0x1 PUSH1 0xA0 SHL SUB DUP5 AND EXTCODESIZE ISZERO PUSH2 0x2B66 JUMPI DUP4 PUSH1 0x1 PUSH1 0x1 PUSH1 0xA0 SHL SUB AND PUSH4 0x150B7A02 PUSH2 0x2A86 PUSH2 0x213D JUMP JUMPDEST DUP8 DUP7 DUP7 PUSH1 0x40 MLOAD DUP6 PUSH4 0xFFFFFFFF AND PUSH1 0xE0 SHL DUP2 MSTORE PUSH1 0x4 ADD PUSH2 0x2AA8 SWAP5 SWAP4 SWAP3 SWAP2 SWAP1 PUSH2 0x3658 JUMP JUMPDEST PUSH1 0x20 PUSH1 0x40 MLOAD DUP1 DUP4 SUB DUP2 PUSH1 0x0 DUP8 DUP1 EXTCODESIZE ISZERO DUP1 ISZERO PUSH2 0x2AC2 JUMPI PUSH1 0x0 DUP1 REVERT JUMPDEST POP GAS CALL SWAP3 POP POP POP DUP1 ISZERO PUSH2 0x2AF2 JUMPI POP PUSH1 0x40 DUP1 MLOAD PUSH1 0x1F RETURNDATASIZE SWAP1 DUP2 ADD PUSH1 0x1F NOT AND DUP3 ADD SWAP1 SWAP3 MSTORE PUSH2 0x2AEF SWAP2 DUP2 ADD SWAP1 PUSH2 0x2FD6 JUMP JUMPDEST PUSH1 0x1 JUMPDEST PUSH2 0x2B4C JUMPI RETURNDATASIZE DUP1 DUP1 ISZERO PUSH2 0x2B20 JUMPI PUSH1 0x40 MLOAD SWAP2 POP PUSH1 0x1F NOT PUSH1 0x3F RETURNDATASIZE ADD AND DUP3 ADD PUSH1 0x40 MSTORE RETURNDATASIZE DUP3 MSTORE RETURNDATASIZE PUSH1 0x0 PUSH1 0x20 DUP5 ADD RETURNDATACOPY PUSH2 0x2B25 JUMP JUMPDEST PUSH1 0x60 SWAP2 POP JUMPDEST POP DUP1 MLOAD PUSH2 0x2B44 JUMPI PUSH1 0x40 MLOAD PUSH3 0x461BCD PUSH1 0xE5 SHL DUP2 MSTORE PUSH1 0x4 ADD PUSH2 0x7A9 SWAP1 PUSH2 0x36D3 JUMP JUMPDEST DUP1 MLOAD DUP2 PUSH1 0x20 ADD REVERT JUMPDEST PUSH1 0x1 PUSH1 0x1 PUSH1 0xE0 SHL SUB NOT AND PUSH4 0xA85BD01 PUSH1 0xE1 SHL EQ SWAP1 POP PUSH2 0x1E63 JUMP JUMPDEST POP PUSH1 0x1 SWAP5 SWAP4 POP POP POP POP JUMP JUMPDEST PUSH1 0x1 PUSH1 0x1 PUSH1 0xA0 SHL SUB DUP3 AND PUSH2 0x2BC7 JUMPI PUSH1 0x40 MLOAD PUSH3 0x461BCD PUSH1 0xE5 SHL DUP2 MSTORE PUSH1 0x20 PUSH1 0x4 DUP3 ADD DUP2 SWAP1 MSTORE PUSH1 0x24 DUP3 ADD MSTORE PUSH32 0x4552433732313A206D696E7420746F20746865207A65726F2061646472657373 PUSH1 0x44 DUP3 ADD MSTORE PUSH1 0x64 ADD PUSH2 0x7A9 JUMP JUMPDEST PUSH1 0x0 DUP2 DUP2 MSTORE PUSH1 0x2 PUSH1 0x20 MSTORE PUSH1 0x40 SWAP1 KECCAK256 SLOAD PUSH1 0x1 PUSH1 0x1 PUSH1 0xA0 SHL SUB AND ISZERO PUSH2 0x2C2C JUMPI PUSH1 0x40 MLOAD PUSH3 0x461BCD PUSH1 0xE5 SHL DUP2 MSTORE PUSH1 0x20 PUSH1 0x4 DUP3 ADD MSTORE PUSH1 0x1C PUSH1 0x24 DUP3 ADD MSTORE PUSH32 0x4552433732313A20746F6B656E20616C7265616479206D696E74656400000000 PUSH1 0x44 DUP3 ADD MSTORE PUSH1 0x64 ADD PUSH2 0x7A9 JUMP JUMPDEST PUSH1 0x1 PUSH1 0x1 PUSH1 0xA0 SHL SUB DUP3 AND PUSH1 0x0 SWAP1 DUP2 MSTORE PUSH1 0x3 PUSH1 0x20 MSTORE PUSH1 0x40 DUP2 KECCAK256 DUP1 SLOAD PUSH1 0x1 SWAP3 SWAP1 PUSH2 0x2C55 SWAP1 DUP5 SWAP1 PUSH2 0x37F3 JUMP JUMPDEST SWAP1 SWAP2 SSTORE POP POP PUSH1 0x0 DUP2 DUP2 MSTORE PUSH1 0x2 PUSH1 0x20 MSTORE PUSH1 0x40 DUP1 DUP3 KECCAK256 DUP1 SLOAD PUSH1 0x1 PUSH1 0x1 PUSH1 0xA0 SHL SUB NOT AND PUSH1 0x1 PUSH1 0x1 PUSH1 0xA0 SHL SUB DUP7 AND SWAP1 DUP2 OR SWAP1 SWAP2 SSTORE SWAP1 MLOAD DUP4 SWAP3 SWAP1 PUSH32 0xDDF252AD1BE2C89B69C2B068FC378DAA952BA7F163C4A11628F55A4DF523B3EF SWAP1 DUP3 SWAP1 LOG4 POP POP JUMP JUMPDEST DUP3 DUP1 SLOAD PUSH2 0x2CBF SWAP1 PUSH2 0x3881 JUMP JUMPDEST SWAP1 PUSH1 0x0 MSTORE PUSH1 0x20 PUSH1 0x0 KECCAK256 SWAP1 PUSH1 0x1F ADD PUSH1 0x20 SWAP1 DIV DUP2 ADD SWAP3 DUP3 PUSH2 0x2CE1 JUMPI PUSH1 0x0 DUP6 SSTORE PUSH2 0x2D27 JUMP JUMPDEST DUP3 PUSH1 0x1F LT PUSH2 0x2CFA JUMPI DUP1 MLOAD PUSH1 0xFF NOT AND DUP4 DUP1 ADD OR DUP6 SSTORE PUSH2 0x2D27 JUMP JUMPDEST DUP3 DUP1 ADD PUSH1 0x1 ADD DUP6 SSTORE DUP3 ISZERO PUSH2 0x2D27 JUMPI SWAP2 DUP3 ADD JUMPDEST DUP3 DUP2 GT ISZERO PUSH2 0x2D27 JUMPI DUP3 MLOAD DUP3 SSTORE SWAP2 PUSH1 0x20 ADD SWAP2 SWAP1 PUSH1 0x1 ADD SWAP1 PUSH2 0x2D0C JUMP JUMPDEST POP PUSH2 0x2D33 SWAP3 SWAP2 POP PUSH2 0x2D37 JUMP JUMPDEST POP SWAP1 JUMP JUMPDEST JUMPDEST DUP1 DUP3 GT ISZERO PUSH2 0x2D33 JUMPI PUSH1 0x0 DUP2 SSTORE PUSH1 0x1 ADD PUSH2 0x2D38 JUMP JUMPDEST PUSH1 0x0 DUP3 PUSH1 0x1F DUP4 ADD SLT PUSH2 0x2D5D JUMPI PUSH1 0x0 DUP1 REVERT JUMPDEST DUP2 CALLDATALOAD PUSH8 0xFFFFFFFFFFFFFFFF DUP1 DUP3 GT ISZERO PUSH2 0x2D78 JUMPI PUSH2 0x2D78 PUSH2 0x392D JUMP JUMPDEST PUSH1 0x40 MLOAD PUSH1 0x1F DUP4 ADD PUSH1 0x1F NOT SWAP1 DUP2 AND PUSH1 0x3F ADD AND DUP2 ADD SWAP1 DUP3 DUP3 GT DUP2 DUP4 LT OR ISZERO PUSH2 0x2DA0 JUMPI PUSH2 0x2DA0 PUSH2 0x392D JUMP JUMPDEST DUP2 PUSH1 0x40 MSTORE DUP4 DUP2 MSTORE DUP7 PUSH1 0x20 DUP6 DUP9 ADD ADD GT ISZERO PUSH2 0x2DB9 JUMPI PUSH1 0x0 DUP1 REVERT JUMPDEST DUP4 PUSH1 0x20 DUP8 ADD PUSH1 0x20 DUP4 ADD CALLDATACOPY PUSH1 0x0 PUSH1 0x20 DUP6 DUP4 ADD ADD MSTORE DUP1 SWAP5 POP POP POP POP POP SWAP3 SWAP2 POP POP JUMP JUMPDEST PUSH1 0x0 PUSH1 0x20 DUP3 DUP5 SUB SLT ISZERO PUSH2 0x2DEB JUMPI PUSH1 0x0 DUP1 REVERT JUMPDEST DUP2 CALLDATALOAD PUSH2 0x22B1 DUP2 PUSH2 0x3943 JUMP JUMPDEST PUSH1 0x0 DUP1 PUSH1 0x40 DUP4 DUP6 SUB SLT ISZERO PUSH2 0x2E09 JUMPI PUSH1 0x0 DUP1 REVERT JUMPDEST DUP3 CALLDATALOAD PUSH2 0x2E14 DUP2 PUSH2 0x3943 JUMP JUMPDEST SWAP2 POP PUSH1 0x20 DUP4 ADD CALLDATALOAD PUSH2 0x2E24 DUP2 PUSH2 0x3943 JUMP JUMPDEST DUP1 SWAP2 POP POP SWAP3 POP SWAP3 SWAP1 POP JUMP JUMPDEST PUSH1 0x0 DUP1 PUSH1 0x0 PUSH1 0x60 DUP5 DUP7 SUB SLT ISZERO PUSH2 0x2E44 JUMPI PUSH1 0x0 DUP1 REVERT JUMPDEST DUP4 CALLDATALOAD PUSH2 0x2E4F DUP2 PUSH2 0x3943 JUMP JUMPDEST SWAP3 POP PUSH1 0x20 DUP5 ADD CALLDATALOAD PUSH2 0x2E5F DUP2 PUSH2 0x3943 JUMP JUMPDEST SWAP3 SWAP6 SWAP3 SWAP5 POP POP POP PUSH1 0x40 SWAP2 SWAP1 SWAP2 ADD CALLDATALOAD SWAP1 JUMP JUMPDEST PUSH1 0x0 DUP1 PUSH1 0x0 DUP1 PUSH1 0x80 DUP6 DUP8 SUB SLT ISZERO PUSH2 0x2E86 JUMPI PUSH1 0x0 DUP1 REVERT JUMPDEST DUP5 CALLDATALOAD PUSH2 0x2E91 DUP2 PUSH2 0x3943 JUMP JUMPDEST SWAP4 POP PUSH1 0x20 DUP6 ADD CALLDATALOAD PUSH2 0x2EA1 DUP2 PUSH2 0x3943 JUMP JUMPDEST SWAP3 POP PUSH1 0x40 DUP6 ADD CALLDATALOAD SWAP2 POP PUSH1 0x60 DUP6 ADD CALLDATALOAD PUSH8 0xFFFFFFFFFFFFFFFF DUP2 GT ISZERO PUSH2 0x2EC4 JUMPI PUSH1 0x0 DUP1 REVERT JUMPDEST PUSH2 0x2ED0 DUP8 DUP3 DUP9 ADD PUSH2 0x2D4C JUMP JUMPDEST SWAP2 POP POP SWAP3 SWAP6 SWAP2 SWAP5 POP SWAP3 POP JUMP JUMPDEST PUSH1 0x0 DUP1 PUSH1 0x40 DUP4 DUP6 SUB SLT ISZERO PUSH2 0x2EEF JUMPI PUSH1 0x0 DUP1 REVERT JUMPDEST DUP3 CALLDATALOAD PUSH2 0x2EFA DUP2 PUSH2 0x3943 JUMP JUMPDEST SWAP2 POP PUSH1 0x20 DUP4 ADD CALLDATALOAD DUP1 ISZERO ISZERO DUP2 EQ PUSH2 0x2E24 JUMPI PUSH1 0x0 DUP1 REVERT JUMPDEST PUSH1 0x0 DUP1 PUSH1 0x0 DUP1 PUSH1 0x0 PUSH1 0xA0 DUP7 DUP9 SUB SLT ISZERO PUSH2 0x2F27 JUMPI PUSH1 0x0 DUP1 REVERT JUMPDEST DUP6 CALLDATALOAD PUSH2 0x2F32 DUP2 PUSH2 0x3943 JUMP JUMPDEST SWAP5 POP PUSH1 0x20 DUP7 ADD CALLDATALOAD PUSH8 0xFFFFFFFFFFFFFFFF DUP2 GT ISZERO PUSH2 0x2F4E JUMPI PUSH1 0x0 DUP1 REVERT JUMPDEST PUSH2 0x2F5A DUP9 DUP3 DUP10 ADD PUSH2 0x2D4C JUMP JUMPDEST SWAP5 POP POP PUSH1 0x40 DUP7 ADD CALLDATALOAD SWAP3 POP PUSH1 0x60 DUP7 ADD CALLDATALOAD SWAP2 POP PUSH1 0x80 DUP7 ADD CALLDATALOAD PUSH1 0xFF DUP2 AND DUP2 EQ PUSH2 0x2F7F JUMPI PUSH1 0x0 DUP1 REVERT JUMPDEST DUP1 SWAP2 POP POP SWAP3 SWAP6 POP SWAP3 SWAP6 SWAP1 SWAP4 POP JUMP JUMPDEST PUSH1 0x0 DUP1 PUSH1 0x40 DUP4 DUP6 SUB SLT ISZERO PUSH2 0x2FA0 JUMPI PUSH1 0x0 DUP1 REVERT JUMPDEST DUP3 CALLDATALOAD PUSH2 0x2FAB DUP2 PUSH2 0x3943 JUMP JUMPDEST SWAP5 PUSH1 0x20 SWAP4 SWAP1 SWAP4 ADD CALLDATALOAD SWAP4 POP POP POP JUMP JUMPDEST PUSH1 0x0 PUSH1 0x20 DUP3 DUP5 SUB SLT ISZERO PUSH2 0x2FCB JUMPI PUSH1 0x0 DUP1 REVERT JUMPDEST DUP2 CALLDATALOAD PUSH2 0x22B1 DUP2 PUSH2 0x3958 JUMP JUMPDEST PUSH1 0x0 PUSH1 0x20 DUP3 DUP5 SUB SLT ISZERO PUSH2 0x2FE8 JUMPI PUSH1 0x0 DUP1 REVERT JUMPDEST DUP2 MLOAD PUSH2 0x22B1 DUP2 PUSH2 0x3958 JUMP JUMPDEST PUSH1 0x0 PUSH1 0x20 DUP3 DUP5 SUB SLT ISZERO PUSH2 0x3005 JUMPI PUSH1 0x0 DUP1 REVERT JUMPDEST DUP2 MLOAD PUSH2 0x22B1 DUP2 PUSH2 0x3943 JUMP JUMPDEST PUSH1 0x0 DUP1 PUSH1 0x0 PUSH1 0x60 DUP5 DUP7 SUB SLT ISZERO PUSH2 0x3025 JUMPI PUSH1 0x0 DUP1 REVERT JUMPDEST DUP4 CALLDATALOAD PUSH8 0xFFFFFFFFFFFFFFFF DUP1 DUP3 GT ISZERO PUSH2 0x303D JUMPI PUSH1 0x0 DUP1 REVERT JUMPDEST PUSH2 0x3049 DUP8 DUP4 DUP9 ADD PUSH2 0x2D4C JUMP JUMPDEST SWAP5 POP PUSH1 0x20 DUP7 ADD CALLDATALOAD SWAP4 POP PUSH1 0x40 DUP7 ADD CALLDATALOAD SWAP2 POP DUP1 DUP3 GT ISZERO PUSH2 0x3066 JUMPI PUSH1 0x0 DUP1 REVERT JUMPDEST POP PUSH2 0x3073 DUP7 DUP3 DUP8 ADD PUSH2 0x2D4C JUMP JUMPDEST SWAP2 POP POP SWAP3 POP SWAP3 POP SWAP3 JUMP JUMPDEST PUSH1 0x0 PUSH1 0x20 DUP3 DUP5 SUB SLT ISZERO PUSH2 0x308F JUMPI PUSH1 0x0 DUP1 REVERT JUMPDEST POP CALLDATALOAD SWAP2 SWAP1 POP JUMP JUMPDEST PUSH1 0x0 DUP2 MLOAD DUP1 DUP5 MSTORE PUSH2 0x30AE DUP2 PUSH1 0x20 DUP7 ADD PUSH1 0x20 DUP7 ADD PUSH2 0x3855 JUMP JUMPDEST PUSH1 0x1F ADD PUSH1 0x1F NOT AND SWAP3 SWAP1 SWAP3 ADD PUSH1 0x20 ADD SWAP3 SWAP2 POP POP JUMP JUMPDEST DUP1 SLOAD PUSH1 0x0 SWAP1 PUSH1 0x1 DUP2 DUP2 SHR SWAP1 DUP1 DUP4 AND DUP1 PUSH2 0x30DC JUMPI PUSH1 0x7F DUP4 AND SWAP3 POP JUMPDEST PUSH1 0x20 DUP1 DUP5 LT DUP3 EQ ISZERO PUSH2 0x30FE JUMPI PUSH4 0x4E487B71 PUSH1 0xE0 SHL PUSH1 0x0 MSTORE PUSH1 0x22 PUSH1 0x4 MSTORE PUSH1 0x24 PUSH1 0x0 REVERT JUMPDEST DUP2 DUP1 ISZERO PUSH2 0x3112 JUMPI PUSH1 0x1 DUP2 EQ PUSH2 0x3123 JUMPI PUSH2 0x3150 JUMP JUMPDEST PUSH1 0xFF NOT DUP7 AND DUP10 MSTORE DUP5 DUP10 ADD SWAP7 POP PUSH2 0x3150 JUMP JUMPDEST PUSH1 0x0 DUP9 DUP2 MSTORE PUSH1 0x20 SWAP1 KECCAK256 PUSH1 0x0 JUMPDEST DUP7 DUP2 LT ISZERO PUSH2 0x3148 JUMPI DUP2 SLOAD DUP12 DUP3 ADD MSTORE SWAP1 DUP6 ADD SWAP1 DUP4 ADD PUSH2 0x312F JUMP JUMPDEST POP POP DUP5 DUP10 ADD SWAP7 POP JUMPDEST POP POP POP POP POP POP SWAP3 SWAP2 POP POP JUMP JUMPDEST PUSH1 0x1 PUSH1 0x1 PUSH1 0xF8 SHL SUB NOT SWAP2 SWAP1 SWAP2 AND DUP2 MSTORE PUSH1 0x1 ADD SWAP1 JUMP JUMPDEST PUSH1 0x0 DUP3 MLOAD PUSH2 0x3183 DUP2 DUP5 PUSH1 0x20 DUP8 ADD PUSH2 0x3855 JUMP JUMPDEST SWAP2 SWAP1 SWAP2 ADD SWAP3 SWAP2 POP POP JUMP JUMPDEST PUSH1 0x0 DUP4 MLOAD PUSH2 0x319F DUP2 DUP5 PUSH1 0x20 DUP9 ADD PUSH2 0x3855 JUMP JUMPDEST PUSH1 0x60 SWAP4 SWAP1 SWAP4 SHL PUSH12 0xFFFFFFFFFFFFFFFFFFFFFFFF NOT AND SWAP2 SWAP1 SWAP3 ADD SWAP1 DUP2 MSTORE PUSH1 0x14 ADD SWAP3 SWAP2 POP POP JUMP JUMPDEST PUSH1 0x0 DUP4 MLOAD PUSH2 0x31D6 DUP2 DUP5 PUSH1 0x20 DUP9 ADD PUSH2 0x3855 JUMP JUMPDEST DUP4 MLOAD SWAP1 DUP4 ADD SWAP1 PUSH2 0x31EA DUP2 DUP4 PUSH1 0x20 DUP9 ADD PUSH2 0x3855 JUMP JUMPDEST PUSH10 0x1110179F1E17B9BB339F PUSH1 0xB1 SHL SWAP2 ADD SWAP1 DUP2 MSTORE PUSH1 0xA ADD SWAP5 SWAP4 POP POP POP POP JUMP JUMPDEST PUSH1 0x0 DUP6 MLOAD PUSH2 0x321A DUP2 DUP5 PUSH1 0x20 DUP11 ADD PUSH2 0x3855 JUMP JUMPDEST DUP6 MLOAD SWAP1 DUP4 ADD SWAP1 PUSH2 0x322E DUP2 DUP4 PUSH1 0x20 DUP11 ADD PUSH2 0x3855 JUMP JUMPDEST PUSH1 0x1 PUSH1 0xFD SHL SWAP2 ADD SWAP1 DUP2 MSTORE DUP5 MLOAD PUSH2 0x324B DUP2 PUSH1 0x1 DUP5 ADD PUSH1 0x20 DUP10 ADD PUSH2 0x3855 JUMP JUMPDEST PUSH32 0x2220786D6C6E733D22687474703A2F2F7777772E77332E6F72672F323030302F PUSH1 0x1 SWAP3 SWAP1 SWAP2 ADD SWAP2 DUP3 ADD MSTORE PUSH32 0x737667223E3C706174682066696C6C3D226E6F6E6522207374726F6B653D2200 PUSH1 0x21 DUP3 ADD MSTORE PUSH2 0x32A9 PUSH1 0x40 DUP3 ADD DUP6 PUSH2 0x30C2 JUMP JUMPDEST PUSH1 0x11 PUSH1 0xF9 SHL DUP2 MSTORE PUSH1 0x1 ADD SWAP8 SWAP7 POP POP POP POP POP POP POP JUMP JUMPDEST PUSH1 0x0 DUP5 MLOAD PUSH2 0x32D0 DUP2 DUP5 PUSH1 0x20 DUP10 ADD PUSH2 0x3855 JUMP JUMPDEST PUSH3 0x10369 PUSH1 0xED SHL SWAP1 DUP4 ADD SWAP1 DUP2 MSTORE DUP5 MLOAD PUSH2 0x32F0 DUP2 PUSH1 0x3 DUP5 ADD PUSH1 0x20 DUP10 ADD PUSH2 0x3855 JUMP JUMPDEST PUSH2 0x161 PUSH1 0xF5 SHL PUSH1 0x3 SWAP3 SWAP1 SWAP2 ADD SWAP2 DUP3 ADD MSTORE DUP4 MLOAD PUSH2 0x3313 DUP2 PUSH1 0x5 DUP5 ADD PUSH1 0x20 DUP9 ADD PUSH2 0x3855 JUMP JUMPDEST ADD PUSH1 0x5 ADD SWAP6 SWAP5 POP POP POP POP POP JUMP JUMPDEST PUSH1 0x0 DUP5 MLOAD PUSH2 0x3332 DUP2 DUP5 PUSH1 0x20 DUP10 ADD PUSH2 0x3855 JUMP JUMPDEST PUSH3 0x10369 PUSH1 0xED SHL SWAP1 DUP4 ADD SWAP1 DUP2 MSTORE DUP5 MLOAD PUSH2 0x3352 DUP2 PUSH1 0x3 DUP5 ADD PUSH1 0x20 DUP10 ADD PUSH2 0x3855 JUMP JUMPDEST PUSH3 0x2C202D PUSH1 0xE8 SHL PUSH1 0x3 SWAP3 SWAP1 SWAP2 ADD SWAP2 DUP3 ADD MSTORE DUP4 MLOAD PUSH2 0x3376 DUP2 PUSH1 0x6 DUP5 ADD PUSH1 0x20 DUP9 ADD PUSH2 0x3855 JUMP JUMPDEST ADD PUSH1 0x6 ADD SWAP6 SWAP5 POP POP POP POP POP JUMP JUMPDEST PUSH1 0x0 DUP5 MLOAD PUSH2 0x3395 DUP2 DUP5 PUSH1 0x20 DUP10 ADD PUSH2 0x3855 JUMP JUMPDEST PUSH6 0x10321E91269 PUSH1 0xD5 SHL SWAP1 DUP4 ADD SWAP1 DUP2 MSTORE DUP5 MLOAD PUSH2 0x33B8 DUP2 PUSH1 0x6 DUP5 ADD PUSH1 0x20 DUP10 ADD PUSH2 0x3855 JUMP JUMPDEST PUSH1 0xB PUSH1 0xFA SHL PUSH1 0x6 SWAP3 SWAP1 SWAP2 ADD SWAP2 DUP3 ADD MSTORE DUP4 MLOAD PUSH2 0x33DA DUP2 PUSH1 0x7 DUP5 ADD PUSH1 0x20 DUP9 ADD PUSH2 0x3855 JUMP JUMPDEST ADD PUSH1 0x7 ADD SWAP6 SWAP5 POP POP POP POP POP JUMP JUMPDEST PUSH1 0x0 DUP5 MLOAD PUSH2 0x33F9 DUP2 DUP5 PUSH1 0x20 DUP10 ADD PUSH2 0x3855 JUMP JUMPDEST PUSH3 0x10361 PUSH1 0xED SHL SWAP1 DUP4 ADD SWAP1 DUP2 MSTORE DUP5 MLOAD PUSH2 0x32F0 DUP2 PUSH1 0x3 DUP5 ADD PUSH1 0x20 DUP10 ADD PUSH2 0x3855 JUMP JUMPDEST PUSH1 0x0 DUP5 MLOAD PUSH2 0x342B DUP2 DUP5 PUSH1 0x20 DUP10 ADD PUSH2 0x3855 JUMP JUMPDEST PUSH3 0x10361 PUSH1 0xED SHL SWAP1 DUP4 ADD SWAP1 DUP2 MSTORE DUP5 MLOAD PUSH2 0x3352 DUP2 PUSH1 0x3 DUP5 ADD PUSH1 0x20 DUP10 ADD PUSH2 0x3855 JUMP JUMPDEST PUSH1 0x0 DUP5 MLOAD PUSH2 0x345D DUP2 DUP5 PUSH1 0x20 DUP10 ADD PUSH2 0x3855 JUMP JUMPDEST PUSH4 0x206C202D PUSH1 0xE0 SHL SWAP1 DUP4 ADD SWAP1 DUP2 MSTORE DUP5 MLOAD PUSH2 0x347E DUP2 PUSH1 0x4 DUP5 ADD PUSH1 0x20 DUP10 ADD PUSH2 0x3855 JUMP JUMPDEST PUSH2 0x161 PUSH1 0xF5 SHL PUSH1 0x4 SWAP3 SWAP1 SWAP2 ADD SWAP2 DUP3 ADD MSTORE DUP4 MLOAD PUSH2 0x3376 DUP2 PUSH1 0x6 DUP5 ADD PUSH1 0x20 DUP9 ADD PUSH2 0x3855 JUMP JUMPDEST PUSH1 0x0 DUP5 MLOAD PUSH2 0x34B3 DUP2 DUP5 PUSH1 0x20 DUP10 ADD PUSH2 0x3855 JUMP JUMPDEST PUSH4 0x206C202D PUSH1 0xE0 SHL SWAP1 DUP4 ADD SWAP1 DUP2 MSTORE DUP5 MLOAD PUSH2 0x34D4 DUP2 PUSH1 0x4 DUP5 ADD PUSH1 0x20 DUP10 ADD PUSH2 0x3855 JUMP JUMPDEST PUSH3 0x2C202D PUSH1 0xE8 SHL PUSH1 0x4 SWAP3 SWAP1 SWAP2 ADD SWAP2 DUP3 ADD MSTORE DUP4 MLOAD PUSH2 0x33DA DUP2 PUSH1 0x7 DUP5 ADD PUSH1 0x20 DUP9 ADD PUSH2 0x3855 JUMP JUMPDEST PUSH1 0x0 DUP5 MLOAD PUSH2 0x350A DUP2 DUP5 PUSH1 0x20 DUP10 ADD PUSH2 0x3855 JUMP JUMPDEST PUSH4 0x206D202D PUSH1 0xE0 SHL SWAP1 DUP4 ADD SWAP1 DUP2 MSTORE DUP5 MLOAD PUSH2 0x347E DUP2 PUSH1 0x4 DUP5 ADD PUSH1 0x20 DUP10 ADD PUSH2 0x3855 JUMP JUMPDEST PUSH1 0x0 DUP5 MLOAD PUSH2 0x353D DUP2 DUP5 PUSH1 0x20 DUP10 ADD PUSH2 0x3855 JUMP JUMPDEST PUSH4 0x206D202D PUSH1 0xE0 SHL SWAP1 DUP4 ADD SWAP1 DUP2 MSTORE DUP5 MLOAD PUSH2 0x34D4 DUP2 PUSH1 0x4 DUP5 ADD PUSH1 0x20 DUP10 ADD PUSH2 0x3855 JUMP JUMPDEST PUSH10 0x3D913730B6B2911D1011 PUSH1 0xB1 SHL DUP2 MSTORE PUSH1 0x0 PUSH2 0x357D PUSH1 0xA DUP4 ADD DUP6 PUSH2 0x30C2 JUMP JUMPDEST PUSH32 0x222C2022696D616765223A2022646174613A696D6167652F7376672B786D6C3B DUP2 MSTORE PUSH7 0x18985CD94D8D0B PUSH1 0xCA SHL PUSH1 0x20 DUP3 ADD MSTORE DUP4 MLOAD PUSH2 0x35C3 DUP2 PUSH1 0x27 DUP5 ADD PUSH1 0x20 DUP9 ADD PUSH2 0x3855 JUMP JUMPDEST PUSH2 0x227D PUSH1 0xF0 SHL PUSH1 0x27 SWAP3 SWAP1 SWAP2 ADD SWAP2 DUP3 ADD MSTORE PUSH1 0x29 ADD SWAP5 SWAP4 POP POP POP POP JUMP JUMPDEST PUSH32 0x646174613A6170706C69636174696F6E2F6A736F6E3B6261736536342C000000 DUP2 MSTORE PUSH1 0x0 DUP3 MLOAD PUSH2 0x3616 DUP2 PUSH1 0x1D DUP6 ADD PUSH1 0x20 DUP8 ADD PUSH2 0x3855 JUMP JUMPDEST SWAP2 SWAP1 SWAP2 ADD PUSH1 0x1D ADD SWAP3 SWAP2 POP POP JUMP JUMPDEST PUSH1 0x1 PUSH1 0x1 PUSH1 0xA0 SHL SUB DUP5 DUP2 AND DUP3 MSTORE DUP4 AND PUSH1 0x20 DUP3 ADD MSTORE PUSH1 0x60 PUSH1 0x40 DUP3 ADD DUP2 SWAP1 MSTORE PUSH1 0x0 SWAP1 PUSH2 0x364F SWAP1 DUP4 ADD DUP5 PUSH2 0x3096 JUMP JUMPDEST SWAP6 SWAP5 POP POP POP POP POP JUMP JUMPDEST PUSH1 0x1 PUSH1 0x1 PUSH1 0xA0 SHL SUB DUP6 DUP2 AND DUP3 MSTORE DUP5 AND PUSH1 0x20 DUP3 ADD MSTORE PUSH1 0x40 DUP2 ADD DUP4 SWAP1 MSTORE PUSH1 0x80 PUSH1 0x60 DUP3 ADD DUP2 SWAP1 MSTORE PUSH1 0x0 SWAP1 PUSH2 0x368B SWAP1 DUP4 ADD DUP5 PUSH2 0x3096 JUMP JUMPDEST SWAP7 SWAP6 POP POP POP POP POP POP JUMP JUMPDEST PUSH1 0x20 DUP2 MSTORE PUSH1 0x0 PUSH2 0x22B1 PUSH1 0x20 DUP4 ADD DUP5 PUSH2 0x3096 JUMP JUMPDEST PUSH1 0x60 DUP2 MSTORE PUSH1 0x0 PUSH2 0x36BB PUSH1 0x60 DUP4 ADD DUP7 PUSH2 0x3096 JUMP JUMPDEST DUP5 PUSH1 0x20 DUP5 ADD MSTORE DUP3 DUP2 SUB PUSH1 0x40 DUP5 ADD MSTORE PUSH2 0x368B DUP2 DUP6 PUSH2 0x3096 JUMP JUMPDEST PUSH1 0x20 DUP1 DUP3 MSTORE PUSH1 0x32 SWAP1 DUP3 ADD MSTORE PUSH32 0x4552433732313A207472616E7366657220746F206E6F6E204552433732315265 PUSH1 0x40 DUP3 ADD MSTORE PUSH18 0x31B2B4BB32B91034B6B83632B6B2B73A32B9 PUSH1 0x71 SHL PUSH1 0x60 DUP3 ADD MSTORE PUSH1 0x80 ADD SWAP1 JUMP JUMPDEST PUSH1 0x20 DUP1 DUP3 MSTORE PUSH1 0x28 SWAP1 DUP3 ADD MSTORE PUSH32 0x506C656173652063686F6F7365205F646567726565206265747765656E203020 PUSH1 0x40 DUP3 ADD MSTORE PUSH8 0x30B73210199B1817 PUSH1 0xC1 SHL PUSH1 0x60 DUP3 ADD MSTORE PUSH1 0x80 ADD SWAP1 JUMP JUMPDEST PUSH1 0x20 DUP1 DUP3 MSTORE DUP2 DUP2 ADD MSTORE PUSH32 0x4F776E61626C653A2063616C6C6572206973206E6F7420746865206F776E6572 PUSH1 0x40 DUP3 ADD MSTORE PUSH1 0x60 ADD SWAP1 JUMP JUMPDEST PUSH1 0x20 DUP1 DUP3 MSTORE PUSH1 0x31 SWAP1 DUP3 ADD MSTORE PUSH32 0x4552433732313A207472616E736665722063616C6C6572206973206E6F74206F PUSH1 0x40 DUP3 ADD MSTORE PUSH17 0x1DDB995C881B9BDC88185C1C1C9BDD9959 PUSH1 0x7A SHL PUSH1 0x60 DUP3 ADD MSTORE PUSH1 0x80 ADD SWAP1 JUMP JUMPDEST PUSH1 0x0 DUP3 NOT DUP3 GT ISZERO PUSH2 0x3806 JUMPI PUSH2 0x3806 PUSH2 0x38EB JUMP JUMPDEST POP ADD SWAP1 JUMP JUMPDEST PUSH1 0x0 DUP3 PUSH2 0x381A JUMPI PUSH2 0x381A PUSH2 0x3901 JUMP JUMPDEST POP DIV SWAP1 JUMP JUMPDEST PUSH1 0x0 DUP2 PUSH1 0x0 NOT DIV DUP4 GT DUP3 ISZERO ISZERO AND ISZERO PUSH2 0x3839 JUMPI PUSH2 0x3839 PUSH2 0x38EB JUMP JUMPDEST POP MUL SWAP1 JUMP JUMPDEST PUSH1 0x0 DUP3 DUP3 LT ISZERO PUSH2 0x3850 JUMPI PUSH2 0x3850 PUSH2 0x38EB JUMP JUMPDEST POP SUB SWAP1 JUMP JUMPDEST PUSH1 0x0 JUMPDEST DUP4 DUP2 LT ISZERO PUSH2 0x3870 JUMPI DUP2 DUP2 ADD MLOAD DUP4 DUP3 ADD MSTORE PUSH1 0x20 ADD PUSH2 0x3858 JUMP JUMPDEST DUP4 DUP2 GT ISZERO PUSH2 0x1C89 JUMPI POP POP PUSH1 0x0 SWAP2 ADD MSTORE JUMP JUMPDEST PUSH1 0x1 DUP2 DUP2 SHR SWAP1 DUP3 AND DUP1 PUSH2 0x3895 JUMPI PUSH1 0x7F DUP3 AND SWAP2 POP JUMPDEST PUSH1 0x20 DUP3 LT DUP2 EQ ISZERO PUSH2 0x38B6 JUMPI PUSH4 0x4E487B71 PUSH1 0xE0 SHL PUSH1 0x0 MSTORE PUSH1 0x22 PUSH1 0x4 MSTORE PUSH1 0x24 PUSH1 0x0 REVERT JUMPDEST POP SWAP2 SWAP1 POP JUMP JUMPDEST PUSH1 0x0 PUSH1 0x0 NOT DUP3 EQ ISZERO PUSH2 0x38D0 JUMPI PUSH2 0x38D0 PUSH2 0x38EB JUMP JUMPDEST POP PUSH1 0x1 ADD SWAP1 JUMP JUMPDEST PUSH1 0x0 DUP3 PUSH2 0x38E6 JUMPI PUSH2 0x38E6 PUSH2 0x3901 JUMP JUMPDEST POP MOD SWAP1 JUMP JUMPDEST PUSH4 0x4E487B71 PUSH1 0xE0 SHL PUSH1 0x0 MSTORE PUSH1 0x11 PUSH1 0x4 MSTORE PUSH1 0x24 PUSH1 0x0 REVERT JUMPDEST PUSH4 0x4E487B71 PUSH1 0xE0 SHL PUSH1 0x0 MSTORE PUSH1 0x12 PUSH1 0x4 MSTORE PUSH1 0x24 PUSH1 0x0 REVERT JUMPDEST PUSH4 0x4E487B71 PUSH1 0xE0 SHL PUSH1 0x0 MSTORE PUSH1 0x32 PUSH1 0x4 MSTORE PUSH1 0x24 PUSH1 0x0 REVERT JUMPDEST PUSH4 0x4E487B71 PUSH1 0xE0 SHL PUSH1 0x0 MSTORE PUSH1 0x41 PUSH1 0x4 MSTORE PUSH1 0x24 PUSH1 0x0 REVERT JUMPDEST PUSH1 0x1 PUSH1 0x1 PUSH1 0xA0 SHL SUB DUP2 AND DUP2 EQ PUSH2 0xB58 JUMPI PUSH1 0x0 DUP1 REVERT JUMPDEST PUSH1 0x1 PUSH1 0x1 PUSH1 0xE0 SHL SUB NOT DUP2 AND DUP2 EQ PUSH2 0xB58 JUMPI PUSH1 0x0 DUP1 REVERT INVALID 0x4D PUSH6 0x74615472616E PUSH20 0x616374696F6E2875696E74323536206E6F6E6365 0x2C PUSH2 0x6464 PUSH19 0x6573732066726F6D2C62797465732066756E63 PUSH21 0x696F6E5369676E6174757265294142434445464748 0x49 0x4A 0x4B 0x4C 0x4D 0x4E 0x4F POP MLOAD MSTORE MSTORE8 SLOAD SSTORE JUMP JUMPI PC MSIZE GAS PUSH2 0x6263 PUSH5 0x6566676869 PUSH11 0x6B6C6D6E6F707172737475 PUSH23 0x7778797A303132333435363738392B2FA2646970667358 0x22 SLT KECCAK256 EQ CREATE2 0x2B PUSH14 0x7D848B8D777B0AFF917A892B08EE DUP11 0xF9 PUSH4 0x4D380178 0xBF JUMP SWAP9 0x2A PUSH8 0x48E64736F6C6343 STOP ADDMOD SMOD STOP CALLER GASLIMIT 0x49 POP CALLDATACOPY BALANCE ORIGIN DIFFICULTY PUSH16 0x6D61696E28737472696E67206E616D65 0x2C PUSH20 0x7472696E672076657273696F6E2C616464726573 PUSH20 0x20766572696679696E67436F6E74726163742C62 PUSH26 0x74657333322073616C7429000000000000000000000000000000 "
		},
		"gasEstimates": {
			"creation": {
				"codeDepositCost": "2977400",
				"executionCost": "infinite",
				"totalCost": "infinite"
			},
			"external": {
				"ERC712_VERSION()": "infinite",
				"approve(address,uint256)": "infinite",
				"balanceOf(address)": "2628",
				"burn(uint256)": "infinite",
				"cos(uint256)": "infinite",
				"counter()": "2363",
				"createSVG(uint256)": "infinite",
				"executeMetaTransaction(address,bytes,bytes32,bytes32,uint8)": "infinite",
				"getApproved(uint256)": "4738",
				"getChainId()": "236",
				"getDomainSeperator()": "2360",
				"getNonce(address)": "2643",
				"isApprovedForAll(address,address)": "infinite",
				"mint(string,uint256,string)": "infinite",
				"mintTo(address)": "infinite",
				"name()": "infinite",
				"owner()": "2442",
				"ownerOf(uint256)": "2646",
				"renounceOwnership()": "infinite",
				"safeTransferFrom(address,address,uint256)": "infinite",
				"safeTransferFrom(address,address,uint256,bytes)": "infinite",
				"setApprovalForAll(address,bool)": "infinite",
				"showInitialValue(uint256)": "infinite",
				"sin(uint256)": "infinite",
				"supportsInterface(bytes4)": "557",
				"symbol()": "infinite",
				"tokenURI(uint256)": "infinite",
				"totalSupply()": "2446",
				"transferFrom(address,address,uint256)": "infinite",
				"transferOwnership(address)": "infinite"
			},
			"internal": {
				"_index2degree(string memory,uint256,uint256)": "infinite"
			}
		},
		"methodIdentifiers": {
			"ERC712_VERSION()": "0f7e5970",
			"approve(address,uint256)": "095ea7b3",
			"balanceOf(address)": "70a08231",
			"burn(uint256)": "42966c68",
			"cos(uint256)": "a58b00ba",
			"counter()": "61bc221a",
			"createSVG(uint256)": "4e4007f0",
			"executeMetaTransaction(address,bytes,bytes32,bytes32,uint8)": "0c53c51c",
			"getApproved(uint256)": "081812fc",
			"getChainId()": "3408e470",
			"getDomainSeperator()": "20379ee5",
			"getNonce(address)": "2d0335ab",
			"isApprovedForAll(address,address)": "e985e9c5",
			"mint(string,uint256,string)": "06bdc949",
			"mintTo(address)": "755edd17",
			"name()": "06fdde03",
			"owner()": "8da5cb5b",
			"ownerOf(uint256)": "6352211e",
			"renounceOwnership()": "715018a6",
			"safeTransferFrom(address,address,uint256)": "42842e0e",
			"safeTransferFrom(address,address,uint256,bytes)": "b88d4fde",
			"setApprovalForAll(address,bool)": "a22cb465",
			"showInitialValue(uint256)": "4af4f341",
			"sin(uint256)": "cb5cc109",
			"supportsInterface(bytes4)": "01ffc9a7",
			"symbol()": "95d89b41",
			"tokenURI(uint256)": "c87b56dd",
			"totalSupply()": "18160ddd",
			"transferFrom(address,address,uint256)": "23b872dd",
			"transferOwnership(address)": "f2fde38b"
		}
	},
	"abi": [
		{
			"inputs": [],
			"stateMutability": "nonpayable",
			"type": "constructor"
		},
		{
			"anonymous": false,
			"inputs": [
				{
					"indexed": true,
					"internalType": "address",
					"name": "owner",
					"type": "address"
				},
				{
					"indexed": true,
					"internalType": "address",
					"name": "approved",
					"type": "address"
				},
				{
					"indexed": true,
					"internalType": "uint256",
					"name": "tokenId",
					"type": "uint256"
				}
			],
			"name": "Approval",
			"type": "event"
		},
		{
			"anonymous": false,
			"inputs": [
				{
					"indexed": true,
					"internalType": "address",
					"name": "owner",
					"type": "address"
				},
				{
					"indexed": true,
					"internalType": "address",
					"name": "operator",
					"type": "address"
				},
				{
					"indexed": false,
					"internalType": "bool",
					"name": "approved",
					"type": "bool"
				}
			],
			"name": "ApprovalForAll",
			"type": "event"
		},
		{
			"anonymous": false,
			"inputs": [
				{
					"indexed": false,
					"internalType": "address",
					"name": "userAddress",
					"type": "address"
				},
				{
					"indexed": false,
					"internalType": "address payable",
					"name": "relayerAddress",
					"type": "address"
				},
				{
					"indexed": false,
					"internalType": "bytes",
					"name": "functionSignature",
					"type": "bytes"
				}
			],
			"name": "MetaTransactionExecuted",
			"type": "event"
		},
		{
			"anonymous": false,
			"inputs": [
				{
					"indexed": true,
					"internalType": "address",
					"name": "previousOwner",
					"type": "address"
				},
				{
					"indexed": true,
					"internalType": "address",
					"name": "newOwner",
					"type": "address"
				}
			],
			"name": "OwnershipTransferred",
			"type": "event"
		},
		{
			"anonymous": false,
			"inputs": [
				{
					"indexed": true,
					"internalType": "address",
					"name": "from",
					"type": "address"
				},
				{
					"indexed": true,
					"internalType": "address",
					"name": "to",
					"type": "address"
				},
				{
					"indexed": true,
					"internalType": "uint256",
					"name": "tokenId",
					"type": "uint256"
				}
			],
			"name": "Transfer",
			"type": "event"
		},
		{
			"inputs": [],
			"name": "ERC712_VERSION",
			"outputs": [
				{
					"internalType": "string",
					"name": "",
					"type": "string"
				}
			],
			"stateMutability": "view",
			"type": "function"
		},
		{
			"inputs": [
				{
					"internalType": "address",
					"name": "to",
					"type": "address"
				},
				{
					"internalType": "uint256",
					"name": "tokenId",
					"type": "uint256"
				}
			],
			"name": "approve",
			"outputs": [],
			"stateMutability": "nonpayable",
			"type": "function"
		},
		{
			"inputs": [
				{
					"internalType": "address",
					"name": "owner",
					"type": "address"
				}
			],
			"name": "balanceOf",
			"outputs": [
				{
					"internalType": "uint256",
					"name": "",
					"type": "uint256"
				}
			],
			"stateMutability": "view",
			"type": "function"
		},
		{
			"inputs": [
				{
					"internalType": "uint256",
					"name": "tokenId",
					"type": "uint256"
				}
			],
			"name": "burn",
			"outputs": [],
			"stateMutability": "nonpayable",
			"type": "function"
		},
		{
			"inputs": [
				{
					"internalType": "uint256",
					"name": "_degree",
					"type": "uint256"
				}
			],
			"name": "cos",
			"outputs": [
				{
					"internalType": "bool",
					"name": "_sign",
					"type": "bool"
				},
				{
					"internalType": "uint256",
					"name": "_output",
					"type": "uint256"
				}
			],
			"stateMutability": "view",
			"type": "function"
		},
		{
			"inputs": [],
			"name": "counter",
			"outputs": [
				{
					"internalType": "uint256",
					"name": "",
					"type": "uint256"
				}
			],
			"stateMutability": "view",
			"type": "function"
		},
		{
			"inputs": [
				{
					"internalType": "uint256",
					"name": "tokenId",
					"type": "uint256"
				}
			],
			"name": "createSVG",
			"outputs": [
				{
					"internalType": "bytes",
					"name": "svg",
					"type": "bytes"
				}
			],
			"stateMutability": "view",
			"type": "function"
		},
		{
			"inputs": [
				{
					"internalType": "address",
					"name": "userAddress",
					"type": "address"
				},
				{
					"internalType": "bytes",
					"name": "functionSignature",
					"type": "bytes"
				},
				{
					"internalType": "bytes32",
					"name": "sigR",
					"type": "bytes32"
				},
				{
					"internalType": "bytes32",
					"name": "sigS",
					"type": "bytes32"
				},
				{
					"internalType": "uint8",
					"name": "sigV",
					"type": "uint8"
				}
			],
			"name": "executeMetaTransaction",
			"outputs": [
				{
					"internalType": "bytes",
					"name": "",
					"type": "bytes"
				}
			],
			"stateMutability": "payable",
			"type": "function"
		},
		{
			"inputs": [
				{
					"internalType": "uint256",
					"name": "tokenId",
					"type": "uint256"
				}
			],
			"name": "getApproved",
			"outputs": [
				{
					"internalType": "address",
					"name": "",
					"type": "address"
				}
			],
			"stateMutability": "view",
			"type": "function"
		},
		{
			"inputs": [],
			"name": "getChainId",
			"outputs": [
				{
					"internalType": "uint256",
					"name": "",
					"type": "uint256"
				}
			],
			"stateMutability": "view",
			"type": "function"
		},
		{
			"inputs": [],
			"name": "getDomainSeperator",
			"outputs": [
				{
					"internalType": "bytes32",
					"name": "",
					"type": "bytes32"
				}
			],
			"stateMutability": "view",
			"type": "function"
		},
		{
			"inputs": [
				{
					"internalType": "address",
					"name": "user",
					"type": "address"
				}
			],
			"name": "getNonce",
			"outputs": [
				{
					"internalType": "uint256",
					"name": "nonce",
					"type": "uint256"
				}
			],
			"stateMutability": "view",
			"type": "function"
		},
		{
			"inputs": [
				{
					"internalType": "address",
					"name": "owner",
					"type": "address"
				},
				{
					"internalType": "address",
					"name": "operator",
					"type": "address"
				}
			],
			"name": "isApprovedForAll",
			"outputs": [
				{
					"internalType": "bool",
					"name": "",
					"type": "bool"
				}
			],
			"stateMutability": "view",
			"type": "function"
		},
		{
			"inputs": [
				{
					"internalType": "string",
					"name": "_path",
					"type": "string"
				},
				{
					"internalType": "uint256",
					"name": "_delta",
					"type": "uint256"
				},
				{
					"internalType": "string",
					"name": "_color",
					"type": "string"
				}
			],
			"name": "mint",
			"outputs": [],
			"stateMutability": "nonpayable",
			"type": "function"
		},
		{
			"inputs": [
				{
					"internalType": "address",
					"name": "_to",
					"type": "address"
				}
			],
			"name": "mintTo",
			"outputs": [],
			"stateMutability": "nonpayable",
			"type": "function"
		},
		{
			"inputs": [],
			"name": "name",
			"outputs": [
				{
					"internalType": "string",
					"name": "",
					"type": "string"
				}
			],
			"stateMutability": "view",
			"type": "function"
		},
		{
			"inputs": [],
			"name": "owner",
			"outputs": [
				{
					"internalType": "address",
					"name": "",
					"type": "address"
				}
			],
			"stateMutability": "view",
			"type": "function"
		},
		{
			"inputs": [
				{
					"internalType": "uint256",
					"name": "tokenId",
					"type": "uint256"
				}
			],
			"name": "ownerOf",
			"outputs": [
				{
					"internalType": "address",
					"name": "",
					"type": "address"
				}
			],
			"stateMutability": "view",
			"type": "function"
		},
		{
			"inputs": [],
			"name": "renounceOwnership",
			"outputs": [],
			"stateMutability": "nonpayable",
			"type": "function"
		},
		{
			"inputs": [
				{
					"internalType": "address",
					"name": "from",
					"type": "address"
				},
				{
					"internalType": "address",
					"name": "to",
					"type": "address"
				},
				{
					"internalType": "uint256",
					"name": "tokenId",
					"type": "uint256"
				}
			],
			"name": "safeTransferFrom",
			"outputs": [],
			"stateMutability": "nonpayable",
			"type": "function"
		},
		{
			"inputs": [
				{
					"internalType": "address",
					"name": "from",
					"type": "address"
				},
				{
					"internalType": "address",
					"name": "to",
					"type": "address"
				},
				{
					"internalType": "uint256",
					"name": "tokenId",
					"type": "uint256"
				},
				{
					"internalType": "bytes",
					"name": "_data",
					"type": "bytes"
				}
			],
			"name": "safeTransferFrom",
			"outputs": [],
			"stateMutability": "nonpayable",
			"type": "function"
		},
		{
			"inputs": [
				{
					"internalType": "address",
					"name": "operator",
					"type": "address"
				},
				{
					"internalType": "bool",
					"name": "approved",
					"type": "bool"
				}
			],
			"name": "setApprovalForAll",
			"outputs": [],
			"stateMutability": "nonpayable",
			"type": "function"
		},
		{
			"inputs": [
				{
					"internalType": "uint256",
					"name": "_tokenId",
					"type": "uint256"
				}
			],
			"name": "showInitialValue",
			"outputs": [
				{
					"internalType": "bytes",
					"name": "path",
					"type": "bytes"
				},
				{
					"internalType": "uint256",
					"name": "delta",
					"type": "uint256"
				},
				{
					"internalType": "string",
					"name": "color",
					"type": "string"
				}
			],
			"stateMutability": "view",
			"type": "function"
		},
		{
			"inputs": [
				{
					"internalType": "uint256",
					"name": "_degree",
					"type": "uint256"
				}
			],
			"name": "sin",
			"outputs": [
				{
					"internalType": "bool",
					"name": "_sign",
					"type": "bool"
				},
				{
					"internalType": "uint256",
					"name": "_output",
					"type": "uint256"
				}
			],
			"stateMutability": "view",
			"type": "function"
		},
		{
			"inputs": [
				{
					"internalType": "bytes4",
					"name": "interfaceId",
					"type": "bytes4"
				}
			],
			"name": "supportsInterface",
			"outputs": [
				{
					"internalType": "bool",
					"name": "",
					"type": "bool"
				}
			],
			"stateMutability": "view",
			"type": "function"
		},
		{
			"inputs": [],
			"name": "symbol",
			"outputs": [
				{
					"internalType": "string",
					"name": "",
					"type": "string"
				}
			],
			"stateMutability": "view",
			"type": "function"
		},
		{
			"inputs": [
				{
					"internalType": "uint256",
					"name": "tokenId",
					"type": "uint256"
				}
			],
			"name": "tokenURI",
			"outputs": [
				{
					"internalType": "string",
					"name": "output",
					"type": "string"
				}
			],
			"stateMutability": "view",
			"type": "function"
		},
		{
			"inputs": [],
			"name": "totalSupply",
			"outputs": [
				{
					"internalType": "uint256",
					"name": "",
					"type": "uint256"
				}
			],
			"stateMutability": "view",
			"type": "function"
		},
		{
			"inputs": [
				{
					"internalType": "address",
					"name": "from",
					"type": "address"
				},
				{
					"internalType": "address",
					"name": "to",
					"type": "address"
				},
				{
					"internalType": "uint256",
					"name": "tokenId",
					"type": "uint256"
				}
			],
			"name": "transferFrom",
			"outputs": [],
			"stateMutability": "nonpayable",
			"type": "function"
		},
		{
			"inputs": [
				{
					"internalType": "address",
					"name": "newOwner",
					"type": "address"
				}
			],
			"name": "transferOwnership",
			"outputs": [],
			"stateMutability": "nonpayable",
			"type": "function"
		}
	]
}