{
	"data": {
		"bytecode": {
			"linkReferences": {},
			"object": "60806040526000600660006101000a81548160ff02191690831515021790555064492559f64f600c556200003c600a600b620001d060201b60201c565b600d556040518060400160405280600c81526020017f4f6e2d436861696e205356470000000000000000000000000000000000000000815250600f90805190602001906200008c9291906200054c565b503480156200009a57600080fd5b506040518060400160405280600481526020017f54657374000000000000000000000000000000000000000000000000000000008152506040518060400160405280600281526020017f54540000000000000000000000000000000000000000000000000000000000008152503382828160009080519060200190620001229291906200054c565b5080600190805190602001906200013b9291906200054c565b5050506200015e620001526200026360201b60201c565b6200027f60201b60201c565b80600b60006101000a81548173ffffffffffffffffffffffffffffffffffffffff021916908373ffffffffffffffffffffffffffffffffffffffff160217905550620001b6600a6200034560201b62001b211760201c565b620001c7836200035b60201b60201c565b505050620008fb565b60008082101562000218576040517f08c379a00000000000000000000000000000000000000000000000000000000081526004016200020f90620006c9565b60405180910390fd5b6001905060008211156200025d576000600190505b8281116200025b5783826200024391906200071e565b915080806200025290620007fd565b9150506200022d565b505b92915050565b60006200027a620003dd60201b62001b371760201c565b905090565b6000600960009054906101000a900473ffffffffffffffffffffffffffffffffffffffff16905081600960006101000a81548173ffffffffffffffffffffffffffffffffffffffff021916908373ffffffffffffffffffffffffffffffffffffffff1602179055508173ffffffffffffffffffffffffffffffffffffffff168173ffffffffffffffffffffffffffffffffffffffff167f8be0079c531659141344cd1fd0a4f28419497f9722a3daafe3b4186f6b6457e060405160405180910390a35050565b6001816000016000828254019250508190555050565b600660009054906101000a900460ff1615620003ae576040517f08c379a0000000000000000000000000000000000000000000000000000000008152600401620003a590620006eb565b60405180910390fd5b620003bf816200049060201b60201c565b6001600660006101000a81548160ff02191690831515021790555050565b60003073ffffffffffffffffffffffffffffffffffffffff163373ffffffffffffffffffffffffffffffffffffffff1614156200048957600080368080601f016020809104026020016040519081016040528093929190818152602001838380828437600081840152601f19601f820116905080830192505050505050509050600080369050905073ffffffffffffffffffffffffffffffffffffffff8183015116925050506200048d565b3390505b90565b6040518060800160405280604f8152602001620058d9604f91398051906020012081805190602001206040518060400160405280600181526020017f31000000000000000000000000000000000000000000000000000000000000008152508051906020012030620005076200053f60201b60201c565b60001b604051602001620005209594939291906200066c565b6040516020818303038152906040528051906020012060078190555050565b6000804690508091505090565b8280546200055a90620007c7565b90600052602060002090601f0160209004810192826200057e5760008555620005ca565b82601f106200059957805160ff1916838001178555620005ca565b82800160010185558215620005ca579182015b82811115620005c9578251825591602001919060010190620005ac565b5b509050620005d99190620005dd565b5090565b5b80821115620005f8576000816000905550600101620005de565b5090565b62000607816200077f565b82525050565b620006188162000793565b82525050565b60006200062d600d836200070d565b91506200063a82620008a9565b602082019050919050565b600062000654600e836200070d565b91506200066182620008d2565b602082019050919050565b600060a0820190506200068360008301886200060d565b6200069260208301876200060d565b620006a160408301866200060d565b620006b06060830185620005fc565b620006bf60808301846200060d565b9695505050505050565b60006020820190508181036000830152620006e4816200061e565b9050919050565b60006020820190508181036000830152620007068162000645565b9050919050565b600082825260208201905092915050565b60006200072b82620007bd565b91506200073883620007bd565b9250817fffffffffffffffffffffffffffffffffffffffffffffffffffffffffffffffff04831182151516156200077457620007736200084b565b5b828202905092915050565b60006200078c826200079d565b9050919050565b6000819050919050565b600073ffffffffffffffffffffffffffffffffffffffff82169050919050565b6000819050919050565b60006002820490506001821680620007e057607f821691505b60208210811415620007f757620007f66200087a565b5b50919050565b60006200080a82620007bd565b91507fffffffffffffffffffffffffffffffffffffffffffffffffffffffffffffffff82141562000840576200083f6200084b565b5b600182019050919050565b7f4e487b7100000000000000000000000000000000000000000000000000000000600052601160045260246000fd5b7f4e487b7100000000000000000000000000000000000000000000000000000000600052602260045260246000fd5b7f43686f6f7365205f703e3d302e00000000000000000000000000000000000000600082015250565b7f616c726561647920696e69746564000000000000000000000000000000000000600082015250565b614fce806200090b6000396000f3fe6080604052600436106101cd5760003560e01c80634e4007f0116100f757806395d89b4111610095578063c87b56dd11610064578063c87b56dd14610690578063cb5cc109146106cd578063e985e9c51461070b578063f2fde38b14610748576101cd565b806395d89b41146105d5578063a22cb46514610600578063a58b00ba14610629578063b88d4fde14610667576101cd565b806370a08231116100d157806370a082311461052d578063715018a61461056a578063755edd17146105815780638da5cb5b146105aa576101cd565b80634e4007f01461048857806361bc221a146104c55780636352211e146104f0576101cd565b806318160ddd1161016f5780633408e4701161013e5780633408e470146103ce5780633dd0a4cb146103f957806342842e0e1461043657806342966c681461045f576101cd565b806318160ddd1461031257806320379ee51461033d57806323b872dd146103685780632d0335ab14610391576101cd565b8063095ea7b3116101ab578063095ea7b3146102775780630c53c51c146102a05780630f7e5970146102d05780631249c58b146102fb576101cd565b806301ffc9a7146101d257806306fdde031461020f578063081812fc1461023a575b600080fd5b3480156101de57600080fd5b506101f960048036038101906101f4919061345c565b610771565b6040516102069190613dd1565b60405180910390f35b34801561021b57600080fd5b50610224610853565b6040516102319190613edc565b60405180910390f35b34801561024657600080fd5b50610261600480360381019061025c91906134e3565b6108e5565b60405161026e9190613d2c565b60405180910390f35b34801561028357600080fd5b5061029e6004803603810190610299919061341c565b61096a565b005b6102ba60048036038101906102b59190613385565b610a82565b6040516102c79190613eba565b60405180910390f35b3480156102dc57600080fd5b506102e5610cf4565b6040516102f29190613edc565b60405180910390f35b34801561030757600080fd5b50610310610d2d565b005b34801561031e57600080fd5b50610327610dd3565b604051610334919061417e565b60405180910390f35b34801561034957600080fd5b50610352610df0565b60405161035f9190613e15565b60405180910390f35b34801561037457600080fd5b5061038f600480360381019061038a919061326f565b610dfa565b005b34801561039d57600080fd5b506103b860048036038101906103b39190613202565b610e5a565b6040516103c5919061417e565b60405180910390f35b3480156103da57600080fd5b506103e3610ea3565b6040516103f0919061417e565b60405180910390f35b34801561040557600080fd5b50610420600480360381019061041b9190613510565b610eb0565b60405161042d919061417e565b60405180910390f35b34801561044257600080fd5b5061045d6004803603810190610458919061326f565b610ee1565b005b34801561046b57600080fd5b50610486600480360381019061048191906134e3565b610f01565b005b34801561049457600080fd5b506104af60048036038101906104aa91906134e3565b610f0d565b6040516104bc9190613eba565b60405180910390f35b3480156104d157600080fd5b506104da611185565b6040516104e7919061417e565b60405180910390f35b3480156104fc57600080fd5b50610517600480360381019061051291906134e3565b61118b565b6040516105249190613d2c565b60405180910390f35b34801561053957600080fd5b50610554600480360381019061054f9190613202565b61123d565b604051610561919061417e565b60405180910390f35b34801561057657600080fd5b5061057f6112f5565b005b34801561058d57600080fd5b506105a860048036038101906105a39190613202565b61137d565b005b3480156105b657600080fd5b506105bf61141f565b6040516105cc9190613d2c565b60405180910390f35b3480156105e157600080fd5b506105ea611449565b6040516105f79190613edc565b60405180910390f35b34801561060c57600080fd5b5061062760048036038101906106229190613345565b6114db565b005b34801561063557600080fd5b50610650600480360381019061064b91906134e3565b6114f1565b60405161065e929190613dec565b60405180910390f35b34801561067357600080fd5b5061068e600480360381019061068991906132c2565b611782565b005b34801561069c57600080fd5b506106b760048036038101906106b291906134e3565b6117e4565b6040516106c49190613edc565b60405180910390f35b3480156106d957600080fd5b506106f460048036038101906106ef91906134e3565b61184d565b604051610702929190613dec565b60405180910390f35b34801561071757600080fd5b50610732600480360381019061072d919061322f565b611927565b60405161073f9190613dd1565b60405180910390f35b34801561075457600080fd5b5061076f600480360381019061076a9190613202565b611a29565b005b60007f80ac58cd000000000000000000000000000000000000000000000000000000007bffffffffffffffffffffffffffffffffffffffffffffffffffffffff1916827bffffffffffffffffffffffffffffffffffffffffffffffffffffffff1916148061083c57507f5b5e139f000000000000000000000000000000000000000000000000000000007bffffffffffffffffffffffffffffffffffffffffffffffffffffffff1916827bffffffffffffffffffffffffffffffffffffffffffffffffffffffff1916145b8061084c575061084b82611be8565b5b9050919050565b60606000805461086290614484565b80601f016020809104026020016040519081016040528092919081815260200182805461088e90614484565b80156108db5780601f106108b0576101008083540402835291602001916108db565b820191906000526020600020905b8154815290600101906020018083116108be57829003601f168201915b5050505050905090565b60006108f082611c52565b61092f576040517f08c379a0000000000000000000000000000000000000000000000000000000008152600401610926906140be565b60405180910390fd5b6004600083815260200190815260200160002060009054906101000a900473ffffffffffffffffffffffffffffffffffffffff169050919050565b60006109758261118b565b90508073ffffffffffffffffffffffffffffffffffffffff168373ffffffffffffffffffffffffffffffffffffffff1614156109e6576040517f08c379a00000000000000000000000000000000000000000000000000000000081526004016109dd9061411e565b60405180910390fd5b8073ffffffffffffffffffffffffffffffffffffffff16610a05611cbe565b73ffffffffffffffffffffffffffffffffffffffff161480610a345750610a3381610a2e611cbe565b611927565b5b610a73576040517f08c379a0000000000000000000000000000000000000000000000000000000008152600401610a6a9061403e565b60405180910390fd5b610a7d8383611ccd565b505050565b606060006040518060600160405280600860008a73ffffffffffffffffffffffffffffffffffffffff1673ffffffffffffffffffffffffffffffffffffffff1681526020019081526020016000205481526020018873ffffffffffffffffffffffffffffffffffffffff168152602001878152509050610b058782878787611d86565b610b44576040517f08c379a0000000000000000000000000000000000000000000000000000000008152600401610b3b906140fe565b60405180910390fd5b610b976001600860008a73ffffffffffffffffffffffffffffffffffffffff1673ffffffffffffffffffffffffffffffffffffffff16815260200190815260200160002054611e8f90919063ffffffff16565b600860008973ffffffffffffffffffffffffffffffffffffffff1673ffffffffffffffffffffffffffffffffffffffff168152602001908152602001600020819055507f5845892132946850460bff5a0083f71031bc5bf9aadcd40f1de79423eac9b10b873388604051610c0d93929190613d47565b60405180910390a16000803073ffffffffffffffffffffffffffffffffffffffff16888a604051602001610c42929190613bb1565b604051602081830303815290604052604051610c5e9190613b9a565b6000604051808303816000865af19150503d8060008114610c9b576040519150601f19603f3d011682016040523d82523d6000602084013e610ca0565b606091505b509150915081610ce5576040517f08c379a0000000000000000000000000000000000000000000000000000000008152600401610cdc90613f3e565b60405180910390fd5b80935050505095945050505050565b6040518060400160405280600181526020017f310000000000000000000000000000000000000000000000000000000000000081525081565b610d3933600e54611ea5565b60006040518060400160405280600781526020017f4646462b462b46000000000000000000000000000000000000000000000000008152509050610d8e816004600c54610d8691906142a8565b600e54611ec3565b8060106000600e5481526020019081526020016000209080519060200190610db7929190613047565b50600e6000815480929190610dcb906144e7565b919050555050565b60006001610de1600a612098565b610deb9190614333565b905090565b6000600754905090565b610e0b610e05611cbe565b826120a6565b610e4a576040517f08c379a0000000000000000000000000000000000000000000000000000000008152600401610e419061415e565b60405180910390fd5b610e55838383612184565b505050565b6000600860008373ffffffffffffffffffffffffffffffffffffffff1673ffffffffffffffffffffffffffffffffffffffff168152602001908152602001600020549050919050565b6000804690508091505090565b60116020528160005260406000208181548110610ecc57600080fd5b90600052602060002001600091509150505481565b610efc83838360405180602001604052806000815250611782565b505050565b610f0a816123eb565b50565b60606000601060008481526020019081526020016000208054610f2f90614484565b80601f0160208091040260200160405190810160405280929190818152602001828054610f5b90614484565b8015610fa85780601f10610f7d57610100808354040283529160200191610fa8565b820191906000526020600020905b815481529060010190602001808311610f8b57829003601f168201915b505050505090506000808060006001905060006001905060006040518060a0016040528060678152602001614eaf606791399050606060005b88518110156111535760011561114057601160008c8152602001908152602001600020818154811061101657611015614626565b5b9060005260206000200154975061102c8861184d565b809850819650505061103e60006114f1565b809750819550505060011515841515141561105c5760009350611061565b600193505b600d5487600a61107191906142d9565b61107b91906142a8565b9650600d5486600a61108d91906142d9565b61109791906142a8565b95508881815181106110ac576110ab614626565b5b602001015160f81c60f81b6040516020016110c79190613b7f565b604051602081830303815290604052805190602001206040516020016110ec90613d17565b60405160208183030381529060405280519060200120141561113f578161111288612508565b61111b88612508565b60405160200161112d93929190613c08565b60405160208183030381529060405291505b5b808061114b906144e7565b915050610fe1565b508181604051602001611167929190613bd9565b60405160208183030381529060405298505050505050505050919050565b600e5481565b6000806002600084815260200190815260200160002060009054906101000a900473ffffffffffffffffffffffffffffffffffffffff169050600073ffffffffffffffffffffffffffffffffffffffff168173ffffffffffffffffffffffffffffffffffffffff161415611234576040517f08c379a000000000000000000000000000000000000000000000000000000000815260040161122b9061407e565b60405180910390fd5b80915050919050565b60008073ffffffffffffffffffffffffffffffffffffffff168273ffffffffffffffffffffffffffffffffffffffff1614156112ae576040517f08c379a00000000000000000000000000000000000000000000000000000000081526004016112a59061405e565b60405180910390fd5b600360008373ffffffffffffffffffffffffffffffffffffffff1673ffffffffffffffffffffffffffffffffffffffff168152602001908152602001600020549050919050565b6112fd611cbe565b73ffffffffffffffffffffffffffffffffffffffff1661131b61141f565b73ffffffffffffffffffffffffffffffffffffffff1614611371576040517f08c379a0000000000000000000000000000000000000000000000000000000008152600401611368906140de565b60405180910390fd5b61137b6000612669565b565b611385611cbe565b73ffffffffffffffffffffffffffffffffffffffff166113a361141f565b73ffffffffffffffffffffffffffffffffffffffff16146113f9576040517f08c379a00000000000000000000000000000000000000000000000000000000081526004016113f0906140de565b60405180910390fd5b6000611405600a612098565b9050611411600a611b21565b61141b8282611ea5565b5050565b6000600960009054906101000a900473ffffffffffffffffffffffffffffffffffffffff16905090565b60606001805461145890614484565b80601f016020809104026020016040519081016040528092919081815260200182805461148490614484565b80156114d15780601f106114a6576101008083540402835291602001916114d1565b820191906000526020600020905b8154815290600101906020018083116114b457829003601f168201915b5050505050905090565b6114ed6114e6611cbe565b838361272f565b5050565b600080826000111580156115135750600c54600261150f91906142d9565b8311155b611552576040517f08c379a00000000000000000000000000000000000000000000000000000000081526004016115499061413e565b60405180910390fd5b6002600c5461156191906142a8565b83148061158757506002600c54600361157a91906142d9565b61158491906142a8565b83145b1561159957600191506000905061177d565b6002600c546115a891906142a8565b8310156115b8576001915061164e565b600c5483116115da576000915082600c546115d39190614333565b925061164d565b6002600c5460036115eb91906142d9565b6115f591906142a8565b8310156116155760009150600c548361160e9190614333565b925061164c565b600c54600261162491906142d9565b831161164b576001915082600c54600261163e91906142d9565b6116489190614333565b92505b5b5b5b61165b600d54600661289c565b6102d061166891906142d9565b905061167583600261289c565b611682600d54600461289c565b61016861168f91906142d9565b61169991906142d9565b811115611777576116ab83600261289c565b6116b8600d54600461289c565b6101686116c591906142d9565b6116cf91906142d9565b816116da9190614333565b90506116e783600461289c565b6116f4600d54600261289c565b601e61170091906142d9565b61170a91906142d9565b816117159190614252565b905061172283600661289c565b8111156117465761173483600661289c565b8161173f9190614333565b905061174b565b600090505b611758600d54600561289c565b6102d061176591906142d9565b8161177091906142a8565b905061177c565b600090505b5b915091565b61179361178d611cbe565b836120a6565b6117d2576040517f08c379a00000000000000000000000000000000000000000000000000000000081526004016117c99061415e565b60405180910390fd5b6117de84848484612925565b50505050565b606060006117f183610f0d565b9050611826600f61180183612981565b604051602001611812929190613c9b565b604051602081830303815290604052612981565b6040516020016118369190613ce0565b604051602081830303815290604052915050919050565b6000808260001115801561186f5750600c54600261186b91906142d9565b8311155b6118ae576040517f08c379a00000000000000000000000000000000000000000000000000000000081526004016118a59061413e565b60405180910390fd5b60006002600c546118bf91906142a8565b90506002600c546118d091906142a8565b84111561190257600c5460026118e691906142d9565b6002600c546118f591906142a8565b6118ff9190614252565b90505b838161190e9190614333565b9350611919846114f1565b809350819450505050915091565b600080600b60009054906101000a900473ffffffffffffffffffffffffffffffffffffffff1690508273ffffffffffffffffffffffffffffffffffffffff168173ffffffffffffffffffffffffffffffffffffffff1663c4552791866040518263ffffffff1660e01b815260040161199f9190613d2c565b60206040518083038186803b1580156119b757600080fd5b505afa1580156119cb573d6000803e3d6000fd5b505050506040513d601f19601f820116820180604052508101906119ef91906134b6565b73ffffffffffffffffffffffffffffffffffffffff161415611a15576001915050611a23565b611a1f8484612b19565b9150505b92915050565b611a31611cbe565b73ffffffffffffffffffffffffffffffffffffffff16611a4f61141f565b73ffffffffffffffffffffffffffffffffffffffff1614611aa5576040517f08c379a0000000000000000000000000000000000000000000000000000000008152600401611a9c906140de565b60405180910390fd5b600073ffffffffffffffffffffffffffffffffffffffff168173ffffffffffffffffffffffffffffffffffffffff161415611b15576040517f08c379a0000000000000000000000000000000000000000000000000000000008152600401611b0c90613f1e565b60405180910390fd5b611b1e81612669565b50565b6001816000016000828254019250508190555050565b60003073ffffffffffffffffffffffffffffffffffffffff163373ffffffffffffffffffffffffffffffffffffffff161415611be157600080368080601f016020809104026020016040519081016040528093929190818152602001838380828437600081840152601f19601f820116905080830192505050505050509050600080369050905073ffffffffffffffffffffffffffffffffffffffff818301511692505050611be5565b3390505b90565b60007f01ffc9a7000000000000000000000000000000000000000000000000000000007bffffffffffffffffffffffffffffffffffffffffffffffffffffffff1916827bffffffffffffffffffffffffffffffffffffffffffffffffffffffff1916149050919050565b60008073ffffffffffffffffffffffffffffffffffffffff166002600084815260200190815260200160002060009054906101000a900473ffffffffffffffffffffffffffffffffffffffff1673ffffffffffffffffffffffffffffffffffffffff1614159050919050565b6000611cc8611b37565b905090565b816004600083815260200190815260200160002060006101000a81548173ffffffffffffffffffffffffffffffffffffffff021916908373ffffffffffffffffffffffffffffffffffffffff160217905550808273ffffffffffffffffffffffffffffffffffffffff16611d408361118b565b73ffffffffffffffffffffffffffffffffffffffff167f8c5be1e5ebec7d5bd14f71427d1e84f3dd0314c0f7b2291e5b200ac8c7c3b92560405160405180910390a45050565b60008073ffffffffffffffffffffffffffffffffffffffff168673ffffffffffffffffffffffffffffffffffffffff161415611df7576040517f08c379a0000000000000000000000000000000000000000000000000000000008152600401611dee9061401e565b60405180910390fd5b6001611e0a611e0587612bad565b612c15565b83868660405160008152602001604052604051611e2a9493929190613e75565b6020604051602081039080840390855afa158015611e4c573d6000803e3d6000fd5b5050506020604051035173ffffffffffffffffffffffffffffffffffffffff168673ffffffffffffffffffffffffffffffffffffffff1614905095945050505050565b60008183611e9d9190614252565b905092915050565b611ebf828260405180602001604052806000815250612c4e565b5050565b60008084905060005b815181101561209057818181518110611ee857611ee7614626565b5b602001015160f81c60f81b604051602001611f039190613b7f565b60405160208183030381529060405280519060200120604051602001611f2890613c86565b604051602081830303815290604052805190602001201415611f73578483611f509190614252565b9250600c546002611f6191906142d9565b83611f6c9190614568565b9250612043565b818181518110611f8657611f85614626565b5b602001015160f81c60f81b604051602001611fa19190613b7f565b60405160208183030381529060405280519060200120604051602001611fc690613d02565b6040516020818303038152906040528051906020012014156120425784831015612032578483600c546002611ffb91906142d9565b6120059190614252565b61200f9190614333565b9250600c54600261202091906142d9565b8361202b9190614568565b9250612041565b848361203e9190614333565b92505b5b5b601160008581526020019081526020016000208390806001815401808255809150506001900390600052602060002001600090919091909150558080612088906144e7565b915050611ecc565b505050505050565b600081600001549050919050565b60006120b182611c52565b6120f0576040517f08c379a00000000000000000000000000000000000000000000000000000000081526004016120e790613ffe565b60405180910390fd5b60006120fb8361118b565b90508073ffffffffffffffffffffffffffffffffffffffff168473ffffffffffffffffffffffffffffffffffffffff16148061213d575061213c8185611927565b5b8061217b57508373ffffffffffffffffffffffffffffffffffffffff16612163846108e5565b73ffffffffffffffffffffffffffffffffffffffff16145b91505092915050565b8273ffffffffffffffffffffffffffffffffffffffff166121a48261118b565b73ffffffffffffffffffffffffffffffffffffffff16146121fa576040517f08c379a00000000000000000000000000000000000000000000000000000000081526004016121f190613f5e565b60405180910390fd5b600073ffffffffffffffffffffffffffffffffffffffff168273ffffffffffffffffffffffffffffffffffffffff16141561226a576040517f08c379a000000000000000000000000000000000000000000000000000000000815260040161226190613fbe565b60405180910390fd5b612275838383612ca9565b612280600082611ccd565b6001600360008573ffffffffffffffffffffffffffffffffffffffff1673ffffffffffffffffffffffffffffffffffffffff16815260200190815260200160002060008282546122d09190614333565b925050819055506001600360008473ffffffffffffffffffffffffffffffffffffffff1673ffffffffffffffffffffffffffffffffffffffff16815260200190815260200160002060008282546123279190614252565b92505081905550816002600083815260200190815260200160002060006101000a81548173ffffffffffffffffffffffffffffffffffffffff021916908373ffffffffffffffffffffffffffffffffffffffff160217905550808273ffffffffffffffffffffffffffffffffffffffff168473ffffffffffffffffffffffffffffffffffffffff167fddf252ad1be2c89b69c2b068fc378daa952ba7f163c4a11628f55a4df523b3ef60405160405180910390a46123e6838383612cae565b505050565b60006123f68261118b565b905061240481600084612ca9565b61240f600083611ccd565b6001600360008373ffffffffffffffffffffffffffffffffffffffff1673ffffffffffffffffffffffffffffffffffffffff168152602001908152602001600020600082825461245f9190614333565b925050819055506002600083815260200190815260200160002060006101000a81549073ffffffffffffffffffffffffffffffffffffffff021916905581600073ffffffffffffffffffffffffffffffffffffffff168273ffffffffffffffffffffffffffffffffffffffff167fddf252ad1be2c89b69c2b068fc378daa952ba7f163c4a11628f55a4df523b3ef60405160405180910390a461250481600084612cae565b5050565b60606000821415612550576040518060400160405280600181526020017f30000000000000000000000000000000000000000000000000000000000000008152509050612664565b600082905060005b6000821461258257808061256b906144e7565b915050600a8261257b91906142a8565b9150612558565b60008167ffffffffffffffff81111561259e5761259d614655565b5b6040519080825280601f01601f1916602001820160405280156125d05781602001600182028036833780820191505090505b5090505b6000851461265d576001826125e99190614333565b9150600a856125f89190614568565b60306126049190614252565b60f81b81838151811061261a57612619614626565b5b60200101907effffffffffffffffffffffffffffffffffffffffffffffffffffffffffffff1916908160001a905350600a8561265691906142a8565b94506125d4565b8093505050505b919050565b6000600960009054906101000a900473ffffffffffffffffffffffffffffffffffffffff16905081600960006101000a81548173ffffffffffffffffffffffffffffffffffffffff021916908373ffffffffffffffffffffffffffffffffffffffff1602179055508173ffffffffffffffffffffffffffffffffffffffff168173ffffffffffffffffffffffffffffffffffffffff167f8be0079c531659141344cd1fd0a4f28419497f9722a3daafe3b4186f6b6457e060405160405180910390a35050565b8173ffffffffffffffffffffffffffffffffffffffff168373ffffffffffffffffffffffffffffffffffffffff16141561279e576040517f08c379a000000000000000000000000000000000000000000000000000000000815260040161279590613fde565b60405180910390fd5b80600560008573ffffffffffffffffffffffffffffffffffffffff1673ffffffffffffffffffffffffffffffffffffffff16815260200190815260200160002060008473ffffffffffffffffffffffffffffffffffffffff1673ffffffffffffffffffffffffffffffffffffffff16815260200190815260200160002060006101000a81548160ff0219169083151502179055508173ffffffffffffffffffffffffffffffffffffffff168373ffffffffffffffffffffffffffffffffffffffff167f17307eab39ab6107e8899845ad3d59bd9653f200f220920489ca2b5937696c318360405161288f9190613dd1565b60405180910390a3505050565b6000808210156128e1576040517f08c379a00000000000000000000000000000000000000000000000000000000081526004016128d890613f7e565b60405180910390fd5b60019050600082111561291f576000600190505b82811161291d57838261290891906142d9565b91508080612915906144e7565b9150506128f5565b505b92915050565b612930848484612184565b61293c84848484612cb3565b61297b576040517f08c379a000000000000000000000000000000000000000000000000000000000815260040161297290613efe565b60405180910390fd5b50505050565b606060008251905060008114156129aa5760405180602001604052806000815250915050612b14565b600060036002836129bb9190614252565b6129c591906142a8565b60046129d191906142d9565b905060006020826129e29190614252565b67ffffffffffffffff8111156129fb576129fa614655565b5b6040519080825280601f01601f191660200182016040528015612a2d5781602001600182028036833780820191505090505b5090506000604051806060016040528060408152602001614f59604091399050600181016020830160005b86811015612ad15760038101905062ffffff818a015116603f8160121c168401518060081b905060ff603f83600c1c1686015116810190508060081b905060ff603f8360061c1686015116810190508060081b905060ff603f831686015116810190508060e01b90508084526004840193505050612a58565b506003860660018114612aeb5760028114612afb57612b06565b613d3d60f01b6002830352612b06565b603d60f81b60018303525b508484525050819450505050505b919050565b6000600560008473ffffffffffffffffffffffffffffffffffffffff1673ffffffffffffffffffffffffffffffffffffffff16815260200190815260200160002060008373ffffffffffffffffffffffffffffffffffffffff1673ffffffffffffffffffffffffffffffffffffffff16815260200190815260200160002060009054906101000a900460ff16905092915050565b6000604051806080016040528060438152602001614f16604391398051906020012082600001518360200151846040015180519060200120604051602001612bf89493929190613e30565b604051602081830303815290604052805190602001209050919050565b6000612c1f610df0565b82604051602001612c31929190613c4f565b604051602081830303815290604052805190602001209050919050565b612c588383612e4a565b612c656000848484612cb3565b612ca4576040517f08c379a0000000000000000000000000000000000000000000000000000000008152600401612c9b90613efe565b60405180910390fd5b505050565b505050565b505050565b6000612cd48473ffffffffffffffffffffffffffffffffffffffff16613024565b15612e3d578373ffffffffffffffffffffffffffffffffffffffff1663150b7a02612cfd611cbe565b8786866040518563ffffffff1660e01b8152600401612d1f9493929190613d85565b602060405180830381600087803b158015612d3957600080fd5b505af1925050508015612d6a57506040513d601f19601f82011682018060405250810190612d679190613489565b60015b612ded573d8060008114612d9a576040519150601f19603f3d011682016040523d82523d6000602084013e612d9f565b606091505b50600081511415612de5576040517f08c379a0000000000000000000000000000000000000000000000000000000008152600401612ddc90613efe565b60405180910390fd5b805181602001fd5b63150b7a0260e01b7bffffffffffffffffffffffffffffffffffffffffffffffffffffffff1916817bffffffffffffffffffffffffffffffffffffffffffffffffffffffff191614915050612e42565b600190505b949350505050565b600073ffffffffffffffffffffffffffffffffffffffff168273ffffffffffffffffffffffffffffffffffffffff161415612eba576040517f08c379a0000000000000000000000000000000000000000000000000000000008152600401612eb19061409e565b60405180910390fd5b612ec381611c52565b15612f03576040517f08c379a0000000000000000000000000000000000000000000000000000000008152600401612efa90613f9e565b60405180910390fd5b612f0f60008383612ca9565b6001600360008473ffffffffffffffffffffffffffffffffffffffff1673ffffffffffffffffffffffffffffffffffffffff1681526020019081526020016000206000828254612f5f9190614252565b92505081905550816002600083815260200190815260200160002060006101000a81548173ffffffffffffffffffffffffffffffffffffffff021916908373ffffffffffffffffffffffffffffffffffffffff160217905550808273ffffffffffffffffffffffffffffffffffffffff16600073ffffffffffffffffffffffffffffffffffffffff167fddf252ad1be2c89b69c2b068fc378daa952ba7f163c4a11628f55a4df523b3ef60405160405180910390a461302060008383612cae565b5050565b6000808273ffffffffffffffffffffffffffffffffffffffff163b119050919050565b82805461305390614484565b90600052602060002090601f01602090048101928261307557600085556130bc565b82601f1061308e57805160ff19168380011785556130bc565b828001600101855582156130bc579182015b828111156130bb5782518255916020019190600101906130a0565b5b5090506130c991906130cd565b5090565b5b808211156130e65760008160009055506001016130ce565b5090565b60006130fd6130f8846141be565b614199565b90508281526020810184848401111561311957613118614689565b5b613124848285614442565b509392505050565b60008135905061313b81614e0d565b92915050565b60008135905061315081614e24565b92915050565b60008135905061316581614e3b565b92915050565b60008135905061317a81614e52565b92915050565b60008151905061318f81614e52565b92915050565b600082601f8301126131aa576131a9614684565b5b81356131ba8482602086016130ea565b91505092915050565b6000815190506131d281614e69565b92915050565b6000813590506131e781614e80565b92915050565b6000813590506131fc81614e97565b92915050565b60006020828403121561321857613217614693565b5b60006132268482850161312c565b91505092915050565b6000806040838503121561324657613245614693565b5b60006132548582860161312c565b92505060206132658582860161312c565b9150509250929050565b60008060006060848603121561328857613287614693565b5b60006132968682870161312c565b93505060206132a78682870161312c565b92505060406132b8868287016131d8565b9150509250925092565b600080600080608085870312156132dc576132db614693565b5b60006132ea8782880161312c565b94505060206132fb8782880161312c565b935050604061330c878288016131d8565b925050606085013567ffffffffffffffff81111561332d5761332c61468e565b5b61333987828801613195565b91505092959194509250565b6000806040838503121561335c5761335b614693565b5b600061336a8582860161312c565b925050602061337b85828601613141565b9150509250929050565b600080600080600060a086880312156133a1576133a0614693565b5b60006133af8882890161312c565b955050602086013567ffffffffffffffff8111156133d0576133cf61468e565b5b6133dc88828901613195565b94505060406133ed88828901613156565b93505060606133fe88828901613156565b925050608061340f888289016131ed565b9150509295509295909350565b6000806040838503121561343357613432614693565b5b60006134418582860161312c565b9250506020613452858286016131d8565b9150509250929050565b60006020828403121561347257613471614693565b5b60006134808482850161316b565b91505092915050565b60006020828403121561349f5761349e614693565b5b60006134ad84828501613180565b91505092915050565b6000602082840312156134cc576134cb614693565b5b60006134da848285016131c3565b91505092915050565b6000602082840312156134f9576134f8614693565b5b6000613507848285016131d8565b91505092915050565b6000806040838503121561352757613526614693565b5b6000613535858286016131d8565b9250506020613546858286016131d8565b9150509250929050565b61355981614379565b82525050565b61356881614367565b82525050565b61357f61357a82614367565b614530565b82525050565b61358e8161438b565b82525050565b6135a56135a082614397565b614542565b82525050565b6135b4816143c3565b82525050565b6135cb6135c6826143c3565b61454c565b82525050565b60006135dc82614204565b6135e6818561421a565b93506135f6818560208601614451565b6135ff81614698565b840191505092915050565b600061361582614204565b61361f818561422b565b935061362f818560208601614451565b80840191505092915050565b60006136468261420f565b6136508185614236565b9350613660818560208601614451565b61366981614698565b840191505092915050565b600061367f8261420f565b6136898185614247565b9350613699818560208601614451565b80840191505092915050565b600081546136b281614484565b6136bc8186614247565b945060018216600081146136d757600181146136e85761371b565b60ff1983168652818601935061371b565b6136f1856141ef565b60005b83811015613713578154818901526001820191506020810190506136f4565b838801955050505b50505092915050565b6000613731603283614236565b915061373c826146b6565b604082019050919050565b6000613754602683614236565b915061375f82614705565b604082019050919050565b6000613777601c83614236565b915061378282614754565b602082019050919050565b600061379a602583614236565b91506137a58261477d565b604082019050919050565b60006137bd600d83614236565b91506137c8826147cc565b602082019050919050565b60006137e0601c83614236565b91506137eb826147f5565b602082019050919050565b6000613803600283614247565b915061380e8261481e565b600282019050919050565b6000613826600383614247565b915061383182614847565b600382019050919050565b6000613849602483614236565b915061385482614870565b604082019050919050565b600061386c601983614236565b9150613877826148bf565b602082019050919050565b600061388f602c83614236565b915061389a826148e8565b604082019050919050565b60006138b2602583614236565b91506138bd82614937565b604082019050919050565b60006138d5603883614236565b91506138e082614986565b604082019050919050565b60006138f8600183614247565b9150613903826149d5565b600182019050919050565b600061391b602a83614236565b9150613926826149fe565b604082019050919050565b600061393e602983614236565b915061394982614a4d565b604082019050919050565b6000613961600283614247565b915061396c82614a9c565b600282019050919050565b6000613984600a83614247565b915061398f82614ac5565b600a82019050919050565b60006139a7602083614236565b91506139b282614aee565b602082019050919050565b60006139ca602c83614236565b91506139d582614b17565b604082019050919050565b60006139ed602083614236565b91506139f882614b66565b602082019050919050565b6000613a10602183614236565b9150613a1b82614b8f565b604082019050919050565b6000613a33602783614247565b9150613a3e82614bde565b602782019050919050565b6000613a56600a83614247565b9150613a6182614c2d565b600a82019050919050565b6000613a79602183614236565b9150613a8482614c56565b604082019050919050565b6000613a9c604c83614236565b9150613aa782614ca5565b606082019050919050565b6000613abf600283614247565b9150613aca82614d1a565b600282019050919050565b6000613ae2601d83614247565b9150613aed82614d43565b601d82019050919050565b6000613b05603183614236565b9150613b1082614d6c565b604082019050919050565b6000613b28600183614247565b9150613b3382614dbb565b600182019050919050565b6000613b4b600183614247565b9150613b5682614de4565b600182019050919050565b613b6a8161442b565b82525050565b613b7981614435565b82525050565b6000613b8b8284613594565b60018201915081905092915050565b6000613ba6828461360a565b915081905092915050565b6000613bbd828561360a565b9150613bc9828461356e565b6014820191508190509392505050565b6000613be5828561360a565b9150613bf1828461360a565b9150613bfc82613977565b91508190509392505050565b6000613c14828661360a565b9150613c1f82613819565b9150613c2b8285613674565b9150613c3682613ab2565b9150613c428284613674565b9150819050949350505050565b6000613c5a826137f6565b9150613c6682856135ba565b602082019150613c7682846135ba565b6020820191508190509392505050565b6000613c91826138eb565b9150819050919050565b6000613ca682613a49565b9150613cb282856136a5565b9150613cbd82613a26565b9150613cc98284613674565b9150613cd482613954565b91508190509392505050565b6000613ceb82613ad5565b9150613cf78284613674565b915081905092915050565b6000613d0d82613b1b565b9150819050919050565b6000613d2282613b3e565b9150819050919050565b6000602082019050613d41600083018461355f565b92915050565b6000606082019050613d5c600083018661355f565b613d696020830185613550565b8181036040830152613d7b81846135d1565b9050949350505050565b6000608082019050613d9a600083018761355f565b613da7602083018661355f565b613db46040830185613b61565b8181036060830152613dc681846135d1565b905095945050505050565b6000602082019050613de66000830184613585565b92915050565b6000604082019050613e016000830185613585565b613e0e6020830184613b61565b9392505050565b6000602082019050613e2a60008301846135ab565b92915050565b6000608082019050613e4560008301876135ab565b613e526020830186613b61565b613e5f604083018561355f565b613e6c60608301846135ab565b95945050505050565b6000608082019050613e8a60008301876135ab565b613e976020830186613b70565b613ea460408301856135ab565b613eb160608301846135ab565b95945050505050565b60006020820190508181036000830152613ed481846135d1565b905092915050565b60006020820190508181036000830152613ef6818461363b565b905092915050565b60006020820190508181036000830152613f1781613724565b9050919050565b60006020820190508181036000830152613f3781613747565b9050919050565b60006020820190508181036000830152613f578161376a565b9050919050565b60006020820190508181036000830152613f778161378d565b9050919050565b60006020820190508181036000830152613f97816137b0565b9050919050565b60006020820190508181036000830152613fb7816137d3565b9050919050565b60006020820190508181036000830152613fd78161383c565b9050919050565b60006020820190508181036000830152613ff78161385f565b9050919050565b6000602082019050818103600083015261401781613882565b9050919050565b60006020820190508181036000830152614037816138a5565b9050919050565b60006020820190508181036000830152614057816138c8565b9050919050565b600060208201905081810360008301526140778161390e565b9050919050565b6000602082019050818103600083015261409781613931565b9050919050565b600060208201905081810360008301526140b78161399a565b9050919050565b600060208201905081810360008301526140d7816139bd565b9050919050565b600060208201905081810360008301526140f7816139e0565b9050919050565b6000602082019050818103600083015261411781613a03565b9050919050565b6000602082019050818103600083015261413781613a6c565b9050919050565b6000602082019050818103600083015261415781613a8f565b9050919050565b6000602082019050818103600083015261417781613af8565b9050919050565b60006020820190506141936000830184613b61565b92915050565b60006141a36141b4565b90506141af82826144b6565b919050565b6000604051905090565b600067ffffffffffffffff8211156141d9576141d8614655565b5b6141e282614698565b9050602081019050919050565b60008190508160005260206000209050919050565b600081519050919050565b600081519050919050565b600082825260208201905092915050565b600081905092915050565b600082825260208201905092915050565b600081905092915050565b600061425d8261442b565b91506142688361442b565b9250827fffffffffffffffffffffffffffffffffffffffffffffffffffffffffffffffff0382111561429d5761429c614599565b5b828201905092915050565b60006142b38261442b565b91506142be8361442b565b9250826142ce576142cd6145c8565b5b828204905092915050565b60006142e48261442b565b91506142ef8361442b565b9250817fffffffffffffffffffffffffffffffffffffffffffffffffffffffffffffffff048311821515161561432857614327614599565b5b828202905092915050565b600061433e8261442b565b91506143498361442b565b92508282101561435c5761435b614599565b5b828203905092915050565b60006143728261440b565b9050919050565b60006143848261440b565b9050919050565b60008115159050919050565b60007fff0000000000000000000000000000000000000000000000000000000000000082169050919050565b6000819050919050565b60007fffffffff0000000000000000000000000000000000000000000000000000000082169050919050565b600061440482614367565b9050919050565b600073ffffffffffffffffffffffffffffffffffffffff82169050919050565b6000819050919050565b600060ff82169050919050565b82818337600083830152505050565b60005b8381101561446f578082015181840152602081019050614454565b8381111561447e576000848401525b50505050565b6000600282049050600182168061449c57607f821691505b602082108114156144b0576144af6145f7565b5b50919050565b6144bf82614698565b810181811067ffffffffffffffff821117156144de576144dd614655565b5b80604052505050565b60006144f28261442b565b91507fffffffffffffffffffffffffffffffffffffffffffffffffffffffffffffffff82141561452557614524614599565b5b600182019050919050565b600061453b82614556565b9050919050565b6000819050919050565b6000819050919050565b6000614561826146a9565b9050919050565b60006145738261442b565b915061457e8361442b565b92508261458e5761458d6145c8565b5b828206905092915050565b7f4e487b7100000000000000000000000000000000000000000000000000000000600052601160045260246000fd5b7f4e487b7100000000000000000000000000000000000000000000000000000000600052601260045260246000fd5b7f4e487b7100000000000000000000000000000000000000000000000000000000600052602260045260246000fd5b7f4e487b7100000000000000000000000000000000000000000000000000000000600052603260045260246000fd5b7f4e487b7100000000000000000000000000000000000000000000000000000000600052604160045260246000fd5b600080fd5b600080fd5b600080fd5b600080fd5b6000601f19601f8301169050919050565b60008160601b9050919050565b7f4552433732313a207472616e7366657220746f206e6f6e20455243373231526560008201527f63656976657220696d706c656d656e7465720000000000000000000000000000602082015250565b7f4f776e61626c653a206e6577206f776e657220697320746865207a65726f206160008201527f6464726573730000000000000000000000000000000000000000000000000000602082015250565b7f46756e6374696f6e2063616c6c206e6f74207375636365737366756c00000000600082015250565b7f4552433732313a207472616e736665722066726f6d20696e636f72726563742060008201527f6f776e6572000000000000000000000000000000000000000000000000000000602082015250565b7f43686f6f7365205f703e3d302e00000000000000000000000000000000000000600082015250565b7f4552433732313a20746f6b656e20616c7265616479206d696e74656400000000600082015250565b7f1901000000000000000000000000000000000000000000000000000000000000600082015250565b7f206c200000000000000000000000000000000000000000000000000000000000600082015250565b7f4552433732313a207472616e7366657220746f20746865207a65726f2061646460008201527f7265737300000000000000000000000000000000000000000000000000000000602082015250565b7f4552433732313a20617070726f766520746f2063616c6c657200000000000000600082015250565b7f4552433732313a206f70657261746f7220717565727920666f72206e6f6e657860008201527f697374656e7420746f6b656e0000000000000000000000000000000000000000602082015250565b7f4e61746976654d6574615472616e73616374696f6e3a20494e56414c49445f5360008201527f49474e4552000000000000000000000000000000000000000000000000000000602082015250565b7f4552433732313a20617070726f76652063616c6c6572206973206e6f74206f7760008201527f6e6572206e6f7220617070726f76656420666f7220616c6c0000000000000000602082015250565b7f2b00000000000000000000000000000000000000000000000000000000000000600082015250565b7f4552433732313a2062616c616e636520717565727920666f7220746865207a6560008201527f726f206164647265737300000000000000000000000000000000000000000000602082015250565b7f4552433732313a206f776e657220717565727920666f72206e6f6e657869737460008201527f656e7420746f6b656e0000000000000000000000000000000000000000000000602082015250565b7f227d000000000000000000000000000000000000000000000000000000000000600082015250565b7f22202f3e3c2f7376673e00000000000000000000000000000000000000000000600082015250565b7f4552433732313a206d696e7420746f20746865207a65726f2061646472657373600082015250565b7f4552433732313a20617070726f76656420717565727920666f72206e6f6e657860008201527f697374656e7420746f6b656e0000000000000000000000000000000000000000602082015250565b7f4f776e61626c653a2063616c6c6572206973206e6f7420746865206f776e6572600082015250565b7f5369676e657220616e64207369676e617475726520646f206e6f74206d61746360008201527f6800000000000000000000000000000000000000000000000000000000000000602082015250565b7f222c2022696d616765223a2022646174613a696d6167652f7376672b786d6c3b60008201527f6261736536342c00000000000000000000000000000000000000000000000000602082015250565b7f7b226e616d65223a202200000000000000000000000000000000000000000000600082015250565b7f4552433732313a20617070726f76616c20746f2063757272656e74206f776e6560008201527f7200000000000000000000000000000000000000000000000000000000000000602082015250565b7f506c656173652063686f6f7365205f72616469616e74206265747765656e203060008201527f20616e6420322a70693d3632383331383533303731382e204e6f74653a20726160208201527f6469616e742a31305e31312e0000000000000000000000000000000000000000604082015250565b7f2c20000000000000000000000000000000000000000000000000000000000000600082015250565b7f646174613a6170706c69636174696f6e2f6a736f6e3b6261736536342c000000600082015250565b7f4552433732313a207472616e736665722063616c6c6572206973206e6f74206f60008201527f776e6572206e6f7220617070726f766564000000000000000000000000000000602082015250565b7f2d00000000000000000000000000000000000000000000000000000000000000600082015250565b7f4600000000000000000000000000000000000000000000000000000000000000600082015250565b614e1681614367565b8114614e2157600080fd5b50565b614e2d8161438b565b8114614e3857600080fd5b50565b614e44816143c3565b8114614e4f57600080fd5b50565b614e5b816143cd565b8114614e6657600080fd5b50565b614e72816143f9565b8114614e7d57600080fd5b50565b614e898161442b565b8114614e9457600080fd5b50565b614ea081614435565b8114614eab57600080fd5b5056fe3c7376672076696577426f783d2230203020313030203130302220786d6c6e733d22687474703a2f2f7777772e77332e6f72672f323030302f737667223e3c706174682066696c6c3d226e6f6e6522207374726f6b653d227265642220643d224d2035302c35304d6574615472616e73616374696f6e2875696e74323536206e6f6e63652c616464726573732066726f6d2c62797465732066756e6374696f6e5369676e6174757265294142434445464748494a4b4c4d4e4f505152535455565758595a6162636465666768696a6b6c6d6e6f707172737475767778797a303132333435363738392b2fa26469706673582212206f514fdc0a15606a2f7a936fe416bd0eef8ad127a5ed0e74afdfcb066a1372d664736f6c63430008070033454950373132446f6d61696e28737472696e67206e616d652c737472696e672076657273696f6e2c6164647265737320766572696679696e67436f6e74726163742c627974657333322073616c7429",
			"opcodes": "PUSH1 0x80 PUSH1 0x40 MSTORE PUSH1 0x0 PUSH1 0x6 PUSH1 0x0 PUSH2 0x100 EXP DUP2 SLOAD DUP2 PUSH1 0xFF MUL NOT AND SWAP1 DUP4 ISZERO ISZERO MUL OR SWAP1 SSTORE POP PUSH5 0x492559F64F PUSH1 0xC SSTORE PUSH3 0x3C PUSH1 0xA PUSH1 0xB PUSH3 0x1D0 PUSH1 0x20 SHL PUSH1 0x20 SHR JUMP JUMPDEST PUSH1 0xD SSTORE PUSH1 0x40 MLOAD DUP1 PUSH1 0x40 ADD PUSH1 0x40 MSTORE DUP1 PUSH1 0xC DUP2 MSTORE PUSH1 0x20 ADD PUSH32 0x4F6E2D436861696E205356470000000000000000000000000000000000000000 DUP2 MSTORE POP PUSH1 0xF SWAP1 DUP1 MLOAD SWAP1 PUSH1 0x20 ADD SWAP1 PUSH3 0x8C SWAP3 SWAP2 SWAP1 PUSH3 0x54C JUMP JUMPDEST POP CALLVALUE DUP1 ISZERO PUSH3 0x9A JUMPI PUSH1 0x0 DUP1 REVERT JUMPDEST POP PUSH1 0x40 MLOAD DUP1 PUSH1 0x40 ADD PUSH1 0x40 MSTORE DUP1 PUSH1 0x4 DUP2 MSTORE PUSH1 0x20 ADD PUSH32 0x5465737400000000000000000000000000000000000000000000000000000000 DUP2 MSTORE POP PUSH1 0x40 MLOAD DUP1 PUSH1 0x40 ADD PUSH1 0x40 MSTORE DUP1 PUSH1 0x2 DUP2 MSTORE PUSH1 0x20 ADD PUSH32 0x5454000000000000000000000000000000000000000000000000000000000000 DUP2 MSTORE POP CALLER DUP3 DUP3 DUP2 PUSH1 0x0 SWAP1 DUP1 MLOAD SWAP1 PUSH1 0x20 ADD SWAP1 PUSH3 0x122 SWAP3 SWAP2 SWAP1 PUSH3 0x54C JUMP JUMPDEST POP DUP1 PUSH1 0x1 SWAP1 DUP1 MLOAD SWAP1 PUSH1 0x20 ADD SWAP1 PUSH3 0x13B SWAP3 SWAP2 SWAP1 PUSH3 0x54C JUMP JUMPDEST POP POP POP PUSH3 0x15E PUSH3 0x152 PUSH3 0x263 PUSH1 0x20 SHL PUSH1 0x20 SHR JUMP JUMPDEST PUSH3 0x27F PUSH1 0x20 SHL PUSH1 0x20 SHR JUMP JUMPDEST DUP1 PUSH1 0xB PUSH1 0x0 PUSH2 0x100 EXP DUP2 SLOAD DUP2 PUSH20 0xFFFFFFFFFFFFFFFFFFFFFFFFFFFFFFFFFFFFFFFF MUL NOT AND SWAP1 DUP4 PUSH20 0xFFFFFFFFFFFFFFFFFFFFFFFFFFFFFFFFFFFFFFFF AND MUL OR SWAP1 SSTORE POP PUSH3 0x1B6 PUSH1 0xA PUSH3 0x345 PUSH1 0x20 SHL PUSH3 0x1B21 OR PUSH1 0x20 SHR JUMP JUMPDEST PUSH3 0x1C7 DUP4 PUSH3 0x35B PUSH1 0x20 SHL PUSH1 0x20 SHR JUMP JUMPDEST POP POP POP PUSH3 0x8FB JUMP JUMPDEST PUSH1 0x0 DUP1 DUP3 LT ISZERO PUSH3 0x218 JUMPI PUSH1 0x40 MLOAD PUSH32 0x8C379A000000000000000000000000000000000000000000000000000000000 DUP2 MSTORE PUSH1 0x4 ADD PUSH3 0x20F SWAP1 PUSH3 0x6C9 JUMP JUMPDEST PUSH1 0x40 MLOAD DUP1 SWAP2 SUB SWAP1 REVERT JUMPDEST PUSH1 0x1 SWAP1 POP PUSH1 0x0 DUP3 GT ISZERO PUSH3 0x25D JUMPI PUSH1 0x0 PUSH1 0x1 SWAP1 POP JUMPDEST DUP3 DUP2 GT PUSH3 0x25B JUMPI DUP4 DUP3 PUSH3 0x243 SWAP2 SWAP1 PUSH3 0x71E JUMP JUMPDEST SWAP2 POP DUP1 DUP1 PUSH3 0x252 SWAP1 PUSH3 0x7FD JUMP JUMPDEST SWAP2 POP POP PUSH3 0x22D JUMP JUMPDEST POP JUMPDEST SWAP3 SWAP2 POP POP JUMP JUMPDEST PUSH1 0x0 PUSH3 0x27A PUSH3 0x3DD PUSH1 0x20 SHL PUSH3 0x1B37 OR PUSH1 0x20 SHR JUMP JUMPDEST SWAP1 POP SWAP1 JUMP JUMPDEST PUSH1 0x0 PUSH1 0x9 PUSH1 0x0 SWAP1 SLOAD SWAP1 PUSH2 0x100 EXP SWAP1 DIV PUSH20 0xFFFFFFFFFFFFFFFFFFFFFFFFFFFFFFFFFFFFFFFF AND SWAP1 POP DUP2 PUSH1 0x9 PUSH1 0x0 PUSH2 0x100 EXP DUP2 SLOAD DUP2 PUSH20 0xFFFFFFFFFFFFFFFFFFFFFFFFFFFFFFFFFFFFFFFF MUL NOT AND SWAP1 DUP4 PUSH20 0xFFFFFFFFFFFFFFFFFFFFFFFFFFFFFFFFFFFFFFFF AND MUL OR SWAP1 SSTORE POP DUP2 PUSH20 0xFFFFFFFFFFFFFFFFFFFFFFFFFFFFFFFFFFFFFFFF AND DUP2 PUSH20 0xFFFFFFFFFFFFFFFFFFFFFFFFFFFFFFFFFFFFFFFF AND PUSH32 0x8BE0079C531659141344CD1FD0A4F28419497F9722A3DAAFE3B4186F6B6457E0 PUSH1 0x40 MLOAD PUSH1 0x40 MLOAD DUP1 SWAP2 SUB SWAP1 LOG3 POP POP JUMP JUMPDEST PUSH1 0x1 DUP2 PUSH1 0x0 ADD PUSH1 0x0 DUP3 DUP3 SLOAD ADD SWAP3 POP POP DUP2 SWAP1 SSTORE POP POP JUMP JUMPDEST PUSH1 0x6 PUSH1 0x0 SWAP1 SLOAD SWAP1 PUSH2 0x100 EXP SWAP1 DIV PUSH1 0xFF AND ISZERO PUSH3 0x3AE JUMPI PUSH1 0x40 MLOAD PUSH32 0x8C379A000000000000000000000000000000000000000000000000000000000 DUP2 MSTORE PUSH1 0x4 ADD PUSH3 0x3A5 SWAP1 PUSH3 0x6EB JUMP JUMPDEST PUSH1 0x40 MLOAD DUP1 SWAP2 SUB SWAP1 REVERT JUMPDEST PUSH3 0x3BF DUP2 PUSH3 0x490 PUSH1 0x20 SHL PUSH1 0x20 SHR JUMP JUMPDEST PUSH1 0x1 PUSH1 0x6 PUSH1 0x0 PUSH2 0x100 EXP DUP2 SLOAD DUP2 PUSH1 0xFF MUL NOT AND SWAP1 DUP4 ISZERO ISZERO MUL OR SWAP1 SSTORE POP POP JUMP JUMPDEST PUSH1 0x0 ADDRESS PUSH20 0xFFFFFFFFFFFFFFFFFFFFFFFFFFFFFFFFFFFFFFFF AND CALLER PUSH20 0xFFFFFFFFFFFFFFFFFFFFFFFFFFFFFFFFFFFFFFFF AND EQ ISZERO PUSH3 0x489 JUMPI PUSH1 0x0 DUP1 CALLDATASIZE DUP1 DUP1 PUSH1 0x1F ADD PUSH1 0x20 DUP1 SWAP2 DIV MUL PUSH1 0x20 ADD PUSH1 0x40 MLOAD SWAP1 DUP2 ADD PUSH1 0x40 MSTORE DUP1 SWAP4 SWAP3 SWAP2 SWAP1 DUP2 DUP2 MSTORE PUSH1 0x20 ADD DUP4 DUP4 DUP1 DUP3 DUP5 CALLDATACOPY PUSH1 0x0 DUP2 DUP5 ADD MSTORE PUSH1 0x1F NOT PUSH1 0x1F DUP3 ADD AND SWAP1 POP DUP1 DUP4 ADD SWAP3 POP POP POP POP POP POP POP SWAP1 POP PUSH1 0x0 DUP1 CALLDATASIZE SWAP1 POP SWAP1 POP PUSH20 0xFFFFFFFFFFFFFFFFFFFFFFFFFFFFFFFFFFFFFFFF DUP2 DUP4 ADD MLOAD AND SWAP3 POP POP POP PUSH3 0x48D JUMP JUMPDEST CALLER SWAP1 POP JUMPDEST SWAP1 JUMP JUMPDEST PUSH1 0x40 MLOAD DUP1 PUSH1 0x80 ADD PUSH1 0x40 MSTORE DUP1 PUSH1 0x4F DUP2 MSTORE PUSH1 0x20 ADD PUSH3 0x58D9 PUSH1 0x4F SWAP2 CODECOPY DUP1 MLOAD SWAP1 PUSH1 0x20 ADD KECCAK256 DUP2 DUP1 MLOAD SWAP1 PUSH1 0x20 ADD KECCAK256 PUSH1 0x40 MLOAD DUP1 PUSH1 0x40 ADD PUSH1 0x40 MSTORE DUP1 PUSH1 0x1 DUP2 MSTORE PUSH1 0x20 ADD PUSH32 0x3100000000000000000000000000000000000000000000000000000000000000 DUP2 MSTORE POP DUP1 MLOAD SWAP1 PUSH1 0x20 ADD KECCAK256 ADDRESS PUSH3 0x507 PUSH3 0x53F PUSH1 0x20 SHL PUSH1 0x20 SHR JUMP JUMPDEST PUSH1 0x0 SHL PUSH1 0x40 MLOAD PUSH1 0x20 ADD PUSH3 0x520 SWAP6 SWAP5 SWAP4 SWAP3 SWAP2 SWAP1 PUSH3 0x66C JUMP JUMPDEST PUSH1 0x40 MLOAD PUSH1 0x20 DUP2 DUP4 SUB SUB DUP2 MSTORE SWAP1 PUSH1 0x40 MSTORE DUP1 MLOAD SWAP1 PUSH1 0x20 ADD KECCAK256 PUSH1 0x7 DUP2 SWAP1 SSTORE POP POP JUMP JUMPDEST PUSH1 0x0 DUP1 CHAINID SWAP1 POP DUP1 SWAP2 POP POP SWAP1 JUMP JUMPDEST DUP3 DUP1 SLOAD PUSH3 0x55A SWAP1 PUSH3 0x7C7 JUMP JUMPDEST SWAP1 PUSH1 0x0 MSTORE PUSH1 0x20 PUSH1 0x0 KECCAK256 SWAP1 PUSH1 0x1F ADD PUSH1 0x20 SWAP1 DIV DUP2 ADD SWAP3 DUP3 PUSH3 0x57E JUMPI PUSH1 0x0 DUP6 SSTORE PUSH3 0x5CA JUMP JUMPDEST DUP3 PUSH1 0x1F LT PUSH3 0x599 JUMPI DUP1 MLOAD PUSH1 0xFF NOT AND DUP4 DUP1 ADD OR DUP6 SSTORE PUSH3 0x5CA JUMP JUMPDEST DUP3 DUP1 ADD PUSH1 0x1 ADD DUP6 SSTORE DUP3 ISZERO PUSH3 0x5CA JUMPI SWAP2 DUP3 ADD JUMPDEST DUP3 DUP2 GT ISZERO PUSH3 0x5C9 JUMPI DUP3 MLOAD DUP3 SSTORE SWAP2 PUSH1 0x20 ADD SWAP2 SWAP1 PUSH1 0x1 ADD SWAP1 PUSH3 0x5AC JUMP JUMPDEST JUMPDEST POP SWAP1 POP PUSH3 0x5D9 SWAP2 SWAP1 PUSH3 0x5DD JUMP JUMPDEST POP SWAP1 JUMP JUMPDEST JUMPDEST DUP1 DUP3 GT ISZERO PUSH3 0x5F8 JUMPI PUSH1 0x0 DUP2 PUSH1 0x0 SWAP1 SSTORE POP PUSH1 0x1 ADD PUSH3 0x5DE JUMP JUMPDEST POP SWAP1 JUMP JUMPDEST PUSH3 0x607 DUP2 PUSH3 0x77F JUMP JUMPDEST DUP3 MSTORE POP POP JUMP JUMPDEST PUSH3 0x618 DUP2 PUSH3 0x793 JUMP JUMPDEST DUP3 MSTORE POP POP JUMP JUMPDEST PUSH1 0x0 PUSH3 0x62D PUSH1 0xD DUP4 PUSH3 0x70D JUMP JUMPDEST SWAP2 POP PUSH3 0x63A DUP3 PUSH3 0x8A9 JUMP JUMPDEST PUSH1 0x20 DUP3 ADD SWAP1 POP SWAP2 SWAP1 POP JUMP JUMPDEST PUSH1 0x0 PUSH3 0x654 PUSH1 0xE DUP4 PUSH3 0x70D JUMP JUMPDEST SWAP2 POP PUSH3 0x661 DUP3 PUSH3 0x8D2 JUMP JUMPDEST PUSH1 0x20 DUP3 ADD SWAP1 POP SWAP2 SWAP1 POP JUMP JUMPDEST PUSH1 0x0 PUSH1 0xA0 DUP3 ADD SWAP1 POP PUSH3 0x683 PUSH1 0x0 DUP4 ADD DUP9 PUSH3 0x60D JUMP JUMPDEST PUSH3 0x692 PUSH1 0x20 DUP4 ADD DUP8 PUSH3 0x60D JUMP JUMPDEST PUSH3 0x6A1 PUSH1 0x40 DUP4 ADD DUP7 PUSH3 0x60D JUMP JUMPDEST PUSH3 0x6B0 PUSH1 0x60 DUP4 ADD DUP6 PUSH3 0x5FC JUMP JUMPDEST PUSH3 0x6BF PUSH1 0x80 DUP4 ADD DUP5 PUSH3 0x60D JUMP JUMPDEST SWAP7 SWAP6 POP POP POP POP POP POP JUMP JUMPDEST PUSH1 0x0 PUSH1 0x20 DUP3 ADD SWAP1 POP DUP2 DUP2 SUB PUSH1 0x0 DUP4 ADD MSTORE PUSH3 0x6E4 DUP2 PUSH3 0x61E JUMP JUMPDEST SWAP1 POP SWAP2 SWAP1 POP JUMP JUMPDEST PUSH1 0x0 PUSH1 0x20 DUP3 ADD SWAP1 POP DUP2 DUP2 SUB PUSH1 0x0 DUP4 ADD MSTORE PUSH3 0x706 DUP2 PUSH3 0x645 JUMP JUMPDEST SWAP1 POP SWAP2 SWAP1 POP JUMP JUMPDEST PUSH1 0x0 DUP3 DUP3 MSTORE PUSH1 0x20 DUP3 ADD SWAP1 POP SWAP3 SWAP2 POP POP JUMP JUMPDEST PUSH1 0x0 PUSH3 0x72B DUP3 PUSH3 0x7BD JUMP JUMPDEST SWAP2 POP PUSH3 0x738 DUP4 PUSH3 0x7BD JUMP JUMPDEST SWAP3 POP DUP2 PUSH32 0xFFFFFFFFFFFFFFFFFFFFFFFFFFFFFFFFFFFFFFFFFFFFFFFFFFFFFFFFFFFFFFFF DIV DUP4 GT DUP3 ISZERO ISZERO AND ISZERO PUSH3 0x774 JUMPI PUSH3 0x773 PUSH3 0x84B JUMP JUMPDEST JUMPDEST DUP3 DUP3 MUL SWAP1 POP SWAP3 SWAP2 POP POP JUMP JUMPDEST PUSH1 0x0 PUSH3 0x78C DUP3 PUSH3 0x79D JUMP JUMPDEST SWAP1 POP SWAP2 SWAP1 POP JUMP JUMPDEST PUSH1 0x0 DUP2 SWAP1 POP SWAP2 SWAP1 POP JUMP JUMPDEST PUSH1 0x0 PUSH20 0xFFFFFFFFFFFFFFFFFFFFFFFFFFFFFFFFFFFFFFFF DUP3 AND SWAP1 POP SWAP2 SWAP1 POP JUMP JUMPDEST PUSH1 0x0 DUP2 SWAP1 POP SWAP2 SWAP1 POP JUMP JUMPDEST PUSH1 0x0 PUSH1 0x2 DUP3 DIV SWAP1 POP PUSH1 0x1 DUP3 AND DUP1 PUSH3 0x7E0 JUMPI PUSH1 0x7F DUP3 AND SWAP2 POP JUMPDEST PUSH1 0x20 DUP3 LT DUP2 EQ ISZERO PUSH3 0x7F7 JUMPI PUSH3 0x7F6 PUSH3 0x87A JUMP JUMPDEST JUMPDEST POP SWAP2 SWAP1 POP JUMP JUMPDEST PUSH1 0x0 PUSH3 0x80A DUP3 PUSH3 0x7BD JUMP JUMPDEST SWAP2 POP PUSH32 0xFFFFFFFFFFFFFFFFFFFFFFFFFFFFFFFFFFFFFFFFFFFFFFFFFFFFFFFFFFFFFFFF DUP3 EQ ISZERO PUSH3 0x840 JUMPI PUSH3 0x83F PUSH3 0x84B JUMP JUMPDEST JUMPDEST PUSH1 0x1 DUP3 ADD SWAP1 POP SWAP2 SWAP1 POP JUMP JUMPDEST PUSH32 0x4E487B7100000000000000000000000000000000000000000000000000000000 PUSH1 0x0 MSTORE PUSH1 0x11 PUSH1 0x4 MSTORE PUSH1 0x24 PUSH1 0x0 REVERT JUMPDEST PUSH32 0x4E487B7100000000000000000000000000000000000000000000000000000000 PUSH1 0x0 MSTORE PUSH1 0x22 PUSH1 0x4 MSTORE PUSH1 0x24 PUSH1 0x0 REVERT JUMPDEST PUSH32 0x43686F6F7365205F703E3D302E00000000000000000000000000000000000000 PUSH1 0x0 DUP3 ADD MSTORE POP JUMP JUMPDEST PUSH32 0x616C726561647920696E69746564000000000000000000000000000000000000 PUSH1 0x0 DUP3 ADD MSTORE POP JUMP JUMPDEST PUSH2 0x4FCE DUP1 PUSH3 0x90B PUSH1 0x0 CODECOPY PUSH1 0x0 RETURN INVALID PUSH1 0x80 PUSH1 0x40 MSTORE PUSH1 0x4 CALLDATASIZE LT PUSH2 0x1CD JUMPI PUSH1 0x0 CALLDATALOAD PUSH1 0xE0 SHR DUP1 PUSH4 0x4E4007F0 GT PUSH2 0xF7 JUMPI DUP1 PUSH4 0x95D89B41 GT PUSH2 0x95 JUMPI DUP1 PUSH4 0xC87B56DD GT PUSH2 0x64 JUMPI DUP1 PUSH4 0xC87B56DD EQ PUSH2 0x690 JUMPI DUP1 PUSH4 0xCB5CC109 EQ PUSH2 0x6CD JUMPI DUP1 PUSH4 0xE985E9C5 EQ PUSH2 0x70B JUMPI DUP1 PUSH4 0xF2FDE38B EQ PUSH2 0x748 JUMPI PUSH2 0x1CD JUMP JUMPDEST DUP1 PUSH4 0x95D89B41 EQ PUSH2 0x5D5 JUMPI DUP1 PUSH4 0xA22CB465 EQ PUSH2 0x600 JUMPI DUP1 PUSH4 0xA58B00BA EQ PUSH2 0x629 JUMPI DUP1 PUSH4 0xB88D4FDE EQ PUSH2 0x667 JUMPI PUSH2 0x1CD JUMP JUMPDEST DUP1 PUSH4 0x70A08231 GT PUSH2 0xD1 JUMPI DUP1 PUSH4 0x70A08231 EQ PUSH2 0x52D JUMPI DUP1 PUSH4 0x715018A6 EQ PUSH2 0x56A JUMPI DUP1 PUSH4 0x755EDD17 EQ PUSH2 0x581 JUMPI DUP1 PUSH4 0x8DA5CB5B EQ PUSH2 0x5AA JUMPI PUSH2 0x1CD JUMP JUMPDEST DUP1 PUSH4 0x4E4007F0 EQ PUSH2 0x488 JUMPI DUP1 PUSH4 0x61BC221A EQ PUSH2 0x4C5 JUMPI DUP1 PUSH4 0x6352211E EQ PUSH2 0x4F0 JUMPI PUSH2 0x1CD JUMP JUMPDEST DUP1 PUSH4 0x18160DDD GT PUSH2 0x16F JUMPI DUP1 PUSH4 0x3408E470 GT PUSH2 0x13E JUMPI DUP1 PUSH4 0x3408E470 EQ PUSH2 0x3CE JUMPI DUP1 PUSH4 0x3DD0A4CB EQ PUSH2 0x3F9 JUMPI DUP1 PUSH4 0x42842E0E EQ PUSH2 0x436 JUMPI DUP1 PUSH4 0x42966C68 EQ PUSH2 0x45F JUMPI PUSH2 0x1CD JUMP JUMPDEST DUP1 PUSH4 0x18160DDD EQ PUSH2 0x312 JUMPI DUP1 PUSH4 0x20379EE5 EQ PUSH2 0x33D JUMPI DUP1 PUSH4 0x23B872DD EQ PUSH2 0x368 JUMPI DUP1 PUSH4 0x2D0335AB EQ PUSH2 0x391 JUMPI PUSH2 0x1CD JUMP JUMPDEST DUP1 PUSH4 0x95EA7B3 GT PUSH2 0x1AB JUMPI DUP1 PUSH4 0x95EA7B3 EQ PUSH2 0x277 JUMPI DUP1 PUSH4 0xC53C51C EQ PUSH2 0x2A0 JUMPI DUP1 PUSH4 0xF7E5970 EQ PUSH2 0x2D0 JUMPI DUP1 PUSH4 0x1249C58B EQ PUSH2 0x2FB JUMPI PUSH2 0x1CD JUMP JUMPDEST DUP1 PUSH4 0x1FFC9A7 EQ PUSH2 0x1D2 JUMPI DUP1 PUSH4 0x6FDDE03 EQ PUSH2 0x20F JUMPI DUP1 PUSH4 0x81812FC EQ PUSH2 0x23A JUMPI JUMPDEST PUSH1 0x0 DUP1 REVERT JUMPDEST CALLVALUE DUP1 ISZERO PUSH2 0x1DE JUMPI PUSH1 0x0 DUP1 REVERT JUMPDEST POP PUSH2 0x1F9 PUSH1 0x4 DUP1 CALLDATASIZE SUB DUP2 ADD SWAP1 PUSH2 0x1F4 SWAP2 SWAP1 PUSH2 0x345C JUMP JUMPDEST PUSH2 0x771 JUMP JUMPDEST PUSH1 0x40 MLOAD PUSH2 0x206 SWAP2 SWAP1 PUSH2 0x3DD1 JUMP JUMPDEST PUSH1 0x40 MLOAD DUP1 SWAP2 SUB SWAP1 RETURN JUMPDEST CALLVALUE DUP1 ISZERO PUSH2 0x21B JUMPI PUSH1 0x0 DUP1 REVERT JUMPDEST POP PUSH2 0x224 PUSH2 0x853 JUMP JUMPDEST PUSH1 0x40 MLOAD PUSH2 0x231 SWAP2 SWAP1 PUSH2 0x3EDC JUMP JUMPDEST PUSH1 0x40 MLOAD DUP1 SWAP2 SUB SWAP1 RETURN JUMPDEST CALLVALUE DUP1 ISZERO PUSH2 0x246 JUMPI PUSH1 0x0 DUP1 REVERT JUMPDEST POP PUSH2 0x261 PUSH1 0x4 DUP1 CALLDATASIZE SUB DUP2 ADD SWAP1 PUSH2 0x25C SWAP2 SWAP1 PUSH2 0x34E3 JUMP JUMPDEST PUSH2 0x8E5 JUMP JUMPDEST PUSH1 0x40 MLOAD PUSH2 0x26E SWAP2 SWAP1 PUSH2 0x3D2C JUMP JUMPDEST PUSH1 0x40 MLOAD DUP1 SWAP2 SUB SWAP1 RETURN JUMPDEST CALLVALUE DUP1 ISZERO PUSH2 0x283 JUMPI PUSH1 0x0 DUP1 REVERT JUMPDEST POP PUSH2 0x29E PUSH1 0x4 DUP1 CALLDATASIZE SUB DUP2 ADD SWAP1 PUSH2 0x299 SWAP2 SWAP1 PUSH2 0x341C JUMP JUMPDEST PUSH2 0x96A JUMP JUMPDEST STOP JUMPDEST PUSH2 0x2BA PUSH1 0x4 DUP1 CALLDATASIZE SUB DUP2 ADD SWAP1 PUSH2 0x2B5 SWAP2 SWAP1 PUSH2 0x3385 JUMP JUMPDEST PUSH2 0xA82 JUMP JUMPDEST PUSH1 0x40 MLOAD PUSH2 0x2C7 SWAP2 SWAP1 PUSH2 0x3EBA JUMP JUMPDEST PUSH1 0x40 MLOAD DUP1 SWAP2 SUB SWAP1 RETURN JUMPDEST CALLVALUE DUP1 ISZERO PUSH2 0x2DC JUMPI PUSH1 0x0 DUP1 REVERT JUMPDEST POP PUSH2 0x2E5 PUSH2 0xCF4 JUMP JUMPDEST PUSH1 0x40 MLOAD PUSH2 0x2F2 SWAP2 SWAP1 PUSH2 0x3EDC JUMP JUMPDEST PUSH1 0x40 MLOAD DUP1 SWAP2 SUB SWAP1 RETURN JUMPDEST CALLVALUE DUP1 ISZERO PUSH2 0x307 JUMPI PUSH1 0x0 DUP1 REVERT JUMPDEST POP PUSH2 0x310 PUSH2 0xD2D JUMP JUMPDEST STOP JUMPDEST CALLVALUE DUP1 ISZERO PUSH2 0x31E JUMPI PUSH1 0x0 DUP1 REVERT JUMPDEST POP PUSH2 0x327 PUSH2 0xDD3 JUMP JUMPDEST PUSH1 0x40 MLOAD PUSH2 0x334 SWAP2 SWAP1 PUSH2 0x417E JUMP JUMPDEST PUSH1 0x40 MLOAD DUP1 SWAP2 SUB SWAP1 RETURN JUMPDEST CALLVALUE DUP1 ISZERO PUSH2 0x349 JUMPI PUSH1 0x0 DUP1 REVERT JUMPDEST POP PUSH2 0x352 PUSH2 0xDF0 JUMP JUMPDEST PUSH1 0x40 MLOAD PUSH2 0x35F SWAP2 SWAP1 PUSH2 0x3E15 JUMP JUMPDEST PUSH1 0x40 MLOAD DUP1 SWAP2 SUB SWAP1 RETURN JUMPDEST CALLVALUE DUP1 ISZERO PUSH2 0x374 JUMPI PUSH1 0x0 DUP1 REVERT JUMPDEST POP PUSH2 0x38F PUSH1 0x4 DUP1 CALLDATASIZE SUB DUP2 ADD SWAP1 PUSH2 0x38A SWAP2 SWAP1 PUSH2 0x326F JUMP JUMPDEST PUSH2 0xDFA JUMP JUMPDEST STOP JUMPDEST CALLVALUE DUP1 ISZERO PUSH2 0x39D JUMPI PUSH1 0x0 DUP1 REVERT JUMPDEST POP PUSH2 0x3B8 PUSH1 0x4 DUP1 CALLDATASIZE SUB DUP2 ADD SWAP1 PUSH2 0x3B3 SWAP2 SWAP1 PUSH2 0x3202 JUMP JUMPDEST PUSH2 0xE5A JUMP JUMPDEST PUSH1 0x40 MLOAD PUSH2 0x3C5 SWAP2 SWAP1 PUSH2 0x417E JUMP JUMPDEST PUSH1 0x40 MLOAD DUP1 SWAP2 SUB SWAP1 RETURN JUMPDEST CALLVALUE DUP1 ISZERO PUSH2 0x3DA JUMPI PUSH1 0x0 DUP1 REVERT JUMPDEST POP PUSH2 0x3E3 PUSH2 0xEA3 JUMP JUMPDEST PUSH1 0x40 MLOAD PUSH2 0x3F0 SWAP2 SWAP1 PUSH2 0x417E JUMP JUMPDEST PUSH1 0x40 MLOAD DUP1 SWAP2 SUB SWAP1 RETURN JUMPDEST CALLVALUE DUP1 ISZERO PUSH2 0x405 JUMPI PUSH1 0x0 DUP1 REVERT JUMPDEST POP PUSH2 0x420 PUSH1 0x4 DUP1 CALLDATASIZE SUB DUP2 ADD SWAP1 PUSH2 0x41B SWAP2 SWAP1 PUSH2 0x3510 JUMP JUMPDEST PUSH2 0xEB0 JUMP JUMPDEST PUSH1 0x40 MLOAD PUSH2 0x42D SWAP2 SWAP1 PUSH2 0x417E JUMP JUMPDEST PUSH1 0x40 MLOAD DUP1 SWAP2 SUB SWAP1 RETURN JUMPDEST CALLVALUE DUP1 ISZERO PUSH2 0x442 JUMPI PUSH1 0x0 DUP1 REVERT JUMPDEST POP PUSH2 0x45D PUSH1 0x4 DUP1 CALLDATASIZE SUB DUP2 ADD SWAP1 PUSH2 0x458 SWAP2 SWAP1 PUSH2 0x326F JUMP JUMPDEST PUSH2 0xEE1 JUMP JUMPDEST STOP JUMPDEST CALLVALUE DUP1 ISZERO PUSH2 0x46B JUMPI PUSH1 0x0 DUP1 REVERT JUMPDEST POP PUSH2 0x486 PUSH1 0x4 DUP1 CALLDATASIZE SUB DUP2 ADD SWAP1 PUSH2 0x481 SWAP2 SWAP1 PUSH2 0x34E3 JUMP JUMPDEST PUSH2 0xF01 JUMP JUMPDEST STOP JUMPDEST CALLVALUE DUP1 ISZERO PUSH2 0x494 JUMPI PUSH1 0x0 DUP1 REVERT JUMPDEST POP PUSH2 0x4AF PUSH1 0x4 DUP1 CALLDATASIZE SUB DUP2 ADD SWAP1 PUSH2 0x4AA SWAP2 SWAP1 PUSH2 0x34E3 JUMP JUMPDEST PUSH2 0xF0D JUMP JUMPDEST PUSH1 0x40 MLOAD PUSH2 0x4BC SWAP2 SWAP1 PUSH2 0x3EBA JUMP JUMPDEST PUSH1 0x40 MLOAD DUP1 SWAP2 SUB SWAP1 RETURN JUMPDEST CALLVALUE DUP1 ISZERO PUSH2 0x4D1 JUMPI PUSH1 0x0 DUP1 REVERT JUMPDEST POP PUSH2 0x4DA PUSH2 0x1185 JUMP JUMPDEST PUSH1 0x40 MLOAD PUSH2 0x4E7 SWAP2 SWAP1 PUSH2 0x417E JUMP JUMPDEST PUSH1 0x40 MLOAD DUP1 SWAP2 SUB SWAP1 RETURN JUMPDEST CALLVALUE DUP1 ISZERO PUSH2 0x4FC JUMPI PUSH1 0x0 DUP1 REVERT JUMPDEST POP PUSH2 0x517 PUSH1 0x4 DUP1 CALLDATASIZE SUB DUP2 ADD SWAP1 PUSH2 0x512 SWAP2 SWAP1 PUSH2 0x34E3 JUMP JUMPDEST PUSH2 0x118B JUMP JUMPDEST PUSH1 0x40 MLOAD PUSH2 0x524 SWAP2 SWAP1 PUSH2 0x3D2C JUMP JUMPDEST PUSH1 0x40 MLOAD DUP1 SWAP2 SUB SWAP1 RETURN JUMPDEST CALLVALUE DUP1 ISZERO PUSH2 0x539 JUMPI PUSH1 0x0 DUP1 REVERT JUMPDEST POP PUSH2 0x554 PUSH1 0x4 DUP1 CALLDATASIZE SUB DUP2 ADD SWAP1 PUSH2 0x54F SWAP2 SWAP1 PUSH2 0x3202 JUMP JUMPDEST PUSH2 0x123D JUMP JUMPDEST PUSH1 0x40 MLOAD PUSH2 0x561 SWAP2 SWAP1 PUSH2 0x417E JUMP JUMPDEST PUSH1 0x40 MLOAD DUP1 SWAP2 SUB SWAP1 RETURN JUMPDEST CALLVALUE DUP1 ISZERO PUSH2 0x576 JUMPI PUSH1 0x0 DUP1 REVERT JUMPDEST POP PUSH2 0x57F PUSH2 0x12F5 JUMP JUMPDEST STOP JUMPDEST CALLVALUE DUP1 ISZERO PUSH2 0x58D JUMPI PUSH1 0x0 DUP1 REVERT JUMPDEST POP PUSH2 0x5A8 PUSH1 0x4 DUP1 CALLDATASIZE SUB DUP2 ADD SWAP1 PUSH2 0x5A3 SWAP2 SWAP1 PUSH2 0x3202 JUMP JUMPDEST PUSH2 0x137D JUMP JUMPDEST STOP JUMPDEST CALLVALUE DUP1 ISZERO PUSH2 0x5B6 JUMPI PUSH1 0x0 DUP1 REVERT JUMPDEST POP PUSH2 0x5BF PUSH2 0x141F JUMP JUMPDEST PUSH1 0x40 MLOAD PUSH2 0x5CC SWAP2 SWAP1 PUSH2 0x3D2C JUMP JUMPDEST PUSH1 0x40 MLOAD DUP1 SWAP2 SUB SWAP1 RETURN JUMPDEST CALLVALUE DUP1 ISZERO PUSH2 0x5E1 JUMPI PUSH1 0x0 DUP1 REVERT JUMPDEST POP PUSH2 0x5EA PUSH2 0x1449 JUMP JUMPDEST PUSH1 0x40 MLOAD PUSH2 0x5F7 SWAP2 SWAP1 PUSH2 0x3EDC JUMP JUMPDEST PUSH1 0x40 MLOAD DUP1 SWAP2 SUB SWAP1 RETURN JUMPDEST CALLVALUE DUP1 ISZERO PUSH2 0x60C JUMPI PUSH1 0x0 DUP1 REVERT JUMPDEST POP PUSH2 0x627 PUSH1 0x4 DUP1 CALLDATASIZE SUB DUP2 ADD SWAP1 PUSH2 0x622 SWAP2 SWAP1 PUSH2 0x3345 JUMP JUMPDEST PUSH2 0x14DB JUMP JUMPDEST STOP JUMPDEST CALLVALUE DUP1 ISZERO PUSH2 0x635 JUMPI PUSH1 0x0 DUP1 REVERT JUMPDEST POP PUSH2 0x650 PUSH1 0x4 DUP1 CALLDATASIZE SUB DUP2 ADD SWAP1 PUSH2 0x64B SWAP2 SWAP1 PUSH2 0x34E3 JUMP JUMPDEST PUSH2 0x14F1 JUMP JUMPDEST PUSH1 0x40 MLOAD PUSH2 0x65E SWAP3 SWAP2 SWAP1 PUSH2 0x3DEC JUMP JUMPDEST PUSH1 0x40 MLOAD DUP1 SWAP2 SUB SWAP1 RETURN JUMPDEST CALLVALUE DUP1 ISZERO PUSH2 0x673 JUMPI PUSH1 0x0 DUP1 REVERT JUMPDEST POP PUSH2 0x68E PUSH1 0x4 DUP1 CALLDATASIZE SUB DUP2 ADD SWAP1 PUSH2 0x689 SWAP2 SWAP1 PUSH2 0x32C2 JUMP JUMPDEST PUSH2 0x1782 JUMP JUMPDEST STOP JUMPDEST CALLVALUE DUP1 ISZERO PUSH2 0x69C JUMPI PUSH1 0x0 DUP1 REVERT JUMPDEST POP PUSH2 0x6B7 PUSH1 0x4 DUP1 CALLDATASIZE SUB DUP2 ADD SWAP1 PUSH2 0x6B2 SWAP2 SWAP1 PUSH2 0x34E3 JUMP JUMPDEST PUSH2 0x17E4 JUMP JUMPDEST PUSH1 0x40 MLOAD PUSH2 0x6C4 SWAP2 SWAP1 PUSH2 0x3EDC JUMP JUMPDEST PUSH1 0x40 MLOAD DUP1 SWAP2 SUB SWAP1 RETURN JUMPDEST CALLVALUE DUP1 ISZERO PUSH2 0x6D9 JUMPI PUSH1 0x0 DUP1 REVERT JUMPDEST POP PUSH2 0x6F4 PUSH1 0x4 DUP1 CALLDATASIZE SUB DUP2 ADD SWAP1 PUSH2 0x6EF SWAP2 SWAP1 PUSH2 0x34E3 JUMP JUMPDEST PUSH2 0x184D JUMP JUMPDEST PUSH1 0x40 MLOAD PUSH2 0x702 SWAP3 SWAP2 SWAP1 PUSH2 0x3DEC JUMP JUMPDEST PUSH1 0x40 MLOAD DUP1 SWAP2 SUB SWAP1 RETURN JUMPDEST CALLVALUE DUP1 ISZERO PUSH2 0x717 JUMPI PUSH1 0x0 DUP1 REVERT JUMPDEST POP PUSH2 0x732 PUSH1 0x4 DUP1 CALLDATASIZE SUB DUP2 ADD SWAP1 PUSH2 0x72D SWAP2 SWAP1 PUSH2 0x322F JUMP JUMPDEST PUSH2 0x1927 JUMP JUMPDEST PUSH1 0x40 MLOAD PUSH2 0x73F SWAP2 SWAP1 PUSH2 0x3DD1 JUMP JUMPDEST PUSH1 0x40 MLOAD DUP1 SWAP2 SUB SWAP1 RETURN JUMPDEST CALLVALUE DUP1 ISZERO PUSH2 0x754 JUMPI PUSH1 0x0 DUP1 REVERT JUMPDEST POP PUSH2 0x76F PUSH1 0x4 DUP1 CALLDATASIZE SUB DUP2 ADD SWAP1 PUSH2 0x76A SWAP2 SWAP1 PUSH2 0x3202 JUMP JUMPDEST PUSH2 0x1A29 JUMP JUMPDEST STOP JUMPDEST PUSH1 0x0 PUSH32 0x80AC58CD00000000000000000000000000000000000000000000000000000000 PUSH28 0xFFFFFFFFFFFFFFFFFFFFFFFFFFFFFFFFFFFFFFFFFFFFFFFFFFFFFFFF NOT AND DUP3 PUSH28 0xFFFFFFFFFFFFFFFFFFFFFFFFFFFFFFFFFFFFFFFFFFFFFFFFFFFFFFFF NOT AND EQ DUP1 PUSH2 0x83C JUMPI POP PUSH32 0x5B5E139F00000000000000000000000000000000000000000000000000000000 PUSH28 0xFFFFFFFFFFFFFFFFFFFFFFFFFFFFFFFFFFFFFFFFFFFFFFFFFFFFFFFF NOT AND DUP3 PUSH28 0xFFFFFFFFFFFFFFFFFFFFFFFFFFFFFFFFFFFFFFFFFFFFFFFFFFFFFFFF NOT AND EQ JUMPDEST DUP1 PUSH2 0x84C JUMPI POP PUSH2 0x84B DUP3 PUSH2 0x1BE8 JUMP JUMPDEST JUMPDEST SWAP1 POP SWAP2 SWAP1 POP JUMP JUMPDEST PUSH1 0x60 PUSH1 0x0 DUP1 SLOAD PUSH2 0x862 SWAP1 PUSH2 0x4484 JUMP JUMPDEST DUP1 PUSH1 0x1F ADD PUSH1 0x20 DUP1 SWAP2 DIV MUL PUSH1 0x20 ADD PUSH1 0x40 MLOAD SWAP1 DUP2 ADD PUSH1 0x40 MSTORE DUP1 SWAP3 SWAP2 SWAP1 DUP2 DUP2 MSTORE PUSH1 0x20 ADD DUP3 DUP1 SLOAD PUSH2 0x88E SWAP1 PUSH2 0x4484 JUMP JUMPDEST DUP1 ISZERO PUSH2 0x8DB JUMPI DUP1 PUSH1 0x1F LT PUSH2 0x8B0 JUMPI PUSH2 0x100 DUP1 DUP4 SLOAD DIV MUL DUP4 MSTORE SWAP2 PUSH1 0x20 ADD SWAP2 PUSH2 0x8DB JUMP JUMPDEST DUP3 ADD SWAP2 SWAP1 PUSH1 0x0 MSTORE PUSH1 0x20 PUSH1 0x0 KECCAK256 SWAP1 JUMPDEST DUP2 SLOAD DUP2 MSTORE SWAP1 PUSH1 0x1 ADD SWAP1 PUSH1 0x20 ADD DUP1 DUP4 GT PUSH2 0x8BE JUMPI DUP3 SWAP1 SUB PUSH1 0x1F AND DUP3 ADD SWAP2 JUMPDEST POP POP POP POP POP SWAP1 POP SWAP1 JUMP JUMPDEST PUSH1 0x0 PUSH2 0x8F0 DUP3 PUSH2 0x1C52 JUMP JUMPDEST PUSH2 0x92F JUMPI PUSH1 0x40 MLOAD PUSH32 0x8C379A000000000000000000000000000000000000000000000000000000000 DUP2 MSTORE PUSH1 0x4 ADD PUSH2 0x926 SWAP1 PUSH2 0x40BE JUMP JUMPDEST PUSH1 0x40 MLOAD DUP1 SWAP2 SUB SWAP1 REVERT JUMPDEST PUSH1 0x4 PUSH1 0x0 DUP4 DUP2 MSTORE PUSH1 0x20 ADD SWAP1 DUP2 MSTORE PUSH1 0x20 ADD PUSH1 0x0 KECCAK256 PUSH1 0x0 SWAP1 SLOAD SWAP1 PUSH2 0x100 EXP SWAP1 DIV PUSH20 0xFFFFFFFFFFFFFFFFFFFFFFFFFFFFFFFFFFFFFFFF AND SWAP1 POP SWAP2 SWAP1 POP JUMP JUMPDEST PUSH1 0x0 PUSH2 0x975 DUP3 PUSH2 0x118B JUMP JUMPDEST SWAP1 POP DUP1 PUSH20 0xFFFFFFFFFFFFFFFFFFFFFFFFFFFFFFFFFFFFFFFF AND DUP4 PUSH20 0xFFFFFFFFFFFFFFFFFFFFFFFFFFFFFFFFFFFFFFFF AND EQ ISZERO PUSH2 0x9E6 JUMPI PUSH1 0x40 MLOAD PUSH32 0x8C379A000000000000000000000000000000000000000000000000000000000 DUP2 MSTORE PUSH1 0x4 ADD PUSH2 0x9DD SWAP1 PUSH2 0x411E JUMP JUMPDEST PUSH1 0x40 MLOAD DUP1 SWAP2 SUB SWAP1 REVERT JUMPDEST DUP1 PUSH20 0xFFFFFFFFFFFFFFFFFFFFFFFFFFFFFFFFFFFFFFFF AND PUSH2 0xA05 PUSH2 0x1CBE JUMP JUMPDEST PUSH20 0xFFFFFFFFFFFFFFFFFFFFFFFFFFFFFFFFFFFFFFFF AND EQ DUP1 PUSH2 0xA34 JUMPI POP PUSH2 0xA33 DUP2 PUSH2 0xA2E PUSH2 0x1CBE JUMP JUMPDEST PUSH2 0x1927 JUMP JUMPDEST JUMPDEST PUSH2 0xA73 JUMPI PUSH1 0x40 MLOAD PUSH32 0x8C379A000000000000000000000000000000000000000000000000000000000 DUP2 MSTORE PUSH1 0x4 ADD PUSH2 0xA6A SWAP1 PUSH2 0x403E JUMP JUMPDEST PUSH1 0x40 MLOAD DUP1 SWAP2 SUB SWAP1 REVERT JUMPDEST PUSH2 0xA7D DUP4 DUP4 PUSH2 0x1CCD JUMP JUMPDEST POP POP POP JUMP JUMPDEST PUSH1 0x60 PUSH1 0x0 PUSH1 0x40 MLOAD DUP1 PUSH1 0x60 ADD PUSH1 0x40 MSTORE DUP1 PUSH1 0x8 PUSH1 0x0 DUP11 PUSH20 0xFFFFFFFFFFFFFFFFFFFFFFFFFFFFFFFFFFFFFFFF AND PUSH20 0xFFFFFFFFFFFFFFFFFFFFFFFFFFFFFFFFFFFFFFFF AND DUP2 MSTORE PUSH1 0x20 ADD SWAP1 DUP2 MSTORE PUSH1 0x20 ADD PUSH1 0x0 KECCAK256 SLOAD DUP2 MSTORE PUSH1 0x20 ADD DUP9 PUSH20 0xFFFFFFFFFFFFFFFFFFFFFFFFFFFFFFFFFFFFFFFF AND DUP2 MSTORE PUSH1 0x20 ADD DUP8 DUP2 MSTORE POP SWAP1 POP PUSH2 0xB05 DUP8 DUP3 DUP8 DUP8 DUP8 PUSH2 0x1D86 JUMP JUMPDEST PUSH2 0xB44 JUMPI PUSH1 0x40 MLOAD PUSH32 0x8C379A000000000000000000000000000000000000000000000000000000000 DUP2 MSTORE PUSH1 0x4 ADD PUSH2 0xB3B SWAP1 PUSH2 0x40FE JUMP JUMPDEST PUSH1 0x40 MLOAD DUP1 SWAP2 SUB SWAP1 REVERT JUMPDEST PUSH2 0xB97 PUSH1 0x1 PUSH1 0x8 PUSH1 0x0 DUP11 PUSH20 0xFFFFFFFFFFFFFFFFFFFFFFFFFFFFFFFFFFFFFFFF AND PUSH20 0xFFFFFFFFFFFFFFFFFFFFFFFFFFFFFFFFFFFFFFFF AND DUP2 MSTORE PUSH1 0x20 ADD SWAP1 DUP2 MSTORE PUSH1 0x20 ADD PUSH1 0x0 KECCAK256 SLOAD PUSH2 0x1E8F SWAP1 SWAP2 SWAP1 PUSH4 0xFFFFFFFF AND JUMP JUMPDEST PUSH1 0x8 PUSH1 0x0 DUP10 PUSH20 0xFFFFFFFFFFFFFFFFFFFFFFFFFFFFFFFFFFFFFFFF AND PUSH20 0xFFFFFFFFFFFFFFFFFFFFFFFFFFFFFFFFFFFFFFFF AND DUP2 MSTORE PUSH1 0x20 ADD SWAP1 DUP2 MSTORE PUSH1 0x20 ADD PUSH1 0x0 KECCAK256 DUP2 SWAP1 SSTORE POP PUSH32 0x5845892132946850460BFF5A0083F71031BC5BF9AADCD40F1DE79423EAC9B10B DUP8 CALLER DUP9 PUSH1 0x40 MLOAD PUSH2 0xC0D SWAP4 SWAP3 SWAP2 SWAP1 PUSH2 0x3D47 JUMP JUMPDEST PUSH1 0x40 MLOAD DUP1 SWAP2 SUB SWAP1 LOG1 PUSH1 0x0 DUP1 ADDRESS PUSH20 0xFFFFFFFFFFFFFFFFFFFFFFFFFFFFFFFFFFFFFFFF AND DUP9 DUP11 PUSH1 0x40 MLOAD PUSH1 0x20 ADD PUSH2 0xC42 SWAP3 SWAP2 SWAP1 PUSH2 0x3BB1 JUMP JUMPDEST PUSH1 0x40 MLOAD PUSH1 0x20 DUP2 DUP4 SUB SUB DUP2 MSTORE SWAP1 PUSH1 0x40 MSTORE PUSH1 0x40 MLOAD PUSH2 0xC5E SWAP2 SWAP1 PUSH2 0x3B9A JUMP JUMPDEST PUSH1 0x0 PUSH1 0x40 MLOAD DUP1 DUP4 SUB DUP2 PUSH1 0x0 DUP7 GAS CALL SWAP2 POP POP RETURNDATASIZE DUP1 PUSH1 0x0 DUP2 EQ PUSH2 0xC9B JUMPI PUSH1 0x40 MLOAD SWAP2 POP PUSH1 0x1F NOT PUSH1 0x3F RETURNDATASIZE ADD AND DUP3 ADD PUSH1 0x40 MSTORE RETURNDATASIZE DUP3 MSTORE RETURNDATASIZE PUSH1 0x0 PUSH1 0x20 DUP5 ADD RETURNDATACOPY PUSH2 0xCA0 JUMP JUMPDEST PUSH1 0x60 SWAP2 POP JUMPDEST POP SWAP2 POP SWAP2 POP DUP2 PUSH2 0xCE5 JUMPI PUSH1 0x40 MLOAD PUSH32 0x8C379A000000000000000000000000000000000000000000000000000000000 DUP2 MSTORE PUSH1 0x4 ADD PUSH2 0xCDC SWAP1 PUSH2 0x3F3E JUMP JUMPDEST PUSH1 0x40 MLOAD DUP1 SWAP2 SUB SWAP1 REVERT JUMPDEST DUP1 SWAP4 POP POP POP POP SWAP6 SWAP5 POP POP POP POP POP JUMP JUMPDEST PUSH1 0x40 MLOAD DUP1 PUSH1 0x40 ADD PUSH1 0x40 MSTORE DUP1 PUSH1 0x1 DUP2 MSTORE PUSH1 0x20 ADD PUSH32 0x3100000000000000000000000000000000000000000000000000000000000000 DUP2 MSTORE POP DUP2 JUMP JUMPDEST PUSH2 0xD39 CALLER PUSH1 0xE SLOAD PUSH2 0x1EA5 JUMP JUMPDEST PUSH1 0x0 PUSH1 0x40 MLOAD DUP1 PUSH1 0x40 ADD PUSH1 0x40 MSTORE DUP1 PUSH1 0x7 DUP2 MSTORE PUSH1 0x20 ADD PUSH32 0x4646462B462B4600000000000000000000000000000000000000000000000000 DUP2 MSTORE POP SWAP1 POP PUSH2 0xD8E DUP2 PUSH1 0x4 PUSH1 0xC SLOAD PUSH2 0xD86 SWAP2 SWAP1 PUSH2 0x42A8 JUMP JUMPDEST PUSH1 0xE SLOAD PUSH2 0x1EC3 JUMP JUMPDEST DUP1 PUSH1 0x10 PUSH1 0x0 PUSH1 0xE SLOAD DUP2 MSTORE PUSH1 0x20 ADD SWAP1 DUP2 MSTORE PUSH1 0x20 ADD PUSH1 0x0 KECCAK256 SWAP1 DUP1 MLOAD SWAP1 PUSH1 0x20 ADD SWAP1 PUSH2 0xDB7 SWAP3 SWAP2 SWAP1 PUSH2 0x3047 JUMP JUMPDEST POP PUSH1 0xE PUSH1 0x0 DUP2 SLOAD DUP1 SWAP3 SWAP2 SWAP1 PUSH2 0xDCB SWAP1 PUSH2 0x44E7 JUMP JUMPDEST SWAP2 SWAP1 POP SSTORE POP POP JUMP JUMPDEST PUSH1 0x0 PUSH1 0x1 PUSH2 0xDE1 PUSH1 0xA PUSH2 0x2098 JUMP JUMPDEST PUSH2 0xDEB SWAP2 SWAP1 PUSH2 0x4333 JUMP JUMPDEST SWAP1 POP SWAP1 JUMP JUMPDEST PUSH1 0x0 PUSH1 0x7 SLOAD SWAP1 POP SWAP1 JUMP JUMPDEST PUSH2 0xE0B PUSH2 0xE05 PUSH2 0x1CBE JUMP JUMPDEST DUP3 PUSH2 0x20A6 JUMP JUMPDEST PUSH2 0xE4A JUMPI PUSH1 0x40 MLOAD PUSH32 0x8C379A000000000000000000000000000000000000000000000000000000000 DUP2 MSTORE PUSH1 0x4 ADD PUSH2 0xE41 SWAP1 PUSH2 0x415E JUMP JUMPDEST PUSH1 0x40 MLOAD DUP1 SWAP2 SUB SWAP1 REVERT JUMPDEST PUSH2 0xE55 DUP4 DUP4 DUP4 PUSH2 0x2184 JUMP JUMPDEST POP POP POP JUMP JUMPDEST PUSH1 0x0 PUSH1 0x8 PUSH1 0x0 DUP4 PUSH20 0xFFFFFFFFFFFFFFFFFFFFFFFFFFFFFFFFFFFFFFFF AND PUSH20 0xFFFFFFFFFFFFFFFFFFFFFFFFFFFFFFFFFFFFFFFF AND DUP2 MSTORE PUSH1 0x20 ADD SWAP1 DUP2 MSTORE PUSH1 0x20 ADD PUSH1 0x0 KECCAK256 SLOAD SWAP1 POP SWAP2 SWAP1 POP JUMP JUMPDEST PUSH1 0x0 DUP1 CHAINID SWAP1 POP DUP1 SWAP2 POP POP SWAP1 JUMP JUMPDEST PUSH1 0x11 PUSH1 0x20 MSTORE DUP2 PUSH1 0x0 MSTORE PUSH1 0x40 PUSH1 0x0 KECCAK256 DUP2 DUP2 SLOAD DUP2 LT PUSH2 0xECC JUMPI PUSH1 0x0 DUP1 REVERT JUMPDEST SWAP1 PUSH1 0x0 MSTORE PUSH1 0x20 PUSH1 0x0 KECCAK256 ADD PUSH1 0x0 SWAP2 POP SWAP2 POP POP SLOAD DUP2 JUMP JUMPDEST PUSH2 0xEFC DUP4 DUP4 DUP4 PUSH1 0x40 MLOAD DUP1 PUSH1 0x20 ADD PUSH1 0x40 MSTORE DUP1 PUSH1 0x0 DUP2 MSTORE POP PUSH2 0x1782 JUMP JUMPDEST POP POP POP JUMP JUMPDEST PUSH2 0xF0A DUP2 PUSH2 0x23EB JUMP JUMPDEST POP JUMP JUMPDEST PUSH1 0x60 PUSH1 0x0 PUSH1 0x10 PUSH1 0x0 DUP5 DUP2 MSTORE PUSH1 0x20 ADD SWAP1 DUP2 MSTORE PUSH1 0x20 ADD PUSH1 0x0 KECCAK256 DUP1 SLOAD PUSH2 0xF2F SWAP1 PUSH2 0x4484 JUMP JUMPDEST DUP1 PUSH1 0x1F ADD PUSH1 0x20 DUP1 SWAP2 DIV MUL PUSH1 0x20 ADD PUSH1 0x40 MLOAD SWAP1 DUP2 ADD PUSH1 0x40 MSTORE DUP1 SWAP3 SWAP2 SWAP1 DUP2 DUP2 MSTORE PUSH1 0x20 ADD DUP3 DUP1 SLOAD PUSH2 0xF5B SWAP1 PUSH2 0x4484 JUMP JUMPDEST DUP1 ISZERO PUSH2 0xFA8 JUMPI DUP1 PUSH1 0x1F LT PUSH2 0xF7D JUMPI PUSH2 0x100 DUP1 DUP4 SLOAD DIV MUL DUP4 MSTORE SWAP2 PUSH1 0x20 ADD SWAP2 PUSH2 0xFA8 JUMP JUMPDEST DUP3 ADD SWAP2 SWAP1 PUSH1 0x0 MSTORE PUSH1 0x20 PUSH1 0x0 KECCAK256 SWAP1 JUMPDEST DUP2 SLOAD DUP2 MSTORE SWAP1 PUSH1 0x1 ADD SWAP1 PUSH1 0x20 ADD DUP1 DUP4 GT PUSH2 0xF8B JUMPI DUP3 SWAP1 SUB PUSH1 0x1F AND DUP3 ADD SWAP2 JUMPDEST POP POP POP POP POP SWAP1 POP PUSH1 0x0 DUP1 DUP1 PUSH1 0x0 PUSH1 0x1 SWAP1 POP PUSH1 0x0 PUSH1 0x1 SWAP1 POP PUSH1 0x0 PUSH1 0x40 MLOAD DUP1 PUSH1 0xA0 ADD PUSH1 0x40 MSTORE DUP1 PUSH1 0x67 DUP2 MSTORE PUSH1 0x20 ADD PUSH2 0x4EAF PUSH1 0x67 SWAP2 CODECOPY SWAP1 POP PUSH1 0x60 PUSH1 0x0 JUMPDEST DUP9 MLOAD DUP2 LT ISZERO PUSH2 0x1153 JUMPI PUSH1 0x1 ISZERO PUSH2 0x1140 JUMPI PUSH1 0x11 PUSH1 0x0 DUP13 DUP2 MSTORE PUSH1 0x20 ADD SWAP1 DUP2 MSTORE PUSH1 0x20 ADD PUSH1 0x0 KECCAK256 DUP2 DUP2 SLOAD DUP2 LT PUSH2 0x1016 JUMPI PUSH2 0x1015 PUSH2 0x4626 JUMP JUMPDEST JUMPDEST SWAP1 PUSH1 0x0 MSTORE PUSH1 0x20 PUSH1 0x0 KECCAK256 ADD SLOAD SWAP8 POP PUSH2 0x102C DUP9 PUSH2 0x184D JUMP JUMPDEST DUP1 SWAP9 POP DUP2 SWAP7 POP POP POP PUSH2 0x103E PUSH1 0x0 PUSH2 0x14F1 JUMP JUMPDEST DUP1 SWAP8 POP DUP2 SWAP6 POP POP POP PUSH1 0x1 ISZERO ISZERO DUP5 ISZERO ISZERO EQ ISZERO PUSH2 0x105C JUMPI PUSH1 0x0 SWAP4 POP PUSH2 0x1061 JUMP JUMPDEST PUSH1 0x1 SWAP4 POP JUMPDEST PUSH1 0xD SLOAD DUP8 PUSH1 0xA PUSH2 0x1071 SWAP2 SWAP1 PUSH2 0x42D9 JUMP JUMPDEST PUSH2 0x107B SWAP2 SWAP1 PUSH2 0x42A8 JUMP JUMPDEST SWAP7 POP PUSH1 0xD SLOAD DUP7 PUSH1 0xA PUSH2 0x108D SWAP2 SWAP1 PUSH2 0x42D9 JUMP JUMPDEST PUSH2 0x1097 SWAP2 SWAP1 PUSH2 0x42A8 JUMP JUMPDEST SWAP6 POP DUP9 DUP2 DUP2 MLOAD DUP2 LT PUSH2 0x10AC JUMPI PUSH2 0x10AB PUSH2 0x4626 JUMP JUMPDEST JUMPDEST PUSH1 0x20 ADD ADD MLOAD PUSH1 0xF8 SHR PUSH1 0xF8 SHL PUSH1 0x40 MLOAD PUSH1 0x20 ADD PUSH2 0x10C7 SWAP2 SWAP1 PUSH2 0x3B7F JUMP JUMPDEST PUSH1 0x40 MLOAD PUSH1 0x20 DUP2 DUP4 SUB SUB DUP2 MSTORE SWAP1 PUSH1 0x40 MSTORE DUP1 MLOAD SWAP1 PUSH1 0x20 ADD KECCAK256 PUSH1 0x40 MLOAD PUSH1 0x20 ADD PUSH2 0x10EC SWAP1 PUSH2 0x3D17 JUMP JUMPDEST PUSH1 0x40 MLOAD PUSH1 0x20 DUP2 DUP4 SUB SUB DUP2 MSTORE SWAP1 PUSH1 0x40 MSTORE DUP1 MLOAD SWAP1 PUSH1 0x20 ADD KECCAK256 EQ ISZERO PUSH2 0x113F JUMPI DUP2 PUSH2 0x1112 DUP9 PUSH2 0x2508 JUMP JUMPDEST PUSH2 0x111B DUP9 PUSH2 0x2508 JUMP JUMPDEST PUSH1 0x40 MLOAD PUSH1 0x20 ADD PUSH2 0x112D SWAP4 SWAP3 SWAP2 SWAP1 PUSH2 0x3C08 JUMP JUMPDEST PUSH1 0x40 MLOAD PUSH1 0x20 DUP2 DUP4 SUB SUB DUP2 MSTORE SWAP1 PUSH1 0x40 MSTORE SWAP2 POP JUMPDEST JUMPDEST DUP1 DUP1 PUSH2 0x114B SWAP1 PUSH2 0x44E7 JUMP JUMPDEST SWAP2 POP POP PUSH2 0xFE1 JUMP JUMPDEST POP DUP2 DUP2 PUSH1 0x40 MLOAD PUSH1 0x20 ADD PUSH2 0x1167 SWAP3 SWAP2 SWAP1 PUSH2 0x3BD9 JUMP JUMPDEST PUSH1 0x40 MLOAD PUSH1 0x20 DUP2 DUP4 SUB SUB DUP2 MSTORE SWAP1 PUSH1 0x40 MSTORE SWAP9 POP POP POP POP POP POP POP POP POP SWAP2 SWAP1 POP JUMP JUMPDEST PUSH1 0xE SLOAD DUP2 JUMP JUMPDEST PUSH1 0x0 DUP1 PUSH1 0x2 PUSH1 0x0 DUP5 DUP2 MSTORE PUSH1 0x20 ADD SWAP1 DUP2 MSTORE PUSH1 0x20 ADD PUSH1 0x0 KECCAK256 PUSH1 0x0 SWAP1 SLOAD SWAP1 PUSH2 0x100 EXP SWAP1 DIV PUSH20 0xFFFFFFFFFFFFFFFFFFFFFFFFFFFFFFFFFFFFFFFF AND SWAP1 POP PUSH1 0x0 PUSH20 0xFFFFFFFFFFFFFFFFFFFFFFFFFFFFFFFFFFFFFFFF AND DUP2 PUSH20 0xFFFFFFFFFFFFFFFFFFFFFFFFFFFFFFFFFFFFFFFF AND EQ ISZERO PUSH2 0x1234 JUMPI PUSH1 0x40 MLOAD PUSH32 0x8C379A000000000000000000000000000000000000000000000000000000000 DUP2 MSTORE PUSH1 0x4 ADD PUSH2 0x122B SWAP1 PUSH2 0x407E JUMP JUMPDEST PUSH1 0x40 MLOAD DUP1 SWAP2 SUB SWAP1 REVERT JUMPDEST DUP1 SWAP2 POP POP SWAP2 SWAP1 POP JUMP JUMPDEST PUSH1 0x0 DUP1 PUSH20 0xFFFFFFFFFFFFFFFFFFFFFFFFFFFFFFFFFFFFFFFF AND DUP3 PUSH20 0xFFFFFFFFFFFFFFFFFFFFFFFFFFFFFFFFFFFFFFFF AND EQ ISZERO PUSH2 0x12AE JUMPI PUSH1 0x40 MLOAD PUSH32 0x8C379A000000000000000000000000000000000000000000000000000000000 DUP2 MSTORE PUSH1 0x4 ADD PUSH2 0x12A5 SWAP1 PUSH2 0x405E JUMP JUMPDEST PUSH1 0x40 MLOAD DUP1 SWAP2 SUB SWAP1 REVERT JUMPDEST PUSH1 0x3 PUSH1 0x0 DUP4 PUSH20 0xFFFFFFFFFFFFFFFFFFFFFFFFFFFFFFFFFFFFFFFF AND PUSH20 0xFFFFFFFFFFFFFFFFFFFFFFFFFFFFFFFFFFFFFFFF AND DUP2 MSTORE PUSH1 0x20 ADD SWAP1 DUP2 MSTORE PUSH1 0x20 ADD PUSH1 0x0 KECCAK256 SLOAD SWAP1 POP SWAP2 SWAP1 POP JUMP JUMPDEST PUSH2 0x12FD PUSH2 0x1CBE JUMP JUMPDEST PUSH20 0xFFFFFFFFFFFFFFFFFFFFFFFFFFFFFFFFFFFFFFFF AND PUSH2 0x131B PUSH2 0x141F JUMP JUMPDEST PUSH20 0xFFFFFFFFFFFFFFFFFFFFFFFFFFFFFFFFFFFFFFFF AND EQ PUSH2 0x1371 JUMPI PUSH1 0x40 MLOAD PUSH32 0x8C379A000000000000000000000000000000000000000000000000000000000 DUP2 MSTORE PUSH1 0x4 ADD PUSH2 0x1368 SWAP1 PUSH2 0x40DE JUMP JUMPDEST PUSH1 0x40 MLOAD DUP1 SWAP2 SUB SWAP1 REVERT JUMPDEST PUSH2 0x137B PUSH1 0x0 PUSH2 0x2669 JUMP JUMPDEST JUMP JUMPDEST PUSH2 0x1385 PUSH2 0x1CBE JUMP JUMPDEST PUSH20 0xFFFFFFFFFFFFFFFFFFFFFFFFFFFFFFFFFFFFFFFF AND PUSH2 0x13A3 PUSH2 0x141F JUMP JUMPDEST PUSH20 0xFFFFFFFFFFFFFFFFFFFFFFFFFFFFFFFFFFFFFFFF AND EQ PUSH2 0x13F9 JUMPI PUSH1 0x40 MLOAD PUSH32 0x8C379A000000000000000000000000000000000000000000000000000000000 DUP2 MSTORE PUSH1 0x4 ADD PUSH2 0x13F0 SWAP1 PUSH2 0x40DE JUMP JUMPDEST PUSH1 0x40 MLOAD DUP1 SWAP2 SUB SWAP1 REVERT JUMPDEST PUSH1 0x0 PUSH2 0x1405 PUSH1 0xA PUSH2 0x2098 JUMP JUMPDEST SWAP1 POP PUSH2 0x1411 PUSH1 0xA PUSH2 0x1B21 JUMP JUMPDEST PUSH2 0x141B DUP3 DUP3 PUSH2 0x1EA5 JUMP JUMPDEST POP POP JUMP JUMPDEST PUSH1 0x0 PUSH1 0x9 PUSH1 0x0 SWAP1 SLOAD SWAP1 PUSH2 0x100 EXP SWAP1 DIV PUSH20 0xFFFFFFFFFFFFFFFFFFFFFFFFFFFFFFFFFFFFFFFF AND SWAP1 POP SWAP1 JUMP JUMPDEST PUSH1 0x60 PUSH1 0x1 DUP1 SLOAD PUSH2 0x1458 SWAP1 PUSH2 0x4484 JUMP JUMPDEST DUP1 PUSH1 0x1F ADD PUSH1 0x20 DUP1 SWAP2 DIV MUL PUSH1 0x20 ADD PUSH1 0x40 MLOAD SWAP1 DUP2 ADD PUSH1 0x40 MSTORE DUP1 SWAP3 SWAP2 SWAP1 DUP2 DUP2 MSTORE PUSH1 0x20 ADD DUP3 DUP1 SLOAD PUSH2 0x1484 SWAP1 PUSH2 0x4484 JUMP JUMPDEST DUP1 ISZERO PUSH2 0x14D1 JUMPI DUP1 PUSH1 0x1F LT PUSH2 0x14A6 JUMPI PUSH2 0x100 DUP1 DUP4 SLOAD DIV MUL DUP4 MSTORE SWAP2 PUSH1 0x20 ADD SWAP2 PUSH2 0x14D1 JUMP JUMPDEST DUP3 ADD SWAP2 SWAP1 PUSH1 0x0 MSTORE PUSH1 0x20 PUSH1 0x0 KECCAK256 SWAP1 JUMPDEST DUP2 SLOAD DUP2 MSTORE SWAP1 PUSH1 0x1 ADD SWAP1 PUSH1 0x20 ADD DUP1 DUP4 GT PUSH2 0x14B4 JUMPI DUP3 SWAP1 SUB PUSH1 0x1F AND DUP3 ADD SWAP2 JUMPDEST POP POP POP POP POP SWAP1 POP SWAP1 JUMP JUMPDEST PUSH2 0x14ED PUSH2 0x14E6 PUSH2 0x1CBE JUMP JUMPDEST DUP4 DUP4 PUSH2 0x272F JUMP JUMPDEST POP POP JUMP JUMPDEST PUSH1 0x0 DUP1 DUP3 PUSH1 0x0 GT ISZERO DUP1 ISZERO PUSH2 0x1513 JUMPI POP PUSH1 0xC SLOAD PUSH1 0x2 PUSH2 0x150F SWAP2 SWAP1 PUSH2 0x42D9 JUMP JUMPDEST DUP4 GT ISZERO JUMPDEST PUSH2 0x1552 JUMPI PUSH1 0x40 MLOAD PUSH32 0x8C379A000000000000000000000000000000000000000000000000000000000 DUP2 MSTORE PUSH1 0x4 ADD PUSH2 0x1549 SWAP1 PUSH2 0x413E JUMP JUMPDEST PUSH1 0x40 MLOAD DUP1 SWAP2 SUB SWAP1 REVERT JUMPDEST PUSH1 0x2 PUSH1 0xC SLOAD PUSH2 0x1561 SWAP2 SWAP1 PUSH2 0x42A8 JUMP JUMPDEST DUP4 EQ DUP1 PUSH2 0x1587 JUMPI POP PUSH1 0x2 PUSH1 0xC SLOAD PUSH1 0x3 PUSH2 0x157A SWAP2 SWAP1 PUSH2 0x42D9 JUMP JUMPDEST PUSH2 0x1584 SWAP2 SWAP1 PUSH2 0x42A8 JUMP JUMPDEST DUP4 EQ JUMPDEST ISZERO PUSH2 0x1599 JUMPI PUSH1 0x1 SWAP2 POP PUSH1 0x0 SWAP1 POP PUSH2 0x177D JUMP JUMPDEST PUSH1 0x2 PUSH1 0xC SLOAD PUSH2 0x15A8 SWAP2 SWAP1 PUSH2 0x42A8 JUMP JUMPDEST DUP4 LT ISZERO PUSH2 0x15B8 JUMPI PUSH1 0x1 SWAP2 POP PUSH2 0x164E JUMP JUMPDEST PUSH1 0xC SLOAD DUP4 GT PUSH2 0x15DA JUMPI PUSH1 0x0 SWAP2 POP DUP3 PUSH1 0xC SLOAD PUSH2 0x15D3 SWAP2 SWAP1 PUSH2 0x4333 JUMP JUMPDEST SWAP3 POP PUSH2 0x164D JUMP JUMPDEST PUSH1 0x2 PUSH1 0xC SLOAD PUSH1 0x3 PUSH2 0x15EB SWAP2 SWAP1 PUSH2 0x42D9 JUMP JUMPDEST PUSH2 0x15F5 SWAP2 SWAP1 PUSH2 0x42A8 JUMP JUMPDEST DUP4 LT ISZERO PUSH2 0x1615 JUMPI PUSH1 0x0 SWAP2 POP PUSH1 0xC SLOAD DUP4 PUSH2 0x160E SWAP2 SWAP1 PUSH2 0x4333 JUMP JUMPDEST SWAP3 POP PUSH2 0x164C JUMP JUMPDEST PUSH1 0xC SLOAD PUSH1 0x2 PUSH2 0x1624 SWAP2 SWAP1 PUSH2 0x42D9 JUMP JUMPDEST DUP4 GT PUSH2 0x164B JUMPI PUSH1 0x1 SWAP2 POP DUP3 PUSH1 0xC SLOAD PUSH1 0x2 PUSH2 0x163E SWAP2 SWAP1 PUSH2 0x42D9 JUMP JUMPDEST PUSH2 0x1648 SWAP2 SWAP1 PUSH2 0x4333 JUMP JUMPDEST SWAP3 POP JUMPDEST JUMPDEST JUMPDEST JUMPDEST PUSH2 0x165B PUSH1 0xD SLOAD PUSH1 0x6 PUSH2 0x289C JUMP JUMPDEST PUSH2 0x2D0 PUSH2 0x1668 SWAP2 SWAP1 PUSH2 0x42D9 JUMP JUMPDEST SWAP1 POP PUSH2 0x1675 DUP4 PUSH1 0x2 PUSH2 0x289C JUMP JUMPDEST PUSH2 0x1682 PUSH1 0xD SLOAD PUSH1 0x4 PUSH2 0x289C JUMP JUMPDEST PUSH2 0x168 PUSH2 0x168F SWAP2 SWAP1 PUSH2 0x42D9 JUMP JUMPDEST PUSH2 0x1699 SWAP2 SWAP1 PUSH2 0x42D9 JUMP JUMPDEST DUP2 GT ISZERO PUSH2 0x1777 JUMPI PUSH2 0x16AB DUP4 PUSH1 0x2 PUSH2 0x289C JUMP JUMPDEST PUSH2 0x16B8 PUSH1 0xD SLOAD PUSH1 0x4 PUSH2 0x289C JUMP JUMPDEST PUSH2 0x168 PUSH2 0x16C5 SWAP2 SWAP1 PUSH2 0x42D9 JUMP JUMPDEST PUSH2 0x16CF SWAP2 SWAP1 PUSH2 0x42D9 JUMP JUMPDEST DUP2 PUSH2 0x16DA SWAP2 SWAP1 PUSH2 0x4333 JUMP JUMPDEST SWAP1 POP PUSH2 0x16E7 DUP4 PUSH1 0x4 PUSH2 0x289C JUMP JUMPDEST PUSH2 0x16F4 PUSH1 0xD SLOAD PUSH1 0x2 PUSH2 0x289C JUMP JUMPDEST PUSH1 0x1E PUSH2 0x1700 SWAP2 SWAP1 PUSH2 0x42D9 JUMP JUMPDEST PUSH2 0x170A SWAP2 SWAP1 PUSH2 0x42D9 JUMP JUMPDEST DUP2 PUSH2 0x1715 SWAP2 SWAP1 PUSH2 0x4252 JUMP JUMPDEST SWAP1 POP PUSH2 0x1722 DUP4 PUSH1 0x6 PUSH2 0x289C JUMP JUMPDEST DUP2 GT ISZERO PUSH2 0x1746 JUMPI PUSH2 0x1734 DUP4 PUSH1 0x6 PUSH2 0x289C JUMP JUMPDEST DUP2 PUSH2 0x173F SWAP2 SWAP1 PUSH2 0x4333 JUMP JUMPDEST SWAP1 POP PUSH2 0x174B JUMP JUMPDEST PUSH1 0x0 SWAP1 POP JUMPDEST PUSH2 0x1758 PUSH1 0xD SLOAD PUSH1 0x5 PUSH2 0x289C JUMP JUMPDEST PUSH2 0x2D0 PUSH2 0x1765 SWAP2 SWAP1 PUSH2 0x42D9 JUMP JUMPDEST DUP2 PUSH2 0x1770 SWAP2 SWAP1 PUSH2 0x42A8 JUMP JUMPDEST SWAP1 POP PUSH2 0x177C JUMP JUMPDEST PUSH1 0x0 SWAP1 POP JUMPDEST JUMPDEST SWAP2 POP SWAP2 JUMP JUMPDEST PUSH2 0x1793 PUSH2 0x178D PUSH2 0x1CBE JUMP JUMPDEST DUP4 PUSH2 0x20A6 JUMP JUMPDEST PUSH2 0x17D2 JUMPI PUSH1 0x40 MLOAD PUSH32 0x8C379A000000000000000000000000000000000000000000000000000000000 DUP2 MSTORE PUSH1 0x4 ADD PUSH2 0x17C9 SWAP1 PUSH2 0x415E JUMP JUMPDEST PUSH1 0x40 MLOAD DUP1 SWAP2 SUB SWAP1 REVERT JUMPDEST PUSH2 0x17DE DUP5 DUP5 DUP5 DUP5 PUSH2 0x2925 JUMP JUMPDEST POP POP POP POP JUMP JUMPDEST PUSH1 0x60 PUSH1 0x0 PUSH2 0x17F1 DUP4 PUSH2 0xF0D JUMP JUMPDEST SWAP1 POP PUSH2 0x1826 PUSH1 0xF PUSH2 0x1801 DUP4 PUSH2 0x2981 JUMP JUMPDEST PUSH1 0x40 MLOAD PUSH1 0x20 ADD PUSH2 0x1812 SWAP3 SWAP2 SWAP1 PUSH2 0x3C9B JUMP JUMPDEST PUSH1 0x40 MLOAD PUSH1 0x20 DUP2 DUP4 SUB SUB DUP2 MSTORE SWAP1 PUSH1 0x40 MSTORE PUSH2 0x2981 JUMP JUMPDEST PUSH1 0x40 MLOAD PUSH1 0x20 ADD PUSH2 0x1836 SWAP2 SWAP1 PUSH2 0x3CE0 JUMP JUMPDEST PUSH1 0x40 MLOAD PUSH1 0x20 DUP2 DUP4 SUB SUB DUP2 MSTORE SWAP1 PUSH1 0x40 MSTORE SWAP2 POP POP SWAP2 SWAP1 POP JUMP JUMPDEST PUSH1 0x0 DUP1 DUP3 PUSH1 0x0 GT ISZERO DUP1 ISZERO PUSH2 0x186F JUMPI POP PUSH1 0xC SLOAD PUSH1 0x2 PUSH2 0x186B SWAP2 SWAP1 PUSH2 0x42D9 JUMP JUMPDEST DUP4 GT ISZERO JUMPDEST PUSH2 0x18AE JUMPI PUSH1 0x40 MLOAD PUSH32 0x8C379A000000000000000000000000000000000000000000000000000000000 DUP2 MSTORE PUSH1 0x4 ADD PUSH2 0x18A5 SWAP1 PUSH2 0x413E JUMP JUMPDEST PUSH1 0x40 MLOAD DUP1 SWAP2 SUB SWAP1 REVERT JUMPDEST PUSH1 0x0 PUSH1 0x2 PUSH1 0xC SLOAD PUSH2 0x18BF SWAP2 SWAP1 PUSH2 0x42A8 JUMP JUMPDEST SWAP1 POP PUSH1 0x2 PUSH1 0xC SLOAD PUSH2 0x18D0 SWAP2 SWAP1 PUSH2 0x42A8 JUMP JUMPDEST DUP5 GT ISZERO PUSH2 0x1902 JUMPI PUSH1 0xC SLOAD PUSH1 0x2 PUSH2 0x18E6 SWAP2 SWAP1 PUSH2 0x42D9 JUMP JUMPDEST PUSH1 0x2 PUSH1 0xC SLOAD PUSH2 0x18F5 SWAP2 SWAP1 PUSH2 0x42A8 JUMP JUMPDEST PUSH2 0x18FF SWAP2 SWAP1 PUSH2 0x4252 JUMP JUMPDEST SWAP1 POP JUMPDEST DUP4 DUP2 PUSH2 0x190E SWAP2 SWAP1 PUSH2 0x4333 JUMP JUMPDEST SWAP4 POP PUSH2 0x1919 DUP5 PUSH2 0x14F1 JUMP JUMPDEST DUP1 SWAP4 POP DUP2 SWAP5 POP POP POP POP SWAP2 POP SWAP2 JUMP JUMPDEST PUSH1 0x0 DUP1 PUSH1 0xB PUSH1 0x0 SWAP1 SLOAD SWAP1 PUSH2 0x100 EXP SWAP1 DIV PUSH20 0xFFFFFFFFFFFFFFFFFFFFFFFFFFFFFFFFFFFFFFFF AND SWAP1 POP DUP3 PUSH20 0xFFFFFFFFFFFFFFFFFFFFFFFFFFFFFFFFFFFFFFFF AND DUP2 PUSH20 0xFFFFFFFFFFFFFFFFFFFFFFFFFFFFFFFFFFFFFFFF AND PUSH4 0xC4552791 DUP7 PUSH1 0x40 MLOAD DUP3 PUSH4 0xFFFFFFFF AND PUSH1 0xE0 SHL DUP2 MSTORE PUSH1 0x4 ADD PUSH2 0x199F SWAP2 SWAP1 PUSH2 0x3D2C JUMP JUMPDEST PUSH1 0x20 PUSH1 0x40 MLOAD DUP1 DUP4 SUB DUP2 DUP7 DUP1 EXTCODESIZE ISZERO DUP1 ISZERO PUSH2 0x19B7 JUMPI PUSH1 0x0 DUP1 REVERT JUMPDEST POP GAS STATICCALL ISZERO DUP1 ISZERO PUSH2 0x19CB JUMPI RETURNDATASIZE PUSH1 0x0 DUP1 RETURNDATACOPY RETURNDATASIZE PUSH1 0x0 REVERT JUMPDEST POP POP POP POP PUSH1 0x40 MLOAD RETURNDATASIZE PUSH1 0x1F NOT PUSH1 0x1F DUP3 ADD AND DUP3 ADD DUP1 PUSH1 0x40 MSTORE POP DUP2 ADD SWAP1 PUSH2 0x19EF SWAP2 SWAP1 PUSH2 0x34B6 JUMP JUMPDEST PUSH20 0xFFFFFFFFFFFFFFFFFFFFFFFFFFFFFFFFFFFFFFFF AND EQ ISZERO PUSH2 0x1A15 JUMPI PUSH1 0x1 SWAP2 POP POP PUSH2 0x1A23 JUMP JUMPDEST PUSH2 0x1A1F DUP5 DUP5 PUSH2 0x2B19 JUMP JUMPDEST SWAP2 POP POP JUMPDEST SWAP3 SWAP2 POP POP JUMP JUMPDEST PUSH2 0x1A31 PUSH2 0x1CBE JUMP JUMPDEST PUSH20 0xFFFFFFFFFFFFFFFFFFFFFFFFFFFFFFFFFFFFFFFF AND PUSH2 0x1A4F PUSH2 0x141F JUMP JUMPDEST PUSH20 0xFFFFFFFFFFFFFFFFFFFFFFFFFFFFFFFFFFFFFFFF AND EQ PUSH2 0x1AA5 JUMPI PUSH1 0x40 MLOAD PUSH32 0x8C379A000000000000000000000000000000000000000000000000000000000 DUP2 MSTORE PUSH1 0x4 ADD PUSH2 0x1A9C SWAP1 PUSH2 0x40DE JUMP JUMPDEST PUSH1 0x40 MLOAD DUP1 SWAP2 SUB SWAP1 REVERT JUMPDEST PUSH1 0x0 PUSH20 0xFFFFFFFFFFFFFFFFFFFFFFFFFFFFFFFFFFFFFFFF AND DUP2 PUSH20 0xFFFFFFFFFFFFFFFFFFFFFFFFFFFFFFFFFFFFFFFF AND EQ ISZERO PUSH2 0x1B15 JUMPI PUSH1 0x40 MLOAD PUSH32 0x8C379A000000000000000000000000000000000000000000000000000000000 DUP2 MSTORE PUSH1 0x4 ADD PUSH2 0x1B0C SWAP1 PUSH2 0x3F1E JUMP JUMPDEST PUSH1 0x40 MLOAD DUP1 SWAP2 SUB SWAP1 REVERT JUMPDEST PUSH2 0x1B1E DUP2 PUSH2 0x2669 JUMP JUMPDEST POP JUMP JUMPDEST PUSH1 0x1 DUP2 PUSH1 0x0 ADD PUSH1 0x0 DUP3 DUP3 SLOAD ADD SWAP3 POP POP DUP2 SWAP1 SSTORE POP POP JUMP JUMPDEST PUSH1 0x0 ADDRESS PUSH20 0xFFFFFFFFFFFFFFFFFFFFFFFFFFFFFFFFFFFFFFFF AND CALLER PUSH20 0xFFFFFFFFFFFFFFFFFFFFFFFFFFFFFFFFFFFFFFFF AND EQ ISZERO PUSH2 0x1BE1 JUMPI PUSH1 0x0 DUP1 CALLDATASIZE DUP1 DUP1 PUSH1 0x1F ADD PUSH1 0x20 DUP1 SWAP2 DIV MUL PUSH1 0x20 ADD PUSH1 0x40 MLOAD SWAP1 DUP2 ADD PUSH1 0x40 MSTORE DUP1 SWAP4 SWAP3 SWAP2 SWAP1 DUP2 DUP2 MSTORE PUSH1 0x20 ADD DUP4 DUP4 DUP1 DUP3 DUP5 CALLDATACOPY PUSH1 0x0 DUP2 DUP5 ADD MSTORE PUSH1 0x1F NOT PUSH1 0x1F DUP3 ADD AND SWAP1 POP DUP1 DUP4 ADD SWAP3 POP POP POP POP POP POP POP SWAP1 POP PUSH1 0x0 DUP1 CALLDATASIZE SWAP1 POP SWAP1 POP PUSH20 0xFFFFFFFFFFFFFFFFFFFFFFFFFFFFFFFFFFFFFFFF DUP2 DUP4 ADD MLOAD AND SWAP3 POP POP POP PUSH2 0x1BE5 JUMP JUMPDEST CALLER SWAP1 POP JUMPDEST SWAP1 JUMP JUMPDEST PUSH1 0x0 PUSH32 0x1FFC9A700000000000000000000000000000000000000000000000000000000 PUSH28 0xFFFFFFFFFFFFFFFFFFFFFFFFFFFFFFFFFFFFFFFFFFFFFFFFFFFFFFFF NOT AND DUP3 PUSH28 0xFFFFFFFFFFFFFFFFFFFFFFFFFFFFFFFFFFFFFFFFFFFFFFFFFFFFFFFF NOT AND EQ SWAP1 POP SWAP2 SWAP1 POP JUMP JUMPDEST PUSH1 0x0 DUP1 PUSH20 0xFFFFFFFFFFFFFFFFFFFFFFFFFFFFFFFFFFFFFFFF AND PUSH1 0x2 PUSH1 0x0 DUP5 DUP2 MSTORE PUSH1 0x20 ADD SWAP1 DUP2 MSTORE PUSH1 0x20 ADD PUSH1 0x0 KECCAK256 PUSH1 0x0 SWAP1 SLOAD SWAP1 PUSH2 0x100 EXP SWAP1 DIV PUSH20 0xFFFFFFFFFFFFFFFFFFFFFFFFFFFFFFFFFFFFFFFF AND PUSH20 0xFFFFFFFFFFFFFFFFFFFFFFFFFFFFFFFFFFFFFFFF AND EQ ISZERO SWAP1 POP SWAP2 SWAP1 POP JUMP JUMPDEST PUSH1 0x0 PUSH2 0x1CC8 PUSH2 0x1B37 JUMP JUMPDEST SWAP1 POP SWAP1 JUMP JUMPDEST DUP2 PUSH1 0x4 PUSH1 0x0 DUP4 DUP2 MSTORE PUSH1 0x20 ADD SWAP1 DUP2 MSTORE PUSH1 0x20 ADD PUSH1 0x0 KECCAK256 PUSH1 0x0 PUSH2 0x100 EXP DUP2 SLOAD DUP2 PUSH20 0xFFFFFFFFFFFFFFFFFFFFFFFFFFFFFFFFFFFFFFFF MUL NOT AND SWAP1 DUP4 PUSH20 0xFFFFFFFFFFFFFFFFFFFFFFFFFFFFFFFFFFFFFFFF AND MUL OR SWAP1 SSTORE POP DUP1 DUP3 PUSH20 0xFFFFFFFFFFFFFFFFFFFFFFFFFFFFFFFFFFFFFFFF AND PUSH2 0x1D40 DUP4 PUSH2 0x118B JUMP JUMPDEST PUSH20 0xFFFFFFFFFFFFFFFFFFFFFFFFFFFFFFFFFFFFFFFF AND PUSH32 0x8C5BE1E5EBEC7D5BD14F71427D1E84F3DD0314C0F7B2291E5B200AC8C7C3B925 PUSH1 0x40 MLOAD PUSH1 0x40 MLOAD DUP1 SWAP2 SUB SWAP1 LOG4 POP POP JUMP JUMPDEST PUSH1 0x0 DUP1 PUSH20 0xFFFFFFFFFFFFFFFFFFFFFFFFFFFFFFFFFFFFFFFF AND DUP7 PUSH20 0xFFFFFFFFFFFFFFFFFFFFFFFFFFFFFFFFFFFFFFFF AND EQ ISZERO PUSH2 0x1DF7 JUMPI PUSH1 0x40 MLOAD PUSH32 0x8C379A000000000000000000000000000000000000000000000000000000000 DUP2 MSTORE PUSH1 0x4 ADD PUSH2 0x1DEE SWAP1 PUSH2 0x401E JUMP JUMPDEST PUSH1 0x40 MLOAD DUP1 SWAP2 SUB SWAP1 REVERT JUMPDEST PUSH1 0x1 PUSH2 0x1E0A PUSH2 0x1E05 DUP8 PUSH2 0x2BAD JUMP JUMPDEST PUSH2 0x2C15 JUMP JUMPDEST DUP4 DUP7 DUP7 PUSH1 0x40 MLOAD PUSH1 0x0 DUP2 MSTORE PUSH1 0x20 ADD PUSH1 0x40 MSTORE PUSH1 0x40 MLOAD PUSH2 0x1E2A SWAP5 SWAP4 SWAP3 SWAP2 SWAP1 PUSH2 0x3E75 JUMP JUMPDEST PUSH1 0x20 PUSH1 0x40 MLOAD PUSH1 0x20 DUP2 SUB SWAP1 DUP1 DUP5 SUB SWAP1 DUP6 GAS STATICCALL ISZERO DUP1 ISZERO PUSH2 0x1E4C JUMPI RETURNDATASIZE PUSH1 0x0 DUP1 RETURNDATACOPY RETURNDATASIZE PUSH1 0x0 REVERT JUMPDEST POP POP POP PUSH1 0x20 PUSH1 0x40 MLOAD SUB MLOAD PUSH20 0xFFFFFFFFFFFFFFFFFFFFFFFFFFFFFFFFFFFFFFFF AND DUP7 PUSH20 0xFFFFFFFFFFFFFFFFFFFFFFFFFFFFFFFFFFFFFFFF AND EQ SWAP1 POP SWAP6 SWAP5 POP POP POP POP POP JUMP JUMPDEST PUSH1 0x0 DUP2 DUP4 PUSH2 0x1E9D SWAP2 SWAP1 PUSH2 0x4252 JUMP JUMPDEST SWAP1 POP SWAP3 SWAP2 POP POP JUMP JUMPDEST PUSH2 0x1EBF DUP3 DUP3 PUSH1 0x40 MLOAD DUP1 PUSH1 0x20 ADD PUSH1 0x40 MSTORE DUP1 PUSH1 0x0 DUP2 MSTORE POP PUSH2 0x2C4E JUMP JUMPDEST POP POP JUMP JUMPDEST PUSH1 0x0 DUP1 DUP5 SWAP1 POP PUSH1 0x0 JUMPDEST DUP2 MLOAD DUP2 LT ISZERO PUSH2 0x2090 JUMPI DUP2 DUP2 DUP2 MLOAD DUP2 LT PUSH2 0x1EE8 JUMPI PUSH2 0x1EE7 PUSH2 0x4626 JUMP JUMPDEST JUMPDEST PUSH1 0x20 ADD ADD MLOAD PUSH1 0xF8 SHR PUSH1 0xF8 SHL PUSH1 0x40 MLOAD PUSH1 0x20 ADD PUSH2 0x1F03 SWAP2 SWAP1 PUSH2 0x3B7F JUMP JUMPDEST PUSH1 0x40 MLOAD PUSH1 0x20 DUP2 DUP4 SUB SUB DUP2 MSTORE SWAP1 PUSH1 0x40 MSTORE DUP1 MLOAD SWAP1 PUSH1 0x20 ADD KECCAK256 PUSH1 0x40 MLOAD PUSH1 0x20 ADD PUSH2 0x1F28 SWAP1 PUSH2 0x3C86 JUMP JUMPDEST PUSH1 0x40 MLOAD PUSH1 0x20 DUP2 DUP4 SUB SUB DUP2 MSTORE SWAP1 PUSH1 0x40 MSTORE DUP1 MLOAD SWAP1 PUSH1 0x20 ADD KECCAK256 EQ ISZERO PUSH2 0x1F73 JUMPI DUP5 DUP4 PUSH2 0x1F50 SWAP2 SWAP1 PUSH2 0x4252 JUMP JUMPDEST SWAP3 POP PUSH1 0xC SLOAD PUSH1 0x2 PUSH2 0x1F61 SWAP2 SWAP1 PUSH2 0x42D9 JUMP JUMPDEST DUP4 PUSH2 0x1F6C SWAP2 SWAP1 PUSH2 0x4568 JUMP JUMPDEST SWAP3 POP PUSH2 0x2043 JUMP JUMPDEST DUP2 DUP2 DUP2 MLOAD DUP2 LT PUSH2 0x1F86 JUMPI PUSH2 0x1F85 PUSH2 0x4626 JUMP JUMPDEST JUMPDEST PUSH1 0x20 ADD ADD MLOAD PUSH1 0xF8 SHR PUSH1 0xF8 SHL PUSH1 0x40 MLOAD PUSH1 0x20 ADD PUSH2 0x1FA1 SWAP2 SWAP1 PUSH2 0x3B7F JUMP JUMPDEST PUSH1 0x40 MLOAD PUSH1 0x20 DUP2 DUP4 SUB SUB DUP2 MSTORE SWAP1 PUSH1 0x40 MSTORE DUP1 MLOAD SWAP1 PUSH1 0x20 ADD KECCAK256 PUSH1 0x40 MLOAD PUSH1 0x20 ADD PUSH2 0x1FC6 SWAP1 PUSH2 0x3D02 JUMP JUMPDEST PUSH1 0x40 MLOAD PUSH1 0x20 DUP2 DUP4 SUB SUB DUP2 MSTORE SWAP1 PUSH1 0x40 MSTORE DUP1 MLOAD SWAP1 PUSH1 0x20 ADD KECCAK256 EQ ISZERO PUSH2 0x2042 JUMPI DUP5 DUP4 LT ISZERO PUSH2 0x2032 JUMPI DUP5 DUP4 PUSH1 0xC SLOAD PUSH1 0x2 PUSH2 0x1FFB SWAP2 SWAP1 PUSH2 0x42D9 JUMP JUMPDEST PUSH2 0x2005 SWAP2 SWAP1 PUSH2 0x4252 JUMP JUMPDEST PUSH2 0x200F SWAP2 SWAP1 PUSH2 0x4333 JUMP JUMPDEST SWAP3 POP PUSH1 0xC SLOAD PUSH1 0x2 PUSH2 0x2020 SWAP2 SWAP1 PUSH2 0x42D9 JUMP JUMPDEST DUP4 PUSH2 0x202B SWAP2 SWAP1 PUSH2 0x4568 JUMP JUMPDEST SWAP3 POP PUSH2 0x2041 JUMP JUMPDEST DUP5 DUP4 PUSH2 0x203E SWAP2 SWAP1 PUSH2 0x4333 JUMP JUMPDEST SWAP3 POP JUMPDEST JUMPDEST JUMPDEST PUSH1 0x11 PUSH1 0x0 DUP6 DUP2 MSTORE PUSH1 0x20 ADD SWAP1 DUP2 MSTORE PUSH1 0x20 ADD PUSH1 0x0 KECCAK256 DUP4 SWAP1 DUP1 PUSH1 0x1 DUP2 SLOAD ADD DUP1 DUP3 SSTORE DUP1 SWAP2 POP POP PUSH1 0x1 SWAP1 SUB SWAP1 PUSH1 0x0 MSTORE PUSH1 0x20 PUSH1 0x0 KECCAK256 ADD PUSH1 0x0 SWAP1 SWAP2 SWAP1 SWAP2 SWAP1 SWAP2 POP SSTORE DUP1 DUP1 PUSH2 0x2088 SWAP1 PUSH2 0x44E7 JUMP JUMPDEST SWAP2 POP POP PUSH2 0x1ECC JUMP JUMPDEST POP POP POP POP POP POP JUMP JUMPDEST PUSH1 0x0 DUP2 PUSH1 0x0 ADD SLOAD SWAP1 POP SWAP2 SWAP1 POP JUMP JUMPDEST PUSH1 0x0 PUSH2 0x20B1 DUP3 PUSH2 0x1C52 JUMP JUMPDEST PUSH2 0x20F0 JUMPI PUSH1 0x40 MLOAD PUSH32 0x8C379A000000000000000000000000000000000000000000000000000000000 DUP2 MSTORE PUSH1 0x4 ADD PUSH2 0x20E7 SWAP1 PUSH2 0x3FFE JUMP JUMPDEST PUSH1 0x40 MLOAD DUP1 SWAP2 SUB SWAP1 REVERT JUMPDEST PUSH1 0x0 PUSH2 0x20FB DUP4 PUSH2 0x118B JUMP JUMPDEST SWAP1 POP DUP1 PUSH20 0xFFFFFFFFFFFFFFFFFFFFFFFFFFFFFFFFFFFFFFFF AND DUP5 PUSH20 0xFFFFFFFFFFFFFFFFFFFFFFFFFFFFFFFFFFFFFFFF AND EQ DUP1 PUSH2 0x213D JUMPI POP PUSH2 0x213C DUP2 DUP6 PUSH2 0x1927 JUMP JUMPDEST JUMPDEST DUP1 PUSH2 0x217B JUMPI POP DUP4 PUSH20 0xFFFFFFFFFFFFFFFFFFFFFFFFFFFFFFFFFFFFFFFF AND PUSH2 0x2163 DUP5 PUSH2 0x8E5 JUMP JUMPDEST PUSH20 0xFFFFFFFFFFFFFFFFFFFFFFFFFFFFFFFFFFFFFFFF AND EQ JUMPDEST SWAP2 POP POP SWAP3 SWAP2 POP POP JUMP JUMPDEST DUP3 PUSH20 0xFFFFFFFFFFFFFFFFFFFFFFFFFFFFFFFFFFFFFFFF AND PUSH2 0x21A4 DUP3 PUSH2 0x118B JUMP JUMPDEST PUSH20 0xFFFFFFFFFFFFFFFFFFFFFFFFFFFFFFFFFFFFFFFF AND EQ PUSH2 0x21FA JUMPI PUSH1 0x40 MLOAD PUSH32 0x8C379A000000000000000000000000000000000000000000000000000000000 DUP2 MSTORE PUSH1 0x4 ADD PUSH2 0x21F1 SWAP1 PUSH2 0x3F5E JUMP JUMPDEST PUSH1 0x40 MLOAD DUP1 SWAP2 SUB SWAP1 REVERT JUMPDEST PUSH1 0x0 PUSH20 0xFFFFFFFFFFFFFFFFFFFFFFFFFFFFFFFFFFFFFFFF AND DUP3 PUSH20 0xFFFFFFFFFFFFFFFFFFFFFFFFFFFFFFFFFFFFFFFF AND EQ ISZERO PUSH2 0x226A JUMPI PUSH1 0x40 MLOAD PUSH32 0x8C379A000000000000000000000000000000000000000000000000000000000 DUP2 MSTORE PUSH1 0x4 ADD PUSH2 0x2261 SWAP1 PUSH2 0x3FBE JUMP JUMPDEST PUSH1 0x40 MLOAD DUP1 SWAP2 SUB SWAP1 REVERT JUMPDEST PUSH2 0x2275 DUP4 DUP4 DUP4 PUSH2 0x2CA9 JUMP JUMPDEST PUSH2 0x2280 PUSH1 0x0 DUP3 PUSH2 0x1CCD JUMP JUMPDEST PUSH1 0x1 PUSH1 0x3 PUSH1 0x0 DUP6 PUSH20 0xFFFFFFFFFFFFFFFFFFFFFFFFFFFFFFFFFFFFFFFF AND PUSH20 0xFFFFFFFFFFFFFFFFFFFFFFFFFFFFFFFFFFFFFFFF AND DUP2 MSTORE PUSH1 0x20 ADD SWAP1 DUP2 MSTORE PUSH1 0x20 ADD PUSH1 0x0 KECCAK256 PUSH1 0x0 DUP3 DUP3 SLOAD PUSH2 0x22D0 SWAP2 SWAP1 PUSH2 0x4333 JUMP JUMPDEST SWAP3 POP POP DUP2 SWAP1 SSTORE POP PUSH1 0x1 PUSH1 0x3 PUSH1 0x0 DUP5 PUSH20 0xFFFFFFFFFFFFFFFFFFFFFFFFFFFFFFFFFFFFFFFF AND PUSH20 0xFFFFFFFFFFFFFFFFFFFFFFFFFFFFFFFFFFFFFFFF AND DUP2 MSTORE PUSH1 0x20 ADD SWAP1 DUP2 MSTORE PUSH1 0x20 ADD PUSH1 0x0 KECCAK256 PUSH1 0x0 DUP3 DUP3 SLOAD PUSH2 0x2327 SWAP2 SWAP1 PUSH2 0x4252 JUMP JUMPDEST SWAP3 POP POP DUP2 SWAP1 SSTORE POP DUP2 PUSH1 0x2 PUSH1 0x0 DUP4 DUP2 MSTORE PUSH1 0x20 ADD SWAP1 DUP2 MSTORE PUSH1 0x20 ADD PUSH1 0x0 KECCAK256 PUSH1 0x0 PUSH2 0x100 EXP DUP2 SLOAD DUP2 PUSH20 0xFFFFFFFFFFFFFFFFFFFFFFFFFFFFFFFFFFFFFFFF MUL NOT AND SWAP1 DUP4 PUSH20 0xFFFFFFFFFFFFFFFFFFFFFFFFFFFFFFFFFFFFFFFF AND MUL OR SWAP1 SSTORE POP DUP1 DUP3 PUSH20 0xFFFFFFFFFFFFFFFFFFFFFFFFFFFFFFFFFFFFFFFF AND DUP5 PUSH20 0xFFFFFFFFFFFFFFFFFFFFFFFFFFFFFFFFFFFFFFFF AND PUSH32 0xDDF252AD1BE2C89B69C2B068FC378DAA952BA7F163C4A11628F55A4DF523B3EF PUSH1 0x40 MLOAD PUSH1 0x40 MLOAD DUP1 SWAP2 SUB SWAP1 LOG4 PUSH2 0x23E6 DUP4 DUP4 DUP4 PUSH2 0x2CAE JUMP JUMPDEST POP POP POP JUMP JUMPDEST PUSH1 0x0 PUSH2 0x23F6 DUP3 PUSH2 0x118B JUMP JUMPDEST SWAP1 POP PUSH2 0x2404 DUP2 PUSH1 0x0 DUP5 PUSH2 0x2CA9 JUMP JUMPDEST PUSH2 0x240F PUSH1 0x0 DUP4 PUSH2 0x1CCD JUMP JUMPDEST PUSH1 0x1 PUSH1 0x3 PUSH1 0x0 DUP4 PUSH20 0xFFFFFFFFFFFFFFFFFFFFFFFFFFFFFFFFFFFFFFFF AND PUSH20 0xFFFFFFFFFFFFFFFFFFFFFFFFFFFFFFFFFFFFFFFF AND DUP2 MSTORE PUSH1 0x20 ADD SWAP1 DUP2 MSTORE PUSH1 0x20 ADD PUSH1 0x0 KECCAK256 PUSH1 0x0 DUP3 DUP3 SLOAD PUSH2 0x245F SWAP2 SWAP1 PUSH2 0x4333 JUMP JUMPDEST SWAP3 POP POP DUP2 SWAP1 SSTORE POP PUSH1 0x2 PUSH1 0x0 DUP4 DUP2 MSTORE PUSH1 0x20 ADD SWAP1 DUP2 MSTORE PUSH1 0x20 ADD PUSH1 0x0 KECCAK256 PUSH1 0x0 PUSH2 0x100 EXP DUP2 SLOAD SWAP1 PUSH20 0xFFFFFFFFFFFFFFFFFFFFFFFFFFFFFFFFFFFFFFFF MUL NOT AND SWAP1 SSTORE DUP2 PUSH1 0x0 PUSH20 0xFFFFFFFFFFFFFFFFFFFFFFFFFFFFFFFFFFFFFFFF AND DUP3 PUSH20 0xFFFFFFFFFFFFFFFFFFFFFFFFFFFFFFFFFFFFFFFF AND PUSH32 0xDDF252AD1BE2C89B69C2B068FC378DAA952BA7F163C4A11628F55A4DF523B3EF PUSH1 0x40 MLOAD PUSH1 0x40 MLOAD DUP1 SWAP2 SUB SWAP1 LOG4 PUSH2 0x2504 DUP2 PUSH1 0x0 DUP5 PUSH2 0x2CAE JUMP JUMPDEST POP POP JUMP JUMPDEST PUSH1 0x60 PUSH1 0x0 DUP3 EQ ISZERO PUSH2 0x2550 JUMPI PUSH1 0x40 MLOAD DUP1 PUSH1 0x40 ADD PUSH1 0x40 MSTORE DUP1 PUSH1 0x1 DUP2 MSTORE PUSH1 0x20 ADD PUSH32 0x3000000000000000000000000000000000000000000000000000000000000000 DUP2 MSTORE POP SWAP1 POP PUSH2 0x2664 JUMP JUMPDEST PUSH1 0x0 DUP3 SWAP1 POP PUSH1 0x0 JUMPDEST PUSH1 0x0 DUP3 EQ PUSH2 0x2582 JUMPI DUP1 DUP1 PUSH2 0x256B SWAP1 PUSH2 0x44E7 JUMP JUMPDEST SWAP2 POP POP PUSH1 0xA DUP3 PUSH2 0x257B SWAP2 SWAP1 PUSH2 0x42A8 JUMP JUMPDEST SWAP2 POP PUSH2 0x2558 JUMP JUMPDEST PUSH1 0x0 DUP2 PUSH8 0xFFFFFFFFFFFFFFFF DUP2 GT ISZERO PUSH2 0x259E JUMPI PUSH2 0x259D PUSH2 0x4655 JUMP JUMPDEST JUMPDEST PUSH1 0x40 MLOAD SWAP1 DUP1 DUP3 MSTORE DUP1 PUSH1 0x1F ADD PUSH1 0x1F NOT AND PUSH1 0x20 ADD DUP3 ADD PUSH1 0x40 MSTORE DUP1 ISZERO PUSH2 0x25D0 JUMPI DUP2 PUSH1 0x20 ADD PUSH1 0x1 DUP3 MUL DUP1 CALLDATASIZE DUP4 CALLDATACOPY DUP1 DUP3 ADD SWAP2 POP POP SWAP1 POP JUMPDEST POP SWAP1 POP JUMPDEST PUSH1 0x0 DUP6 EQ PUSH2 0x265D JUMPI PUSH1 0x1 DUP3 PUSH2 0x25E9 SWAP2 SWAP1 PUSH2 0x4333 JUMP JUMPDEST SWAP2 POP PUSH1 0xA DUP6 PUSH2 0x25F8 SWAP2 SWAP1 PUSH2 0x4568 JUMP JUMPDEST PUSH1 0x30 PUSH2 0x2604 SWAP2 SWAP1 PUSH2 0x4252 JUMP JUMPDEST PUSH1 0xF8 SHL DUP2 DUP4 DUP2 MLOAD DUP2 LT PUSH2 0x261A JUMPI PUSH2 0x2619 PUSH2 0x4626 JUMP JUMPDEST JUMPDEST PUSH1 0x20 ADD ADD SWAP1 PUSH31 0xFFFFFFFFFFFFFFFFFFFFFFFFFFFFFFFFFFFFFFFFFFFFFFFFFFFFFFFFFFFFFF NOT AND SWAP1 DUP2 PUSH1 0x0 BYTE SWAP1 MSTORE8 POP PUSH1 0xA DUP6 PUSH2 0x2656 SWAP2 SWAP1 PUSH2 0x42A8 JUMP JUMPDEST SWAP5 POP PUSH2 0x25D4 JUMP JUMPDEST DUP1 SWAP4 POP POP POP POP JUMPDEST SWAP2 SWAP1 POP JUMP JUMPDEST PUSH1 0x0 PUSH1 0x9 PUSH1 0x0 SWAP1 SLOAD SWAP1 PUSH2 0x100 EXP SWAP1 DIV PUSH20 0xFFFFFFFFFFFFFFFFFFFFFFFFFFFFFFFFFFFFFFFF AND SWAP1 POP DUP2 PUSH1 0x9 PUSH1 0x0 PUSH2 0x100 EXP DUP2 SLOAD DUP2 PUSH20 0xFFFFFFFFFFFFFFFFFFFFFFFFFFFFFFFFFFFFFFFF MUL NOT AND SWAP1 DUP4 PUSH20 0xFFFFFFFFFFFFFFFFFFFFFFFFFFFFFFFFFFFFFFFF AND MUL OR SWAP1 SSTORE POP DUP2 PUSH20 0xFFFFFFFFFFFFFFFFFFFFFFFFFFFFFFFFFFFFFFFF AND DUP2 PUSH20 0xFFFFFFFFFFFFFFFFFFFFFFFFFFFFFFFFFFFFFFFF AND PUSH32 0x8BE0079C531659141344CD1FD0A4F28419497F9722A3DAAFE3B4186F6B6457E0 PUSH1 0x40 MLOAD PUSH1 0x40 MLOAD DUP1 SWAP2 SUB SWAP1 LOG3 POP POP JUMP JUMPDEST DUP2 PUSH20 0xFFFFFFFFFFFFFFFFFFFFFFFFFFFFFFFFFFFFFFFF AND DUP4 PUSH20 0xFFFFFFFFFFFFFFFFFFFFFFFFFFFFFFFFFFFFFFFF AND EQ ISZERO PUSH2 0x279E JUMPI PUSH1 0x40 MLOAD PUSH32 0x8C379A000000000000000000000000000000000000000000000000000000000 DUP2 MSTORE PUSH1 0x4 ADD PUSH2 0x2795 SWAP1 PUSH2 0x3FDE JUMP JUMPDEST PUSH1 0x40 MLOAD DUP1 SWAP2 SUB SWAP1 REVERT JUMPDEST DUP1 PUSH1 0x5 PUSH1 0x0 DUP6 PUSH20 0xFFFFFFFFFFFFFFFFFFFFFFFFFFFFFFFFFFFFFFFF AND PUSH20 0xFFFFFFFFFFFFFFFFFFFFFFFFFFFFFFFFFFFFFFFF AND DUP2 MSTORE PUSH1 0x20 ADD SWAP1 DUP2 MSTORE PUSH1 0x20 ADD PUSH1 0x0 KECCAK256 PUSH1 0x0 DUP5 PUSH20 0xFFFFFFFFFFFFFFFFFFFFFFFFFFFFFFFFFFFFFFFF AND PUSH20 0xFFFFFFFFFFFFFFFFFFFFFFFFFFFFFFFFFFFFFFFF AND DUP2 MSTORE PUSH1 0x20 ADD SWAP1 DUP2 MSTORE PUSH1 0x20 ADD PUSH1 0x0 KECCAK256 PUSH1 0x0 PUSH2 0x100 EXP DUP2 SLOAD DUP2 PUSH1 0xFF MUL NOT AND SWAP1 DUP4 ISZERO ISZERO MUL OR SWAP1 SSTORE POP DUP2 PUSH20 0xFFFFFFFFFFFFFFFFFFFFFFFFFFFFFFFFFFFFFFFF AND DUP4 PUSH20 0xFFFFFFFFFFFFFFFFFFFFFFFFFFFFFFFFFFFFFFFF AND PUSH32 0x17307EAB39AB6107E8899845AD3D59BD9653F200F220920489CA2B5937696C31 DUP4 PUSH1 0x40 MLOAD PUSH2 0x288F SWAP2 SWAP1 PUSH2 0x3DD1 JUMP JUMPDEST PUSH1 0x40 MLOAD DUP1 SWAP2 SUB SWAP1 LOG3 POP POP POP JUMP JUMPDEST PUSH1 0x0 DUP1 DUP3 LT ISZERO PUSH2 0x28E1 JUMPI PUSH1 0x40 MLOAD PUSH32 0x8C379A000000000000000000000000000000000000000000000000000000000 DUP2 MSTORE PUSH1 0x4 ADD PUSH2 0x28D8 SWAP1 PUSH2 0x3F7E JUMP JUMPDEST PUSH1 0x40 MLOAD DUP1 SWAP2 SUB SWAP1 REVERT JUMPDEST PUSH1 0x1 SWAP1 POP PUSH1 0x0 DUP3 GT ISZERO PUSH2 0x291F JUMPI PUSH1 0x0 PUSH1 0x1 SWAP1 POP JUMPDEST DUP3 DUP2 GT PUSH2 0x291D JUMPI DUP4 DUP3 PUSH2 0x2908 SWAP2 SWAP1 PUSH2 0x42D9 JUMP JUMPDEST SWAP2 POP DUP1 DUP1 PUSH2 0x2915 SWAP1 PUSH2 0x44E7 JUMP JUMPDEST SWAP2 POP POP PUSH2 0x28F5 JUMP JUMPDEST POP JUMPDEST SWAP3 SWAP2 POP POP JUMP JUMPDEST PUSH2 0x2930 DUP5 DUP5 DUP5 PUSH2 0x2184 JUMP JUMPDEST PUSH2 0x293C DUP5 DUP5 DUP5 DUP5 PUSH2 0x2CB3 JUMP JUMPDEST PUSH2 0x297B JUMPI PUSH1 0x40 MLOAD PUSH32 0x8C379A000000000000000000000000000000000000000000000000000000000 DUP2 MSTORE PUSH1 0x4 ADD PUSH2 0x2972 SWAP1 PUSH2 0x3EFE JUMP JUMPDEST PUSH1 0x40 MLOAD DUP1 SWAP2 SUB SWAP1 REVERT JUMPDEST POP POP POP POP JUMP JUMPDEST PUSH1 0x60 PUSH1 0x0 DUP3 MLOAD SWAP1 POP PUSH1 0x0 DUP2 EQ ISZERO PUSH2 0x29AA JUMPI PUSH1 0x40 MLOAD DUP1 PUSH1 0x20 ADD PUSH1 0x40 MSTORE DUP1 PUSH1 0x0 DUP2 MSTORE POP SWAP2 POP POP PUSH2 0x2B14 JUMP JUMPDEST PUSH1 0x0 PUSH1 0x3 PUSH1 0x2 DUP4 PUSH2 0x29BB SWAP2 SWAP1 PUSH2 0x4252 JUMP JUMPDEST PUSH2 0x29C5 SWAP2 SWAP1 PUSH2 0x42A8 JUMP JUMPDEST PUSH1 0x4 PUSH2 0x29D1 SWAP2 SWAP1 PUSH2 0x42D9 JUMP JUMPDEST SWAP1 POP PUSH1 0x0 PUSH1 0x20 DUP3 PUSH2 0x29E2 SWAP2 SWAP1 PUSH2 0x4252 JUMP JUMPDEST PUSH8 0xFFFFFFFFFFFFFFFF DUP2 GT ISZERO PUSH2 0x29FB JUMPI PUSH2 0x29FA PUSH2 0x4655 JUMP JUMPDEST JUMPDEST PUSH1 0x40 MLOAD SWAP1 DUP1 DUP3 MSTORE DUP1 PUSH1 0x1F ADD PUSH1 0x1F NOT AND PUSH1 0x20 ADD DUP3 ADD PUSH1 0x40 MSTORE DUP1 ISZERO PUSH2 0x2A2D JUMPI DUP2 PUSH1 0x20 ADD PUSH1 0x1 DUP3 MUL DUP1 CALLDATASIZE DUP4 CALLDATACOPY DUP1 DUP3 ADD SWAP2 POP POP SWAP1 POP JUMPDEST POP SWAP1 POP PUSH1 0x0 PUSH1 0x40 MLOAD DUP1 PUSH1 0x60 ADD PUSH1 0x40 MSTORE DUP1 PUSH1 0x40 DUP2 MSTORE PUSH1 0x20 ADD PUSH2 0x4F59 PUSH1 0x40 SWAP2 CODECOPY SWAP1 POP PUSH1 0x1 DUP2 ADD PUSH1 0x20 DUP4 ADD PUSH1 0x0 JUMPDEST DUP7 DUP2 LT ISZERO PUSH2 0x2AD1 JUMPI PUSH1 0x3 DUP2 ADD SWAP1 POP PUSH3 0xFFFFFF DUP2 DUP11 ADD MLOAD AND PUSH1 0x3F DUP2 PUSH1 0x12 SHR AND DUP5 ADD MLOAD DUP1 PUSH1 0x8 SHL SWAP1 POP PUSH1 0xFF PUSH1 0x3F DUP4 PUSH1 0xC SHR AND DUP7 ADD MLOAD AND DUP2 ADD SWAP1 POP DUP1 PUSH1 0x8 SHL SWAP1 POP PUSH1 0xFF PUSH1 0x3F DUP4 PUSH1 0x6 SHR AND DUP7 ADD MLOAD AND DUP2 ADD SWAP1 POP DUP1 PUSH1 0x8 SHL SWAP1 POP PUSH1 0xFF PUSH1 0x3F DUP4 AND DUP7 ADD MLOAD AND DUP2 ADD SWAP1 POP DUP1 PUSH1 0xE0 SHL SWAP1 POP DUP1 DUP5 MSTORE PUSH1 0x4 DUP5 ADD SWAP4 POP POP POP PUSH2 0x2A58 JUMP JUMPDEST POP PUSH1 0x3 DUP7 MOD PUSH1 0x1 DUP2 EQ PUSH2 0x2AEB JUMPI PUSH1 0x2 DUP2 EQ PUSH2 0x2AFB JUMPI PUSH2 0x2B06 JUMP JUMPDEST PUSH2 0x3D3D PUSH1 0xF0 SHL PUSH1 0x2 DUP4 SUB MSTORE PUSH2 0x2B06 JUMP JUMPDEST PUSH1 0x3D PUSH1 0xF8 SHL PUSH1 0x1 DUP4 SUB MSTORE JUMPDEST POP DUP5 DUP5 MSTORE POP POP DUP2 SWAP5 POP POP POP POP POP JUMPDEST SWAP2 SWAP1 POP JUMP JUMPDEST PUSH1 0x0 PUSH1 0x5 PUSH1 0x0 DUP5 PUSH20 0xFFFFFFFFFFFFFFFFFFFFFFFFFFFFFFFFFFFFFFFF AND PUSH20 0xFFFFFFFFFFFFFFFFFFFFFFFFFFFFFFFFFFFFFFFF AND DUP2 MSTORE PUSH1 0x20 ADD SWAP1 DUP2 MSTORE PUSH1 0x20 ADD PUSH1 0x0 KECCAK256 PUSH1 0x0 DUP4 PUSH20 0xFFFFFFFFFFFFFFFFFFFFFFFFFFFFFFFFFFFFFFFF AND PUSH20 0xFFFFFFFFFFFFFFFFFFFFFFFFFFFFFFFFFFFFFFFF AND DUP2 MSTORE PUSH1 0x20 ADD SWAP1 DUP2 MSTORE PUSH1 0x20 ADD PUSH1 0x0 KECCAK256 PUSH1 0x0 SWAP1 SLOAD SWAP1 PUSH2 0x100 EXP SWAP1 DIV PUSH1 0xFF AND SWAP1 POP SWAP3 SWAP2 POP POP JUMP JUMPDEST PUSH1 0x0 PUSH1 0x40 MLOAD DUP1 PUSH1 0x80 ADD PUSH1 0x40 MSTORE DUP1 PUSH1 0x43 DUP2 MSTORE PUSH1 0x20 ADD PUSH2 0x4F16 PUSH1 0x43 SWAP2 CODECOPY DUP1 MLOAD SWAP1 PUSH1 0x20 ADD KECCAK256 DUP3 PUSH1 0x0 ADD MLOAD DUP4 PUSH1 0x20 ADD MLOAD DUP5 PUSH1 0x40 ADD MLOAD DUP1 MLOAD SWAP1 PUSH1 0x20 ADD KECCAK256 PUSH1 0x40 MLOAD PUSH1 0x20 ADD PUSH2 0x2BF8 SWAP5 SWAP4 SWAP3 SWAP2 SWAP1 PUSH2 0x3E30 JUMP JUMPDEST PUSH1 0x40 MLOAD PUSH1 0x20 DUP2 DUP4 SUB SUB DUP2 MSTORE SWAP1 PUSH1 0x40 MSTORE DUP1 MLOAD SWAP1 PUSH1 0x20 ADD KECCAK256 SWAP1 POP SWAP2 SWAP1 POP JUMP JUMPDEST PUSH1 0x0 PUSH2 0x2C1F PUSH2 0xDF0 JUMP JUMPDEST DUP3 PUSH1 0x40 MLOAD PUSH1 0x20 ADD PUSH2 0x2C31 SWAP3 SWAP2 SWAP1 PUSH2 0x3C4F JUMP JUMPDEST PUSH1 0x40 MLOAD PUSH1 0x20 DUP2 DUP4 SUB SUB DUP2 MSTORE SWAP1 PUSH1 0x40 MSTORE DUP1 MLOAD SWAP1 PUSH1 0x20 ADD KECCAK256 SWAP1 POP SWAP2 SWAP1 POP JUMP JUMPDEST PUSH2 0x2C58 DUP4 DUP4 PUSH2 0x2E4A JUMP JUMPDEST PUSH2 0x2C65 PUSH1 0x0 DUP5 DUP5 DUP5 PUSH2 0x2CB3 JUMP JUMPDEST PUSH2 0x2CA4 JUMPI PUSH1 0x40 MLOAD PUSH32 0x8C379A000000000000000000000000000000000000000000000000000000000 DUP2 MSTORE PUSH1 0x4 ADD PUSH2 0x2C9B SWAP1 PUSH2 0x3EFE JUMP JUMPDEST PUSH1 0x40 MLOAD DUP1 SWAP2 SUB SWAP1 REVERT JUMPDEST POP POP POP JUMP JUMPDEST POP POP POP JUMP JUMPDEST POP POP POP JUMP JUMPDEST PUSH1 0x0 PUSH2 0x2CD4 DUP5 PUSH20 0xFFFFFFFFFFFFFFFFFFFFFFFFFFFFFFFFFFFFFFFF AND PUSH2 0x3024 JUMP JUMPDEST ISZERO PUSH2 0x2E3D JUMPI DUP4 PUSH20 0xFFFFFFFFFFFFFFFFFFFFFFFFFFFFFFFFFFFFFFFF AND PUSH4 0x150B7A02 PUSH2 0x2CFD PUSH2 0x1CBE JUMP JUMPDEST DUP8 DUP7 DUP7 PUSH1 0x40 MLOAD DUP6 PUSH4 0xFFFFFFFF AND PUSH1 0xE0 SHL DUP2 MSTORE PUSH1 0x4 ADD PUSH2 0x2D1F SWAP5 SWAP4 SWAP3 SWAP2 SWAP1 PUSH2 0x3D85 JUMP JUMPDEST PUSH1 0x20 PUSH1 0x40 MLOAD DUP1 DUP4 SUB DUP2 PUSH1 0x0 DUP8 DUP1 EXTCODESIZE ISZERO DUP1 ISZERO PUSH2 0x2D39 JUMPI PUSH1 0x0 DUP1 REVERT JUMPDEST POP GAS CALL SWAP3 POP POP POP DUP1 ISZERO PUSH2 0x2D6A JUMPI POP PUSH1 0x40 MLOAD RETURNDATASIZE PUSH1 0x1F NOT PUSH1 0x1F DUP3 ADD AND DUP3 ADD DUP1 PUSH1 0x40 MSTORE POP DUP2 ADD SWAP1 PUSH2 0x2D67 SWAP2 SWAP1 PUSH2 0x3489 JUMP JUMPDEST PUSH1 0x1 JUMPDEST PUSH2 0x2DED JUMPI RETURNDATASIZE DUP1 PUSH1 0x0 DUP2 EQ PUSH2 0x2D9A JUMPI PUSH1 0x40 MLOAD SWAP2 POP PUSH1 0x1F NOT PUSH1 0x3F RETURNDATASIZE ADD AND DUP3 ADD PUSH1 0x40 MSTORE RETURNDATASIZE DUP3 MSTORE RETURNDATASIZE PUSH1 0x0 PUSH1 0x20 DUP5 ADD RETURNDATACOPY PUSH2 0x2D9F JUMP JUMPDEST PUSH1 0x60 SWAP2 POP JUMPDEST POP PUSH1 0x0 DUP2 MLOAD EQ ISZERO PUSH2 0x2DE5 JUMPI PUSH1 0x40 MLOAD PUSH32 0x8C379A000000000000000000000000000000000000000000000000000000000 DUP2 MSTORE PUSH1 0x4 ADD PUSH2 0x2DDC SWAP1 PUSH2 0x3EFE JUMP JUMPDEST PUSH1 0x40 MLOAD DUP1 SWAP2 SUB SWAP1 REVERT JUMPDEST DUP1 MLOAD DUP2 PUSH1 0x20 ADD REVERT JUMPDEST PUSH4 0x150B7A02 PUSH1 0xE0 SHL PUSH28 0xFFFFFFFFFFFFFFFFFFFFFFFFFFFFFFFFFFFFFFFFFFFFFFFFFFFFFFFF NOT AND DUP2 PUSH28 0xFFFFFFFFFFFFFFFFFFFFFFFFFFFFFFFFFFFFFFFFFFFFFFFFFFFFFFFF NOT AND EQ SWAP2 POP POP PUSH2 0x2E42 JUMP JUMPDEST PUSH1 0x1 SWAP1 POP JUMPDEST SWAP5 SWAP4 POP POP POP POP JUMP JUMPDEST PUSH1 0x0 PUSH20 0xFFFFFFFFFFFFFFFFFFFFFFFFFFFFFFFFFFFFFFFF AND DUP3 PUSH20 0xFFFFFFFFFFFFFFFFFFFFFFFFFFFFFFFFFFFFFFFF AND EQ ISZERO PUSH2 0x2EBA JUMPI PUSH1 0x40 MLOAD PUSH32 0x8C379A000000000000000000000000000000000000000000000000000000000 DUP2 MSTORE PUSH1 0x4 ADD PUSH2 0x2EB1 SWAP1 PUSH2 0x409E JUMP JUMPDEST PUSH1 0x40 MLOAD DUP1 SWAP2 SUB SWAP1 REVERT JUMPDEST PUSH2 0x2EC3 DUP2 PUSH2 0x1C52 JUMP JUMPDEST ISZERO PUSH2 0x2F03 JUMPI PUSH1 0x40 MLOAD PUSH32 0x8C379A000000000000000000000000000000000000000000000000000000000 DUP2 MSTORE PUSH1 0x4 ADD PUSH2 0x2EFA SWAP1 PUSH2 0x3F9E JUMP JUMPDEST PUSH1 0x40 MLOAD DUP1 SWAP2 SUB SWAP1 REVERT JUMPDEST PUSH2 0x2F0F PUSH1 0x0 DUP4 DUP4 PUSH2 0x2CA9 JUMP JUMPDEST PUSH1 0x1 PUSH1 0x3 PUSH1 0x0 DUP5 PUSH20 0xFFFFFFFFFFFFFFFFFFFFFFFFFFFFFFFFFFFFFFFF AND PUSH20 0xFFFFFFFFFFFFFFFFFFFFFFFFFFFFFFFFFFFFFFFF AND DUP2 MSTORE PUSH1 0x20 ADD SWAP1 DUP2 MSTORE PUSH1 0x20 ADD PUSH1 0x0 KECCAK256 PUSH1 0x0 DUP3 DUP3 SLOAD PUSH2 0x2F5F SWAP2 SWAP1 PUSH2 0x4252 JUMP JUMPDEST SWAP3 POP POP DUP2 SWAP1 SSTORE POP DUP2 PUSH1 0x2 PUSH1 0x0 DUP4 DUP2 MSTORE PUSH1 0x20 ADD SWAP1 DUP2 MSTORE PUSH1 0x20 ADD PUSH1 0x0 KECCAK256 PUSH1 0x0 PUSH2 0x100 EXP DUP2 SLOAD DUP2 PUSH20 0xFFFFFFFFFFFFFFFFFFFFFFFFFFFFFFFFFFFFFFFF MUL NOT AND SWAP1 DUP4 PUSH20 0xFFFFFFFFFFFFFFFFFFFFFFFFFFFFFFFFFFFFFFFF AND MUL OR SWAP1 SSTORE POP DUP1 DUP3 PUSH20 0xFFFFFFFFFFFFFFFFFFFFFFFFFFFFFFFFFFFFFFFF AND PUSH1 0x0 PUSH20 0xFFFFFFFFFFFFFFFFFFFFFFFFFFFFFFFFFFFFFFFF AND PUSH32 0xDDF252AD1BE2C89B69C2B068FC378DAA952BA7F163C4A11628F55A4DF523B3EF PUSH1 0x40 MLOAD PUSH1 0x40 MLOAD DUP1 SWAP2 SUB SWAP1 LOG4 PUSH2 0x3020 PUSH1 0x0 DUP4 DUP4 PUSH2 0x2CAE JUMP JUMPDEST POP POP JUMP JUMPDEST PUSH1 0x0 DUP1 DUP3 PUSH20 0xFFFFFFFFFFFFFFFFFFFFFFFFFFFFFFFFFFFFFFFF AND EXTCODESIZE GT SWAP1 POP SWAP2 SWAP1 POP JUMP JUMPDEST DUP3 DUP1 SLOAD PUSH2 0x3053 SWAP1 PUSH2 0x4484 JUMP JUMPDEST SWAP1 PUSH1 0x0 MSTORE PUSH1 0x20 PUSH1 0x0 KECCAK256 SWAP1 PUSH1 0x1F ADD PUSH1 0x20 SWAP1 DIV DUP2 ADD SWAP3 DUP3 PUSH2 0x3075 JUMPI PUSH1 0x0 DUP6 SSTORE PUSH2 0x30BC JUMP JUMPDEST DUP3 PUSH1 0x1F LT PUSH2 0x308E JUMPI DUP1 MLOAD PUSH1 0xFF NOT AND DUP4 DUP1 ADD OR DUP6 SSTORE PUSH2 0x30BC JUMP JUMPDEST DUP3 DUP1 ADD PUSH1 0x1 ADD DUP6 SSTORE DUP3 ISZERO PUSH2 0x30BC JUMPI SWAP2 DUP3 ADD JUMPDEST DUP3 DUP2 GT ISZERO PUSH2 0x30BB JUMPI DUP3 MLOAD DUP3 SSTORE SWAP2 PUSH1 0x20 ADD SWAP2 SWAP1 PUSH1 0x1 ADD SWAP1 PUSH2 0x30A0 JUMP JUMPDEST JUMPDEST POP SWAP1 POP PUSH2 0x30C9 SWAP2 SWAP1 PUSH2 0x30CD JUMP JUMPDEST POP SWAP1 JUMP JUMPDEST JUMPDEST DUP1 DUP3 GT ISZERO PUSH2 0x30E6 JUMPI PUSH1 0x0 DUP2 PUSH1 0x0 SWAP1 SSTORE POP PUSH1 0x1 ADD PUSH2 0x30CE JUMP JUMPDEST POP SWAP1 JUMP JUMPDEST PUSH1 0x0 PUSH2 0x30FD PUSH2 0x30F8 DUP5 PUSH2 0x41BE JUMP JUMPDEST PUSH2 0x4199 JUMP JUMPDEST SWAP1 POP DUP3 DUP2 MSTORE PUSH1 0x20 DUP2 ADD DUP5 DUP5 DUP5 ADD GT ISZERO PUSH2 0x3119 JUMPI PUSH2 0x3118 PUSH2 0x4689 JUMP JUMPDEST JUMPDEST PUSH2 0x3124 DUP5 DUP3 DUP6 PUSH2 0x4442 JUMP JUMPDEST POP SWAP4 SWAP3 POP POP POP JUMP JUMPDEST PUSH1 0x0 DUP2 CALLDATALOAD SWAP1 POP PUSH2 0x313B DUP2 PUSH2 0x4E0D JUMP JUMPDEST SWAP3 SWAP2 POP POP JUMP JUMPDEST PUSH1 0x0 DUP2 CALLDATALOAD SWAP1 POP PUSH2 0x3150 DUP2 PUSH2 0x4E24 JUMP JUMPDEST SWAP3 SWAP2 POP POP JUMP JUMPDEST PUSH1 0x0 DUP2 CALLDATALOAD SWAP1 POP PUSH2 0x3165 DUP2 PUSH2 0x4E3B JUMP JUMPDEST SWAP3 SWAP2 POP POP JUMP JUMPDEST PUSH1 0x0 DUP2 CALLDATALOAD SWAP1 POP PUSH2 0x317A DUP2 PUSH2 0x4E52 JUMP JUMPDEST SWAP3 SWAP2 POP POP JUMP JUMPDEST PUSH1 0x0 DUP2 MLOAD SWAP1 POP PUSH2 0x318F DUP2 PUSH2 0x4E52 JUMP JUMPDEST SWAP3 SWAP2 POP POP JUMP JUMPDEST PUSH1 0x0 DUP3 PUSH1 0x1F DUP4 ADD SLT PUSH2 0x31AA JUMPI PUSH2 0x31A9 PUSH2 0x4684 JUMP JUMPDEST JUMPDEST DUP2 CALLDATALOAD PUSH2 0x31BA DUP5 DUP3 PUSH1 0x20 DUP7 ADD PUSH2 0x30EA JUMP JUMPDEST SWAP2 POP POP SWAP3 SWAP2 POP POP JUMP JUMPDEST PUSH1 0x0 DUP2 MLOAD SWAP1 POP PUSH2 0x31D2 DUP2 PUSH2 0x4E69 JUMP JUMPDEST SWAP3 SWAP2 POP POP JUMP JUMPDEST PUSH1 0x0 DUP2 CALLDATALOAD SWAP1 POP PUSH2 0x31E7 DUP2 PUSH2 0x4E80 JUMP JUMPDEST SWAP3 SWAP2 POP POP JUMP JUMPDEST PUSH1 0x0 DUP2 CALLDATALOAD SWAP1 POP PUSH2 0x31FC DUP2 PUSH2 0x4E97 JUMP JUMPDEST SWAP3 SWAP2 POP POP JUMP JUMPDEST PUSH1 0x0 PUSH1 0x20 DUP3 DUP5 SUB SLT ISZERO PUSH2 0x3218 JUMPI PUSH2 0x3217 PUSH2 0x4693 JUMP JUMPDEST JUMPDEST PUSH1 0x0 PUSH2 0x3226 DUP5 DUP3 DUP6 ADD PUSH2 0x312C JUMP JUMPDEST SWAP2 POP POP SWAP3 SWAP2 POP POP JUMP JUMPDEST PUSH1 0x0 DUP1 PUSH1 0x40 DUP4 DUP6 SUB SLT ISZERO PUSH2 0x3246 JUMPI PUSH2 0x3245 PUSH2 0x4693 JUMP JUMPDEST JUMPDEST PUSH1 0x0 PUSH2 0x3254 DUP6 DUP3 DUP7 ADD PUSH2 0x312C JUMP JUMPDEST SWAP3 POP POP PUSH1 0x20 PUSH2 0x3265 DUP6 DUP3 DUP7 ADD PUSH2 0x312C JUMP JUMPDEST SWAP2 POP POP SWAP3 POP SWAP3 SWAP1 POP JUMP JUMPDEST PUSH1 0x0 DUP1 PUSH1 0x0 PUSH1 0x60 DUP5 DUP7 SUB SLT ISZERO PUSH2 0x3288 JUMPI PUSH2 0x3287 PUSH2 0x4693 JUMP JUMPDEST JUMPDEST PUSH1 0x0 PUSH2 0x3296 DUP7 DUP3 DUP8 ADD PUSH2 0x312C JUMP JUMPDEST SWAP4 POP POP PUSH1 0x20 PUSH2 0x32A7 DUP7 DUP3 DUP8 ADD PUSH2 0x312C JUMP JUMPDEST SWAP3 POP POP PUSH1 0x40 PUSH2 0x32B8 DUP7 DUP3 DUP8 ADD PUSH2 0x31D8 JUMP JUMPDEST SWAP2 POP POP SWAP3 POP SWAP3 POP SWAP3 JUMP JUMPDEST PUSH1 0x0 DUP1 PUSH1 0x0 DUP1 PUSH1 0x80 DUP6 DUP8 SUB SLT ISZERO PUSH2 0x32DC JUMPI PUSH2 0x32DB PUSH2 0x4693 JUMP JUMPDEST JUMPDEST PUSH1 0x0 PUSH2 0x32EA DUP8 DUP3 DUP9 ADD PUSH2 0x312C JUMP JUMPDEST SWAP5 POP POP PUSH1 0x20 PUSH2 0x32FB DUP8 DUP3 DUP9 ADD PUSH2 0x312C JUMP JUMPDEST SWAP4 POP POP PUSH1 0x40 PUSH2 0x330C DUP8 DUP3 DUP9 ADD PUSH2 0x31D8 JUMP JUMPDEST SWAP3 POP POP PUSH1 0x60 DUP6 ADD CALLDATALOAD PUSH8 0xFFFFFFFFFFFFFFFF DUP2 GT ISZERO PUSH2 0x332D JUMPI PUSH2 0x332C PUSH2 0x468E JUMP JUMPDEST JUMPDEST PUSH2 0x3339 DUP8 DUP3 DUP9 ADD PUSH2 0x3195 JUMP JUMPDEST SWAP2 POP POP SWAP3 SWAP6 SWAP2 SWAP5 POP SWAP3 POP JUMP JUMPDEST PUSH1 0x0 DUP1 PUSH1 0x40 DUP4 DUP6 SUB SLT ISZERO PUSH2 0x335C JUMPI PUSH2 0x335B PUSH2 0x4693 JUMP JUMPDEST JUMPDEST PUSH1 0x0 PUSH2 0x336A DUP6 DUP3 DUP7 ADD PUSH2 0x312C JUMP JUMPDEST SWAP3 POP POP PUSH1 0x20 PUSH2 0x337B DUP6 DUP3 DUP7 ADD PUSH2 0x3141 JUMP JUMPDEST SWAP2 POP POP SWAP3 POP SWAP3 SWAP1 POP JUMP JUMPDEST PUSH1 0x0 DUP1 PUSH1 0x0 DUP1 PUSH1 0x0 PUSH1 0xA0 DUP7 DUP9 SUB SLT ISZERO PUSH2 0x33A1 JUMPI PUSH2 0x33A0 PUSH2 0x4693 JUMP JUMPDEST JUMPDEST PUSH1 0x0 PUSH2 0x33AF DUP9 DUP3 DUP10 ADD PUSH2 0x312C JUMP JUMPDEST SWAP6 POP POP PUSH1 0x20 DUP7 ADD CALLDATALOAD PUSH8 0xFFFFFFFFFFFFFFFF DUP2 GT ISZERO PUSH2 0x33D0 JUMPI PUSH2 0x33CF PUSH2 0x468E JUMP JUMPDEST JUMPDEST PUSH2 0x33DC DUP9 DUP3 DUP10 ADD PUSH2 0x3195 JUMP JUMPDEST SWAP5 POP POP PUSH1 0x40 PUSH2 0x33ED DUP9 DUP3 DUP10 ADD PUSH2 0x3156 JUMP JUMPDEST SWAP4 POP POP PUSH1 0x60 PUSH2 0x33FE DUP9 DUP3 DUP10 ADD PUSH2 0x3156 JUMP JUMPDEST SWAP3 POP POP PUSH1 0x80 PUSH2 0x340F DUP9 DUP3 DUP10 ADD PUSH2 0x31ED JUMP JUMPDEST SWAP2 POP POP SWAP3 SWAP6 POP SWAP3 SWAP6 SWAP1 SWAP4 POP JUMP JUMPDEST PUSH1 0x0 DUP1 PUSH1 0x40 DUP4 DUP6 SUB SLT ISZERO PUSH2 0x3433 JUMPI PUSH2 0x3432 PUSH2 0x4693 JUMP JUMPDEST JUMPDEST PUSH1 0x0 PUSH2 0x3441 DUP6 DUP3 DUP7 ADD PUSH2 0x312C JUMP JUMPDEST SWAP3 POP POP PUSH1 0x20 PUSH2 0x3452 DUP6 DUP3 DUP7 ADD PUSH2 0x31D8 JUMP JUMPDEST SWAP2 POP POP SWAP3 POP SWAP3 SWAP1 POP JUMP JUMPDEST PUSH1 0x0 PUSH1 0x20 DUP3 DUP5 SUB SLT ISZERO PUSH2 0x3472 JUMPI PUSH2 0x3471 PUSH2 0x4693 JUMP JUMPDEST JUMPDEST PUSH1 0x0 PUSH2 0x3480 DUP5 DUP3 DUP6 ADD PUSH2 0x316B JUMP JUMPDEST SWAP2 POP POP SWAP3 SWAP2 POP POP JUMP JUMPDEST PUSH1 0x0 PUSH1 0x20 DUP3 DUP5 SUB SLT ISZERO PUSH2 0x349F JUMPI PUSH2 0x349E PUSH2 0x4693 JUMP JUMPDEST JUMPDEST PUSH1 0x0 PUSH2 0x34AD DUP5 DUP3 DUP6 ADD PUSH2 0x3180 JUMP JUMPDEST SWAP2 POP POP SWAP3 SWAP2 POP POP JUMP JUMPDEST PUSH1 0x0 PUSH1 0x20 DUP3 DUP5 SUB SLT ISZERO PUSH2 0x34CC JUMPI PUSH2 0x34CB PUSH2 0x4693 JUMP JUMPDEST JUMPDEST PUSH1 0x0 PUSH2 0x34DA DUP5 DUP3 DUP6 ADD PUSH2 0x31C3 JUMP JUMPDEST SWAP2 POP POP SWAP3 SWAP2 POP POP JUMP JUMPDEST PUSH1 0x0 PUSH1 0x20 DUP3 DUP5 SUB SLT ISZERO PUSH2 0x34F9 JUMPI PUSH2 0x34F8 PUSH2 0x4693 JUMP JUMPDEST JUMPDEST PUSH1 0x0 PUSH2 0x3507 DUP5 DUP3 DUP6 ADD PUSH2 0x31D8 JUMP JUMPDEST SWAP2 POP POP SWAP3 SWAP2 POP POP JUMP JUMPDEST PUSH1 0x0 DUP1 PUSH1 0x40 DUP4 DUP6 SUB SLT ISZERO PUSH2 0x3527 JUMPI PUSH2 0x3526 PUSH2 0x4693 JUMP JUMPDEST JUMPDEST PUSH1 0x0 PUSH2 0x3535 DUP6 DUP3 DUP7 ADD PUSH2 0x31D8 JUMP JUMPDEST SWAP3 POP POP PUSH1 0x20 PUSH2 0x3546 DUP6 DUP3 DUP7 ADD PUSH2 0x31D8 JUMP JUMPDEST SWAP2 POP POP SWAP3 POP SWAP3 SWAP1 POP JUMP JUMPDEST PUSH2 0x3559 DUP2 PUSH2 0x4379 JUMP JUMPDEST DUP3 MSTORE POP POP JUMP JUMPDEST PUSH2 0x3568 DUP2 PUSH2 0x4367 JUMP JUMPDEST DUP3 MSTORE POP POP JUMP JUMPDEST PUSH2 0x357F PUSH2 0x357A DUP3 PUSH2 0x4367 JUMP JUMPDEST PUSH2 0x4530 JUMP JUMPDEST DUP3 MSTORE POP POP JUMP JUMPDEST PUSH2 0x358E DUP2 PUSH2 0x438B JUMP JUMPDEST DUP3 MSTORE POP POP JUMP JUMPDEST PUSH2 0x35A5 PUSH2 0x35A0 DUP3 PUSH2 0x4397 JUMP JUMPDEST PUSH2 0x4542 JUMP JUMPDEST DUP3 MSTORE POP POP JUMP JUMPDEST PUSH2 0x35B4 DUP2 PUSH2 0x43C3 JUMP JUMPDEST DUP3 MSTORE POP POP JUMP JUMPDEST PUSH2 0x35CB PUSH2 0x35C6 DUP3 PUSH2 0x43C3 JUMP JUMPDEST PUSH2 0x454C JUMP JUMPDEST DUP3 MSTORE POP POP JUMP JUMPDEST PUSH1 0x0 PUSH2 0x35DC DUP3 PUSH2 0x4204 JUMP JUMPDEST PUSH2 0x35E6 DUP2 DUP6 PUSH2 0x421A JUMP JUMPDEST SWAP4 POP PUSH2 0x35F6 DUP2 DUP6 PUSH1 0x20 DUP7 ADD PUSH2 0x4451 JUMP JUMPDEST PUSH2 0x35FF DUP2 PUSH2 0x4698 JUMP JUMPDEST DUP5 ADD SWAP2 POP POP SWAP3 SWAP2 POP POP JUMP JUMPDEST PUSH1 0x0 PUSH2 0x3615 DUP3 PUSH2 0x4204 JUMP JUMPDEST PUSH2 0x361F DUP2 DUP6 PUSH2 0x422B JUMP JUMPDEST SWAP4 POP PUSH2 0x362F DUP2 DUP6 PUSH1 0x20 DUP7 ADD PUSH2 0x4451 JUMP JUMPDEST DUP1 DUP5 ADD SWAP2 POP POP SWAP3 SWAP2 POP POP JUMP JUMPDEST PUSH1 0x0 PUSH2 0x3646 DUP3 PUSH2 0x420F JUMP JUMPDEST PUSH2 0x3650 DUP2 DUP6 PUSH2 0x4236 JUMP JUMPDEST SWAP4 POP PUSH2 0x3660 DUP2 DUP6 PUSH1 0x20 DUP7 ADD PUSH2 0x4451 JUMP JUMPDEST PUSH2 0x3669 DUP2 PUSH2 0x4698 JUMP JUMPDEST DUP5 ADD SWAP2 POP POP SWAP3 SWAP2 POP POP JUMP JUMPDEST PUSH1 0x0 PUSH2 0x367F DUP3 PUSH2 0x420F JUMP JUMPDEST PUSH2 0x3689 DUP2 DUP6 PUSH2 0x4247 JUMP JUMPDEST SWAP4 POP PUSH2 0x3699 DUP2 DUP6 PUSH1 0x20 DUP7 ADD PUSH2 0x4451 JUMP JUMPDEST DUP1 DUP5 ADD SWAP2 POP POP SWAP3 SWAP2 POP POP JUMP JUMPDEST PUSH1 0x0 DUP2 SLOAD PUSH2 0x36B2 DUP2 PUSH2 0x4484 JUMP JUMPDEST PUSH2 0x36BC DUP2 DUP7 PUSH2 0x4247 JUMP JUMPDEST SWAP5 POP PUSH1 0x1 DUP3 AND PUSH1 0x0 DUP2 EQ PUSH2 0x36D7 JUMPI PUSH1 0x1 DUP2 EQ PUSH2 0x36E8 JUMPI PUSH2 0x371B JUMP JUMPDEST PUSH1 0xFF NOT DUP4 AND DUP7 MSTORE DUP2 DUP7 ADD SWAP4 POP PUSH2 0x371B JUMP JUMPDEST PUSH2 0x36F1 DUP6 PUSH2 0x41EF JUMP JUMPDEST PUSH1 0x0 JUMPDEST DUP4 DUP2 LT ISZERO PUSH2 0x3713 JUMPI DUP2 SLOAD DUP2 DUP10 ADD MSTORE PUSH1 0x1 DUP3 ADD SWAP2 POP PUSH1 0x20 DUP2 ADD SWAP1 POP PUSH2 0x36F4 JUMP JUMPDEST DUP4 DUP9 ADD SWAP6 POP POP POP JUMPDEST POP POP POP SWAP3 SWAP2 POP POP JUMP JUMPDEST PUSH1 0x0 PUSH2 0x3731 PUSH1 0x32 DUP4 PUSH2 0x4236 JUMP JUMPDEST SWAP2 POP PUSH2 0x373C DUP3 PUSH2 0x46B6 JUMP JUMPDEST PUSH1 0x40 DUP3 ADD SWAP1 POP SWAP2 SWAP1 POP JUMP JUMPDEST PUSH1 0x0 PUSH2 0x3754 PUSH1 0x26 DUP4 PUSH2 0x4236 JUMP JUMPDEST SWAP2 POP PUSH2 0x375F DUP3 PUSH2 0x4705 JUMP JUMPDEST PUSH1 0x40 DUP3 ADD SWAP1 POP SWAP2 SWAP1 POP JUMP JUMPDEST PUSH1 0x0 PUSH2 0x3777 PUSH1 0x1C DUP4 PUSH2 0x4236 JUMP JUMPDEST SWAP2 POP PUSH2 0x3782 DUP3 PUSH2 0x4754 JUMP JUMPDEST PUSH1 0x20 DUP3 ADD SWAP1 POP SWAP2 SWAP1 POP JUMP JUMPDEST PUSH1 0x0 PUSH2 0x379A PUSH1 0x25 DUP4 PUSH2 0x4236 JUMP JUMPDEST SWAP2 POP PUSH2 0x37A5 DUP3 PUSH2 0x477D JUMP JUMPDEST PUSH1 0x40 DUP3 ADD SWAP1 POP SWAP2 SWAP1 POP JUMP JUMPDEST PUSH1 0x0 PUSH2 0x37BD PUSH1 0xD DUP4 PUSH2 0x4236 JUMP JUMPDEST SWAP2 POP PUSH2 0x37C8 DUP3 PUSH2 0x47CC JUMP JUMPDEST PUSH1 0x20 DUP3 ADD SWAP1 POP SWAP2 SWAP1 POP JUMP JUMPDEST PUSH1 0x0 PUSH2 0x37E0 PUSH1 0x1C DUP4 PUSH2 0x4236 JUMP JUMPDEST SWAP2 POP PUSH2 0x37EB DUP3 PUSH2 0x47F5 JUMP JUMPDEST PUSH1 0x20 DUP3 ADD SWAP1 POP SWAP2 SWAP1 POP JUMP JUMPDEST PUSH1 0x0 PUSH2 0x3803 PUSH1 0x2 DUP4 PUSH2 0x4247 JUMP JUMPDEST SWAP2 POP PUSH2 0x380E DUP3 PUSH2 0x481E JUMP JUMPDEST PUSH1 0x2 DUP3 ADD SWAP1 POP SWAP2 SWAP1 POP JUMP JUMPDEST PUSH1 0x0 PUSH2 0x3826 PUSH1 0x3 DUP4 PUSH2 0x4247 JUMP JUMPDEST SWAP2 POP PUSH2 0x3831 DUP3 PUSH2 0x4847 JUMP JUMPDEST PUSH1 0x3 DUP3 ADD SWAP1 POP SWAP2 SWAP1 POP JUMP JUMPDEST PUSH1 0x0 PUSH2 0x3849 PUSH1 0x24 DUP4 PUSH2 0x4236 JUMP JUMPDEST SWAP2 POP PUSH2 0x3854 DUP3 PUSH2 0x4870 JUMP JUMPDEST PUSH1 0x40 DUP3 ADD SWAP1 POP SWAP2 SWAP1 POP JUMP JUMPDEST PUSH1 0x0 PUSH2 0x386C PUSH1 0x19 DUP4 PUSH2 0x4236 JUMP JUMPDEST SWAP2 POP PUSH2 0x3877 DUP3 PUSH2 0x48BF JUMP JUMPDEST PUSH1 0x20 DUP3 ADD SWAP1 POP SWAP2 SWAP1 POP JUMP JUMPDEST PUSH1 0x0 PUSH2 0x388F PUSH1 0x2C DUP4 PUSH2 0x4236 JUMP JUMPDEST SWAP2 POP PUSH2 0x389A DUP3 PUSH2 0x48E8 JUMP JUMPDEST PUSH1 0x40 DUP3 ADD SWAP1 POP SWAP2 SWAP1 POP JUMP JUMPDEST PUSH1 0x0 PUSH2 0x38B2 PUSH1 0x25 DUP4 PUSH2 0x4236 JUMP JUMPDEST SWAP2 POP PUSH2 0x38BD DUP3 PUSH2 0x4937 JUMP JUMPDEST PUSH1 0x40 DUP3 ADD SWAP1 POP SWAP2 SWAP1 POP JUMP JUMPDEST PUSH1 0x0 PUSH2 0x38D5 PUSH1 0x38 DUP4 PUSH2 0x4236 JUMP JUMPDEST SWAP2 POP PUSH2 0x38E0 DUP3 PUSH2 0x4986 JUMP JUMPDEST PUSH1 0x40 DUP3 ADD SWAP1 POP SWAP2 SWAP1 POP JUMP JUMPDEST PUSH1 0x0 PUSH2 0x38F8 PUSH1 0x1 DUP4 PUSH2 0x4247 JUMP JUMPDEST SWAP2 POP PUSH2 0x3903 DUP3 PUSH2 0x49D5 JUMP JUMPDEST PUSH1 0x1 DUP3 ADD SWAP1 POP SWAP2 SWAP1 POP JUMP JUMPDEST PUSH1 0x0 PUSH2 0x391B PUSH1 0x2A DUP4 PUSH2 0x4236 JUMP JUMPDEST SWAP2 POP PUSH2 0x3926 DUP3 PUSH2 0x49FE JUMP JUMPDEST PUSH1 0x40 DUP3 ADD SWAP1 POP SWAP2 SWAP1 POP JUMP JUMPDEST PUSH1 0x0 PUSH2 0x393E PUSH1 0x29 DUP4 PUSH2 0x4236 JUMP JUMPDEST SWAP2 POP PUSH2 0x3949 DUP3 PUSH2 0x4A4D JUMP JUMPDEST PUSH1 0x40 DUP3 ADD SWAP1 POP SWAP2 SWAP1 POP JUMP JUMPDEST PUSH1 0x0 PUSH2 0x3961 PUSH1 0x2 DUP4 PUSH2 0x4247 JUMP JUMPDEST SWAP2 POP PUSH2 0x396C DUP3 PUSH2 0x4A9C JUMP JUMPDEST PUSH1 0x2 DUP3 ADD SWAP1 POP SWAP2 SWAP1 POP JUMP JUMPDEST PUSH1 0x0 PUSH2 0x3984 PUSH1 0xA DUP4 PUSH2 0x4247 JUMP JUMPDEST SWAP2 POP PUSH2 0x398F DUP3 PUSH2 0x4AC5 JUMP JUMPDEST PUSH1 0xA DUP3 ADD SWAP1 POP SWAP2 SWAP1 POP JUMP JUMPDEST PUSH1 0x0 PUSH2 0x39A7 PUSH1 0x20 DUP4 PUSH2 0x4236 JUMP JUMPDEST SWAP2 POP PUSH2 0x39B2 DUP3 PUSH2 0x4AEE JUMP JUMPDEST PUSH1 0x20 DUP3 ADD SWAP1 POP SWAP2 SWAP1 POP JUMP JUMPDEST PUSH1 0x0 PUSH2 0x39CA PUSH1 0x2C DUP4 PUSH2 0x4236 JUMP JUMPDEST SWAP2 POP PUSH2 0x39D5 DUP3 PUSH2 0x4B17 JUMP JUMPDEST PUSH1 0x40 DUP3 ADD SWAP1 POP SWAP2 SWAP1 POP JUMP JUMPDEST PUSH1 0x0 PUSH2 0x39ED PUSH1 0x20 DUP4 PUSH2 0x4236 JUMP JUMPDEST SWAP2 POP PUSH2 0x39F8 DUP3 PUSH2 0x4B66 JUMP JUMPDEST PUSH1 0x20 DUP3 ADD SWAP1 POP SWAP2 SWAP1 POP JUMP JUMPDEST PUSH1 0x0 PUSH2 0x3A10 PUSH1 0x21 DUP4 PUSH2 0x4236 JUMP JUMPDEST SWAP2 POP PUSH2 0x3A1B DUP3 PUSH2 0x4B8F JUMP JUMPDEST PUSH1 0x40 DUP3 ADD SWAP1 POP SWAP2 SWAP1 POP JUMP JUMPDEST PUSH1 0x0 PUSH2 0x3A33 PUSH1 0x27 DUP4 PUSH2 0x4247 JUMP JUMPDEST SWAP2 POP PUSH2 0x3A3E DUP3 PUSH2 0x4BDE JUMP JUMPDEST PUSH1 0x27 DUP3 ADD SWAP1 POP SWAP2 SWAP1 POP JUMP JUMPDEST PUSH1 0x0 PUSH2 0x3A56 PUSH1 0xA DUP4 PUSH2 0x4247 JUMP JUMPDEST SWAP2 POP PUSH2 0x3A61 DUP3 PUSH2 0x4C2D JUMP JUMPDEST PUSH1 0xA DUP3 ADD SWAP1 POP SWAP2 SWAP1 POP JUMP JUMPDEST PUSH1 0x0 PUSH2 0x3A79 PUSH1 0x21 DUP4 PUSH2 0x4236 JUMP JUMPDEST SWAP2 POP PUSH2 0x3A84 DUP3 PUSH2 0x4C56 JUMP JUMPDEST PUSH1 0x40 DUP3 ADD SWAP1 POP SWAP2 SWAP1 POP JUMP JUMPDEST PUSH1 0x0 PUSH2 0x3A9C PUSH1 0x4C DUP4 PUSH2 0x4236 JUMP JUMPDEST SWAP2 POP PUSH2 0x3AA7 DUP3 PUSH2 0x4CA5 JUMP JUMPDEST PUSH1 0x60 DUP3 ADD SWAP1 POP SWAP2 SWAP1 POP JUMP JUMPDEST PUSH1 0x0 PUSH2 0x3ABF PUSH1 0x2 DUP4 PUSH2 0x4247 JUMP JUMPDEST SWAP2 POP PUSH2 0x3ACA DUP3 PUSH2 0x4D1A JUMP JUMPDEST PUSH1 0x2 DUP3 ADD SWAP1 POP SWAP2 SWAP1 POP JUMP JUMPDEST PUSH1 0x0 PUSH2 0x3AE2 PUSH1 0x1D DUP4 PUSH2 0x4247 JUMP JUMPDEST SWAP2 POP PUSH2 0x3AED DUP3 PUSH2 0x4D43 JUMP JUMPDEST PUSH1 0x1D DUP3 ADD SWAP1 POP SWAP2 SWAP1 POP JUMP JUMPDEST PUSH1 0x0 PUSH2 0x3B05 PUSH1 0x31 DUP4 PUSH2 0x4236 JUMP JUMPDEST SWAP2 POP PUSH2 0x3B10 DUP3 PUSH2 0x4D6C JUMP JUMPDEST PUSH1 0x40 DUP3 ADD SWAP1 POP SWAP2 SWAP1 POP JUMP JUMPDEST PUSH1 0x0 PUSH2 0x3B28 PUSH1 0x1 DUP4 PUSH2 0x4247 JUMP JUMPDEST SWAP2 POP PUSH2 0x3B33 DUP3 PUSH2 0x4DBB JUMP JUMPDEST PUSH1 0x1 DUP3 ADD SWAP1 POP SWAP2 SWAP1 POP JUMP JUMPDEST PUSH1 0x0 PUSH2 0x3B4B PUSH1 0x1 DUP4 PUSH2 0x4247 JUMP JUMPDEST SWAP2 POP PUSH2 0x3B56 DUP3 PUSH2 0x4DE4 JUMP JUMPDEST PUSH1 0x1 DUP3 ADD SWAP1 POP SWAP2 SWAP1 POP JUMP JUMPDEST PUSH2 0x3B6A DUP2 PUSH2 0x442B JUMP JUMPDEST DUP3 MSTORE POP POP JUMP JUMPDEST PUSH2 0x3B79 DUP2 PUSH2 0x4435 JUMP JUMPDEST DUP3 MSTORE POP POP JUMP JUMPDEST PUSH1 0x0 PUSH2 0x3B8B DUP3 DUP5 PUSH2 0x3594 JUMP JUMPDEST PUSH1 0x1 DUP3 ADD SWAP2 POP DUP2 SWAP1 POP SWAP3 SWAP2 POP POP JUMP JUMPDEST PUSH1 0x0 PUSH2 0x3BA6 DUP3 DUP5 PUSH2 0x360A JUMP JUMPDEST SWAP2 POP DUP2 SWAP1 POP SWAP3 SWAP2 POP POP JUMP JUMPDEST PUSH1 0x0 PUSH2 0x3BBD DUP3 DUP6 PUSH2 0x360A JUMP JUMPDEST SWAP2 POP PUSH2 0x3BC9 DUP3 DUP5 PUSH2 0x356E JUMP JUMPDEST PUSH1 0x14 DUP3 ADD SWAP2 POP DUP2 SWAP1 POP SWAP4 SWAP3 POP POP POP JUMP JUMPDEST PUSH1 0x0 PUSH2 0x3BE5 DUP3 DUP6 PUSH2 0x360A JUMP JUMPDEST SWAP2 POP PUSH2 0x3BF1 DUP3 DUP5 PUSH2 0x360A JUMP JUMPDEST SWAP2 POP PUSH2 0x3BFC DUP3 PUSH2 0x3977 JUMP JUMPDEST SWAP2 POP DUP2 SWAP1 POP SWAP4 SWAP3 POP POP POP JUMP JUMPDEST PUSH1 0x0 PUSH2 0x3C14 DUP3 DUP7 PUSH2 0x360A JUMP JUMPDEST SWAP2 POP PUSH2 0x3C1F DUP3 PUSH2 0x3819 JUMP JUMPDEST SWAP2 POP PUSH2 0x3C2B DUP3 DUP6 PUSH2 0x3674 JUMP JUMPDEST SWAP2 POP PUSH2 0x3C36 DUP3 PUSH2 0x3AB2 JUMP JUMPDEST SWAP2 POP PUSH2 0x3C42 DUP3 DUP5 PUSH2 0x3674 JUMP JUMPDEST SWAP2 POP DUP2 SWAP1 POP SWAP5 SWAP4 POP POP POP POP JUMP JUMPDEST PUSH1 0x0 PUSH2 0x3C5A DUP3 PUSH2 0x37F6 JUMP JUMPDEST SWAP2 POP PUSH2 0x3C66 DUP3 DUP6 PUSH2 0x35BA JUMP JUMPDEST PUSH1 0x20 DUP3 ADD SWAP2 POP PUSH2 0x3C76 DUP3 DUP5 PUSH2 0x35BA JUMP JUMPDEST PUSH1 0x20 DUP3 ADD SWAP2 POP DUP2 SWAP1 POP SWAP4 SWAP3 POP POP POP JUMP JUMPDEST PUSH1 0x0 PUSH2 0x3C91 DUP3 PUSH2 0x38EB JUMP JUMPDEST SWAP2 POP DUP2 SWAP1 POP SWAP2 SWAP1 POP JUMP JUMPDEST PUSH1 0x0 PUSH2 0x3CA6 DUP3 PUSH2 0x3A49 JUMP JUMPDEST SWAP2 POP PUSH2 0x3CB2 DUP3 DUP6 PUSH2 0x36A5 JUMP JUMPDEST SWAP2 POP PUSH2 0x3CBD DUP3 PUSH2 0x3A26 JUMP JUMPDEST SWAP2 POP PUSH2 0x3CC9 DUP3 DUP5 PUSH2 0x3674 JUMP JUMPDEST SWAP2 POP PUSH2 0x3CD4 DUP3 PUSH2 0x3954 JUMP JUMPDEST SWAP2 POP DUP2 SWAP1 POP SWAP4 SWAP3 POP POP POP JUMP JUMPDEST PUSH1 0x0 PUSH2 0x3CEB DUP3 PUSH2 0x3AD5 JUMP JUMPDEST SWAP2 POP PUSH2 0x3CF7 DUP3 DUP5 PUSH2 0x3674 JUMP JUMPDEST SWAP2 POP DUP2 SWAP1 POP SWAP3 SWAP2 POP POP JUMP JUMPDEST PUSH1 0x0 PUSH2 0x3D0D DUP3 PUSH2 0x3B1B JUMP JUMPDEST SWAP2 POP DUP2 SWAP1 POP SWAP2 SWAP1 POP JUMP JUMPDEST PUSH1 0x0 PUSH2 0x3D22 DUP3 PUSH2 0x3B3E JUMP JUMPDEST SWAP2 POP DUP2 SWAP1 POP SWAP2 SWAP1 POP JUMP JUMPDEST PUSH1 0x0 PUSH1 0x20 DUP3 ADD SWAP1 POP PUSH2 0x3D41 PUSH1 0x0 DUP4 ADD DUP5 PUSH2 0x355F JUMP JUMPDEST SWAP3 SWAP2 POP POP JUMP JUMPDEST PUSH1 0x0 PUSH1 0x60 DUP3 ADD SWAP1 POP PUSH2 0x3D5C PUSH1 0x0 DUP4 ADD DUP7 PUSH2 0x355F JUMP JUMPDEST PUSH2 0x3D69 PUSH1 0x20 DUP4 ADD DUP6 PUSH2 0x3550 JUMP JUMPDEST DUP2 DUP2 SUB PUSH1 0x40 DUP4 ADD MSTORE PUSH2 0x3D7B DUP2 DUP5 PUSH2 0x35D1 JUMP JUMPDEST SWAP1 POP SWAP5 SWAP4 POP POP POP POP JUMP JUMPDEST PUSH1 0x0 PUSH1 0x80 DUP3 ADD SWAP1 POP PUSH2 0x3D9A PUSH1 0x0 DUP4 ADD DUP8 PUSH2 0x355F JUMP JUMPDEST PUSH2 0x3DA7 PUSH1 0x20 DUP4 ADD DUP7 PUSH2 0x355F JUMP JUMPDEST PUSH2 0x3DB4 PUSH1 0x40 DUP4 ADD DUP6 PUSH2 0x3B61 JUMP JUMPDEST DUP2 DUP2 SUB PUSH1 0x60 DUP4 ADD MSTORE PUSH2 0x3DC6 DUP2 DUP5 PUSH2 0x35D1 JUMP JUMPDEST SWAP1 POP SWAP6 SWAP5 POP POP POP POP POP JUMP JUMPDEST PUSH1 0x0 PUSH1 0x20 DUP3 ADD SWAP1 POP PUSH2 0x3DE6 PUSH1 0x0 DUP4 ADD DUP5 PUSH2 0x3585 JUMP JUMPDEST SWAP3 SWAP2 POP POP JUMP JUMPDEST PUSH1 0x0 PUSH1 0x40 DUP3 ADD SWAP1 POP PUSH2 0x3E01 PUSH1 0x0 DUP4 ADD DUP6 PUSH2 0x3585 JUMP JUMPDEST PUSH2 0x3E0E PUSH1 0x20 DUP4 ADD DUP5 PUSH2 0x3B61 JUMP JUMPDEST SWAP4 SWAP3 POP POP POP JUMP JUMPDEST PUSH1 0x0 PUSH1 0x20 DUP3 ADD SWAP1 POP PUSH2 0x3E2A PUSH1 0x0 DUP4 ADD DUP5 PUSH2 0x35AB JUMP JUMPDEST SWAP3 SWAP2 POP POP JUMP JUMPDEST PUSH1 0x0 PUSH1 0x80 DUP3 ADD SWAP1 POP PUSH2 0x3E45 PUSH1 0x0 DUP4 ADD DUP8 PUSH2 0x35AB JUMP JUMPDEST PUSH2 0x3E52 PUSH1 0x20 DUP4 ADD DUP7 PUSH2 0x3B61 JUMP JUMPDEST PUSH2 0x3E5F PUSH1 0x40 DUP4 ADD DUP6 PUSH2 0x355F JUMP JUMPDEST PUSH2 0x3E6C PUSH1 0x60 DUP4 ADD DUP5 PUSH2 0x35AB JUMP JUMPDEST SWAP6 SWAP5 POP POP POP POP POP JUMP JUMPDEST PUSH1 0x0 PUSH1 0x80 DUP3 ADD SWAP1 POP PUSH2 0x3E8A PUSH1 0x0 DUP4 ADD DUP8 PUSH2 0x35AB JUMP JUMPDEST PUSH2 0x3E97 PUSH1 0x20 DUP4 ADD DUP7 PUSH2 0x3B70 JUMP JUMPDEST PUSH2 0x3EA4 PUSH1 0x40 DUP4 ADD DUP6 PUSH2 0x35AB JUMP JUMPDEST PUSH2 0x3EB1 PUSH1 0x60 DUP4 ADD DUP5 PUSH2 0x35AB JUMP JUMPDEST SWAP6 SWAP5 POP POP POP POP POP JUMP JUMPDEST PUSH1 0x0 PUSH1 0x20 DUP3 ADD SWAP1 POP DUP2 DUP2 SUB PUSH1 0x0 DUP4 ADD MSTORE PUSH2 0x3ED4 DUP2 DUP5 PUSH2 0x35D1 JUMP JUMPDEST SWAP1 POP SWAP3 SWAP2 POP POP JUMP JUMPDEST PUSH1 0x0 PUSH1 0x20 DUP3 ADD SWAP1 POP DUP2 DUP2 SUB PUSH1 0x0 DUP4 ADD MSTORE PUSH2 0x3EF6 DUP2 DUP5 PUSH2 0x363B JUMP JUMPDEST SWAP1 POP SWAP3 SWAP2 POP POP JUMP JUMPDEST PUSH1 0x0 PUSH1 0x20 DUP3 ADD SWAP1 POP DUP2 DUP2 SUB PUSH1 0x0 DUP4 ADD MSTORE PUSH2 0x3F17 DUP2 PUSH2 0x3724 JUMP JUMPDEST SWAP1 POP SWAP2 SWAP1 POP JUMP JUMPDEST PUSH1 0x0 PUSH1 0x20 DUP3 ADD SWAP1 POP DUP2 DUP2 SUB PUSH1 0x0 DUP4 ADD MSTORE PUSH2 0x3F37 DUP2 PUSH2 0x3747 JUMP JUMPDEST SWAP1 POP SWAP2 SWAP1 POP JUMP JUMPDEST PUSH1 0x0 PUSH1 0x20 DUP3 ADD SWAP1 POP DUP2 DUP2 SUB PUSH1 0x0 DUP4 ADD MSTORE PUSH2 0x3F57 DUP2 PUSH2 0x376A JUMP JUMPDEST SWAP1 POP SWAP2 SWAP1 POP JUMP JUMPDEST PUSH1 0x0 PUSH1 0x20 DUP3 ADD SWAP1 POP DUP2 DUP2 SUB PUSH1 0x0 DUP4 ADD MSTORE PUSH2 0x3F77 DUP2 PUSH2 0x378D JUMP JUMPDEST SWAP1 POP SWAP2 SWAP1 POP JUMP JUMPDEST PUSH1 0x0 PUSH1 0x20 DUP3 ADD SWAP1 POP DUP2 DUP2 SUB PUSH1 0x0 DUP4 ADD MSTORE PUSH2 0x3F97 DUP2 PUSH2 0x37B0 JUMP JUMPDEST SWAP1 POP SWAP2 SWAP1 POP JUMP JUMPDEST PUSH1 0x0 PUSH1 0x20 DUP3 ADD SWAP1 POP DUP2 DUP2 SUB PUSH1 0x0 DUP4 ADD MSTORE PUSH2 0x3FB7 DUP2 PUSH2 0x37D3 JUMP JUMPDEST SWAP1 POP SWAP2 SWAP1 POP JUMP JUMPDEST PUSH1 0x0 PUSH1 0x20 DUP3 ADD SWAP1 POP DUP2 DUP2 SUB PUSH1 0x0 DUP4 ADD MSTORE PUSH2 0x3FD7 DUP2 PUSH2 0x383C JUMP JUMPDEST SWAP1 POP SWAP2 SWAP1 POP JUMP JUMPDEST PUSH1 0x0 PUSH1 0x20 DUP3 ADD SWAP1 POP DUP2 DUP2 SUB PUSH1 0x0 DUP4 ADD MSTORE PUSH2 0x3FF7 DUP2 PUSH2 0x385F JUMP JUMPDEST SWAP1 POP SWAP2 SWAP1 POP JUMP JUMPDEST PUSH1 0x0 PUSH1 0x20 DUP3 ADD SWAP1 POP DUP2 DUP2 SUB PUSH1 0x0 DUP4 ADD MSTORE PUSH2 0x4017 DUP2 PUSH2 0x3882 JUMP JUMPDEST SWAP1 POP SWAP2 SWAP1 POP JUMP JUMPDEST PUSH1 0x0 PUSH1 0x20 DUP3 ADD SWAP1 POP DUP2 DUP2 SUB PUSH1 0x0 DUP4 ADD MSTORE PUSH2 0x4037 DUP2 PUSH2 0x38A5 JUMP JUMPDEST SWAP1 POP SWAP2 SWAP1 POP JUMP JUMPDEST PUSH1 0x0 PUSH1 0x20 DUP3 ADD SWAP1 POP DUP2 DUP2 SUB PUSH1 0x0 DUP4 ADD MSTORE PUSH2 0x4057 DUP2 PUSH2 0x38C8 JUMP JUMPDEST SWAP1 POP SWAP2 SWAP1 POP JUMP JUMPDEST PUSH1 0x0 PUSH1 0x20 DUP3 ADD SWAP1 POP DUP2 DUP2 SUB PUSH1 0x0 DUP4 ADD MSTORE PUSH2 0x4077 DUP2 PUSH2 0x390E JUMP JUMPDEST SWAP1 POP SWAP2 SWAP1 POP JUMP JUMPDEST PUSH1 0x0 PUSH1 0x20 DUP3 ADD SWAP1 POP DUP2 DUP2 SUB PUSH1 0x0 DUP4 ADD MSTORE PUSH2 0x4097 DUP2 PUSH2 0x3931 JUMP JUMPDEST SWAP1 POP SWAP2 SWAP1 POP JUMP JUMPDEST PUSH1 0x0 PUSH1 0x20 DUP3 ADD SWAP1 POP DUP2 DUP2 SUB PUSH1 0x0 DUP4 ADD MSTORE PUSH2 0x40B7 DUP2 PUSH2 0x399A JUMP JUMPDEST SWAP1 POP SWAP2 SWAP1 POP JUMP JUMPDEST PUSH1 0x0 PUSH1 0x20 DUP3 ADD SWAP1 POP DUP2 DUP2 SUB PUSH1 0x0 DUP4 ADD MSTORE PUSH2 0x40D7 DUP2 PUSH2 0x39BD JUMP JUMPDEST SWAP1 POP SWAP2 SWAP1 POP JUMP JUMPDEST PUSH1 0x0 PUSH1 0x20 DUP3 ADD SWAP1 POP DUP2 DUP2 SUB PUSH1 0x0 DUP4 ADD MSTORE PUSH2 0x40F7 DUP2 PUSH2 0x39E0 JUMP JUMPDEST SWAP1 POP SWAP2 SWAP1 POP JUMP JUMPDEST PUSH1 0x0 PUSH1 0x20 DUP3 ADD SWAP1 POP DUP2 DUP2 SUB PUSH1 0x0 DUP4 ADD MSTORE PUSH2 0x4117 DUP2 PUSH2 0x3A03 JUMP JUMPDEST SWAP1 POP SWAP2 SWAP1 POP JUMP JUMPDEST PUSH1 0x0 PUSH1 0x20 DUP3 ADD SWAP1 POP DUP2 DUP2 SUB PUSH1 0x0 DUP4 ADD MSTORE PUSH2 0x4137 DUP2 PUSH2 0x3A6C JUMP JUMPDEST SWAP1 POP SWAP2 SWAP1 POP JUMP JUMPDEST PUSH1 0x0 PUSH1 0x20 DUP3 ADD SWAP1 POP DUP2 DUP2 SUB PUSH1 0x0 DUP4 ADD MSTORE PUSH2 0x4157 DUP2 PUSH2 0x3A8F JUMP JUMPDEST SWAP1 POP SWAP2 SWAP1 POP JUMP JUMPDEST PUSH1 0x0 PUSH1 0x20 DUP3 ADD SWAP1 POP DUP2 DUP2 SUB PUSH1 0x0 DUP4 ADD MSTORE PUSH2 0x4177 DUP2 PUSH2 0x3AF8 JUMP JUMPDEST SWAP1 POP SWAP2 SWAP1 POP JUMP JUMPDEST PUSH1 0x0 PUSH1 0x20 DUP3 ADD SWAP1 POP PUSH2 0x4193 PUSH1 0x0 DUP4 ADD DUP5 PUSH2 0x3B61 JUMP JUMPDEST SWAP3 SWAP2 POP POP JUMP JUMPDEST PUSH1 0x0 PUSH2 0x41A3 PUSH2 0x41B4 JUMP JUMPDEST SWAP1 POP PUSH2 0x41AF DUP3 DUP3 PUSH2 0x44B6 JUMP JUMPDEST SWAP2 SWAP1 POP JUMP JUMPDEST PUSH1 0x0 PUSH1 0x40 MLOAD SWAP1 POP SWAP1 JUMP JUMPDEST PUSH1 0x0 PUSH8 0xFFFFFFFFFFFFFFFF DUP3 GT ISZERO PUSH2 0x41D9 JUMPI PUSH2 0x41D8 PUSH2 0x4655 JUMP JUMPDEST JUMPDEST PUSH2 0x41E2 DUP3 PUSH2 0x4698 JUMP JUMPDEST SWAP1 POP PUSH1 0x20 DUP2 ADD SWAP1 POP SWAP2 SWAP1 POP JUMP JUMPDEST PUSH1 0x0 DUP2 SWAP1 POP DUP2 PUSH1 0x0 MSTORE PUSH1 0x20 PUSH1 0x0 KECCAK256 SWAP1 POP SWAP2 SWAP1 POP JUMP JUMPDEST PUSH1 0x0 DUP2 MLOAD SWAP1 POP SWAP2 SWAP1 POP JUMP JUMPDEST PUSH1 0x0 DUP2 MLOAD SWAP1 POP SWAP2 SWAP1 POP JUMP JUMPDEST PUSH1 0x0 DUP3 DUP3 MSTORE PUSH1 0x20 DUP3 ADD SWAP1 POP SWAP3 SWAP2 POP POP JUMP JUMPDEST PUSH1 0x0 DUP2 SWAP1 POP SWAP3 SWAP2 POP POP JUMP JUMPDEST PUSH1 0x0 DUP3 DUP3 MSTORE PUSH1 0x20 DUP3 ADD SWAP1 POP SWAP3 SWAP2 POP POP JUMP JUMPDEST PUSH1 0x0 DUP2 SWAP1 POP SWAP3 SWAP2 POP POP JUMP JUMPDEST PUSH1 0x0 PUSH2 0x425D DUP3 PUSH2 0x442B JUMP JUMPDEST SWAP2 POP PUSH2 0x4268 DUP4 PUSH2 0x442B JUMP JUMPDEST SWAP3 POP DUP3 PUSH32 0xFFFFFFFFFFFFFFFFFFFFFFFFFFFFFFFFFFFFFFFFFFFFFFFFFFFFFFFFFFFFFFFF SUB DUP3 GT ISZERO PUSH2 0x429D JUMPI PUSH2 0x429C PUSH2 0x4599 JUMP JUMPDEST JUMPDEST DUP3 DUP3 ADD SWAP1 POP SWAP3 SWAP2 POP POP JUMP JUMPDEST PUSH1 0x0 PUSH2 0x42B3 DUP3 PUSH2 0x442B JUMP JUMPDEST SWAP2 POP PUSH2 0x42BE DUP4 PUSH2 0x442B JUMP JUMPDEST SWAP3 POP DUP3 PUSH2 0x42CE JUMPI PUSH2 0x42CD PUSH2 0x45C8 JUMP JUMPDEST JUMPDEST DUP3 DUP3 DIV SWAP1 POP SWAP3 SWAP2 POP POP JUMP JUMPDEST PUSH1 0x0 PUSH2 0x42E4 DUP3 PUSH2 0x442B JUMP JUMPDEST SWAP2 POP PUSH2 0x42EF DUP4 PUSH2 0x442B JUMP JUMPDEST SWAP3 POP DUP2 PUSH32 0xFFFFFFFFFFFFFFFFFFFFFFFFFFFFFFFFFFFFFFFFFFFFFFFFFFFFFFFFFFFFFFFF DIV DUP4 GT DUP3 ISZERO ISZERO AND ISZERO PUSH2 0x4328 JUMPI PUSH2 0x4327 PUSH2 0x4599 JUMP JUMPDEST JUMPDEST DUP3 DUP3 MUL SWAP1 POP SWAP3 SWAP2 POP POP JUMP JUMPDEST PUSH1 0x0 PUSH2 0x433E DUP3 PUSH2 0x442B JUMP JUMPDEST SWAP2 POP PUSH2 0x4349 DUP4 PUSH2 0x442B JUMP JUMPDEST SWAP3 POP DUP3 DUP3 LT ISZERO PUSH2 0x435C JUMPI PUSH2 0x435B PUSH2 0x4599 JUMP JUMPDEST JUMPDEST DUP3 DUP3 SUB SWAP1 POP SWAP3 SWAP2 POP POP JUMP JUMPDEST PUSH1 0x0 PUSH2 0x4372 DUP3 PUSH2 0x440B JUMP JUMPDEST SWAP1 POP SWAP2 SWAP1 POP JUMP JUMPDEST PUSH1 0x0 PUSH2 0x4384 DUP3 PUSH2 0x440B JUMP JUMPDEST SWAP1 POP SWAP2 SWAP1 POP JUMP JUMPDEST PUSH1 0x0 DUP2 ISZERO ISZERO SWAP1 POP SWAP2 SWAP1 POP JUMP JUMPDEST PUSH1 0x0 PUSH32 0xFF00000000000000000000000000000000000000000000000000000000000000 DUP3 AND SWAP1 POP SWAP2 SWAP1 POP JUMP JUMPDEST PUSH1 0x0 DUP2 SWAP1 POP SWAP2 SWAP1 POP JUMP JUMPDEST PUSH1 0x0 PUSH32 0xFFFFFFFF00000000000000000000000000000000000000000000000000000000 DUP3 AND SWAP1 POP SWAP2 SWAP1 POP JUMP JUMPDEST PUSH1 0x0 PUSH2 0x4404 DUP3 PUSH2 0x4367 JUMP JUMPDEST SWAP1 POP SWAP2 SWAP1 POP JUMP JUMPDEST PUSH1 0x0 PUSH20 0xFFFFFFFFFFFFFFFFFFFFFFFFFFFFFFFFFFFFFFFF DUP3 AND SWAP1 POP SWAP2 SWAP1 POP JUMP JUMPDEST PUSH1 0x0 DUP2 SWAP1 POP SWAP2 SWAP1 POP JUMP JUMPDEST PUSH1 0x0 PUSH1 0xFF DUP3 AND SWAP1 POP SWAP2 SWAP1 POP JUMP JUMPDEST DUP3 DUP2 DUP4 CALLDATACOPY PUSH1 0x0 DUP4 DUP4 ADD MSTORE POP POP POP JUMP JUMPDEST PUSH1 0x0 JUMPDEST DUP4 DUP2 LT ISZERO PUSH2 0x446F JUMPI DUP1 DUP3 ADD MLOAD DUP2 DUP5 ADD MSTORE PUSH1 0x20 DUP2 ADD SWAP1 POP PUSH2 0x4454 JUMP JUMPDEST DUP4 DUP2 GT ISZERO PUSH2 0x447E JUMPI PUSH1 0x0 DUP5 DUP5 ADD MSTORE JUMPDEST POP POP POP POP JUMP JUMPDEST PUSH1 0x0 PUSH1 0x2 DUP3 DIV SWAP1 POP PUSH1 0x1 DUP3 AND DUP1 PUSH2 0x449C JUMPI PUSH1 0x7F DUP3 AND SWAP2 POP JUMPDEST PUSH1 0x20 DUP3 LT DUP2 EQ ISZERO PUSH2 0x44B0 JUMPI PUSH2 0x44AF PUSH2 0x45F7 JUMP JUMPDEST JUMPDEST POP SWAP2 SWAP1 POP JUMP JUMPDEST PUSH2 0x44BF DUP3 PUSH2 0x4698 JUMP JUMPDEST DUP2 ADD DUP2 DUP2 LT PUSH8 0xFFFFFFFFFFFFFFFF DUP3 GT OR ISZERO PUSH2 0x44DE JUMPI PUSH2 0x44DD PUSH2 0x4655 JUMP JUMPDEST JUMPDEST DUP1 PUSH1 0x40 MSTORE POP POP POP JUMP JUMPDEST PUSH1 0x0 PUSH2 0x44F2 DUP3 PUSH2 0x442B JUMP JUMPDEST SWAP2 POP PUSH32 0xFFFFFFFFFFFFFFFFFFFFFFFFFFFFFFFFFFFFFFFFFFFFFFFFFFFFFFFFFFFFFFFF DUP3 EQ ISZERO PUSH2 0x4525 JUMPI PUSH2 0x4524 PUSH2 0x4599 JUMP JUMPDEST JUMPDEST PUSH1 0x1 DUP3 ADD SWAP1 POP SWAP2 SWAP1 POP JUMP JUMPDEST PUSH1 0x0 PUSH2 0x453B DUP3 PUSH2 0x4556 JUMP JUMPDEST SWAP1 POP SWAP2 SWAP1 POP JUMP JUMPDEST PUSH1 0x0 DUP2 SWAP1 POP SWAP2 SWAP1 POP JUMP JUMPDEST PUSH1 0x0 DUP2 SWAP1 POP SWAP2 SWAP1 POP JUMP JUMPDEST PUSH1 0x0 PUSH2 0x4561 DUP3 PUSH2 0x46A9 JUMP JUMPDEST SWAP1 POP SWAP2 SWAP1 POP JUMP JUMPDEST PUSH1 0x0 PUSH2 0x4573 DUP3 PUSH2 0x442B JUMP JUMPDEST SWAP2 POP PUSH2 0x457E DUP4 PUSH2 0x442B JUMP JUMPDEST SWAP3 POP DUP3 PUSH2 0x458E JUMPI PUSH2 0x458D PUSH2 0x45C8 JUMP JUMPDEST JUMPDEST DUP3 DUP3 MOD SWAP1 POP SWAP3 SWAP2 POP POP JUMP JUMPDEST PUSH32 0x4E487B7100000000000000000000000000000000000000000000000000000000 PUSH1 0x0 MSTORE PUSH1 0x11 PUSH1 0x4 MSTORE PUSH1 0x24 PUSH1 0x0 REVERT JUMPDEST PUSH32 0x4E487B7100000000000000000000000000000000000000000000000000000000 PUSH1 0x0 MSTORE PUSH1 0x12 PUSH1 0x4 MSTORE PUSH1 0x24 PUSH1 0x0 REVERT JUMPDEST PUSH32 0x4E487B7100000000000000000000000000000000000000000000000000000000 PUSH1 0x0 MSTORE PUSH1 0x22 PUSH1 0x4 MSTORE PUSH1 0x24 PUSH1 0x0 REVERT JUMPDEST PUSH32 0x4E487B7100000000000000000000000000000000000000000000000000000000 PUSH1 0x0 MSTORE PUSH1 0x32 PUSH1 0x4 MSTORE PUSH1 0x24 PUSH1 0x0 REVERT JUMPDEST PUSH32 0x4E487B7100000000000000000000000000000000000000000000000000000000 PUSH1 0x0 MSTORE PUSH1 0x41 PUSH1 0x4 MSTORE PUSH1 0x24 PUSH1 0x0 REVERT JUMPDEST PUSH1 0x0 DUP1 REVERT JUMPDEST PUSH1 0x0 DUP1 REVERT JUMPDEST PUSH1 0x0 DUP1 REVERT JUMPDEST PUSH1 0x0 DUP1 REVERT JUMPDEST PUSH1 0x0 PUSH1 0x1F NOT PUSH1 0x1F DUP4 ADD AND SWAP1 POP SWAP2 SWAP1 POP JUMP JUMPDEST PUSH1 0x0 DUP2 PUSH1 0x60 SHL SWAP1 POP SWAP2 SWAP1 POP JUMP JUMPDEST PUSH32 0x4552433732313A207472616E7366657220746F206E6F6E204552433732315265 PUSH1 0x0 DUP3 ADD MSTORE PUSH32 0x63656976657220696D706C656D656E7465720000000000000000000000000000 PUSH1 0x20 DUP3 ADD MSTORE POP JUMP JUMPDEST PUSH32 0x4F776E61626C653A206E6577206F776E657220697320746865207A65726F2061 PUSH1 0x0 DUP3 ADD MSTORE PUSH32 0x6464726573730000000000000000000000000000000000000000000000000000 PUSH1 0x20 DUP3 ADD MSTORE POP JUMP JUMPDEST PUSH32 0x46756E6374696F6E2063616C6C206E6F74207375636365737366756C00000000 PUSH1 0x0 DUP3 ADD MSTORE POP JUMP JUMPDEST PUSH32 0x4552433732313A207472616E736665722066726F6D20696E636F727265637420 PUSH1 0x0 DUP3 ADD MSTORE PUSH32 0x6F776E6572000000000000000000000000000000000000000000000000000000 PUSH1 0x20 DUP3 ADD MSTORE POP JUMP JUMPDEST PUSH32 0x43686F6F7365205F703E3D302E00000000000000000000000000000000000000 PUSH1 0x0 DUP3 ADD MSTORE POP JUMP JUMPDEST PUSH32 0x4552433732313A20746F6B656E20616C7265616479206D696E74656400000000 PUSH1 0x0 DUP3 ADD MSTORE POP JUMP JUMPDEST PUSH32 0x1901000000000000000000000000000000000000000000000000000000000000 PUSH1 0x0 DUP3 ADD MSTORE POP JUMP JUMPDEST PUSH32 0x206C200000000000000000000000000000000000000000000000000000000000 PUSH1 0x0 DUP3 ADD MSTORE POP JUMP JUMPDEST PUSH32 0x4552433732313A207472616E7366657220746F20746865207A65726F20616464 PUSH1 0x0 DUP3 ADD MSTORE PUSH32 0x7265737300000000000000000000000000000000000000000000000000000000 PUSH1 0x20 DUP3 ADD MSTORE POP JUMP JUMPDEST PUSH32 0x4552433732313A20617070726F766520746F2063616C6C657200000000000000 PUSH1 0x0 DUP3 ADD MSTORE POP JUMP JUMPDEST PUSH32 0x4552433732313A206F70657261746F7220717565727920666F72206E6F6E6578 PUSH1 0x0 DUP3 ADD MSTORE PUSH32 0x697374656E7420746F6B656E0000000000000000000000000000000000000000 PUSH1 0x20 DUP3 ADD MSTORE POP JUMP JUMPDEST PUSH32 0x4E61746976654D6574615472616E73616374696F6E3A20494E56414C49445F53 PUSH1 0x0 DUP3 ADD MSTORE PUSH32 0x49474E4552000000000000000000000000000000000000000000000000000000 PUSH1 0x20 DUP3 ADD MSTORE POP JUMP JUMPDEST PUSH32 0x4552433732313A20617070726F76652063616C6C6572206973206E6F74206F77 PUSH1 0x0 DUP3 ADD MSTORE PUSH32 0x6E6572206E6F7220617070726F76656420666F7220616C6C0000000000000000 PUSH1 0x20 DUP3 ADD MSTORE POP JUMP JUMPDEST PUSH32 0x2B00000000000000000000000000000000000000000000000000000000000000 PUSH1 0x0 DUP3 ADD MSTORE POP JUMP JUMPDEST PUSH32 0x4552433732313A2062616C616E636520717565727920666F7220746865207A65 PUSH1 0x0 DUP3 ADD MSTORE PUSH32 0x726F206164647265737300000000000000000000000000000000000000000000 PUSH1 0x20 DUP3 ADD MSTORE POP JUMP JUMPDEST PUSH32 0x4552433732313A206F776E657220717565727920666F72206E6F6E6578697374 PUSH1 0x0 DUP3 ADD MSTORE PUSH32 0x656E7420746F6B656E0000000000000000000000000000000000000000000000 PUSH1 0x20 DUP3 ADD MSTORE POP JUMP JUMPDEST PUSH32 0x227D000000000000000000000000000000000000000000000000000000000000 PUSH1 0x0 DUP3 ADD MSTORE POP JUMP JUMPDEST PUSH32 0x22202F3E3C2F7376673E00000000000000000000000000000000000000000000 PUSH1 0x0 DUP3 ADD MSTORE POP JUMP JUMPDEST PUSH32 0x4552433732313A206D696E7420746F20746865207A65726F2061646472657373 PUSH1 0x0 DUP3 ADD MSTORE POP JUMP JUMPDEST PUSH32 0x4552433732313A20617070726F76656420717565727920666F72206E6F6E6578 PUSH1 0x0 DUP3 ADD MSTORE PUSH32 0x697374656E7420746F6B656E0000000000000000000000000000000000000000 PUSH1 0x20 DUP3 ADD MSTORE POP JUMP JUMPDEST PUSH32 0x4F776E61626C653A2063616C6C6572206973206E6F7420746865206F776E6572 PUSH1 0x0 DUP3 ADD MSTORE POP JUMP JUMPDEST PUSH32 0x5369676E657220616E64207369676E617475726520646F206E6F74206D617463 PUSH1 0x0 DUP3 ADD MSTORE PUSH32 0x6800000000000000000000000000000000000000000000000000000000000000 PUSH1 0x20 DUP3 ADD MSTORE POP JUMP JUMPDEST PUSH32 0x222C2022696D616765223A2022646174613A696D6167652F7376672B786D6C3B PUSH1 0x0 DUP3 ADD MSTORE PUSH32 0x6261736536342C00000000000000000000000000000000000000000000000000 PUSH1 0x20 DUP3 ADD MSTORE POP JUMP JUMPDEST PUSH32 0x7B226E616D65223A202200000000000000000000000000000000000000000000 PUSH1 0x0 DUP3 ADD MSTORE POP JUMP JUMPDEST PUSH32 0x4552433732313A20617070726F76616C20746F2063757272656E74206F776E65 PUSH1 0x0 DUP3 ADD MSTORE PUSH32 0x7200000000000000000000000000000000000000000000000000000000000000 PUSH1 0x20 DUP3 ADD MSTORE POP JUMP JUMPDEST PUSH32 0x506C656173652063686F6F7365205F72616469616E74206265747765656E2030 PUSH1 0x0 DUP3 ADD MSTORE PUSH32 0x20616E6420322A70693D3632383331383533303731382E204E6F74653A207261 PUSH1 0x20 DUP3 ADD MSTORE PUSH32 0x6469616E742A31305E31312E0000000000000000000000000000000000000000 PUSH1 0x40 DUP3 ADD MSTORE POP JUMP JUMPDEST PUSH32 0x2C20000000000000000000000000000000000000000000000000000000000000 PUSH1 0x0 DUP3 ADD MSTORE POP JUMP JUMPDEST PUSH32 0x646174613A6170706C69636174696F6E2F6A736F6E3B6261736536342C000000 PUSH1 0x0 DUP3 ADD MSTORE POP JUMP JUMPDEST PUSH32 0x4552433732313A207472616E736665722063616C6C6572206973206E6F74206F PUSH1 0x0 DUP3 ADD MSTORE PUSH32 0x776E6572206E6F7220617070726F766564000000000000000000000000000000 PUSH1 0x20 DUP3 ADD MSTORE POP JUMP JUMPDEST PUSH32 0x2D00000000000000000000000000000000000000000000000000000000000000 PUSH1 0x0 DUP3 ADD MSTORE POP JUMP JUMPDEST PUSH32 0x4600000000000000000000000000000000000000000000000000000000000000 PUSH1 0x0 DUP3 ADD MSTORE POP JUMP JUMPDEST PUSH2 0x4E16 DUP2 PUSH2 0x4367 JUMP JUMPDEST DUP2 EQ PUSH2 0x4E21 JUMPI PUSH1 0x0 DUP1 REVERT JUMPDEST POP JUMP JUMPDEST PUSH2 0x4E2D DUP2 PUSH2 0x438B JUMP JUMPDEST DUP2 EQ PUSH2 0x4E38 JUMPI PUSH1 0x0 DUP1 REVERT JUMPDEST POP JUMP JUMPDEST PUSH2 0x4E44 DUP2 PUSH2 0x43C3 JUMP JUMPDEST DUP2 EQ PUSH2 0x4E4F JUMPI PUSH1 0x0 DUP1 REVERT JUMPDEST POP JUMP JUMPDEST PUSH2 0x4E5B DUP2 PUSH2 0x43CD JUMP JUMPDEST DUP2 EQ PUSH2 0x4E66 JUMPI PUSH1 0x0 DUP1 REVERT JUMPDEST POP JUMP JUMPDEST PUSH2 0x4E72 DUP2 PUSH2 0x43F9 JUMP JUMPDEST DUP2 EQ PUSH2 0x4E7D JUMPI PUSH1 0x0 DUP1 REVERT JUMPDEST POP JUMP JUMPDEST PUSH2 0x4E89 DUP2 PUSH2 0x442B JUMP JUMPDEST DUP2 EQ PUSH2 0x4E94 JUMPI PUSH1 0x0 DUP1 REVERT JUMPDEST POP JUMP JUMPDEST PUSH2 0x4EA0 DUP2 PUSH2 0x4435 JUMP JUMPDEST DUP2 EQ PUSH2 0x4EAB JUMPI PUSH1 0x0 DUP1 REVERT JUMPDEST POP JUMP INVALID EXTCODECOPY PUSH20 0x76672076696577426F783D223020302031303020 BALANCE ADDRESS ADDRESS 0x22 KECCAK256 PUSH25 0x6D6C6E733D22687474703A2F2F7777772E77332E6F72672F32 ADDRESS ADDRESS ADDRESS 0x2F PUSH20 0x7667223E3C706174682066696C6C3D226E6F6E65 0x22 KECCAK256 PUSH20 0x74726F6B653D227265642220643D224D2035302C CALLDATALOAD ADDRESS 0x4D PUSH6 0x74615472616E PUSH20 0x616374696F6E2875696E74323536206E6F6E6365 0x2C PUSH2 0x6464 PUSH19 0x6573732066726F6D2C62797465732066756E63 PUSH21 0x696F6E5369676E6174757265294142434445464748 0x49 0x4A 0x4B 0x4C 0x4D 0x4E 0x4F POP MLOAD MSTORE MSTORE8 SLOAD SSTORE JUMP JUMPI PC MSIZE GAS PUSH2 0x6263 PUSH5 0x6566676869 PUSH11 0x6B6C6D6E6F707172737475 PUSH23 0x7778797A303132333435363738392B2FA2646970667358 0x22 SLT KECCAK256 PUSH16 0x514FDC0A15606A2F7A936FE416BD0EEF DUP11 0xD1 0x27 0xA5 0xED 0xE PUSH21 0xAFDFCB066A1372D664736F6C634300080700334549 POP CALLDATACOPY BALANCE ORIGIN DIFFICULTY PUSH16 0x6D61696E28737472696E67206E616D65 0x2C PUSH20 0x7472696E672076657273696F6E2C616464726573 PUSH20 0x20766572696679696E67436F6E74726163742C62 PUSH26 0x74657333322073616C7429000000000000000000000000000000 "
		},
		"gasEstimates": {
			"creation": {
				"codeDepositCost": "4086000",
				"executionCost": "infinite",
				"totalCost": "infinite"
			},
			"external": {
				"ERC712_VERSION()": "infinite",
				"approve(address,uint256)": "infinite",
				"balanceOf(address)": "2924",
				"burn(uint256)": "infinite",
				"cos(uint256)": "infinite",
				"counter()": "2497",
				"createSVG(uint256)": "infinite",
				"executeMetaTransaction(address,bytes,bytes32,bytes32,uint8)": "infinite",
				"getApproved(uint256)": "5251",
				"getChainId()": "394",
				"getDomainSeperator()": "2505",
				"getNonce(address)": "2953",
				"index2degree(uint256,uint256)": "infinite",
				"isApprovedForAll(address,address)": "infinite",
				"mint()": "infinite",
				"mintTo(address)": "infinite",
				"name()": "infinite",
				"owner()": "2633",
				"ownerOf(uint256)": "3067",
				"renounceOwnership()": "infinite",
				"safeTransferFrom(address,address,uint256)": "infinite",
				"safeTransferFrom(address,address,uint256,bytes)": "infinite",
				"setApprovalForAll(address,bool)": "infinite",
				"sin(uint256)": "infinite",
				"supportsInterface(bytes4)": "820",
				"symbol()": "infinite",
				"tokenURI(uint256)": "infinite",
				"totalSupply()": "infinite",
				"transferFrom(address,address,uint256)": "infinite",
				"transferOwnership(address)": "infinite"
			},
			"internal": {
				"_index2degree(string memory,uint256,uint256)": "infinite"
			}
		},
		"methodIdentifiers": {
			"ERC712_VERSION()": "0f7e5970",
			"approve(address,uint256)": "095ea7b3",
			"balanceOf(address)": "70a08231",
			"burn(uint256)": "42966c68",
			"cos(uint256)": "a58b00ba",
			"counter()": "61bc221a",
			"createSVG(uint256)": "4e4007f0",
			"executeMetaTransaction(address,bytes,bytes32,bytes32,uint8)": "0c53c51c",
			"getApproved(uint256)": "081812fc",
			"getChainId()": "3408e470",
			"getDomainSeperator()": "20379ee5",
			"getNonce(address)": "2d0335ab",
			"index2degree(uint256,uint256)": "3dd0a4cb",
			"isApprovedForAll(address,address)": "e985e9c5",
			"mint()": "1249c58b",
			"mintTo(address)": "755edd17",
			"name()": "06fdde03",
			"owner()": "8da5cb5b",
			"ownerOf(uint256)": "6352211e",
			"renounceOwnership()": "715018a6",
			"safeTransferFrom(address,address,uint256)": "42842e0e",
			"safeTransferFrom(address,address,uint256,bytes)": "b88d4fde",
			"setApprovalForAll(address,bool)": "a22cb465",
			"sin(uint256)": "cb5cc109",
			"supportsInterface(bytes4)": "01ffc9a7",
			"symbol()": "95d89b41",
			"tokenURI(uint256)": "c87b56dd",
			"totalSupply()": "18160ddd",
			"transferFrom(address,address,uint256)": "23b872dd",
			"transferOwnership(address)": "f2fde38b"
		}
	},
	"abi": [
		{
			"inputs": [],
			"stateMutability": "nonpayable",
			"type": "constructor"
		},
		{
			"anonymous": false,
			"inputs": [
				{
					"indexed": true,
					"internalType": "address",
					"name": "owner",
					"type": "address"
				},
				{
					"indexed": true,
					"internalType": "address",
					"name": "approved",
					"type": "address"
				},
				{
					"indexed": true,
					"internalType": "uint256",
					"name": "tokenId",
					"type": "uint256"
				}
			],
			"name": "Approval",
			"type": "event"
		},
		{
			"anonymous": false,
			"inputs": [
				{
					"indexed": true,
					"internalType": "address",
					"name": "owner",
					"type": "address"
				},
				{
					"indexed": true,
					"internalType": "address",
					"name": "operator",
					"type": "address"
				},
				{
					"indexed": false,
					"internalType": "bool",
					"name": "approved",
					"type": "bool"
				}
			],
			"name": "ApprovalForAll",
			"type": "event"
		},
		{
			"anonymous": false,
			"inputs": [
				{
					"indexed": false,
					"internalType": "address",
					"name": "userAddress",
					"type": "address"
				},
				{
					"indexed": false,
					"internalType": "address payable",
					"name": "relayerAddress",
					"type": "address"
				},
				{
					"indexed": false,
					"internalType": "bytes",
					"name": "functionSignature",
					"type": "bytes"
				}
			],
			"name": "MetaTransactionExecuted",
			"type": "event"
		},
		{
			"anonymous": false,
			"inputs": [
				{
					"indexed": true,
					"internalType": "address",
					"name": "previousOwner",
					"type": "address"
				},
				{
					"indexed": true,
					"internalType": "address",
					"name": "newOwner",
					"type": "address"
				}
			],
			"name": "OwnershipTransferred",
			"type": "event"
		},
		{
			"anonymous": false,
			"inputs": [
				{
					"indexed": true,
					"internalType": "address",
					"name": "from",
					"type": "address"
				},
				{
					"indexed": true,
					"internalType": "address",
					"name": "to",
					"type": "address"
				},
				{
					"indexed": true,
					"internalType": "uint256",
					"name": "tokenId",
					"type": "uint256"
				}
			],
			"name": "Transfer",
			"type": "event"
		},
		{
			"inputs": [],
			"name": "ERC712_VERSION",
			"outputs": [
				{
					"internalType": "string",
					"name": "",
					"type": "string"
				}
			],
			"stateMutability": "view",
			"type": "function"
		},
		{
			"inputs": [
				{
					"internalType": "address",
					"name": "to",
					"type": "address"
				},
				{
					"internalType": "uint256",
					"name": "tokenId",
					"type": "uint256"
				}
			],
			"name": "approve",
			"outputs": [],
			"stateMutability": "nonpayable",
			"type": "function"
		},
		{
			"inputs": [
				{
					"internalType": "address",
					"name": "owner",
					"type": "address"
				}
			],
			"name": "balanceOf",
			"outputs": [
				{
					"internalType": "uint256",
					"name": "",
					"type": "uint256"
				}
			],
			"stateMutability": "view",
			"type": "function"
		},
		{
			"inputs": [
				{
					"internalType": "uint256",
					"name": "tokenId",
					"type": "uint256"
				}
			],
			"name": "burn",
			"outputs": [],
			"stateMutability": "nonpayable",
			"type": "function"
		},
		{
			"inputs": [
				{
					"internalType": "uint256",
					"name": "_radiant",
					"type": "uint256"
				}
			],
			"name": "cos",
			"outputs": [
				{
					"internalType": "bool",
					"name": "_sign",
					"type": "bool"
				},
				{
					"internalType": "uint256",
					"name": "_output",
					"type": "uint256"
				}
			],
			"stateMutability": "view",
			"type": "function"
		},
		{
			"inputs": [],
			"name": "counter",
			"outputs": [
				{
					"internalType": "uint256",
					"name": "",
					"type": "uint256"
				}
			],
			"stateMutability": "view",
			"type": "function"
		},
		{
			"inputs": [
				{
					"internalType": "uint256",
					"name": "tokenId",
					"type": "uint256"
				}
			],
			"name": "createSVG",
			"outputs": [
				{
					"internalType": "bytes",
					"name": "svg",
					"type": "bytes"
				}
			],
			"stateMutability": "view",
			"type": "function"
		},
		{
			"inputs": [
				{
					"internalType": "address",
					"name": "userAddress",
					"type": "address"
				},
				{
					"internalType": "bytes",
					"name": "functionSignature",
					"type": "bytes"
				},
				{
					"internalType": "bytes32",
					"name": "sigR",
					"type": "bytes32"
				},
				{
					"internalType": "bytes32",
					"name": "sigS",
					"type": "bytes32"
				},
				{
					"internalType": "uint8",
					"name": "sigV",
					"type": "uint8"
				}
			],
			"name": "executeMetaTransaction",
			"outputs": [
				{
					"internalType": "bytes",
					"name": "",
					"type": "bytes"
				}
			],
			"stateMutability": "payable",
			"type": "function"
		},
		{
			"inputs": [
				{
					"internalType": "uint256",
					"name": "tokenId",
					"type": "uint256"
				}
			],
			"name": "getApproved",
			"outputs": [
				{
					"internalType": "address",
					"name": "",
					"type": "address"
				}
			],
			"stateMutability": "view",
			"type": "function"
		},
		{
			"inputs": [],
			"name": "getChainId",
			"outputs": [
				{
					"internalType": "uint256",
					"name": "",
					"type": "uint256"
				}
			],
			"stateMutability": "view",
			"type": "function"
		},
		{
			"inputs": [],
			"name": "getDomainSeperator",
			"outputs": [
				{
					"internalType": "bytes32",
					"name": "",
					"type": "bytes32"
				}
			],
			"stateMutability": "view",
			"type": "function"
		},
		{
			"inputs": [
				{
					"internalType": "address",
					"name": "user",
					"type": "address"
				}
			],
			"name": "getNonce",
			"outputs": [
				{
					"internalType": "uint256",
					"name": "nonce",
					"type": "uint256"
				}
			],
			"stateMutability": "view",
			"type": "function"
		},
		{
			"inputs": [
				{
					"internalType": "uint256",
					"name": "",
					"type": "uint256"
				},
				{
					"internalType": "uint256",
					"name": "",
					"type": "uint256"
				}
			],
			"name": "index2degree",
			"outputs": [
				{
					"internalType": "uint256",
					"name": "",
					"type": "uint256"
				}
			],
			"stateMutability": "view",
			"type": "function"
		},
		{
			"inputs": [
				{
					"internalType": "address",
					"name": "owner",
					"type": "address"
				},
				{
					"internalType": "address",
					"name": "operator",
					"type": "address"
				}
			],
			"name": "isApprovedForAll",
			"outputs": [
				{
					"internalType": "bool",
					"name": "",
					"type": "bool"
				}
			],
			"stateMutability": "view",
			"type": "function"
		},
		{
			"inputs": [],
			"name": "mint",
			"outputs": [],
			"stateMutability": "nonpayable",
			"type": "function"
		},
		{
			"inputs": [
				{
					"internalType": "address",
					"name": "_to",
					"type": "address"
				}
			],
			"name": "mintTo",
			"outputs": [],
			"stateMutability": "nonpayable",
			"type": "function"
		},
		{
			"inputs": [],
			"name": "name",
			"outputs": [
				{
					"internalType": "string",
					"name": "",
					"type": "string"
				}
			],
			"stateMutability": "view",
			"type": "function"
		},
		{
			"inputs": [],
			"name": "owner",
			"outputs": [
				{
					"internalType": "address",
					"name": "",
					"type": "address"
				}
			],
			"stateMutability": "view",
			"type": "function"
		},
		{
			"inputs": [
				{
					"internalType": "uint256",
					"name": "tokenId",
					"type": "uint256"
				}
			],
			"name": "ownerOf",
			"outputs": [
				{
					"internalType": "address",
					"name": "",
					"type": "address"
				}
			],
			"stateMutability": "view",
			"type": "function"
		},
		{
			"inputs": [],
			"name": "renounceOwnership",
			"outputs": [],
			"stateMutability": "nonpayable",
			"type": "function"
		},
		{
			"inputs": [
				{
					"internalType": "address",
					"name": "from",
					"type": "address"
				},
				{
					"internalType": "address",
					"name": "to",
					"type": "address"
				},
				{
					"internalType": "uint256",
					"name": "tokenId",
					"type": "uint256"
				}
			],
			"name": "safeTransferFrom",
			"outputs": [],
			"stateMutability": "nonpayable",
			"type": "function"
		},
		{
			"inputs": [
				{
					"internalType": "address",
					"name": "from",
					"type": "address"
				},
				{
					"internalType": "address",
					"name": "to",
					"type": "address"
				},
				{
					"internalType": "uint256",
					"name": "tokenId",
					"type": "uint256"
				},
				{
					"internalType": "bytes",
					"name": "_data",
					"type": "bytes"
				}
			],
			"name": "safeTransferFrom",
			"outputs": [],
			"stateMutability": "nonpayable",
			"type": "function"
		},
		{
			"inputs": [
				{
					"internalType": "address",
					"name": "operator",
					"type": "address"
				},
				{
					"internalType": "bool",
					"name": "approved",
					"type": "bool"
				}
			],
			"name": "setApprovalForAll",
			"outputs": [],
			"stateMutability": "nonpayable",
			"type": "function"
		},
		{
			"inputs": [
				{
					"internalType": "uint256",
					"name": "_radiant",
					"type": "uint256"
				}
			],
			"name": "sin",
			"outputs": [
				{
					"internalType": "bool",
					"name": "_sign",
					"type": "bool"
				},
				{
					"internalType": "uint256",
					"name": "_output",
					"type": "uint256"
				}
			],
			"stateMutability": "view",
			"type": "function"
		},
		{
			"inputs": [
				{
					"internalType": "bytes4",
					"name": "interfaceId",
					"type": "bytes4"
				}
			],
			"name": "supportsInterface",
			"outputs": [
				{
					"internalType": "bool",
					"name": "",
					"type": "bool"
				}
			],
			"stateMutability": "view",
			"type": "function"
		},
		{
			"inputs": [],
			"name": "symbol",
			"outputs": [
				{
					"internalType": "string",
					"name": "",
					"type": "string"
				}
			],
			"stateMutability": "view",
			"type": "function"
		},
		{
			"inputs": [
				{
					"internalType": "uint256",
					"name": "tokenId",
					"type": "uint256"
				}
			],
			"name": "tokenURI",
			"outputs": [
				{
					"internalType": "string",
					"name": "output",
					"type": "string"
				}
			],
			"stateMutability": "view",
			"type": "function"
		},
		{
			"inputs": [],
			"name": "totalSupply",
			"outputs": [
				{
					"internalType": "uint256",
					"name": "",
					"type": "uint256"
				}
			],
			"stateMutability": "view",
			"type": "function"
		},
		{
			"inputs": [
				{
					"internalType": "address",
					"name": "from",
					"type": "address"
				},
				{
					"internalType": "address",
					"name": "to",
					"type": "address"
				},
				{
					"internalType": "uint256",
					"name": "tokenId",
					"type": "uint256"
				}
			],
			"name": "transferFrom",
			"outputs": [],
			"stateMutability": "nonpayable",
			"type": "function"
		},
		{
			"inputs": [
				{
					"internalType": "address",
					"name": "newOwner",
					"type": "address"
				}
			],
			"name": "transferOwnership",
			"outputs": [],
			"stateMutability": "nonpayable",
			"type": "function"
		}
	]
}